{"abi":[{"type":"constructor","inputs":[{"name":"_initialRecipient","type":"address","internalType":"address"},{"name":"_gas","type":"address","internalType":"address"}],"stateMutability":"nonpayable"},{"type":"function","name":"ADX","inputs":[],"outputs":[{"name":"","type":"address","internalType":"address"}],"stateMutability":"view"},{"type":"function","name":"DEAD","inputs":[],"outputs":[{"name":"","type":"address","internalType":"address"}],"stateMutability":"view"},{"type":"function","name":"USDT","inputs":[],"outputs":[{"name":"","type":"address","internalType":"address"}],"stateMutability":"view"},{"type":"function","name":"allowance","inputs":[{"name":"owner","type":"address","internalType":"address"},{"name":"spender","type":"address","internalType":"address"}],"outputs":[{"name":"","type":"uint256","internalType":"uint256"}],"stateMutability":"view"},{"type":"function","name":"allowlist","inputs":[{"name":"","type":"address","internalType":"address"}],"outputs":[{"name":"","type":"bool","internalType":"bool"}],"stateMutability":"view"},{"type":"function","name":"approve","inputs":[{"name":"spender","type":"address","internalType":"address"},{"name":"value","type":"uint256","internalType":"uint256"}],"outputs":[{"name":"","type":"bool","internalType":"bool"}],"stateMutability":"nonpayable"},{"type":"function","name":"balanceOf","inputs":[{"name":"account","type":"address","internalType":"address"}],"outputs":[{"name":"","type":"uint256","internalType":"uint256"}],"stateMutability":"view"},{"type":"function","name":"buy_tax_rate","inputs":[],"outputs":[{"name":"","type":"uint256","internalType":"uint256"}],"stateMutability":"view"},{"type":"function","name":"decimals","inputs":[],"outputs":[{"name":"","type":"uint8","internalType":"uint8"}],"stateMutability":"view"},{"type":"function","name":"gas","inputs":[],"outputs":[{"name":"","type":"address","internalType":"address"}],"stateMutability":"view"},{"type":"function","name":"getAmountOut","inputs":[{"name":"amount","type":"uint256","internalType":"uint256"}],"outputs":[{"name":"","type":"uint256","internalType":"uint256"}],"stateMutability":"view"},{"type":"function","name":"name","inputs":[],"outputs":[{"name":"","type":"string","internalType":"string"}],"stateMutability":"view"},{"type":"function","name":"owner","inputs":[],"outputs":[{"name":"","type":"address","internalType":"address"}],"stateMutability":"view"},{"type":"function","name":"pancakePair","inputs":[],"outputs":[{"name":"","type":"address","internalType":"address"}],"stateMutability":"view"},{"type":"function","name":"pancakeRouter","inputs":[],"outputs":[{"name":"","type":"address","internalType":"contract IPancakeRouter02"}],"stateMutability":"view"},{"type":"function","name":"renounceOwnership","inputs":[],"outputs":[],"stateMutability":"nonpayable"},{"type":"function","name":"sell_tax_rate","inputs":[],"outputs":[{"name":"","type":"uint256","internalType":"uint256"}],"stateMutability":"view"},{"type":"function","name":"setAllowlist","inputs":[{"name":"addrs","type":"address[]","internalType":"address[]"},{"name":"isAllow","type":"bool","internalType":"bool"}],"outputs":[],"stateMutability":"nonpayable"},{"type":"function","name":"setGasAddr","inputs":[{"name":"_gas","type":"address","internalType":"address"}],"outputs":[],"stateMutability":"nonpayable"},{"type":"function","name":"symbol","inputs":[],"outputs":[{"name":"","type":"string","internalType":"string"}],"stateMutability":"view"},{"type":"function","name":"totalSupply","inputs":[],"outputs":[{"name":"","type":"uint256","internalType":"uint256"}],"stateMutability":"view"},{"type":"function","name":"transfer","inputs":[{"name":"to","type":"address","internalType":"address"},{"name":"value","type":"uint256","internalType":"uint256"}],"outputs":[{"name":"","type":"bool","internalType":"bool"}],"stateMutability":"nonpayable"},{"type":"function","name":"transferFrom","inputs":[{"name":"from","type":"address","internalType":"address"},{"name":"to","type":"address","internalType":"address"},{"name":"value","type":"uint256","internalType":"uint256"}],"outputs":[{"name":"","type":"bool","internalType":"bool"}],"stateMutability":"nonpayable"},{"type":"function","name":"transferOwnership","inputs":[{"name":"newOwner","type":"address","internalType":"address"}],"outputs":[],"stateMutability":"nonpayable"},{"type":"event","name":"Approval","inputs":[{"name":"owner","type":"address","indexed":true,"internalType":"address"},{"name":"spender","type":"address","indexed":true,"internalType":"address"},{"name":"value","type":"uint256","indexed":false,"internalType":"uint256"}],"anonymous":false},{"type":"event","name":"OwnershipTransferred","inputs":[{"name":"previousOwner","type":"address","indexed":true,"internalType":"address"},{"name":"newOwner","type":"address","indexed":true,"internalType":"address"}],"anonymous":false},{"type":"event","name":"Transfer","inputs":[{"name":"from","type":"address","indexed":true,"internalType":"address"},{"name":"to","type":"address","indexed":true,"internalType":"address"},{"name":"value","type":"uint256","indexed":false,"internalType":"uint256"}],"anonymous":false},{"type":"error","name":"ERC20InsufficientAllowance","inputs":[{"name":"spender","type":"address","internalType":"address"},{"name":"allowance","type":"uint256","internalType":"uint256"},{"name":"needed","type":"uint256","internalType":"uint256"}]},{"type":"error","name":"ERC20InsufficientBalance","inputs":[{"name":"sender","type":"address","internalType":"address"},{"name":"balance","type":"uint256","internalType":"uint256"},{"name":"needed","type":"uint256","internalType":"uint256"}]},{"type":"error","name":"ERC20InvalidApprover","inputs":[{"name":"approver","type":"address","internalType":"address"}]},{"type":"error","name":"ERC20InvalidReceiver","inputs":[{"name":"receiver","type":"address","internalType":"address"}]},{"type":"error","name":"ERC20InvalidSender","inputs":[{"name":"sender","type":"address","internalType":"address"}]},{"type":"error","name":"ERC20InvalidSpender","inputs":[{"name":"spender","type":"address","internalType":"address"}]},{"type":"error","name":"OwnableInvalidOwner","inputs":[{"name":"owner","type":"address","internalType":"address"}]},{"type":"error","name":"OwnableUnauthorizedAccount","inputs":[{"name":"account","type":"address","internalType":"address"}]}],"bytecode":{"object":"0x6080604052731f7cda03d18834c8328ca259abe57bf33c46647c600660006101000a81548173ffffffffffffffffffffffffffffffffffffffff021916908373ffffffffffffffffffffffffffffffffffffffff160217905550601460075560646008553480156200007057600080fd5b50604051620040fe380380620040fe833981810160405281019062000096919062001133565b336040518060400160405280600681526020017f58313031763200000000000000000000000000000000000000000000000000008152506040518060400160405280600481526020017f58313031000000000000000000000000000000000000000000000000000000008152508160039081620001149190620013f4565b508060049081620001269190620013f4565b505050600073ffffffffffffffffffffffffffffffffffffffff168173ffffffffffffffffffffffffffffffffffffffff16036200019e5760006040517f1e4fbdf7000000000000000000000000000000000000000000000000000000008152600401620001959190620014ec565b60405180910390fd5b620001af81620003d760201b60201c565b50620001cc8269d5e035af96a8534000006200049d60201b60201c565b600660009054906101000a900473ffffffffffffffffffffffffffffffffffffffff1673ffffffffffffffffffffffffffffffffffffffff1663c45a01556040518163ffffffff1660e01b8152600401602060405180830381865afa1580156200023a573d6000803e3d6000fd5b505050506040513d601f19601f8201168201806040525081019062000260919062001509565b73ffffffffffffffffffffffffffffffffffffffff1663c9c65396307368a4d37635cdb55af61b8e58446949fb21f384e56040518363ffffffff1660e01b8152600401620002b09291906200153b565b6020604051808303816000875af1158015620002d0573d6000803e3d6000fd5b505050506040513d601f19601f82011682018060405250810190620002f6919062001509565b600960006101000a81548173ffffffffffffffffffffffffffffffffffffffff021916908373ffffffffffffffffffffffffffffffffffffffff16021790555080600a60006101000a81548173ffffffffffffffffffffffffffffffffffffffff021916908373ffffffffffffffffffffffffffffffffffffffff1602179055506001600b60008473ffffffffffffffffffffffffffffffffffffffff1673ffffffffffffffffffffffffffffffffffffffff16815260200190815260200160002060006101000a81548160ff021916908315150217905550505062001bcb565b6000600560009054906101000a900473ffffffffffffffffffffffffffffffffffffffff16905081600560006101000a81548173ffffffffffffffffffffffffffffffffffffffff021916908373ffffffffffffffffffffffffffffffffffffffff1602179055508173ffffffffffffffffffffffffffffffffffffffff168173ffffffffffffffffffffffffffffffffffffffff167f8be0079c531659141344cd1fd0a4f28419497f9722a3daafe3b4186f6b6457e060405160405180910390a35050565b600073ffffffffffffffffffffffffffffffffffffffff168273ffffffffffffffffffffffffffffffffffffffff1603620005125760006040517fec442f05000000000000000000000000000000000000000000000000000000008152600401620005099190620014ec565b60405180910390fd5b62000526600083836200052a60201b60201c565b5050565b600073ffffffffffffffffffffffffffffffffffffffff168373ffffffffffffffffffffffffffffffffffffffff161480620005925750600073ffffffffffffffffffffffffffffffffffffffff168273ffffffffffffffffffffffffffffffffffffffff16145b80620005e75750600b60008473ffffffffffffffffffffffffffffffffffffffff1673ffffffffffffffffffffffffffffffffffffffff16815260200190815260200160002060009054906101000a900460ff165b806200063c5750600b60008373ffffffffffffffffffffffffffffffffffffffff1673ffffffffffffffffffffffffffffffffffffffff16815260200190815260200160002060009054906101000a900460ff165b156200065b57620006558383836200093460201b60201c565b6200092f565b6000600960009054906101000a900473ffffffffffffffffffffffffffffffffffffffff1673ffffffffffffffffffffffffffffffffffffffff168473ffffffffffffffffffffffffffffffffffffffff161490506000600960009054906101000a900473ffffffffffffffffffffffffffffffffffffffff1673ffffffffffffffffffffffffffffffffffffffff168473ffffffffffffffffffffffffffffffffffffffff1614905081806200070f5750805b62000751576040517f08c379a00000000000000000000000000000000000000000000000000000000081526004016200074890620015c9565b60405180910390fd5b6000808490508380156200076757506000600854115b1562000793576064600854866200077f91906200161a565b6200078b919062001694565b9150620007cb565b828015620007a357506000600754115b15620007ca57606460075486620007bb91906200161a565b620007c7919062001694565b91505b5b6000821115620007fb578185620007e39190620016cc565b9050620007fa8761dead846200093460201b60201c565b5b828015620008585750600073ffffffffffffffffffffffffffffffffffffffff16600a60009054906101000a900473ffffffffffffffffffffffffffffffffffffffff1673ffffffffffffffffffffffffffffffffffffffff1614155b1562000917576000620008718262000b6460201b60201c565b905060008111156200091557600a60009054906101000a900473ffffffffffffffffffffffffffffffffffffffff1673ffffffffffffffffffffffffffffffffffffffff1663c25d6a9a8961dead846040518463ffffffff1660e01b8152600401620008e09392919062001718565b600060405180830381600087803b158015620008fb57600080fd5b505af115801562000910573d6000803e3d6000fd5b505050505b505b6200092a8787836200093460201b60201c565b505050505b505050565b600073ffffffffffffffffffffffffffffffffffffffff168373ffffffffffffffffffffffffffffffffffffffff16036200098a5780600260008282546200097d919062001755565b9250508190555062000a60565b60008060008573ffffffffffffffffffffffffffffffffffffffff1673ffffffffffffffffffffffffffffffffffffffff1681526020019081526020016000205490508181101562000a19578381836040517fe450d38c00000000000000000000000000000000000000000000000000000000815260040162000a109392919062001790565b60405180910390fd5b8181036000808673ffffffffffffffffffffffffffffffffffffffff1673ffffffffffffffffffffffffffffffffffffffff16815260200190815260200160002081905550505b600073ffffffffffffffffffffffffffffffffffffffff168273ffffffffffffffffffffffffffffffffffffffff160362000aab578060026000828254039250508190555062000af8565b806000808473ffffffffffffffffffffffffffffffffffffffff1673ffffffffffffffffffffffffffffffffffffffff168152602001908152602001600020600082825401925050819055505b8173ffffffffffffffffffffffffffffffffffffffff168373ffffffffffffffffffffffffffffffffffffffff167fddf252ad1be2c89b69c2b068fc378daa952ba7f163c4a11628f55a4df523b3ef8360405162000b579190620017cd565b60405180910390a3505050565b600080600660009054906101000a900473ffffffffffffffffffffffffffffffffffffffff1673ffffffffffffffffffffffffffffffffffffffff1663c45a01556040518163ffffffff1660e01b8152600401602060405180830381865afa15801562000bd5573d6000803e3d6000fd5b505050506040513d601f19601f8201168201806040525081019062000bfb919062001509565b9050600080600960009054906101000a900473ffffffffffffffffffffffffffffffffffffffff1673ffffffffffffffffffffffffffffffffffffffff16630902f1ac6040518163ffffffff1660e01b8152600401606060405180830381865afa15801562000c6e573d6000803e3d6000fd5b505050506040513d601f19601f8201168201806040525081019062000c94919062001876565b50915091506000826dffffffffffffffffffffffffffff1611801562000cca57506000816dffffffffffffffffffffffffffff16115b15620010ad5760008373ffffffffffffffffffffffffffffffffffffffff1663e6a439057368a4d37635cdb55af61b8e58446949fb21f384e5733ea660cdc7b7ccc9f81c955f1f2412dceb8518a56040518363ffffffff1660e01b815260040162000d379291906200153b565b602060405180830381865afa15801562000d55573d6000803e3d6000fd5b505050506040513d601f19601f8201168201806040525081019062000d7b919062001509565b9050600073ffffffffffffffffffffffffffffffffffffffff168173ffffffffffffffffffffffffffffffffffffffff1614620010ab576000808273ffffffffffffffffffffffffffffffffffffffff16630902f1ac6040518163ffffffff1660e01b8152600401606060405180830381865afa15801562000e01573d6000803e3d6000fd5b505050506040513d601f19601f8201168201806040525081019062000e27919062001876565b50915091506000826dffffffffffffffffffffffffffff1611801562000e5d57506000816dffffffffffffffffffffffffffff16115b15620010a8576000600367ffffffffffffffff81111562000e835762000e8262001185565b5b60405190808252806020026020018201604052801562000eb25781602001602082028036833780820191505090505b509050308160008151811062000ecd5762000ecc620018d2565b5b602002602001019073ffffffffffffffffffffffffffffffffffffffff16908173ffffffffffffffffffffffffffffffffffffffff16815250507368a4d37635cdb55af61b8e58446949fb21f384e58160018151811062000f335762000f32620018d2565b5b602002602001019073ffffffffffffffffffffffffffffffffffffffff16908173ffffffffffffffffffffffffffffffffffffffff1681525050733ea660cdc7b7ccc9f81c955f1f2412dceb8518a58160028151811062000f995762000f98620018d2565b5b602002602001019073ffffffffffffffffffffffffffffffffffffffff16908173ffffffffffffffffffffffffffffffffffffffff1681525050600660009054906101000a900473ffffffffffffffffffffffffffffffffffffffff1673ffffffffffffffffffffffffffffffffffffffff1663d06ca61f8a836040518363ffffffff1660e01b815260040162001032929190620019cf565b600060405180830381865afa15801562001050573d6000803e3d6000fd5b505050506040513d6000823e3d601f19601f820116820180604052508101906200107b919062001b7a565b600281518110620010915762001090620018d2565b5b6020026020010151975050505050505050620010b5565b50505b505b600093505050505b919050565b6000604051905090565b600080fd5b600080fd5b600073ffffffffffffffffffffffffffffffffffffffff82169050919050565b6000620010fb82620010ce565b9050919050565b6200110d81620010ee565b81146200111957600080fd5b50565b6000815190506200112d8162001102565b92915050565b600080604083850312156200114d576200114c620010c4565b5b60006200115d858286016200111c565b925050602062001170858286016200111c565b9150509250929050565b600081519050919050565b7f4e487b7100000000000000000000000000000000000000000000000000000000600052604160045260246000fd5b7f4e487b7100000000000000000000000000000000000000000000000000000000600052602260045260246000fd5b60006002820490506001821680620011fc57607f821691505b602082108103620012125762001211620011b4565b5b50919050565b60008190508160005260206000209050919050565b60006020601f8301049050919050565b600082821b905092915050565b6000600883026200127c7fffffffffffffffffffffffffffffffffffffffffffffffffffffffffffffffff826200123d565b6200128886836200123d565b95508019841693508086168417925050509392505050565b6000819050919050565b6000819050919050565b6000620012d5620012cf620012c984620012a0565b620012aa565b620012a0565b9050919050565b6000819050919050565b620012f183620012b4565b620013096200130082620012dc565b8484546200124a565b825550505050565b600090565b6200132062001311565b6200132d818484620012e6565b505050565b5b8181101562001355576200134960008262001316565b60018101905062001333565b5050565b601f821115620013a4576200136e8162001218565b62001379846200122d565b8101602085101562001389578190505b620013a162001398856200122d565b83018262001332565b50505b505050565b600082821c905092915050565b6000620013c960001984600802620013a9565b1980831691505092915050565b6000620013e48383620013b6565b9150826002028217905092915050565b620013ff826200117a565b67ffffffffffffffff8111156200141b576200141a62001185565b5b620014278254620011e3565b6200143482828562001359565b600060209050601f8311600181146200146c576000841562001457578287015190505b620014638582620013d6565b865550620014d3565b601f1984166200147c8662001218565b60005b82811015620014a6578489015182556001820191506020850194506020810190506200147f565b86831015620014c65784890151620014c2601f891682620013b6565b8355505b6001600288020188555050505b505050505050565b620014e681620010ee565b82525050565b6000602082019050620015036000830184620014db565b92915050565b600060208284031215620015225762001521620010c4565b5b600062001532848285016200111c565b91505092915050565b6000604082019050620015526000830185620014db565b620015616020830184620014db565b9392505050565b600082825260208201905092915050565b7f5452414e534645525f44495341424c4544000000000000000000000000000000600082015250565b6000620015b160118362001568565b9150620015be8262001579565b602082019050919050565b60006020820190508181036000830152620015e481620015a2565b9050919050565b7f4e487b7100000000000000000000000000000000000000000000000000000000600052601160045260246000fd5b60006200162782620012a0565b91506200163483620012a0565b92508282026200164481620012a0565b915082820484148315176200165e576200165d620015eb565b5b5092915050565b7f4e487b7100000000000000000000000000000000000000000000000000000000600052601260045260246000fd5b6000620016a182620012a0565b9150620016ae83620012a0565b925082620016c157620016c062001665565b5b828204905092915050565b6000620016d982620012a0565b9150620016e683620012a0565b9250828203905081811115620017015762001700620015eb565b5b92915050565b6200171281620012a0565b82525050565b60006060820190506200172f6000830186620014db565b6200173e6020830185620014db565b6200174d604083018462001707565b949350505050565b60006200176282620012a0565b91506200176f83620012a0565b92508282019050808211156200178a5762001789620015eb565b5b92915050565b6000606082019050620017a76000830186620014db565b620017b6602083018562001707565b620017c5604083018462001707565b949350505050565b6000602082019050620017e4600083018462001707565b92915050565b60006dffffffffffffffffffffffffffff82169050919050565b6200180f81620017ea565b81146200181b57600080fd5b50565b6000815190506200182f8162001804565b92915050565b600063ffffffff82169050919050565b620018508162001835565b81146200185c57600080fd5b50565b600081519050620018708162001845565b92915050565b600080600060608486031215620018925762001891620010c4565b5b6000620018a2868287016200181e565b9350506020620018b5868287016200181e565b9250506040620018c8868287016200185f565b9150509250925092565b7f4e487b7100000000000000000000000000000000000000000000000000000000600052603260045260246000fd5b600081519050919050565b600082825260208201905092915050565b6000819050602082019050919050565b6200193881620010ee565b82525050565b60006200194c83836200192d565b60208301905092915050565b6000602082019050919050565b6000620019728262001901565b6200197e81856200190c565b93506200198b836200191d565b8060005b83811015620019c2578151620019a688826200193e565b9750620019b38362001958565b9250506001810190506200198f565b5085935050505092915050565b6000604082019050620019e6600083018562001707565b8181036020830152620019fa818462001965565b90509392505050565b600080fd5b6000601f19601f8301169050919050565b62001a248262001a08565b810181811067ffffffffffffffff8211171562001a465762001a4562001185565b5b80604052505050565b600062001a5b620010ba565b905062001a69828262001a19565b919050565b600067ffffffffffffffff82111562001a8c5762001a8b62001185565b5b602082029050602081019050919050565b600080fd5b62001aad81620012a0565b811462001ab957600080fd5b50565b60008151905062001acd8162001aa2565b92915050565b600062001aea62001ae48462001a6e565b62001a4f565b9050808382526020820190506020840283018581111562001b105762001b0f62001a9d565b5b835b8181101562001b3d578062001b28888262001abc565b84526020840193505060208101905062001b12565b5050509392505050565b600082601f83011262001b5f5762001b5e62001a03565b5b815162001b7184826020860162001ad3565b91505092915050565b60006020828403121562001b935762001b92620010c4565b5b600082015167ffffffffffffffff81111562001bb45762001bb3620010c9565b5b62001bc28482850162001b47565b91505092915050565b6125238062001bdb6000396000f3fe608060405234801561001057600080fd5b50600436106101585760003560e01c80638da5cb5b116100c3578063c21ebd071161007c578063c21ebd07146103cf578063c54e44eb146103ed578063dcea0a641461040b578063dd62ed3e14610429578063f01fe7c414610459578063f2fde38b1461047557610158565b80638da5cb5b146102f757806395d89b4114610315578063a1f9705014610333578063a7cd52cb14610351578063a9059cbb14610381578063b8c9d25c146103b157610158565b80635c195217116101155780635c19521714610235578063664002f5146102655780636ca7c216146102815780636e620c451461029f57806370a08231146102bd578063715018a6146102ed57610158565b806303fd2a451461015d57806306fdde031461017b578063095ea7b31461019957806318160ddd146101c957806323b872dd146101e7578063313ce56714610217575b600080fd5b610165610491565b60405161017291906119ab565b60405180910390f35b610183610497565b6040516101909190611a56565b60405180910390f35b6101b360048036038101906101ae9190611aee565b610529565b6040516101c09190611b49565b60405180910390f35b6101d161054c565b6040516101de9190611b73565b60405180910390f35b61020160048036038101906101fc9190611b8e565b610556565b60405161020e9190611b49565b60405180910390f35b61021f610585565b60405161022c9190611bfd565b60405180910390f35b61024f600480360381019061024a9190611c18565b61058e565b60405161025c9190611b73565b60405180910390f35b61027f600480360381019061027a9190611c45565b610abb565b005b610289610b07565b60405161029691906119ab565b60405180910390f35b6102a7610b2d565b6040516102b49190611b73565b60405180910390f35b6102d760048036038101906102d29190611c45565b610b33565b6040516102e49190611b73565b60405180910390f35b6102f5610b7b565b005b6102ff610b8f565b60405161030c91906119ab565b60405180910390f35b61031d610bb9565b60405161032a9190611a56565b60405180910390f35b61033b610c4b565b6040516103489190611b73565b60405180910390f35b61036b60048036038101906103669190611c45565b610c51565b6040516103789190611b49565b60405180910390f35b61039b60048036038101906103969190611aee565b610c71565b6040516103a89190611b49565b60405180910390f35b6103b9610c94565b6040516103c691906119ab565b60405180910390f35b6103d7610cba565b6040516103e49190611cd1565b60405180910390f35b6103f5610ce0565b60405161040291906119ab565b60405180910390f35b610413610cf8565b60405161042091906119ab565b60405180910390f35b610443600480360381019061043e9190611cec565b610d10565b6040516104509190611b73565b60405180910390f35b610473600480360381019061046e9190611ea0565b610d97565b005b61048f600480360381019061048a9190611c45565b610e2e565b005b61dead81565b6060600380546104a690611f2b565b80601f01602080910402602001604051908101604052809291908181526020018280546104d290611f2b565b801561051f5780601f106104f45761010080835404028352916020019161051f565b820191906000526020600020905b81548152906001019060200180831161050257829003601f168201915b5050505050905090565b600080610534610eb4565b9050610541818585610ebc565b600191505092915050565b6000600254905090565b600080610561610eb4565b905061056e858285610ece565b610579858585610f63565b60019150509392505050565b60006012905090565b600080600660009054906101000a900473ffffffffffffffffffffffffffffffffffffffff1673ffffffffffffffffffffffffffffffffffffffff1663c45a01556040518163ffffffff1660e01b8152600401602060405180830381865afa1580156105fe573d6000803e3d6000fd5b505050506040513d601f19601f820116820180604052508101906106229190611f71565b9050600080600960009054906101000a900473ffffffffffffffffffffffffffffffffffffffff1673ffffffffffffffffffffffffffffffffffffffff16630902f1ac6040518163ffffffff1660e01b8152600401606060405180830381865afa158015610694573d6000803e3d6000fd5b505050506040513d601f19601f820116820180604052508101906106b89190612020565b50915091506000826dffffffffffffffffffffffffffff161180156106ed57506000816dffffffffffffffffffffffffffff16115b15610aae5760008373ffffffffffffffffffffffffffffffffffffffff1663e6a439057368a4d37635cdb55af61b8e58446949fb21f384e5733ea660cdc7b7ccc9f81c955f1f2412dceb8518a56040518363ffffffff1660e01b8152600401610757929190612073565b602060405180830381865afa158015610774573d6000803e3d6000fd5b505050506040513d601f19601f820116820180604052508101906107989190611f71565b9050600073ffffffffffffffffffffffffffffffffffffffff168173ffffffffffffffffffffffffffffffffffffffff1614610aac576000808273ffffffffffffffffffffffffffffffffffffffff16630902f1ac6040518163ffffffff1660e01b8152600401606060405180830381865afa15801561081c573d6000803e3d6000fd5b505050506040513d601f19601f820116820180604052508101906108409190612020565b50915091506000826dffffffffffffffffffffffffffff1611801561087557506000816dffffffffffffffffffffffffffff16115b15610aa9576000600367ffffffffffffffff81111561089757610896611d31565b5b6040519080825280602002602001820160405280156108c55781602001602082028036833780820191505090505b50905030816000815181106108dd576108dc61209c565b5b602002602001019073ffffffffffffffffffffffffffffffffffffffff16908173ffffffffffffffffffffffffffffffffffffffff16815250507368a4d37635cdb55af61b8e58446949fb21f384e5816001815181106109405761093f61209c565b5b602002602001019073ffffffffffffffffffffffffffffffffffffffff16908173ffffffffffffffffffffffffffffffffffffffff1681525050733ea660cdc7b7ccc9f81c955f1f2412dceb8518a5816002815181106109a3576109a261209c565b5b602002602001019073ffffffffffffffffffffffffffffffffffffffff16908173ffffffffffffffffffffffffffffffffffffffff1681525050600660009054906101000a900473ffffffffffffffffffffffffffffffffffffffff1673ffffffffffffffffffffffffffffffffffffffff1663d06ca61f8a836040518363ffffffff1660e01b8152600401610a3a929190612189565b600060405180830381865afa158015610a57573d6000803e3d6000fd5b505050506040513d6000823e3d601f19601f82011682018060405250810190610a809190612291565b600281518110610a9357610a9261209c565b5b6020026020010151975050505050505050610ab6565b50505b505b600093505050505b919050565b610ac3611057565b80600a60006101000a81548173ffffffffffffffffffffffffffffffffffffffff021916908373ffffffffffffffffffffffffffffffffffffffff16021790555050565b600a60009054906101000a900473ffffffffffffffffffffffffffffffffffffffff1681565b60085481565b60008060008373ffffffffffffffffffffffffffffffffffffffff1673ffffffffffffffffffffffffffffffffffffffff168152602001908152602001600020549050919050565b610b83611057565b610b8d60006110de565b565b6000600560009054906101000a900473ffffffffffffffffffffffffffffffffffffffff16905090565b606060048054610bc890611f2b565b80601f0160208091040260200160405190810160405280929190818152602001828054610bf490611f2b565b8015610c415780601f10610c1657610100808354040283529160200191610c41565b820191906000526020600020905b815481529060010190602001808311610c2457829003601f168201915b5050505050905090565b60075481565b600b6020528060005260406000206000915054906101000a900460ff1681565b600080610c7c610eb4565b9050610c89818585610f63565b600191505092915050565b600960009054906101000a900473ffffffffffffffffffffffffffffffffffffffff1681565b600660009054906101000a900473ffffffffffffffffffffffffffffffffffffffff1681565b733ea660cdc7b7ccc9f81c955f1f2412dceb8518a581565b7368a4d37635cdb55af61b8e58446949fb21f384e581565b6000600160008473ffffffffffffffffffffffffffffffffffffffff1673ffffffffffffffffffffffffffffffffffffffff16815260200190815260200160002060008373ffffffffffffffffffffffffffffffffffffffff1673ffffffffffffffffffffffffffffffffffffffff16815260200190815260200160002054905092915050565b610d9f611057565b60005b8251811015610e295781600b6000858481518110610dc357610dc261209c565b5b602002602001015173ffffffffffffffffffffffffffffffffffffffff1673ffffffffffffffffffffffffffffffffffffffff16815260200190815260200160002060006101000a81548160ff0219169083151502179055508080600101915050610da2565b505050565b610e36611057565b600073ffffffffffffffffffffffffffffffffffffffff168173ffffffffffffffffffffffffffffffffffffffff1603610ea85760006040517f1e4fbdf7000000000000000000000000000000000000000000000000000000008152600401610e9f91906119ab565b60405180910390fd5b610eb1816110de565b50565b600033905090565b610ec983838360016111a4565b505050565b6000610eda8484610d10565b90507fffffffffffffffffffffffffffffffffffffffffffffffffffffffffffffffff811015610f5d5781811015610f4d578281836040517ffb8f41b2000000000000000000000000000000000000000000000000000000008152600401610f44939291906122da565b60405180910390fd5b610f5c848484840360006111a4565b5b50505050565b600073ffffffffffffffffffffffffffffffffffffffff168373ffffffffffffffffffffffffffffffffffffffff1603610fd55760006040517f96c6fd1e000000000000000000000000000000000000000000000000000000008152600401610fcc91906119ab565b60405180910390fd5b600073ffffffffffffffffffffffffffffffffffffffff168273ffffffffffffffffffffffffffffffffffffffff16036110475760006040517fec442f0500000000000000000000000000000000000000000000000000000000815260040161103e91906119ab565b60405180910390fd5b61105283838361137b565b505050565b61105f610eb4565b73ffffffffffffffffffffffffffffffffffffffff1661107d610b8f565b73ffffffffffffffffffffffffffffffffffffffff16146110dc576110a0610eb4565b6040517f118cdaa70000000000000000000000000000000000000000000000000000000081526004016110d391906119ab565b60405180910390fd5b565b6000600560009054906101000a900473ffffffffffffffffffffffffffffffffffffffff16905081600560006101000a81548173ffffffffffffffffffffffffffffffffffffffff021916908373ffffffffffffffffffffffffffffffffffffffff1602179055508173ffffffffffffffffffffffffffffffffffffffff168173ffffffffffffffffffffffffffffffffffffffff167f8be0079c531659141344cd1fd0a4f28419497f9722a3daafe3b4186f6b6457e060405160405180910390a35050565b600073ffffffffffffffffffffffffffffffffffffffff168473ffffffffffffffffffffffffffffffffffffffff16036112165760006040517fe602df0500000000000000000000000000000000000000000000000000000000815260040161120d91906119ab565b60405180910390fd5b600073ffffffffffffffffffffffffffffffffffffffff168373ffffffffffffffffffffffffffffffffffffffff16036112885760006040517f94280d6200000000000000000000000000000000000000000000000000000000815260040161127f91906119ab565b60405180910390fd5b81600160008673ffffffffffffffffffffffffffffffffffffffff1673ffffffffffffffffffffffffffffffffffffffff16815260200190815260200160002060008573ffffffffffffffffffffffffffffffffffffffff1673ffffffffffffffffffffffffffffffffffffffff168152602001908152602001600020819055508015611375578273ffffffffffffffffffffffffffffffffffffffff168473ffffffffffffffffffffffffffffffffffffffff167f8c5be1e5ebec7d5bd14f71427d1e84f3dd0314c0f7b2291e5b200ac8c7c3b9258460405161136c9190611b73565b60405180910390a35b50505050565b600073ffffffffffffffffffffffffffffffffffffffff168373ffffffffffffffffffffffffffffffffffffffff1614806113e25750600073ffffffffffffffffffffffffffffffffffffffff168273ffffffffffffffffffffffffffffffffffffffff16145b806114365750600b60008473ffffffffffffffffffffffffffffffffffffffff1673ffffffffffffffffffffffffffffffffffffffff16815260200190815260200160002060009054906101000a900460ff165b8061148a5750600b60008373ffffffffffffffffffffffffffffffffffffffff1673ffffffffffffffffffffffffffffffffffffffff16815260200190815260200160002060009054906101000a900460ff165b1561149f5761149a838383611745565b611740565b6000600960009054906101000a900473ffffffffffffffffffffffffffffffffffffffff1673ffffffffffffffffffffffffffffffffffffffff168473ffffffffffffffffffffffffffffffffffffffff161490506000600960009054906101000a900473ffffffffffffffffffffffffffffffffffffffff1673ffffffffffffffffffffffffffffffffffffffff168473ffffffffffffffffffffffffffffffffffffffff1614905081806115525750805b611591576040517f08c379a00000000000000000000000000000000000000000000000000000000081526004016115889061235d565b60405180910390fd5b6000808490508380156115a657506000600854115b156115cc576064600854866115bb91906123ac565b6115c5919061241d565b91506115fe565b8280156115db57506000600754115b156115fd576064600754866115f091906123ac565b6115fa919061241d565b91505b5b6000821115611623578185611613919061244e565b90506116228761dead84611745565b5b82801561167f5750600073ffffffffffffffffffffffffffffffffffffffff16600a60009054906101000a900473ffffffffffffffffffffffffffffffffffffffff1673ffffffffffffffffffffffffffffffffffffffff1614155b1561173057600061168f8261058e565b9050600081111561172e57600a60009054906101000a900473ffffffffffffffffffffffffffffffffffffffff1673ffffffffffffffffffffffffffffffffffffffff1663c25d6a9a8961dead846040518463ffffffff1660e01b81526004016116fb93929190612482565b600060405180830381600087803b15801561171557600080fd5b505af1158015611729573d6000803e3d6000fd5b505050505b505b61173b878783611745565b505050505b505050565b600073ffffffffffffffffffffffffffffffffffffffff168373ffffffffffffffffffffffffffffffffffffffff160361179757806002600082825461178b91906124b9565b9250508190555061186a565b60008060008573ffffffffffffffffffffffffffffffffffffffff1673ffffffffffffffffffffffffffffffffffffffff16815260200190815260200160002054905081811015611823578381836040517fe450d38c00000000000000000000000000000000000000000000000000000000815260040161181a939291906122da565b60405180910390fd5b8181036000808673ffffffffffffffffffffffffffffffffffffffff1673ffffffffffffffffffffffffffffffffffffffff16815260200190815260200160002081905550505b600073ffffffffffffffffffffffffffffffffffffffff168273ffffffffffffffffffffffffffffffffffffffff16036118b35780600260008282540392505081905550611900565b806000808473ffffffffffffffffffffffffffffffffffffffff1673ffffffffffffffffffffffffffffffffffffffff168152602001908152602001600020600082825401925050819055505b8173ffffffffffffffffffffffffffffffffffffffff168373ffffffffffffffffffffffffffffffffffffffff167fddf252ad1be2c89b69c2b068fc378daa952ba7f163c4a11628f55a4df523b3ef8360405161195d9190611b73565b60405180910390a3505050565b600073ffffffffffffffffffffffffffffffffffffffff82169050919050565b60006119958261196a565b9050919050565b6119a58161198a565b82525050565b60006020820190506119c0600083018461199c565b92915050565b600081519050919050565b600082825260208201905092915050565b60005b83811015611a005780820151818401526020810190506119e5565b60008484015250505050565b6000601f19601f8301169050919050565b6000611a28826119c6565b611a3281856119d1565b9350611a428185602086016119e2565b611a4b81611a0c565b840191505092915050565b60006020820190508181036000830152611a708184611a1d565b905092915050565b6000604051905090565b600080fd5b600080fd5b611a958161198a565b8114611aa057600080fd5b50565b600081359050611ab281611a8c565b92915050565b6000819050919050565b611acb81611ab8565b8114611ad657600080fd5b50565b600081359050611ae881611ac2565b92915050565b60008060408385031215611b0557611b04611a82565b5b6000611b1385828601611aa3565b9250506020611b2485828601611ad9565b9150509250929050565b60008115159050919050565b611b4381611b2e565b82525050565b6000602082019050611b5e6000830184611b3a565b92915050565b611b6d81611ab8565b82525050565b6000602082019050611b886000830184611b64565b92915050565b600080600060608486031215611ba757611ba6611a82565b5b6000611bb586828701611aa3565b9350506020611bc686828701611aa3565b9250506040611bd786828701611ad9565b9150509250925092565b600060ff82169050919050565b611bf781611be1565b82525050565b6000602082019050611c126000830184611bee565b92915050565b600060208284031215611c2e57611c2d611a82565b5b6000611c3c84828501611ad9565b91505092915050565b600060208284031215611c5b57611c5a611a82565b5b6000611c6984828501611aa3565b91505092915050565b6000819050919050565b6000611c97611c92611c8d8461196a565b611c72565b61196a565b9050919050565b6000611ca982611c7c565b9050919050565b6000611cbb82611c9e565b9050919050565b611ccb81611cb0565b82525050565b6000602082019050611ce66000830184611cc2565b92915050565b60008060408385031215611d0357611d02611a82565b5b6000611d1185828601611aa3565b9250506020611d2285828601611aa3565b9150509250929050565b600080fd5b7f4e487b7100000000000000000000000000000000000000000000000000000000600052604160045260246000fd5b611d6982611a0c565b810181811067ffffffffffffffff82111715611d8857611d87611d31565b5b80604052505050565b6000611d9b611a78565b9050611da78282611d60565b919050565b600067ffffffffffffffff821115611dc757611dc6611d31565b5b602082029050602081019050919050565b600080fd5b6000611df0611deb84611dac565b611d91565b90508083825260208201905060208402830185811115611e1357611e12611dd8565b5b835b81811015611e3c5780611e288882611aa3565b845260208401935050602081019050611e15565b5050509392505050565b600082601f830112611e5b57611e5a611d2c565b5b8135611e6b848260208601611ddd565b91505092915050565b611e7d81611b2e565b8114611e8857600080fd5b50565b600081359050611e9a81611e74565b92915050565b60008060408385031215611eb757611eb6611a82565b5b600083013567ffffffffffffffff811115611ed557611ed4611a87565b5b611ee185828601611e46565b9250506020611ef285828601611e8b565b9150509250929050565b7f4e487b7100000000000000000000000000000000000000000000000000000000600052602260045260246000fd5b60006002820490506001821680611f4357607f821691505b602082108103611f5657611f55611efc565b5b50919050565b600081519050611f6b81611a8c565b92915050565b600060208284031215611f8757611f86611a82565b5b6000611f9584828501611f5c565b91505092915050565b60006dffffffffffffffffffffffffffff82169050919050565b611fc181611f9e565b8114611fcc57600080fd5b50565b600081519050611fde81611fb8565b92915050565b600063ffffffff82169050919050565b611ffd81611fe4565b811461200857600080fd5b50565b60008151905061201a81611ff4565b92915050565b60008060006060848603121561203957612038611a82565b5b600061204786828701611fcf565b935050602061205886828701611fcf565b92505060406120698682870161200b565b9150509250925092565b6000604082019050612088600083018561199c565b612095602083018461199c565b9392505050565b7f4e487b7100000000000000000000000000000000000000000000000000000000600052603260045260246000fd5b600081519050919050565b600082825260208201905092915050565b6000819050602082019050919050565b6121008161198a565b82525050565b600061211283836120f7565b60208301905092915050565b6000602082019050919050565b6000612136826120cb565b61214081856120d6565b935061214b836120e7565b8060005b8381101561217c5781516121638882612106565b975061216e8361211e565b92505060018101905061214f565b5085935050505092915050565b600060408201905061219e6000830185611b64565b81810360208301526121b0818461212b565b90509392505050565b600067ffffffffffffffff8211156121d4576121d3611d31565b5b602082029050602081019050919050565b6000815190506121f481611ac2565b92915050565b600061220d612208846121b9565b611d91565b905080838252602082019050602084028301858111156122305761222f611dd8565b5b835b81811015612259578061224588826121e5565b845260208401935050602081019050612232565b5050509392505050565b600082601f83011261227857612277611d2c565b5b81516122888482602086016121fa565b91505092915050565b6000602082840312156122a7576122a6611a82565b5b600082015167ffffffffffffffff8111156122c5576122c4611a87565b5b6122d184828501612263565b91505092915050565b60006060820190506122ef600083018661199c565b6122fc6020830185611b64565b6123096040830184611b64565b949350505050565b7f5452414e534645525f44495341424c4544000000000000000000000000000000600082015250565b60006123476011836119d1565b915061235282612311565b602082019050919050565b600060208201905081810360008301526123768161233a565b9050919050565b7f4e487b7100000000000000000000000000000000000000000000000000000000600052601160045260246000fd5b60006123b782611ab8565b91506123c283611ab8565b92508282026123d081611ab8565b915082820484148315176123e7576123e661237d565b5b5092915050565b7f4e487b7100000000000000000000000000000000000000000000000000000000600052601260045260246000fd5b600061242882611ab8565b915061243383611ab8565b925082612443576124426123ee565b5b828204905092915050565b600061245982611ab8565b915061246483611ab8565b925082820390508181111561247c5761247b61237d565b5b92915050565b6000606082019050612497600083018661199c565b6124a4602083018561199c565b6124b16040830184611b64565b949350505050565b60006124c482611ab8565b91506124cf83611ab8565b92508282019050808211156124e7576124e661237d565b5b9291505056fea26469706673582212201a8acfe3335afc1ee304ce66c19c5bc67fed47adc47c8b71ae5332ad5b6e5e3a64736f6c63430008160033","linkReferences":{}},"methodIdentifiers":{"ADX()":"dcea0a64","DEAD()":"03fd2a45","USDT()":"c54e44eb","allowance(address,address)":"dd62ed3e","allowlist(address)":"a7cd52cb","approve(address,uint256)":"095ea7b3","balanceOf(address)":"70a08231","buy_tax_rate()":"6e620c45","decimals()":"313ce567","gas()":"6ca7c216","getAmountOut(uint256)":"5c195217","name()":"06fdde03","owner()":"8da5cb5b","pancakePair()":"b8c9d25c","pancakeRouter()":"c21ebd07","renounceOwnership()":"715018a6","sell_tax_rate()":"a1f97050","setAllowlist(address[],bool)":"f01fe7c4","setGasAddr(address)":"664002f5","symbol()":"95d89b41","totalSupply()":"18160ddd","transfer(address,uint256)":"a9059cbb","transferFrom(address,address,uint256)":"23b872dd","transferOwnership(address)":"f2fde38b"},"id":46}