{"abi":[{"type":"constructor","inputs":[{"name":"_initialRecipient","type":"address","internalType":"address"},{"name":"_gas","type":"address","internalType":"address"}],"stateMutability":"nonpayable"},{"type":"function","name":"ADX","inputs":[],"outputs":[{"name":"","type":"address","internalType":"address"}],"stateMutability":"view"},{"type":"function","name":"DEAD","inputs":[],"outputs":[{"name":"","type":"address","internalType":"address"}],"stateMutability":"view"},{"type":"function","name":"USDT","inputs":[],"outputs":[{"name":"","type":"address","internalType":"address"}],"stateMutability":"view"},{"type":"function","name":"allowance","inputs":[{"name":"owner","type":"address","internalType":"address"},{"name":"spender","type":"address","internalType":"address"}],"outputs":[{"name":"","type":"uint256","internalType":"uint256"}],"stateMutability":"view"},{"type":"function","name":"allowlist","inputs":[{"name":"","type":"address","internalType":"address"}],"outputs":[{"name":"","type":"bool","internalType":"bool"}],"stateMutability":"view"},{"type":"function","name":"approve","inputs":[{"name":"spender","type":"address","internalType":"address"},{"name":"value","type":"uint256","internalType":"uint256"}],"outputs":[{"name":"","type":"bool","internalType":"bool"}],"stateMutability":"nonpayable"},{"type":"function","name":"balanceOf","inputs":[{"name":"account","type":"address","internalType":"address"}],"outputs":[{"name":"","type":"uint256","internalType":"uint256"}],"stateMutability":"view"},{"type":"function","name":"buy_tax_rate","inputs":[],"outputs":[{"name":"","type":"uint256","internalType":"uint256"}],"stateMutability":"view"},{"type":"function","name":"decimals","inputs":[],"outputs":[{"name":"","type":"uint8","internalType":"uint8"}],"stateMutability":"view"},{"type":"function","name":"gas","inputs":[],"outputs":[{"name":"","type":"address","internalType":"address"}],"stateMutability":"view"},{"type":"function","name":"getAmountOut","inputs":[{"name":"amount","type":"uint256","internalType":"uint256"}],"outputs":[{"name":"","type":"uint256","internalType":"uint256"}],"stateMutability":"view"},{"type":"function","name":"name","inputs":[],"outputs":[{"name":"","type":"string","internalType":"string"}],"stateMutability":"view"},{"type":"function","name":"owner","inputs":[],"outputs":[{"name":"","type":"address","internalType":"address"}],"stateMutability":"view"},{"type":"function","name":"pancakePair","inputs":[],"outputs":[{"name":"","type":"address","internalType":"address"}],"stateMutability":"view"},{"type":"function","name":"pancakeRouter","inputs":[],"outputs":[{"name":"","type":"address","internalType":"contract IPancakeRouter02"}],"stateMutability":"view"},{"type":"function","name":"renounceOwnership","inputs":[],"outputs":[],"stateMutability":"nonpayable"},{"type":"function","name":"sell_tax_rate","inputs":[],"outputs":[{"name":"","type":"uint256","internalType":"uint256"}],"stateMutability":"view"},{"type":"function","name":"setAllowlist","inputs":[{"name":"addrs","type":"address[]","internalType":"address[]"},{"name":"isAllow","type":"bool","internalType":"bool"}],"outputs":[],"stateMutability":"nonpayable"},{"type":"function","name":"setGasAddr","inputs":[{"name":"_gas","type":"address","internalType":"address"}],"outputs":[],"stateMutability":"nonpayable"},{"type":"function","name":"setTaxRate","inputs":[{"name":"_buyRate","type":"uint256","internalType":"uint256"},{"name":"_sellRate","type":"uint256","internalType":"uint256"}],"outputs":[],"stateMutability":"nonpayable"},{"type":"function","name":"symbol","inputs":[],"outputs":[{"name":"","type":"string","internalType":"string"}],"stateMutability":"view"},{"type":"function","name":"totalSupply","inputs":[],"outputs":[{"name":"","type":"uint256","internalType":"uint256"}],"stateMutability":"view"},{"type":"function","name":"transfer","inputs":[{"name":"to","type":"address","internalType":"address"},{"name":"value","type":"uint256","internalType":"uint256"}],"outputs":[{"name":"","type":"bool","internalType":"bool"}],"stateMutability":"nonpayable"},{"type":"function","name":"transferFrom","inputs":[{"name":"from","type":"address","internalType":"address"},{"name":"to","type":"address","internalType":"address"},{"name":"value","type":"uint256","internalType":"uint256"}],"outputs":[{"name":"","type":"bool","internalType":"bool"}],"stateMutability":"nonpayable"},{"type":"function","name":"transferOwnership","inputs":[{"name":"newOwner","type":"address","internalType":"address"}],"outputs":[],"stateMutability":"nonpayable"},{"type":"event","name":"Approval","inputs":[{"name":"owner","type":"address","indexed":true,"internalType":"address"},{"name":"spender","type":"address","indexed":true,"internalType":"address"},{"name":"value","type":"uint256","indexed":false,"internalType":"uint256"}],"anonymous":false},{"type":"event","name":"OwnershipTransferred","inputs":[{"name":"previousOwner","type":"address","indexed":true,"internalType":"address"},{"name":"newOwner","type":"address","indexed":true,"internalType":"address"}],"anonymous":false},{"type":"event","name":"Transfer","inputs":[{"name":"from","type":"address","indexed":true,"internalType":"address"},{"name":"to","type":"address","indexed":true,"internalType":"address"},{"name":"value","type":"uint256","indexed":false,"internalType":"uint256"}],"anonymous":false},{"type":"error","name":"ERC20InsufficientAllowance","inputs":[{"name":"spender","type":"address","internalType":"address"},{"name":"allowance","type":"uint256","internalType":"uint256"},{"name":"needed","type":"uint256","internalType":"uint256"}]},{"type":"error","name":"ERC20InsufficientBalance","inputs":[{"name":"sender","type":"address","internalType":"address"},{"name":"balance","type":"uint256","internalType":"uint256"},{"name":"needed","type":"uint256","internalType":"uint256"}]},{"type":"error","name":"ERC20InvalidApprover","inputs":[{"name":"approver","type":"address","internalType":"address"}]},{"type":"error","name":"ERC20InvalidReceiver","inputs":[{"name":"receiver","type":"address","internalType":"address"}]},{"type":"error","name":"ERC20InvalidSender","inputs":[{"name":"sender","type":"address","internalType":"address"}]},{"type":"error","name":"ERC20InvalidSpender","inputs":[{"name":"spender","type":"address","internalType":"address"}]},{"type":"error","name":"OwnableInvalidOwner","inputs":[{"name":"owner","type":"address","internalType":"address"}]},{"type":"error","name":"OwnableUnauthorizedAccount","inputs":[{"name":"account","type":"address","internalType":"address"}]}],"bytecode":{"object":"0x6080604052731f7cda03d18834c8328ca259abe57bf33c46647c600660006101000a81548173ffffffffffffffffffffffffffffffffffffffff021916908373ffffffffffffffffffffffffffffffffffffffff160217905550601460075560646008553480156200007057600080fd5b50604051620043ab380380620043ab8339818101604052810190620000969190620011f0565b336040518060400160405280600681526020017f58313031763200000000000000000000000000000000000000000000000000008152506040518060400160405280600481526020017f58313031000000000000000000000000000000000000000000000000000000008152508160039081620001149190620014b1565b508060049081620001269190620014b1565b505050600073ffffffffffffffffffffffffffffffffffffffff168173ffffffffffffffffffffffffffffffffffffffff16036200019e5760006040517f1e4fbdf7000000000000000000000000000000000000000000000000000000008152600401620001959190620015a9565b60405180910390fd5b620001af81620003d760201b60201c565b50620001cc8269d5e035af96a8534000006200049d60201b60201c565b600660009054906101000a900473ffffffffffffffffffffffffffffffffffffffff1673ffffffffffffffffffffffffffffffffffffffff1663c45a01556040518163ffffffff1660e01b8152600401602060405180830381865afa1580156200023a573d6000803e3d6000fd5b505050506040513d601f19601f82011682018060405250810190620002609190620015c6565b73ffffffffffffffffffffffffffffffffffffffff1663c9c65396307368a4d37635cdb55af61b8e58446949fb21f384e56040518363ffffffff1660e01b8152600401620002b0929190620015f8565b6020604051808303816000875af1158015620002d0573d6000803e3d6000fd5b505050506040513d601f19601f82011682018060405250810190620002f69190620015c6565b600960006101000a81548173ffffffffffffffffffffffffffffffffffffffff021916908373ffffffffffffffffffffffffffffffffffffffff16021790555080600a60006101000a81548173ffffffffffffffffffffffffffffffffffffffff021916908373ffffffffffffffffffffffffffffffffffffffff1602179055506001600b60008473ffffffffffffffffffffffffffffffffffffffff1673ffffffffffffffffffffffffffffffffffffffff16815260200190815260200160002060006101000a81548160ff021916908315150217905550505062001c88565b6000600560009054906101000a900473ffffffffffffffffffffffffffffffffffffffff16905081600560006101000a81548173ffffffffffffffffffffffffffffffffffffffff021916908373ffffffffffffffffffffffffffffffffffffffff1602179055508173ffffffffffffffffffffffffffffffffffffffff168173ffffffffffffffffffffffffffffffffffffffff167f8be0079c531659141344cd1fd0a4f28419497f9722a3daafe3b4186f6b6457e060405160405180910390a35050565b600073ffffffffffffffffffffffffffffffffffffffff168273ffffffffffffffffffffffffffffffffffffffff1603620005125760006040517fec442f05000000000000000000000000000000000000000000000000000000008152600401620005099190620015a9565b60405180910390fd5b62000526600083836200052a60201b60201c565b5050565b600073ffffffffffffffffffffffffffffffffffffffff168373ffffffffffffffffffffffffffffffffffffffff161480620005925750600073ffffffffffffffffffffffffffffffffffffffff168273ffffffffffffffffffffffffffffffffffffffff16145b80620005e75750600b60008473ffffffffffffffffffffffffffffffffffffffff1673ffffffffffffffffffffffffffffffffffffffff16815260200190815260200160002060009054906101000a900460ff165b806200063c5750600b60008373ffffffffffffffffffffffffffffffffffffffff1673ffffffffffffffffffffffffffffffffffffffff16815260200190815260200160002060009054906101000a900460ff165b156200065b5762000655838383620009f160201b60201c565b620009ec565b6000600960009054906101000a900473ffffffffffffffffffffffffffffffffffffffff1673ffffffffffffffffffffffffffffffffffffffff168473ffffffffffffffffffffffffffffffffffffffff161490506000600960009054906101000a900473ffffffffffffffffffffffffffffffffffffffff1673ffffffffffffffffffffffffffffffffffffffff168473ffffffffffffffffffffffffffffffffffffffff1614905081806200070f5750805b62000751576040517f08c379a0000000000000000000000000000000000000000000000000000000008152600401620007489062001686565b60405180910390fd5b60008280156200076357506000600854115b15620007cd576064600854856200077b9190620016d7565b62000787919062001751565b90506000818562000799919062001789565b9050620007b08761dead84620009f160201b60201c565b620007c3878783620009f160201b60201c565b50505050620009ec565b818015620007dd57506000600754115b15620009d557606460075485620007f59190620016d7565b62000801919062001751565b905062000816868686620009f160201b60201c565b6200082b8561dead83620009f160201b60201c565b600960009054906101000a900473ffffffffffffffffffffffffffffffffffffffff1673ffffffffffffffffffffffffffffffffffffffff1663fff6cae96040518163ffffffff1660e01b8152600401600060405180830381600087803b1580156200089657600080fd5b505af1158015620008ab573d6000803e3d6000fd5b50505050600073ffffffffffffffffffffffffffffffffffffffff16600a60009054906101000a900473ffffffffffffffffffffffffffffffffffffffff1673ffffffffffffffffffffffffffffffffffffffff1614620009cc5760006200092682866200091a919062001789565b62000c2160201b60201c565b90506000811115620009ca57600a60009054906101000a900473ffffffffffffffffffffffffffffffffffffffff1673ffffffffffffffffffffffffffffffffffffffff1663c25d6a9a8861dead846040518463ffffffff1660e01b81526004016200099593929190620017d5565b600060405180830381600087803b158015620009b057600080fd5b505af1158015620009c5573d6000803e3d6000fd5b505050505b505b505050620009ec565b620009e8868686620009f160201b60201c565b5050505b505050565b600073ffffffffffffffffffffffffffffffffffffffff168373ffffffffffffffffffffffffffffffffffffffff160362000a4757806002600082825462000a3a919062001812565b9250508190555062000b1d565b60008060008573ffffffffffffffffffffffffffffffffffffffff1673ffffffffffffffffffffffffffffffffffffffff1681526020019081526020016000205490508181101562000ad6578381836040517fe450d38c00000000000000000000000000000000000000000000000000000000815260040162000acd939291906200184d565b60405180910390fd5b8181036000808673ffffffffffffffffffffffffffffffffffffffff1673ffffffffffffffffffffffffffffffffffffffff16815260200190815260200160002081905550505b600073ffffffffffffffffffffffffffffffffffffffff168273ffffffffffffffffffffffffffffffffffffffff160362000b68578060026000828254039250508190555062000bb5565b806000808473ffffffffffffffffffffffffffffffffffffffff1673ffffffffffffffffffffffffffffffffffffffff168152602001908152602001600020600082825401925050819055505b8173ffffffffffffffffffffffffffffffffffffffff168373ffffffffffffffffffffffffffffffffffffffff167fddf252ad1be2c89b69c2b068fc378daa952ba7f163c4a11628f55a4df523b3ef8360405162000c1491906200188a565b60405180910390a3505050565b600080600660009054906101000a900473ffffffffffffffffffffffffffffffffffffffff1673ffffffffffffffffffffffffffffffffffffffff1663c45a01556040518163ffffffff1660e01b8152600401602060405180830381865afa15801562000c92573d6000803e3d6000fd5b505050506040513d601f19601f8201168201806040525081019062000cb89190620015c6565b9050600080600960009054906101000a900473ffffffffffffffffffffffffffffffffffffffff1673ffffffffffffffffffffffffffffffffffffffff16630902f1ac6040518163ffffffff1660e01b8152600401606060405180830381865afa15801562000d2b573d6000803e3d6000fd5b505050506040513d601f19601f8201168201806040525081019062000d51919062001933565b50915091506000826dffffffffffffffffffffffffffff1611801562000d8757506000816dffffffffffffffffffffffffffff16115b156200116a5760008373ffffffffffffffffffffffffffffffffffffffff1663e6a439057368a4d37635cdb55af61b8e58446949fb21f384e5733ea660cdc7b7ccc9f81c955f1f2412dceb8518a56040518363ffffffff1660e01b815260040162000df4929190620015f8565b602060405180830381865afa15801562000e12573d6000803e3d6000fd5b505050506040513d601f19601f8201168201806040525081019062000e389190620015c6565b9050600073ffffffffffffffffffffffffffffffffffffffff168173ffffffffffffffffffffffffffffffffffffffff161462001168576000808273ffffffffffffffffffffffffffffffffffffffff16630902f1ac6040518163ffffffff1660e01b8152600401606060405180830381865afa15801562000ebe573d6000803e3d6000fd5b505050506040513d601f19601f8201168201806040525081019062000ee4919062001933565b50915091506000826dffffffffffffffffffffffffffff1611801562000f1a57506000816dffffffffffffffffffffffffffff16115b1562001165576000600367ffffffffffffffff81111562000f405762000f3f62001242565b5b60405190808252806020026020018201604052801562000f6f5781602001602082028036833780820191505090505b509050308160008151811062000f8a5762000f896200198f565b5b602002602001019073ffffffffffffffffffffffffffffffffffffffff16908173ffffffffffffffffffffffffffffffffffffffff16815250507368a4d37635cdb55af61b8e58446949fb21f384e58160018151811062000ff05762000fef6200198f565b5b602002602001019073ffffffffffffffffffffffffffffffffffffffff16908173ffffffffffffffffffffffffffffffffffffffff1681525050733ea660cdc7b7ccc9f81c955f1f2412dceb8518a5816002815181106200105657620010556200198f565b5b602002602001019073ffffffffffffffffffffffffffffffffffffffff16908173ffffffffffffffffffffffffffffffffffffffff1681525050600660009054906101000a900473ffffffffffffffffffffffffffffffffffffffff1673ffffffffffffffffffffffffffffffffffffffff1663d06ca61f8a836040518363ffffffff1660e01b8152600401620010ef92919062001a8c565b600060405180830381865afa1580156200110d573d6000803e3d6000fd5b505050506040513d6000823e3d601f19601f8201168201806040525081019062001138919062001c37565b6002815181106200114e576200114d6200198f565b5b602002602001015197505050505050505062001172565b50505b505b600093505050505b919050565b6000604051905090565b600080fd5b600080fd5b600073ffffffffffffffffffffffffffffffffffffffff82169050919050565b6000620011b8826200118b565b9050919050565b620011ca81620011ab565b8114620011d657600080fd5b50565b600081519050620011ea81620011bf565b92915050565b600080604083850312156200120a576200120962001181565b5b60006200121a85828601620011d9565b92505060206200122d85828601620011d9565b9150509250929050565b600081519050919050565b7f4e487b7100000000000000000000000000000000000000000000000000000000600052604160045260246000fd5b7f4e487b7100000000000000000000000000000000000000000000000000000000600052602260045260246000fd5b60006002820490506001821680620012b957607f821691505b602082108103620012cf57620012ce62001271565b5b50919050565b60008190508160005260206000209050919050565b60006020601f8301049050919050565b600082821b905092915050565b600060088302620013397fffffffffffffffffffffffffffffffffffffffffffffffffffffffffffffffff82620012fa565b620013458683620012fa565b95508019841693508086168417925050509392505050565b6000819050919050565b6000819050919050565b6000620013926200138c62001386846200135d565b62001367565b6200135d565b9050919050565b6000819050919050565b620013ae8362001371565b620013c6620013bd8262001399565b84845462001307565b825550505050565b600090565b620013dd620013ce565b620013ea818484620013a3565b505050565b5b81811015620014125762001406600082620013d3565b600181019050620013f0565b5050565b601f82111562001461576200142b81620012d5565b6200143684620012ea565b8101602085101562001446578190505b6200145e6200145585620012ea565b830182620013ef565b50505b505050565b600082821c905092915050565b6000620014866000198460080262001466565b1980831691505092915050565b6000620014a1838362001473565b9150826002028217905092915050565b620014bc8262001237565b67ffffffffffffffff811115620014d857620014d762001242565b5b620014e48254620012a0565b620014f182828562001416565b600060209050601f83116001811462001529576000841562001514578287015190505b62001520858262001493565b86555062001590565b601f1984166200153986620012d5565b60005b8281101562001563578489015182556001820191506020850194506020810190506200153c565b868310156200158357848901516200157f601f89168262001473565b8355505b6001600288020188555050505b505050505050565b620015a381620011ab565b82525050565b6000602082019050620015c0600083018462001598565b92915050565b600060208284031215620015df57620015de62001181565b5b6000620015ef84828501620011d9565b91505092915050565b60006040820190506200160f600083018562001598565b6200161e602083018462001598565b9392505050565b600082825260208201905092915050565b7f5452414e534645525f44495341424c4544000000000000000000000000000000600082015250565b60006200166e60118362001625565b91506200167b8262001636565b602082019050919050565b60006020820190508181036000830152620016a1816200165f565b9050919050565b7f4e487b7100000000000000000000000000000000000000000000000000000000600052601160045260246000fd5b6000620016e4826200135d565b9150620016f1836200135d565b925082820262001701816200135d565b915082820484148315176200171b576200171a620016a8565b5b5092915050565b7f4e487b7100000000000000000000000000000000000000000000000000000000600052601260045260246000fd5b60006200175e826200135d565b91506200176b836200135d565b9250826200177e576200177d62001722565b5b828204905092915050565b600062001796826200135d565b9150620017a3836200135d565b9250828203905081811115620017be57620017bd620016a8565b5b92915050565b620017cf816200135d565b82525050565b6000606082019050620017ec600083018662001598565b620017fb602083018562001598565b6200180a6040830184620017c4565b949350505050565b60006200181f826200135d565b91506200182c836200135d565b9250828201905080821115620018475762001846620016a8565b5b92915050565b600060608201905062001864600083018662001598565b620018736020830185620017c4565b620018826040830184620017c4565b949350505050565b6000602082019050620018a16000830184620017c4565b92915050565b60006dffffffffffffffffffffffffffff82169050919050565b620018cc81620018a7565b8114620018d857600080fd5b50565b600081519050620018ec81620018c1565b92915050565b600063ffffffff82169050919050565b6200190d81620018f2565b81146200191957600080fd5b50565b6000815190506200192d8162001902565b92915050565b6000806000606084860312156200194f576200194e62001181565b5b60006200195f86828701620018db565b93505060206200197286828701620018db565b925050604062001985868287016200191c565b9150509250925092565b7f4e487b7100000000000000000000000000000000000000000000000000000000600052603260045260246000fd5b600081519050919050565b600082825260208201905092915050565b6000819050602082019050919050565b620019f581620011ab565b82525050565b600062001a098383620019ea565b60208301905092915050565b6000602082019050919050565b600062001a2f82620019be565b62001a3b8185620019c9565b935062001a4883620019da565b8060005b8381101562001a7f57815162001a638882620019fb565b975062001a708362001a15565b92505060018101905062001a4c565b5085935050505092915050565b600060408201905062001aa36000830185620017c4565b818103602083015262001ab7818462001a22565b90509392505050565b600080fd5b6000601f19601f8301169050919050565b62001ae18262001ac5565b810181811067ffffffffffffffff8211171562001b035762001b0262001242565b5b80604052505050565b600062001b1862001177565b905062001b26828262001ad6565b919050565b600067ffffffffffffffff82111562001b495762001b4862001242565b5b602082029050602081019050919050565b600080fd5b62001b6a816200135d565b811462001b7657600080fd5b50565b60008151905062001b8a8162001b5f565b92915050565b600062001ba762001ba18462001b2b565b62001b0c565b9050808382526020820190506020840283018581111562001bcd5762001bcc62001b5a565b5b835b8181101562001bfa578062001be5888262001b79565b84526020840193505060208101905062001bcf565b5050509392505050565b600082601f83011262001c1c5762001c1b62001ac0565b5b815162001c2e84826020860162001b90565b91505092915050565b60006020828403121562001c505762001c4f62001181565b5b600082015167ffffffffffffffff81111562001c715762001c7062001186565b5b62001c7f8482850162001c04565b91505092915050565b6127138062001c986000396000f3fe608060405234801561001057600080fd5b50600436106101735760003560e01c8063715018a6116100de578063b8c9d25c11610097578063dcea0a6411610071578063dcea0a6414610442578063dd62ed3e14610460578063f01fe7c414610490578063f2fde38b146104ac57610173565b8063b8c9d25c146103e8578063c21ebd0714610406578063c54e44eb1461042457610173565b8063715018a6146103245780638da5cb5b1461032e57806395d89b411461034c578063a1f970501461036a578063a7cd52cb14610388578063a9059cbb146103b857610173565b8063313ce56711610130578063313ce5671461024e5780635c1952171461026c578063664002f51461029c5780636ca7c216146102b85780636e620c45146102d657806370a08231146102f457610173565b806303fd2a451461017857806306fdde0314610196578063095ea7b3146101b457806318160ddd146101e457806323b872dd146102025780632beb815914610232575b600080fd5b6101806104c8565b60405161018d9190611aef565b60405180910390f35b61019e6104ce565b6040516101ab9190611b9a565b60405180910390f35b6101ce60048036038101906101c99190611c32565b610560565b6040516101db9190611c8d565b60405180910390f35b6101ec610583565b6040516101f99190611cb7565b60405180910390f35b61021c60048036038101906102179190611cd2565b61058d565b6040516102299190611c8d565b60405180910390f35b61024c60048036038101906102479190611d25565b6105bc565b005b610256610627565b6040516102639190611d81565b60405180910390f35b61028660048036038101906102819190611d9c565b610630565b6040516102939190611cb7565b60405180910390f35b6102b660048036038101906102b19190611dc9565b610b5d565b005b6102c0610ba9565b6040516102cd9190611aef565b60405180910390f35b6102de610bcf565b6040516102eb9190611cb7565b60405180910390f35b61030e60048036038101906103099190611dc9565b610bd5565b60405161031b9190611cb7565b60405180910390f35b61032c610c1d565b005b610336610c31565b6040516103439190611aef565b60405180910390f35b610354610c5b565b6040516103619190611b9a565b60405180910390f35b610372610ced565b60405161037f9190611cb7565b60405180910390f35b6103a2600480360381019061039d9190611dc9565b610cf3565b6040516103af9190611c8d565b60405180910390f35b6103d260048036038101906103cd9190611c32565b610d13565b6040516103df9190611c8d565b60405180910390f35b6103f0610d36565b6040516103fd9190611aef565b60405180910390f35b61040e610d5c565b60405161041b9190611e55565b60405180910390f35b61042c610d82565b6040516104399190611aef565b60405180910390f35b61044a610d9a565b6040516104579190611aef565b60405180910390f35b61047a60048036038101906104759190611e70565b610db2565b6040516104879190611cb7565b60405180910390f35b6104aa60048036038101906104a59190612024565b610e39565b005b6104c660048036038101906104c19190611dc9565b610ed0565b005b61dead81565b6060600380546104dd906120af565b80601f0160208091040260200160405190810160405280929190818152602001828054610509906120af565b80156105565780601f1061052b57610100808354040283529160200191610556565b820191906000526020600020905b81548152906001019060200180831161053957829003601f168201915b5050505050905090565b60008061056b610f56565b9050610578818585610f5e565b600191505092915050565b6000600254905090565b600080610598610f56565b90506105a5858285610f70565b6105b0858585611005565b60019150509392505050565b6105c46110f9565b603282111580156105d6575060328111155b610615576040517f08c379a000000000000000000000000000000000000000000000000000000000815260040161060c9061212c565b60405180910390fd5b81600881905550806007819055505050565b60006012905090565b600080600660009054906101000a900473ffffffffffffffffffffffffffffffffffffffff1673ffffffffffffffffffffffffffffffffffffffff1663c45a01556040518163ffffffff1660e01b8152600401602060405180830381865afa1580156106a0573d6000803e3d6000fd5b505050506040513d601f19601f820116820180604052508101906106c49190612161565b9050600080600960009054906101000a900473ffffffffffffffffffffffffffffffffffffffff1673ffffffffffffffffffffffffffffffffffffffff16630902f1ac6040518163ffffffff1660e01b8152600401606060405180830381865afa158015610736573d6000803e3d6000fd5b505050506040513d601f19601f8201168201806040525081019061075a9190612210565b50915091506000826dffffffffffffffffffffffffffff1611801561078f57506000816dffffffffffffffffffffffffffff16115b15610b505760008373ffffffffffffffffffffffffffffffffffffffff1663e6a439057368a4d37635cdb55af61b8e58446949fb21f384e5733ea660cdc7b7ccc9f81c955f1f2412dceb8518a56040518363ffffffff1660e01b81526004016107f9929190612263565b602060405180830381865afa158015610816573d6000803e3d6000fd5b505050506040513d601f19601f8201168201806040525081019061083a9190612161565b9050600073ffffffffffffffffffffffffffffffffffffffff168173ffffffffffffffffffffffffffffffffffffffff1614610b4e576000808273ffffffffffffffffffffffffffffffffffffffff16630902f1ac6040518163ffffffff1660e01b8152600401606060405180830381865afa1580156108be573d6000803e3d6000fd5b505050506040513d601f19601f820116820180604052508101906108e29190612210565b50915091506000826dffffffffffffffffffffffffffff1611801561091757506000816dffffffffffffffffffffffffffff16115b15610b4b576000600367ffffffffffffffff81111561093957610938611eb5565b5b6040519080825280602002602001820160405280156109675781602001602082028036833780820191505090505b509050308160008151811061097f5761097e61228c565b5b602002602001019073ffffffffffffffffffffffffffffffffffffffff16908173ffffffffffffffffffffffffffffffffffffffff16815250507368a4d37635cdb55af61b8e58446949fb21f384e5816001815181106109e2576109e161228c565b5b602002602001019073ffffffffffffffffffffffffffffffffffffffff16908173ffffffffffffffffffffffffffffffffffffffff1681525050733ea660cdc7b7ccc9f81c955f1f2412dceb8518a581600281518110610a4557610a4461228c565b5b602002602001019073ffffffffffffffffffffffffffffffffffffffff16908173ffffffffffffffffffffffffffffffffffffffff1681525050600660009054906101000a900473ffffffffffffffffffffffffffffffffffffffff1673ffffffffffffffffffffffffffffffffffffffff1663d06ca61f8a836040518363ffffffff1660e01b8152600401610adc929190612379565b600060405180830381865afa158015610af9573d6000803e3d6000fd5b505050506040513d6000823e3d601f19601f82011682018060405250810190610b229190612481565b600281518110610b3557610b3461228c565b5b6020026020010151975050505050505050610b58565b50505b505b600093505050505b919050565b610b656110f9565b80600a60006101000a81548173ffffffffffffffffffffffffffffffffffffffff021916908373ffffffffffffffffffffffffffffffffffffffff16021790555050565b600a60009054906101000a900473ffffffffffffffffffffffffffffffffffffffff1681565b60085481565b60008060008373ffffffffffffffffffffffffffffffffffffffff1673ffffffffffffffffffffffffffffffffffffffff168152602001908152602001600020549050919050565b610c256110f9565b610c2f6000611180565b565b6000600560009054906101000a900473ffffffffffffffffffffffffffffffffffffffff16905090565b606060048054610c6a906120af565b80601f0160208091040260200160405190810160405280929190818152602001828054610c96906120af565b8015610ce35780601f10610cb857610100808354040283529160200191610ce3565b820191906000526020600020905b815481529060010190602001808311610cc657829003601f168201915b5050505050905090565b60075481565b600b6020528060005260406000206000915054906101000a900460ff1681565b600080610d1e610f56565b9050610d2b818585611005565b600191505092915050565b600960009054906101000a900473ffffffffffffffffffffffffffffffffffffffff1681565b600660009054906101000a900473ffffffffffffffffffffffffffffffffffffffff1681565b733ea660cdc7b7ccc9f81c955f1f2412dceb8518a581565b7368a4d37635cdb55af61b8e58446949fb21f384e581565b6000600160008473ffffffffffffffffffffffffffffffffffffffff1673ffffffffffffffffffffffffffffffffffffffff16815260200190815260200160002060008373ffffffffffffffffffffffffffffffffffffffff1673ffffffffffffffffffffffffffffffffffffffff16815260200190815260200160002054905092915050565b610e416110f9565b60005b8251811015610ecb5781600b6000858481518110610e6557610e6461228c565b5b602002602001015173ffffffffffffffffffffffffffffffffffffffff1673ffffffffffffffffffffffffffffffffffffffff16815260200190815260200160002060006101000a81548160ff0219169083151502179055508080600101915050610e44565b505050565b610ed86110f9565b600073ffffffffffffffffffffffffffffffffffffffff168173ffffffffffffffffffffffffffffffffffffffff1603610f4a5760006040517f1e4fbdf7000000000000000000000000000000000000000000000000000000008152600401610f419190611aef565b60405180910390fd5b610f5381611180565b50565b600033905090565b610f6b8383836001611246565b505050565b6000610f7c8484610db2565b90507fffffffffffffffffffffffffffffffffffffffffffffffffffffffffffffffff811015610fff5781811015610fef578281836040517ffb8f41b2000000000000000000000000000000000000000000000000000000008152600401610fe6939291906124ca565b60405180910390fd5b610ffe84848484036000611246565b5b50505050565b600073ffffffffffffffffffffffffffffffffffffffff168373ffffffffffffffffffffffffffffffffffffffff16036110775760006040517f96c6fd1e00000000000000000000000000000000000000000000000000000000815260040161106e9190611aef565b60405180910390fd5b600073ffffffffffffffffffffffffffffffffffffffff168273ffffffffffffffffffffffffffffffffffffffff16036110e95760006040517fec442f050000000000000000000000000000000000000000000000000000000081526004016110e09190611aef565b60405180910390fd5b6110f483838361141d565b505050565b611101610f56565b73ffffffffffffffffffffffffffffffffffffffff1661111f610c31565b73ffffffffffffffffffffffffffffffffffffffff161461117e57611142610f56565b6040517f118cdaa70000000000000000000000000000000000000000000000000000000081526004016111759190611aef565b60405180910390fd5b565b6000600560009054906101000a900473ffffffffffffffffffffffffffffffffffffffff16905081600560006101000a81548173ffffffffffffffffffffffffffffffffffffffff021916908373ffffffffffffffffffffffffffffffffffffffff1602179055508173ffffffffffffffffffffffffffffffffffffffff168173ffffffffffffffffffffffffffffffffffffffff167f8be0079c531659141344cd1fd0a4f28419497f9722a3daafe3b4186f6b6457e060405160405180910390a35050565b600073ffffffffffffffffffffffffffffffffffffffff168473ffffffffffffffffffffffffffffffffffffffff16036112b85760006040517fe602df050000000000000000000000000000000000000000000000000000000081526004016112af9190611aef565b60405180910390fd5b600073ffffffffffffffffffffffffffffffffffffffff168373ffffffffffffffffffffffffffffffffffffffff160361132a5760006040517f94280d620000000000000000000000000000000000000000000000000000000081526004016113219190611aef565b60405180910390fd5b81600160008673ffffffffffffffffffffffffffffffffffffffff1673ffffffffffffffffffffffffffffffffffffffff16815260200190815260200160002060008573ffffffffffffffffffffffffffffffffffffffff1673ffffffffffffffffffffffffffffffffffffffff168152602001908152602001600020819055508015611417578273ffffffffffffffffffffffffffffffffffffffff168473ffffffffffffffffffffffffffffffffffffffff167f8c5be1e5ebec7d5bd14f71427d1e84f3dd0314c0f7b2291e5b200ac8c7c3b9258460405161140e9190611cb7565b60405180910390a35b50505050565b600073ffffffffffffffffffffffffffffffffffffffff168373ffffffffffffffffffffffffffffffffffffffff1614806114845750600073ffffffffffffffffffffffffffffffffffffffff168273ffffffffffffffffffffffffffffffffffffffff16145b806114d85750600b60008473ffffffffffffffffffffffffffffffffffffffff1673ffffffffffffffffffffffffffffffffffffffff16815260200190815260200160002060009054906101000a900460ff165b8061152c5750600b60008373ffffffffffffffffffffffffffffffffffffffff1673ffffffffffffffffffffffffffffffffffffffff16815260200190815260200160002060009054906101000a900460ff165b156115415761153c838383611889565b611884565b6000600960009054906101000a900473ffffffffffffffffffffffffffffffffffffffff1673ffffffffffffffffffffffffffffffffffffffff168473ffffffffffffffffffffffffffffffffffffffff161490506000600960009054906101000a900473ffffffffffffffffffffffffffffffffffffffff1673ffffffffffffffffffffffffffffffffffffffff168473ffffffffffffffffffffffffffffffffffffffff1614905081806115f45750805b611633576040517f08c379a000000000000000000000000000000000000000000000000000000000815260040161162a9061254d565b60405180910390fd5b600082801561164457506000600854115b1561169657606460085485611659919061259c565b611663919061260d565b905060008185611673919061263e565b90506116828761dead84611889565b61168d878783611889565b50505050611884565b8180156116a557506000600754115b15611875576064600754856116ba919061259c565b6116c4919061260d565b90506116d1868686611889565b6116de8561dead83611889565b600960009054906101000a900473ffffffffffffffffffffffffffffffffffffffff1673ffffffffffffffffffffffffffffffffffffffff1663fff6cae96040518163ffffffff1660e01b8152600401600060405180830381600087803b15801561174857600080fd5b505af115801561175c573d6000803e3d6000fd5b50505050600073ffffffffffffffffffffffffffffffffffffffff16600a60009054906101000a900473ffffffffffffffffffffffffffffffffffffffff1673ffffffffffffffffffffffffffffffffffffffff161461186d5760006117cc82866117c7919061263e565b610630565b9050600081111561186b57600a60009054906101000a900473ffffffffffffffffffffffffffffffffffffffff1673ffffffffffffffffffffffffffffffffffffffff1663c25d6a9a8861dead846040518463ffffffff1660e01b815260040161183893929190612672565b600060405180830381600087803b15801561185257600080fd5b505af1158015611866573d6000803e3d6000fd5b505050505b505b505050611884565b611880868686611889565b5050505b505050565b600073ffffffffffffffffffffffffffffffffffffffff168373ffffffffffffffffffffffffffffffffffffffff16036118db5780600260008282546118cf91906126a9565b925050819055506119ae565b60008060008573ffffffffffffffffffffffffffffffffffffffff1673ffffffffffffffffffffffffffffffffffffffff16815260200190815260200160002054905081811015611967578381836040517fe450d38c00000000000000000000000000000000000000000000000000000000815260040161195e939291906124ca565b60405180910390fd5b8181036000808673ffffffffffffffffffffffffffffffffffffffff1673ffffffffffffffffffffffffffffffffffffffff16815260200190815260200160002081905550505b600073ffffffffffffffffffffffffffffffffffffffff168273ffffffffffffffffffffffffffffffffffffffff16036119f75780600260008282540392505081905550611a44565b806000808473ffffffffffffffffffffffffffffffffffffffff1673ffffffffffffffffffffffffffffffffffffffff168152602001908152602001600020600082825401925050819055505b8173ffffffffffffffffffffffffffffffffffffffff168373ffffffffffffffffffffffffffffffffffffffff167fddf252ad1be2c89b69c2b068fc378daa952ba7f163c4a11628f55a4df523b3ef83604051611aa19190611cb7565b60405180910390a3505050565b600073ffffffffffffffffffffffffffffffffffffffff82169050919050565b6000611ad982611aae565b9050919050565b611ae981611ace565b82525050565b6000602082019050611b046000830184611ae0565b92915050565b600081519050919050565b600082825260208201905092915050565b60005b83811015611b44578082015181840152602081019050611b29565b60008484015250505050565b6000601f19601f8301169050919050565b6000611b6c82611b0a565b611b768185611b15565b9350611b86818560208601611b26565b611b8f81611b50565b840191505092915050565b60006020820190508181036000830152611bb48184611b61565b905092915050565b6000604051905090565b600080fd5b600080fd5b611bd981611ace565b8114611be457600080fd5b50565b600081359050611bf681611bd0565b92915050565b6000819050919050565b611c0f81611bfc565b8114611c1a57600080fd5b50565b600081359050611c2c81611c06565b92915050565b60008060408385031215611c4957611c48611bc6565b5b6000611c5785828601611be7565b9250506020611c6885828601611c1d565b9150509250929050565b60008115159050919050565b611c8781611c72565b82525050565b6000602082019050611ca26000830184611c7e565b92915050565b611cb181611bfc565b82525050565b6000602082019050611ccc6000830184611ca8565b92915050565b600080600060608486031215611ceb57611cea611bc6565b5b6000611cf986828701611be7565b9350506020611d0a86828701611be7565b9250506040611d1b86828701611c1d565b9150509250925092565b60008060408385031215611d3c57611d3b611bc6565b5b6000611d4a85828601611c1d565b9250506020611d5b85828601611c1d565b9150509250929050565b600060ff82169050919050565b611d7b81611d65565b82525050565b6000602082019050611d966000830184611d72565b92915050565b600060208284031215611db257611db1611bc6565b5b6000611dc084828501611c1d565b91505092915050565b600060208284031215611ddf57611dde611bc6565b5b6000611ded84828501611be7565b91505092915050565b6000819050919050565b6000611e1b611e16611e1184611aae565b611df6565b611aae565b9050919050565b6000611e2d82611e00565b9050919050565b6000611e3f82611e22565b9050919050565b611e4f81611e34565b82525050565b6000602082019050611e6a6000830184611e46565b92915050565b60008060408385031215611e8757611e86611bc6565b5b6000611e9585828601611be7565b9250506020611ea685828601611be7565b9150509250929050565b600080fd5b7f4e487b7100000000000000000000000000000000000000000000000000000000600052604160045260246000fd5b611eed82611b50565b810181811067ffffffffffffffff82111715611f0c57611f0b611eb5565b5b80604052505050565b6000611f1f611bbc565b9050611f2b8282611ee4565b919050565b600067ffffffffffffffff821115611f4b57611f4a611eb5565b5b602082029050602081019050919050565b600080fd5b6000611f74611f6f84611f30565b611f15565b90508083825260208201905060208402830185811115611f9757611f96611f5c565b5b835b81811015611fc05780611fac8882611be7565b845260208401935050602081019050611f99565b5050509392505050565b600082601f830112611fdf57611fde611eb0565b5b8135611fef848260208601611f61565b91505092915050565b61200181611c72565b811461200c57600080fd5b50565b60008135905061201e81611ff8565b92915050565b6000806040838503121561203b5761203a611bc6565b5b600083013567ffffffffffffffff81111561205957612058611bcb565b5b61206585828601611fca565b92505060206120768582860161200f565b9150509250929050565b7f4e487b7100000000000000000000000000000000000000000000000000000000600052602260045260246000fd5b600060028204905060018216806120c757607f821691505b6020821081036120da576120d9612080565b5b50919050565b7f524154455f544f4f5f4849474800000000000000000000000000000000000000600082015250565b6000612116600d83611b15565b9150612121826120e0565b602082019050919050565b6000602082019050818103600083015261214581612109565b9050919050565b60008151905061215b81611bd0565b92915050565b60006020828403121561217757612176611bc6565b5b60006121858482850161214c565b91505092915050565b60006dffffffffffffffffffffffffffff82169050919050565b6121b18161218e565b81146121bc57600080fd5b50565b6000815190506121ce816121a8565b92915050565b600063ffffffff82169050919050565b6121ed816121d4565b81146121f857600080fd5b50565b60008151905061220a816121e4565b92915050565b60008060006060848603121561222957612228611bc6565b5b6000612237868287016121bf565b9350506020612248868287016121bf565b9250506040612259868287016121fb565b9150509250925092565b60006040820190506122786000830185611ae0565b6122856020830184611ae0565b9392505050565b7f4e487b7100000000000000000000000000000000000000000000000000000000600052603260045260246000fd5b600081519050919050565b600082825260208201905092915050565b6000819050602082019050919050565b6122f081611ace565b82525050565b600061230283836122e7565b60208301905092915050565b6000602082019050919050565b6000612326826122bb565b61233081856122c6565b935061233b836122d7565b8060005b8381101561236c57815161235388826122f6565b975061235e8361230e565b92505060018101905061233f565b5085935050505092915050565b600060408201905061238e6000830185611ca8565b81810360208301526123a0818461231b565b90509392505050565b600067ffffffffffffffff8211156123c4576123c3611eb5565b5b602082029050602081019050919050565b6000815190506123e481611c06565b92915050565b60006123fd6123f8846123a9565b611f15565b905080838252602082019050602084028301858111156124205761241f611f5c565b5b835b81811015612449578061243588826123d5565b845260208401935050602081019050612422565b5050509392505050565b600082601f83011261246857612467611eb0565b5b81516124788482602086016123ea565b91505092915050565b60006020828403121561249757612496611bc6565b5b600082015167ffffffffffffffff8111156124b5576124b4611bcb565b5b6124c184828501612453565b91505092915050565b60006060820190506124df6000830186611ae0565b6124ec6020830185611ca8565b6124f96040830184611ca8565b949350505050565b7f5452414e534645525f44495341424c4544000000000000000000000000000000600082015250565b6000612537601183611b15565b915061254282612501565b602082019050919050565b600060208201905081810360008301526125668161252a565b9050919050565b7f4e487b7100000000000000000000000000000000000000000000000000000000600052601160045260246000fd5b60006125a782611bfc565b91506125b283611bfc565b92508282026125c081611bfc565b915082820484148315176125d7576125d661256d565b5b5092915050565b7f4e487b7100000000000000000000000000000000000000000000000000000000600052601260045260246000fd5b600061261882611bfc565b915061262383611bfc565b925082612633576126326125de565b5b828204905092915050565b600061264982611bfc565b915061265483611bfc565b925082820390508181111561266c5761266b61256d565b5b92915050565b60006060820190506126876000830186611ae0565b6126946020830185611ae0565b6126a16040830184611ca8565b949350505050565b60006126b482611bfc565b91506126bf83611bfc565b92508282019050808211156126d7576126d661256d565b5b9291505056fea2646970667358221220815704b9b52e97cb42b131252b1d2c10ccb11909cc0b2d50a19ab189599a6be664736f6c63430008160033","linkReferences":{}},"methodIdentifiers":{"ADX()":"dcea0a64","DEAD()":"03fd2a45","USDT()":"c54e44eb","allowance(address,address)":"dd62ed3e","allowlist(address)":"a7cd52cb","approve(address,uint256)":"095ea7b3","balanceOf(address)":"70a08231","buy_tax_rate()":"6e620c45","decimals()":"313ce567","gas()":"6ca7c216","getAmountOut(uint256)":"5c195217","name()":"06fdde03","owner()":"8da5cb5b","pancakePair()":"b8c9d25c","pancakeRouter()":"c21ebd07","renounceOwnership()":"715018a6","sell_tax_rate()":"a1f97050","setAllowlist(address[],bool)":"f01fe7c4","setGasAddr(address)":"664002f5","setTaxRate(uint256,uint256)":"2beb8159","symbol()":"95d89b41","totalSupply()":"18160ddd","transfer(address,uint256)":"a9059cbb","transferFrom(address,address,uint256)":"23b872dd","transferOwnership(address)":"f2fde38b"},"id":46}