{"abi":[{"type":"constructor","inputs":[{"name":"_initialRecipient","type":"address","internalType":"address"}],"stateMutability":"nonpayable"},{"type":"function","name":"ADX","inputs":[],"outputs":[{"name":"","type":"address","internalType":"address"}],"stateMutability":"view"},{"type":"function","name":"DEAD","inputs":[],"outputs":[{"name":"","type":"address","internalType":"address"}],"stateMutability":"view"},{"type":"function","name":"allowance","inputs":[{"name":"owner","type":"address","internalType":"address"},{"name":"spender","type":"address","internalType":"address"}],"outputs":[{"name":"","type":"uint256","internalType":"uint256"}],"stateMutability":"view"},{"type":"function","name":"allowlist","inputs":[{"name":"","type":"address","internalType":"address"}],"outputs":[{"name":"","type":"bool","internalType":"bool"}],"stateMutability":"view"},{"type":"function","name":"approve","inputs":[{"name":"spender","type":"address","internalType":"address"},{"name":"value","type":"uint256","internalType":"uint256"}],"outputs":[{"name":"","type":"bool","internalType":"bool"}],"stateMutability":"nonpayable"},{"type":"function","name":"balanceOf","inputs":[{"name":"account","type":"address","internalType":"address"}],"outputs":[{"name":"","type":"uint256","internalType":"uint256"}],"stateMutability":"view"},{"type":"function","name":"burnFromPair","inputs":[{"name":"amount","type":"uint256","internalType":"uint256"}],"outputs":[],"stateMutability":"nonpayable"},{"type":"function","name":"buy_tax_rate","inputs":[],"outputs":[{"name":"","type":"uint256","internalType":"uint256"}],"stateMutability":"view"},{"type":"function","name":"decimals","inputs":[],"outputs":[{"name":"","type":"uint8","internalType":"uint8"}],"stateMutability":"view"},{"type":"function","name":"name","inputs":[],"outputs":[{"name":"","type":"string","internalType":"string"}],"stateMutability":"view"},{"type":"function","name":"owner","inputs":[],"outputs":[{"name":"","type":"address","internalType":"address"}],"stateMutability":"view"},{"type":"function","name":"pancakePair","inputs":[],"outputs":[{"name":"","type":"address","internalType":"address"}],"stateMutability":"view"},{"type":"function","name":"pancakeRouter","inputs":[],"outputs":[{"name":"","type":"address","internalType":"contract IPancakeRouter02"}],"stateMutability":"view"},{"type":"function","name":"renounceOwnership","inputs":[],"outputs":[],"stateMutability":"nonpayable"},{"type":"function","name":"setAllowlist","inputs":[{"name":"addrs","type":"address[]","internalType":"address[]"},{"name":"isAllow","type":"bool","internalType":"bool"}],"outputs":[],"stateMutability":"nonpayable"},{"type":"function","name":"setSpecifySell","inputs":[{"name":"_specifySell","type":"address","internalType":"address"}],"outputs":[],"stateMutability":"nonpayable"},{"type":"function","name":"setTaxRate","inputs":[{"name":"_buyRate","type":"uint256","internalType":"uint256"}],"outputs":[],"stateMutability":"nonpayable"},{"type":"function","name":"specifySell","inputs":[],"outputs":[{"name":"","type":"address","internalType":"address"}],"stateMutability":"view"},{"type":"function","name":"symbol","inputs":[],"outputs":[{"name":"","type":"string","internalType":"string"}],"stateMutability":"view"},{"type":"function","name":"totalSupply","inputs":[],"outputs":[{"name":"","type":"uint256","internalType":"uint256"}],"stateMutability":"view"},{"type":"function","name":"transfer","inputs":[{"name":"to","type":"address","internalType":"address"},{"name":"value","type":"uint256","internalType":"uint256"}],"outputs":[{"name":"","type":"bool","internalType":"bool"}],"stateMutability":"nonpayable"},{"type":"function","name":"transferFrom","inputs":[{"name":"from","type":"address","internalType":"address"},{"name":"to","type":"address","internalType":"address"},{"name":"value","type":"uint256","internalType":"uint256"}],"outputs":[{"name":"","type":"bool","internalType":"bool"}],"stateMutability":"nonpayable"},{"type":"function","name":"transferOwnership","inputs":[{"name":"newOwner","type":"address","internalType":"address"}],"outputs":[],"stateMutability":"nonpayable"},{"type":"event","name":"Approval","inputs":[{"name":"owner","type":"address","indexed":true,"internalType":"address"},{"name":"spender","type":"address","indexed":true,"internalType":"address"},{"name":"value","type":"uint256","indexed":false,"internalType":"uint256"}],"anonymous":false},{"type":"event","name":"OwnershipTransferred","inputs":[{"name":"previousOwner","type":"address","indexed":true,"internalType":"address"},{"name":"newOwner","type":"address","indexed":true,"internalType":"address"}],"anonymous":false},{"type":"event","name":"Transfer","inputs":[{"name":"from","type":"address","indexed":true,"internalType":"address"},{"name":"to","type":"address","indexed":true,"internalType":"address"},{"name":"value","type":"uint256","indexed":false,"internalType":"uint256"}],"anonymous":false},{"type":"error","name":"ERC20InsufficientAllowance","inputs":[{"name":"spender","type":"address","internalType":"address"},{"name":"allowance","type":"uint256","internalType":"uint256"},{"name":"needed","type":"uint256","internalType":"uint256"}]},{"type":"error","name":"ERC20InsufficientBalance","inputs":[{"name":"sender","type":"address","internalType":"address"},{"name":"balance","type":"uint256","internalType":"uint256"},{"name":"needed","type":"uint256","internalType":"uint256"}]},{"type":"error","name":"ERC20InvalidApprover","inputs":[{"name":"approver","type":"address","internalType":"address"}]},{"type":"error","name":"ERC20InvalidReceiver","inputs":[{"name":"receiver","type":"address","internalType":"address"}]},{"type":"error","name":"ERC20InvalidSender","inputs":[{"name":"sender","type":"address","internalType":"address"}]},{"type":"error","name":"ERC20InvalidSpender","inputs":[{"name":"spender","type":"address","internalType":"address"}]},{"type":"error","name":"OwnableInvalidOwner","inputs":[{"name":"owner","type":"address","internalType":"address"}]},{"type":"error","name":"OwnableUnauthorizedAccount","inputs":[{"name":"account","type":"address","internalType":"address"}]}],"bytecode":{"object":"0x6080604052731f7cda03d18834c8328ca259abe57bf33c46647c600660006101000a81548173ffffffffffffffffffffffffffffffffffffffff021916908373ffffffffffffffffffffffffffffffffffffffff16021790555060646007553480156200006b57600080fd5b5060405162002d7e38038062002d7e8339818101604052810190620000919190620009ba565b336040518060400160405280600681526020017f58313031763200000000000000000000000000000000000000000000000000008152506040518060400160405280600481526020017f583130310000000000000000000000000000000000000000000000000000000081525081600390816200010f919062000c66565b50806004908162000121919062000c66565b505050600073ffffffffffffffffffffffffffffffffffffffff168173ffffffffffffffffffffffffffffffffffffffff1603620001995760006040517f1e4fbdf700000000000000000000000000000000000000000000000000000000815260040162000190919062000d5e565b60405180910390fd5b620001aa816200039060201b60201c565b50620001c78169d5e035af96a8534000006200045660201b60201c565b600660009054906101000a900473ffffffffffffffffffffffffffffffffffffffff1673ffffffffffffffffffffffffffffffffffffffff1663c45a01556040518163ffffffff1660e01b8152600401602060405180830381865afa15801562000235573d6000803e3d6000fd5b505050506040513d601f19601f820116820180604052508101906200025b9190620009ba565b73ffffffffffffffffffffffffffffffffffffffff1663c9c65396307368a4d37635cdb55af61b8e58446949fb21f384e56040518363ffffffff1660e01b8152600401620002ab92919062000d7b565b6020604051808303816000875af1158015620002cb573d6000803e3d6000fd5b505050506040513d601f19601f82011682018060405250810190620002f19190620009ba565b600860006101000a81548173ffffffffffffffffffffffffffffffffffffffff021916908373ffffffffffffffffffffffffffffffffffffffff1602179055506001600a60008373ffffffffffffffffffffffffffffffffffffffff1673ffffffffffffffffffffffffffffffffffffffff16815260200190815260200160002060006101000a81548160ff0219169083151502179055505062000fed565b6000600560009054906101000a900473ffffffffffffffffffffffffffffffffffffffff16905081600560006101000a81548173ffffffffffffffffffffffffffffffffffffffff021916908373ffffffffffffffffffffffffffffffffffffffff1602179055508173ffffffffffffffffffffffffffffffffffffffff168173ffffffffffffffffffffffffffffffffffffffff167f8be0079c531659141344cd1fd0a4f28419497f9722a3daafe3b4186f6b6457e060405160405180910390a35050565b600073ffffffffffffffffffffffffffffffffffffffff168273ffffffffffffffffffffffffffffffffffffffff1603620004cb5760006040517fec442f05000000000000000000000000000000000000000000000000000000008152600401620004c2919062000d5e565b60405180910390fd5b620004df60008383620004e360201b60201c565b5050565b600073ffffffffffffffffffffffffffffffffffffffff168373ffffffffffffffffffffffffffffffffffffffff1614806200054b5750600073ffffffffffffffffffffffffffffffffffffffff168273ffffffffffffffffffffffffffffffffffffffff16145b80620005a05750600a60008473ffffffffffffffffffffffffffffffffffffffff1673ffffffffffffffffffffffffffffffffffffffff16815260200190815260200160002060009054906101000a900460ff165b80620005f55750600a60008373ffffffffffffffffffffffffffffffffffffffff1673ffffffffffffffffffffffffffffffffffffffff16815260200190815260200160002060009054906101000a900460ff165b1562000614576200060e8383836200072060201b60201c565b6200071b565b6000600860009054906101000a900473ffffffffffffffffffffffffffffffffffffffff1673ffffffffffffffffffffffffffffffffffffffff168473ffffffffffffffffffffffffffffffffffffffff1614905080620006ac576040517f08c379a0000000000000000000000000000000000000000000000000000000008152600401620006a39062000e09565b60405180910390fd5b6000606460075484620006c0919062000e5a565b620006cc919062000ed4565b90508115620007185760008184620006e5919062000f0c565b9050620006fc8661dead846200072060201b60201c565b6200070f8686836200072060201b60201c565b5050506200071b565b50505b505050565b600073ffffffffffffffffffffffffffffffffffffffff168373ffffffffffffffffffffffffffffffffffffffff16036200077657806002600082825462000769919062000f47565b925050819055506200084c565b60008060008573ffffffffffffffffffffffffffffffffffffffff1673ffffffffffffffffffffffffffffffffffffffff1681526020019081526020016000205490508181101562000805578381836040517fe450d38c000000000000000000000000000000000000000000000000000000008152600401620007fc9392919062000f93565b60405180910390fd5b8181036000808673ffffffffffffffffffffffffffffffffffffffff1673ffffffffffffffffffffffffffffffffffffffff16815260200190815260200160002081905550505b600073ffffffffffffffffffffffffffffffffffffffff168273ffffffffffffffffffffffffffffffffffffffff1603620008975780600260008282540392505081905550620008e4565b806000808473ffffffffffffffffffffffffffffffffffffffff1673ffffffffffffffffffffffffffffffffffffffff168152602001908152602001600020600082825401925050819055505b8173ffffffffffffffffffffffffffffffffffffffff168373ffffffffffffffffffffffffffffffffffffffff167fddf252ad1be2c89b69c2b068fc378daa952ba7f163c4a11628f55a4df523b3ef8360405162000943919062000fd0565b60405180910390a3505050565b600080fd5b600073ffffffffffffffffffffffffffffffffffffffff82169050919050565b6000620009828262000955565b9050919050565b620009948162000975565b8114620009a057600080fd5b50565b600081519050620009b48162000989565b92915050565b600060208284031215620009d357620009d262000950565b5b6000620009e384828501620009a3565b91505092915050565b600081519050919050565b7f4e487b7100000000000000000000000000000000000000000000000000000000600052604160045260246000fd5b7f4e487b7100000000000000000000000000000000000000000000000000000000600052602260045260246000fd5b6000600282049050600182168062000a6e57607f821691505b60208210810362000a845762000a8362000a26565b5b50919050565b60008190508160005260206000209050919050565b60006020601f8301049050919050565b600082821b905092915050565b60006008830262000aee7fffffffffffffffffffffffffffffffffffffffffffffffffffffffffffffffff8262000aaf565b62000afa868362000aaf565b95508019841693508086168417925050509392505050565b6000819050919050565b6000819050919050565b600062000b4762000b4162000b3b8462000b12565b62000b1c565b62000b12565b9050919050565b6000819050919050565b62000b638362000b26565b62000b7b62000b728262000b4e565b84845462000abc565b825550505050565b600090565b62000b9262000b83565b62000b9f81848462000b58565b505050565b5b8181101562000bc75762000bbb60008262000b88565b60018101905062000ba5565b5050565b601f82111562000c165762000be08162000a8a565b62000beb8462000a9f565b8101602085101562000bfb578190505b62000c1362000c0a8562000a9f565b83018262000ba4565b50505b505050565b600082821c905092915050565b600062000c3b6000198460080262000c1b565b1980831691505092915050565b600062000c56838362000c28565b9150826002028217905092915050565b62000c7182620009ec565b67ffffffffffffffff81111562000c8d5762000c8c620009f7565b5b62000c99825462000a55565b62000ca682828562000bcb565b600060209050601f83116001811462000cde576000841562000cc9578287015190505b62000cd5858262000c48565b86555062000d45565b601f19841662000cee8662000a8a565b60005b8281101562000d185784890151825560018201915060208501945060208101905062000cf1565b8683101562000d38578489015162000d34601f89168262000c28565b8355505b6001600288020188555050505b505050505050565b62000d588162000975565b82525050565b600060208201905062000d75600083018462000d4d565b92915050565b600060408201905062000d92600083018562000d4d565b62000da1602083018462000d4d565b9392505050565b600082825260208201905092915050565b7f5452414e534645525f414e445f53454c4c5f44495341424c4544000000000000600082015250565b600062000df1601a8362000da8565b915062000dfe8262000db9565b602082019050919050565b6000602082019050818103600083015262000e248162000de2565b9050919050565b7f4e487b7100000000000000000000000000000000000000000000000000000000600052601160045260246000fd5b600062000e678262000b12565b915062000e748362000b12565b925082820262000e848162000b12565b9150828204841483151762000e9e5762000e9d62000e2b565b5b5092915050565b7f4e487b7100000000000000000000000000000000000000000000000000000000600052601260045260246000fd5b600062000ee18262000b12565b915062000eee8362000b12565b92508262000f015762000f0062000ea5565b5b828204905092915050565b600062000f198262000b12565b915062000f268362000b12565b925082820390508181111562000f415762000f4062000e2b565b5b92915050565b600062000f548262000b12565b915062000f618362000b12565b925082820190508082111562000f7c5762000f7b62000e2b565b5b92915050565b62000f8d8162000b12565b82525050565b600060608201905062000faa600083018662000d4d565b62000fb9602083018562000f82565b62000fc8604083018462000f82565b949350505050565b600060208201905062000fe7600083018462000f82565b92915050565b611d818062000ffd6000396000f3fe608060405234801561001057600080fd5b506004361061014d5760003560e01c806395d89b41116100c3578063c6d69a301161007c578063c6d69a3014610392578063dcea0a64146103ae578063dd62ed3e146103cc578063f01fe7c4146103fc578063f19609a314610418578063f2fde38b146104365761014d565b806395d89b41146102bc578063a5b44339146102da578063a7cd52cb146102f6578063a9059cbb14610326578063b8c9d25c14610356578063c21ebd07146103745761014d565b8063313ce56711610115578063313ce5671461020c5780635dde54171461022a5780636e620c451461024657806370a0823114610264578063715018a6146102945780638da5cb5b1461029e5761014d565b806303fd2a451461015257806306fdde0314610170578063095ea7b31461018e57806318160ddd146101be57806323b872dd146101dc575b600080fd5b61015a610452565b604051610167919061144b565b60405180910390f35b610178610458565b60405161018591906114f6565b60405180910390f35b6101a860048036038101906101a3919061158e565b6104ea565b6040516101b591906115e9565b60405180910390f35b6101c661050d565b6040516101d39190611613565b60405180910390f35b6101f660048036038101906101f1919061162e565b610517565b60405161020391906115e9565b60405180910390f35b610214610546565b604051610221919061169d565b60405180910390f35b610244600480360381019061023f91906116b8565b61054f565b005b61024e610611565b60405161025b9190611613565b60405180910390f35b61027e600480360381019061027991906116e5565b610617565b60405161028b9190611613565b60405180910390f35b61029c61065f565b005b6102a6610673565b6040516102b3919061144b565b60405180910390f35b6102c461069d565b6040516102d191906114f6565b60405180910390f35b6102f460048036038101906102ef91906116e5565b61072f565b005b610310600480360381019061030b91906116e5565b610842565b60405161031d91906115e9565b60405180910390f35b610340600480360381019061033b919061158e565b610862565b60405161034d91906115e9565b60405180910390f35b61035e610885565b60405161036b919061144b565b60405180910390f35b61037c6108ab565b6040516103899190611771565b60405180910390f35b6103ac60048036038101906103a791906116b8565b6108d1565b005b6103b6610927565b6040516103c3919061144b565b60405180910390f35b6103e660048036038101906103e1919061178c565b61093f565b6040516103f39190611613565b60405180910390f35b61041660048036038101906104119190611940565b6109c6565b005b610420610a5d565b60405161042d919061144b565b60405180910390f35b610450600480360381019061044b91906116e5565b610a83565b005b61dead81565b606060038054610467906119cb565b80601f0160208091040260200160405190810160405280929190818152602001828054610493906119cb565b80156104e05780601f106104b5576101008083540402835291602001916104e0565b820191906000526020600020905b8154815290600101906020018083116104c357829003601f168201915b5050505050905090565b6000806104f5610b09565b9050610502818585610b11565b600191505092915050565b6000600254905090565b600080610522610b09565b905061052f858285610b23565b61053a858585610bb8565b60019150509392505050565b60006012905090565b3373ffffffffffffffffffffffffffffffffffffffff16600960009054906101000a900473ffffffffffffffffffffffffffffffffffffffff1673ffffffffffffffffffffffffffffffffffffffff16146105df576040517f08c379a00000000000000000000000000000000000000000000000000000000081526004016105d690611a48565b60405180910390fd5b61060e600860009054906101000a900473ffffffffffffffffffffffffffffffffffffffff1661dead83610cac565b50565b60075481565b60008060008373ffffffffffffffffffffffffffffffffffffffff1673ffffffffffffffffffffffffffffffffffffffff168152602001908152602001600020549050919050565b610667610ed1565b6106716000610f58565b565b6000600560009054906101000a900473ffffffffffffffffffffffffffffffffffffffff16905090565b6060600480546106ac906119cb565b80601f01602080910402602001604051908101604052809291908181526020018280546106d8906119cb565b80156107255780601f106106fa57610100808354040283529160200191610725565b820191906000526020600020905b81548152906001019060200180831161070857829003601f168201915b5050505050905090565b610737610ed1565b600073ffffffffffffffffffffffffffffffffffffffff168173ffffffffffffffffffffffffffffffffffffffff16036107a6576040517f08c379a000000000000000000000000000000000000000000000000000000000815260040161079d90611ab4565b60405180910390fd5b80600960006101000a81548173ffffffffffffffffffffffffffffffffffffffff021916908373ffffffffffffffffffffffffffffffffffffffff1602179055506001600a60008373ffffffffffffffffffffffffffffffffffffffff1673ffffffffffffffffffffffffffffffffffffffff16815260200190815260200160002060006101000a81548160ff02191690831515021790555050565b600a6020528060005260406000206000915054906101000a900460ff1681565b60008061086d610b09565b905061087a818585610bb8565b600191505092915050565b600860009054906101000a900473ffffffffffffffffffffffffffffffffffffffff1681565b600660009054906101000a900473ffffffffffffffffffffffffffffffffffffffff1681565b6108d9610ed1565b603281111561091d576040517f08c379a000000000000000000000000000000000000000000000000000000000815260040161091490611b20565b60405180910390fd5b8060078190555050565b7368a4d37635cdb55af61b8e58446949fb21f384e581565b6000600160008473ffffffffffffffffffffffffffffffffffffffff1673ffffffffffffffffffffffffffffffffffffffff16815260200190815260200160002060008373ffffffffffffffffffffffffffffffffffffffff1673ffffffffffffffffffffffffffffffffffffffff16815260200190815260200160002054905092915050565b6109ce610ed1565b60005b8251811015610a585781600a60008584815181106109f2576109f1611b40565b5b602002602001015173ffffffffffffffffffffffffffffffffffffffff1673ffffffffffffffffffffffffffffffffffffffff16815260200190815260200160002060006101000a81548160ff02191690831515021790555080806001019150506109d1565b505050565b600960009054906101000a900473ffffffffffffffffffffffffffffffffffffffff1681565b610a8b610ed1565b600073ffffffffffffffffffffffffffffffffffffffff168173ffffffffffffffffffffffffffffffffffffffff1603610afd5760006040517f1e4fbdf7000000000000000000000000000000000000000000000000000000008152600401610af4919061144b565b60405180910390fd5b610b0681610f58565b50565b600033905090565b610b1e838383600161101e565b505050565b6000610b2f848461093f565b90507fffffffffffffffffffffffffffffffffffffffffffffffffffffffffffffffff811015610bb25781811015610ba2578281836040517ffb8f41b2000000000000000000000000000000000000000000000000000000008152600401610b9993929190611b6f565b60405180910390fd5b610bb18484848403600061101e565b5b50505050565b600073ffffffffffffffffffffffffffffffffffffffff168373ffffffffffffffffffffffffffffffffffffffff1603610c2a5760006040517f96c6fd1e000000000000000000000000000000000000000000000000000000008152600401610c21919061144b565b60405180910390fd5b600073ffffffffffffffffffffffffffffffffffffffff168273ffffffffffffffffffffffffffffffffffffffff1603610c9c5760006040517fec442f05000000000000000000000000000000000000000000000000000000008152600401610c93919061144b565b60405180910390fd5b610ca78383836111f5565b505050565b600073ffffffffffffffffffffffffffffffffffffffff168373ffffffffffffffffffffffffffffffffffffffff1603610cfe578060026000828254610cf29190611bd5565b92505081905550610dd1565b60008060008573ffffffffffffffffffffffffffffffffffffffff1673ffffffffffffffffffffffffffffffffffffffff16815260200190815260200160002054905081811015610d8a578381836040517fe450d38c000000000000000000000000000000000000000000000000000000008152600401610d8193929190611b6f565b60405180910390fd5b8181036000808673ffffffffffffffffffffffffffffffffffffffff1673ffffffffffffffffffffffffffffffffffffffff16815260200190815260200160002081905550505b600073ffffffffffffffffffffffffffffffffffffffff168273ffffffffffffffffffffffffffffffffffffffff1603610e1a5780600260008282540392505081905550610e67565b806000808473ffffffffffffffffffffffffffffffffffffffff1673ffffffffffffffffffffffffffffffffffffffff168152602001908152602001600020600082825401925050819055505b8173ffffffffffffffffffffffffffffffffffffffff168373ffffffffffffffffffffffffffffffffffffffff167fddf252ad1be2c89b69c2b068fc378daa952ba7f163c4a11628f55a4df523b3ef83604051610ec49190611613565b60405180910390a3505050565b610ed9610b09565b73ffffffffffffffffffffffffffffffffffffffff16610ef7610673565b73ffffffffffffffffffffffffffffffffffffffff1614610f5657610f1a610b09565b6040517f118cdaa7000000000000000000000000000000000000000000000000000000008152600401610f4d919061144b565b60405180910390fd5b565b6000600560009054906101000a900473ffffffffffffffffffffffffffffffffffffffff16905081600560006101000a81548173ffffffffffffffffffffffffffffffffffffffff021916908373ffffffffffffffffffffffffffffffffffffffff1602179055508173ffffffffffffffffffffffffffffffffffffffff168173ffffffffffffffffffffffffffffffffffffffff167f8be0079c531659141344cd1fd0a4f28419497f9722a3daafe3b4186f6b6457e060405160405180910390a35050565b600073ffffffffffffffffffffffffffffffffffffffff168473ffffffffffffffffffffffffffffffffffffffff16036110905760006040517fe602df05000000000000000000000000000000000000000000000000000000008152600401611087919061144b565b60405180910390fd5b600073ffffffffffffffffffffffffffffffffffffffff168373ffffffffffffffffffffffffffffffffffffffff16036111025760006040517f94280d620000000000000000000000000000000000000000000000000000000081526004016110f9919061144b565b60405180910390fd5b81600160008673ffffffffffffffffffffffffffffffffffffffff1673ffffffffffffffffffffffffffffffffffffffff16815260200190815260200160002060008573ffffffffffffffffffffffffffffffffffffffff1673ffffffffffffffffffffffffffffffffffffffff1681526020019081526020016000208190555080156111ef578273ffffffffffffffffffffffffffffffffffffffff168473ffffffffffffffffffffffffffffffffffffffff167f8c5be1e5ebec7d5bd14f71427d1e84f3dd0314c0f7b2291e5b200ac8c7c3b925846040516111e69190611613565b60405180910390a35b50505050565b600073ffffffffffffffffffffffffffffffffffffffff168373ffffffffffffffffffffffffffffffffffffffff16148061125c5750600073ffffffffffffffffffffffffffffffffffffffff168273ffffffffffffffffffffffffffffffffffffffff16145b806112b05750600a60008473ffffffffffffffffffffffffffffffffffffffff1673ffffffffffffffffffffffffffffffffffffffff16815260200190815260200160002060009054906101000a900460ff165b806113045750600a60008373ffffffffffffffffffffffffffffffffffffffff1673ffffffffffffffffffffffffffffffffffffffff16815260200190815260200160002060009054906101000a900460ff165b1561131957611314838383610cac565b611405565b6000600860009054906101000a900473ffffffffffffffffffffffffffffffffffffffff1673ffffffffffffffffffffffffffffffffffffffff168473ffffffffffffffffffffffffffffffffffffffff16149050806113ae576040517f08c379a00000000000000000000000000000000000000000000000000000000081526004016113a590611c55565b60405180910390fd5b60006064600754846113c09190611c75565b6113ca9190611ce6565b9050811561140257600081846113e09190611d17565b90506113ef8661dead84610cac565b6113fa868683610cac565b505050611405565b50505b505050565b600073ffffffffffffffffffffffffffffffffffffffff82169050919050565b60006114358261140a565b9050919050565b6114458161142a565b82525050565b6000602082019050611460600083018461143c565b92915050565b600081519050919050565b600082825260208201905092915050565b60005b838110156114a0578082015181840152602081019050611485565b60008484015250505050565b6000601f19601f8301169050919050565b60006114c882611466565b6114d28185611471565b93506114e2818560208601611482565b6114eb816114ac565b840191505092915050565b6000602082019050818103600083015261151081846114bd565b905092915050565b6000604051905090565b600080fd5b600080fd5b6115358161142a565b811461154057600080fd5b50565b6000813590506115528161152c565b92915050565b6000819050919050565b61156b81611558565b811461157657600080fd5b50565b60008135905061158881611562565b92915050565b600080604083850312156115a5576115a4611522565b5b60006115b385828601611543565b92505060206115c485828601611579565b9150509250929050565b60008115159050919050565b6115e3816115ce565b82525050565b60006020820190506115fe60008301846115da565b92915050565b61160d81611558565b82525050565b60006020820190506116286000830184611604565b92915050565b60008060006060848603121561164757611646611522565b5b600061165586828701611543565b935050602061166686828701611543565b925050604061167786828701611579565b9150509250925092565b600060ff82169050919050565b61169781611681565b82525050565b60006020820190506116b2600083018461168e565b92915050565b6000602082840312156116ce576116cd611522565b5b60006116dc84828501611579565b91505092915050565b6000602082840312156116fb576116fa611522565b5b600061170984828501611543565b91505092915050565b6000819050919050565b600061173761173261172d8461140a565b611712565b61140a565b9050919050565b60006117498261171c565b9050919050565b600061175b8261173e565b9050919050565b61176b81611750565b82525050565b60006020820190506117866000830184611762565b92915050565b600080604083850312156117a3576117a2611522565b5b60006117b185828601611543565b92505060206117c285828601611543565b9150509250929050565b600080fd5b7f4e487b7100000000000000000000000000000000000000000000000000000000600052604160045260246000fd5b611809826114ac565b810181811067ffffffffffffffff82111715611828576118276117d1565b5b80604052505050565b600061183b611518565b90506118478282611800565b919050565b600067ffffffffffffffff821115611867576118666117d1565b5b602082029050602081019050919050565b600080fd5b600061189061188b8461184c565b611831565b905080838252602082019050602084028301858111156118b3576118b2611878565b5b835b818110156118dc57806118c88882611543565b8452602084019350506020810190506118b5565b5050509392505050565b600082601f8301126118fb576118fa6117cc565b5b813561190b84826020860161187d565b91505092915050565b61191d816115ce565b811461192857600080fd5b50565b60008135905061193a81611914565b92915050565b6000806040838503121561195757611956611522565b5b600083013567ffffffffffffffff81111561197557611974611527565b5b611981858286016118e6565b92505060206119928582860161192b565b9150509250929050565b7f4e487b7100000000000000000000000000000000000000000000000000000000600052602260045260246000fd5b600060028204905060018216806119e357607f821691505b6020821081036119f6576119f561199c565b5b50919050565b7f4e4f545f5045524d49542e000000000000000000000000000000000000000000600082015250565b6000611a32600b83611471565b9150611a3d826119fc565b602082019050919050565b60006020820190508181036000830152611a6181611a25565b9050919050565b7f4572726f7220616464722e000000000000000000000000000000000000000000600082015250565b6000611a9e600b83611471565b9150611aa982611a68565b602082019050919050565b60006020820190508181036000830152611acd81611a91565b9050919050565b7f524154455f544f4f5f4849474800000000000000000000000000000000000000600082015250565b6000611b0a600d83611471565b9150611b1582611ad4565b602082019050919050565b60006020820190508181036000830152611b3981611afd565b9050919050565b7f4e487b7100000000000000000000000000000000000000000000000000000000600052603260045260246000fd5b6000606082019050611b84600083018661143c565b611b916020830185611604565b611b9e6040830184611604565b949350505050565b7f4e487b7100000000000000000000000000000000000000000000000000000000600052601160045260246000fd5b6000611be082611558565b9150611beb83611558565b9250828201905080821115611c0357611c02611ba6565b5b92915050565b7f5452414e534645525f414e445f53454c4c5f44495341424c4544000000000000600082015250565b6000611c3f601a83611471565b9150611c4a82611c09565b602082019050919050565b60006020820190508181036000830152611c6e81611c32565b9050919050565b6000611c8082611558565b9150611c8b83611558565b9250828202611c9981611558565b91508282048414831517611cb057611caf611ba6565b5b5092915050565b7f4e487b7100000000000000000000000000000000000000000000000000000000600052601260045260246000fd5b6000611cf182611558565b9150611cfc83611558565b925082611d0c57611d0b611cb7565b5b828204905092915050565b6000611d2282611558565b9150611d2d83611558565b9250828203905081811115611d4557611d44611ba6565b5b9291505056fea2646970667358221220b231d92df2fb4fc4093a5d9b2179d50275a9adc813ba3a63288f35aed7b67aca64736f6c63430008160033","linkReferences":{}},"methodIdentifiers":{"ADX()":"dcea0a64","DEAD()":"03fd2a45","allowance(address,address)":"dd62ed3e","allowlist(address)":"a7cd52cb","approve(address,uint256)":"095ea7b3","balanceOf(address)":"70a08231","burnFromPair(uint256)":"5dde5417","buy_tax_rate()":"6e620c45","decimals()":"313ce567","name()":"06fdde03","owner()":"8da5cb5b","pancakePair()":"b8c9d25c","pancakeRouter()":"c21ebd07","renounceOwnership()":"715018a6","setAllowlist(address[],bool)":"f01fe7c4","setSpecifySell(address)":"a5b44339","setTaxRate(uint256)":"c6d69a30","specifySell()":"f19609a3","symbol()":"95d89b41","totalSupply()":"18160ddd","transfer(address,uint256)":"a9059cbb","transferFrom(address,address,uint256)":"23b872dd","transferOwnership(address)":"f2fde38b"},"id":47}