{"abi":[{"type":"constructor","inputs":[{"name":"addrs","type":"address[4]","internalType":"address[4]"},{"name":"_sellFee","type":"address","internalType":"address"},{"name":"_buyFee","type":"address","internalType":"address"},{"name":"_profitFee","type":"address","internalType":"address"},{"name":"_USDT","type":"address","internalType":"address"}],"stateMutability":"nonpayable"},{"type":"function","name":"PROFIT_TAX_RATE","inputs":[],"outputs":[{"name":"","type":"uint256","internalType":"uint256"}],"stateMutability":"view"},{"type":"function","name":"USDT","inputs":[],"outputs":[{"name":"","type":"address","internalType":"address"}],"stateMutability":"view"},{"type":"function","name":"allowance","inputs":[{"name":"owner","type":"address","internalType":"address"},{"name":"spender","type":"address","internalType":"address"}],"outputs":[{"name":"","type":"uint256","internalType":"uint256"}],"stateMutability":"view"},{"type":"function","name":"allowlist","inputs":[{"name":"","type":"address","internalType":"address"}],"outputs":[{"name":"","type":"bool","internalType":"bool"}],"stateMutability":"view"},{"type":"function","name":"approve","inputs":[{"name":"spender","type":"address","internalType":"address"},{"name":"value","type":"uint256","internalType":"uint256"}],"outputs":[{"name":"","type":"bool","internalType":"bool"}],"stateMutability":"nonpayable"},{"type":"function","name":"averagePriceOf","inputs":[{"name":"user","type":"address","internalType":"address"}],"outputs":[{"name":"","type":"uint256","internalType":"uint256"}],"stateMutability":"view"},{"type":"function","name":"balanceOf","inputs":[{"name":"account","type":"address","internalType":"address"}],"outputs":[{"name":"","type":"uint256","internalType":"uint256"}],"stateMutability":"view"},{"type":"function","name":"buyFee","inputs":[],"outputs":[{"name":"","type":"address","internalType":"address"}],"stateMutability":"view"},{"type":"function","name":"buy_tax_rate","inputs":[],"outputs":[{"name":"","type":"uint256","internalType":"uint256"}],"stateMutability":"view"},{"type":"function","name":"currentPrice","inputs":[],"outputs":[{"name":"","type":"uint256","internalType":"uint256"}],"stateMutability":"view"},{"type":"function","name":"decimals","inputs":[],"outputs":[{"name":"","type":"uint8","internalType":"uint8"}],"stateMutability":"view"},{"type":"function","name":"getAmountOut","inputs":[{"name":"amountToken","type":"uint256","internalType":"uint256"}],"outputs":[{"name":"","type":"uint256","internalType":"uint256"}],"stateMutability":"view"},{"type":"function","name":"getProfitTaxToken","inputs":[{"name":"from","type":"address","internalType":"address"},{"name":"amountToken","type":"uint256","internalType":"uint256"}],"outputs":[{"name":"taxToken","type":"uint256","internalType":"uint256"}],"stateMutability":"view"},{"type":"function","name":"name","inputs":[],"outputs":[{"name":"","type":"string","internalType":"string"}],"stateMutability":"view"},{"type":"function","name":"owner","inputs":[],"outputs":[{"name":"","type":"address","internalType":"address"}],"stateMutability":"view"},{"type":"function","name":"pancakePair","inputs":[],"outputs":[{"name":"","type":"address","internalType":"address"}],"stateMutability":"view"},{"type":"function","name":"pancakeRouter","inputs":[],"outputs":[{"name":"","type":"address","internalType":"contract IUniswapV2Router02"}],"stateMutability":"view"},{"type":"function","name":"profitFee","inputs":[],"outputs":[{"name":"","type":"address","internalType":"address"}],"stateMutability":"view"},{"type":"function","name":"renounceOwnership","inputs":[],"outputs":[],"stateMutability":"nonpayable"},{"type":"function","name":"sellFee","inputs":[],"outputs":[{"name":"","type":"address","internalType":"address"}],"stateMutability":"view"},{"type":"function","name":"sell_tax_rate","inputs":[],"outputs":[{"name":"","type":"uint256","internalType":"uint256"}],"stateMutability":"view"},{"type":"function","name":"setAllowlist","inputs":[{"name":"addrs","type":"address[]","internalType":"address[]"},{"name":"isAllow","type":"bool","internalType":"bool"}],"outputs":[],"stateMutability":"nonpayable"},{"type":"function","name":"setTaxRate","inputs":[{"name":"_buyRate","type":"uint256","internalType":"uint256"},{"name":"_sellRate","type":"uint256","internalType":"uint256"}],"outputs":[],"stateMutability":"nonpayable"},{"type":"function","name":"symbol","inputs":[],"outputs":[{"name":"","type":"string","internalType":"string"}],"stateMutability":"view"},{"type":"function","name":"totalCostUsdt","inputs":[{"name":"","type":"address","internalType":"address"}],"outputs":[{"name":"","type":"uint256","internalType":"uint256"}],"stateMutability":"view"},{"type":"function","name":"totalSupply","inputs":[],"outputs":[{"name":"","type":"uint256","internalType":"uint256"}],"stateMutability":"view"},{"type":"function","name":"transfer","inputs":[{"name":"to","type":"address","internalType":"address"},{"name":"value","type":"uint256","internalType":"uint256"}],"outputs":[{"name":"","type":"bool","internalType":"bool"}],"stateMutability":"nonpayable"},{"type":"function","name":"transferFrom","inputs":[{"name":"from","type":"address","internalType":"address"},{"name":"to","type":"address","internalType":"address"},{"name":"value","type":"uint256","internalType":"uint256"}],"outputs":[{"name":"","type":"bool","internalType":"bool"}],"stateMutability":"nonpayable"},{"type":"function","name":"transferOwnership","inputs":[{"name":"newOwner","type":"address","internalType":"address"}],"outputs":[],"stateMutability":"nonpayable"},{"type":"event","name":"Approval","inputs":[{"name":"owner","type":"address","indexed":true,"internalType":"address"},{"name":"spender","type":"address","indexed":true,"internalType":"address"},{"name":"value","type":"uint256","indexed":false,"internalType":"uint256"}],"anonymous":false},{"type":"event","name":"OwnershipTransferred","inputs":[{"name":"previousOwner","type":"address","indexed":true,"internalType":"address"},{"name":"newOwner","type":"address","indexed":true,"internalType":"address"}],"anonymous":false},{"type":"event","name":"SwapAndSendTax","inputs":[{"name":"recipient","type":"address","indexed":false,"internalType":"address"},{"name":"tokensSwapped","type":"uint256","indexed":false,"internalType":"uint256"}],"anonymous":false},{"type":"event","name":"Transfer","inputs":[{"name":"from","type":"address","indexed":true,"internalType":"address"},{"name":"to","type":"address","indexed":true,"internalType":"address"},{"name":"value","type":"uint256","indexed":false,"internalType":"uint256"}],"anonymous":false},{"type":"error","name":"ERC20InsufficientAllowance","inputs":[{"name":"spender","type":"address","internalType":"address"},{"name":"allowance","type":"uint256","internalType":"uint256"},{"name":"needed","type":"uint256","internalType":"uint256"}]},{"type":"error","name":"ERC20InsufficientBalance","inputs":[{"name":"sender","type":"address","internalType":"address"},{"name":"balance","type":"uint256","internalType":"uint256"},{"name":"needed","type":"uint256","internalType":"uint256"}]},{"type":"error","name":"ERC20InvalidApprover","inputs":[{"name":"approver","type":"address","internalType":"address"}]},{"type":"error","name":"ERC20InvalidReceiver","inputs":[{"name":"receiver","type":"address","internalType":"address"}]},{"type":"error","name":"ERC20InvalidSender","inputs":[{"name":"sender","type":"address","internalType":"address"}]},{"type":"error","name":"ERC20InvalidSpender","inputs":[{"name":"spender","type":"address","internalType":"address"}]},{"type":"error","name":"OwnableInvalidOwner","inputs":[{"name":"owner","type":"address","internalType":"address"}]},{"type":"error","name":"OwnableUnauthorizedAccount","inputs":[{"name":"account","type":"address","internalType":"address"}]}],"bytecode":{"object":"0x60806040527310ed43c718714eb63d5aa57b78b54704e256024e60065f6101000a81548173ffffffffffffffffffffffffffffffffffffffff021916908373ffffffffffffffffffffffffffffffffffffffff1602179055506003600755600360085534801561006d575f5ffd5b50604051614fd8380380614fd8833981810160405281019061008f9190611b98565b336040518060400160405280600481526020017f444a5343000000000000000000000000000000000000000000000000000000008152506040518060400160405280600481526020017f444a534300000000000000000000000000000000000000000000000000000000815250816003908161010b9190611e20565b50806004908161011b9190611e20565b5050505f73ffffffffffffffffffffffffffffffffffffffff168173ffffffffffffffffffffffffffffffffffffffff160361018e575f6040517f1e4fbdf70000000000000000000000000000000000000000000000000000000081526004016101859190611efe565b60405180910390fd5b61019d8161051e60201b60201c565b506101ad856105e160201b60201c565b80600d5f6101000a81548173ffffffffffffffffffffffffffffffffffffffff021916908373ffffffffffffffffffffffffffffffffffffffff1602179055508360095f6101000a81548173ffffffffffffffffffffffffffffffffffffffff021916908373ffffffffffffffffffffffffffffffffffffffff16021790555082600a5f6101000a81548173ffffffffffffffffffffffffffffffffffffffff021916908373ffffffffffffffffffffffffffffffffffffffff16021790555081600b5f6101000a81548173ffffffffffffffffffffffffffffffffffffffff021916908373ffffffffffffffffffffffffffffffffffffffff1602179055506001600e5f8673ffffffffffffffffffffffffffffffffffffffff1673ffffffffffffffffffffffffffffffffffffffff1681526020019081526020015f205f6101000a81548160ff0219169083151502179055506001600e5f8573ffffffffffffffffffffffffffffffffffffffff1673ffffffffffffffffffffffffffffffffffffffff1681526020019081526020015f205f6101000a81548160ff0219169083151502179055506001600e5f8473ffffffffffffffffffffffffffffffffffffffff1673ffffffffffffffffffffffffffffffffffffffff1681526020019081526020015f205f6101000a81548160ff02191690831515021790555060065f9054906101000a900473ffffffffffffffffffffffffffffffffffffffff1673ffffffffffffffffffffffffffffffffffffffff1663c45a01556040518163ffffffff1660e01b8152600401602060405180830381865afa158015610416573d5f5f3e3d5ffd5b505050506040513d601f19601f8201168201806040525081019061043a9190611f17565b73ffffffffffffffffffffffffffffffffffffffff1663c9c6539630600d5f9054906101000a900473ffffffffffffffffffffffffffffffffffffffff166040518363ffffffff1660e01b8152600401610495929190611f42565b6020604051808303815f875af11580156104b1573d5f5f3e3d5ffd5b505050506040513d601f19601f820116820180604052508101906104d59190611f17565b600c5f6101000a81548173ffffffffffffffffffffffffffffffffffffffff021916908373ffffffffffffffffffffffffffffffffffffffff160217905550505050505061242b565b5f60055f9054906101000a900473ffffffffffffffffffffffffffffffffffffffff1690508160055f6101000a81548173ffffffffffffffffffffffffffffffffffffffff021916908373ffffffffffffffffffffffffffffffffffffffff1602179055508173ffffffffffffffffffffffffffffffffffffffff168173ffffffffffffffffffffffffffffffffffffffff167f8be0079c531659141344cd1fd0a4f28419497f9722a3daafe3b4186f6b6457e060405160405180910390a35050565b5f6040518060800160405280670de0b6b3a7640000622dc6c06106049190611f96565b8152602001670de0b6b3a7640000623d09006106209190611f96565b8152602001670de0b6b3a7640000622dc6c061063c9190611f96565b8152602001670de0b6b3a764000063055d4a806106599190611f96565b81525090505f5f90505b6004811015610723576106aa83826004811061068257610681611fd7565b5b602002015183836004811061069a57610699611fd7565b5b602002015161072860201b60201c565b6001600e5f8584600481106106c2576106c1611fd7565b5b602002015173ffffffffffffffffffffffffffffffffffffffff1673ffffffffffffffffffffffffffffffffffffffff1681526020019081526020015f205f6101000a81548160ff0219169083151502179055508080600101915050610663565b505050565b5f73ffffffffffffffffffffffffffffffffffffffff168273ffffffffffffffffffffffffffffffffffffffff1603610798575f6040517fec442f0500000000000000000000000000000000000000000000000000000000815260040161078f9190611efe565b60405180910390fd5b6107a95f83836107ad60201b60201c565b5050565b600d60149054906101000a900460ff16806107f357505f73ffffffffffffffffffffffffffffffffffffffff168373ffffffffffffffffffffffffffffffffffffffff16145b8061082957505f73ffffffffffffffffffffffffffffffffffffffff168273ffffffffffffffffffffffffffffffffffffffff16145b8061087a5750600e5f8473ffffffffffffffffffffffffffffffffffffffff1673ffffffffffffffffffffffffffffffffffffffff1681526020019081526020015f205f9054906101000a900460ff165b806108cb5750600e5f8373ffffffffffffffffffffffffffffffffffffffff1673ffffffffffffffffffffffffffffffffffffffff1681526020019081526020015f205f9054906101000a900460ff165b156108e6576108e1838383610bdd60201b60201c565b610bd8565b5f600c5f9054906101000a900473ffffffffffffffffffffffffffffffffffffffff1673ffffffffffffffffffffffffffffffffffffffff168473ffffffffffffffffffffffffffffffffffffffff161490505f600c5f9054906101000a900473ffffffffffffffffffffffffffffffffffffffff1673ffffffffffffffffffffffffffffffffffffffff168473ffffffffffffffffffffffffffffffffffffffff1614905081156109aa576109a3858585610df660201b60201c565b5050610bd8565b80156109c8576109c1858585610e7f60201b60201c565b5050610bd8565b5f6109d83061111960201b60201c565b90505f811115610a1457610a1381600a5f9054906101000a900473ffffffffffffffffffffffffffffffffffffffff1661115e60201b60201c565b5b5f610a248761111960201b60201c565b90505f600f5f8973ffffffffffffffffffffffffffffffffffffffff1673ffffffffffffffffffffffffffffffffffffffff1681526020019081526020015f20549050610a78888888610bdd60201b60201c565b5f81118015610a8657505f82115b15610bd2575f828783610a999190611f96565b610aa39190612031565b90508082610ab19190612061565b600f5f8b73ffffffffffffffffffffffffffffffffffffffff1673ffffffffffffffffffffffffffffffffffffffff1681526020019081526020015f2081905550620f4240600f5f8b73ffffffffffffffffffffffffffffffffffffffff1673ffffffffffffffffffffffffffffffffffffffff1681526020019081526020015f20541015610b7d575f600f5f8b73ffffffffffffffffffffffffffffffffffffffff1673ffffffffffffffffffffffffffffffffffffffff1681526020019081526020015f20819055505b80600f5f8a73ffffffffffffffffffffffffffffffffffffffff1673ffffffffffffffffffffffffffffffffffffffff1681526020019081526020015f205f828254610bc99190612094565b92505081905550505b50505050505b505050565b5f73ffffffffffffffffffffffffffffffffffffffff168373ffffffffffffffffffffffffffffffffffffffff1603610c2d578060025f828254610c219190612094565b92505081905550610cfb565b5f5f5f8573ffffffffffffffffffffffffffffffffffffffff1673ffffffffffffffffffffffffffffffffffffffff1681526020019081526020015f2054905081811015610cb6578381836040517fe450d38c000000000000000000000000000000000000000000000000000000008152600401610cad939291906120d6565b60405180910390fd5b8181035f5f8673ffffffffffffffffffffffffffffffffffffffff1673ffffffffffffffffffffffffffffffffffffffff1681526020019081526020015f2081905550505b5f73ffffffffffffffffffffffffffffffffffffffff168273ffffffffffffffffffffffffffffffffffffffff1603610d42578060025f8282540392505081905550610d8c565b805f5f8473ffffffffffffffffffffffffffffffffffffffff1673ffffffffffffffffffffffffffffffffffffffff1681526020019081526020015f205f82825401925050819055505b8173ffffffffffffffffffffffffffffffffffffffff168373ffffffffffffffffffffffffffffffffffffffff167fddf252ad1be2c89b69c2b068fc378daa952ba7f163c4a11628f55a4df523b3ef83604051610de9919061210b565b60405180910390a3505050565b5f606460085483610e079190611f96565b610e119190612031565b90505f8183610e209190612061565b9050610e56846103e8601986610e369190611f96565b610e409190612031565b85610e4b9190612094565b6113b360201b60201c565b610e67853084610bdd60201b60201c565b610e78858583610bdd60201b60201c565b5050505050565b5f610e8f8461111960201b60201c565b90505f606460075484610ea29190611f96565b610eac9190612031565b90505f8184610ebb9190612061565b90505f610ece87836114eb60201b60201c565b90505f811115610f1b57610ee9873083610bdd60201b60201c565b610f1a81600b5f9054906101000a900473ffffffffffffffffffffffffffffffffffffffff1661115e60201b60201c565b5b610f2c873085610bdd60201b60201c565b610f5d8360095f9054906101000a900473ffffffffffffffffffffffffffffffffffffffff1661115e60201b60201c565b610f7987878385610f6e9190612061565b610bdd60201b60201c565b5f610f898861111960201b60201c565b90505f8103610fd9575f600f5f8a73ffffffffffffffffffffffffffffffffffffffff1673ffffffffffffffffffffffffffffffffffffffff1681526020019081526020015f208190555061110f565b5f600f5f8a73ffffffffffffffffffffffffffffffffffffffff1673ffffffffffffffffffffffffffffffffffffffff1681526020019081526020015f205490505f8688836110289190611f96565b6110329190612031565b905080826110409190612061565b600f5f8c73ffffffffffffffffffffffffffffffffffffffff1673ffffffffffffffffffffffffffffffffffffffff1681526020019081526020015f2081905550620f4240600f5f8c73ffffffffffffffffffffffffffffffffffffffff1673ffffffffffffffffffffffffffffffffffffffff1681526020019081526020015f2054101561110c575f600f5f8c73ffffffffffffffffffffffffffffffffffffffff1673ffffffffffffffffffffffffffffffffffffffff1681526020019081526020015f20819055505b50505b5050505050505050565b5f5f5f8373ffffffffffffffffffffffffffffffffffffffff1673ffffffffffffffffffffffffffffffffffffffff1681526020019081526020015f20549050919050565b5f8203156113af576001600d60146101000a81548160ff0219169083151502179055505f600267ffffffffffffffff81111561119d5761119c611a14565b5b6040519080825280602002602001820160405280156111cb5781602001602082028036833780820191505090505b50905030815f815181106111e2576111e1611fd7565b5b602002602001019073ffffffffffffffffffffffffffffffffffffffff16908173ffffffffffffffffffffffffffffffffffffffff1681525050600d5f9054906101000a900473ffffffffffffffffffffffffffffffffffffffff168160018151811061125257611251611fd7565b5b602002602001019073ffffffffffffffffffffffffffffffffffffffff16908173ffffffffffffffffffffffffffffffffffffffff16815250506112be3060065f9054906101000a900473ffffffffffffffffffffffffffffffffffffffff16856115ad60201b60201c565b60065f9054906101000a900473ffffffffffffffffffffffffffffffffffffffff1673ffffffffffffffffffffffffffffffffffffffff16635c11d795845f8486601e4261130c9190612094565b6040518663ffffffff1660e01b815260040161132c959493929190612214565b5f604051808303815f87803b158015611343575f5ffd5b505af1925050508015611354575060015b15611393577faedb4dc54dc30d46d331ffcc44cd836607bea96c12e1b21a95210ed899184d04828460405161138a92919061226c565b60405180910390a15b5f600d60146101000a81548160ff021916908315150217905550505b5050565b60065f9054906101000a900473ffffffffffffffffffffffffffffffffffffffff1673ffffffffffffffffffffffffffffffffffffffff168273ffffffffffffffffffffffffffffffffffffffff16148061145a5750600c5f9054906101000a900473ffffffffffffffffffffffffffffffffffffffff1673ffffffffffffffffffffffffffffffffffffffff168273ffffffffffffffffffffffffffffffffffffffff16145b6114e7575f61146d6115c560201b60201c565b90505f670de0b6b3a764000083836114859190611f96565b61148f9190612031565b905080600f5f8673ffffffffffffffffffffffffffffffffffffffff1673ffffffffffffffffffffffffffffffffffffffff1681526020019081526020015f205f8282546114dd9190612094565b9250508190555050505b5050565b5f5f82036114fb575f90506115a7565b5f61150b8461179860201b60201c565b90505f810361151d575f9150506115a7565b5f61152c6115c560201b60201c565b905081811161153f575f925050506115a7565b5f81838361154d9190612061565b866115589190611f96565b6115629190612031565b90506064600a826115739190611f96565b61157d9190612031565b9350848411156115a3576064600a866115969190611f96565b6115a09190612031565b93505b5050505b92915050565b6115c0838383600161182060201b60201c565b505050565b5f5f600267ffffffffffffffff8111156115e2576115e1611a14565b5b6040519080825280602002602001820160405280156116105781602001602082028036833780820191505090505b50905030815f8151811061162757611626611fd7565b5b602002602001019073ffffffffffffffffffffffffffffffffffffffff16908173ffffffffffffffffffffffffffffffffffffffff1681525050600d5f9054906101000a900473ffffffffffffffffffffffffffffffffffffffff168160018151811061169757611696611fd7565b5b602002602001019073ffffffffffffffffffffffffffffffffffffffff16908173ffffffffffffffffffffffffffffffffffffffff168152505060065f9054906101000a900473ffffffffffffffffffffffffffffffffffffffff1673ffffffffffffffffffffffffffffffffffffffff1663d06ca61f670de0b6b3a7640000836040518363ffffffff1660e01b81526004016117359291906122cc565b5f60405180830381865afa15801561174f573d5f5f3e3d5ffd5b505050506040513d5f823e3d601f19601f8201168201806040525081019061177791906123e4565b60018151811061178a57611789611fd7565b5b602002602001015191505090565b5f5f6117a98361111960201b60201c565b90505f81036117bb575f91505061181b565b80670de0b6b3a7640000600f5f8673ffffffffffffffffffffffffffffffffffffffff1673ffffffffffffffffffffffffffffffffffffffff1681526020019081526020015f205461180d9190611f96565b6118179190612031565b9150505b919050565b5f73ffffffffffffffffffffffffffffffffffffffff168473ffffffffffffffffffffffffffffffffffffffff1603611890575f6040517fe602df050000000000000000000000000000000000000000000000000000000081526004016118879190611efe565b60405180910390fd5b5f73ffffffffffffffffffffffffffffffffffffffff168373ffffffffffffffffffffffffffffffffffffffff1603611900575f6040517f94280d620000000000000000000000000000000000000000000000000000000081526004016118f79190611efe565b60405180910390fd5b8160015f8673ffffffffffffffffffffffffffffffffffffffff1673ffffffffffffffffffffffffffffffffffffffff1681526020019081526020015f205f8573ffffffffffffffffffffffffffffffffffffffff1673ffffffffffffffffffffffffffffffffffffffff1681526020019081526020015f208190555080156119e9578273ffffffffffffffffffffffffffffffffffffffff168473ffffffffffffffffffffffffffffffffffffffff167f8c5be1e5ebec7d5bd14f71427d1e84f3dd0314c0f7b2291e5b200ac8c7c3b925846040516119e0919061210b565b60405180910390a35b50505050565b5f604051905090565b5f5ffd5b5f5ffd5b5f5ffd5b5f601f19601f8301169050919050565b7f4e487b71000000000000000000000000000000000000000000000000000000005f52604160045260245ffd5b611a4a82611a04565b810181811067ffffffffffffffff82111715611a6957611a68611a14565b5b80604052505050565b5f611a7b6119ef565b9050611a878282611a41565b919050565b5f67ffffffffffffffff821115611aa657611aa5611a14565b5b602082029050919050565b5f5ffd5b5f73ffffffffffffffffffffffffffffffffffffffff82169050919050565b5f611ade82611ab5565b9050919050565b611aee81611ad4565b8114611af8575f5ffd5b50565b5f81519050611b0981611ae5565b92915050565b5f611b21611b1c84611a8c565b611a72565b90508060208402830185811115611b3b57611b3a611ab1565b5b835b81811015611b645780611b508882611afb565b845260208401935050602081019050611b3d565b5050509392505050565b5f82601f830112611b8257611b81611a00565b5b6004611b8f848285611b0f565b91505092915050565b5f5f5f5f5f6101008688031215611bb257611bb16119f8565b5b5f611bbf88828901611b6e565b9550506080611bd088828901611afb565b94505060a0611be188828901611afb565b93505060c0611bf288828901611afb565b92505060e0611c0388828901611afb565b9150509295509295909350565b5f81519050919050565b7f4e487b71000000000000000000000000000000000000000000000000000000005f52602260045260245ffd5b5f6002820490506001821680611c5e57607f821691505b602082108103611c7157611c70611c1a565b5b50919050565b5f819050815f5260205f209050919050565b5f6020601f8301049050919050565b5f82821b905092915050565b5f60088302611cd37fffffffffffffffffffffffffffffffffffffffffffffffffffffffffffffffff82611c98565b611cdd8683611c98565b95508019841693508086168417925050509392505050565b5f819050919050565b5f819050919050565b5f611d21611d1c611d1784611cf5565b611cfe565b611cf5565b9050919050565b5f819050919050565b611d3a83611d07565b611d4e611d4682611d28565b848454611ca4565b825550505050565b5f5f905090565b611d65611d56565b611d70818484611d31565b505050565b5b81811015611d9357611d885f82611d5d565b600181019050611d76565b5050565b601f821115611dd857611da981611c77565b611db284611c89565b81016020851015611dc1578190505b611dd5611dcd85611c89565b830182611d75565b50505b505050565b5f82821c905092915050565b5f611df85f1984600802611ddd565b1980831691505092915050565b5f611e108383611de9565b9150826002028217905092915050565b611e2982611c10565b67ffffffffffffffff811115611e4257611e41611a14565b5b611e4c8254611c47565b611e57828285611d97565b5f60209050601f831160018114611e88575f8415611e76578287015190505b611e808582611e05565b865550611ee7565b601f198416611e9686611c77565b5f5b82811015611ebd57848901518255600182019150602085019450602081019050611e98565b86831015611eda5784890151611ed6601f891682611de9565b8355505b6001600288020188555050505b505050505050565b611ef881611ad4565b82525050565b5f602082019050611f115f830184611eef565b92915050565b5f60208284031215611f2c57611f2b6119f8565b5b5f611f3984828501611afb565b91505092915050565b5f604082019050611f555f830185611eef565b611f626020830184611eef565b9392505050565b7f4e487b71000000000000000000000000000000000000000000000000000000005f52601160045260245ffd5b5f611fa082611cf5565b9150611fab83611cf5565b9250828202611fb981611cf5565b91508282048414831517611fd057611fcf611f69565b5b5092915050565b7f4e487b71000000000000000000000000000000000000000000000000000000005f52603260045260245ffd5b7f4e487b71000000000000000000000000000000000000000000000000000000005f52601260045260245ffd5b5f61203b82611cf5565b915061204683611cf5565b92508261205657612055612004565b5b828204905092915050565b5f61206b82611cf5565b915061207683611cf5565b925082820390508181111561208e5761208d611f69565b5b92915050565b5f61209e82611cf5565b91506120a983611cf5565b92508282019050808211156120c1576120c0611f69565b5b92915050565b6120d081611cf5565b82525050565b5f6060820190506120e95f830186611eef565b6120f660208301856120c7565b61210360408301846120c7565b949350505050565b5f60208201905061211e5f8301846120c7565b92915050565b5f819050919050565b5f61214761214261213d84612124565b611cfe565b611cf5565b9050919050565b6121578161212d565b82525050565b5f81519050919050565b5f82825260208201905092915050565b5f819050602082019050919050565b61218f81611ad4565b82525050565b5f6121a08383612186565b60208301905092915050565b5f602082019050919050565b5f6121c28261215d565b6121cc8185612167565b93506121d783612177565b805f5b838110156122075781516121ee8882612195565b97506121f9836121ac565b9250506001810190506121da565b5085935050505092915050565b5f60a0820190506122275f8301886120c7565b612234602083018761214e565b818103604083015261224681866121b8565b90506122556060830185611eef565b61226260808301846120c7565b9695505050505050565b5f60408201905061227f5f830185611eef565b61228c60208301846120c7565b9392505050565b5f819050919050565b5f6122b66122b16122ac84612293565b611cfe565b611cf5565b9050919050565b6122c68161229c565b82525050565b5f6040820190506122df5f8301856122bd565b81810360208301526122f181846121b8565b90509392505050565b5f67ffffffffffffffff82111561231457612313611a14565b5b602082029050602081019050919050565b61232e81611cf5565b8114612338575f5ffd5b50565b5f8151905061234981612325565b92915050565b5f61236161235c846122fa565b611a72565b9050808382526020820190506020840283018581111561238457612383611ab1565b5b835b818110156123ad5780612399888261233b565b845260208401935050602081019050612386565b5050509392505050565b5f82601f8301126123cb576123ca611a00565b5b81516123db84826020860161234f565b91505092915050565b5f602082840312156123f9576123f86119f8565b5b5f82015167ffffffffffffffff811115612416576124156119fc565b5b612422848285016123b7565b91505092915050565b612ba0806124385f395ff3fe608060405234801561000f575f5ffd5b50600436106101cd575f3560e01c8063715018a611610102578063b8c9d25c116100a0578063dd62ed3e1161006f578063dd62ed3e1461054b578063f01fe7c41461057b578063f2fde38b14610597578063f90766a6146105b3576101cd565b8063b8c9d25c146104c1578063c1d960ae146104df578063c21ebd071461050f578063c54e44eb1461052d576101cd565b80639d1b464a116100dc5780639d1b464a14610425578063a1f9705014610443578063a7cd52cb14610461578063a9059cbb14610491576101cd565b8063715018a6146103df5780638da5cb5b146103e957806395d89b4114610407576101cd565b8063313ce5671161016f5780635c195217116101495780635c1952171461033157806360d1d4a4146103615780636e620c451461039157806370a08231146103af576101cd565b8063313ce567146102d757806347062402146102f55780635394134614610313576101cd565b806318160ddd116101ab57806318160ddd1461024f57806323b872dd1461026d5780632b14ca561461029d5780632beb8159146102bb576101cd565b806306fdde03146101d1578063088878b5146101ef578063095ea7b31461021f575b5f5ffd5b6101d96105d1565b6040516101e6919061214e565b60405180910390f35b610209600480360381019061020491906121d9565b610661565b604051610216919061221c565b60405180910390f35b6102396004803603810190610234919061225f565b6106e3565b60405161024691906122b7565b60405180910390f35b610257610705565b604051610264919061221c565b60405180910390f35b610287600480360381019061028291906122d0565b61070e565b60405161029491906122b7565b60405180910390f35b6102a561073c565b6040516102b2919061232f565b60405180910390f35b6102d560048036038101906102d09190612348565b610761565b005b6102df61077b565b6040516102ec91906123a1565b60405180910390f35b6102fd610783565b60405161030a919061232f565b60405180910390f35b61031b6107a8565b604051610328919061221c565b60405180910390f35b61034b600480360381019061034691906123ba565b6107ad565b604051610358919061221c565b60405180910390f35b61037b600480360381019061037691906121d9565b61097f565b604051610388919061221c565b60405180910390f35b610399610994565b6040516103a6919061221c565b60405180910390f35b6103c960048036038101906103c491906121d9565b61099a565b6040516103d6919061221c565b60405180910390f35b6103e76109df565b005b6103f16109f2565b6040516103fe919061232f565b60405180910390f35b61040f610a1a565b60405161041c919061214e565b60405180910390f35b61042d610aaa565b60405161043a919061221c565b60405180910390f35b61044b610c7d565b604051610458919061221c565b60405180910390f35b61047b600480360381019061047691906121d9565b610c83565b60405161048891906122b7565b60405180910390f35b6104ab60048036038101906104a6919061225f565b610ca0565b6040516104b891906122b7565b60405180910390f35b6104c9610cc2565b6040516104d6919061232f565b60405180910390f35b6104f960048036038101906104f4919061225f565b610ce7565b604051610506919061221c565b60405180910390f35b610517610d9d565b6040516105249190612440565b60405180910390f35b610535610dc2565b604051610542919061232f565b60405180910390f35b61056560048036038101906105609190612459565b610de7565b604051610572919061221c565b60405180910390f35b61059560048036038101906105909190612601565b610e69565b005b6105b160048036038101906105ac91906121d9565b610eff565b005b6105bb610f83565b6040516105c8919061232f565b60405180910390f35b6060600380546105e090612688565b80601f016020809104026020016040519081016040528092919081815260200182805461060c90612688565b80156106575780601f1061062e57610100808354040283529160200191610657565b820191905f5260205f20905b81548152906001019060200180831161063a57829003601f168201915b5050505050905090565b5f5f61066c8361099a565b90505f810361067e575f9150506106de565b80670de0b6b3a7640000600f5f8673ffffffffffffffffffffffffffffffffffffffff1673ffffffffffffffffffffffffffffffffffffffff1681526020019081526020015f20546106d091906126e5565b6106da9190612753565b9150505b919050565b5f5f6106ed610fa8565b90506106fa818585610faf565b600191505092915050565b5f600254905090565b5f5f610718610fa8565b9050610725858285610fc1565b610730858585611054565b60019150509392505050565b60095f9054906101000a900473ffffffffffffffffffffffffffffffffffffffff1681565b610769611144565b81600881905550806007819055505050565b5f6012905090565b600a5f9054906101000a900473ffffffffffffffffffffffffffffffffffffffff1681565b600a81565b5f5f600267ffffffffffffffff8111156107ca576107c961249b565b5b6040519080825280602002602001820160405280156107f85781602001602082028036833780820191505090505b50905030815f8151811061080f5761080e612783565b5b602002602001019073ffffffffffffffffffffffffffffffffffffffff16908173ffffffffffffffffffffffffffffffffffffffff1681525050600d5f9054906101000a900473ffffffffffffffffffffffffffffffffffffffff168160018151811061087f5761087e612783565b5b602002602001019073ffffffffffffffffffffffffffffffffffffffff16908173ffffffffffffffffffffffffffffffffffffffff16815250505f60065f9054906101000a900473ffffffffffffffffffffffffffffffffffffffff1673ffffffffffffffffffffffffffffffffffffffff1663d06ca61f85846040518363ffffffff1660e01b8152600401610916929190612867565b5f60405180830381865afa158015610930573d5f5f3e3d5ffd5b505050506040513d5f823e3d601f19601f820116820180604052508101906109589190612969565b90508060018151811061096e5761096d612783565b5b602002602001015192505050919050565b600f602052805f5260405f205f915090505481565b60085481565b5f5f5f8373ffffffffffffffffffffffffffffffffffffffff1673ffffffffffffffffffffffffffffffffffffffff1681526020019081526020015f20549050919050565b6109e7611144565b6109f05f6111cb565b565b5f60055f9054906101000a900473ffffffffffffffffffffffffffffffffffffffff16905090565b606060048054610a2990612688565b80601f0160208091040260200160405190810160405280929190818152602001828054610a5590612688565b8015610aa05780601f10610a7757610100808354040283529160200191610aa0565b820191905f5260205f20905b815481529060010190602001808311610a8357829003601f168201915b5050505050905090565b5f5f600267ffffffffffffffff811115610ac757610ac661249b565b5b604051908082528060200260200182016040528015610af55781602001602082028036833780820191505090505b50905030815f81518110610b0c57610b0b612783565b5b602002602001019073ffffffffffffffffffffffffffffffffffffffff16908173ffffffffffffffffffffffffffffffffffffffff1681525050600d5f9054906101000a900473ffffffffffffffffffffffffffffffffffffffff1681600181518110610b7c57610b7b612783565b5b602002602001019073ffffffffffffffffffffffffffffffffffffffff16908173ffffffffffffffffffffffffffffffffffffffff168152505060065f9054906101000a900473ffffffffffffffffffffffffffffffffffffffff1673ffffffffffffffffffffffffffffffffffffffff1663d06ca61f670de0b6b3a7640000836040518363ffffffff1660e01b8152600401610c1a9291906129e9565b5f60405180830381865afa158015610c34573d5f5f3e3d5ffd5b505050506040513d5f823e3d601f19601f82011682018060405250810190610c5c9190612969565b600181518110610c6f57610c6e612783565b5b602002602001015191505090565b60075481565b600e602052805f5260405f205f915054906101000a900460ff1681565b5f5f610caa610fa8565b9050610cb7818585611054565b600191505092915050565b600c5f9054906101000a900473ffffffffffffffffffffffffffffffffffffffff1681565b5f5f8203610cf7575f9050610d97565b5f610d0184610661565b90505f8103610d13575f915050610d97565b5f610d1c610aaa565b9050818111610d2f575f92505050610d97565b5f818383610d3d9190612a17565b86610d4891906126e5565b610d529190612753565b90506064600a82610d6391906126e5565b610d6d9190612753565b935084841115610d93576064600a86610d8691906126e5565b610d909190612753565b93505b5050505b92915050565b60065f9054906101000a900473ffffffffffffffffffffffffffffffffffffffff1681565b600d5f9054906101000a900473ffffffffffffffffffffffffffffffffffffffff1681565b5f60015f8473ffffffffffffffffffffffffffffffffffffffff1673ffffffffffffffffffffffffffffffffffffffff1681526020019081526020015f205f8373ffffffffffffffffffffffffffffffffffffffff1673ffffffffffffffffffffffffffffffffffffffff1681526020019081526020015f2054905092915050565b610e71611144565b5f5f90505b8251811015610efa5781600e5f858481518110610e9657610e95612783565b5b602002602001015173ffffffffffffffffffffffffffffffffffffffff1673ffffffffffffffffffffffffffffffffffffffff1681526020019081526020015f205f6101000a81548160ff0219169083151502179055508080600101915050610e76565b505050565b610f07611144565b5f73ffffffffffffffffffffffffffffffffffffffff168173ffffffffffffffffffffffffffffffffffffffff1603610f77575f6040517f1e4fbdf7000000000000000000000000000000000000000000000000000000008152600401610f6e919061232f565b60405180910390fd5b610f80816111cb565b50565b600b5f9054906101000a900473ffffffffffffffffffffffffffffffffffffffff1681565b5f33905090565b610fbc838383600161128e565b505050565b5f610fcc8484610de7565b90507fffffffffffffffffffffffffffffffffffffffffffffffffffffffffffffffff81101561104e578181101561103f578281836040517ffb8f41b200000000000000000000000000000000000000000000000000000000815260040161103693929190612a4a565b60405180910390fd5b61104d84848484035f61128e565b5b50505050565b5f73ffffffffffffffffffffffffffffffffffffffff168373ffffffffffffffffffffffffffffffffffffffff16036110c4575f6040517f96c6fd1e0000000000000000000000000000000000000000000000000000000081526004016110bb919061232f565b60405180910390fd5b5f73ffffffffffffffffffffffffffffffffffffffff168273ffffffffffffffffffffffffffffffffffffffff1603611134575f6040517fec442f0500000000000000000000000000000000000000000000000000000000815260040161112b919061232f565b60405180910390fd5b61113f83838361145d565b505050565b61114c610fa8565b73ffffffffffffffffffffffffffffffffffffffff1661116a6109f2565b73ffffffffffffffffffffffffffffffffffffffff16146111c95761118d610fa8565b6040517f118cdaa70000000000000000000000000000000000000000000000000000000081526004016111c0919061232f565b60405180910390fd5b565b5f60055f9054906101000a900473ffffffffffffffffffffffffffffffffffffffff1690508160055f6101000a81548173ffffffffffffffffffffffffffffffffffffffff021916908373ffffffffffffffffffffffffffffffffffffffff1602179055508173ffffffffffffffffffffffffffffffffffffffff168173ffffffffffffffffffffffffffffffffffffffff167f8be0079c531659141344cd1fd0a4f28419497f9722a3daafe3b4186f6b6457e060405160405180910390a35050565b5f73ffffffffffffffffffffffffffffffffffffffff168473ffffffffffffffffffffffffffffffffffffffff16036112fe575f6040517fe602df050000000000000000000000000000000000000000000000000000000081526004016112f5919061232f565b60405180910390fd5b5f73ffffffffffffffffffffffffffffffffffffffff168373ffffffffffffffffffffffffffffffffffffffff160361136e575f6040517f94280d62000000000000000000000000000000000000000000000000000000008152600401611365919061232f565b60405180910390fd5b8160015f8673ffffffffffffffffffffffffffffffffffffffff1673ffffffffffffffffffffffffffffffffffffffff1681526020019081526020015f205f8573ffffffffffffffffffffffffffffffffffffffff1673ffffffffffffffffffffffffffffffffffffffff1681526020019081526020015f20819055508015611457578273ffffffffffffffffffffffffffffffffffffffff168473ffffffffffffffffffffffffffffffffffffffff167f8c5be1e5ebec7d5bd14f71427d1e84f3dd0314c0f7b2291e5b200ac8c7c3b9258460405161144e919061221c565b60405180910390a35b50505050565b600d60149054906101000a900460ff16806114a357505f73ffffffffffffffffffffffffffffffffffffffff168373ffffffffffffffffffffffffffffffffffffffff16145b806114d957505f73ffffffffffffffffffffffffffffffffffffffff168273ffffffffffffffffffffffffffffffffffffffff16145b8061152a5750600e5f8473ffffffffffffffffffffffffffffffffffffffff1673ffffffffffffffffffffffffffffffffffffffff1681526020019081526020015f205f9054906101000a900460ff165b8061157b5750600e5f8373ffffffffffffffffffffffffffffffffffffffff1673ffffffffffffffffffffffffffffffffffffffff1681526020019081526020015f205f9054906101000a900460ff165b156115905761158b838383611863565b61185e565b5f600c5f9054906101000a900473ffffffffffffffffffffffffffffffffffffffff1673ffffffffffffffffffffffffffffffffffffffff168473ffffffffffffffffffffffffffffffffffffffff161490505f600c5f9054906101000a900473ffffffffffffffffffffffffffffffffffffffff1673ffffffffffffffffffffffffffffffffffffffff168473ffffffffffffffffffffffffffffffffffffffff16149050811561164e57611647858585611a7c565b505061185e565b80156116665761165f858585611af3565b505061185e565b5f6116703061099a565b90505f8111156116a6576116a581600a5f9054906101000a900473ffffffffffffffffffffffffffffffffffffffff16611d5d565b5b5f6116b08761099a565b90505f600f5f8973ffffffffffffffffffffffffffffffffffffffff1673ffffffffffffffffffffffffffffffffffffffff1681526020019081526020015f205490506116fe888888611863565b5f8111801561170c57505f82115b15611858575f82878361171f91906126e5565b6117299190612753565b905080826117379190612a17565b600f5f8b73ffffffffffffffffffffffffffffffffffffffff1673ffffffffffffffffffffffffffffffffffffffff1681526020019081526020015f2081905550620f4240600f5f8b73ffffffffffffffffffffffffffffffffffffffff1673ffffffffffffffffffffffffffffffffffffffff1681526020019081526020015f20541015611803575f600f5f8b73ffffffffffffffffffffffffffffffffffffffff1673ffffffffffffffffffffffffffffffffffffffff1681526020019081526020015f20819055505b80600f5f8a73ffffffffffffffffffffffffffffffffffffffff1673ffffffffffffffffffffffffffffffffffffffff1681526020019081526020015f205f82825461184f9190612a7f565b92505081905550505b50505050505b505050565b5f73ffffffffffffffffffffffffffffffffffffffff168373ffffffffffffffffffffffffffffffffffffffff16036118b3578060025f8282546118a79190612a7f565b92505081905550611981565b5f5f5f8573ffffffffffffffffffffffffffffffffffffffff1673ffffffffffffffffffffffffffffffffffffffff1681526020019081526020015f205490508181101561193c578381836040517fe450d38c00000000000000000000000000000000000000000000000000000000815260040161193393929190612a4a565b60405180910390fd5b8181035f5f8673ffffffffffffffffffffffffffffffffffffffff1673ffffffffffffffffffffffffffffffffffffffff1681526020019081526020015f2081905550505b5f73ffffffffffffffffffffffffffffffffffffffff168273ffffffffffffffffffffffffffffffffffffffff16036119c8578060025f8282540392505081905550611a12565b805f5f8473ffffffffffffffffffffffffffffffffffffffff1673ffffffffffffffffffffffffffffffffffffffff1681526020019081526020015f205f82825401925050819055505b8173ffffffffffffffffffffffffffffffffffffffff168373ffffffffffffffffffffffffffffffffffffffff167fddf252ad1be2c89b69c2b068fc378daa952ba7f163c4a11628f55a4df523b3ef83604051611a6f919061221c565b60405180910390a3505050565b5f606460085483611a8d91906126e5565b611a979190612753565b90505f8183611aa69190612a17565b9050611ad6846103e8601986611abc91906126e5565b611ac69190612753565b85611ad19190612a7f565b611fac565b611ae1853084611863565b611aec858583611863565b5050505050565b5f611afd8461099a565b90505f606460075484611b1091906126e5565b611b1a9190612753565b90505f8184611b299190612a17565b90505f611b368783610ce7565b90505f811115611b7757611b4b873083611863565b611b7681600b5f9054906101000a900473ffffffffffffffffffffffffffffffffffffffff16611d5d565b5b611b82873085611863565b611bad8360095f9054906101000a900473ffffffffffffffffffffffffffffffffffffffff16611d5d565b611bc387878385611bbe9190612a17565b611863565b5f611bcd8861099a565b90505f8103611c1d575f600f5f8a73ffffffffffffffffffffffffffffffffffffffff1673ffffffffffffffffffffffffffffffffffffffff1681526020019081526020015f2081905550611d53565b5f600f5f8a73ffffffffffffffffffffffffffffffffffffffff1673ffffffffffffffffffffffffffffffffffffffff1681526020019081526020015f205490505f868883611c6c91906126e5565b611c769190612753565b90508082611c849190612a17565b600f5f8c73ffffffffffffffffffffffffffffffffffffffff1673ffffffffffffffffffffffffffffffffffffffff1681526020019081526020015f2081905550620f4240600f5f8c73ffffffffffffffffffffffffffffffffffffffff1673ffffffffffffffffffffffffffffffffffffffff1681526020019081526020015f20541015611d50575f600f5f8c73ffffffffffffffffffffffffffffffffffffffff1673ffffffffffffffffffffffffffffffffffffffff1681526020019081526020015f20819055505b50505b5050505050505050565b5f820315611fa8576001600d60146101000a81548160ff0219169083151502179055505f600267ffffffffffffffff811115611d9c57611d9b61249b565b5b604051908082528060200260200182016040528015611dca5781602001602082028036833780820191505090505b50905030815f81518110611de157611de0612783565b5b602002602001019073ffffffffffffffffffffffffffffffffffffffff16908173ffffffffffffffffffffffffffffffffffffffff1681525050600d5f9054906101000a900473ffffffffffffffffffffffffffffffffffffffff1681600181518110611e5157611e50612783565b5b602002602001019073ffffffffffffffffffffffffffffffffffffffff16908173ffffffffffffffffffffffffffffffffffffffff1681525050611eb73060065f9054906101000a900473ffffffffffffffffffffffffffffffffffffffff1685610faf565b60065f9054906101000a900473ffffffffffffffffffffffffffffffffffffffff1673ffffffffffffffffffffffffffffffffffffffff16635c11d795845f8486601e42611f059190612a7f565b6040518663ffffffff1660e01b8152600401611f25959493929190612aeb565b5f604051808303815f87803b158015611f3c575f5ffd5b505af1925050508015611f4d575060015b15611f8c577faedb4dc54dc30d46d331ffcc44cd836607bea96c12e1b21a95210ed899184d048284604051611f83929190612b43565b60405180910390a15b5f600d60146101000a81548160ff021916908315150217905550505b5050565b60065f9054906101000a900473ffffffffffffffffffffffffffffffffffffffff1673ffffffffffffffffffffffffffffffffffffffff168273ffffffffffffffffffffffffffffffffffffffff1614806120535750600c5f9054906101000a900473ffffffffffffffffffffffffffffffffffffffff1673ffffffffffffffffffffffffffffffffffffffff168273ffffffffffffffffffffffffffffffffffffffff16145b6120da575f612060610aaa565b90505f670de0b6b3a7640000838361207891906126e5565b6120829190612753565b905080600f5f8673ffffffffffffffffffffffffffffffffffffffff1673ffffffffffffffffffffffffffffffffffffffff1681526020019081526020015f205f8282546120d09190612a7f565b9250508190555050505b5050565b5f81519050919050565b5f82825260208201905092915050565b8281835e5f83830152505050565b5f601f19601f8301169050919050565b5f612120826120de565b61212a81856120e8565b935061213a8185602086016120f8565b61214381612106565b840191505092915050565b5f6020820190508181035f8301526121668184612116565b905092915050565b5f604051905090565b5f5ffd5b5f5ffd5b5f73ffffffffffffffffffffffffffffffffffffffff82169050919050565b5f6121a88261217f565b9050919050565b6121b88161219e565b81146121c2575f5ffd5b50565b5f813590506121d3816121af565b92915050565b5f602082840312156121ee576121ed612177565b5b5f6121fb848285016121c5565b91505092915050565b5f819050919050565b61221681612204565b82525050565b5f60208201905061222f5f83018461220d565b92915050565b61223e81612204565b8114612248575f5ffd5b50565b5f8135905061225981612235565b92915050565b5f5f6040838503121561227557612274612177565b5b5f612282858286016121c5565b92505060206122938582860161224b565b9150509250929050565b5f8115159050919050565b6122b18161229d565b82525050565b5f6020820190506122ca5f8301846122a8565b92915050565b5f5f5f606084860312156122e7576122e6612177565b5b5f6122f4868287016121c5565b9350506020612305868287016121c5565b92505060406123168682870161224b565b9150509250925092565b6123298161219e565b82525050565b5f6020820190506123425f830184612320565b92915050565b5f5f6040838503121561235e5761235d612177565b5b5f61236b8582860161224b565b925050602061237c8582860161224b565b9150509250929050565b5f60ff82169050919050565b61239b81612386565b82525050565b5f6020820190506123b45f830184612392565b92915050565b5f602082840312156123cf576123ce612177565b5b5f6123dc8482850161224b565b91505092915050565b5f819050919050565b5f6124086124036123fe8461217f565b6123e5565b61217f565b9050919050565b5f612419826123ee565b9050919050565b5f61242a8261240f565b9050919050565b61243a81612420565b82525050565b5f6020820190506124535f830184612431565b92915050565b5f5f6040838503121561246f5761246e612177565b5b5f61247c858286016121c5565b925050602061248d858286016121c5565b9150509250929050565b5f5ffd5b7f4e487b71000000000000000000000000000000000000000000000000000000005f52604160045260245ffd5b6124d182612106565b810181811067ffffffffffffffff821117156124f0576124ef61249b565b5b80604052505050565b5f61250261216e565b905061250e82826124c8565b919050565b5f67ffffffffffffffff82111561252d5761252c61249b565b5b602082029050602081019050919050565b5f5ffd5b5f61255461254f84612513565b6124f9565b905080838252602082019050602084028301858111156125775761257661253e565b5b835b818110156125a0578061258c88826121c5565b845260208401935050602081019050612579565b5050509392505050565b5f82601f8301126125be576125bd612497565b5b81356125ce848260208601612542565b91505092915050565b6125e08161229d565b81146125ea575f5ffd5b50565b5f813590506125fb816125d7565b92915050565b5f5f6040838503121561261757612616612177565b5b5f83013567ffffffffffffffff8111156126345761263361217b565b5b612640858286016125aa565b9250506020612651858286016125ed565b9150509250929050565b7f4e487b71000000000000000000000000000000000000000000000000000000005f52602260045260245ffd5b5f600282049050600182168061269f57607f821691505b6020821081036126b2576126b161265b565b5b50919050565b7f4e487b71000000000000000000000000000000000000000000000000000000005f52601160045260245ffd5b5f6126ef82612204565b91506126fa83612204565b925082820261270881612204565b9150828204841483151761271f5761271e6126b8565b5b5092915050565b7f4e487b71000000000000000000000000000000000000000000000000000000005f52601260045260245ffd5b5f61275d82612204565b915061276883612204565b92508261277857612777612726565b5b828204905092915050565b7f4e487b71000000000000000000000000000000000000000000000000000000005f52603260045260245ffd5b5f81519050919050565b5f82825260208201905092915050565b5f819050602082019050919050565b6127e28161219e565b82525050565b5f6127f383836127d9565b60208301905092915050565b5f602082019050919050565b5f612815826127b0565b61281f81856127ba565b935061282a836127ca565b805f5b8381101561285a57815161284188826127e8565b975061284c836127ff565b92505060018101905061282d565b5085935050505092915050565b5f60408201905061287a5f83018561220d565b818103602083015261288c818461280b565b90509392505050565b5f67ffffffffffffffff8211156128af576128ae61249b565b5b602082029050602081019050919050565b5f815190506128ce81612235565b92915050565b5f6128e66128e184612895565b6124f9565b905080838252602082019050602084028301858111156129095761290861253e565b5b835b81811015612932578061291e88826128c0565b84526020840193505060208101905061290b565b5050509392505050565b5f82601f8301126129505761294f612497565b5b81516129608482602086016128d4565b91505092915050565b5f6020828403121561297e5761297d612177565b5b5f82015167ffffffffffffffff81111561299b5761299a61217b565b5b6129a78482850161293c565b91505092915050565b5f819050919050565b5f6129d36129ce6129c9846129b0565b6123e5565b612204565b9050919050565b6129e3816129b9565b82525050565b5f6040820190506129fc5f8301856129da565b8181036020830152612a0e818461280b565b90509392505050565b5f612a2182612204565b9150612a2c83612204565b9250828203905081811115612a4457612a436126b8565b5b92915050565b5f606082019050612a5d5f830186612320565b612a6a602083018561220d565b612a77604083018461220d565b949350505050565b5f612a8982612204565b9150612a9483612204565b9250828201905080821115612aac57612aab6126b8565b5b92915050565b5f819050919050565b5f612ad5612ad0612acb84612ab2565b6123e5565b612204565b9050919050565b612ae581612abb565b82525050565b5f60a082019050612afe5f83018861220d565b612b0b6020830187612adc565b8181036040830152612b1d818661280b565b9050612b2c6060830185612320565b612b39608083018461220d565b9695505050505050565b5f604082019050612b565f830185612320565b612b63602083018461220d565b939250505056fea2646970667358221220be9a3f3113b4fb2b550c3a396a50eabc16bc4e8f9cb99ce7f11ceb91c5ae213d64736f6c634300081e0033","linkReferences":{}},"methodIdentifiers":{"PROFIT_TAX_RATE()":"53941346","USDT()":"c54e44eb","allowance(address,address)":"dd62ed3e","allowlist(address)":"a7cd52cb","approve(address,uint256)":"095ea7b3","averagePriceOf(address)":"088878b5","balanceOf(address)":"70a08231","buyFee()":"47062402","buy_tax_rate()":"6e620c45","currentPrice()":"9d1b464a","decimals()":"313ce567","getAmountOut(uint256)":"5c195217","getProfitTaxToken(address,uint256)":"c1d960ae","name()":"06fdde03","owner()":"8da5cb5b","pancakePair()":"b8c9d25c","pancakeRouter()":"c21ebd07","profitFee()":"f90766a6","renounceOwnership()":"715018a6","sellFee()":"2b14ca56","sell_tax_rate()":"a1f97050","setAllowlist(address[],bool)":"f01fe7c4","setTaxRate(uint256,uint256)":"2beb8159","symbol()":"95d89b41","totalCostUsdt(address)":"60d1d4a4","totalSupply()":"18160ddd","transfer(address,uint256)":"a9059cbb","transferFrom(address,address,uint256)":"23b872dd","transferOwnership(address)":"f2fde38b"},"id":43}