{"abi":[{"type":"constructor","inputs":[{"name":"addrs","type":"address[4]","internalType":"address[4]"},{"name":"_sellFee","type":"address","internalType":"address"},{"name":"_buyFee","type":"address","internalType":"address"},{"name":"_profitFee","type":"address","internalType":"address"}],"stateMutability":"nonpayable"},{"type":"function","name":"PROFIT_TAX_RATE","inputs":[],"outputs":[{"name":"","type":"uint256","internalType":"uint256"}],"stateMutability":"view"},{"type":"function","name":"USDT","inputs":[],"outputs":[{"name":"","type":"address","internalType":"address"}],"stateMutability":"view"},{"type":"function","name":"allowance","inputs":[{"name":"owner","type":"address","internalType":"address"},{"name":"spender","type":"address","internalType":"address"}],"outputs":[{"name":"","type":"uint256","internalType":"uint256"}],"stateMutability":"view"},{"type":"function","name":"allowlist","inputs":[{"name":"","type":"address","internalType":"address"}],"outputs":[{"name":"","type":"bool","internalType":"bool"}],"stateMutability":"view"},{"type":"function","name":"approve","inputs":[{"name":"spender","type":"address","internalType":"address"},{"name":"value","type":"uint256","internalType":"uint256"}],"outputs":[{"name":"","type":"bool","internalType":"bool"}],"stateMutability":"nonpayable"},{"type":"function","name":"averagePriceOf","inputs":[{"name":"user","type":"address","internalType":"address"}],"outputs":[{"name":"","type":"uint256","internalType":"uint256"}],"stateMutability":"view"},{"type":"function","name":"balanceOf","inputs":[{"name":"account","type":"address","internalType":"address"}],"outputs":[{"name":"","type":"uint256","internalType":"uint256"}],"stateMutability":"view"},{"type":"function","name":"buyFee","inputs":[],"outputs":[{"name":"","type":"address","internalType":"address"}],"stateMutability":"view"},{"type":"function","name":"buy_tax_rate","inputs":[],"outputs":[{"name":"","type":"uint256","internalType":"uint256"}],"stateMutability":"view"},{"type":"function","name":"currentPrice","inputs":[],"outputs":[{"name":"","type":"uint256","internalType":"uint256"}],"stateMutability":"view"},{"type":"function","name":"decimals","inputs":[],"outputs":[{"name":"","type":"uint8","internalType":"uint8"}],"stateMutability":"view"},{"type":"function","name":"getAmountOut","inputs":[{"name":"amountToken","type":"uint256","internalType":"uint256"}],"outputs":[{"name":"","type":"uint256","internalType":"uint256"}],"stateMutability":"view"},{"type":"function","name":"getProfitTaxToken","inputs":[{"name":"from","type":"address","internalType":"address"},{"name":"amountToken","type":"uint256","internalType":"uint256"}],"outputs":[{"name":"taxToken","type":"uint256","internalType":"uint256"}],"stateMutability":"view"},{"type":"function","name":"name","inputs":[],"outputs":[{"name":"","type":"string","internalType":"string"}],"stateMutability":"view"},{"type":"function","name":"owner","inputs":[],"outputs":[{"name":"","type":"address","internalType":"address"}],"stateMutability":"view"},{"type":"function","name":"pancakePair","inputs":[],"outputs":[{"name":"","type":"address","internalType":"address"}],"stateMutability":"view"},{"type":"function","name":"pancakeRouter","inputs":[],"outputs":[{"name":"","type":"address","internalType":"contract IUniswapV2Router02"}],"stateMutability":"view"},{"type":"function","name":"profitFee","inputs":[],"outputs":[{"name":"","type":"address","internalType":"address"}],"stateMutability":"view"},{"type":"function","name":"renounceOwnership","inputs":[],"outputs":[],"stateMutability":"nonpayable"},{"type":"function","name":"sellFee","inputs":[],"outputs":[{"name":"","type":"address","internalType":"address"}],"stateMutability":"view"},{"type":"function","name":"sell_tax_rate","inputs":[],"outputs":[{"name":"","type":"uint256","internalType":"uint256"}],"stateMutability":"view"},{"type":"function","name":"setAllowlist","inputs":[{"name":"addrs","type":"address[]","internalType":"address[]"},{"name":"isAllow","type":"bool","internalType":"bool"}],"outputs":[],"stateMutability":"nonpayable"},{"type":"function","name":"setTaxRate","inputs":[{"name":"_buyRate","type":"uint256","internalType":"uint256"},{"name":"_sellRate","type":"uint256","internalType":"uint256"}],"outputs":[],"stateMutability":"nonpayable"},{"type":"function","name":"symbol","inputs":[],"outputs":[{"name":"","type":"string","internalType":"string"}],"stateMutability":"view"},{"type":"function","name":"totalCostUsdt","inputs":[{"name":"","type":"address","internalType":"address"}],"outputs":[{"name":"","type":"uint256","internalType":"uint256"}],"stateMutability":"view"},{"type":"function","name":"totalSupply","inputs":[],"outputs":[{"name":"","type":"uint256","internalType":"uint256"}],"stateMutability":"view"},{"type":"function","name":"transfer","inputs":[{"name":"to","type":"address","internalType":"address"},{"name":"value","type":"uint256","internalType":"uint256"}],"outputs":[{"name":"","type":"bool","internalType":"bool"}],"stateMutability":"nonpayable"},{"type":"function","name":"transferFrom","inputs":[{"name":"from","type":"address","internalType":"address"},{"name":"to","type":"address","internalType":"address"},{"name":"value","type":"uint256","internalType":"uint256"}],"outputs":[{"name":"","type":"bool","internalType":"bool"}],"stateMutability":"nonpayable"},{"type":"function","name":"transferOwnership","inputs":[{"name":"newOwner","type":"address","internalType":"address"}],"outputs":[],"stateMutability":"nonpayable"},{"type":"event","name":"Approval","inputs":[{"name":"owner","type":"address","indexed":true,"internalType":"address"},{"name":"spender","type":"address","indexed":true,"internalType":"address"},{"name":"value","type":"uint256","indexed":false,"internalType":"uint256"}],"anonymous":false},{"type":"event","name":"OwnershipTransferred","inputs":[{"name":"previousOwner","type":"address","indexed":true,"internalType":"address"},{"name":"newOwner","type":"address","indexed":true,"internalType":"address"}],"anonymous":false},{"type":"event","name":"SwapAndSendTax","inputs":[{"name":"recipient","type":"address","indexed":false,"internalType":"address"},{"name":"tokensSwapped","type":"uint256","indexed":false,"internalType":"uint256"}],"anonymous":false},{"type":"event","name":"Transfer","inputs":[{"name":"from","type":"address","indexed":true,"internalType":"address"},{"name":"to","type":"address","indexed":true,"internalType":"address"},{"name":"value","type":"uint256","indexed":false,"internalType":"uint256"}],"anonymous":false},{"type":"error","name":"ERC20InsufficientAllowance","inputs":[{"name":"spender","type":"address","internalType":"address"},{"name":"allowance","type":"uint256","internalType":"uint256"},{"name":"needed","type":"uint256","internalType":"uint256"}]},{"type":"error","name":"ERC20InsufficientBalance","inputs":[{"name":"sender","type":"address","internalType":"address"},{"name":"balance","type":"uint256","internalType":"uint256"},{"name":"needed","type":"uint256","internalType":"uint256"}]},{"type":"error","name":"ERC20InvalidApprover","inputs":[{"name":"approver","type":"address","internalType":"address"}]},{"type":"error","name":"ERC20InvalidReceiver","inputs":[{"name":"receiver","type":"address","internalType":"address"}]},{"type":"error","name":"ERC20InvalidSender","inputs":[{"name":"sender","type":"address","internalType":"address"}]},{"type":"error","name":"ERC20InvalidSpender","inputs":[{"name":"spender","type":"address","internalType":"address"}]},{"type":"error","name":"OwnableInvalidOwner","inputs":[{"name":"owner","type":"address","internalType":"address"}]},{"type":"error","name":"OwnableUnauthorizedAccount","inputs":[{"name":"account","type":"address","internalType":"address"}]}],"bytecode":{"object":"0x60806040527310ed43c718714eb63d5aa57b78b54704e256024e60065f6101000a81548173ffffffffffffffffffffffffffffffffffffffff021916908373ffffffffffffffffffffffffffffffffffffffff1602179055506003600755600360085534801561006d575f5ffd5b50604051614f28380380614f28833981810160405281019061008f9190611b30565b336040518060400160405280600481526020017f444a5343000000000000000000000000000000000000000000000000000000008152506040518060400160405280600481526020017f444a534300000000000000000000000000000000000000000000000000000000815250816003908161010b9190611da4565b50806004908161011b9190611da4565b5050505f73ffffffffffffffffffffffffffffffffffffffff168173ffffffffffffffffffffffffffffffffffffffff160361018e575f6040517f1e4fbdf70000000000000000000000000000000000000000000000000000000081526004016101859190611e82565b60405180910390fd5b61019d816104d060201b60201c565b506101ad8461059360201b60201c565b60065f9054906101000a900473ffffffffffffffffffffffffffffffffffffffff1673ffffffffffffffffffffffffffffffffffffffff1663c45a01556040518163ffffffff1660e01b8152600401602060405180830381865afa158015610217573d5f5f3e3d5ffd5b505050506040513d601f19601f8201168201806040525081019061023b9190611e9b565b73ffffffffffffffffffffffffffffffffffffffff1663c9c6539630733c83065b83a8fd66587f330845f4603f7c49275c6040518363ffffffff1660e01b8152600401610289929190611ec6565b6020604051808303815f875af11580156102a5573d5f5f3e3d5ffd5b505050506040513d601f19601f820116820180604052508101906102c99190611e9b565b600c5f6101000a81548173ffffffffffffffffffffffffffffffffffffffff021916908373ffffffffffffffffffffffffffffffffffffffff1602179055508260095f6101000a81548173ffffffffffffffffffffffffffffffffffffffff021916908373ffffffffffffffffffffffffffffffffffffffff16021790555081600a5f6101000a81548173ffffffffffffffffffffffffffffffffffffffff021916908373ffffffffffffffffffffffffffffffffffffffff16021790555080600b5f6101000a81548173ffffffffffffffffffffffffffffffffffffffff021916908373ffffffffffffffffffffffffffffffffffffffff1602179055506001600d5f8573ffffffffffffffffffffffffffffffffffffffff1673ffffffffffffffffffffffffffffffffffffffff1681526020019081526020015f205f6101000a81548160ff0219169083151502179055506001600d5f8473ffffffffffffffffffffffffffffffffffffffff1673ffffffffffffffffffffffffffffffffffffffff1681526020019081526020015f205f6101000a81548160ff0219169083151502179055506001600d5f8373ffffffffffffffffffffffffffffffffffffffff1673ffffffffffffffffffffffffffffffffffffffff1681526020019081526020015f205f6101000a81548160ff021916908315150217905550505050506123af565b5f60055f9054906101000a900473ffffffffffffffffffffffffffffffffffffffff1690508160055f6101000a81548173ffffffffffffffffffffffffffffffffffffffff021916908373ffffffffffffffffffffffffffffffffffffffff1602179055508173ffffffffffffffffffffffffffffffffffffffff168173ffffffffffffffffffffffffffffffffffffffff167f8be0079c531659141344cd1fd0a4f28419497f9722a3daafe3b4186f6b6457e060405160405180910390a35050565b5f6040518060800160405280670de0b6b3a7640000622dc6c06105b69190611f1a565b8152602001670de0b6b3a7640000623d09006105d29190611f1a565b8152602001670de0b6b3a7640000622dc6c06105ee9190611f1a565b8152602001670de0b6b3a764000063055d4a8061060b9190611f1a565b81525090505f5f90505b60048110156106d55761065c83826004811061063457610633611f5b565b5b602002015183836004811061064c5761064b611f5b565b5b60200201516106da60201b60201c565b6001600d5f85846004811061067457610673611f5b565b5b602002015173ffffffffffffffffffffffffffffffffffffffff1673ffffffffffffffffffffffffffffffffffffffff1681526020019081526020015f205f6101000a81548160ff0219169083151502179055508080600101915050610615565b505050565b5f73ffffffffffffffffffffffffffffffffffffffff168273ffffffffffffffffffffffffffffffffffffffff160361074a575f6040517fec442f050000000000000000000000000000000000000000000000000000000081526004016107419190611e82565b60405180910390fd5b61075b5f838361075f60201b60201c565b5050565b600c60149054906101000a900460ff16806107a557505f73ffffffffffffffffffffffffffffffffffffffff168373ffffffffffffffffffffffffffffffffffffffff16145b806107db57505f73ffffffffffffffffffffffffffffffffffffffff168273ffffffffffffffffffffffffffffffffffffffff16145b8061082c5750600d5f8473ffffffffffffffffffffffffffffffffffffffff1673ffffffffffffffffffffffffffffffffffffffff1681526020019081526020015f205f9054906101000a900460ff165b8061087d5750600d5f8373ffffffffffffffffffffffffffffffffffffffff1673ffffffffffffffffffffffffffffffffffffffff1681526020019081526020015f205f9054906101000a900460ff165b1561089857610893838383610b8f60201b60201c565b610b8a565b5f600c5f9054906101000a900473ffffffffffffffffffffffffffffffffffffffff1673ffffffffffffffffffffffffffffffffffffffff168473ffffffffffffffffffffffffffffffffffffffff161490505f600c5f9054906101000a900473ffffffffffffffffffffffffffffffffffffffff1673ffffffffffffffffffffffffffffffffffffffff168473ffffffffffffffffffffffffffffffffffffffff16149050811561095c57610955858585610da860201b60201c565b5050610b8a565b801561097a57610973858585610e3160201b60201c565b5050610b8a565b5f61098a306110cb60201b60201c565b90505f8111156109c6576109c581600a5f9054906101000a900473ffffffffffffffffffffffffffffffffffffffff1661111060201b60201c565b5b5f6109d6876110cb60201b60201c565b90505f600e5f8973ffffffffffffffffffffffffffffffffffffffff1673ffffffffffffffffffffffffffffffffffffffff1681526020019081526020015f20549050610a2a888888610b8f60201b60201c565b5f81118015610a3857505f82115b15610b84575f828783610a4b9190611f1a565b610a559190611fb5565b90508082610a639190611fe5565b600e5f8b73ffffffffffffffffffffffffffffffffffffffff1673ffffffffffffffffffffffffffffffffffffffff1681526020019081526020015f2081905550620f4240600e5f8b73ffffffffffffffffffffffffffffffffffffffff1673ffffffffffffffffffffffffffffffffffffffff1681526020019081526020015f20541015610b2f575f600e5f8b73ffffffffffffffffffffffffffffffffffffffff1673ffffffffffffffffffffffffffffffffffffffff1681526020019081526020015f20819055505b80600e5f8a73ffffffffffffffffffffffffffffffffffffffff1673ffffffffffffffffffffffffffffffffffffffff1681526020019081526020015f205f828254610b7b9190612018565b92505081905550505b50505050505b505050565b5f73ffffffffffffffffffffffffffffffffffffffff168373ffffffffffffffffffffffffffffffffffffffff1603610bdf578060025f828254610bd39190612018565b92505081905550610cad565b5f5f5f8573ffffffffffffffffffffffffffffffffffffffff1673ffffffffffffffffffffffffffffffffffffffff1681526020019081526020015f2054905081811015610c68578381836040517fe450d38c000000000000000000000000000000000000000000000000000000008152600401610c5f9392919061205a565b60405180910390fd5b8181035f5f8673ffffffffffffffffffffffffffffffffffffffff1673ffffffffffffffffffffffffffffffffffffffff1681526020019081526020015f2081905550505b5f73ffffffffffffffffffffffffffffffffffffffff168273ffffffffffffffffffffffffffffffffffffffff1603610cf4578060025f8282540392505081905550610d3e565b805f5f8473ffffffffffffffffffffffffffffffffffffffff1673ffffffffffffffffffffffffffffffffffffffff1681526020019081526020015f205f82825401925050819055505b8173ffffffffffffffffffffffffffffffffffffffff168373ffffffffffffffffffffffffffffffffffffffff167fddf252ad1be2c89b69c2b068fc378daa952ba7f163c4a11628f55a4df523b3ef83604051610d9b919061208f565b60405180910390a3505050565b5f606460085483610db99190611f1a565b610dc39190611fb5565b90505f8183610dd29190611fe5565b9050610e08846103e8601986610de89190611f1a565b610df29190611fb5565b85610dfd9190612018565b61135860201b60201c565b610e19853084610b8f60201b60201c565b610e2a858583610b8f60201b60201c565b5050505050565b5f610e41846110cb60201b60201c565b90505f606460075484610e549190611f1a565b610e5e9190611fb5565b90505f8184610e6d9190611fe5565b90505f610e80878361149060201b60201c565b90505f811115610ecd57610e9b873083610b8f60201b60201c565b610ecc81600b5f9054906101000a900473ffffffffffffffffffffffffffffffffffffffff1661111060201b60201c565b5b610ede873085610b8f60201b60201c565b610f0f8360095f9054906101000a900473ffffffffffffffffffffffffffffffffffffffff1661111060201b60201c565b610f2b87878385610f209190611fe5565b610b8f60201b60201c565b5f610f3b886110cb60201b60201c565b90505f8103610f8b575f600e5f8a73ffffffffffffffffffffffffffffffffffffffff1673ffffffffffffffffffffffffffffffffffffffff1681526020019081526020015f20819055506110c1565b5f600e5f8a73ffffffffffffffffffffffffffffffffffffffff1673ffffffffffffffffffffffffffffffffffffffff1681526020019081526020015f205490505f868883610fda9190611f1a565b610fe49190611fb5565b90508082610ff29190611fe5565b600e5f8c73ffffffffffffffffffffffffffffffffffffffff1673ffffffffffffffffffffffffffffffffffffffff1681526020019081526020015f2081905550620f4240600e5f8c73ffffffffffffffffffffffffffffffffffffffff1673ffffffffffffffffffffffffffffffffffffffff1681526020019081526020015f205410156110be575f600e5f8c73ffffffffffffffffffffffffffffffffffffffff1673ffffffffffffffffffffffffffffffffffffffff1681526020019081526020015f20819055505b50505b5050505050505050565b5f5f5f8373ffffffffffffffffffffffffffffffffffffffff1673ffffffffffffffffffffffffffffffffffffffff1681526020019081526020015f20549050919050565b5f820315611354576001600c60146101000a81548160ff0219169083151502179055505f600267ffffffffffffffff81111561114f5761114e6119ac565b5b60405190808252806020026020018201604052801561117d5781602001602082028036833780820191505090505b50905030815f8151811061119457611193611f5b565b5b602002602001019073ffffffffffffffffffffffffffffffffffffffff16908173ffffffffffffffffffffffffffffffffffffffff1681525050733c83065b83a8fd66587f330845f4603f7c49275c816001815181106111f7576111f6611f5b565b5b602002602001019073ffffffffffffffffffffffffffffffffffffffff16908173ffffffffffffffffffffffffffffffffffffffff16815250506112633060065f9054906101000a900473ffffffffffffffffffffffffffffffffffffffff168561155260201b60201c565b60065f9054906101000a900473ffffffffffffffffffffffffffffffffffffffff1673ffffffffffffffffffffffffffffffffffffffff16635c11d795845f8486601e426112b19190612018565b6040518663ffffffff1660e01b81526004016112d1959493929190612198565b5f604051808303815f87803b1580156112e8575f5ffd5b505af19250505080156112f9575060015b15611338577faedb4dc54dc30d46d331ffcc44cd836607bea96c12e1b21a95210ed899184d04828460405161132f9291906121f0565b60405180910390a15b5f600c60146101000a81548160ff021916908315150217905550505b5050565b60065f9054906101000a900473ffffffffffffffffffffffffffffffffffffffff1673ffffffffffffffffffffffffffffffffffffffff168273ffffffffffffffffffffffffffffffffffffffff1614806113ff5750600c5f9054906101000a900473ffffffffffffffffffffffffffffffffffffffff1673ffffffffffffffffffffffffffffffffffffffff168273ffffffffffffffffffffffffffffffffffffffff16145b61148c575f61141261156a60201b60201c565b90505f670de0b6b3a7640000838361142a9190611f1a565b6114349190611fb5565b905080600e5f8673ffffffffffffffffffffffffffffffffffffffff1673ffffffffffffffffffffffffffffffffffffffff1681526020019081526020015f205f8282546114829190612018565b9250508190555050505b5050565b5f5f82036114a0575f905061154c565b5f6114b08461173060201b60201c565b90505f81036114c2575f91505061154c565b5f6114d161156a60201b60201c565b90508181116114e4575f9250505061154c565b5f8183836114f29190611fe5565b866114fd9190611f1a565b6115079190611fb5565b90506064600a826115189190611f1a565b6115229190611fb5565b935084841115611548576064600a8661153b9190611f1a565b6115459190611fb5565b93505b5050505b92915050565b61156583838360016117b860201b60201c565b505050565b5f5f600267ffffffffffffffff811115611587576115866119ac565b5b6040519080825280602002602001820160405280156115b55781602001602082028036833780820191505090505b50905030815f815181106115cc576115cb611f5b565b5b602002602001019073ffffffffffffffffffffffffffffffffffffffff16908173ffffffffffffffffffffffffffffffffffffffff1681525050733c83065b83a8fd66587f330845f4603f7c49275c8160018151811061162f5761162e611f5b565b5b602002602001019073ffffffffffffffffffffffffffffffffffffffff16908173ffffffffffffffffffffffffffffffffffffffff168152505060065f9054906101000a900473ffffffffffffffffffffffffffffffffffffffff1673ffffffffffffffffffffffffffffffffffffffff1663d06ca61f670de0b6b3a7640000836040518363ffffffff1660e01b81526004016116cd929190612250565b5f60405180830381865afa1580156116e7573d5f5f3e3d5ffd5b505050506040513d5f823e3d601f19601f8201168201806040525081019061170f9190612368565b60018151811061172257611721611f5b565b5b602002602001015191505090565b5f5f611741836110cb60201b60201c565b90505f8103611753575f9150506117b3565b80670de0b6b3a7640000600e5f8673ffffffffffffffffffffffffffffffffffffffff1673ffffffffffffffffffffffffffffffffffffffff1681526020019081526020015f20546117a59190611f1a565b6117af9190611fb5565b9150505b919050565b5f73ffffffffffffffffffffffffffffffffffffffff168473ffffffffffffffffffffffffffffffffffffffff1603611828575f6040517fe602df0500000000000000000000000000000000000000000000000000000000815260040161181f9190611e82565b60405180910390fd5b5f73ffffffffffffffffffffffffffffffffffffffff168373ffffffffffffffffffffffffffffffffffffffff1603611898575f6040517f94280d6200000000000000000000000000000000000000000000000000000000815260040161188f9190611e82565b60405180910390fd5b8160015f8673ffffffffffffffffffffffffffffffffffffffff1673ffffffffffffffffffffffffffffffffffffffff1681526020019081526020015f205f8573ffffffffffffffffffffffffffffffffffffffff1673ffffffffffffffffffffffffffffffffffffffff1681526020019081526020015f20819055508015611981578273ffffffffffffffffffffffffffffffffffffffff168473ffffffffffffffffffffffffffffffffffffffff167f8c5be1e5ebec7d5bd14f71427d1e84f3dd0314c0f7b2291e5b200ac8c7c3b92584604051611978919061208f565b60405180910390a35b50505050565b5f604051905090565b5f5ffd5b5f5ffd5b5f5ffd5b5f601f19601f8301169050919050565b7f4e487b71000000000000000000000000000000000000000000000000000000005f52604160045260245ffd5b6119e28261199c565b810181811067ffffffffffffffff82111715611a0157611a006119ac565b5b80604052505050565b5f611a13611987565b9050611a1f82826119d9565b919050565b5f67ffffffffffffffff821115611a3e57611a3d6119ac565b5b602082029050919050565b5f5ffd5b5f73ffffffffffffffffffffffffffffffffffffffff82169050919050565b5f611a7682611a4d565b9050919050565b611a8681611a6c565b8114611a90575f5ffd5b50565b5f81519050611aa181611a7d565b92915050565b5f611ab9611ab484611a24565b611a0a565b90508060208402830185811115611ad357611ad2611a49565b5b835b81811015611afc5780611ae88882611a93565b845260208401935050602081019050611ad5565b5050509392505050565b5f82601f830112611b1a57611b19611998565b5b6004611b27848285611aa7565b91505092915050565b5f5f5f5f60e08587031215611b4857611b47611990565b5b5f611b5587828801611b06565b9450506080611b6687828801611a93565b93505060a0611b7787828801611a93565b92505060c0611b8887828801611a93565b91505092959194509250565b5f81519050919050565b7f4e487b71000000000000000000000000000000000000000000000000000000005f52602260045260245ffd5b5f6002820490506001821680611be257607f821691505b602082108103611bf557611bf4611b9e565b5b50919050565b5f819050815f5260205f209050919050565b5f6020601f8301049050919050565b5f82821b905092915050565b5f60088302611c577fffffffffffffffffffffffffffffffffffffffffffffffffffffffffffffffff82611c1c565b611c618683611c1c565b95508019841693508086168417925050509392505050565b5f819050919050565b5f819050919050565b5f611ca5611ca0611c9b84611c79565b611c82565b611c79565b9050919050565b5f819050919050565b611cbe83611c8b565b611cd2611cca82611cac565b848454611c28565b825550505050565b5f5f905090565b611ce9611cda565b611cf4818484611cb5565b505050565b5b81811015611d1757611d0c5f82611ce1565b600181019050611cfa565b5050565b601f821115611d5c57611d2d81611bfb565b611d3684611c0d565b81016020851015611d45578190505b611d59611d5185611c0d565b830182611cf9565b50505b505050565b5f82821c905092915050565b5f611d7c5f1984600802611d61565b1980831691505092915050565b5f611d948383611d6d565b9150826002028217905092915050565b611dad82611b94565b67ffffffffffffffff811115611dc657611dc56119ac565b5b611dd08254611bcb565b611ddb828285611d1b565b5f60209050601f831160018114611e0c575f8415611dfa578287015190505b611e048582611d89565b865550611e6b565b601f198416611e1a86611bfb565b5f5b82811015611e4157848901518255600182019150602085019450602081019050611e1c565b86831015611e5e5784890151611e5a601f891682611d6d565b8355505b6001600288020188555050505b505050505050565b611e7c81611a6c565b82525050565b5f602082019050611e955f830184611e73565b92915050565b5f60208284031215611eb057611eaf611990565b5b5f611ebd84828501611a93565b91505092915050565b5f604082019050611ed95f830185611e73565b611ee66020830184611e73565b9392505050565b7f4e487b71000000000000000000000000000000000000000000000000000000005f52601160045260245ffd5b5f611f2482611c79565b9150611f2f83611c79565b9250828202611f3d81611c79565b91508282048414831517611f5457611f53611eed565b5b5092915050565b7f4e487b71000000000000000000000000000000000000000000000000000000005f52603260045260245ffd5b7f4e487b71000000000000000000000000000000000000000000000000000000005f52601260045260245ffd5b5f611fbf82611c79565b9150611fca83611c79565b925082611fda57611fd9611f88565b5b828204905092915050565b5f611fef82611c79565b9150611ffa83611c79565b925082820390508181111561201257612011611eed565b5b92915050565b5f61202282611c79565b915061202d83611c79565b925082820190508082111561204557612044611eed565b5b92915050565b61205481611c79565b82525050565b5f60608201905061206d5f830186611e73565b61207a602083018561204b565b612087604083018461204b565b949350505050565b5f6020820190506120a25f83018461204b565b92915050565b5f819050919050565b5f6120cb6120c66120c1846120a8565b611c82565b611c79565b9050919050565b6120db816120b1565b82525050565b5f81519050919050565b5f82825260208201905092915050565b5f819050602082019050919050565b61211381611a6c565b82525050565b5f612124838361210a565b60208301905092915050565b5f602082019050919050565b5f612146826120e1565b61215081856120eb565b935061215b836120fb565b805f5b8381101561218b5781516121728882612119565b975061217d83612130565b92505060018101905061215e565b5085935050505092915050565b5f60a0820190506121ab5f83018861204b565b6121b860208301876120d2565b81810360408301526121ca818661213c565b90506121d96060830185611e73565b6121e6608083018461204b565b9695505050505050565b5f6040820190506122035f830185611e73565b612210602083018461204b565b9392505050565b5f819050919050565b5f61223a61223561223084612217565b611c82565b611c79565b9050919050565b61224a81612220565b82525050565b5f6040820190506122635f830185612241565b8181036020830152612275818461213c565b90509392505050565b5f67ffffffffffffffff821115612298576122976119ac565b5b602082029050602081019050919050565b6122b281611c79565b81146122bc575f5ffd5b50565b5f815190506122cd816122a9565b92915050565b5f6122e56122e08461227e565b611a0a565b9050808382526020820190506020840283018581111561230857612307611a49565b5b835b81811015612331578061231d88826122bf565b84526020840193505060208101905061230a565b5050509392505050565b5f82601f83011261234f5761234e611998565b5b815161235f8482602086016122d3565b91505092915050565b5f6020828403121561237d5761237c611990565b5b5f82015167ffffffffffffffff81111561239a57612399611994565b5b6123a68482850161233b565b91505092915050565b612b6c806123bc5f395ff3fe608060405234801561000f575f5ffd5b50600436106101cd575f3560e01c8063715018a611610102578063b8c9d25c116100a0578063dd62ed3e1161006f578063dd62ed3e1461054b578063f01fe7c41461057b578063f2fde38b14610597578063f90766a6146105b3576101cd565b8063b8c9d25c146104c1578063c1d960ae146104df578063c21ebd071461050f578063c54e44eb1461052d576101cd565b80639d1b464a116100dc5780639d1b464a14610425578063a1f9705014610443578063a7cd52cb14610461578063a9059cbb14610491576101cd565b8063715018a6146103df5780638da5cb5b146103e957806395d89b4114610407576101cd565b8063313ce5671161016f5780635c195217116101495780635c1952171461033157806360d1d4a4146103615780636e620c451461039157806370a08231146103af576101cd565b8063313ce567146102d757806347062402146102f55780635394134614610313576101cd565b806318160ddd116101ab57806318160ddd1461024f57806323b872dd1461026d5780632b14ca561461029d5780632beb8159146102bb576101cd565b806306fdde03146101d1578063088878b5146101ef578063095ea7b31461021f575b5f5ffd5b6101d96105d1565b6040516101e6919061211a565b60405180910390f35b610209600480360381019061020491906121a5565b610661565b60405161021691906121e8565b60405180910390f35b6102396004803603810190610234919061222b565b6106e3565b6040516102469190612283565b60405180910390f35b610257610705565b60405161026491906121e8565b60405180910390f35b6102876004803603810190610282919061229c565b61070e565b6040516102949190612283565b60405180910390f35b6102a561073c565b6040516102b291906122fb565b60405180910390f35b6102d560048036038101906102d09190612314565b610761565b005b6102df61077b565b6040516102ec919061236d565b60405180910390f35b6102fd610783565b60405161030a91906122fb565b60405180910390f35b61031b6107a8565b60405161032891906121e8565b60405180910390f35b61034b60048036038101906103469190612386565b6107ad565b60405161035891906121e8565b60405180910390f35b61037b600480360381019061037691906121a5565b610972565b60405161038891906121e8565b60405180910390f35b610399610987565b6040516103a691906121e8565b60405180910390f35b6103c960048036038101906103c491906121a5565b61098d565b6040516103d691906121e8565b60405180910390f35b6103e76109d2565b005b6103f16109e5565b6040516103fe91906122fb565b60405180910390f35b61040f610a0d565b60405161041c919061211a565b60405180910390f35b61042d610a9d565b60405161043a91906121e8565b60405180910390f35b61044b610c63565b60405161045891906121e8565b60405180910390f35b61047b600480360381019061047691906121a5565b610c69565b6040516104889190612283565b60405180910390f35b6104ab60048036038101906104a6919061222b565b610c86565b6040516104b89190612283565b60405180910390f35b6104c9610ca8565b6040516104d691906122fb565b60405180910390f35b6104f960048036038101906104f4919061222b565b610ccd565b60405161050691906121e8565b60405180910390f35b610517610d83565b604051610524919061240c565b60405180910390f35b610535610da8565b60405161054291906122fb565b60405180910390f35b61056560048036038101906105609190612425565b610dc0565b60405161057291906121e8565b60405180910390f35b610595600480360381019061059091906125cd565b610e42565b005b6105b160048036038101906105ac91906121a5565b610ed8565b005b6105bb610f5c565b6040516105c891906122fb565b60405180910390f35b6060600380546105e090612654565b80601f016020809104026020016040519081016040528092919081815260200182805461060c90612654565b80156106575780601f1061062e57610100808354040283529160200191610657565b820191905f5260205f20905b81548152906001019060200180831161063a57829003601f168201915b5050505050905090565b5f5f61066c8361098d565b90505f810361067e575f9150506106de565b80670de0b6b3a7640000600e5f8673ffffffffffffffffffffffffffffffffffffffff1673ffffffffffffffffffffffffffffffffffffffff1681526020019081526020015f20546106d091906126b1565b6106da919061271f565b9150505b919050565b5f5f6106ed610f81565b90506106fa818585610f88565b600191505092915050565b5f600254905090565b5f5f610718610f81565b9050610725858285610f9a565b61073085858561102d565b60019150509392505050565b60095f9054906101000a900473ffffffffffffffffffffffffffffffffffffffff1681565b61076961111d565b81600881905550806007819055505050565b5f6012905090565b600a5f9054906101000a900473ffffffffffffffffffffffffffffffffffffffff1681565b600a81565b5f5f600267ffffffffffffffff8111156107ca576107c9612467565b5b6040519080825280602002602001820160405280156107f85781602001602082028036833780820191505090505b50905030815f8151811061080f5761080e61274f565b5b602002602001019073ffffffffffffffffffffffffffffffffffffffff16908173ffffffffffffffffffffffffffffffffffffffff1681525050733c83065b83a8fd66587f330845f4603f7c49275c816001815181106108725761087161274f565b5b602002602001019073ffffffffffffffffffffffffffffffffffffffff16908173ffffffffffffffffffffffffffffffffffffffff16815250505f60065f9054906101000a900473ffffffffffffffffffffffffffffffffffffffff1673ffffffffffffffffffffffffffffffffffffffff1663d06ca61f85846040518363ffffffff1660e01b8152600401610909929190612833565b5f60405180830381865afa158015610923573d5f5f3e3d5ffd5b505050506040513d5f823e3d601f19601f8201168201806040525081019061094b9190612935565b9050806001815181106109615761096061274f565b5b602002602001015192505050919050565b600e602052805f5260405f205f915090505481565b60085481565b5f5f5f8373ffffffffffffffffffffffffffffffffffffffff1673ffffffffffffffffffffffffffffffffffffffff1681526020019081526020015f20549050919050565b6109da61111d565b6109e35f6111a4565b565b5f60055f9054906101000a900473ffffffffffffffffffffffffffffffffffffffff16905090565b606060048054610a1c90612654565b80601f0160208091040260200160405190810160405280929190818152602001828054610a4890612654565b8015610a935780601f10610a6a57610100808354040283529160200191610a93565b820191905f5260205f20905b815481529060010190602001808311610a7657829003601f168201915b5050505050905090565b5f5f600267ffffffffffffffff811115610aba57610ab9612467565b5b604051908082528060200260200182016040528015610ae85781602001602082028036833780820191505090505b50905030815f81518110610aff57610afe61274f565b5b602002602001019073ffffffffffffffffffffffffffffffffffffffff16908173ffffffffffffffffffffffffffffffffffffffff1681525050733c83065b83a8fd66587f330845f4603f7c49275c81600181518110610b6257610b6161274f565b5b602002602001019073ffffffffffffffffffffffffffffffffffffffff16908173ffffffffffffffffffffffffffffffffffffffff168152505060065f9054906101000a900473ffffffffffffffffffffffffffffffffffffffff1673ffffffffffffffffffffffffffffffffffffffff1663d06ca61f670de0b6b3a7640000836040518363ffffffff1660e01b8152600401610c009291906129b5565b5f60405180830381865afa158015610c1a573d5f5f3e3d5ffd5b505050506040513d5f823e3d601f19601f82011682018060405250810190610c429190612935565b600181518110610c5557610c5461274f565b5b602002602001015191505090565b60075481565b600d602052805f5260405f205f915054906101000a900460ff1681565b5f5f610c90610f81565b9050610c9d81858561102d565b600191505092915050565b600c5f9054906101000a900473ffffffffffffffffffffffffffffffffffffffff1681565b5f5f8203610cdd575f9050610d7d565b5f610ce784610661565b90505f8103610cf9575f915050610d7d565b5f610d02610a9d565b9050818111610d15575f92505050610d7d565b5f818383610d2391906129e3565b86610d2e91906126b1565b610d38919061271f565b90506064600a82610d4991906126b1565b610d53919061271f565b935084841115610d79576064600a86610d6c91906126b1565b610d76919061271f565b93505b5050505b92915050565b60065f9054906101000a900473ffffffffffffffffffffffffffffffffffffffff1681565b733c83065b83a8fd66587f330845f4603f7c49275c81565b5f60015f8473ffffffffffffffffffffffffffffffffffffffff1673ffffffffffffffffffffffffffffffffffffffff1681526020019081526020015f205f8373ffffffffffffffffffffffffffffffffffffffff1673ffffffffffffffffffffffffffffffffffffffff1681526020019081526020015f2054905092915050565b610e4a61111d565b5f5f90505b8251811015610ed35781600d5f858481518110610e6f57610e6e61274f565b5b602002602001015173ffffffffffffffffffffffffffffffffffffffff1673ffffffffffffffffffffffffffffffffffffffff1681526020019081526020015f205f6101000a81548160ff0219169083151502179055508080600101915050610e4f565b505050565b610ee061111d565b5f73ffffffffffffffffffffffffffffffffffffffff168173ffffffffffffffffffffffffffffffffffffffff1603610f50575f6040517f1e4fbdf7000000000000000000000000000000000000000000000000000000008152600401610f4791906122fb565b60405180910390fd5b610f59816111a4565b50565b600b5f9054906101000a900473ffffffffffffffffffffffffffffffffffffffff1681565b5f33905090565b610f958383836001611267565b505050565b5f610fa58484610dc0565b90507fffffffffffffffffffffffffffffffffffffffffffffffffffffffffffffffff8110156110275781811015611018578281836040517ffb8f41b200000000000000000000000000000000000000000000000000000000815260040161100f93929190612a16565b60405180910390fd5b61102684848484035f611267565b5b50505050565b5f73ffffffffffffffffffffffffffffffffffffffff168373ffffffffffffffffffffffffffffffffffffffff160361109d575f6040517f96c6fd1e00000000000000000000000000000000000000000000000000000000815260040161109491906122fb565b60405180910390fd5b5f73ffffffffffffffffffffffffffffffffffffffff168273ffffffffffffffffffffffffffffffffffffffff160361110d575f6040517fec442f0500000000000000000000000000000000000000000000000000000000815260040161110491906122fb565b60405180910390fd5b611118838383611436565b505050565b611125610f81565b73ffffffffffffffffffffffffffffffffffffffff166111436109e5565b73ffffffffffffffffffffffffffffffffffffffff16146111a257611166610f81565b6040517f118cdaa700000000000000000000000000000000000000000000000000000000815260040161119991906122fb565b60405180910390fd5b565b5f60055f9054906101000a900473ffffffffffffffffffffffffffffffffffffffff1690508160055f6101000a81548173ffffffffffffffffffffffffffffffffffffffff021916908373ffffffffffffffffffffffffffffffffffffffff1602179055508173ffffffffffffffffffffffffffffffffffffffff168173ffffffffffffffffffffffffffffffffffffffff167f8be0079c531659141344cd1fd0a4f28419497f9722a3daafe3b4186f6b6457e060405160405180910390a35050565b5f73ffffffffffffffffffffffffffffffffffffffff168473ffffffffffffffffffffffffffffffffffffffff16036112d7575f6040517fe602df050000000000000000000000000000000000000000000000000000000081526004016112ce91906122fb565b60405180910390fd5b5f73ffffffffffffffffffffffffffffffffffffffff168373ffffffffffffffffffffffffffffffffffffffff1603611347575f6040517f94280d6200000000000000000000000000000000000000000000000000000000815260040161133e91906122fb565b60405180910390fd5b8160015f8673ffffffffffffffffffffffffffffffffffffffff1673ffffffffffffffffffffffffffffffffffffffff1681526020019081526020015f205f8573ffffffffffffffffffffffffffffffffffffffff1673ffffffffffffffffffffffffffffffffffffffff1681526020019081526020015f20819055508015611430578273ffffffffffffffffffffffffffffffffffffffff168473ffffffffffffffffffffffffffffffffffffffff167f8c5be1e5ebec7d5bd14f71427d1e84f3dd0314c0f7b2291e5b200ac8c7c3b9258460405161142791906121e8565b60405180910390a35b50505050565b600c60149054906101000a900460ff168061147c57505f73ffffffffffffffffffffffffffffffffffffffff168373ffffffffffffffffffffffffffffffffffffffff16145b806114b257505f73ffffffffffffffffffffffffffffffffffffffff168273ffffffffffffffffffffffffffffffffffffffff16145b806115035750600d5f8473ffffffffffffffffffffffffffffffffffffffff1673ffffffffffffffffffffffffffffffffffffffff1681526020019081526020015f205f9054906101000a900460ff165b806115545750600d5f8373ffffffffffffffffffffffffffffffffffffffff1673ffffffffffffffffffffffffffffffffffffffff1681526020019081526020015f205f9054906101000a900460ff165b156115695761156483838361183c565b611837565b5f600c5f9054906101000a900473ffffffffffffffffffffffffffffffffffffffff1673ffffffffffffffffffffffffffffffffffffffff168473ffffffffffffffffffffffffffffffffffffffff161490505f600c5f9054906101000a900473ffffffffffffffffffffffffffffffffffffffff1673ffffffffffffffffffffffffffffffffffffffff168473ffffffffffffffffffffffffffffffffffffffff16149050811561162757611620858585611a55565b5050611837565b801561163f57611638858585611acc565b5050611837565b5f6116493061098d565b90505f81111561167f5761167e81600a5f9054906101000a900473ffffffffffffffffffffffffffffffffffffffff16611d36565b5b5f6116898761098d565b90505f600e5f8973ffffffffffffffffffffffffffffffffffffffff1673ffffffffffffffffffffffffffffffffffffffff1681526020019081526020015f205490506116d788888861183c565b5f811180156116e557505f82115b15611831575f8287836116f891906126b1565b611702919061271f565b9050808261171091906129e3565b600e5f8b73ffffffffffffffffffffffffffffffffffffffff1673ffffffffffffffffffffffffffffffffffffffff1681526020019081526020015f2081905550620f4240600e5f8b73ffffffffffffffffffffffffffffffffffffffff1673ffffffffffffffffffffffffffffffffffffffff1681526020019081526020015f205410156117dc575f600e5f8b73ffffffffffffffffffffffffffffffffffffffff1673ffffffffffffffffffffffffffffffffffffffff1681526020019081526020015f20819055505b80600e5f8a73ffffffffffffffffffffffffffffffffffffffff1673ffffffffffffffffffffffffffffffffffffffff1681526020019081526020015f205f8282546118289190612a4b565b92505081905550505b50505050505b505050565b5f73ffffffffffffffffffffffffffffffffffffffff168373ffffffffffffffffffffffffffffffffffffffff160361188c578060025f8282546118809190612a4b565b9250508190555061195a565b5f5f5f8573ffffffffffffffffffffffffffffffffffffffff1673ffffffffffffffffffffffffffffffffffffffff1681526020019081526020015f2054905081811015611915578381836040517fe450d38c00000000000000000000000000000000000000000000000000000000815260040161190c93929190612a16565b60405180910390fd5b8181035f5f8673ffffffffffffffffffffffffffffffffffffffff1673ffffffffffffffffffffffffffffffffffffffff1681526020019081526020015f2081905550505b5f73ffffffffffffffffffffffffffffffffffffffff168273ffffffffffffffffffffffffffffffffffffffff16036119a1578060025f82825403925050819055506119eb565b805f5f8473ffffffffffffffffffffffffffffffffffffffff1673ffffffffffffffffffffffffffffffffffffffff1681526020019081526020015f205f82825401925050819055505b8173ffffffffffffffffffffffffffffffffffffffff168373ffffffffffffffffffffffffffffffffffffffff167fddf252ad1be2c89b69c2b068fc378daa952ba7f163c4a11628f55a4df523b3ef83604051611a4891906121e8565b60405180910390a3505050565b5f606460085483611a6691906126b1565b611a70919061271f565b90505f8183611a7f91906129e3565b9050611aaf846103e8601986611a9591906126b1565b611a9f919061271f565b85611aaa9190612a4b565b611f78565b611aba85308461183c565b611ac585858361183c565b5050505050565b5f611ad68461098d565b90505f606460075484611ae991906126b1565b611af3919061271f565b90505f8184611b0291906129e3565b90505f611b0f8783610ccd565b90505f811115611b5057611b2487308361183c565b611b4f81600b5f9054906101000a900473ffffffffffffffffffffffffffffffffffffffff16611d36565b5b611b5b87308561183c565b611b868360095f9054906101000a900473ffffffffffffffffffffffffffffffffffffffff16611d36565b611b9c87878385611b9791906129e3565b61183c565b5f611ba68861098d565b90505f8103611bf6575f600e5f8a73ffffffffffffffffffffffffffffffffffffffff1673ffffffffffffffffffffffffffffffffffffffff1681526020019081526020015f2081905550611d2c565b5f600e5f8a73ffffffffffffffffffffffffffffffffffffffff1673ffffffffffffffffffffffffffffffffffffffff1681526020019081526020015f205490505f868883611c4591906126b1565b611c4f919061271f565b90508082611c5d91906129e3565b600e5f8c73ffffffffffffffffffffffffffffffffffffffff1673ffffffffffffffffffffffffffffffffffffffff1681526020019081526020015f2081905550620f4240600e5f8c73ffffffffffffffffffffffffffffffffffffffff1673ffffffffffffffffffffffffffffffffffffffff1681526020019081526020015f20541015611d29575f600e5f8c73ffffffffffffffffffffffffffffffffffffffff1673ffffffffffffffffffffffffffffffffffffffff1681526020019081526020015f20819055505b50505b5050505050505050565b5f820315611f74576001600c60146101000a81548160ff0219169083151502179055505f600267ffffffffffffffff811115611d7557611d74612467565b5b604051908082528060200260200182016040528015611da35781602001602082028036833780820191505090505b50905030815f81518110611dba57611db961274f565b5b602002602001019073ffffffffffffffffffffffffffffffffffffffff16908173ffffffffffffffffffffffffffffffffffffffff1681525050733c83065b83a8fd66587f330845f4603f7c49275c81600181518110611e1d57611e1c61274f565b5b602002602001019073ffffffffffffffffffffffffffffffffffffffff16908173ffffffffffffffffffffffffffffffffffffffff1681525050611e833060065f9054906101000a900473ffffffffffffffffffffffffffffffffffffffff1685610f88565b60065f9054906101000a900473ffffffffffffffffffffffffffffffffffffffff1673ffffffffffffffffffffffffffffffffffffffff16635c11d795845f8486601e42611ed19190612a4b565b6040518663ffffffff1660e01b8152600401611ef1959493929190612ab7565b5f604051808303815f87803b158015611f08575f5ffd5b505af1925050508015611f19575060015b15611f58577faedb4dc54dc30d46d331ffcc44cd836607bea96c12e1b21a95210ed899184d048284604051611f4f929190612b0f565b60405180910390a15b5f600c60146101000a81548160ff021916908315150217905550505b5050565b60065f9054906101000a900473ffffffffffffffffffffffffffffffffffffffff1673ffffffffffffffffffffffffffffffffffffffff168273ffffffffffffffffffffffffffffffffffffffff16148061201f5750600c5f9054906101000a900473ffffffffffffffffffffffffffffffffffffffff1673ffffffffffffffffffffffffffffffffffffffff168273ffffffffffffffffffffffffffffffffffffffff16145b6120a6575f61202c610a9d565b90505f670de0b6b3a7640000838361204491906126b1565b61204e919061271f565b905080600e5f8673ffffffffffffffffffffffffffffffffffffffff1673ffffffffffffffffffffffffffffffffffffffff1681526020019081526020015f205f82825461209c9190612a4b565b9250508190555050505b5050565b5f81519050919050565b5f82825260208201905092915050565b8281835e5f83830152505050565b5f601f19601f8301169050919050565b5f6120ec826120aa565b6120f681856120b4565b93506121068185602086016120c4565b61210f816120d2565b840191505092915050565b5f6020820190508181035f83015261213281846120e2565b905092915050565b5f604051905090565b5f5ffd5b5f5ffd5b5f73ffffffffffffffffffffffffffffffffffffffff82169050919050565b5f6121748261214b565b9050919050565b6121848161216a565b811461218e575f5ffd5b50565b5f8135905061219f8161217b565b92915050565b5f602082840312156121ba576121b9612143565b5b5f6121c784828501612191565b91505092915050565b5f819050919050565b6121e2816121d0565b82525050565b5f6020820190506121fb5f8301846121d9565b92915050565b61220a816121d0565b8114612214575f5ffd5b50565b5f8135905061222581612201565b92915050565b5f5f6040838503121561224157612240612143565b5b5f61224e85828601612191565b925050602061225f85828601612217565b9150509250929050565b5f8115159050919050565b61227d81612269565b82525050565b5f6020820190506122965f830184612274565b92915050565b5f5f5f606084860312156122b3576122b2612143565b5b5f6122c086828701612191565b93505060206122d186828701612191565b92505060406122e286828701612217565b9150509250925092565b6122f58161216a565b82525050565b5f60208201905061230e5f8301846122ec565b92915050565b5f5f6040838503121561232a57612329612143565b5b5f61233785828601612217565b925050602061234885828601612217565b9150509250929050565b5f60ff82169050919050565b61236781612352565b82525050565b5f6020820190506123805f83018461235e565b92915050565b5f6020828403121561239b5761239a612143565b5b5f6123a884828501612217565b91505092915050565b5f819050919050565b5f6123d46123cf6123ca8461214b565b6123b1565b61214b565b9050919050565b5f6123e5826123ba565b9050919050565b5f6123f6826123db565b9050919050565b612406816123ec565b82525050565b5f60208201905061241f5f8301846123fd565b92915050565b5f5f6040838503121561243b5761243a612143565b5b5f61244885828601612191565b925050602061245985828601612191565b9150509250929050565b5f5ffd5b7f4e487b71000000000000000000000000000000000000000000000000000000005f52604160045260245ffd5b61249d826120d2565b810181811067ffffffffffffffff821117156124bc576124bb612467565b5b80604052505050565b5f6124ce61213a565b90506124da8282612494565b919050565b5f67ffffffffffffffff8211156124f9576124f8612467565b5b602082029050602081019050919050565b5f5ffd5b5f61252061251b846124df565b6124c5565b905080838252602082019050602084028301858111156125435761254261250a565b5b835b8181101561256c57806125588882612191565b845260208401935050602081019050612545565b5050509392505050565b5f82601f83011261258a57612589612463565b5b813561259a84826020860161250e565b91505092915050565b6125ac81612269565b81146125b6575f5ffd5b50565b5f813590506125c7816125a3565b92915050565b5f5f604083850312156125e3576125e2612143565b5b5f83013567ffffffffffffffff811115612600576125ff612147565b5b61260c85828601612576565b925050602061261d858286016125b9565b9150509250929050565b7f4e487b71000000000000000000000000000000000000000000000000000000005f52602260045260245ffd5b5f600282049050600182168061266b57607f821691505b60208210810361267e5761267d612627565b5b50919050565b7f4e487b71000000000000000000000000000000000000000000000000000000005f52601160045260245ffd5b5f6126bb826121d0565b91506126c6836121d0565b92508282026126d4816121d0565b915082820484148315176126eb576126ea612684565b5b5092915050565b7f4e487b71000000000000000000000000000000000000000000000000000000005f52601260045260245ffd5b5f612729826121d0565b9150612734836121d0565b925082612744576127436126f2565b5b828204905092915050565b7f4e487b71000000000000000000000000000000000000000000000000000000005f52603260045260245ffd5b5f81519050919050565b5f82825260208201905092915050565b5f819050602082019050919050565b6127ae8161216a565b82525050565b5f6127bf83836127a5565b60208301905092915050565b5f602082019050919050565b5f6127e18261277c565b6127eb8185612786565b93506127f683612796565b805f5b8381101561282657815161280d88826127b4565b9750612818836127cb565b9250506001810190506127f9565b5085935050505092915050565b5f6040820190506128465f8301856121d9565b818103602083015261285881846127d7565b90509392505050565b5f67ffffffffffffffff82111561287b5761287a612467565b5b602082029050602081019050919050565b5f8151905061289a81612201565b92915050565b5f6128b26128ad84612861565b6124c5565b905080838252602082019050602084028301858111156128d5576128d461250a565b5b835b818110156128fe57806128ea888261288c565b8452602084019350506020810190506128d7565b5050509392505050565b5f82601f83011261291c5761291b612463565b5b815161292c8482602086016128a0565b91505092915050565b5f6020828403121561294a57612949612143565b5b5f82015167ffffffffffffffff81111561296757612966612147565b5b61297384828501612908565b91505092915050565b5f819050919050565b5f61299f61299a6129958461297c565b6123b1565b6121d0565b9050919050565b6129af81612985565b82525050565b5f6040820190506129c85f8301856129a6565b81810360208301526129da81846127d7565b90509392505050565b5f6129ed826121d0565b91506129f8836121d0565b9250828203905081811115612a1057612a0f612684565b5b92915050565b5f606082019050612a295f8301866122ec565b612a3660208301856121d9565b612a4360408301846121d9565b949350505050565b5f612a55826121d0565b9150612a60836121d0565b9250828201905080821115612a7857612a77612684565b5b92915050565b5f819050919050565b5f612aa1612a9c612a9784612a7e565b6123b1565b6121d0565b9050919050565b612ab181612a87565b82525050565b5f60a082019050612aca5f8301886121d9565b612ad76020830187612aa8565b8181036040830152612ae981866127d7565b9050612af860608301856122ec565b612b0560808301846121d9565b9695505050505050565b5f604082019050612b225f8301856122ec565b612b2f60208301846121d9565b939250505056fea264697066735822122026cb341df50fcb5f12b02eb5ac6877e8e4dac44f6a2efab486c85ba6c02344b064736f6c634300081e0033","linkReferences":{}},"methodIdentifiers":{"PROFIT_TAX_RATE()":"53941346","USDT()":"c54e44eb","allowance(address,address)":"dd62ed3e","allowlist(address)":"a7cd52cb","approve(address,uint256)":"095ea7b3","averagePriceOf(address)":"088878b5","balanceOf(address)":"70a08231","buyFee()":"47062402","buy_tax_rate()":"6e620c45","currentPrice()":"9d1b464a","decimals()":"313ce567","getAmountOut(uint256)":"5c195217","getProfitTaxToken(address,uint256)":"c1d960ae","name()":"06fdde03","owner()":"8da5cb5b","pancakePair()":"b8c9d25c","pancakeRouter()":"c21ebd07","profitFee()":"f90766a6","renounceOwnership()":"715018a6","sellFee()":"2b14ca56","sell_tax_rate()":"a1f97050","setAllowlist(address[],bool)":"f01fe7c4","setTaxRate(uint256,uint256)":"2beb8159","symbol()":"95d89b41","totalCostUsdt(address)":"60d1d4a4","totalSupply()":"18160ddd","transfer(address,uint256)":"a9059cbb","transferFrom(address,address,uint256)":"23b872dd","transferOwnership(address)":"f2fde38b"},"id":48}