{"abi":[{"type":"receive","stateMutability":"payable"},{"type":"function","name":"DEAD","inputs":[],"outputs":[{"name":"","type":"address","internalType":"address"}],"stateMutability":"view"},{"type":"function","name":"UPGRADE_INTERFACE_VERSION","inputs":[],"outputs":[{"name":"","type":"string","internalType":"string"}],"stateMutability":"view"},{"type":"function","name":"USDT","inputs":[],"outputs":[{"name":"","type":"address","internalType":"address"}],"stateMutability":"view"},{"type":"function","name":"admin","inputs":[],"outputs":[{"name":"","type":"address","internalType":"address"}],"stateMutability":"view"},{"type":"function","name":"awardRecords","inputs":[{"name":"","type":"address","internalType":"address"},{"name":"","type":"uint256","internalType":"uint256"}],"outputs":[{"name":"from","type":"address","internalType":"address"},{"name":"amount","type":"uint256","internalType":"uint256"},{"name":"time","type":"uint256","internalType":"uint256"}],"stateMutability":"view"},{"type":"function","name":"claim","inputs":[],"outputs":[],"stateMutability":"nonpayable"},{"type":"function","name":"decimals","inputs":[],"outputs":[{"name":"","type":"uint256","internalType":"uint256"}],"stateMutability":"view"},{"type":"function","name":"directReferrals","inputs":[{"name":"","type":"address","internalType":"address"},{"name":"","type":"uint256","internalType":"uint256"}],"outputs":[{"name":"","type":"address","internalType":"address"}],"stateMutability":"view"},{"type":"function","name":"djsv1","inputs":[],"outputs":[{"name":"","type":"address","internalType":"address"}],"stateMutability":"view"},{"type":"function","name":"emergencyWithdraw","inputs":[{"name":"_token","type":"address","internalType":"address"},{"name":"_amount","type":"uint256","internalType":"uint256"},{"name":"_to","type":"address","internalType":"address"}],"outputs":[],"stateMutability":"nonpayable"},{"type":"function","name":"getDirectReferrals","inputs":[{"name":"user","type":"address","internalType":"address"}],"outputs":[{"name":"","type":"address[]","internalType":"address[]"}],"stateMutability":"view"},{"type":"function","name":"getInvalidStaking","inputs":[{"name":"user","type":"address","internalType":"address"}],"outputs":[{"name":"","type":"uint256","internalType":"uint256"}],"stateMutability":"view"},{"type":"function","name":"getReferralAwardRecords","inputs":[{"name":"user","type":"address","internalType":"address"}],"outputs":[{"name":"","type":"tuple[]","internalType":"struct Process.Record[]","components":[{"name":"from","type":"address","internalType":"address"},{"name":"amount","type":"uint256","internalType":"uint256"},{"name":"time","type":"uint256","internalType":"uint256"}]}],"stateMutability":"view"},{"type":"function","name":"getUserAward","inputs":[{"name":"user","type":"address","internalType":"address"}],"outputs":[{"name":"","type":"uint256","internalType":"uint256"}],"stateMutability":"view"},{"type":"function","name":"getUserInfoBasic","inputs":[{"name":"user","type":"address","internalType":"address"}],"outputs":[{"name":"level","type":"uint8","internalType":"enum Process.Level"},{"name":"recommender","type":"address","internalType":"address"},{"name":"stakingUsdt","type":"uint256","internalType":"uint256"},{"name":"multiple","type":"uint256","internalType":"uint256"},{"name":"totalAward","type":"uint256","internalType":"uint256"},{"name":"shareAward","type":"uint256","internalType":"uint256"}],"stateMutability":"view"},{"type":"function","name":"getUserInfoReferral","inputs":[{"name":"user","type":"address","internalType":"address"}],"outputs":[{"name":"referralNum","type":"uint256","internalType":"uint256"},{"name":"performance","type":"uint256","internalType":"uint256"},{"name":"referralAward","type":"uint256","internalType":"uint256"},{"name":"subCoinQuota","type":"uint256","internalType":"uint256"},{"name":"isMigration","type":"bool","internalType":"bool"}],"stateMutability":"view"},{"type":"function","name":"getUserShareLevelAward","inputs":[{"name":"user","type":"address","internalType":"address"}],"outputs":[{"name":"","type":"uint256","internalType":"uint256"}],"stateMutability":"view"},{"type":"function","name":"getUserStakingAward","inputs":[{"name":"user","type":"address","internalType":"address"}],"outputs":[{"name":"","type":"uint256","internalType":"uint256"}],"stateMutability":"view"},{"type":"function","name":"initialCode","inputs":[],"outputs":[{"name":"","type":"address","internalType":"address"}],"stateMutability":"view"},{"type":"function","name":"initialize","inputs":[{"name":"_admin","type":"address","internalType":"address"},{"name":"_initialCode","type":"address","internalType":"address"},{"name":"_djsv1","type":"address","internalType":"address"},{"name":"_nodeDividends","type":"address","internalType":"address"},{"name":"_liquidityManager","type":"address","internalType":"address"}],"outputs":[],"stateMutability":"nonpayable"},{"type":"function","name":"isAddDirectReferrals","inputs":[{"name":"","type":"address","internalType":"address"}],"outputs":[{"name":"","type":"bool","internalType":"bool"}],"stateMutability":"view"},{"type":"function","name":"lastShareAwardTime","inputs":[],"outputs":[{"name":"","type":"uint256","internalType":"uint256"}],"stateMutability":"view"},{"type":"function","name":"liquidityManager","inputs":[],"outputs":[{"name":"","type":"address","internalType":"address"}],"stateMutability":"view"},{"type":"function","name":"migrationReferral","inputs":[{"name":"user","type":"address","internalType":"address"}],"outputs":[],"stateMutability":"nonpayable"},{"type":"function","name":"nodeDividends","inputs":[],"outputs":[{"name":"","type":"address","internalType":"address"}],"stateMutability":"view"},{"type":"function","name":"owner","inputs":[],"outputs":[{"name":"","type":"address","internalType":"address"}],"stateMutability":"view"},{"type":"function","name":"pause","inputs":[],"outputs":[{"name":"","type":"bool","internalType":"bool"}],"stateMutability":"view"},{"type":"function","name":"perSecondStakedAeward","inputs":[],"outputs":[{"name":"","type":"uint256","internalType":"uint256"}],"stateMutability":"view"},{"type":"function","name":"perSharePerformanceAward","inputs":[],"outputs":[{"name":"","type":"uint256","internalType":"uint256"}],"stateMutability":"view"},{"type":"function","name":"proxiableUUID","inputs":[],"outputs":[{"name":"","type":"bytes32","internalType":"bytes32"}],"stateMutability":"view"},{"type":"function","name":"referral","inputs":[{"name":"recommender","type":"address","internalType":"address"}],"outputs":[],"stateMutability":"nonpayable"},{"type":"function","name":"referralInfo","inputs":[{"name":"","type":"address","internalType":"address"}],"outputs":[{"name":"recommender","type":"address","internalType":"address"},{"name":"level","type":"uint8","internalType":"enum Process.Level"},{"name":"referralNum","type":"uint256","internalType":"uint256"},{"name":"performance","type":"uint256","internalType":"uint256"},{"name":"referralAward","type":"uint256","internalType":"uint256"},{"name":"subCoinQuota","type":"uint256","internalType":"uint256"},{"name":"shareAwardDebt","type":"uint256","internalType":"uint256"},{"name":"isMigration","type":"bool","internalType":"bool"}],"stateMutability":"view"},{"type":"function","name":"renounceOwnership","inputs":[],"outputs":[],"stateMutability":"nonpayable"},{"type":"function","name":"setPause","inputs":[{"name":"isPause","type":"bool","internalType":"bool"}],"outputs":[],"stateMutability":"nonpayable"},{"type":"function","name":"shareRate","inputs":[],"outputs":[{"name":"","type":"uint256","internalType":"uint256"}],"stateMutability":"view"},{"type":"function","name":"stake","inputs":[{"name":"amountUSDT","type":"uint256","internalType":"uint256"}],"outputs":[],"stateMutability":"nonpayable"},{"type":"function","name":"subCoinQuotas","inputs":[{"name":"","type":"uint8","internalType":"enum Process.Level"}],"outputs":[{"name":"","type":"uint256","internalType":"uint256"}],"stateMutability":"view"},{"type":"function","name":"swapSubToken","inputs":[{"name":"amountUSDT","type":"uint256","internalType":"uint256"}],"outputs":[],"stateMutability":"nonpayable"},{"type":"function","name":"totalSharePerformance","inputs":[],"outputs":[{"name":"","type":"uint256","internalType":"uint256"}],"stateMutability":"view"},{"type":"function","name":"totalStakedUsdt","inputs":[],"outputs":[{"name":"","type":"uint256","internalType":"uint256"}],"stateMutability":"view"},{"type":"function","name":"transferOwnership","inputs":[{"name":"newOwner","type":"address","internalType":"address"}],"outputs":[],"stateMutability":"nonpayable"},{"type":"function","name":"upgradeToAndCall","inputs":[{"name":"newImplementation","type":"address","internalType":"address"},{"name":"data","type":"bytes","internalType":"bytes"}],"outputs":[],"stateMutability":"payable"},{"type":"function","name":"userInfo","inputs":[{"name":"","type":"address","internalType":"address"}],"outputs":[{"name":"stakingUsdt","type":"uint256","internalType":"uint256"},{"name":"multiple","type":"uint256","internalType":"uint256"},{"name":"stakingTime","type":"uint256","internalType":"uint256"},{"name":"pendingProfit","type":"uint256","internalType":"uint256"},{"name":"extracted","type":"uint256","internalType":"uint256"}],"stateMutability":"view"},{"type":"function","name":"validReferralCode","inputs":[{"name":"user","type":"address","internalType":"address"}],"outputs":[{"name":"","type":"bool","internalType":"bool"}],"stateMutability":"view"},{"type":"function","name":"whetherNeedMigrate","inputs":[{"name":"user","type":"address","internalType":"address"}],"outputs":[{"name":"","type":"bool","internalType":"bool"}],"stateMutability":"view"},{"type":"event","name":"Claimed","inputs":[{"name":"user","type":"address","indexed":false,"internalType":"address"},{"name":"amount","type":"uint256","indexed":false,"internalType":"uint256"}],"anonymous":false},{"type":"event","name":"Initialized","inputs":[{"name":"version","type":"uint64","indexed":false,"internalType":"uint64"}],"anonymous":false},{"type":"event","name":"OwnershipTransferred","inputs":[{"name":"previousOwner","type":"address","indexed":true,"internalType":"address"},{"name":"newOwner","type":"address","indexed":true,"internalType":"address"}],"anonymous":false},{"type":"event","name":"Referrals","inputs":[{"name":"recommender","type":"address","indexed":false,"internalType":"address"},{"name":"referred","type":"address","indexed":false,"internalType":"address"}],"anonymous":false},{"type":"event","name":"Staked","inputs":[{"name":"user","type":"address","indexed":false,"internalType":"address"},{"name":"amount","type":"uint256","indexed":false,"internalType":"uint256"}],"anonymous":false},{"type":"event","name":"Upgraded","inputs":[{"name":"implementation","type":"address","indexed":true,"internalType":"address"}],"anonymous":false},{"type":"error","name":"AddressEmptyCode","inputs":[{"name":"target","type":"address","internalType":"address"}]},{"type":"error","name":"AlreadyMigrated","inputs":[]},{"type":"error","name":"AmountTooLow","inputs":[]},{"type":"error","name":"ERC1967InvalidImplementation","inputs":[{"name":"implementation","type":"address","internalType":"address"}]},{"type":"error","name":"ERC1967NonPayable","inputs":[]},{"type":"error","name":"FailedCall","inputs":[]},{"type":"error","name":"InsufficientQuota","inputs":[]},{"type":"error","name":"InvalidInitialization","inputs":[]},{"type":"error","name":"InvalidRecommender","inputs":[]},{"type":"error","name":"InviterExists","inputs":[]},{"type":"error","name":"NeedMigrate","inputs":[]},{"type":"error","name":"NoMigrationRequired","inputs":[]},{"type":"error","name":"NoReward","inputs":[]},{"type":"error","name":"NoStake","inputs":[]},{"type":"error","name":"NotInitializing","inputs":[]},{"type":"error","name":"NotRequiredReferral","inputs":[]},{"type":"error","name":"OwnableInvalidOwner","inputs":[{"name":"owner","type":"address","internalType":"address"}]},{"type":"error","name":"OwnableUnauthorizedAccount","inputs":[{"name":"account","type":"address","internalType":"address"}]},{"type":"error","name":"ReentrancyGuardReentrantCall","inputs":[]},{"type":"error","name":"UUPSUnauthorizedCallContext","inputs":[]},{"type":"error","name":"UUPSUnsupportedProxiableUUID","inputs":[{"name":"slot","type":"bytes32","internalType":"bytes32"}]},{"type":"error","name":"ZeroAddress","inputs":[]}],"bytecode":{"object":"0x60a06040523073ffffffffffffffffffffffffffffffffffffffff1660809073ffffffffffffffffffffffffffffffffffffffff168152503480156041575f5ffd5b5060015f8190555060805161593661006f5f395f81816133e60152818161343b01526135f501526159365ff3fe608060405260043610610274575f3560e01c806385215f7c1161014e578063b5006823116100c0578063d2c8e0e511610079578063d2c8e0e5146109fe578063d567aadb14610a3a578063db81c51514610a64578063f2fde38b14610a8e578063f851a44014610ab6578063fb802a6514610ae0576102b4565b8063b5006823146108c7578063bedb86fb14610908578063c023b3a514610930578063c54e44eb1461096e578063c7c93c9414610998578063c7fb372f146109d4576102b4565b80639238b0f9116101125780639238b0f9146107a5578063a3f2a64a146107e5578063a694fc3a14610821578063ac6439b514610849578063ad3cb1cc14610873578063b2859e2b1461089d576102b4565b806385215f7c146106af57806387631a2a146106eb5780638da5cb5b14610727578063905635d414610751578063922be46d1461077b576102b4565b8063313ce567116101e75780634f1ef286116101ab5780634f1ef286146105d957806352d1902d146105f5578063551512de1461061f578063715018a6146106475780637247959a1461065d5780638456cb5914610685576102b4565b8063313ce567146104f0578063338274381461051a57806339540b0a146105445780633e4ff6f2146105875780634e71d92d146105c3576102b4565b806310baf0891161023957806310baf089146103be5780631459457a146103e857806318785eb6146104105780631959a0021461044c57806319b12a531461048c5780631b602f22146104c8576102b4565b8062c4bb2b146102b857806303fd2a45146102f457806305ad39351461031e5780630acf716b1461035a5780630ff9ef1214610396576102b4565b366102b4576040517f08c379a00000000000000000000000000000000000000000000000000000000081526004016102ab9061495c565b60405180910390fd5b5f5ffd5b3480156102c3575f5ffd5b506102de60048036038101906102d991906149ae565b610b0a565b6040516102eb91906149f1565b60405180910390f35b3480156102ff575f5ffd5b50610308610b1f565b6040516103159190614a49565b60405180910390f35b348015610329575f5ffd5b50610344600480360381019061033f9190614ab6565b610b25565b6040516103519190614a49565b60405180910390f35b348015610365575f5ffd5b50610380600480360381019061037b9190614af4565b610b6d565b60405161038d91906149f1565b60405180910390f35b3480156103a1575f5ffd5b506103bc60048036038101906103b79190614af4565b610c2a565b005b3480156103c9575f5ffd5b506103d2610e28565b6040516103df9190614a49565b60405180910390f35b3480156103f3575f5ffd5b5061040e60048036038101906104099190614b1f565b610e4d565b005b34801561041b575f5ffd5b5061043660048036038101906104319190614af4565b6112c6565b6040516104439190614c9c565b60405180910390f35b348015610457575f5ffd5b50610472600480360381019061046d9190614af4565b6113c7565b604051610483959493929190614cbc565b60405180910390f35b348015610497575f5ffd5b506104b260048036038101906104ad9190614af4565b6113f9565b6040516104bf91906149f1565b60405180910390f35b3480156104d3575f5ffd5b506104ee60048036038101906104e99190614d0d565b6114b6565b005b3480156104fb575f5ffd5b50610504611653565b60405161051191906149f1565b60405180910390f35b348015610525575f5ffd5b5061052e611659565b60405161053b9190614a49565b60405180910390f35b34801561054f575f5ffd5b5061056a60048036038101906105659190614af4565b61167e565b60405161057e989796959493929190614dc5565b60405180910390f35b348015610592575f5ffd5b506105ad60048036038101906105a89190614af4565b6116f9565b6040516105ba91906149f1565b60405180910390f35b3480156105ce575f5ffd5b506105d76118d0565b005b6105f360048036038101906105ee9190614f7d565b611b9c565b005b348015610600575f5ffd5b50610609611bbb565b6040516106169190614fef565b60405180910390f35b34801561062a575f5ffd5b5061064560048036038101906106409190615008565b611bec565b005b348015610652575f5ffd5b5061065b611c8b565b005b348015610668575f5ffd5b50610683600480360381019061067e9190614af4565b611c9e565b005b348015610690575f5ffd5b506106996120a0565b6040516106a69190615058565b60405180910390f35b3480156106ba575f5ffd5b506106d560048036038101906106d09190614af4565b6120b2565b6040516106e29190615058565b60405180910390f35b3480156106f6575f5ffd5b50610711600480360381019061070c9190614af4565b6121e0565b60405161071e9190615058565b60405180910390f35b348015610732575f5ffd5b5061073b61222a565b6040516107489190614a49565b60405180910390f35b34801561075c575f5ffd5b5061076561225f565b60405161077291906149f1565b60405180910390f35b348015610786575f5ffd5b5061078f612265565b60405161079c91906149f1565b60405180910390f35b3480156107b0575f5ffd5b506107cb60048036038101906107c69190614af4565b61226b565b6040516107dc959493929190615071565b60405180910390f35b3480156107f0575f5ffd5b5061080b60048036038101906108069190614af4565b6123c3565b6040516108189190615058565b60405180910390f35b34801561082c575f5ffd5b5061084760048036038101906108429190614d0d565b6123e0565b005b348015610854575f5ffd5b5061085d612a6d565b60405161086a9190614a49565b60405180910390f35b34801561087e575f5ffd5b50610887612a92565b6040516108949190615112565b60405180910390f35b3480156108a8575f5ffd5b506108b1612acb565b6040516108be91906149f1565b60405180910390f35b3480156108d2575f5ffd5b506108ed60048036038101906108e89190614af4565b612ad1565b6040516108ff96959493929190615132565b60405180910390f35b348015610913575f5ffd5b5061092e600480360381019061092991906151bb565b612cb4565b005b34801561093b575f5ffd5b5061095660048036038101906109519190614ab6565b612d5f565b604051610965939291906151e6565b60405180910390f35b348015610979575f5ffd5b50610982612dbe565b60405161098f9190614a49565b60405180910390f35b3480156109a3575f5ffd5b506109be60048036038101906109b99190614af4565b612dd6565b6040516109cb91906149f1565b60405180910390f35b3480156109df575f5ffd5b506109e8612ff5565b6040516109f59190614a49565b60405180910390f35b348015610a09575f5ffd5b50610a246004803603810190610a1f9190614af4565b61301a565b604051610a3191906152c3565b60405180910390f35b348015610a45575f5ffd5b50610a4e6130e2565b604051610a5b91906149f1565b60405180910390f35b348015610a6f575f5ffd5b50610a786130e8565b604051610a8591906149f1565b60405180910390f35b348015610a99575f5ffd5b50610ab46004803603810190610aaf9190614af4565b6130ee565b005b348015610ac1575f5ffd5b50610aca613172565b604051610ad79190614a49565b60405180910390f35b348015610aeb575f5ffd5b50610af4613197565b604051610b0191906149f1565b60405180910390f35b6006602052805f5260405f205f915090505481565b61dead81565b6004602052815f5260405f208181548110610b3e575f80fd5b905f5260205f20015f915091509054906101000a900473ffffffffffffffffffffffffffffffffffffffff1681565b5f5f60015f8473ffffffffffffffffffffffffffffffffffffffff1673ffffffffffffffffffffffffffffffffffffffff1681526020019081526020015f206040518060a00160405290815f82015481526020016001820154815260200160028201548152602001600382015481526020016004820154815250509050600f54815f0151600e54836040015142610c049190615310565b610c0e9190615343565b610c189190615343565b610c2291906153b1565b915050919050565b610c3261319d565b5f60025f8373ffffffffffffffffffffffffffffffffffffffff1673ffffffffffffffffffffffffffffffffffffffff1681526020019081526020015f209050806006015f9054906101000a900460ff1615610cba576040517fca1c3cbc00000000000000000000000000000000000000000000000000000000815260040160405180910390fd5b5f60095f9054906101000a900473ffffffffffffffffffffffffffffffffffffffff1673ffffffffffffffffffffffffffffffffffffffff16631959a002846040518263ffffffff1660e01b8152600401610d159190614a49565b608060405180830381865afa158015610d30573d5f5f3e3d5ffd5b505050506040513d601f19601f82011682018060405250810190610d549190615409565b50505090505f73ffffffffffffffffffffffffffffffffffffffff168173ffffffffffffffffffffffffffffffffffffffff1603610dbe576040517f9c9e07a800000000000000000000000000000000000000000000000000000000815260040160405180910390fd5b80825f015f6101000a81548173ffffffffffffffffffffffffffffffffffffffff021916908373ffffffffffffffffffffffffffffffffffffffff1602179055506001826006015f6101000a81548160ff0219169083151502179055505050610e256131e1565b50565b60085f9054906101000a900473ffffffffffffffffffffffffffffffffffffffff1681565b5f610e566131ea565b90505f815f0160089054906101000a900460ff161590505f825f015f9054906101000a900467ffffffffffffffff1690505f5f8267ffffffffffffffff16148015610e9e5750825b90505f60018367ffffffffffffffff16148015610ed157505f3073ffffffffffffffffffffffffffffffffffffffff163b145b905081158015610edf575080155b15610f16576040517ff92ee8a900000000000000000000000000000000000000000000000000000000815260040160405180910390fd5b6001855f015f6101000a81548167ffffffffffffffff021916908367ffffffffffffffff1602179055508315610f63576001855f0160086101000a81548160ff0219169083151502179055505b610f73610f6e6131fd565b613204565b8960075f6101000a81548173ffffffffffffffffffffffffffffffffffffffff021916908373ffffffffffffffffffffffffffffffffffffffff1602179055508860085f6101000a81548173ffffffffffffffffffffffffffffffffffffffff021916908373ffffffffffffffffffffffffffffffffffffffff1602179055508760095f6101000a81548173ffffffffffffffffffffffffffffffffffffffff021916908373ffffffffffffffffffffffffffffffffffffffff16021790555086600a5f6101000a81548173ffffffffffffffffffffffffffffffffffffffff021916908373ffffffffffffffffffffffffffffffffffffffff16021790555085600b5f6101000a81548173ffffffffffffffffffffffffffffffffffffffff021916908373ffffffffffffffffffffffffffffffffffffffff1602179055506402540be400600f8190555062015180683635c9adc5dea00000600f5467a688906bd8b000006110e39190615343565b6110ed91906153b1565b6110f791906153b1565b600e81905550600a6013819055504260108190555068056bc75e2d6310000060065f6001600681111561112d5761112c614d38565b5b600681111561113f5761113e614d38565b5b81526020019081526020015f2081905550681043561a882930000060065f6002600681111561117157611170614d38565b5b600681111561118357611182614d38565b5b81526020019081526020015f2081905550681b1ae4d6e2ef50000060065f600360068111156111b5576111b4614d38565b5b60068111156111c7576111c6614d38565b5b81526020019081526020015f2081905550683635c9adc5dea0000060065f600460068111156111f9576111f8614d38565b5b600681111561120b5761120a614d38565b5b81526020019081526020015f208190555068a2a15d09519be0000060065f6005600681111561123d5761123c614d38565b5b600681111561124f5761124e614d38565b5b81526020019081526020015f208190555083156112ba575f855f0160086101000a81548160ff0219169083151502179055507fc7f505b2f371ae2175ee4913f4499e1f2633a7b5936321eed1cdaeb6115181d260016040516112b191906154c2565b60405180910390a15b50505050505050505050565b606060035f8373ffffffffffffffffffffffffffffffffffffffff1673ffffffffffffffffffffffffffffffffffffffff1681526020019081526020015f20805480602002602001604051908101604052809291908181526020015f905b828210156113bc578382905f5260205f2090600302016040518060600160405290815f82015f9054906101000a900473ffffffffffffffffffffffffffffffffffffffff1673ffffffffffffffffffffffffffffffffffffffff1673ffffffffffffffffffffffffffffffffffffffff1681526020016001820154815260200160028201548152505081526020019060010190611324565b505050509050919050565b6001602052805f5260405f205f91509050805f0154908060010154908060020154908060030154908060040154905085565b5f5f60015f8473ffffffffffffffffffffffffffffffffffffffff1673ffffffffffffffffffffffffffffffffffffffff1681526020019081526020015f2090505f8160040154600f5461144c86612dd6565b61145691906153b1565b61145f86610b6d565b846003015461146e91906154db565b61147891906154db565b61148291906154db565b90508160010154825f01546114979190615343565b8111156114ab57815f0154925050506114b1565b5f925050505b919050565b60025f3373ffffffffffffffffffffffffffffffffffffffff1673ffffffffffffffffffffffffffffffffffffffff1681526020019081526020015f2060040154811115611530576040517f6aea990400000000000000000000000000000000000000000000000000000000815260040160405180910390fd5b611571733c83065b83a8fd66587f330845f4603f7c49275c33600b5f9054906101000a900473ffffffffffffffffffffffffffffffffffffffff1684613218565b600b5f9054906101000a900473ffffffffffffffffffffffffffffffffffffffff1673ffffffffffffffffffffffffffffffffffffffff166379e32cd933836040518363ffffffff1660e01b81526004016115cd92919061550e565b5f604051808303815f87803b1580156115e4575f5ffd5b505af11580156115f6573d5f5f3e3d5ffd5b505050508060025f3373ffffffffffffffffffffffffffffffffffffffff1673ffffffffffffffffffffffffffffffffffffffff1681526020019081526020015f206004015f8282546116499190615310565b9250508190555050565b600f5481565b600b5f9054906101000a900473ffffffffffffffffffffffffffffffffffffffff1681565b6002602052805f5260405f205f91509050805f015f9054906101000a900473ffffffffffffffffffffffffffffffffffffffff1690805f0160149054906101000a900460ff1690806001015490806002015490806003015490806004015490806005015490806006015f9054906101000a900460ff16905088565b5f5f60015f8473ffffffffffffffffffffffffffffffffffffffff1673ffffffffffffffffffffffffffffffffffffffff1681526020019081526020015f206040518060a00160405290815f820154815260200160018201548152602001600282015481526020016003820154815260200160048201548152505090505f815f015103611789575f9150506118cb565b5f61179384610b6d565b90505f61179f85612dd6565b90505f60025f8773ffffffffffffffffffffffffffffffffffffffff1673ffffffffffffffffffffffffffffffffffffffff1681526020019081526020015f2060030154828486606001516117f491906154db565b6117fe91906154db565b61180891906154db565b905060085f9054906101000a900473ffffffffffffffffffffffffffffffffffffffff1673ffffffffffffffffffffffffffffffffffffffff168673ffffffffffffffffffffffffffffffffffffffff160361186a57809450505050506118cb565b5f8460200151855f015161187e9190615343565b905080856080015110611898575f955050505050506118cb565b5f8560800151826118a99190615310565b9050808311156118c1578096505050505050506118cb565b8296505050505050505b919050565b6118d861319d565b600d5f9054906101000a900460ff1615611927576040517f08c379a000000000000000000000000000000000000000000000000000000000815260040161191e9061557f565b60405180910390fd5b5f60015f3373ffffffffffffffffffffffffffffffffffffffff1673ffffffffffffffffffffffffffffffffffffffff1681526020019081526020015f2090505f815f0154036119a3576040517fcacf989a00000000000000000000000000000000000000000000000000000000815260040160405180910390fd5b5f6119ad336113f9565b600c546119ba9190615310565b90506119c58161334b565b5f6119cf336116f9565b90505f8103611a0a576040517f6e99268600000000000000000000000000000000000000000000000000000000815260040160405180910390fd5b5f836003018190555080836004015f828254611a2691906154db565b925050819055505f60025f3373ffffffffffffffffffffffffffffffffffffffff1673ffffffffffffffffffffffffffffffffffffffff1681526020019081526020015f2090505f8160030181905550600680811115611a8957611a88614d38565b5b815f0160149054906101000a900460ff166006811115611aac57611aab614d38565b5b03611acc578060020154601154611ac39190615343565b81600501819055505b600b5f9054906101000a900473ffffffffffffffffffffffffffffffffffffffff1673ffffffffffffffffffffffffffffffffffffffff16632d019c4233846040518363ffffffff1660e01b8152600401611b2892919061550e565b5f604051808303815f87803b158015611b3f575f5ffd5b505af1158015611b51573d5f5f3e3d5ffd5b505050507fd8138f8a3f377c5259ca548e70e4c2de94f129f5a11036a15b69513cba2b426a3383604051611b8692919061550e565b60405180910390a150505050611b9a6131e1565b565b611ba46133e4565b611bad826134ca565b611bb782826134d5565b5050565b5f611bc46135f3565b7f360894a13ba1a3210667c828492db98dca3e2076cc3735a920a3ca505d382bbc5f1b905090565b3373ffffffffffffffffffffffffffffffffffffffff1660075f9054906101000a900473ffffffffffffffffffffffffffffffffffffffff1673ffffffffffffffffffffffffffffffffffffffff1614611c7b576040517f08c379a0000000000000000000000000000000000000000000000000000000008152600401611c72906155e7565b60405180910390fd5b611c8683828461367a565b505050565b611c936137aa565b611c9c5f613831565b565b611ca661319d565b611caf336120b2565b15611ce6576040517f1d9410b700000000000000000000000000000000000000000000000000000000815260040160405180910390fd5b5f73ffffffffffffffffffffffffffffffffffffffff168173ffffffffffffffffffffffffffffffffffffffff1603611d4b576040517fd92e233d00000000000000000000000000000000000000000000000000000000815260040160405180910390fd5b3373ffffffffffffffffffffffffffffffffffffffff168173ffffffffffffffffffffffffffffffffffffffff1603611db0576040517f4f2f060100000000000000000000000000000000000000000000000000000000815260040160405180910390fd5b60085f9054906101000a900473ffffffffffffffffffffffffffffffffffffffff1673ffffffffffffffffffffffffffffffffffffffff168173ffffffffffffffffffffffffffffffffffffffff1614611f1c575f73ffffffffffffffffffffffffffffffffffffffff1660025f8373ffffffffffffffffffffffffffffffffffffffff1673ffffffffffffffffffffffffffffffffffffffff1681526020019081526020015f205f015f9054906101000a900473ffffffffffffffffffffffffffffffffffffffff1673ffffffffffffffffffffffffffffffffffffffff1614158015611edc57505f60015f8373ffffffffffffffffffffffffffffffffffffffff1673ffffffffffffffffffffffffffffffffffffffff1681526020019081526020015f205f0154115b611f1b576040517f08c379a0000000000000000000000000000000000000000000000000000000008152600401611f1290615675565b60405180910390fd5b5b5f73ffffffffffffffffffffffffffffffffffffffff1660025f3373ffffffffffffffffffffffffffffffffffffffff1673ffffffffffffffffffffffffffffffffffffffff1681526020019081526020015f205f015f9054906101000a900473ffffffffffffffffffffffffffffffffffffffff1673ffffffffffffffffffffffffffffffffffffffff1614611fdf576040517f5b3d5a1b00000000000000000000000000000000000000000000000000000000815260040160405180910390fd5b8060025f3373ffffffffffffffffffffffffffffffffffffffff1673ffffffffffffffffffffffffffffffffffffffff1681526020019081526020015f205f015f6101000a81548173ffffffffffffffffffffffffffffffffffffffff021916908373ffffffffffffffffffffffffffffffffffffffff1602179055507f455db5b564134af440ac23bd273ce313070080fc2c3d5d36c03f62de3c628498813360405161208d929190615693565b60405180910390a161209d6131e1565b50565b600d5f9054906101000a900460ff1681565b5f5f60095f9054906101000a900473ffffffffffffffffffffffffffffffffffffffff1673ffffffffffffffffffffffffffffffffffffffff16631959a002846040518263ffffffff1660e01b815260040161210e9190614a49565b608060405180830381865afa158015612129573d5f5f3e3d5ffd5b505050506040513d601f19601f8201168201806040525081019061214d9190615409565b50505090505f73ffffffffffffffffffffffffffffffffffffffff168173ffffffffffffffffffffffffffffffffffffffff16141580156121d8575060025f8473ffffffffffffffffffffffffffffffffffffffff1673ffffffffffffffffffffffffffffffffffffffff1681526020019081526020015f206006015f9054906101000a900460ff16155b915050919050565b5f5f60015f8473ffffffffffffffffffffffffffffffffffffffff1673ffffffffffffffffffffffffffffffffffffffff1681526020019081526020015f205f0154119050919050565b5f5f612234613902565b9050805f015f9054906101000a900473ffffffffffffffffffffffffffffffffffffffff1691505090565b600e5481565b60105481565b5f5f5f5f5f5f60025f8873ffffffffffffffffffffffffffffffffffffffff1673ffffffffffffffffffffffffffffffffffffffff1681526020019081526020015f20604051806101000160405290815f82015f9054906101000a900473ffffffffffffffffffffffffffffffffffffffff1673ffffffffffffffffffffffffffffffffffffffff1673ffffffffffffffffffffffffffffffffffffffff1681526020015f820160149054906101000a900460ff16600681111561233257612331614d38565b5b600681111561234457612343614d38565b5b81526020016001820154815260200160028201548152602001600382015481526020016004820154815260200160058201548152602001600682015f9054906101000a900460ff16151515158152505090508060400151955080606001519450806080015193508060a0015192508060e0015191505091939590929450565b6005602052805f5260405f205f915054906101000a900460ff1681565b6123e861319d565b5f60015f3373ffffffffffffffffffffffffffffffffffffffff1673ffffffffffffffffffffffffffffffffffffffff1681526020019081526020015f2090505f60025f3373ffffffffffffffffffffffffffffffffffffffff1673ffffffffffffffffffffffffffffffffffffffff1681526020019081526020015f2090505f73ffffffffffffffffffffffffffffffffffffffff16815f015f9054906101000a900473ffffffffffffffffffffffffffffffffffffffff1673ffffffffffffffffffffffffffffffffffffffff16036124ef576040517faf4d1ef200000000000000000000000000000000000000000000000000000000815260040160405180910390fd5b68056bc75e2d63100000831015612532576040517f1fbaba3500000000000000000000000000000000000000000000000000000000815260040160405180910390fd5b5f60646001856125429190615343565b61254c91906153b1565b90505f606460018661255e9190615343565b61256891906153b1565b90506125b6733c83065b83a8fd66587f330845f4603f7c49275c33600b5f9054906101000a900473ffffffffffffffffffffffffffffffffffffffff1685896125b19190615310565b613218565b6125f7733c83065b83a8fd66587f330845f4603f7c49275c33600a5f9054906101000a900473ffffffffffffffffffffffffffffffffffffffff1685613218565b600b5f9054906101000a900473ffffffffffffffffffffffffffffffffffffffff1673ffffffffffffffffffffffffffffffffffffffff166303ec9fb0826040518263ffffffff1660e01b815260040161265191906149f1565b5f604051808303815f87803b158015612668575f5ffd5b505af115801561267a573d5f5f3e3d5ffd5b505050505f73ffffffffffffffffffffffffffffffffffffffff16600a5f9054906101000a900473ffffffffffffffffffffffffffffffffffffffff1673ffffffffffffffffffffffffffffffffffffffff161461275a57600a5f9054906101000a900473ffffffffffffffffffffffffffffffffffffffff1673ffffffffffffffffffffffffffffffffffffffff1663cc430ced836040518263ffffffff1660e01b815260040161272c91906149f1565b5f604051808303815f87803b158015612743575f5ffd5b505af1158015612755573d5f5f3e3d5ffd5b505050505b600b5f9054906101000a900473ffffffffffffffffffffffffffffffffffffffff1673ffffffffffffffffffffffffffffffffffffffff166351c6590a8284886127a49190615310565b6127ae9190615310565b6040518263ffffffff1660e01b81526004016127ca91906149f1565b5f604051808303815f87803b1580156127e1575f5ffd5b505af11580156127f3573d5f5f3e3d5ffd5b5050505061280033613929565b61280b600c5461334b565b60068081111561281e5761281d614d38565b5b835f0160149054906101000a900460ff16600681111561284157612840614d38565b5b036128505761284f33613a02565b5b84845f015f82825461286291906154db565b925050819055505f68a2a15d09519be00000855f015411612884576002612887565b60035b60ff169050808560010154146128a1578085600101819055505b85600c5f8282546128b291906154db565b9250508190555060055f3373ffffffffffffffffffffffffffffffffffffffff1673ffffffffffffffffffffffffffffffffffffffff1681526020019081526020015f205f9054906101000a900460ff16612a1a5760045f855f015f9054906101000a900473ffffffffffffffffffffffffffffffffffffffff1673ffffffffffffffffffffffffffffffffffffffff1673ffffffffffffffffffffffffffffffffffffffff1681526020019081526020015f2033908060018154018082558091505060019003905f5260205f20015f9091909190916101000a81548173ffffffffffffffffffffffffffffffffffffffff021916908373ffffffffffffffffffffffffffffffffffffffff160217905550600160055f3373ffffffffffffffffffffffffffffffffffffffff1673ffffffffffffffffffffffffffffffffffffffff1681526020019081526020015f205f6101000a81548160ff0219169083151502179055505b612a243387613b03565b7f9e71bc8eea02a63969f509818f2dafb9254532904319f9dbda79b67bd34a5f3d3387604051612a5592919061550e565b60405180910390a15050505050612a6a6131e1565b50565b60095f9054906101000a900473ffffffffffffffffffffffffffffffffffffffff1681565b6040518060400160405280600581526020017f352e302e3000000000000000000000000000000000000000000000000000000081525081565b600c5481565b5f5f5f5f5f5f5f60015f8973ffffffffffffffffffffffffffffffffffffffff1673ffffffffffffffffffffffffffffffffffffffff1681526020019081526020015f206040518060a00160405290815f820154815260200160018201548152602001600282015481526020016003820154815260200160048201548152505090505f60025f8a73ffffffffffffffffffffffffffffffffffffffff1673ffffffffffffffffffffffffffffffffffffffff1681526020019081526020015f20604051806101000160405290815f82015f9054906101000a900473ffffffffffffffffffffffffffffffffffffffff1673ffffffffffffffffffffffffffffffffffffffff1673ffffffffffffffffffffffffffffffffffffffff1681526020015f820160149054906101000a900460ff166006811115612c1557612c14614d38565b5b6006811115612c2757612c26614d38565b5b81526020016001820154815260200160028201548152602001600382015481526020016004820154815260200160058201548152602001600682015f9054906101000a900460ff161515151581525050905080602001519750805f01519650815f0151955081602001519450612c9c896116f9565b9350612ca789612dd6565b9250505091939550919395565b3373ffffffffffffffffffffffffffffffffffffffff1660075f9054906101000a900473ffffffffffffffffffffffffffffffffffffffff1673ffffffffffffffffffffffffffffffffffffffff1614612d43576040517f08c379a0000000000000000000000000000000000000000000000000000000008152600401612d3a906155e7565b60405180910390fd5b80600d5f6101000a81548160ff02191690831515021790555050565b6003602052815f5260405f208181548110612d78575f80fd5b905f5260205f2090600302015f9150915050805f015f9054906101000a900473ffffffffffffffffffffffffffffffffffffffff16908060010154908060020154905083565b733c83065b83a8fd66587f330845f4603f7c49275c81565b5f5f60105403612de8575f9050612ff0565b5f60025f8473ffffffffffffffffffffffffffffffffffffffff1673ffffffffffffffffffffffffffffffffffffffff1681526020019081526020015f20604051806101000160405290815f82015f9054906101000a900473ffffffffffffffffffffffffffffffffffffffff1673ffffffffffffffffffffffffffffffffffffffff1673ffffffffffffffffffffffffffffffffffffffff1681526020015f820160149054906101000a900460ff166006811115612eaa57612ea9614d38565b5b6006811115612ebc57612ebb614d38565b5b81526020016001820154815260200160028201548152602001600382015481526020016004820154815260200160058201548152602001600682015f9054906101000a900460ff16151515158152505090505f81606001511480612f2157505f601254145b15612f2f575f915050612ff0565b5f60115490505f60105442612f449190615310565b90505f811115612fa2575f6064601354600e5484600c54612f659190615343565b612f6f9190615343565b612f799190615343565b612f8391906153b1565b905060125481612f9391906153b1565b83612f9e91906154db565b9250505b5f600f54838560600151612fb69190615343565b612fc091906153b1565b90508360c001518111612fd9575f945050505050612ff0565b8360c0015181612fe99190615310565b9450505050505b919050565b600a5f9054906101000a900473ffffffffffffffffffffffffffffffffffffffff1681565b606060045f8373ffffffffffffffffffffffffffffffffffffffff1673ffffffffffffffffffffffffffffffffffffffff1681526020019081526020015f208054806020026020016040519081016040528092919081815260200182805480156130d657602002820191905f5260205f20905b815f9054906101000a900473ffffffffffffffffffffffffffffffffffffffff1673ffffffffffffffffffffffffffffffffffffffff168152602001906001019080831161308d575b50505050509050919050565b60125481565b60115481565b6130f66137aa565b5f73ffffffffffffffffffffffffffffffffffffffff168173ffffffffffffffffffffffffffffffffffffffff1603613166575f6040517f1e4fbdf700000000000000000000000000000000000000000000000000000000815260040161315d9190614a49565b60405180910390fd5b61316f81613831565b50565b60075f9054906101000a900473ffffffffffffffffffffffffffffffffffffffff1681565b60135481565b60025f54036131d8576040517f3ee5aeb500000000000000000000000000000000000000000000000000000000815260040160405180910390fd5b60025f81905550565b60015f81905550565b5f5f6131f46141a8565b90508091505090565b5f33905090565b61320c6141d1565b61321581614211565b50565b5f5f8573ffffffffffffffffffffffffffffffffffffffff166323b872dd86868660405160240161324b939291906156ba565b6040516020818303038152906040529060e01b6020820180517bffffffffffffffffffffffffffffffffffffffffffffffffffffffff83818316178352505050506040516132999190615733565b5f604051808303815f865af19150503d805f81146132d2576040519150601f19603f3d011682016040523d82523d5f602084013e6132d7565b606091505b509150915081801561330457505f81511480613303575080806020019051810190613302919061575d565b5b5b613343576040517f08c379a000000000000000000000000000000000000000000000000000000000815260040161333a906157f8565b60405180910390fd5b505050505050565b5f6010544261335a9190615310565b90505f81148061336b57505f601254145b1561337d5742601081905550506133e1565b5f6064601354600e5484866133929190615343565b61339c9190615343565b6133a69190615343565b6133b091906153b1565b9050601254816133c091906153b1565b60115f8282546133d091906154db565b925050819055504260108190555050505b50565b7f000000000000000000000000000000000000000000000000000000000000000073ffffffffffffffffffffffffffffffffffffffff163073ffffffffffffffffffffffffffffffffffffffff16148061349157507f000000000000000000000000000000000000000000000000000000000000000073ffffffffffffffffffffffffffffffffffffffff16613478614295565b73ffffffffffffffffffffffffffffffffffffffff1614155b156134c8576040517fe07c8dba00000000000000000000000000000000000000000000000000000000815260040160405180910390fd5b565b6134d26137aa565b50565b8173ffffffffffffffffffffffffffffffffffffffff166352d1902d6040518163ffffffff1660e01b8152600401602060405180830381865afa92505050801561353d57506040513d601f19601f8201168201806040525081019061353a9190615840565b60015b61357e57816040517f4c9c8ce30000000000000000000000000000000000000000000000000000000081526004016135759190614a49565b60405180910390fd5b7f360894a13ba1a3210667c828492db98dca3e2076cc3735a920a3ca505d382bbc5f1b81146135e457806040517faa1d49a40000000000000000000000000000000000000000000000000000000081526004016135db9190614fef565b60405180910390fd5b6135ee83836142e8565b505050565b7f000000000000000000000000000000000000000000000000000000000000000073ffffffffffffffffffffffffffffffffffffffff163073ffffffffffffffffffffffffffffffffffffffff1614613678576040517fe07c8dba00000000000000000000000000000000000000000000000000000000815260040160405180910390fd5b565b5f5f8473ffffffffffffffffffffffffffffffffffffffff1663a9059cbb85856040516024016136ab92919061550e565b6040516020818303038152906040529060e01b6020820180517bffffffffffffffffffffffffffffffffffffffffffffffffffffffff83818316178352505050506040516136f99190615733565b5f604051808303815f865af19150503d805f8114613732576040519150601f19603f3d011682016040523d82523d5f602084013e613737565b606091505b509150915081801561376457505f81511480613763575080806020019051810190613762919061575d565b5b5b6137a3576040517f08c379a000000000000000000000000000000000000000000000000000000000815260040161379a906158b5565b60405180910390fd5b5050505050565b6137b26131fd565b73ffffffffffffffffffffffffffffffffffffffff166137d061222a565b73ffffffffffffffffffffffffffffffffffffffff161461382f576137f36131fd565b6040517f118cdaa70000000000000000000000000000000000000000000000000000000081526004016138269190614a49565b60405180910390fd5b565b5f61383a613902565b90505f815f015f9054906101000a900473ffffffffffffffffffffffffffffffffffffffff16905082825f015f6101000a81548173ffffffffffffffffffffffffffffffffffffffff021916908373ffffffffffffffffffffffffffffffffffffffff1602179055508273ffffffffffffffffffffffffffffffffffffffff168173ffffffffffffffffffffffffffffffffffffffff167f8be0079c531659141344cd1fd0a4f28419497f9722a3daafe3b4186f6b6457e060405160405180910390a3505050565b5f7f9016d09d72d40fdae2fd8ceac6b6234c7706214fd39c1cd1e609a0528c199300905090565b5f60015f8373ffffffffffffffffffffffffffffffffffffffff1673ffffffffffffffffffffffffffffffffffffffff1681526020019081526020015f2090505f815f01540361398257428160020181905550506139ff565b5f8160020154426139939190615310565b90505f81036139a35750506139ff565b5f600f54835f0154600e54846139b99190615343565b6139c39190615343565b6139cd91906153b1565b90505f8111156139f25780836003015f8282546139ea91906154db565b925050819055505b4283600201819055505050505b50565b5f613a0c33612dd6565b90505f811115613aff578060015f8473ffffffffffffffffffffffffffffffffffffffff1673ffffffffffffffffffffffffffffffffffffffff1681526020019081526020015f206003015f828254613a6591906154db565b9250508190555060025f8373ffffffffffffffffffffffffffffffffffffffff1673ffffffffffffffffffffffffffffffffffffffff1681526020019081526020015f2060020154601154613aba9190615343565b60025f8473ffffffffffffffffffffffffffffffffffffffff1673ffffffffffffffffffffffffffffffffffffffff1681526020019081526020015f20600501819055505b5050565b5f60025f8473ffffffffffffffffffffffffffffffffffffffff1673ffffffffffffffffffffffffffffffffffffffff1681526020019081526020015f205f015f9054906101000a900473ffffffffffffffffffffffffffffffffffffffff169050613b6d6148e0565b5f603290505b5f73ffffffffffffffffffffffffffffffffffffffff168373ffffffffffffffffffffffffffffffffffffffff161461410a575f60025f8573ffffffffffffffffffffffffffffffffffffffff1673ffffffffffffffffffffffffffffffffffffffff1681526020019081526020015f2090506001816001015f828254613bfa91906154db565b9250508190555084816002015f828254613c1491906154db565b925050819055505f5f905060056006811115613c3357613c32614d38565b5b825f0160149054906101000a900460ff166006811115613c5657613c55614d38565b5b03613d81575f60045f8773ffffffffffffffffffffffffffffffffffffffff1673ffffffffffffffffffffffffffffffffffffffff1681526020019081526020015f2090505f818054905090505f5f90505b81811015613d7d5760056006811115613cc457613cc3614d38565b5b60025f858481548110613cda57613cd96158d3565b5b905f5260205f20015f9054906101000a900473ffffffffffffffffffffffffffffffffffffffff1673ffffffffffffffffffffffffffffffffffffffff1673ffffffffffffffffffffffffffffffffffffffff1681526020019081526020015f205f0160149054906101000a900460ff166006811115613d5d57613d5c614d38565b5b03613d72578360010193506002841015613d7d575b806001019050613ca8565b5050505b5f5f613d9e845f0160149054906101000a900460ff16878a61435a565b915091508015613f065781846003015f828254613dbb91906154db565b9250508190555060035f8873ffffffffffffffffffffffffffffffffffffffff1673ffffffffffffffffffffffffffffffffffffffff1681526020019081526020015f2060405180606001604052808b73ffffffffffffffffffffffffffffffffffffffff16815260200184815260200142815250908060018154018082558091505060019003905f5260205f2090600302015f909190919091505f820151815f015f6101000a81548173ffffffffffffffffffffffffffffffffffffffff021916908373ffffffffffffffffffffffffffffffffffffffff16021790555060208201518160010155604082015181600201555050600186855f0160149054906101000a900460ff166006811115613ed657613ed5614d38565b5b60068110613ee757613ee66158d3565b5b602002019015159081151581525050600a85613f039190615310565b94505b5f5f5f61403a87604051806101000160405290815f82015f9054906101000a900473ffffffffffffffffffffffffffffffffffffffff1673ffffffffffffffffffffffffffffffffffffffff1673ffffffffffffffffffffffffffffffffffffffff1681526020015f820160149054906101000a900460ff166006811115613f9157613f90614d38565b5b6006811115613fa357613fa2614d38565b5b81526020016001820154815260200160028201548152602001600382015481526020016004820154815260200160058201548152602001600682015f9054906101000a900460ff16151515158152505060045f8d73ffffffffffffffffffffffffffffffffffffffff1673ffffffffffffffffffffffffffffffffffffffff1681526020019081526020015f20805490508861441b565b92509250925080156140d95782875f0160146101000a81548160ff0219169083600681111561406c5761406b614d38565b5b02179055508160125f82825461408291906154db565b9250508190555060065f84600681111561409f5761409e614d38565b5b60068111156140b1576140b0614d38565b5b81526020019081526020015f2054876004015f8282546140d191906154db565b925050819055505b865f015f9054906101000a900473ffffffffffffffffffffffffffffffffffffffff16995050505050505050613b73565b5f8111156141a157606481856141209190615343565b61412a91906153b1565b60025f60085f9054906101000a900473ffffffffffffffffffffffffffffffffffffffff1673ffffffffffffffffffffffffffffffffffffffff1673ffffffffffffffffffffffffffffffffffffffff1681526020019081526020015f206003015f82825461419991906154db565b925050819055505b5050505050565b5f7ff0c57e16840df040f15088dc2f81fe391c3923bec73e23a9662efc9c229c6a005f1b905090565b6141d9614680565b61420f576040517fd7e6bcf800000000000000000000000000000000000000000000000000000000815260040160405180910390fd5b565b6142196141d1565b5f73ffffffffffffffffffffffffffffffffffffffff168173ffffffffffffffffffffffffffffffffffffffff1603614289575f6040517f1e4fbdf70000000000000000000000000000000000000000000000000000000081526004016142809190614a49565b60405180910390fd5b61429281613831565b50565b5f6142c17f360894a13ba1a3210667c828492db98dca3e2076cc3735a920a3ca505d382bbc5f1b61469e565b5f015f9054906101000a900473ffffffffffffffffffffffffffffffffffffffff16905090565b6142f1826146a7565b8173ffffffffffffffffffffffffffffffffffffffff167fbc7cd75a20ee27fd9adebab32041f755214dbc6bffa90cc0225b39da2e5c2d3b60405160405180910390a25f8151111561434d576143478282614770565b50614356565b614355614861565b5b5050565b5f5f5f91505f905060068081111561437557614374614d38565b5b85600681111561438857614387614d38565b5b141580156143ba57505f60068111156143a4576143a3614d38565b5b8560068111156143b7576143b6614d38565b5b14155b15614413575f8560068111156143d3576143d2614d38565b5b90508481600681106143e8576143e76158d3565b5b6020020151614411576064600a856144009190615343565b61440a91906153b1565b9250600191505b505b935093915050565b5f5f5f856020015192505f91505f90505f600681111561443e5761443d614d38565b5b8660200151600681111561445557614454614d38565b5b148015614463575060038510155b801561447d575069021e19e0c9bab2400000866060015110155b1561448f576001925060019050614677565b600160068111156144a3576144a2614d38565b5b866020015160068111156144ba576144b9614d38565b5b1480156144c8575060048510155b80156144e25750690a968163f0a57b400000866060015110155b156144f4576002925060019050614676565b6002600681111561450857614507614d38565b5b8660200151600681111561451f5761451e614d38565b5b14801561452d575060058510155b80156145475750692a5a058fc295ed000000866060015110155b15614559576003925060019050614675565b6003600681111561456d5761456c614d38565b5b8660200151600681111561458457614583614d38565b5b148015614592575060078510155b80156145ac575069a968163f0a57b4000000866060015110155b156145be576004925060019050614674565b600460068111156145d2576145d1614d38565b5b866020015160068111156145e9576145e8614d38565b5b1480156145f7575060098510155b801561461257506a027b46536c66c8e3000000866060015110155b15614624576005925060019050614673565b6005600681111561463857614637614d38565b5b8660200151600681111561464f5761464e614d38565b5b14801561465d575060028410155b15614672576006925085606001519150600190505b5b5b5b5b5b93509350939050565b5f6146896131ea565b5f0160089054906101000a900460ff16905090565b5f819050919050565b5f8173ffffffffffffffffffffffffffffffffffffffff163b0361470257806040517f4c9c8ce30000000000000000000000000000000000000000000000000000000081526004016146f99190614a49565b60405180910390fd5b8061472e7f360894a13ba1a3210667c828492db98dca3e2076cc3735a920a3ca505d382bbc5f1b61469e565b5f015f6101000a81548173ffffffffffffffffffffffffffffffffffffffff021916908373ffffffffffffffffffffffffffffffffffffffff16021790555050565b60605f61477d848461489d565b90508080156147b357505f6147906148b1565b11806147b257505f8473ffffffffffffffffffffffffffffffffffffffff163b115b5b156147c8576147c06148b8565b91505061485b565b801561480b57836040517f9996b3150000000000000000000000000000000000000000000000000000000081526004016148029190614a49565b60405180910390fd5b5f6148146148b1565b1115614827576148226148d5565b614859565b6040517fd6bda27500000000000000000000000000000000000000000000000000000000815260040160405180910390fd5b505b92915050565b5f34111561489b576040517fb398979f00000000000000000000000000000000000000000000000000000000815260040160405180910390fd5b565b5f5f5f835160208501865af4905092915050565b5f3d905090565b606060405190503d81523d5f602083013e3d602001810160405290565b6040513d5f823e3d81fd5b6040518060c00160405280600690602082028036833780820191505090505090565b5f82825260208201905092915050565b7f4e4f5f4449524543545f53454e440000000000000000000000000000000000005f82015250565b5f614946600e83614902565b915061495182614912565b602082019050919050565b5f6020820190508181035f8301526149738161493a565b9050919050565b5f604051905090565b5f5ffd5b5f5ffd5b60078110614997575f5ffd5b50565b5f813590506149a88161498b565b92915050565b5f602082840312156149c3576149c2614983565b5b5f6149d08482850161499a565b91505092915050565b5f819050919050565b6149eb816149d9565b82525050565b5f602082019050614a045f8301846149e2565b92915050565b5f73ffffffffffffffffffffffffffffffffffffffff82169050919050565b5f614a3382614a0a565b9050919050565b614a4381614a29565b82525050565b5f602082019050614a5c5f830184614a3a565b92915050565b614a6b81614a29565b8114614a75575f5ffd5b50565b5f81359050614a8681614a62565b92915050565b614a95816149d9565b8114614a9f575f5ffd5b50565b5f81359050614ab081614a8c565b92915050565b5f5f60408385031215614acc57614acb614983565b5b5f614ad985828601614a78565b9250506020614aea85828601614aa2565b9150509250929050565b5f60208284031215614b0957614b08614983565b5b5f614b1684828501614a78565b91505092915050565b5f5f5f5f5f60a08688031215614b3857614b37614983565b5b5f614b4588828901614a78565b9550506020614b5688828901614a78565b9450506040614b6788828901614a78565b9350506060614b7888828901614a78565b9250506080614b8988828901614a78565b9150509295509295909350565b5f81519050919050565b5f82825260208201905092915050565b5f819050602082019050919050565b614bc881614a29565b82525050565b614bd7816149d9565b82525050565b606082015f820151614bf15f850182614bbf565b506020820151614c046020850182614bce565b506040820151614c176040850182614bce565b50505050565b5f614c288383614bdd565b60608301905092915050565b5f602082019050919050565b5f614c4a82614b96565b614c548185614ba0565b9350614c5f83614bb0565b805f5b83811015614c8f578151614c768882614c1d565b9750614c8183614c34565b925050600181019050614c62565b5085935050505092915050565b5f6020820190508181035f830152614cb48184614c40565b905092915050565b5f60a082019050614ccf5f8301886149e2565b614cdc60208301876149e2565b614ce960408301866149e2565b614cf660608301856149e2565b614d0360808301846149e2565b9695505050505050565b5f60208284031215614d2257614d21614983565b5b5f614d2f84828501614aa2565b91505092915050565b7f4e487b71000000000000000000000000000000000000000000000000000000005f52602160045260245ffd5b60078110614d7657614d75614d38565b5b50565b5f819050614d8682614d65565b919050565b5f614d9582614d79565b9050919050565b614da581614d8b565b82525050565b5f8115159050919050565b614dbf81614dab565b82525050565b5f61010082019050614dd95f83018b614a3a565b614de6602083018a614d9c565b614df360408301896149e2565b614e0060608301886149e2565b614e0d60808301876149e2565b614e1a60a08301866149e2565b614e2760c08301856149e2565b614e3460e0830184614db6565b9998505050505050505050565b5f5ffd5b5f5ffd5b5f601f19601f8301169050919050565b7f4e487b71000000000000000000000000000000000000000000000000000000005f52604160045260245ffd5b614e8f82614e49565b810181811067ffffffffffffffff82111715614eae57614ead614e59565b5b80604052505050565b5f614ec061497a565b9050614ecc8282614e86565b919050565b5f67ffffffffffffffff821115614eeb57614eea614e59565b5b614ef482614e49565b9050602081019050919050565b828183375f83830152505050565b5f614f21614f1c84614ed1565b614eb7565b905082815260208101848484011115614f3d57614f3c614e45565b5b614f48848285614f01565b509392505050565b5f82601f830112614f6457614f63614e41565b5b8135614f74848260208601614f0f565b91505092915050565b5f5f60408385031215614f9357614f92614983565b5b5f614fa085828601614a78565b925050602083013567ffffffffffffffff811115614fc157614fc0614987565b5b614fcd85828601614f50565b9150509250929050565b5f819050919050565b614fe981614fd7565b82525050565b5f6020820190506150025f830184614fe0565b92915050565b5f5f5f6060848603121561501f5761501e614983565b5b5f61502c86828701614a78565b935050602061503d86828701614aa2565b925050604061504e86828701614a78565b9150509250925092565b5f60208201905061506b5f830184614db6565b92915050565b5f60a0820190506150845f8301886149e2565b61509160208301876149e2565b61509e60408301866149e2565b6150ab60608301856149e2565b6150b86080830184614db6565b9695505050505050565b5f81519050919050565b8281835e5f83830152505050565b5f6150e4826150c2565b6150ee8185614902565b93506150fe8185602086016150cc565b61510781614e49565b840191505092915050565b5f6020820190508181035f83015261512a81846150da565b905092915050565b5f60c0820190506151455f830189614d9c565b6151526020830188614a3a565b61515f60408301876149e2565b61516c60608301866149e2565b61517960808301856149e2565b61518660a08301846149e2565b979650505050505050565b61519a81614dab565b81146151a4575f5ffd5b50565b5f813590506151b581615191565b92915050565b5f602082840312156151d0576151cf614983565b5b5f6151dd848285016151a7565b91505092915050565b5f6060820190506151f95f830186614a3a565b61520660208301856149e2565b61521360408301846149e2565b949350505050565b5f81519050919050565b5f82825260208201905092915050565b5f819050602082019050919050565b5f61524f8383614bbf565b60208301905092915050565b5f602082019050919050565b5f6152718261521b565b61527b8185615225565b935061528683615235565b805f5b838110156152b657815161529d8882615244565b97506152a88361525b565b925050600181019050615289565b5085935050505092915050565b5f6020820190508181035f8301526152db8184615267565b905092915050565b7f4e487b71000000000000000000000000000000000000000000000000000000005f52601160045260245ffd5b5f61531a826149d9565b9150615325836149d9565b925082820390508181111561533d5761533c6152e3565b5b92915050565b5f61534d826149d9565b9150615358836149d9565b9250828202615366816149d9565b9150828204841483151761537d5761537c6152e3565b5b5092915050565b7f4e487b71000000000000000000000000000000000000000000000000000000005f52601260045260245ffd5b5f6153bb826149d9565b91506153c6836149d9565b9250826153d6576153d5615384565b5b828204905092915050565b5f815190506153ef81614a62565b92915050565b5f8151905061540381614a8c565b92915050565b5f5f5f5f6080858703121561542157615420614983565b5b5f61542e878288016153e1565b945050602061543f878288016153f5565b9350506040615450878288016153f5565b9250506060615461878288016153f5565b91505092959194509250565b5f819050919050565b5f67ffffffffffffffff82169050919050565b5f819050919050565b5f6154ac6154a76154a28461546d565b615489565b615476565b9050919050565b6154bc81615492565b82525050565b5f6020820190506154d55f8301846154b3565b92915050565b5f6154e5826149d9565b91506154f0836149d9565b9250828201905080821115615508576155076152e3565b5b92915050565b5f6040820190506155215f830185614a3a565b61552e60208301846149e2565b9392505050565b7f46696e616e63652070617573652e0000000000000000000000000000000000005f82015250565b5f615569600e83614902565b915061557482615535565b602082019050919050565b5f6020820190508181035f8301526155968161555d565b9050919050565b7f4e6f74207065726d69742e0000000000000000000000000000000000000000005f82015250565b5f6155d1600b83614902565b91506155dc8261559d565b602082019050919050565b5f6020820190508181035f8301526155fe816155c5565b9050919050565b7f5245434f4d4d454e444154494f4e5f49535f52455155495245445f52454645525f8201527f52414c2e00000000000000000000000000000000000000000000000000000000602082015250565b5f61565f602483614902565b915061566a82615605565b604082019050919050565b5f6020820190508181035f83015261568c81615653565b9050919050565b5f6040820190506156a65f830185614a3a565b6156b36020830184614a3a565b9392505050565b5f6060820190506156cd5f830186614a3a565b6156da6020830185614a3a565b6156e760408301846149e2565b949350505050565b5f81519050919050565b5f81905092915050565b5f61570d826156ef565b61571781856156f9565b93506157278185602086016150cc565b80840191505092915050565b5f61573e8284615703565b915081905092915050565b5f8151905061575781615191565b92915050565b5f6020828403121561577257615771614983565b5b5f61577f84828501615749565b91505092915050565b7f5472616e7366657248656c7065723a205452414e534645525f46524f4d5f46415f8201527f494c454400000000000000000000000000000000000000000000000000000000602082015250565b5f6157e2602483614902565b91506157ed82615788565b604082019050919050565b5f6020820190508181035f83015261580f816157d6565b9050919050565b61581f81614fd7565b8114615829575f5ffd5b50565b5f8151905061583a81615816565b92915050565b5f6020828403121561585557615854614983565b5b5f6158628482850161582c565b91505092915050565b7f5472616e7366657248656c7065723a205452414e534645525f4641494c4544005f82015250565b5f61589f601f83614902565b91506158aa8261586b565b602082019050919050565b5f6020820190508181035f8301526158cc81615893565b9050919050565b7f4e487b71000000000000000000000000000000000000000000000000000000005f52603260045260245ffdfea2646970667358221220a1ab635d11d126d42995420bba4068886445a334b2ab1911768b6df21418a5a664736f6c634300081e0033","linkReferences":{}},"methodIdentifiers":{"DEAD()":"03fd2a45","UPGRADE_INTERFACE_VERSION()":"ad3cb1cc","USDT()":"c54e44eb","admin()":"f851a440","awardRecords(address,uint256)":"c023b3a5","claim()":"4e71d92d","decimals()":"313ce567","directReferrals(address,uint256)":"05ad3935","djsv1()":"ac6439b5","emergencyWithdraw(address,uint256,address)":"551512de","getDirectReferrals(address)":"d2c8e0e5","getInvalidStaking(address)":"19b12a53","getReferralAwardRecords(address)":"18785eb6","getUserAward(address)":"3e4ff6f2","getUserInfoBasic(address)":"b5006823","getUserInfoReferral(address)":"9238b0f9","getUserShareLevelAward(address)":"c7c93c94","getUserStakingAward(address)":"0acf716b","initialCode()":"10baf089","initialize(address,address,address,address,address)":"1459457a","isAddDirectReferrals(address)":"a3f2a64a","lastShareAwardTime()":"922be46d","liquidityManager()":"33827438","migrationReferral(address)":"0ff9ef12","nodeDividends()":"c7fb372f","owner()":"8da5cb5b","pause()":"8456cb59","perSecondStakedAeward()":"905635d4","perSharePerformanceAward()":"db81c515","proxiableUUID()":"52d1902d","referral(address)":"7247959a","referralInfo(address)":"39540b0a","renounceOwnership()":"715018a6","setPause(bool)":"bedb86fb","shareRate()":"fb802a65","stake(uint256)":"a694fc3a","subCoinQuotas(uint8)":"00c4bb2b","swapSubToken(uint256)":"1b602f22","totalSharePerformance()":"d567aadb","totalStakedUsdt()":"b2859e2b","transferOwnership(address)":"f2fde38b","upgradeToAndCall(address,bytes)":"4f1ef286","userInfo(address)":"1959a002","validReferralCode(address)":"87631a2a","whetherNeedMigrate(address)":"85215f7c"},"id":50}