{"abi":[{"type":"receive","stateMutability":"payable"},{"type":"function","name":"DEAD","inputs":[],"outputs":[{"name":"","type":"address","internalType":"address"}],"stateMutability":"view"},{"type":"function","name":"UPGRADE_INTERFACE_VERSION","inputs":[],"outputs":[{"name":"","type":"string","internalType":"string"}],"stateMutability":"view"},{"type":"function","name":"USDT","inputs":[],"outputs":[{"name":"","type":"address","internalType":"address"}],"stateMutability":"view"},{"type":"function","name":"admin","inputs":[],"outputs":[{"name":"","type":"address","internalType":"address"}],"stateMutability":"view"},{"type":"function","name":"awardRecords","inputs":[{"name":"","type":"address","internalType":"address"},{"name":"","type":"uint256","internalType":"uint256"}],"outputs":[{"name":"from","type":"address","internalType":"address"},{"name":"amount","type":"uint256","internalType":"uint256"},{"name":"time","type":"uint256","internalType":"uint256"}],"stateMutability":"view"},{"type":"function","name":"claim","inputs":[],"outputs":[],"stateMutability":"nonpayable"},{"type":"function","name":"decimals","inputs":[],"outputs":[{"name":"","type":"uint256","internalType":"uint256"}],"stateMutability":"view"},{"type":"function","name":"directReferrals","inputs":[{"name":"","type":"address","internalType":"address"},{"name":"","type":"uint256","internalType":"uint256"}],"outputs":[{"name":"","type":"address","internalType":"address"}],"stateMutability":"view"},{"type":"function","name":"djsv1","inputs":[],"outputs":[{"name":"","type":"address","internalType":"address"}],"stateMutability":"view"},{"type":"function","name":"emergencyWithdraw","inputs":[{"name":"_token","type":"address","internalType":"address"},{"name":"_amount","type":"uint256","internalType":"uint256"},{"name":"_to","type":"address","internalType":"address"}],"outputs":[],"stateMutability":"nonpayable"},{"type":"function","name":"getDirectReferrals","inputs":[{"name":"user","type":"address","internalType":"address"}],"outputs":[{"name":"","type":"address[]","internalType":"address[]"}],"stateMutability":"view"},{"type":"function","name":"getInvalidStaking","inputs":[{"name":"user","type":"address","internalType":"address"}],"outputs":[{"name":"","type":"uint256","internalType":"uint256"}],"stateMutability":"view"},{"type":"function","name":"getReferralAwardRecords","inputs":[{"name":"user","type":"address","internalType":"address"}],"outputs":[{"name":"","type":"tuple[]","internalType":"struct Process.Record[]","components":[{"name":"from","type":"address","internalType":"address"},{"name":"amount","type":"uint256","internalType":"uint256"},{"name":"time","type":"uint256","internalType":"uint256"}]}],"stateMutability":"view"},{"type":"function","name":"getUserAward","inputs":[{"name":"user","type":"address","internalType":"address"}],"outputs":[{"name":"","type":"uint256","internalType":"uint256"}],"stateMutability":"view"},{"type":"function","name":"getUserInfoBasic","inputs":[{"name":"user","type":"address","internalType":"address"}],"outputs":[{"name":"level","type":"uint8","internalType":"enum Process.Level"},{"name":"recommender","type":"address","internalType":"address"},{"name":"stakingUsdt","type":"uint256","internalType":"uint256"},{"name":"multiple","type":"uint256","internalType":"uint256"},{"name":"totalAward","type":"uint256","internalType":"uint256"},{"name":"shareAward","type":"uint256","internalType":"uint256"}],"stateMutability":"view"},{"type":"function","name":"getUserInfoReferral","inputs":[{"name":"user","type":"address","internalType":"address"}],"outputs":[{"name":"referralNum","type":"uint256","internalType":"uint256"},{"name":"performance","type":"uint256","internalType":"uint256"},{"name":"referralAward","type":"uint256","internalType":"uint256"},{"name":"subCoinQuota","type":"uint256","internalType":"uint256"},{"name":"isMigration","type":"bool","internalType":"bool"}],"stateMutability":"view"},{"type":"function","name":"getUserShareLevelAward","inputs":[{"name":"user","type":"address","internalType":"address"}],"outputs":[{"name":"","type":"uint256","internalType":"uint256"}],"stateMutability":"view"},{"type":"function","name":"getUserStakingAward","inputs":[{"name":"user","type":"address","internalType":"address"}],"outputs":[{"name":"","type":"uint256","internalType":"uint256"}],"stateMutability":"view"},{"type":"function","name":"initialCode","inputs":[],"outputs":[{"name":"","type":"address","internalType":"address"}],"stateMutability":"view"},{"type":"function","name":"initialize","inputs":[{"name":"_admin","type":"address","internalType":"address"},{"name":"_initialCode","type":"address","internalType":"address"},{"name":"_djsv1","type":"address","internalType":"address"},{"name":"_nodeDividends","type":"address","internalType":"address"},{"name":"_liquidityManager","type":"address","internalType":"address"}],"outputs":[],"stateMutability":"nonpayable"},{"type":"function","name":"isAddDirectReferrals","inputs":[{"name":"","type":"address","internalType":"address"}],"outputs":[{"name":"","type":"bool","internalType":"bool"}],"stateMutability":"view"},{"type":"function","name":"lastShareAwardTime","inputs":[],"outputs":[{"name":"","type":"uint256","internalType":"uint256"}],"stateMutability":"view"},{"type":"function","name":"liquidityManager","inputs":[],"outputs":[{"name":"","type":"address","internalType":"address"}],"stateMutability":"view"},{"type":"function","name":"migrationReferral","inputs":[{"name":"user","type":"address","internalType":"address"}],"outputs":[],"stateMutability":"nonpayable"},{"type":"function","name":"nodeDividends","inputs":[],"outputs":[{"name":"","type":"address","internalType":"address"}],"stateMutability":"view"},{"type":"function","name":"owner","inputs":[],"outputs":[{"name":"","type":"address","internalType":"address"}],"stateMutability":"view"},{"type":"function","name":"pause","inputs":[],"outputs":[{"name":"","type":"bool","internalType":"bool"}],"stateMutability":"view"},{"type":"function","name":"perSecondStakedAeward","inputs":[],"outputs":[{"name":"","type":"uint256","internalType":"uint256"}],"stateMutability":"view"},{"type":"function","name":"perSharePerformanceAward","inputs":[],"outputs":[{"name":"","type":"uint256","internalType":"uint256"}],"stateMutability":"view"},{"type":"function","name":"proxiableUUID","inputs":[],"outputs":[{"name":"","type":"bytes32","internalType":"bytes32"}],"stateMutability":"view"},{"type":"function","name":"referral","inputs":[{"name":"recommender","type":"address","internalType":"address"}],"outputs":[],"stateMutability":"nonpayable"},{"type":"function","name":"referralInfo","inputs":[{"name":"","type":"address","internalType":"address"}],"outputs":[{"name":"recommender","type":"address","internalType":"address"},{"name":"level","type":"uint8","internalType":"enum Process.Level"},{"name":"referralNum","type":"uint256","internalType":"uint256"},{"name":"directV5Count","type":"uint256","internalType":"uint256"},{"name":"performance","type":"uint256","internalType":"uint256"},{"name":"referralAward","type":"uint256","internalType":"uint256"},{"name":"subCoinQuota","type":"uint256","internalType":"uint256"},{"name":"shareAwardDebt","type":"uint256","internalType":"uint256"},{"name":"isMigration","type":"bool","internalType":"bool"}],"stateMutability":"view"},{"type":"function","name":"renounceOwnership","inputs":[],"outputs":[],"stateMutability":"nonpayable"},{"type":"function","name":"setPause","inputs":[{"name":"isPause","type":"bool","internalType":"bool"}],"outputs":[],"stateMutability":"nonpayable"},{"type":"function","name":"shareRate","inputs":[],"outputs":[{"name":"","type":"uint256","internalType":"uint256"}],"stateMutability":"view"},{"type":"function","name":"stake","inputs":[{"name":"amountUSDT","type":"uint256","internalType":"uint256"}],"outputs":[],"stateMutability":"nonpayable"},{"type":"function","name":"subCoinQuotas","inputs":[{"name":"","type":"uint8","internalType":"enum Process.Level"}],"outputs":[{"name":"","type":"uint256","internalType":"uint256"}],"stateMutability":"view"},{"type":"function","name":"swapSubToken","inputs":[{"name":"amountUSDT","type":"uint256","internalType":"uint256"}],"outputs":[],"stateMutability":"nonpayable"},{"type":"function","name":"totalSharePerformance","inputs":[],"outputs":[{"name":"","type":"uint256","internalType":"uint256"}],"stateMutability":"view"},{"type":"function","name":"totalStakedUsdt","inputs":[],"outputs":[{"name":"","type":"uint256","internalType":"uint256"}],"stateMutability":"view"},{"type":"function","name":"transferOwnership","inputs":[{"name":"newOwner","type":"address","internalType":"address"}],"outputs":[],"stateMutability":"nonpayable"},{"type":"function","name":"upgradeToAndCall","inputs":[{"name":"newImplementation","type":"address","internalType":"address"},{"name":"data","type":"bytes","internalType":"bytes"}],"outputs":[],"stateMutability":"payable"},{"type":"function","name":"userInfo","inputs":[{"name":"","type":"address","internalType":"address"}],"outputs":[{"name":"stakingUsdt","type":"uint256","internalType":"uint256"},{"name":"multiple","type":"uint256","internalType":"uint256"},{"name":"stakingTime","type":"uint256","internalType":"uint256"},{"name":"pendingProfit","type":"uint256","internalType":"uint256"},{"name":"extracted","type":"uint256","internalType":"uint256"}],"stateMutability":"view"},{"type":"function","name":"whetherNeedMigrate","inputs":[{"name":"user","type":"address","internalType":"address"}],"outputs":[{"name":"","type":"bool","internalType":"bool"}],"stateMutability":"view"},{"type":"event","name":"Claimed","inputs":[{"name":"user","type":"address","indexed":false,"internalType":"address"},{"name":"amount","type":"uint256","indexed":false,"internalType":"uint256"}],"anonymous":false},{"type":"event","name":"Initialized","inputs":[{"name":"version","type":"uint64","indexed":false,"internalType":"uint64"}],"anonymous":false},{"type":"event","name":"OwnershipTransferred","inputs":[{"name":"previousOwner","type":"address","indexed":true,"internalType":"address"},{"name":"newOwner","type":"address","indexed":true,"internalType":"address"}],"anonymous":false},{"type":"event","name":"Referrals","inputs":[{"name":"recommender","type":"address","indexed":false,"internalType":"address"},{"name":"referred","type":"address","indexed":false,"internalType":"address"}],"anonymous":false},{"type":"event","name":"Staked","inputs":[{"name":"user","type":"address","indexed":false,"internalType":"address"},{"name":"amount","type":"uint256","indexed":false,"internalType":"uint256"}],"anonymous":false},{"type":"event","name":"Upgraded","inputs":[{"name":"implementation","type":"address","indexed":true,"internalType":"address"}],"anonymous":false},{"type":"error","name":"AddressEmptyCode","inputs":[{"name":"target","type":"address","internalType":"address"}]},{"type":"error","name":"AlreadyMigrated","inputs":[]},{"type":"error","name":"AmountTooLow","inputs":[]},{"type":"error","name":"ERC1967InvalidImplementation","inputs":[{"name":"implementation","type":"address","internalType":"address"}]},{"type":"error","name":"ERC1967NonPayable","inputs":[]},{"type":"error","name":"FailedCall","inputs":[]},{"type":"error","name":"InsufficientQuota","inputs":[]},{"type":"error","name":"InvalidInitialization","inputs":[]},{"type":"error","name":"InvalidRecommender","inputs":[]},{"type":"error","name":"InviterExists","inputs":[]},{"type":"error","name":"NeedMigrate","inputs":[]},{"type":"error","name":"NoMigrationRequired","inputs":[]},{"type":"error","name":"NoReward","inputs":[]},{"type":"error","name":"NoStake","inputs":[]},{"type":"error","name":"NotInitializing","inputs":[]},{"type":"error","name":"NotRequiredReferral","inputs":[]},{"type":"error","name":"OwnableInvalidOwner","inputs":[{"name":"owner","type":"address","internalType":"address"}]},{"type":"error","name":"OwnableUnauthorizedAccount","inputs":[{"name":"account","type":"address","internalType":"address"}]},{"type":"error","name":"ReentrancyGuardReentrantCall","inputs":[]},{"type":"error","name":"UUPSUnauthorizedCallContext","inputs":[]},{"type":"error","name":"UUPSUnsupportedProxiableUUID","inputs":[{"name":"slot","type":"bytes32","internalType":"bytes32"}]},{"type":"error","name":"ZeroAddress","inputs":[]}],"bytecode":{"object":"0x60a06040523073ffffffffffffffffffffffffffffffffffffffff1660809073ffffffffffffffffffffffffffffffffffffffff168152503480156041575f5ffd5b5060015f8190555060805161595a61006f5f395f8181613370015281816133c5015261357f015261595a5ff3fe608060405260043610610269575f3560e01c806385215f7c11610143578063bedb86fb116100b5578063d2c8e0e511610079578063d2c8e0e5146109b8578063d567aadb146109f4578063db81c51514610a1e578063f2fde38b14610a48578063f851a44014610a70578063fb802a6514610a9a576102a9565b8063bedb86fb146108c2578063c023b3a5146108ea578063c54e44eb14610928578063c7c93c9414610952578063c7fb372f1461098e576102a9565b8063a3f2a64a11610107578063a3f2a64a1461079f578063a694fc3a146107db578063ac6439b514610803578063ad3cb1cc1461082d578063b2859e2b14610857578063b500682314610881576102a9565b806385215f7c146106a55780638da5cb5b146106e1578063905635d41461070b578063922be46d146107355780639238b0f91461075f576102a9565b8063313ce567116101dc5780634f1ef286116101a05780634f1ef286146105cf57806352d1902d146105eb578063551512de14610615578063715018a61461063d5780637247959a146106535780638456cb591461067b576102a9565b8063313ce567146104e5578063338274381461050f57806339540b0a146105395780633e4ff6f21461057d5780634e71d92d146105b9576102a9565b806310baf0891161022e57806310baf089146103b35780631459457a146103dd57806318785eb6146104055780631959a0021461044157806319b12a53146104815780631b602f22146104bd576102a9565b8062c4bb2b146102ad57806303fd2a45146102e957806305ad3935146103135780630acf716b1461034f5780630ff9ef121461038b576102a9565b366102a9576040517f08c379a00000000000000000000000000000000000000000000000000000000081526004016102a09061492a565b60405180910390fd5b5f5ffd5b3480156102b8575f5ffd5b506102d360048036038101906102ce919061497c565b610ac4565b6040516102e091906149bf565b60405180910390f35b3480156102f4575f5ffd5b506102fd610ad9565b60405161030a9190614a17565b60405180910390f35b34801561031e575f5ffd5b5061033960048036038101906103349190614a84565b610adf565b6040516103469190614a17565b60405180910390f35b34801561035a575f5ffd5b5061037560048036038101906103709190614ac2565b610b27565b60405161038291906149bf565b60405180910390f35b348015610396575f5ffd5b506103b160048036038101906103ac9190614ac2565b610be4565b005b3480156103be575f5ffd5b506103c7610de2565b6040516103d49190614a17565b60405180910390f35b3480156103e8575f5ffd5b5061040360048036038101906103fe9190614aed565b610e07565b005b348015610410575f5ffd5b5061042b60048036038101906104269190614ac2565b611280565b6040516104389190614c6a565b60405180910390f35b34801561044c575f5ffd5b5061046760048036038101906104629190614ac2565b611381565b604051610478959493929190614c8a565b60405180910390f35b34801561048c575f5ffd5b506104a760048036038101906104a29190614ac2565b6113b3565b6040516104b491906149bf565b60405180910390f35b3480156104c8575f5ffd5b506104e360048036038101906104de9190614cdb565b611470565b005b3480156104f0575f5ffd5b506104f961160d565b60405161050691906149bf565b60405180910390f35b34801561051a575f5ffd5b50610523611613565b6040516105309190614a17565b60405180910390f35b348015610544575f5ffd5b5061055f600480360381019061055a9190614ac2565b611638565b60405161057499989796959493929190614d93565b60405180910390f35b348015610588575f5ffd5b506105a3600480360381019061059e9190614ac2565b6116b9565b6040516105b091906149bf565b60405180910390f35b3480156105c4575f5ffd5b506105cd611890565b005b6105e960048036038101906105e49190614f5a565b611b5c565b005b3480156105f6575f5ffd5b506105ff611b7b565b60405161060c9190614fcc565b60405180910390f35b348015610620575f5ffd5b5061063b60048036038101906106369190614fe5565b611bac565b005b348015610648575f5ffd5b50610651611c4b565b005b34801561065e575f5ffd5b5061067960048036038101906106749190614ac2565b611c5e565b005b348015610686575f5ffd5b5061068f612060565b60405161069c9190615035565b60405180910390f35b3480156106b0575f5ffd5b506106cb60048036038101906106c69190614ac2565b612072565b6040516106d89190615035565b60405180910390f35b3480156106ec575f5ffd5b506106f56121a0565b6040516107029190614a17565b60405180910390f35b348015610716575f5ffd5b5061071f6121d5565b60405161072c91906149bf565b60405180910390f35b348015610740575f5ffd5b506107496121db565b60405161075691906149bf565b60405180910390f35b34801561076a575f5ffd5b5061078560048036038101906107809190614ac2565b6121e1565b60405161079695949392919061504e565b60405180910390f35b3480156107aa575f5ffd5b506107c560048036038101906107c09190614ac2565b612344565b6040516107d29190615035565b60405180910390f35b3480156107e6575f5ffd5b5061080160048036038101906107fc9190614cdb565b612361565b005b34801561080e575f5ffd5b506108176129e3565b6040516108249190614a17565b60405180910390f35b348015610838575f5ffd5b50610841612a08565b60405161084e91906150ef565b60405180910390f35b348015610862575f5ffd5b5061086b612a41565b60405161087891906149bf565b60405180910390f35b34801561088c575f5ffd5b506108a760048036038101906108a29190614ac2565b612a47565b6040516108b99695949392919061510f565b60405180910390f35b3480156108cd575f5ffd5b506108e860048036038101906108e39190615198565b612c34565b005b3480156108f5575f5ffd5b50610910600480360381019061090b9190614a84565b612cdf565b60405161091f939291906151c3565b60405180910390f35b348015610933575f5ffd5b5061093c612d3e565b6040516109499190614a17565b60405180910390f35b34801561095d575f5ffd5b5061097860048036038101906109739190614ac2565b612d56565b60405161098591906149bf565b60405180910390f35b348015610999575f5ffd5b506109a2612f7f565b6040516109af9190614a17565b60405180910390f35b3480156109c3575f5ffd5b506109de60048036038101906109d99190614ac2565b612fa4565b6040516109eb91906152a0565b60405180910390f35b3480156109ff575f5ffd5b50610a0861306c565b604051610a1591906149bf565b60405180910390f35b348015610a29575f5ffd5b50610a32613072565b604051610a3f91906149bf565b60405180910390f35b348015610a53575f5ffd5b50610a6e6004803603810190610a699190614ac2565b613078565b005b348015610a7b575f5ffd5b50610a846130fc565b604051610a919190614a17565b60405180910390f35b348015610aa5575f5ffd5b50610aae613121565b604051610abb91906149bf565b60405180910390f35b6006602052805f5260405f205f915090505481565b61dead81565b6004602052815f5260405f208181548110610af8575f80fd5b905f5260205f20015f915091509054906101000a900473ffffffffffffffffffffffffffffffffffffffff1681565b5f5f60015f8473ffffffffffffffffffffffffffffffffffffffff1673ffffffffffffffffffffffffffffffffffffffff1681526020019081526020015f206040518060a00160405290815f82015481526020016001820154815260200160028201548152602001600382015481526020016004820154815250509050600f54815f0151600e54836040015142610bbe91906152ed565b610bc89190615320565b610bd29190615320565b610bdc919061538e565b915050919050565b610bec613127565b5f60025f8373ffffffffffffffffffffffffffffffffffffffff1673ffffffffffffffffffffffffffffffffffffffff1681526020019081526020015f209050806007015f9054906101000a900460ff1615610c74576040517fca1c3cbc00000000000000000000000000000000000000000000000000000000815260040160405180910390fd5b5f60095f9054906101000a900473ffffffffffffffffffffffffffffffffffffffff1673ffffffffffffffffffffffffffffffffffffffff16631959a002846040518263ffffffff1660e01b8152600401610ccf9190614a17565b608060405180830381865afa158015610cea573d5f5f3e3d5ffd5b505050506040513d601f19601f82011682018060405250810190610d0e91906153e6565b50505090505f73ffffffffffffffffffffffffffffffffffffffff168173ffffffffffffffffffffffffffffffffffffffff1603610d78576040517f9c9e07a800000000000000000000000000000000000000000000000000000000815260040160405180910390fd5b80825f015f6101000a81548173ffffffffffffffffffffffffffffffffffffffff021916908373ffffffffffffffffffffffffffffffffffffffff1602179055506001826007015f6101000a81548160ff0219169083151502179055505050610ddf61316b565b50565b60085f9054906101000a900473ffffffffffffffffffffffffffffffffffffffff1681565b5f610e10613174565b90505f815f0160089054906101000a900460ff161590505f825f015f9054906101000a900467ffffffffffffffff1690505f5f8267ffffffffffffffff16148015610e585750825b90505f60018367ffffffffffffffff16148015610e8b57505f3073ffffffffffffffffffffffffffffffffffffffff163b145b905081158015610e99575080155b15610ed0576040517ff92ee8a900000000000000000000000000000000000000000000000000000000815260040160405180910390fd5b6001855f015f6101000a81548167ffffffffffffffff021916908367ffffffffffffffff1602179055508315610f1d576001855f0160086101000a81548160ff0219169083151502179055505b610f2d610f28613187565b61318e565b8960075f6101000a81548173ffffffffffffffffffffffffffffffffffffffff021916908373ffffffffffffffffffffffffffffffffffffffff1602179055508860085f6101000a81548173ffffffffffffffffffffffffffffffffffffffff021916908373ffffffffffffffffffffffffffffffffffffffff1602179055508760095f6101000a81548173ffffffffffffffffffffffffffffffffffffffff021916908373ffffffffffffffffffffffffffffffffffffffff16021790555086600a5f6101000a81548173ffffffffffffffffffffffffffffffffffffffff021916908373ffffffffffffffffffffffffffffffffffffffff16021790555085600b5f6101000a81548173ffffffffffffffffffffffffffffffffffffffff021916908373ffffffffffffffffffffffffffffffffffffffff1602179055506402540be400600f8190555062015180683635c9adc5dea00000600f5467a688906bd8b0000061109d9190615320565b6110a7919061538e565b6110b1919061538e565b600e81905550600a6013819055504260108190555068056bc75e2d6310000060065f600160068111156110e7576110e6614d06565b5b60068111156110f9576110f8614d06565b5b81526020019081526020015f2081905550681043561a882930000060065f6002600681111561112b5761112a614d06565b5b600681111561113d5761113c614d06565b5b81526020019081526020015f2081905550681b1ae4d6e2ef50000060065f6003600681111561116f5761116e614d06565b5b600681111561118157611180614d06565b5b81526020019081526020015f2081905550683635c9adc5dea0000060065f600460068111156111b3576111b2614d06565b5b60068111156111c5576111c4614d06565b5b81526020019081526020015f208190555068a2a15d09519be0000060065f600560068111156111f7576111f6614d06565b5b600681111561120957611208614d06565b5b81526020019081526020015f20819055508315611274575f855f0160086101000a81548160ff0219169083151502179055507fc7f505b2f371ae2175ee4913f4499e1f2633a7b5936321eed1cdaeb6115181d2600160405161126b919061549f565b60405180910390a15b50505050505050505050565b606060035f8373ffffffffffffffffffffffffffffffffffffffff1673ffffffffffffffffffffffffffffffffffffffff1681526020019081526020015f20805480602002602001604051908101604052809291908181526020015f905b82821015611376578382905f5260205f2090600302016040518060600160405290815f82015f9054906101000a900473ffffffffffffffffffffffffffffffffffffffff1673ffffffffffffffffffffffffffffffffffffffff1673ffffffffffffffffffffffffffffffffffffffff16815260200160018201548152602001600282015481525050815260200190600101906112de565b505050509050919050565b6001602052805f5260405f205f91509050805f0154908060010154908060020154908060030154908060040154905085565b5f5f60015f8473ffffffffffffffffffffffffffffffffffffffff1673ffffffffffffffffffffffffffffffffffffffff1681526020019081526020015f2090505f8160040154600f5461140686612d56565b611410919061538e565b61141986610b27565b846003015461142891906154b8565b61143291906154b8565b61143c91906154b8565b90508160010154825f01546114519190615320565b81111561146557815f01549250505061146b565b5f925050505b919050565b60025f3373ffffffffffffffffffffffffffffffffffffffff1673ffffffffffffffffffffffffffffffffffffffff1681526020019081526020015f20600501548111156114ea576040517f6aea990400000000000000000000000000000000000000000000000000000000815260040160405180910390fd5b61152b7355d398326f99059ff775485246999027b319795533600b5f9054906101000a900473ffffffffffffffffffffffffffffffffffffffff16846131a2565b600b5f9054906101000a900473ffffffffffffffffffffffffffffffffffffffff1673ffffffffffffffffffffffffffffffffffffffff166379e32cd933836040518363ffffffff1660e01b81526004016115879291906154eb565b5f604051808303815f87803b15801561159e575f5ffd5b505af11580156115b0573d5f5f3e3d5ffd5b505050508060025f3373ffffffffffffffffffffffffffffffffffffffff1673ffffffffffffffffffffffffffffffffffffffff1681526020019081526020015f206005015f82825461160391906152ed565b9250508190555050565b600f5481565b600b5f9054906101000a900473ffffffffffffffffffffffffffffffffffffffff1681565b6002602052805f5260405f205f91509050805f015f9054906101000a900473ffffffffffffffffffffffffffffffffffffffff1690805f0160149054906101000a900460ff1690806001015490806002015490806003015490806004015490806005015490806006015490806007015f9054906101000a900460ff16905089565b5f5f60015f8473ffffffffffffffffffffffffffffffffffffffff1673ffffffffffffffffffffffffffffffffffffffff1681526020019081526020015f206040518060a00160405290815f820154815260200160018201548152602001600282015481526020016003820154815260200160048201548152505090505f815f015103611749575f91505061188b565b5f61175384610b27565b90505f61175f85612d56565b90505f60025f8773ffffffffffffffffffffffffffffffffffffffff1673ffffffffffffffffffffffffffffffffffffffff1681526020019081526020015f2060040154828486606001516117b491906154b8565b6117be91906154b8565b6117c891906154b8565b905060085f9054906101000a900473ffffffffffffffffffffffffffffffffffffffff1673ffffffffffffffffffffffffffffffffffffffff168673ffffffffffffffffffffffffffffffffffffffff160361182a578094505050505061188b565b5f8460200151855f015161183e9190615320565b905080856080015110611858575f9550505050505061188b565b5f85608001518261186991906152ed565b9050808311156118815780965050505050505061188b565b8296505050505050505b919050565b611898613127565b600d5f9054906101000a900460ff16156118e7576040517f08c379a00000000000000000000000000000000000000000000000000000000081526004016118de9061555c565b60405180910390fd5b5f60015f3373ffffffffffffffffffffffffffffffffffffffff1673ffffffffffffffffffffffffffffffffffffffff1681526020019081526020015f2090505f815f015403611963576040517fcacf989a00000000000000000000000000000000000000000000000000000000815260040160405180910390fd5b5f61196d336113b3565b600c5461197a91906152ed565b9050611985816132d5565b5f61198f336116b9565b90505f81036119ca576040517f6e99268600000000000000000000000000000000000000000000000000000000815260040160405180910390fd5b5f836003018190555080836004015f8282546119e691906154b8565b925050819055505f60025f3373ffffffffffffffffffffffffffffffffffffffff1673ffffffffffffffffffffffffffffffffffffffff1681526020019081526020015f2090505f8160040181905550600680811115611a4957611a48614d06565b5b815f0160149054906101000a900460ff166006811115611a6c57611a6b614d06565b5b03611a8c578060030154601154611a839190615320565b81600601819055505b600b5f9054906101000a900473ffffffffffffffffffffffffffffffffffffffff1673ffffffffffffffffffffffffffffffffffffffff16632d019c4233846040518363ffffffff1660e01b8152600401611ae89291906154eb565b5f604051808303815f87803b158015611aff575f5ffd5b505af1158015611b11573d5f5f3e3d5ffd5b505050507fd8138f8a3f377c5259ca548e70e4c2de94f129f5a11036a15b69513cba2b426a3383604051611b469291906154eb565b60405180910390a150505050611b5a61316b565b565b611b6461336e565b611b6d82613454565b611b77828261345f565b5050565b5f611b8461357d565b7f360894a13ba1a3210667c828492db98dca3e2076cc3735a920a3ca505d382bbc5f1b905090565b3373ffffffffffffffffffffffffffffffffffffffff1660075f9054906101000a900473ffffffffffffffffffffffffffffffffffffffff1673ffffffffffffffffffffffffffffffffffffffff1614611c3b576040517f08c379a0000000000000000000000000000000000000000000000000000000008152600401611c32906155c4565b60405180910390fd5b611c46838284613604565b505050565b611c53613734565b611c5c5f6137bb565b565b611c66613127565b611c6f33612072565b15611ca6576040517f1d9410b700000000000000000000000000000000000000000000000000000000815260040160405180910390fd5b5f73ffffffffffffffffffffffffffffffffffffffff168173ffffffffffffffffffffffffffffffffffffffff1603611d0b576040517fd92e233d00000000000000000000000000000000000000000000000000000000815260040160405180910390fd5b3373ffffffffffffffffffffffffffffffffffffffff168173ffffffffffffffffffffffffffffffffffffffff1603611d70576040517f4f2f060100000000000000000000000000000000000000000000000000000000815260040160405180910390fd5b60085f9054906101000a900473ffffffffffffffffffffffffffffffffffffffff1673ffffffffffffffffffffffffffffffffffffffff168173ffffffffffffffffffffffffffffffffffffffff1614611edc575f73ffffffffffffffffffffffffffffffffffffffff1660025f8373ffffffffffffffffffffffffffffffffffffffff1673ffffffffffffffffffffffffffffffffffffffff1681526020019081526020015f205f015f9054906101000a900473ffffffffffffffffffffffffffffffffffffffff1673ffffffffffffffffffffffffffffffffffffffff1614158015611e9c57505f60015f8373ffffffffffffffffffffffffffffffffffffffff1673ffffffffffffffffffffffffffffffffffffffff1681526020019081526020015f205f0154115b611edb576040517f08c379a0000000000000000000000000000000000000000000000000000000008152600401611ed290615652565b60405180910390fd5b5b5f73ffffffffffffffffffffffffffffffffffffffff1660025f3373ffffffffffffffffffffffffffffffffffffffff1673ffffffffffffffffffffffffffffffffffffffff1681526020019081526020015f205f015f9054906101000a900473ffffffffffffffffffffffffffffffffffffffff1673ffffffffffffffffffffffffffffffffffffffff1614611f9f576040517f5b3d5a1b00000000000000000000000000000000000000000000000000000000815260040160405180910390fd5b8060025f3373ffffffffffffffffffffffffffffffffffffffff1673ffffffffffffffffffffffffffffffffffffffff1681526020019081526020015f205f015f6101000a81548173ffffffffffffffffffffffffffffffffffffffff021916908373ffffffffffffffffffffffffffffffffffffffff1602179055507f455db5b564134af440ac23bd273ce313070080fc2c3d5d36c03f62de3c628498813360405161204d929190615670565b60405180910390a161205d61316b565b50565b600d5f9054906101000a900460ff1681565b5f5f60095f9054906101000a900473ffffffffffffffffffffffffffffffffffffffff1673ffffffffffffffffffffffffffffffffffffffff16631959a002846040518263ffffffff1660e01b81526004016120ce9190614a17565b608060405180830381865afa1580156120e9573d5f5f3e3d5ffd5b505050506040513d601f19601f8201168201806040525081019061210d91906153e6565b50505090505f73ffffffffffffffffffffffffffffffffffffffff168173ffffffffffffffffffffffffffffffffffffffff1614158015612198575060025f8473ffffffffffffffffffffffffffffffffffffffff1673ffffffffffffffffffffffffffffffffffffffff1681526020019081526020015f206007015f9054906101000a900460ff16155b915050919050565b5f5f6121aa61388c565b9050805f015f9054906101000a900473ffffffffffffffffffffffffffffffffffffffff1691505090565b600e5481565b60105481565b5f5f5f5f5f5f60025f8873ffffffffffffffffffffffffffffffffffffffff1673ffffffffffffffffffffffffffffffffffffffff1681526020019081526020015f20604051806101200160405290815f82015f9054906101000a900473ffffffffffffffffffffffffffffffffffffffff1673ffffffffffffffffffffffffffffffffffffffff1673ffffffffffffffffffffffffffffffffffffffff1681526020015f820160149054906101000a900460ff1660068111156122a8576122a7614d06565b5b60068111156122ba576122b9614d06565b5b8152602001600182015481526020016002820154815260200160038201548152602001600482015481526020016005820154815260200160068201548152602001600782015f9054906101000a900460ff161515151581525050905080604001519550806080015194508060a0015193508060c00151925080610100015191505091939590929450565b6005602052805f5260405f205f915054906101000a900460ff1681565b612369613127565b5f60015f3373ffffffffffffffffffffffffffffffffffffffff1673ffffffffffffffffffffffffffffffffffffffff1681526020019081526020015f2090505f60025f3373ffffffffffffffffffffffffffffffffffffffff1673ffffffffffffffffffffffffffffffffffffffff1681526020019081526020015f2090505f73ffffffffffffffffffffffffffffffffffffffff16815f015f9054906101000a900473ffffffffffffffffffffffffffffffffffffffff1673ffffffffffffffffffffffffffffffffffffffff1603612470576040517faf4d1ef200000000000000000000000000000000000000000000000000000000815260040160405180910390fd5b68056bc75e2d631000008310156124b3576040517f1fbaba3500000000000000000000000000000000000000000000000000000000815260040160405180910390fd5b5f60646001856124c39190615320565b6124cd919061538e565b90505f60646001866124df9190615320565b6124e9919061538e565b90506125377355d398326f99059ff775485246999027b319795533600b5f9054906101000a900473ffffffffffffffffffffffffffffffffffffffff16858961253291906152ed565b6131a2565b6125787355d398326f99059ff775485246999027b319795533600a5f9054906101000a900473ffffffffffffffffffffffffffffffffffffffff16856131a2565b600b5f9054906101000a900473ffffffffffffffffffffffffffffffffffffffff1673ffffffffffffffffffffffffffffffffffffffff166303ec9fb0826040518263ffffffff1660e01b81526004016125d291906149bf565b5f604051808303815f87803b1580156125e9575f5ffd5b505af11580156125fb573d5f5f3e3d5ffd5b505050505f73ffffffffffffffffffffffffffffffffffffffff16600a5f9054906101000a900473ffffffffffffffffffffffffffffffffffffffff1673ffffffffffffffffffffffffffffffffffffffff16146126db57600a5f9054906101000a900473ffffffffffffffffffffffffffffffffffffffff1673ffffffffffffffffffffffffffffffffffffffff1663cc430ced836040518263ffffffff1660e01b81526004016126ad91906149bf565b5f604051808303815f87803b1580156126c4575f5ffd5b505af11580156126d6573d5f5f3e3d5ffd5b505050505b600b5f9054906101000a900473ffffffffffffffffffffffffffffffffffffffff1673ffffffffffffffffffffffffffffffffffffffff166351c6590a82848861272591906152ed565b61272f91906152ed565b6040518263ffffffff1660e01b815260040161274b91906149bf565b5f604051808303815f87803b158015612762575f5ffd5b505af1158015612774573d5f5f3e3d5ffd5b50505050612781336138b3565b60068081111561279457612793614d06565b5b835f0160149054906101000a900460ff1660068111156127b7576127b6614d06565b5b036127c6576127c53361398c565b5b84845f015f8282546127d891906154b8565b925050819055505f68a2a15d09519be00000855f0154116127fa5760026127fd565b60035b60ff16905080856001015414612817578085600101819055505b85600c5f82825461282891906154b8565b9250508190555060055f3373ffffffffffffffffffffffffffffffffffffffff1673ffffffffffffffffffffffffffffffffffffffff1681526020019081526020015f205f9054906101000a900460ff166129905760045f855f015f9054906101000a900473ffffffffffffffffffffffffffffffffffffffff1673ffffffffffffffffffffffffffffffffffffffff1673ffffffffffffffffffffffffffffffffffffffff1681526020019081526020015f2033908060018154018082558091505060019003905f5260205f20015f9091909190916101000a81548173ffffffffffffffffffffffffffffffffffffffff021916908373ffffffffffffffffffffffffffffffffffffffff160217905550600160055f3373ffffffffffffffffffffffffffffffffffffffff1673ffffffffffffffffffffffffffffffffffffffff1681526020019081526020015f205f6101000a81548160ff0219169083151502179055505b61299a3387613a98565b7f9e71bc8eea02a63969f509818f2dafb9254532904319f9dbda79b67bd34a5f3d33876040516129cb9291906154eb565b60405180910390a150505050506129e061316b565b50565b60095f9054906101000a900473ffffffffffffffffffffffffffffffffffffffff1681565b6040518060400160405280600581526020017f352e302e3000000000000000000000000000000000000000000000000000000081525081565b600c5481565b5f5f5f5f5f5f5f60015f8973ffffffffffffffffffffffffffffffffffffffff1673ffffffffffffffffffffffffffffffffffffffff1681526020019081526020015f206040518060a00160405290815f820154815260200160018201548152602001600282015481526020016003820154815260200160048201548152505090505f60025f8a73ffffffffffffffffffffffffffffffffffffffff1673ffffffffffffffffffffffffffffffffffffffff1681526020019081526020015f20604051806101200160405290815f82015f9054906101000a900473ffffffffffffffffffffffffffffffffffffffff1673ffffffffffffffffffffffffffffffffffffffff1673ffffffffffffffffffffffffffffffffffffffff1681526020015f820160149054906101000a900460ff166006811115612b8b57612b8a614d06565b5b6006811115612b9d57612b9c614d06565b5b8152602001600182015481526020016002820154815260200160038201548152602001600482015481526020016005820154815260200160068201548152602001600782015f9054906101000a900460ff161515151581525050905080602001519750805f01519650815f0151955081602001519450612c1c896116b9565b9350612c2789612d56565b9250505091939550919395565b3373ffffffffffffffffffffffffffffffffffffffff1660075f9054906101000a900473ffffffffffffffffffffffffffffffffffffffff1673ffffffffffffffffffffffffffffffffffffffff1614612cc3576040517f08c379a0000000000000000000000000000000000000000000000000000000008152600401612cba906155c4565b60405180910390fd5b80600d5f6101000a81548160ff02191690831515021790555050565b6003602052815f5260405f208181548110612cf8575f80fd5b905f5260205f2090600302015f9150915050805f015f9054906101000a900473ffffffffffffffffffffffffffffffffffffffff16908060010154908060020154905083565b7355d398326f99059ff775485246999027b319795581565b5f5f60105403612d68575f9050612f7a565b5f60025f8473ffffffffffffffffffffffffffffffffffffffff1673ffffffffffffffffffffffffffffffffffffffff1681526020019081526020015f20604051806101200160405290815f82015f9054906101000a900473ffffffffffffffffffffffffffffffffffffffff1673ffffffffffffffffffffffffffffffffffffffff1673ffffffffffffffffffffffffffffffffffffffff1681526020015f820160149054906101000a900460ff166006811115612e2a57612e29614d06565b5b6006811115612e3c57612e3b614d06565b5b8152602001600182015481526020016002820154815260200160038201548152602001600482015481526020016005820154815260200160068201548152602001600782015f9054906101000a900460ff16151515158152505090505f81608001511480612eab57505f601254145b15612eb9575f915050612f7a565b5f60115490505f60105442612ece91906152ed565b90505f811115612f2c575f6064601354600e5484600c54612eef9190615320565b612ef99190615320565b612f039190615320565b612f0d919061538e565b905060125481612f1d919061538e565b83612f2891906154b8565b9250505b5f600f54838560800151612f409190615320565b612f4a919061538e565b90508360e001518111612f63575f945050505050612f7a565b8360e0015181612f7391906152ed565b9450505050505b919050565b600a5f9054906101000a900473ffffffffffffffffffffffffffffffffffffffff1681565b606060045f8373ffffffffffffffffffffffffffffffffffffffff1673ffffffffffffffffffffffffffffffffffffffff1681526020019081526020015f2080548060200260200160405190810160405280929190818152602001828054801561306057602002820191905f5260205f20905b815f9054906101000a900473ffffffffffffffffffffffffffffffffffffffff1673ffffffffffffffffffffffffffffffffffffffff1681526020019060010190808311613017575b50505050509050919050565b60125481565b60115481565b613080613734565b5f73ffffffffffffffffffffffffffffffffffffffff168173ffffffffffffffffffffffffffffffffffffffff16036130f0575f6040517f1e4fbdf70000000000000000000000000000000000000000000000000000000081526004016130e79190614a17565b60405180910390fd5b6130f9816137bb565b50565b60075f9054906101000a900473ffffffffffffffffffffffffffffffffffffffff1681565b60135481565b60025f5403613162576040517f3ee5aeb500000000000000000000000000000000000000000000000000000000815260040160405180910390fd5b60025f81905550565b60015f81905550565b5f5f61317e61417a565b90508091505090565b5f33905090565b6131966141a3565b61319f816141e3565b50565b5f5f8573ffffffffffffffffffffffffffffffffffffffff166323b872dd8686866040516024016131d593929190615697565b6040516020818303038152906040529060e01b6020820180517bffffffffffffffffffffffffffffffffffffffffffffffffffffffff83818316178352505050506040516132239190615710565b5f604051808303815f865af19150503d805f811461325c576040519150601f19603f3d011682016040523d82523d5f602084013e613261565b606091505b509150915081801561328e57505f8151148061328d57508080602001905181019061328c919061573a565b5b5b6132cd576040517f08c379a00000000000000000000000000000000000000000000000000000000081526004016132c4906157d5565b60405180910390fd5b505050505050565b5f601054426132e491906152ed565b90505f8114806132f557505f601254145b1561330757426010819055505061336b565b5f6064601354600e54848661331c9190615320565b6133269190615320565b6133309190615320565b61333a919061538e565b90506012548161334a919061538e565b60115f82825461335a91906154b8565b925050819055504260108190555050505b50565b7f000000000000000000000000000000000000000000000000000000000000000073ffffffffffffffffffffffffffffffffffffffff163073ffffffffffffffffffffffffffffffffffffffff16148061341b57507f000000000000000000000000000000000000000000000000000000000000000073ffffffffffffffffffffffffffffffffffffffff16613402614267565b73ffffffffffffffffffffffffffffffffffffffff1614155b15613452576040517fe07c8dba00000000000000000000000000000000000000000000000000000000815260040160405180910390fd5b565b61345c613734565b50565b8173ffffffffffffffffffffffffffffffffffffffff166352d1902d6040518163ffffffff1660e01b8152600401602060405180830381865afa9250505080156134c757506040513d601f19601f820116820180604052508101906134c4919061581d565b60015b61350857816040517f4c9c8ce30000000000000000000000000000000000000000000000000000000081526004016134ff9190614a17565b60405180910390fd5b7f360894a13ba1a3210667c828492db98dca3e2076cc3735a920a3ca505d382bbc5f1b811461356e57806040517faa1d49a40000000000000000000000000000000000000000000000000000000081526004016135659190614fcc565b60405180910390fd5b61357883836142ba565b505050565b7f000000000000000000000000000000000000000000000000000000000000000073ffffffffffffffffffffffffffffffffffffffff163073ffffffffffffffffffffffffffffffffffffffff1614613602576040517fe07c8dba00000000000000000000000000000000000000000000000000000000815260040160405180910390fd5b565b5f5f8473ffffffffffffffffffffffffffffffffffffffff1663a9059cbb85856040516024016136359291906154eb565b6040516020818303038152906040529060e01b6020820180517bffffffffffffffffffffffffffffffffffffffffffffffffffffffff83818316178352505050506040516136839190615710565b5f604051808303815f865af19150503d805f81146136bc576040519150601f19603f3d011682016040523d82523d5f602084013e6136c1565b606091505b50915091508180156136ee57505f815114806136ed5750808060200190518101906136ec919061573a565b5b5b61372d576040517f08c379a000000000000000000000000000000000000000000000000000000000815260040161372490615892565b60405180910390fd5b5050505050565b61373c613187565b73ffffffffffffffffffffffffffffffffffffffff1661375a6121a0565b73ffffffffffffffffffffffffffffffffffffffff16146137b95761377d613187565b6040517f118cdaa70000000000000000000000000000000000000000000000000000000081526004016137b09190614a17565b60405180910390fd5b565b5f6137c461388c565b90505f815f015f9054906101000a900473ffffffffffffffffffffffffffffffffffffffff16905082825f015f6101000a81548173ffffffffffffffffffffffffffffffffffffffff021916908373ffffffffffffffffffffffffffffffffffffffff1602179055508273ffffffffffffffffffffffffffffffffffffffff168173ffffffffffffffffffffffffffffffffffffffff167f8be0079c531659141344cd1fd0a4f28419497f9722a3daafe3b4186f6b6457e060405160405180910390a3505050565b5f7f9016d09d72d40fdae2fd8ceac6b6234c7706214fd39c1cd1e609a0528c199300905090565b5f60015f8373ffffffffffffffffffffffffffffffffffffffff1673ffffffffffffffffffffffffffffffffffffffff1681526020019081526020015f2090505f815f01540361390c5742816002018190555050613989565b5f81600201544261391d91906152ed565b90505f810361392d575050613989565b5f600f54835f0154600e54846139439190615320565b61394d9190615320565b613957919061538e565b90505f81111561397c5780836003015f82825461397491906154b8565b925050819055505b4283600201819055505050505b50565b613997600c546132d5565b5f6139a133612d56565b90505f811115613a94578060015f8473ffffffffffffffffffffffffffffffffffffffff1673ffffffffffffffffffffffffffffffffffffffff1681526020019081526020015f206003015f8282546139fa91906154b8565b9250508190555060025f8373ffffffffffffffffffffffffffffffffffffffff1673ffffffffffffffffffffffffffffffffffffffff1681526020019081526020015f2060030154601154613a4f9190615320565b60025f8473ffffffffffffffffffffffffffffffffffffffff1673ffffffffffffffffffffffffffffffffffffffff1681526020019081526020015f20600601819055505b5050565b5f60025f8473ffffffffffffffffffffffffffffffffffffffff1673ffffffffffffffffffffffffffffffffffffffff1681526020019081526020015f205f015f9054906101000a900473ffffffffffffffffffffffffffffffffffffffff169050613b026148ae565b5f603290505b5f73ffffffffffffffffffffffffffffffffffffffff168373ffffffffffffffffffffffffffffffffffffffff16146140dc575f60025f8573ffffffffffffffffffffffffffffffffffffffff1673ffffffffffffffffffffffffffffffffffffffff1681526020019081526020015f2090506001816001015f828254613b8f91906154b8565b9250508190555084816003015f828254613ba991906154b8565b925050819055505f5f905060056006811115613bc857613bc7614d06565b5b825f0160149054906101000a900460ff166006811115613beb57613bea614d06565b5b03613d49575f5f90505b60045f8773ffffffffffffffffffffffffffffffffffffffff1673ffffffffffffffffffffffffffffffffffffffff1681526020019081526020015f2080549050811015613d475760056006811115613c5157613c50614d06565b5b60025f60045f8a73ffffffffffffffffffffffffffffffffffffffff1673ffffffffffffffffffffffffffffffffffffffff1681526020019081526020015f208481548110613ca357613ca26158b0565b5b905f5260205f20015f9054906101000a900473ffffffffffffffffffffffffffffffffffffffff1673ffffffffffffffffffffffffffffffffffffffff1673ffffffffffffffffffffffffffffffffffffffff1681526020019081526020015f205f0160149054906101000a900460ff166006811115613d2657613d25614d06565b5b03613d3a578180613d36906158dd565b9250505b8080600101915050613bf5565b505b5f5f613d66845f0160149054906101000a900460ff16878a61432c565b915091508015613ece5781846004015f828254613d8391906154b8565b9250508190555060035f8873ffffffffffffffffffffffffffffffffffffffff1673ffffffffffffffffffffffffffffffffffffffff1681526020019081526020015f2060405180606001604052808b73ffffffffffffffffffffffffffffffffffffffff16815260200184815260200142815250908060018154018082558091505060019003905f5260205f2090600302015f909190919091505f820151815f015f6101000a81548173ffffffffffffffffffffffffffffffffffffffff021916908373ffffffffffffffffffffffffffffffffffffffff16021790555060208201518160010155604082015181600201555050600186855f0160149054906101000a900460ff166006811115613e9e57613e9d614d06565b5b60068110613eaf57613eae6158b0565b5b602002019015159081151581525050600a85613ecb91906152ed565b94505b5f5f5f61400c87604051806101200160405290815f82015f9054906101000a900473ffffffffffffffffffffffffffffffffffffffff1673ffffffffffffffffffffffffffffffffffffffff1673ffffffffffffffffffffffffffffffffffffffff1681526020015f820160149054906101000a900460ff166006811115613f5957613f58614d06565b5b6006811115613f6b57613f6a614d06565b5b8152602001600182015481526020016002820154815260200160038201548152602001600482015481526020016005820154815260200160068201548152602001600782015f9054906101000a900460ff16151515158152505060045f8d73ffffffffffffffffffffffffffffffffffffffff1673ffffffffffffffffffffffffffffffffffffffff1681526020019081526020015f2080549050886143ed565b92509250925080156140ab5782875f0160146101000a81548160ff0219169083600681111561403e5761403d614d06565b5b02179055508160125f82825461405491906154b8565b9250508190555060065f84600681111561407157614070614d06565b5b600681111561408357614082614d06565b5b81526020019081526020015f2054876005015f8282546140a391906154b8565b925050819055505b865f015f9054906101000a900473ffffffffffffffffffffffffffffffffffffffff16995050505050505050613b08565b5f81111561417357606481856140f29190615320565b6140fc919061538e565b60025f60085f9054906101000a900473ffffffffffffffffffffffffffffffffffffffff1673ffffffffffffffffffffffffffffffffffffffff1673ffffffffffffffffffffffffffffffffffffffff1681526020019081526020015f206004015f82825461416b91906154b8565b925050819055505b5050505050565b5f7ff0c57e16840df040f15088dc2f81fe391c3923bec73e23a9662efc9c229c6a005f1b905090565b6141ab61464e565b6141e1576040517fd7e6bcf800000000000000000000000000000000000000000000000000000000815260040160405180910390fd5b565b6141eb6141a3565b5f73ffffffffffffffffffffffffffffffffffffffff168173ffffffffffffffffffffffffffffffffffffffff160361425b575f6040517f1e4fbdf70000000000000000000000000000000000000000000000000000000081526004016142529190614a17565b60405180910390fd5b614264816137bb565b50565b5f6142937f360894a13ba1a3210667c828492db98dca3e2076cc3735a920a3ca505d382bbc5f1b61466c565b5f015f9054906101000a900473ffffffffffffffffffffffffffffffffffffffff16905090565b6142c382614675565b8173ffffffffffffffffffffffffffffffffffffffff167fbc7cd75a20ee27fd9adebab32041f755214dbc6bffa90cc0225b39da2e5c2d3b60405160405180910390a25f8151111561431f57614319828261473e565b50614328565b61432761482f565b5b5050565b5f5f5f91505f905060068081111561434757614346614d06565b5b85600681111561435a57614359614d06565b5b1415801561438c57505f600681111561437657614375614d06565b5b85600681111561438957614388614d06565b5b14155b156143e5575f8560068111156143a5576143a4614d06565b5b90508481600681106143ba576143b96158b0565b5b60200201516143e3576064600a856143d29190615320565b6143dc919061538e565b9250600191505b505b935093915050565b5f5f5f856020015192505f91505f90505f60068111156144105761440f614d06565b5b8660200151600681111561442757614426614d06565b5b148015614435575060038510155b801561444f575069021e19e0c9bab2400000866080015110155b15614461576001925060019050614645565b6001600681111561447557614474614d06565b5b8660200151600681111561448c5761448b614d06565b5b14801561449a575060048510155b80156144b45750690a968163f0a57b400000866080015110155b156144c6576002925060019050614644565b600260068111156144da576144d9614d06565b5b866020015160068111156144f1576144f0614d06565b5b1480156144ff575060058510155b80156145195750692a5a058fc295ed000000866080015110155b1561452b576003925060019050614643565b6003600681111561453f5761453e614d06565b5b8660200151600681111561455657614555614d06565b5b148015614564575060078510155b801561457e575069a968163f0a57b4000000866080015110155b15614590576004925060019050614642565b600460068111156145a4576145a3614d06565b5b866020015160068111156145bb576145ba614d06565b5b1480156145c9575060098510155b80156145e457506a027b46536c66c8e3000000866080015110155b156145f6576005925060019050614641565b6005600681111561460a57614609614d06565b5b8660200151600681111561462157614620614d06565b5b14801561462f575060028410155b156146405760069250856080015191505b5b5b5b5b5b93509350939050565b5f614657613174565b5f0160089054906101000a900460ff16905090565b5f819050919050565b5f8173ffffffffffffffffffffffffffffffffffffffff163b036146d057806040517f4c9c8ce30000000000000000000000000000000000000000000000000000000081526004016146c79190614a17565b60405180910390fd5b806146fc7f360894a13ba1a3210667c828492db98dca3e2076cc3735a920a3ca505d382bbc5f1b61466c565b5f015f6101000a81548173ffffffffffffffffffffffffffffffffffffffff021916908373ffffffffffffffffffffffffffffffffffffffff16021790555050565b60605f61474b848461486b565b905080801561478157505f61475e61487f565b118061478057505f8473ffffffffffffffffffffffffffffffffffffffff163b115b5b156147965761478e614886565b915050614829565b80156147d957836040517f9996b3150000000000000000000000000000000000000000000000000000000081526004016147d09190614a17565b60405180910390fd5b5f6147e261487f565b11156147f5576147f06148a3565b614827565b6040517fd6bda27500000000000000000000000000000000000000000000000000000000815260040160405180910390fd5b505b92915050565b5f341115614869576040517fb398979f00000000000000000000000000000000000000000000000000000000815260040160405180910390fd5b565b5f5f5f835160208501865af4905092915050565b5f3d905090565b606060405190503d81523d5f602083013e3d602001810160405290565b6040513d5f823e3d81fd5b6040518060c00160405280600690602082028036833780820191505090505090565b5f82825260208201905092915050565b7f4e4f5f4449524543545f53454e440000000000000000000000000000000000005f82015250565b5f614914600e836148d0565b915061491f826148e0565b602082019050919050565b5f6020820190508181035f83015261494181614908565b9050919050565b5f604051905090565b5f5ffd5b5f5ffd5b60078110614965575f5ffd5b50565b5f8135905061497681614959565b92915050565b5f6020828403121561499157614990614951565b5b5f61499e84828501614968565b91505092915050565b5f819050919050565b6149b9816149a7565b82525050565b5f6020820190506149d25f8301846149b0565b92915050565b5f73ffffffffffffffffffffffffffffffffffffffff82169050919050565b5f614a01826149d8565b9050919050565b614a11816149f7565b82525050565b5f602082019050614a2a5f830184614a08565b92915050565b614a39816149f7565b8114614a43575f5ffd5b50565b5f81359050614a5481614a30565b92915050565b614a63816149a7565b8114614a6d575f5ffd5b50565b5f81359050614a7e81614a5a565b92915050565b5f5f60408385031215614a9a57614a99614951565b5b5f614aa785828601614a46565b9250506020614ab885828601614a70565b9150509250929050565b5f60208284031215614ad757614ad6614951565b5b5f614ae484828501614a46565b91505092915050565b5f5f5f5f5f60a08688031215614b0657614b05614951565b5b5f614b1388828901614a46565b9550506020614b2488828901614a46565b9450506040614b3588828901614a46565b9350506060614b4688828901614a46565b9250506080614b5788828901614a46565b9150509295509295909350565b5f81519050919050565b5f82825260208201905092915050565b5f819050602082019050919050565b614b96816149f7565b82525050565b614ba5816149a7565b82525050565b606082015f820151614bbf5f850182614b8d565b506020820151614bd26020850182614b9c565b506040820151614be56040850182614b9c565b50505050565b5f614bf68383614bab565b60608301905092915050565b5f602082019050919050565b5f614c1882614b64565b614c228185614b6e565b9350614c2d83614b7e565b805f5b83811015614c5d578151614c448882614beb565b9750614c4f83614c02565b925050600181019050614c30565b5085935050505092915050565b5f6020820190508181035f830152614c828184614c0e565b905092915050565b5f60a082019050614c9d5f8301886149b0565b614caa60208301876149b0565b614cb760408301866149b0565b614cc460608301856149b0565b614cd160808301846149b0565b9695505050505050565b5f60208284031215614cf057614cef614951565b5b5f614cfd84828501614a70565b91505092915050565b7f4e487b71000000000000000000000000000000000000000000000000000000005f52602160045260245ffd5b60078110614d4457614d43614d06565b5b50565b5f819050614d5482614d33565b919050565b5f614d6382614d47565b9050919050565b614d7381614d59565b82525050565b5f8115159050919050565b614d8d81614d79565b82525050565b5f61012082019050614da75f83018c614a08565b614db4602083018b614d6a565b614dc1604083018a6149b0565b614dce60608301896149b0565b614ddb60808301886149b0565b614de860a08301876149b0565b614df560c08301866149b0565b614e0260e08301856149b0565b614e10610100830184614d84565b9a9950505050505050505050565b5f5ffd5b5f5ffd5b5f601f19601f8301169050919050565b7f4e487b71000000000000000000000000000000000000000000000000000000005f52604160045260245ffd5b614e6c82614e26565b810181811067ffffffffffffffff82111715614e8b57614e8a614e36565b5b80604052505050565b5f614e9d614948565b9050614ea98282614e63565b919050565b5f67ffffffffffffffff821115614ec857614ec7614e36565b5b614ed182614e26565b9050602081019050919050565b828183375f83830152505050565b5f614efe614ef984614eae565b614e94565b905082815260208101848484011115614f1a57614f19614e22565b5b614f25848285614ede565b509392505050565b5f82601f830112614f4157614f40614e1e565b5b8135614f51848260208601614eec565b91505092915050565b5f5f60408385031215614f7057614f6f614951565b5b5f614f7d85828601614a46565b925050602083013567ffffffffffffffff811115614f9e57614f9d614955565b5b614faa85828601614f2d565b9150509250929050565b5f819050919050565b614fc681614fb4565b82525050565b5f602082019050614fdf5f830184614fbd565b92915050565b5f5f5f60608486031215614ffc57614ffb614951565b5b5f61500986828701614a46565b935050602061501a86828701614a70565b925050604061502b86828701614a46565b9150509250925092565b5f6020820190506150485f830184614d84565b92915050565b5f60a0820190506150615f8301886149b0565b61506e60208301876149b0565b61507b60408301866149b0565b61508860608301856149b0565b6150956080830184614d84565b9695505050505050565b5f81519050919050565b8281835e5f83830152505050565b5f6150c18261509f565b6150cb81856148d0565b93506150db8185602086016150a9565b6150e481614e26565b840191505092915050565b5f6020820190508181035f83015261510781846150b7565b905092915050565b5f60c0820190506151225f830189614d6a565b61512f6020830188614a08565b61513c60408301876149b0565b61514960608301866149b0565b61515660808301856149b0565b61516360a08301846149b0565b979650505050505050565b61517781614d79565b8114615181575f5ffd5b50565b5f813590506151928161516e565b92915050565b5f602082840312156151ad576151ac614951565b5b5f6151ba84828501615184565b91505092915050565b5f6060820190506151d65f830186614a08565b6151e360208301856149b0565b6151f060408301846149b0565b949350505050565b5f81519050919050565b5f82825260208201905092915050565b5f819050602082019050919050565b5f61522c8383614b8d565b60208301905092915050565b5f602082019050919050565b5f61524e826151f8565b6152588185615202565b935061526383615212565b805f5b8381101561529357815161527a8882615221565b975061528583615238565b925050600181019050615266565b5085935050505092915050565b5f6020820190508181035f8301526152b88184615244565b905092915050565b7f4e487b71000000000000000000000000000000000000000000000000000000005f52601160045260245ffd5b5f6152f7826149a7565b9150615302836149a7565b925082820390508181111561531a576153196152c0565b5b92915050565b5f61532a826149a7565b9150615335836149a7565b9250828202615343816149a7565b9150828204841483151761535a576153596152c0565b5b5092915050565b7f4e487b71000000000000000000000000000000000000000000000000000000005f52601260045260245ffd5b5f615398826149a7565b91506153a3836149a7565b9250826153b3576153b2615361565b5b828204905092915050565b5f815190506153cc81614a30565b92915050565b5f815190506153e081614a5a565b92915050565b5f5f5f5f608085870312156153fe576153fd614951565b5b5f61540b878288016153be565b945050602061541c878288016153d2565b935050604061542d878288016153d2565b925050606061543e878288016153d2565b91505092959194509250565b5f819050919050565b5f67ffffffffffffffff82169050919050565b5f819050919050565b5f61548961548461547f8461544a565b615466565b615453565b9050919050565b6154998161546f565b82525050565b5f6020820190506154b25f830184615490565b92915050565b5f6154c2826149a7565b91506154cd836149a7565b92508282019050808211156154e5576154e46152c0565b5b92915050565b5f6040820190506154fe5f830185614a08565b61550b60208301846149b0565b9392505050565b7f46696e616e63652070617573652e0000000000000000000000000000000000005f82015250565b5f615546600e836148d0565b915061555182615512565b602082019050919050565b5f6020820190508181035f8301526155738161553a565b9050919050565b7f4e6f74207065726d69742e0000000000000000000000000000000000000000005f82015250565b5f6155ae600b836148d0565b91506155b98261557a565b602082019050919050565b5f6020820190508181035f8301526155db816155a2565b9050919050565b7f5245434f4d4d454e444154494f4e5f49535f52455155495245445f52454645525f8201527f52414c2e00000000000000000000000000000000000000000000000000000000602082015250565b5f61563c6024836148d0565b9150615647826155e2565b604082019050919050565b5f6020820190508181035f83015261566981615630565b9050919050565b5f6040820190506156835f830185614a08565b6156906020830184614a08565b9392505050565b5f6060820190506156aa5f830186614a08565b6156b76020830185614a08565b6156c460408301846149b0565b949350505050565b5f81519050919050565b5f81905092915050565b5f6156ea826156cc565b6156f481856156d6565b93506157048185602086016150a9565b80840191505092915050565b5f61571b82846156e0565b915081905092915050565b5f815190506157348161516e565b92915050565b5f6020828403121561574f5761574e614951565b5b5f61575c84828501615726565b91505092915050565b7f5472616e7366657248656c7065723a205452414e534645525f46524f4d5f46415f8201527f494c454400000000000000000000000000000000000000000000000000000000602082015250565b5f6157bf6024836148d0565b91506157ca82615765565b604082019050919050565b5f6020820190508181035f8301526157ec816157b3565b9050919050565b6157fc81614fb4565b8114615806575f5ffd5b50565b5f81519050615817816157f3565b92915050565b5f6020828403121561583257615831614951565b5b5f61583f84828501615809565b91505092915050565b7f5472616e7366657248656c7065723a205452414e534645525f4641494c4544005f82015250565b5f61587c601f836148d0565b915061588782615848565b602082019050919050565b5f6020820190508181035f8301526158a981615870565b9050919050565b7f4e487b71000000000000000000000000000000000000000000000000000000005f52603260045260245ffd5b5f6158e7826149a7565b91507fffffffffffffffffffffffffffffffffffffffffffffffffffffffffffffffff8203615919576159186152c0565b5b60018201905091905056fea2646970667358221220fcadec228b472fc93e477a953fa67624b2bd8614a3e37f92904170e6466bc88364736f6c634300081e0033","linkReferences":{}},"methodIdentifiers":{"DEAD()":"03fd2a45","UPGRADE_INTERFACE_VERSION()":"ad3cb1cc","USDT()":"c54e44eb","admin()":"f851a440","awardRecords(address,uint256)":"c023b3a5","claim()":"4e71d92d","decimals()":"313ce567","directReferrals(address,uint256)":"05ad3935","djsv1()":"ac6439b5","emergencyWithdraw(address,uint256,address)":"551512de","getDirectReferrals(address)":"d2c8e0e5","getInvalidStaking(address)":"19b12a53","getReferralAwardRecords(address)":"18785eb6","getUserAward(address)":"3e4ff6f2","getUserInfoBasic(address)":"b5006823","getUserInfoReferral(address)":"9238b0f9","getUserShareLevelAward(address)":"c7c93c94","getUserStakingAward(address)":"0acf716b","initialCode()":"10baf089","initialize(address,address,address,address,address)":"1459457a","isAddDirectReferrals(address)":"a3f2a64a","lastShareAwardTime()":"922be46d","liquidityManager()":"33827438","migrationReferral(address)":"0ff9ef12","nodeDividends()":"c7fb372f","owner()":"8da5cb5b","pause()":"8456cb59","perSecondStakedAeward()":"905635d4","perSharePerformanceAward()":"db81c515","proxiableUUID()":"52d1902d","referral(address)":"7247959a","referralInfo(address)":"39540b0a","renounceOwnership()":"715018a6","setPause(bool)":"bedb86fb","shareRate()":"fb802a65","stake(uint256)":"a694fc3a","subCoinQuotas(uint8)":"00c4bb2b","swapSubToken(uint256)":"1b602f22","totalSharePerformance()":"d567aadb","totalStakedUsdt()":"b2859e2b","transferOwnership(address)":"f2fde38b","upgradeToAndCall(address,bytes)":"4f1ef286","userInfo(address)":"1959a002","whetherNeedMigrate(address)":"85215f7c"},"id":47}