{"abi":[{"type":"receive","stateMutability":"payable"},{"type":"function","name":"DEAD","inputs":[],"outputs":[{"name":"","type":"address","internalType":"address"}],"stateMutability":"view"},{"type":"function","name":"MULTIPLE","inputs":[],"outputs":[{"name":"","type":"uint256","internalType":"uint256"}],"stateMutability":"view"},{"type":"function","name":"UPGRADE_INTERFACE_VERSION","inputs":[],"outputs":[{"name":"","type":"string","internalType":"string"}],"stateMutability":"view"},{"type":"function","name":"USDT","inputs":[],"outputs":[{"name":"","type":"address","internalType":"address"}],"stateMutability":"view"},{"type":"function","name":"admin","inputs":[],"outputs":[{"name":"","type":"address","internalType":"address"}],"stateMutability":"view"},{"type":"function","name":"awardRecords","inputs":[{"name":"","type":"address","internalType":"address"},{"name":"","type":"uint256","internalType":"uint256"}],"outputs":[{"name":"from","type":"address","internalType":"address"},{"name":"amount","type":"uint256","internalType":"uint256"},{"name":"time","type":"uint256","internalType":"uint256"}],"stateMutability":"view"},{"type":"function","name":"claim","inputs":[],"outputs":[],"stateMutability":"nonpayable"},{"type":"function","name":"decimals","inputs":[],"outputs":[{"name":"","type":"uint256","internalType":"uint256"}],"stateMutability":"view"},{"type":"function","name":"directReferrals","inputs":[{"name":"","type":"address","internalType":"address"},{"name":"","type":"uint256","internalType":"uint256"}],"outputs":[{"name":"","type":"address","internalType":"address"}],"stateMutability":"view"},{"type":"function","name":"djsv1","inputs":[],"outputs":[{"name":"","type":"address","internalType":"address"}],"stateMutability":"view"},{"type":"function","name":"emergencyWithdraw","inputs":[{"name":"_token","type":"address","internalType":"address"},{"name":"_amount","type":"uint256","internalType":"uint256"},{"name":"_to","type":"address","internalType":"address"}],"outputs":[],"stateMutability":"nonpayable"},{"type":"function","name":"getDirectReferrals","inputs":[{"name":"user","type":"address","internalType":"address"}],"outputs":[{"name":"","type":"address[]","internalType":"address[]"}],"stateMutability":"view"},{"type":"function","name":"getInvalidStaking","inputs":[{"name":"user","type":"address","internalType":"address"}],"outputs":[{"name":"","type":"uint256","internalType":"uint256"}],"stateMutability":"view"},{"type":"function","name":"getReferralAwardRecords","inputs":[{"name":"user","type":"address","internalType":"address"}],"outputs":[{"name":"","type":"tuple[]","internalType":"struct Process.Record[]","components":[{"name":"from","type":"address","internalType":"address"},{"name":"amount","type":"uint256","internalType":"uint256"},{"name":"time","type":"uint256","internalType":"uint256"}]}],"stateMutability":"view"},{"type":"function","name":"getUserAward","inputs":[{"name":"user","type":"address","internalType":"address"}],"outputs":[{"name":"","type":"uint256","internalType":"uint256"}],"stateMutability":"view"},{"type":"function","name":"getUserInfoBasic","inputs":[{"name":"user","type":"address","internalType":"address"}],"outputs":[{"name":"level","type":"uint8","internalType":"enum Process.Level"},{"name":"recommender","type":"address","internalType":"address"},{"name":"stakingUsdt","type":"uint256","internalType":"uint256"},{"name":"multiple","type":"uint256","internalType":"uint256"},{"name":"totalAward","type":"uint256","internalType":"uint256"},{"name":"shareAward","type":"uint256","internalType":"uint256"}],"stateMutability":"view"},{"type":"function","name":"getUserInfoReferral","inputs":[{"name":"user","type":"address","internalType":"address"}],"outputs":[{"name":"referralNum","type":"uint256","internalType":"uint256"},{"name":"performance","type":"uint256","internalType":"uint256"},{"name":"referralAward","type":"uint256","internalType":"uint256"},{"name":"subCoinQuota","type":"uint256","internalType":"uint256"},{"name":"isMigration","type":"bool","internalType":"bool"}],"stateMutability":"view"},{"type":"function","name":"getUserShareLevelAward","inputs":[{"name":"user","type":"address","internalType":"address"}],"outputs":[{"name":"","type":"uint256","internalType":"uint256"}],"stateMutability":"view"},{"type":"function","name":"getUserStakingAward","inputs":[{"name":"user","type":"address","internalType":"address"}],"outputs":[{"name":"","type":"uint256","internalType":"uint256"}],"stateMutability":"view"},{"type":"function","name":"initialCode","inputs":[],"outputs":[{"name":"","type":"address","internalType":"address"}],"stateMutability":"view"},{"type":"function","name":"initialize","inputs":[{"name":"_admin","type":"address","internalType":"address"},{"name":"_initialCode","type":"address","internalType":"address"},{"name":"_djsv1","type":"address","internalType":"address"},{"name":"_nodeDividends","type":"address","internalType":"address"},{"name":"_liquidityManager","type":"address","internalType":"address"}],"outputs":[],"stateMutability":"nonpayable"},{"type":"function","name":"isAddDirectReferrals","inputs":[{"name":"","type":"address","internalType":"address"}],"outputs":[{"name":"","type":"bool","internalType":"bool"}],"stateMutability":"view"},{"type":"function","name":"lastShareAwardTime","inputs":[],"outputs":[{"name":"","type":"uint256","internalType":"uint256"}],"stateMutability":"view"},{"type":"function","name":"liquidityManager","inputs":[],"outputs":[{"name":"","type":"address","internalType":"address"}],"stateMutability":"view"},{"type":"function","name":"migrationReferral","inputs":[{"name":"user","type":"address","internalType":"address"}],"outputs":[],"stateMutability":"nonpayable"},{"type":"function","name":"nodeDividends","inputs":[],"outputs":[{"name":"","type":"address","internalType":"address"}],"stateMutability":"view"},{"type":"function","name":"owner","inputs":[],"outputs":[{"name":"","type":"address","internalType":"address"}],"stateMutability":"view"},{"type":"function","name":"pause","inputs":[],"outputs":[{"name":"","type":"bool","internalType":"bool"}],"stateMutability":"view"},{"type":"function","name":"perSecondStakedAeward","inputs":[],"outputs":[{"name":"","type":"uint256","internalType":"uint256"}],"stateMutability":"view"},{"type":"function","name":"perSharePerformanceAward","inputs":[],"outputs":[{"name":"","type":"uint256","internalType":"uint256"}],"stateMutability":"view"},{"type":"function","name":"proxiableUUID","inputs":[],"outputs":[{"name":"","type":"bytes32","internalType":"bytes32"}],"stateMutability":"view"},{"type":"function","name":"referral","inputs":[{"name":"recommender","type":"address","internalType":"address"}],"outputs":[],"stateMutability":"nonpayable"},{"type":"function","name":"referralInfo","inputs":[{"name":"","type":"address","internalType":"address"}],"outputs":[{"name":"recommender","type":"address","internalType":"address"},{"name":"level","type":"uint8","internalType":"enum Process.Level"},{"name":"referralNum","type":"uint256","internalType":"uint256"},{"name":"performance","type":"uint256","internalType":"uint256"},{"name":"referralAward","type":"uint256","internalType":"uint256"},{"name":"subCoinQuota","type":"uint256","internalType":"uint256"},{"name":"shareAwardDebt","type":"uint256","internalType":"uint256"},{"name":"isMigration","type":"bool","internalType":"bool"}],"stateMutability":"view"},{"type":"function","name":"renounceOwnership","inputs":[],"outputs":[],"stateMutability":"nonpayable"},{"type":"function","name":"setLiquidityManager","inputs":[{"name":"_liquidityManager","type":"address","internalType":"address"}],"outputs":[],"stateMutability":"nonpayable"},{"type":"function","name":"setNodeDividends","inputs":[{"name":"_nodeDividends","type":"address","internalType":"address"}],"outputs":[],"stateMutability":"nonpayable"},{"type":"function","name":"setPause","inputs":[{"name":"isPause","type":"bool","internalType":"bool"}],"outputs":[],"stateMutability":"nonpayable"},{"type":"function","name":"shareRate","inputs":[],"outputs":[{"name":"","type":"uint256","internalType":"uint256"}],"stateMutability":"view"},{"type":"function","name":"stake","inputs":[{"name":"amountUSDT","type":"uint256","internalType":"uint256"}],"outputs":[],"stateMutability":"nonpayable"},{"type":"function","name":"subCoinQuotas","inputs":[{"name":"","type":"uint8","internalType":"enum Process.Level"}],"outputs":[{"name":"","type":"uint256","internalType":"uint256"}],"stateMutability":"view"},{"type":"function","name":"swapSubToken","inputs":[{"name":"amountUSDT","type":"uint256","internalType":"uint256"}],"outputs":[],"stateMutability":"nonpayable"},{"type":"function","name":"totalSharePerformance","inputs":[],"outputs":[{"name":"","type":"uint256","internalType":"uint256"}],"stateMutability":"view"},{"type":"function","name":"totalStakedUsdt","inputs":[],"outputs":[{"name":"","type":"uint256","internalType":"uint256"}],"stateMutability":"view"},{"type":"function","name":"transferOwnership","inputs":[{"name":"newOwner","type":"address","internalType":"address"}],"outputs":[],"stateMutability":"nonpayable"},{"type":"function","name":"upgradeToAndCall","inputs":[{"name":"newImplementation","type":"address","internalType":"address"},{"name":"data","type":"bytes","internalType":"bytes"}],"outputs":[],"stateMutability":"payable"},{"type":"function","name":"userInfo","inputs":[{"name":"","type":"address","internalType":"address"}],"outputs":[{"name":"stakingUsdt","type":"uint256","internalType":"uint256"},{"name":"multiple","type":"uint256","internalType":"uint256"},{"name":"stakingTime","type":"uint256","internalType":"uint256"},{"name":"pendingProfit","type":"uint256","internalType":"uint256"},{"name":"extracted","type":"uint256","internalType":"uint256"}],"stateMutability":"view"},{"type":"function","name":"validReferralCode","inputs":[{"name":"user","type":"address","internalType":"address"}],"outputs":[{"name":"","type":"bool","internalType":"bool"}],"stateMutability":"view"},{"type":"function","name":"whetherNeedMigrate","inputs":[{"name":"user","type":"address","internalType":"address"}],"outputs":[{"name":"","type":"bool","internalType":"bool"}],"stateMutability":"view"},{"type":"event","name":"Claimed","inputs":[{"name":"user","type":"address","indexed":false,"internalType":"address"},{"name":"amount","type":"uint256","indexed":false,"internalType":"uint256"}],"anonymous":false},{"type":"event","name":"Initialized","inputs":[{"name":"version","type":"uint64","indexed":false,"internalType":"uint64"}],"anonymous":false},{"type":"event","name":"OwnershipTransferred","inputs":[{"name":"previousOwner","type":"address","indexed":true,"internalType":"address"},{"name":"newOwner","type":"address","indexed":true,"internalType":"address"}],"anonymous":false},{"type":"event","name":"Referrals","inputs":[{"name":"recommender","type":"address","indexed":false,"internalType":"address"},{"name":"referred","type":"address","indexed":false,"internalType":"address"}],"anonymous":false},{"type":"event","name":"Staked","inputs":[{"name":"user","type":"address","indexed":false,"internalType":"address"},{"name":"amount","type":"uint256","indexed":false,"internalType":"uint256"}],"anonymous":false},{"type":"event","name":"Upgraded","inputs":[{"name":"implementation","type":"address","indexed":true,"internalType":"address"}],"anonymous":false},{"type":"error","name":"AddressEmptyCode","inputs":[{"name":"target","type":"address","internalType":"address"}]},{"type":"error","name":"AlreadyMigrated","inputs":[]},{"type":"error","name":"AmountTooLow","inputs":[]},{"type":"error","name":"ERC1967InvalidImplementation","inputs":[{"name":"implementation","type":"address","internalType":"address"}]},{"type":"error","name":"ERC1967NonPayable","inputs":[]},{"type":"error","name":"FailedCall","inputs":[]},{"type":"error","name":"InsufficientQuota","inputs":[]},{"type":"error","name":"InvalidInitialization","inputs":[]},{"type":"error","name":"InvalidRecommender","inputs":[]},{"type":"error","name":"InviterExists","inputs":[]},{"type":"error","name":"NeedMigrate","inputs":[]},{"type":"error","name":"NoMigrationRequired","inputs":[]},{"type":"error","name":"NoReward","inputs":[]},{"type":"error","name":"NoStake","inputs":[]},{"type":"error","name":"NotInitializing","inputs":[]},{"type":"error","name":"NotRequiredReferral","inputs":[]},{"type":"error","name":"OwnableInvalidOwner","inputs":[{"name":"owner","type":"address","internalType":"address"}]},{"type":"error","name":"OwnableUnauthorizedAccount","inputs":[{"name":"account","type":"address","internalType":"address"}]},{"type":"error","name":"ReentrancyGuardReentrantCall","inputs":[]},{"type":"error","name":"UUPSUnauthorizedCallContext","inputs":[]},{"type":"error","name":"UUPSUnsupportedProxiableUUID","inputs":[{"name":"slot","type":"bytes32","internalType":"bytes32"}]},{"type":"error","name":"ZeroAddress","inputs":[]}],"bytecode":{"object":"0x60a06040523073ffffffffffffffffffffffffffffffffffffffff1660809073ffffffffffffffffffffffffffffffffffffffff168152503480156041575f5ffd5b5060015f819055506080516159a361006f5f395f81816134da0152818161352f01526136e901526159a35ff3fe608060405260043610610295575f3560e01c806385215f7c11610159578063b5006823116100c0578063d2c8e0e511610079578063d2c8e0e514610a99578063d567aadb14610ad5578063db81c51514610aff578063f2fde38b14610b29578063f851a44014610b51578063fb802a6514610b7b576102d5565b8063b500682314610962578063bedb86fb146109a3578063c023b3a5146109cb578063c54e44eb14610a09578063c7c93c9414610a33578063c7fb372f14610a6f576102d5565b80639238b0f9116101125780639238b0f914610840578063a3f2a64a14610880578063a694fc3a146108bc578063ac6439b5146108e4578063ad3cb1cc1461090e578063b2859e2b14610938576102d5565b806385215f7c1461072257806387631a2a1461075e5780638da5cb5b1461079a5780638f011a28146107c4578063905635d4146107ec578063922be46d14610816576102d5565b806333827438116101fd57806352d1902d116101b657806352d1902d1461063e578063551512de14610668578063715018a6146106905780637247959a146106a65780637516a79e146106ce5780638456cb59146106f8576102d5565b8063338274381461053b57806339540b0a146105655780633c1624d4146105a85780633e4ff6f2146105d05780634e71d92d1461060c5780634f1ef28614610622576102d5565b80631459457a1161024f5780631459457a1461040957806318785eb6146104315780631959a0021461046d57806319b12a53146104ad5780631b602f22146104e9578063313ce56714610511576102d5565b8062c4bb2b146102d957806303fd2a451461031557806305ad39351461033f5780630acf716b1461037b5780630ff9ef12146103b757806310baf089146103df576102d5565b366102d5576040517f08c379a00000000000000000000000000000000000000000000000000000000081526004016102cc906149c9565b60405180910390fd5b5f5ffd5b3480156102e4575f5ffd5b506102ff60048036038101906102fa9190614a1b565b610ba5565b60405161030c9190614a5e565b60405180910390f35b348015610320575f5ffd5b50610329610bba565b6040516103369190614ab6565b60405180910390f35b34801561034a575f5ffd5b5061036560048036038101906103609190614b23565b610bc0565b6040516103729190614ab6565b60405180910390f35b348015610386575f5ffd5b506103a1600480360381019061039c9190614b61565b610c08565b6040516103ae9190614a5e565b60405180910390f35b3480156103c2575f5ffd5b506103dd60048036038101906103d89190614b61565b610cc5565b005b3480156103ea575f5ffd5b506103f3610ec3565b6040516104009190614ab6565b60405180910390f35b348015610414575f5ffd5b5061042f600480360381019061042a9190614b8c565b610ee8565b005b34801561043c575f5ffd5b5061045760048036038101906104529190614b61565b611361565b6040516104649190614d09565b60405180910390f35b348015610478575f5ffd5b50610493600480360381019061048e9190614b61565b611462565b6040516104a4959493929190614d29565b60405180910390f35b3480156104b8575f5ffd5b506104d360048036038101906104ce9190614b61565b611494565b6040516104e09190614a5e565b60405180910390f35b3480156104f4575f5ffd5b5061050f600480360381019061050a9190614d7a565b61154e565b005b34801561051c575f5ffd5b506105256116eb565b6040516105329190614a5e565b60405180910390f35b348015610546575f5ffd5b5061054f6116f1565b60405161055c9190614ab6565b60405180910390f35b348015610570575f5ffd5b5061058b60048036038101906105869190614b61565b611716565b60405161059f989796959493929190614e32565b60405180910390f35b3480156105b3575f5ffd5b506105ce60048036038101906105c99190614b61565b611791565b005b3480156105db575f5ffd5b506105f660048036038101906105f19190614b61565b6117dc565b6040516106039190614a5e565b60405180910390f35b348015610617575f5ffd5b506106206119b0565b005b61063c60048036038101906106379190614fea565b611c7c565b005b348015610649575f5ffd5b50610652611c9b565b60405161065f919061505c565b60405180910390f35b348015610673575f5ffd5b5061068e60048036038101906106899190615075565b611ccc565b005b34801561069b575f5ffd5b506106a4611d6b565b005b3480156106b1575f5ffd5b506106cc60048036038101906106c79190614b61565b611d7e565b005b3480156106d9575f5ffd5b506106e2612180565b6040516106ef9190614a5e565b60405180910390f35b348015610703575f5ffd5b5061070c612185565b60405161071991906150c5565b60405180910390f35b34801561072d575f5ffd5b5061074860048036038101906107439190614b61565b612197565b60405161075591906150c5565b60405180910390f35b348015610769575f5ffd5b50610784600480360381019061077f9190614b61565b6122c5565b60405161079191906150c5565b60405180910390f35b3480156107a5575f5ffd5b506107ae61230f565b6040516107bb9190614ab6565b60405180910390f35b3480156107cf575f5ffd5b506107ea60048036038101906107e59190614b61565b612344565b005b3480156107f7575f5ffd5b5061080061238f565b60405161080d9190614a5e565b60405180910390f35b348015610821575f5ffd5b5061082a612395565b6040516108379190614a5e565b60405180910390f35b34801561084b575f5ffd5b5061086660048036038101906108619190614b61565b61239b565b6040516108779594939291906150de565b60405180910390f35b34801561088b575f5ffd5b506108a660048036038101906108a19190614b61565b6124f3565b6040516108b391906150c5565b60405180910390f35b3480156108c7575f5ffd5b506108e260048036038101906108dd9190614d7a565b612510565b005b3480156108ef575f5ffd5b506108f8612add565b6040516109059190614ab6565b60405180910390f35b348015610919575f5ffd5b50610922612b02565b60405161092f919061517f565b60405180910390f35b348015610943575f5ffd5b5061094c612b3b565b6040516109599190614a5e565b60405180910390f35b34801561096d575f5ffd5b5061098860048036038101906109839190614b61565b612b41565b60405161099a9695949392919061519f565b60405180910390f35b3480156109ae575f5ffd5b506109c960048036038101906109c49190615228565b612d21565b005b3480156109d6575f5ffd5b506109f160048036038101906109ec9190614b23565b612dcc565b604051610a0093929190615253565b60405180910390f35b348015610a14575f5ffd5b50610a1d612e2b565b604051610a2a9190614ab6565b60405180910390f35b348015610a3e575f5ffd5b50610a596004803603810190610a549190614b61565b612e43565b604051610a669190614a5e565b60405180910390f35b348015610a7a575f5ffd5b50610a83613062565b604051610a909190614ab6565b60405180910390f35b348015610aa4575f5ffd5b50610abf6004803603810190610aba9190614b61565b613087565b604051610acc9190615330565b60405180910390f35b348015610ae0575f5ffd5b50610ae961314f565b604051610af69190614a5e565b60405180910390f35b348015610b0a575f5ffd5b50610b13613155565b604051610b209190614a5e565b60405180910390f35b348015610b34575f5ffd5b50610b4f6004803603810190610b4a9190614b61565b61315b565b005b348015610b5c575f5ffd5b50610b656131df565b604051610b729190614ab6565b60405180910390f35b348015610b86575f5ffd5b50610b8f613204565b604051610b9c9190614a5e565b60405180910390f35b6006602052805f5260405f205f915090505481565b61dead81565b6004602052815f5260405f208181548110610bd9575f80fd5b905f5260205f20015f915091509054906101000a900473ffffffffffffffffffffffffffffffffffffffff1681565b5f5f60015f8473ffffffffffffffffffffffffffffffffffffffff1673ffffffffffffffffffffffffffffffffffffffff1681526020019081526020015f206040518060a00160405290815f82015481526020016001820154815260200160028201548152602001600382015481526020016004820154815250509050600f54815f0151600e54836040015142610c9f919061537d565b610ca991906153b0565b610cb391906153b0565b610cbd919061541e565b915050919050565b610ccd61320a565b5f60025f8373ffffffffffffffffffffffffffffffffffffffff1673ffffffffffffffffffffffffffffffffffffffff1681526020019081526020015f209050806006015f9054906101000a900460ff1615610d55576040517fca1c3cbc00000000000000000000000000000000000000000000000000000000815260040160405180910390fd5b5f60095f9054906101000a900473ffffffffffffffffffffffffffffffffffffffff1673ffffffffffffffffffffffffffffffffffffffff16631959a002846040518263ffffffff1660e01b8152600401610db09190614ab6565b608060405180830381865afa158015610dcb573d5f5f3e3d5ffd5b505050506040513d601f19601f82011682018060405250810190610def9190615476565b50505090505f73ffffffffffffffffffffffffffffffffffffffff168173ffffffffffffffffffffffffffffffffffffffff1603610e59576040517f9c9e07a800000000000000000000000000000000000000000000000000000000815260040160405180910390fd5b80825f015f6101000a81548173ffffffffffffffffffffffffffffffffffffffff021916908373ffffffffffffffffffffffffffffffffffffffff1602179055506001826006015f6101000a81548160ff0219169083151502179055505050610ec061324e565b50565b60085f9054906101000a900473ffffffffffffffffffffffffffffffffffffffff1681565b5f610ef1613257565b90505f815f0160089054906101000a900460ff161590505f825f015f9054906101000a900467ffffffffffffffff1690505f5f8267ffffffffffffffff16148015610f395750825b90505f60018367ffffffffffffffff16148015610f6c57505f3073ffffffffffffffffffffffffffffffffffffffff163b145b905081158015610f7a575080155b15610fb1576040517ff92ee8a900000000000000000000000000000000000000000000000000000000815260040160405180910390fd5b6001855f015f6101000a81548167ffffffffffffffff021916908367ffffffffffffffff1602179055508315610ffe576001855f0160086101000a81548160ff0219169083151502179055505b61100e61100961326a565b613271565b8960075f6101000a81548173ffffffffffffffffffffffffffffffffffffffff021916908373ffffffffffffffffffffffffffffffffffffffff1602179055508860085f6101000a81548173ffffffffffffffffffffffffffffffffffffffff021916908373ffffffffffffffffffffffffffffffffffffffff1602179055508760095f6101000a81548173ffffffffffffffffffffffffffffffffffffffff021916908373ffffffffffffffffffffffffffffffffffffffff16021790555086600a5f6101000a81548173ffffffffffffffffffffffffffffffffffffffff021916908373ffffffffffffffffffffffffffffffffffffffff16021790555085600b5f6101000a81548173ffffffffffffffffffffffffffffffffffffffff021916908373ffffffffffffffffffffffffffffffffffffffff1602179055506402540be400600f8190555062015180683635c9adc5dea00000600f5467a688906bd8b0000061117e91906153b0565b611188919061541e565b611192919061541e565b600e81905550600a6013819055504260108190555068056bc75e2d6310000060065f600160068111156111c8576111c7614da5565b5b60068111156111da576111d9614da5565b5b81526020019081526020015f2081905550681043561a882930000060065f6002600681111561120c5761120b614da5565b5b600681111561121e5761121d614da5565b5b81526020019081526020015f2081905550681b1ae4d6e2ef50000060065f600360068111156112505761124f614da5565b5b600681111561126257611261614da5565b5b81526020019081526020015f2081905550683635c9adc5dea0000060065f6004600681111561129457611293614da5565b5b60068111156112a6576112a5614da5565b5b81526020019081526020015f208190555068a2a15d09519be0000060065f600560068111156112d8576112d7614da5565b5b60068111156112ea576112e9614da5565b5b81526020019081526020015f20819055508315611355575f855f0160086101000a81548160ff0219169083151502179055507fc7f505b2f371ae2175ee4913f4499e1f2633a7b5936321eed1cdaeb6115181d2600160405161134c919061552f565b60405180910390a15b50505050505050505050565b606060035f8373ffffffffffffffffffffffffffffffffffffffff1673ffffffffffffffffffffffffffffffffffffffff1681526020019081526020015f20805480602002602001604051908101604052809291908181526020015f905b82821015611457578382905f5260205f2090600302016040518060600160405290815f82015f9054906101000a900473ffffffffffffffffffffffffffffffffffffffff1673ffffffffffffffffffffffffffffffffffffffff1673ffffffffffffffffffffffffffffffffffffffff16815260200160018201548152602001600282015481525050815260200190600101906113bf565b505050509050919050565b6001602052805f5260405f205f91509050805f0154908060010154908060020154908060030154908060040154905085565b5f5f60015f8473ffffffffffffffffffffffffffffffffffffffff1673ffffffffffffffffffffffffffffffffffffffff1681526020019081526020015f2090505f8160040154600f546114e786612e43565b6114f1919061541e565b6114fa86610c08565b84600301546115099190615548565b6115139190615548565b61151d9190615548565b90506003825f015461152f91906153b0565b81111561154357815f015492505050611549565b5f925050505b919050565b60025f3373ffffffffffffffffffffffffffffffffffffffff1673ffffffffffffffffffffffffffffffffffffffff1681526020019081526020015f20600401548111156115c8576040517f6aea990400000000000000000000000000000000000000000000000000000000815260040160405180910390fd5b611609733c83065b83a8fd66587f330845f4603f7c49275c33600b5f9054906101000a900473ffffffffffffffffffffffffffffffffffffffff1684613285565b600b5f9054906101000a900473ffffffffffffffffffffffffffffffffffffffff1673ffffffffffffffffffffffffffffffffffffffff166379e32cd933836040518363ffffffff1660e01b815260040161166592919061557b565b5f604051808303815f87803b15801561167c575f5ffd5b505af115801561168e573d5f5f3e3d5ffd5b505050508060025f3373ffffffffffffffffffffffffffffffffffffffff1673ffffffffffffffffffffffffffffffffffffffff1681526020019081526020015f206004015f8282546116e1919061537d565b9250508190555050565b600f5481565b600b5f9054906101000a900473ffffffffffffffffffffffffffffffffffffffff1681565b6002602052805f5260405f205f91509050805f015f9054906101000a900473ffffffffffffffffffffffffffffffffffffffff1690805f0160149054906101000a900460ff1690806001015490806002015490806003015490806004015490806005015490806006015f9054906101000a900460ff16905088565b6117996133b8565b80600b5f6101000a81548173ffffffffffffffffffffffffffffffffffffffff021916908373ffffffffffffffffffffffffffffffffffffffff16021790555050565b5f5f60015f8473ffffffffffffffffffffffffffffffffffffffff1673ffffffffffffffffffffffffffffffffffffffff1681526020019081526020015f206040518060a00160405290815f820154815260200160018201548152602001600282015481526020016003820154815260200160048201548152505090505f815f01510361186c575f9150506119ab565b5f61187684610c08565b90505f61188285612e43565b90505f60025f8773ffffffffffffffffffffffffffffffffffffffff1673ffffffffffffffffffffffffffffffffffffffff1681526020019081526020015f2060030154828486606001516118d79190615548565b6118e19190615548565b6118eb9190615548565b905060085f9054906101000a900473ffffffffffffffffffffffffffffffffffffffff1673ffffffffffffffffffffffffffffffffffffffff168673ffffffffffffffffffffffffffffffffffffffff160361194d57809450505050506119ab565b5f6003855f015161195e91906153b0565b905080856080015110611978575f955050505050506119ab565b5f856080015182611989919061537d565b9050808311156119a1578096505050505050506119ab565b8296505050505050505b919050565b6119b861320a565b600d5f9054906101000a900460ff1615611a07576040517f08c379a00000000000000000000000000000000000000000000000000000000081526004016119fe906155ec565b60405180910390fd5b5f60015f3373ffffffffffffffffffffffffffffffffffffffff1673ffffffffffffffffffffffffffffffffffffffff1681526020019081526020015f2090505f815f015403611a83576040517fcacf989a00000000000000000000000000000000000000000000000000000000815260040160405180910390fd5b5f611a8d33611494565b600c54611a9a919061537d565b9050611aa58161343f565b5f611aaf336117dc565b90505f8103611aea576040517f6e99268600000000000000000000000000000000000000000000000000000000815260040160405180910390fd5b5f836003018190555080836004015f828254611b069190615548565b925050819055505f60025f3373ffffffffffffffffffffffffffffffffffffffff1673ffffffffffffffffffffffffffffffffffffffff1681526020019081526020015f2090505f8160030181905550600680811115611b6957611b68614da5565b5b815f0160149054906101000a900460ff166006811115611b8c57611b8b614da5565b5b03611bac578060020154601154611ba391906153b0565b81600501819055505b600b5f9054906101000a900473ffffffffffffffffffffffffffffffffffffffff1673ffffffffffffffffffffffffffffffffffffffff16632d019c4233846040518363ffffffff1660e01b8152600401611c0892919061557b565b5f604051808303815f87803b158015611c1f575f5ffd5b505af1158015611c31573d5f5f3e3d5ffd5b505050507fd8138f8a3f377c5259ca548e70e4c2de94f129f5a11036a15b69513cba2b426a3383604051611c6692919061557b565b60405180910390a150505050611c7a61324e565b565b611c846134d8565b611c8d826135be565b611c9782826135c9565b5050565b5f611ca46136e7565b7f360894a13ba1a3210667c828492db98dca3e2076cc3735a920a3ca505d382bbc5f1b905090565b3373ffffffffffffffffffffffffffffffffffffffff1660075f9054906101000a900473ffffffffffffffffffffffffffffffffffffffff1673ffffffffffffffffffffffffffffffffffffffff1614611d5b576040517f08c379a0000000000000000000000000000000000000000000000000000000008152600401611d5290615654565b60405180910390fd5b611d6683828461376e565b505050565b611d736133b8565b611d7c5f61389e565b565b611d8661320a565b611d8f33612197565b15611dc6576040517f1d9410b700000000000000000000000000000000000000000000000000000000815260040160405180910390fd5b5f73ffffffffffffffffffffffffffffffffffffffff168173ffffffffffffffffffffffffffffffffffffffff1603611e2b576040517fd92e233d00000000000000000000000000000000000000000000000000000000815260040160405180910390fd5b3373ffffffffffffffffffffffffffffffffffffffff168173ffffffffffffffffffffffffffffffffffffffff1603611e90576040517f4f2f060100000000000000000000000000000000000000000000000000000000815260040160405180910390fd5b60085f9054906101000a900473ffffffffffffffffffffffffffffffffffffffff1673ffffffffffffffffffffffffffffffffffffffff168173ffffffffffffffffffffffffffffffffffffffff1614611ffc575f73ffffffffffffffffffffffffffffffffffffffff1660025f8373ffffffffffffffffffffffffffffffffffffffff1673ffffffffffffffffffffffffffffffffffffffff1681526020019081526020015f205f015f9054906101000a900473ffffffffffffffffffffffffffffffffffffffff1673ffffffffffffffffffffffffffffffffffffffff1614158015611fbc57505f60015f8373ffffffffffffffffffffffffffffffffffffffff1673ffffffffffffffffffffffffffffffffffffffff1681526020019081526020015f205f0154115b611ffb576040517f08c379a0000000000000000000000000000000000000000000000000000000008152600401611ff2906156e2565b60405180910390fd5b5b5f73ffffffffffffffffffffffffffffffffffffffff1660025f3373ffffffffffffffffffffffffffffffffffffffff1673ffffffffffffffffffffffffffffffffffffffff1681526020019081526020015f205f015f9054906101000a900473ffffffffffffffffffffffffffffffffffffffff1673ffffffffffffffffffffffffffffffffffffffff16146120bf576040517f5b3d5a1b00000000000000000000000000000000000000000000000000000000815260040160405180910390fd5b8060025f3373ffffffffffffffffffffffffffffffffffffffff1673ffffffffffffffffffffffffffffffffffffffff1681526020019081526020015f205f015f6101000a81548173ffffffffffffffffffffffffffffffffffffffff021916908373ffffffffffffffffffffffffffffffffffffffff1602179055507f455db5b564134af440ac23bd273ce313070080fc2c3d5d36c03f62de3c628498813360405161216d929190615700565b60405180910390a161217d61324e565b50565b600381565b600d5f9054906101000a900460ff1681565b5f5f60095f9054906101000a900473ffffffffffffffffffffffffffffffffffffffff1673ffffffffffffffffffffffffffffffffffffffff16631959a002846040518263ffffffff1660e01b81526004016121f39190614ab6565b608060405180830381865afa15801561220e573d5f5f3e3d5ffd5b505050506040513d601f19601f820116820180604052508101906122329190615476565b50505090505f73ffffffffffffffffffffffffffffffffffffffff168173ffffffffffffffffffffffffffffffffffffffff16141580156122bd575060025f8473ffffffffffffffffffffffffffffffffffffffff1673ffffffffffffffffffffffffffffffffffffffff1681526020019081526020015f206006015f9054906101000a900460ff16155b915050919050565b5f5f60015f8473ffffffffffffffffffffffffffffffffffffffff1673ffffffffffffffffffffffffffffffffffffffff1681526020019081526020015f205f0154119050919050565b5f5f61231961396f565b9050805f015f9054906101000a900473ffffffffffffffffffffffffffffffffffffffff1691505090565b61234c6133b8565b80600a5f6101000a81548173ffffffffffffffffffffffffffffffffffffffff021916908373ffffffffffffffffffffffffffffffffffffffff16021790555050565b600e5481565b60105481565b5f5f5f5f5f5f60025f8873ffffffffffffffffffffffffffffffffffffffff1673ffffffffffffffffffffffffffffffffffffffff1681526020019081526020015f20604051806101000160405290815f82015f9054906101000a900473ffffffffffffffffffffffffffffffffffffffff1673ffffffffffffffffffffffffffffffffffffffff1673ffffffffffffffffffffffffffffffffffffffff1681526020015f820160149054906101000a900460ff16600681111561246257612461614da5565b5b600681111561247457612473614da5565b5b81526020016001820154815260200160028201548152602001600382015481526020016004820154815260200160058201548152602001600682015f9054906101000a900460ff16151515158152505090508060400151955080606001519450806080015193508060a0015192508060e0015191505091939590929450565b6005602052805f5260405f205f915054906101000a900460ff1681565b61251861320a565b5f60015f3373ffffffffffffffffffffffffffffffffffffffff1673ffffffffffffffffffffffffffffffffffffffff1681526020019081526020015f2090505f60025f3373ffffffffffffffffffffffffffffffffffffffff1673ffffffffffffffffffffffffffffffffffffffff1681526020019081526020015f2090505f73ffffffffffffffffffffffffffffffffffffffff16815f015f9054906101000a900473ffffffffffffffffffffffffffffffffffffffff1673ffffffffffffffffffffffffffffffffffffffff160361261f576040517faf4d1ef200000000000000000000000000000000000000000000000000000000815260040160405180910390fd5b68056bc75e2d63100000831015612662576040517f1fbaba3500000000000000000000000000000000000000000000000000000000815260040160405180910390fd5b5f606460018561267291906153b0565b61267c919061541e565b90505f606460018661268e91906153b0565b612698919061541e565b90506126e6733c83065b83a8fd66587f330845f4603f7c49275c33600b5f9054906101000a900473ffffffffffffffffffffffffffffffffffffffff1685896126e1919061537d565b613285565b612727733c83065b83a8fd66587f330845f4603f7c49275c33600a5f9054906101000a900473ffffffffffffffffffffffffffffffffffffffff1685613285565b5f73ffffffffffffffffffffffffffffffffffffffff16600a5f9054906101000a900473ffffffffffffffffffffffffffffffffffffffff1673ffffffffffffffffffffffffffffffffffffffff161461280357600a5f9054906101000a900473ffffffffffffffffffffffffffffffffffffffff1673ffffffffffffffffffffffffffffffffffffffff1663cc430ced836040518263ffffffff1660e01b81526004016127d59190614a5e565b5f604051808303815f87803b1580156127ec575f5ffd5b505af11580156127fe573d5f5f3e3d5ffd5b505050505b600b5f9054906101000a900473ffffffffffffffffffffffffffffffffffffffff1673ffffffffffffffffffffffffffffffffffffffff166351c6590a82848861284d919061537d565b612857919061537d565b6040518263ffffffff1660e01b81526004016128739190614a5e565b5f604051808303815f87803b15801561288a575f5ffd5b505af115801561289c573d5f5f3e3d5ffd5b505050506128a933613996565b6128b4600c5461343f565b6006808111156128c7576128c6614da5565b5b835f0160149054906101000a900460ff1660068111156128ea576128e9614da5565b5b036128f9576128f833613a6f565b5b84845f015f82825461290b9190615548565b9250508190555084600c5f8282546129239190615548565b9250508190555060055f3373ffffffffffffffffffffffffffffffffffffffff1673ffffffffffffffffffffffffffffffffffffffff1681526020019081526020015f205f9054906101000a900460ff16612a8b5760045f845f015f9054906101000a900473ffffffffffffffffffffffffffffffffffffffff1673ffffffffffffffffffffffffffffffffffffffff1673ffffffffffffffffffffffffffffffffffffffff1681526020019081526020015f2033908060018154018082558091505060019003905f5260205f20015f9091909190916101000a81548173ffffffffffffffffffffffffffffffffffffffff021916908373ffffffffffffffffffffffffffffffffffffffff160217905550600160055f3373ffffffffffffffffffffffffffffffffffffffff1673ffffffffffffffffffffffffffffffffffffffff1681526020019081526020015f205f6101000a81548160ff0219169083151502179055505b612a953386613b70565b7f9e71bc8eea02a63969f509818f2dafb9254532904319f9dbda79b67bd34a5f3d3386604051612ac692919061557b565b60405180910390a150505050612ada61324e565b50565b60095f9054906101000a900473ffffffffffffffffffffffffffffffffffffffff1681565b6040518060400160405280600581526020017f352e302e3000000000000000000000000000000000000000000000000000000081525081565b600c5481565b5f5f5f5f5f5f5f60015f8973ffffffffffffffffffffffffffffffffffffffff1673ffffffffffffffffffffffffffffffffffffffff1681526020019081526020015f206040518060a00160405290815f820154815260200160018201548152602001600282015481526020016003820154815260200160048201548152505090505f60025f8a73ffffffffffffffffffffffffffffffffffffffff1673ffffffffffffffffffffffffffffffffffffffff1681526020019081526020015f20604051806101000160405290815f82015f9054906101000a900473ffffffffffffffffffffffffffffffffffffffff1673ffffffffffffffffffffffffffffffffffffffff1673ffffffffffffffffffffffffffffffffffffffff1681526020015f820160149054906101000a900460ff166006811115612c8557612c84614da5565b5b6006811115612c9757612c96614da5565b5b81526020016001820154815260200160028201548152602001600382015481526020016004820154815260200160058201548152602001600682015f9054906101000a900460ff161515151581525050905080602001519750805f01519650815f0151955060039450612d09896117dc565b9350612d1489612e43565b9250505091939550919395565b3373ffffffffffffffffffffffffffffffffffffffff1660075f9054906101000a900473ffffffffffffffffffffffffffffffffffffffff1673ffffffffffffffffffffffffffffffffffffffff1614612db0576040517f08c379a0000000000000000000000000000000000000000000000000000000008152600401612da790615654565b60405180910390fd5b80600d5f6101000a81548160ff02191690831515021790555050565b6003602052815f5260405f208181548110612de5575f80fd5b905f5260205f2090600302015f9150915050805f015f9054906101000a900473ffffffffffffffffffffffffffffffffffffffff16908060010154908060020154905083565b733c83065b83a8fd66587f330845f4603f7c49275c81565b5f5f60105403612e55575f905061305d565b5f60025f8473ffffffffffffffffffffffffffffffffffffffff1673ffffffffffffffffffffffffffffffffffffffff1681526020019081526020015f20604051806101000160405290815f82015f9054906101000a900473ffffffffffffffffffffffffffffffffffffffff1673ffffffffffffffffffffffffffffffffffffffff1673ffffffffffffffffffffffffffffffffffffffff1681526020015f820160149054906101000a900460ff166006811115612f1757612f16614da5565b5b6006811115612f2957612f28614da5565b5b81526020016001820154815260200160028201548152602001600382015481526020016004820154815260200160058201548152602001600682015f9054906101000a900460ff16151515158152505090505f81606001511480612f8e57505f601254145b15612f9c575f91505061305d565b5f60115490505f60105442612fb1919061537d565b90505f81111561300f575f6064601354600e5484600c54612fd291906153b0565b612fdc91906153b0565b612fe691906153b0565b612ff0919061541e565b905060125481613000919061541e565b8361300b9190615548565b9250505b5f600f5483856060015161302391906153b0565b61302d919061541e565b90508360c001518111613046575f94505050505061305d565b8360c0015181613056919061537d565b9450505050505b919050565b600a5f9054906101000a900473ffffffffffffffffffffffffffffffffffffffff1681565b606060045f8373ffffffffffffffffffffffffffffffffffffffff1673ffffffffffffffffffffffffffffffffffffffff1681526020019081526020015f2080548060200260200160405190810160405280929190818152602001828054801561314357602002820191905f5260205f20905b815f9054906101000a900473ffffffffffffffffffffffffffffffffffffffff1673ffffffffffffffffffffffffffffffffffffffff16815260200190600101908083116130fa575b50505050509050919050565b60125481565b60115481565b6131636133b8565b5f73ffffffffffffffffffffffffffffffffffffffff168173ffffffffffffffffffffffffffffffffffffffff16036131d3575f6040517f1e4fbdf70000000000000000000000000000000000000000000000000000000081526004016131ca9190614ab6565b60405180910390fd5b6131dc8161389e565b50565b60075f9054906101000a900473ffffffffffffffffffffffffffffffffffffffff1681565b60135481565b60025f5403613245576040517f3ee5aeb500000000000000000000000000000000000000000000000000000000815260040160405180910390fd5b60025f81905550565b60015f81905550565b5f5f613261614215565b90508091505090565b5f33905090565b61327961423e565b6132828161427e565b50565b5f5f8573ffffffffffffffffffffffffffffffffffffffff166323b872dd8686866040516024016132b893929190615727565b6040516020818303038152906040529060e01b6020820180517bffffffffffffffffffffffffffffffffffffffffffffffffffffffff838183161783525050505060405161330691906157a0565b5f604051808303815f865af19150503d805f811461333f576040519150601f19603f3d011682016040523d82523d5f602084013e613344565b606091505b509150915081801561337157505f8151148061337057508080602001905181019061336f91906157ca565b5b5b6133b0576040517f08c379a00000000000000000000000000000000000000000000000000000000081526004016133a790615865565b60405180910390fd5b505050505050565b6133c061326a565b73ffffffffffffffffffffffffffffffffffffffff166133de61230f565b73ffffffffffffffffffffffffffffffffffffffff161461343d5761340161326a565b6040517f118cdaa70000000000000000000000000000000000000000000000000000000081526004016134349190614ab6565b60405180910390fd5b565b5f6010544261344e919061537d565b90505f81148061345f57505f601254145b156134715742601081905550506134d5565b5f6064601354600e54848661348691906153b0565b61349091906153b0565b61349a91906153b0565b6134a4919061541e565b9050601254816134b4919061541e565b60115f8282546134c49190615548565b925050819055504260108190555050505b50565b7f000000000000000000000000000000000000000000000000000000000000000073ffffffffffffffffffffffffffffffffffffffff163073ffffffffffffffffffffffffffffffffffffffff16148061358557507f000000000000000000000000000000000000000000000000000000000000000073ffffffffffffffffffffffffffffffffffffffff1661356c614302565b73ffffffffffffffffffffffffffffffffffffffff1614155b156135bc576040517fe07c8dba00000000000000000000000000000000000000000000000000000000815260040160405180910390fd5b565b6135c66133b8565b50565b8173ffffffffffffffffffffffffffffffffffffffff166352d1902d6040518163ffffffff1660e01b8152600401602060405180830381865afa92505050801561363157506040513d601f19601f8201168201806040525081019061362e91906158ad565b60015b61367257816040517f4c9c8ce30000000000000000000000000000000000000000000000000000000081526004016136699190614ab6565b60405180910390fd5b7f360894a13ba1a3210667c828492db98dca3e2076cc3735a920a3ca505d382bbc5f1b81146136d857806040517faa1d49a40000000000000000000000000000000000000000000000000000000081526004016136cf919061505c565b60405180910390fd5b6136e28383614355565b505050565b7f000000000000000000000000000000000000000000000000000000000000000073ffffffffffffffffffffffffffffffffffffffff163073ffffffffffffffffffffffffffffffffffffffff161461376c576040517fe07c8dba00000000000000000000000000000000000000000000000000000000815260040160405180910390fd5b565b5f5f8473ffffffffffffffffffffffffffffffffffffffff1663a9059cbb858560405160240161379f92919061557b565b6040516020818303038152906040529060e01b6020820180517bffffffffffffffffffffffffffffffffffffffffffffffffffffffff83818316178352505050506040516137ed91906157a0565b5f604051808303815f865af19150503d805f8114613826576040519150601f19603f3d011682016040523d82523d5f602084013e61382b565b606091505b509150915081801561385857505f8151148061385757508080602001905181019061385691906157ca565b5b5b613897576040517f08c379a000000000000000000000000000000000000000000000000000000000815260040161388e90615922565b60405180910390fd5b5050505050565b5f6138a761396f565b90505f815f015f9054906101000a900473ffffffffffffffffffffffffffffffffffffffff16905082825f015f6101000a81548173ffffffffffffffffffffffffffffffffffffffff021916908373ffffffffffffffffffffffffffffffffffffffff1602179055508273ffffffffffffffffffffffffffffffffffffffff168173ffffffffffffffffffffffffffffffffffffffff167f8be0079c531659141344cd1fd0a4f28419497f9722a3daafe3b4186f6b6457e060405160405180910390a3505050565b5f7f9016d09d72d40fdae2fd8ceac6b6234c7706214fd39c1cd1e609a0528c199300905090565b5f60015f8373ffffffffffffffffffffffffffffffffffffffff1673ffffffffffffffffffffffffffffffffffffffff1681526020019081526020015f2090505f815f0154036139ef5742816002018190555050613a6c565b5f816002015442613a00919061537d565b90505f8103613a10575050613a6c565b5f600f54835f0154600e5484613a2691906153b0565b613a3091906153b0565b613a3a919061541e565b90505f811115613a5f5780836003015f828254613a579190615548565b925050819055505b4283600201819055505050505b50565b5f613a7933612e43565b90505f811115613b6c578060015f8473ffffffffffffffffffffffffffffffffffffffff1673ffffffffffffffffffffffffffffffffffffffff1681526020019081526020015f206003015f828254613ad29190615548565b9250508190555060025f8373ffffffffffffffffffffffffffffffffffffffff1673ffffffffffffffffffffffffffffffffffffffff1681526020019081526020015f2060020154601154613b2791906153b0565b60025f8473ffffffffffffffffffffffffffffffffffffffff1673ffffffffffffffffffffffffffffffffffffffff1681526020019081526020015f20600501819055505b5050565b5f60025f8473ffffffffffffffffffffffffffffffffffffffff1673ffffffffffffffffffffffffffffffffffffffff1681526020019081526020015f205f015f9054906101000a900473ffffffffffffffffffffffffffffffffffffffff169050613bda61494d565b5f603290505b5f73ffffffffffffffffffffffffffffffffffffffff168373ffffffffffffffffffffffffffffffffffffffff1614614177575f60025f8573ffffffffffffffffffffffffffffffffffffffff1673ffffffffffffffffffffffffffffffffffffffff1681526020019081526020015f2090506001816001015f828254613c679190615548565b9250508190555084816002015f828254613c819190615548565b925050819055505f5f905060056006811115613ca057613c9f614da5565b5b825f0160149054906101000a900460ff166006811115613cc357613cc2614da5565b5b03613dee575f60045f8773ffffffffffffffffffffffffffffffffffffffff1673ffffffffffffffffffffffffffffffffffffffff1681526020019081526020015f2090505f818054905090505f5f90505b81811015613dea5760056006811115613d3157613d30614da5565b5b60025f858481548110613d4757613d46615940565b5b905f5260205f20015f9054906101000a900473ffffffffffffffffffffffffffffffffffffffff1673ffffffffffffffffffffffffffffffffffffffff1673ffffffffffffffffffffffffffffffffffffffff1681526020019081526020015f205f0160149054906101000a900460ff166006811115613dca57613dc9614da5565b5b03613ddf578360010193506002841015613dea575b806001019050613d15565b5050505b5f5f613e0b845f0160149054906101000a900460ff16878a6143c7565b915091508015613f735781846003015f828254613e289190615548565b9250508190555060035f8873ffffffffffffffffffffffffffffffffffffffff1673ffffffffffffffffffffffffffffffffffffffff1681526020019081526020015f2060405180606001604052808b73ffffffffffffffffffffffffffffffffffffffff16815260200184815260200142815250908060018154018082558091505060019003905f5260205f2090600302015f909190919091505f820151815f015f6101000a81548173ffffffffffffffffffffffffffffffffffffffff021916908373ffffffffffffffffffffffffffffffffffffffff16021790555060208201518160010155604082015181600201555050600186855f0160149054906101000a900460ff166006811115613f4357613f42614da5565b5b60068110613f5457613f53615940565b5b602002019015159081151581525050600a85613f70919061537d565b94505b5f5f5f6140a787604051806101000160405290815f82015f9054906101000a900473ffffffffffffffffffffffffffffffffffffffff1673ffffffffffffffffffffffffffffffffffffffff1673ffffffffffffffffffffffffffffffffffffffff1681526020015f820160149054906101000a900460ff166006811115613ffe57613ffd614da5565b5b60068111156140105761400f614da5565b5b81526020016001820154815260200160028201548152602001600382015481526020016004820154815260200160058201548152602001600682015f9054906101000a900460ff16151515158152505060045f8d73ffffffffffffffffffffffffffffffffffffffff1673ffffffffffffffffffffffffffffffffffffffff1681526020019081526020015f208054905088614488565b92509250925080156141465782875f0160146101000a81548160ff021916908360068111156140d9576140d8614da5565b5b02179055508160125f8282546140ef9190615548565b9250508190555060065f84600681111561410c5761410b614da5565b5b600681111561411e5761411d614da5565b5b81526020019081526020015f2054876004015f82825461413e9190615548565b925050819055505b865f015f9054906101000a900473ffffffffffffffffffffffffffffffffffffffff16995050505050505050613be0565b5f81111561420e576064818561418d91906153b0565b614197919061541e565b60025f60085f9054906101000a900473ffffffffffffffffffffffffffffffffffffffff1673ffffffffffffffffffffffffffffffffffffffff1673ffffffffffffffffffffffffffffffffffffffff1681526020019081526020015f206003015f8282546142069190615548565b925050819055505b5050505050565b5f7ff0c57e16840df040f15088dc2f81fe391c3923bec73e23a9662efc9c229c6a005f1b905090565b6142466146ed565b61427c576040517fd7e6bcf800000000000000000000000000000000000000000000000000000000815260040160405180910390fd5b565b61428661423e565b5f73ffffffffffffffffffffffffffffffffffffffff168173ffffffffffffffffffffffffffffffffffffffff16036142f6575f6040517f1e4fbdf70000000000000000000000000000000000000000000000000000000081526004016142ed9190614ab6565b60405180910390fd5b6142ff8161389e565b50565b5f61432e7f360894a13ba1a3210667c828492db98dca3e2076cc3735a920a3ca505d382bbc5f1b61470b565b5f015f9054906101000a900473ffffffffffffffffffffffffffffffffffffffff16905090565b61435e82614714565b8173ffffffffffffffffffffffffffffffffffffffff167fbc7cd75a20ee27fd9adebab32041f755214dbc6bffa90cc0225b39da2e5c2d3b60405160405180910390a25f815111156143ba576143b482826147dd565b506143c3565b6143c26148ce565b5b5050565b5f5f5f91505f90506006808111156143e2576143e1614da5565b5b8560068111156143f5576143f4614da5565b5b1415801561442757505f600681111561441157614410614da5565b5b85600681111561442457614423614da5565b5b14155b15614480575f8560068111156144405761443f614da5565b5b905084816006811061445557614454615940565b5b602002015161447e576064600a8561446d91906153b0565b614477919061541e565b9250600191505b505b935093915050565b5f5f5f856020015192505f91505f90505f60068111156144ab576144aa614da5565b5b866020015160068111156144c2576144c1614da5565b5b1480156144d0575060038510155b80156144ea575069021e19e0c9bab2400000866060015110155b156144fc5760019250600190506146e4565b600160068111156145105761450f614da5565b5b8660200151600681111561452757614526614da5565b5b148015614535575060048510155b801561454f5750690a968163f0a57b400000866060015110155b156145615760029250600190506146e3565b6002600681111561457557614574614da5565b5b8660200151600681111561458c5761458b614da5565b5b14801561459a575060058510155b80156145b45750692a5a058fc295ed000000866060015110155b156145c65760039250600190506146e2565b600360068111156145da576145d9614da5565b5b866020015160068111156145f1576145f0614da5565b5b1480156145ff575060078510155b8015614619575069a968163f0a57b4000000866060015110155b1561462b5760049250600190506146e1565b6004600681111561463f5761463e614da5565b5b8660200151600681111561465657614655614da5565b5b148015614664575060098510155b801561467f57506a027b46536c66c8e3000000866060015110155b156146915760059250600190506146e0565b600560068111156146a5576146a4614da5565b5b866020015160068111156146bc576146bb614da5565b5b1480156146ca575060028410155b156146df576006925085606001519150600190505b5b5b5b5b5b93509350939050565b5f6146f6613257565b5f0160089054906101000a900460ff16905090565b5f819050919050565b5f8173ffffffffffffffffffffffffffffffffffffffff163b0361476f57806040517f4c9c8ce30000000000000000000000000000000000000000000000000000000081526004016147669190614ab6565b60405180910390fd5b8061479b7f360894a13ba1a3210667c828492db98dca3e2076cc3735a920a3ca505d382bbc5f1b61470b565b5f015f6101000a81548173ffffffffffffffffffffffffffffffffffffffff021916908373ffffffffffffffffffffffffffffffffffffffff16021790555050565b60605f6147ea848461490a565b905080801561482057505f6147fd61491e565b118061481f57505f8473ffffffffffffffffffffffffffffffffffffffff163b115b5b156148355761482d614925565b9150506148c8565b801561487857836040517f9996b31500000000000000000000000000000000000000000000000000000000815260040161486f9190614ab6565b60405180910390fd5b5f61488161491e565b11156148945761488f614942565b6148c6565b6040517fd6bda27500000000000000000000000000000000000000000000000000000000815260040160405180910390fd5b505b92915050565b5f341115614908576040517fb398979f00000000000000000000000000000000000000000000000000000000815260040160405180910390fd5b565b5f5f5f835160208501865af4905092915050565b5f3d905090565b606060405190503d81523d5f602083013e3d602001810160405290565b6040513d5f823e3d81fd5b6040518060c00160405280600690602082028036833780820191505090505090565b5f82825260208201905092915050565b7f4e4f5f4449524543545f53454e440000000000000000000000000000000000005f82015250565b5f6149b3600e8361496f565b91506149be8261497f565b602082019050919050565b5f6020820190508181035f8301526149e0816149a7565b9050919050565b5f604051905090565b5f5ffd5b5f5ffd5b60078110614a04575f5ffd5b50565b5f81359050614a15816149f8565b92915050565b5f60208284031215614a3057614a2f6149f0565b5b5f614a3d84828501614a07565b91505092915050565b5f819050919050565b614a5881614a46565b82525050565b5f602082019050614a715f830184614a4f565b92915050565b5f73ffffffffffffffffffffffffffffffffffffffff82169050919050565b5f614aa082614a77565b9050919050565b614ab081614a96565b82525050565b5f602082019050614ac95f830184614aa7565b92915050565b614ad881614a96565b8114614ae2575f5ffd5b50565b5f81359050614af381614acf565b92915050565b614b0281614a46565b8114614b0c575f5ffd5b50565b5f81359050614b1d81614af9565b92915050565b5f5f60408385031215614b3957614b386149f0565b5b5f614b4685828601614ae5565b9250506020614b5785828601614b0f565b9150509250929050565b5f60208284031215614b7657614b756149f0565b5b5f614b8384828501614ae5565b91505092915050565b5f5f5f5f5f60a08688031215614ba557614ba46149f0565b5b5f614bb288828901614ae5565b9550506020614bc388828901614ae5565b9450506040614bd488828901614ae5565b9350506060614be588828901614ae5565b9250506080614bf688828901614ae5565b9150509295509295909350565b5f81519050919050565b5f82825260208201905092915050565b5f819050602082019050919050565b614c3581614a96565b82525050565b614c4481614a46565b82525050565b606082015f820151614c5e5f850182614c2c565b506020820151614c716020850182614c3b565b506040820151614c846040850182614c3b565b50505050565b5f614c958383614c4a565b60608301905092915050565b5f602082019050919050565b5f614cb782614c03565b614cc18185614c0d565b9350614ccc83614c1d565b805f5b83811015614cfc578151614ce38882614c8a565b9750614cee83614ca1565b925050600181019050614ccf565b5085935050505092915050565b5f6020820190508181035f830152614d218184614cad565b905092915050565b5f60a082019050614d3c5f830188614a4f565b614d496020830187614a4f565b614d566040830186614a4f565b614d636060830185614a4f565b614d706080830184614a4f565b9695505050505050565b5f60208284031215614d8f57614d8e6149f0565b5b5f614d9c84828501614b0f565b91505092915050565b7f4e487b71000000000000000000000000000000000000000000000000000000005f52602160045260245ffd5b60078110614de357614de2614da5565b5b50565b5f819050614df382614dd2565b919050565b5f614e0282614de6565b9050919050565b614e1281614df8565b82525050565b5f8115159050919050565b614e2c81614e18565b82525050565b5f61010082019050614e465f83018b614aa7565b614e53602083018a614e09565b614e606040830189614a4f565b614e6d6060830188614a4f565b614e7a6080830187614a4f565b614e8760a0830186614a4f565b614e9460c0830185614a4f565b614ea160e0830184614e23565b9998505050505050505050565b5f5ffd5b5f5ffd5b5f601f19601f8301169050919050565b7f4e487b71000000000000000000000000000000000000000000000000000000005f52604160045260245ffd5b614efc82614eb6565b810181811067ffffffffffffffff82111715614f1b57614f1a614ec6565b5b80604052505050565b5f614f2d6149e7565b9050614f398282614ef3565b919050565b5f67ffffffffffffffff821115614f5857614f57614ec6565b5b614f6182614eb6565b9050602081019050919050565b828183375f83830152505050565b5f614f8e614f8984614f3e565b614f24565b905082815260208101848484011115614faa57614fa9614eb2565b5b614fb5848285614f6e565b509392505050565b5f82601f830112614fd157614fd0614eae565b5b8135614fe1848260208601614f7c565b91505092915050565b5f5f6040838503121561500057614fff6149f0565b5b5f61500d85828601614ae5565b925050602083013567ffffffffffffffff81111561502e5761502d6149f4565b5b61503a85828601614fbd565b9150509250929050565b5f819050919050565b61505681615044565b82525050565b5f60208201905061506f5f83018461504d565b92915050565b5f5f5f6060848603121561508c5761508b6149f0565b5b5f61509986828701614ae5565b93505060206150aa86828701614b0f565b92505060406150bb86828701614ae5565b9150509250925092565b5f6020820190506150d85f830184614e23565b92915050565b5f60a0820190506150f15f830188614a4f565b6150fe6020830187614a4f565b61510b6040830186614a4f565b6151186060830185614a4f565b6151256080830184614e23565b9695505050505050565b5f81519050919050565b8281835e5f83830152505050565b5f6151518261512f565b61515b818561496f565b935061516b818560208601615139565b61517481614eb6565b840191505092915050565b5f6020820190508181035f8301526151978184615147565b905092915050565b5f60c0820190506151b25f830189614e09565b6151bf6020830188614aa7565b6151cc6040830187614a4f565b6151d96060830186614a4f565b6151e66080830185614a4f565b6151f360a0830184614a4f565b979650505050505050565b61520781614e18565b8114615211575f5ffd5b50565b5f81359050615222816151fe565b92915050565b5f6020828403121561523d5761523c6149f0565b5b5f61524a84828501615214565b91505092915050565b5f6060820190506152665f830186614aa7565b6152736020830185614a4f565b6152806040830184614a4f565b949350505050565b5f81519050919050565b5f82825260208201905092915050565b5f819050602082019050919050565b5f6152bc8383614c2c565b60208301905092915050565b5f602082019050919050565b5f6152de82615288565b6152e88185615292565b93506152f3836152a2565b805f5b8381101561532357815161530a88826152b1565b9750615315836152c8565b9250506001810190506152f6565b5085935050505092915050565b5f6020820190508181035f83015261534881846152d4565b905092915050565b7f4e487b71000000000000000000000000000000000000000000000000000000005f52601160045260245ffd5b5f61538782614a46565b915061539283614a46565b92508282039050818111156153aa576153a9615350565b5b92915050565b5f6153ba82614a46565b91506153c583614a46565b92508282026153d381614a46565b915082820484148315176153ea576153e9615350565b5b5092915050565b7f4e487b71000000000000000000000000000000000000000000000000000000005f52601260045260245ffd5b5f61542882614a46565b915061543383614a46565b925082615443576154426153f1565b5b828204905092915050565b5f8151905061545c81614acf565b92915050565b5f8151905061547081614af9565b92915050565b5f5f5f5f6080858703121561548e5761548d6149f0565b5b5f61549b8782880161544e565b94505060206154ac87828801615462565b93505060406154bd87828801615462565b92505060606154ce87828801615462565b91505092959194509250565b5f819050919050565b5f67ffffffffffffffff82169050919050565b5f819050919050565b5f61551961551461550f846154da565b6154f6565b6154e3565b9050919050565b615529816154ff565b82525050565b5f6020820190506155425f830184615520565b92915050565b5f61555282614a46565b915061555d83614a46565b925082820190508082111561557557615574615350565b5b92915050565b5f60408201905061558e5f830185614aa7565b61559b6020830184614a4f565b9392505050565b7f46696e616e63652070617573652e0000000000000000000000000000000000005f82015250565b5f6155d6600e8361496f565b91506155e1826155a2565b602082019050919050565b5f6020820190508181035f830152615603816155ca565b9050919050565b7f4e6f74207065726d69742e0000000000000000000000000000000000000000005f82015250565b5f61563e600b8361496f565b91506156498261560a565b602082019050919050565b5f6020820190508181035f83015261566b81615632565b9050919050565b7f5245434f4d4d454e444154494f4e5f49535f52455155495245445f52454645525f8201527f52414c2e00000000000000000000000000000000000000000000000000000000602082015250565b5f6156cc60248361496f565b91506156d782615672565b604082019050919050565b5f6020820190508181035f8301526156f9816156c0565b9050919050565b5f6040820190506157135f830185614aa7565b6157206020830184614aa7565b9392505050565b5f60608201905061573a5f830186614aa7565b6157476020830185614aa7565b6157546040830184614a4f565b949350505050565b5f81519050919050565b5f81905092915050565b5f61577a8261575c565b6157848185615766565b9350615794818560208601615139565b80840191505092915050565b5f6157ab8284615770565b915081905092915050565b5f815190506157c4816151fe565b92915050565b5f602082840312156157df576157de6149f0565b5b5f6157ec848285016157b6565b91505092915050565b7f5472616e7366657248656c7065723a205452414e534645525f46524f4d5f46415f8201527f494c454400000000000000000000000000000000000000000000000000000000602082015250565b5f61584f60248361496f565b915061585a826157f5565b604082019050919050565b5f6020820190508181035f83015261587c81615843565b9050919050565b61588c81615044565b8114615896575f5ffd5b50565b5f815190506158a781615883565b92915050565b5f602082840312156158c2576158c16149f0565b5b5f6158cf84828501615899565b91505092915050565b7f5472616e7366657248656c7065723a205452414e534645525f4641494c4544005f82015250565b5f61590c601f8361496f565b9150615917826158d8565b602082019050919050565b5f6020820190508181035f83015261593981615900565b9050919050565b7f4e487b71000000000000000000000000000000000000000000000000000000005f52603260045260245ffdfea2646970667358221220da0dfcabade619a4b2ef6acad745e93c8453c81bbe8041fff072a5fcb4041bdb64736f6c634300081e0033","linkReferences":{}},"methodIdentifiers":{"DEAD()":"03fd2a45","MULTIPLE()":"7516a79e","UPGRADE_INTERFACE_VERSION()":"ad3cb1cc","USDT()":"c54e44eb","admin()":"f851a440","awardRecords(address,uint256)":"c023b3a5","claim()":"4e71d92d","decimals()":"313ce567","directReferrals(address,uint256)":"05ad3935","djsv1()":"ac6439b5","emergencyWithdraw(address,uint256,address)":"551512de","getDirectReferrals(address)":"d2c8e0e5","getInvalidStaking(address)":"19b12a53","getReferralAwardRecords(address)":"18785eb6","getUserAward(address)":"3e4ff6f2","getUserInfoBasic(address)":"b5006823","getUserInfoReferral(address)":"9238b0f9","getUserShareLevelAward(address)":"c7c93c94","getUserStakingAward(address)":"0acf716b","initialCode()":"10baf089","initialize(address,address,address,address,address)":"1459457a","isAddDirectReferrals(address)":"a3f2a64a","lastShareAwardTime()":"922be46d","liquidityManager()":"33827438","migrationReferral(address)":"0ff9ef12","nodeDividends()":"c7fb372f","owner()":"8da5cb5b","pause()":"8456cb59","perSecondStakedAeward()":"905635d4","perSharePerformanceAward()":"db81c515","proxiableUUID()":"52d1902d","referral(address)":"7247959a","referralInfo(address)":"39540b0a","renounceOwnership()":"715018a6","setLiquidityManager(address)":"3c1624d4","setNodeDividends(address)":"8f011a28","setPause(bool)":"bedb86fb","shareRate()":"fb802a65","stake(uint256)":"a694fc3a","subCoinQuotas(uint8)":"00c4bb2b","swapSubToken(uint256)":"1b602f22","totalSharePerformance()":"d567aadb","totalStakedUsdt()":"b2859e2b","transferOwnership(address)":"f2fde38b","upgradeToAndCall(address,bytes)":"4f1ef286","userInfo(address)":"1959a002","validReferralCode(address)":"87631a2a","whetherNeedMigrate(address)":"85215f7c"},"id":52}