{"abi":[{"type":"receive","stateMutability":"payable"},{"type":"function","name":"DEAD","inputs":[],"outputs":[{"name":"","type":"address","internalType":"address"}],"stateMutability":"view"},{"type":"function","name":"MULTIPLE","inputs":[],"outputs":[{"name":"","type":"uint256","internalType":"uint256"}],"stateMutability":"view"},{"type":"function","name":"UPGRADE_INTERFACE_VERSION","inputs":[],"outputs":[{"name":"","type":"string","internalType":"string"}],"stateMutability":"view"},{"type":"function","name":"USDT","inputs":[],"outputs":[{"name":"","type":"address","internalType":"address"}],"stateMutability":"view"},{"type":"function","name":"admin","inputs":[],"outputs":[{"name":"","type":"address","internalType":"address"}],"stateMutability":"view"},{"type":"function","name":"awardRecords","inputs":[{"name":"","type":"address","internalType":"address"},{"name":"","type":"uint256","internalType":"uint256"}],"outputs":[{"name":"from","type":"address","internalType":"address"},{"name":"amount","type":"uint256","internalType":"uint256"},{"name":"time","type":"uint256","internalType":"uint256"}],"stateMutability":"view"},{"type":"function","name":"claim","inputs":[],"outputs":[],"stateMutability":"nonpayable"},{"type":"function","name":"decimals","inputs":[],"outputs":[{"name":"","type":"uint256","internalType":"uint256"}],"stateMutability":"view"},{"type":"function","name":"directReferrals","inputs":[{"name":"","type":"address","internalType":"address"},{"name":"","type":"uint256","internalType":"uint256"}],"outputs":[{"name":"","type":"address","internalType":"address"}],"stateMutability":"view"},{"type":"function","name":"djsv1","inputs":[],"outputs":[{"name":"","type":"address","internalType":"address"}],"stateMutability":"view"},{"type":"function","name":"emergencyWithdraw","inputs":[{"name":"_token","type":"address","internalType":"address"},{"name":"_amount","type":"uint256","internalType":"uint256"},{"name":"_to","type":"address","internalType":"address"}],"outputs":[],"stateMutability":"nonpayable"},{"type":"function","name":"getDirectReferrals","inputs":[{"name":"user","type":"address","internalType":"address"}],"outputs":[{"name":"","type":"address[]","internalType":"address[]"}],"stateMutability":"view"},{"type":"function","name":"getInvalidStaking","inputs":[{"name":"user","type":"address","internalType":"address"}],"outputs":[{"name":"","type":"uint256","internalType":"uint256"}],"stateMutability":"view"},{"type":"function","name":"getReferralAwardRecords","inputs":[{"name":"user","type":"address","internalType":"address"}],"outputs":[{"name":"","type":"tuple[]","internalType":"struct Process.Record[]","components":[{"name":"from","type":"address","internalType":"address"},{"name":"amount","type":"uint256","internalType":"uint256"},{"name":"time","type":"uint256","internalType":"uint256"}]}],"stateMutability":"view"},{"type":"function","name":"getUserAward","inputs":[{"name":"user","type":"address","internalType":"address"}],"outputs":[{"name":"","type":"uint256","internalType":"uint256"}],"stateMutability":"view"},{"type":"function","name":"getUserInfoBasic","inputs":[{"name":"user","type":"address","internalType":"address"}],"outputs":[{"name":"level","type":"uint8","internalType":"enum Process.Level"},{"name":"recommender","type":"address","internalType":"address"},{"name":"stakingUsdt","type":"uint256","internalType":"uint256"},{"name":"multiple","type":"uint256","internalType":"uint256"},{"name":"totalAward","type":"uint256","internalType":"uint256"},{"name":"shareAward","type":"uint256","internalType":"uint256"}],"stateMutability":"view"},{"type":"function","name":"getUserInfoReferral","inputs":[{"name":"user","type":"address","internalType":"address"}],"outputs":[{"name":"referralNum","type":"uint256","internalType":"uint256"},{"name":"performance","type":"uint256","internalType":"uint256"},{"name":"referralAward","type":"uint256","internalType":"uint256"},{"name":"subCoinQuota","type":"uint256","internalType":"uint256"},{"name":"isMigration","type":"bool","internalType":"bool"}],"stateMutability":"view"},{"type":"function","name":"getUserShareLevelAward","inputs":[{"name":"user","type":"address","internalType":"address"}],"outputs":[{"name":"","type":"uint256","internalType":"uint256"}],"stateMutability":"view"},{"type":"function","name":"getUserStakingAward","inputs":[{"name":"user","type":"address","internalType":"address"}],"outputs":[{"name":"","type":"uint256","internalType":"uint256"}],"stateMutability":"view"},{"type":"function","name":"initialCode","inputs":[],"outputs":[{"name":"","type":"address","internalType":"address"}],"stateMutability":"view"},{"type":"function","name":"initialize","inputs":[{"name":"_admin","type":"address","internalType":"address"},{"name":"_initialCode","type":"address","internalType":"address"},{"name":"_djsv1","type":"address","internalType":"address"},{"name":"_nodeDividends","type":"address","internalType":"address"},{"name":"_liquidityManager","type":"address","internalType":"address"}],"outputs":[],"stateMutability":"nonpayable"},{"type":"function","name":"isAddDirectReferrals","inputs":[{"name":"","type":"address","internalType":"address"}],"outputs":[{"name":"","type":"bool","internalType":"bool"}],"stateMutability":"view"},{"type":"function","name":"lastShareAwardTime","inputs":[],"outputs":[{"name":"","type":"uint256","internalType":"uint256"}],"stateMutability":"view"},{"type":"function","name":"liquidityManager","inputs":[],"outputs":[{"name":"","type":"address","internalType":"address"}],"stateMutability":"view"},{"type":"function","name":"migrationReferral","inputs":[{"name":"user","type":"address","internalType":"address"}],"outputs":[],"stateMutability":"nonpayable"},{"type":"function","name":"nodeDividends","inputs":[],"outputs":[{"name":"","type":"address","internalType":"address"}],"stateMutability":"view"},{"type":"function","name":"owner","inputs":[],"outputs":[{"name":"","type":"address","internalType":"address"}],"stateMutability":"view"},{"type":"function","name":"pause","inputs":[],"outputs":[{"name":"","type":"bool","internalType":"bool"}],"stateMutability":"view"},{"type":"function","name":"perSecondStakedAeward","inputs":[],"outputs":[{"name":"","type":"uint256","internalType":"uint256"}],"stateMutability":"view"},{"type":"function","name":"perSharePerformanceAward","inputs":[],"outputs":[{"name":"","type":"uint256","internalType":"uint256"}],"stateMutability":"view"},{"type":"function","name":"proxiableUUID","inputs":[],"outputs":[{"name":"","type":"bytes32","internalType":"bytes32"}],"stateMutability":"view"},{"type":"function","name":"referral","inputs":[{"name":"recommender","type":"address","internalType":"address"}],"outputs":[],"stateMutability":"nonpayable"},{"type":"function","name":"referralInfo","inputs":[{"name":"","type":"address","internalType":"address"}],"outputs":[{"name":"recommender","type":"address","internalType":"address"},{"name":"level","type":"uint8","internalType":"enum Process.Level"},{"name":"referralNum","type":"uint256","internalType":"uint256"},{"name":"performance","type":"uint256","internalType":"uint256"},{"name":"referralAward","type":"uint256","internalType":"uint256"},{"name":"subCoinQuota","type":"uint256","internalType":"uint256"},{"name":"shareAwardDebt","type":"uint256","internalType":"uint256"},{"name":"isMigration","type":"bool","internalType":"bool"}],"stateMutability":"view"},{"type":"function","name":"renounceOwnership","inputs":[],"outputs":[],"stateMutability":"nonpayable"},{"type":"function","name":"setPause","inputs":[{"name":"isPause","type":"bool","internalType":"bool"}],"outputs":[],"stateMutability":"nonpayable"},{"type":"function","name":"shareRate","inputs":[],"outputs":[{"name":"","type":"uint256","internalType":"uint256"}],"stateMutability":"view"},{"type":"function","name":"stake","inputs":[{"name":"amountUSDT","type":"uint256","internalType":"uint256"}],"outputs":[],"stateMutability":"nonpayable"},{"type":"function","name":"subCoinQuotas","inputs":[{"name":"","type":"uint8","internalType":"enum Process.Level"}],"outputs":[{"name":"","type":"uint256","internalType":"uint256"}],"stateMutability":"view"},{"type":"function","name":"swapSubToken","inputs":[{"name":"amountUSDT","type":"uint256","internalType":"uint256"}],"outputs":[],"stateMutability":"nonpayable"},{"type":"function","name":"totalSharePerformance","inputs":[],"outputs":[{"name":"","type":"uint256","internalType":"uint256"}],"stateMutability":"view"},{"type":"function","name":"totalStakedUsdt","inputs":[],"outputs":[{"name":"","type":"uint256","internalType":"uint256"}],"stateMutability":"view"},{"type":"function","name":"transferOwnership","inputs":[{"name":"newOwner","type":"address","internalType":"address"}],"outputs":[],"stateMutability":"nonpayable"},{"type":"function","name":"upgradeToAndCall","inputs":[{"name":"newImplementation","type":"address","internalType":"address"},{"name":"data","type":"bytes","internalType":"bytes"}],"outputs":[],"stateMutability":"payable"},{"type":"function","name":"userInfo","inputs":[{"name":"","type":"address","internalType":"address"}],"outputs":[{"name":"stakingUsdt","type":"uint256","internalType":"uint256"},{"name":"multiple","type":"uint256","internalType":"uint256"},{"name":"stakingTime","type":"uint256","internalType":"uint256"},{"name":"pendingProfit","type":"uint256","internalType":"uint256"},{"name":"extracted","type":"uint256","internalType":"uint256"}],"stateMutability":"view"},{"type":"function","name":"validReferralCode","inputs":[{"name":"user","type":"address","internalType":"address"}],"outputs":[{"name":"","type":"bool","internalType":"bool"}],"stateMutability":"view"},{"type":"function","name":"whetherNeedMigrate","inputs":[{"name":"user","type":"address","internalType":"address"}],"outputs":[{"name":"","type":"bool","internalType":"bool"}],"stateMutability":"view"},{"type":"event","name":"Claimed","inputs":[{"name":"user","type":"address","indexed":false,"internalType":"address"},{"name":"amount","type":"uint256","indexed":false,"internalType":"uint256"}],"anonymous":false},{"type":"event","name":"Initialized","inputs":[{"name":"version","type":"uint64","indexed":false,"internalType":"uint64"}],"anonymous":false},{"type":"event","name":"OwnershipTransferred","inputs":[{"name":"previousOwner","type":"address","indexed":true,"internalType":"address"},{"name":"newOwner","type":"address","indexed":true,"internalType":"address"}],"anonymous":false},{"type":"event","name":"Referrals","inputs":[{"name":"recommender","type":"address","indexed":false,"internalType":"address"},{"name":"referred","type":"address","indexed":false,"internalType":"address"}],"anonymous":false},{"type":"event","name":"Staked","inputs":[{"name":"user","type":"address","indexed":false,"internalType":"address"},{"name":"amount","type":"uint256","indexed":false,"internalType":"uint256"}],"anonymous":false},{"type":"event","name":"Upgraded","inputs":[{"name":"implementation","type":"address","indexed":true,"internalType":"address"}],"anonymous":false},{"type":"error","name":"AddressEmptyCode","inputs":[{"name":"target","type":"address","internalType":"address"}]},{"type":"error","name":"AlreadyMigrated","inputs":[]},{"type":"error","name":"AmountTooLow","inputs":[]},{"type":"error","name":"ERC1967InvalidImplementation","inputs":[{"name":"implementation","type":"address","internalType":"address"}]},{"type":"error","name":"ERC1967NonPayable","inputs":[]},{"type":"error","name":"FailedCall","inputs":[]},{"type":"error","name":"InsufficientQuota","inputs":[]},{"type":"error","name":"InvalidInitialization","inputs":[]},{"type":"error","name":"InvalidRecommender","inputs":[]},{"type":"error","name":"InviterExists","inputs":[]},{"type":"error","name":"NeedMigrate","inputs":[]},{"type":"error","name":"NoMigrationRequired","inputs":[]},{"type":"error","name":"NoReward","inputs":[]},{"type":"error","name":"NoStake","inputs":[]},{"type":"error","name":"NotInitializing","inputs":[]},{"type":"error","name":"NotRequiredReferral","inputs":[]},{"type":"error","name":"OwnableInvalidOwner","inputs":[{"name":"owner","type":"address","internalType":"address"}]},{"type":"error","name":"OwnableUnauthorizedAccount","inputs":[{"name":"account","type":"address","internalType":"address"}]},{"type":"error","name":"ReentrancyGuardReentrantCall","inputs":[]},{"type":"error","name":"UUPSUnauthorizedCallContext","inputs":[]},{"type":"error","name":"UUPSUnsupportedProxiableUUID","inputs":[{"name":"slot","type":"bytes32","internalType":"bytes32"}]},{"type":"error","name":"ZeroAddress","inputs":[]}],"bytecode":{"object":"0x60a06040523073ffffffffffffffffffffffffffffffffffffffff1660809073ffffffffffffffffffffffffffffffffffffffff168152503480156041575f5ffd5b5060015f819055506080516158a761006f5f395f8181613357015281816133ac015261356601526158a75ff3fe60806040526004361061027f575f3560e01c806385215f7c1161014e578063b5006823116100c0578063d2c8e0e511610079578063d2c8e0e514610a33578063d567aadb14610a6f578063db81c51514610a99578063f2fde38b14610ac3578063f851a44014610aeb578063fb802a6514610b15576102bf565b8063b5006823146108fc578063bedb86fb1461093d578063c023b3a514610965578063c54e44eb146109a3578063c7c93c94146109cd578063c7fb372f14610a09576102bf565b80639238b0f9116101125780639238b0f9146107da578063a3f2a64a1461081a578063a694fc3a14610856578063ac6439b51461087e578063ad3cb1cc146108a8578063b2859e2b146108d2576102bf565b806385215f7c146106e457806387631a2a146107205780638da5cb5b1461075c578063905635d414610786578063922be46d146107b0576102bf565b8063313ce567116101f257806352d1902d116101ab57806352d1902d14610600578063551512de1461062a578063715018a6146106525780637247959a146106685780637516a79e146106905780638456cb59146106ba576102bf565b8063313ce567146104fb578063338274381461052557806339540b0a1461054f5780633e4ff6f2146105925780634e71d92d146105ce5780634f1ef286146105e4576102bf565b806310baf0891161024457806310baf089146103c95780631459457a146103f357806318785eb61461041b5780631959a0021461045757806319b12a53146104975780631b602f22146104d3576102bf565b8062c4bb2b146102c357806303fd2a45146102ff57806305ad3935146103295780630acf716b146103655780630ff9ef12146103a1576102bf565b366102bf576040517f08c379a00000000000000000000000000000000000000000000000000000000081526004016102b6906148cd565b60405180910390fd5b5f5ffd5b3480156102ce575f5ffd5b506102e960048036038101906102e4919061491f565b610b3f565b6040516102f69190614962565b60405180910390f35b34801561030a575f5ffd5b50610313610b54565b60405161032091906149ba565b60405180910390f35b348015610334575f5ffd5b5061034f600480360381019061034a9190614a27565b610b5a565b60405161035c91906149ba565b60405180910390f35b348015610370575f5ffd5b5061038b60048036038101906103869190614a65565b610ba2565b6040516103989190614962565b60405180910390f35b3480156103ac575f5ffd5b506103c760048036038101906103c29190614a65565b610c5f565b005b3480156103d4575f5ffd5b506103dd610e5d565b6040516103ea91906149ba565b60405180910390f35b3480156103fe575f5ffd5b5061041960048036038101906104149190614a90565b610e82565b005b348015610426575f5ffd5b50610441600480360381019061043c9190614a65565b6112fb565b60405161044e9190614c0d565b60405180910390f35b348015610462575f5ffd5b5061047d60048036038101906104789190614a65565b6113fc565b60405161048e959493929190614c2d565b60405180910390f35b3480156104a2575f5ffd5b506104bd60048036038101906104b89190614a65565b61142e565b6040516104ca9190614962565b60405180910390f35b3480156104de575f5ffd5b506104f960048036038101906104f49190614c7e565b6114e8565b005b348015610506575f5ffd5b5061050f611685565b60405161051c9190614962565b60405180910390f35b348015610530575f5ffd5b5061053961168b565b60405161054691906149ba565b60405180910390f35b34801561055a575f5ffd5b5061057560048036038101906105709190614a65565b6116b0565b604051610589989796959493929190614d36565b60405180910390f35b34801561059d575f5ffd5b506105b860048036038101906105b39190614a65565b61172b565b6040516105c59190614962565b60405180910390f35b3480156105d9575f5ffd5b506105e26118ff565b005b6105fe60048036038101906105f99190614eee565b611bcb565b005b34801561060b575f5ffd5b50610614611bea565b6040516106219190614f60565b60405180910390f35b348015610635575f5ffd5b50610650600480360381019061064b9190614f79565b611c1b565b005b34801561065d575f5ffd5b50610666611cba565b005b348015610673575f5ffd5b5061068e60048036038101906106899190614a65565b611ccd565b005b34801561069b575f5ffd5b506106a46120cf565b6040516106b19190614962565b60405180910390f35b3480156106c5575f5ffd5b506106ce6120d4565b6040516106db9190614fc9565b60405180910390f35b3480156106ef575f5ffd5b5061070a60048036038101906107059190614a65565b6120e6565b6040516107179190614fc9565b60405180910390f35b34801561072b575f5ffd5b5061074660048036038101906107419190614a65565b612214565b6040516107539190614fc9565b60405180910390f35b348015610767575f5ffd5b5061077061225e565b60405161077d91906149ba565b60405180910390f35b348015610791575f5ffd5b5061079a612293565b6040516107a79190614962565b60405180910390f35b3480156107bb575f5ffd5b506107c4612299565b6040516107d19190614962565b60405180910390f35b3480156107e5575f5ffd5b5061080060048036038101906107fb9190614a65565b61229f565b604051610811959493929190614fe2565b60405180910390f35b348015610825575f5ffd5b50610840600480360381019061083b9190614a65565b6123f7565b60405161084d9190614fc9565b60405180910390f35b348015610861575f5ffd5b5061087c60048036038101906108779190614c7e565b612414565b005b348015610889575f5ffd5b506108926129e1565b60405161089f91906149ba565b60405180910390f35b3480156108b3575f5ffd5b506108bc612a06565b6040516108c99190615083565b60405180910390f35b3480156108dd575f5ffd5b506108e6612a3f565b6040516108f39190614962565b60405180910390f35b348015610907575f5ffd5b50610922600480360381019061091d9190614a65565b612a45565b604051610934969594939291906150a3565b60405180910390f35b348015610948575f5ffd5b50610963600480360381019061095e919061512c565b612c25565b005b348015610970575f5ffd5b5061098b60048036038101906109869190614a27565b612cd0565b60405161099a93929190615157565b60405180910390f35b3480156109ae575f5ffd5b506109b7612d2f565b6040516109c491906149ba565b60405180910390f35b3480156109d8575f5ffd5b506109f360048036038101906109ee9190614a65565b612d47565b604051610a009190614962565b60405180910390f35b348015610a14575f5ffd5b50610a1d612f66565b604051610a2a91906149ba565b60405180910390f35b348015610a3e575f5ffd5b50610a596004803603810190610a549190614a65565b612f8b565b604051610a669190615234565b60405180910390f35b348015610a7a575f5ffd5b50610a83613053565b604051610a909190614962565b60405180910390f35b348015610aa4575f5ffd5b50610aad613059565b604051610aba9190614962565b60405180910390f35b348015610ace575f5ffd5b50610ae96004803603810190610ae49190614a65565b61305f565b005b348015610af6575f5ffd5b50610aff6130e3565b604051610b0c91906149ba565b60405180910390f35b348015610b20575f5ffd5b50610b29613108565b604051610b369190614962565b60405180910390f35b6006602052805f5260405f205f915090505481565b61dead81565b6004602052815f5260405f208181548110610b73575f80fd5b905f5260205f20015f915091509054906101000a900473ffffffffffffffffffffffffffffffffffffffff1681565b5f5f60015f8473ffffffffffffffffffffffffffffffffffffffff1673ffffffffffffffffffffffffffffffffffffffff1681526020019081526020015f206040518060a00160405290815f82015481526020016001820154815260200160028201548152602001600382015481526020016004820154815250509050600f54815f0151600e54836040015142610c399190615281565b610c4391906152b4565b610c4d91906152b4565b610c579190615322565b915050919050565b610c6761310e565b5f60025f8373ffffffffffffffffffffffffffffffffffffffff1673ffffffffffffffffffffffffffffffffffffffff1681526020019081526020015f209050806006015f9054906101000a900460ff1615610cef576040517fca1c3cbc00000000000000000000000000000000000000000000000000000000815260040160405180910390fd5b5f60095f9054906101000a900473ffffffffffffffffffffffffffffffffffffffff1673ffffffffffffffffffffffffffffffffffffffff16631959a002846040518263ffffffff1660e01b8152600401610d4a91906149ba565b608060405180830381865afa158015610d65573d5f5f3e3d5ffd5b505050506040513d601f19601f82011682018060405250810190610d89919061537a565b50505090505f73ffffffffffffffffffffffffffffffffffffffff168173ffffffffffffffffffffffffffffffffffffffff1603610df3576040517f9c9e07a800000000000000000000000000000000000000000000000000000000815260040160405180910390fd5b80825f015f6101000a81548173ffffffffffffffffffffffffffffffffffffffff021916908373ffffffffffffffffffffffffffffffffffffffff1602179055506001826006015f6101000a81548160ff0219169083151502179055505050610e5a613152565b50565b60085f9054906101000a900473ffffffffffffffffffffffffffffffffffffffff1681565b5f610e8b61315b565b90505f815f0160089054906101000a900460ff161590505f825f015f9054906101000a900467ffffffffffffffff1690505f5f8267ffffffffffffffff16148015610ed35750825b90505f60018367ffffffffffffffff16148015610f0657505f3073ffffffffffffffffffffffffffffffffffffffff163b145b905081158015610f14575080155b15610f4b576040517ff92ee8a900000000000000000000000000000000000000000000000000000000815260040160405180910390fd5b6001855f015f6101000a81548167ffffffffffffffff021916908367ffffffffffffffff1602179055508315610f98576001855f0160086101000a81548160ff0219169083151502179055505b610fa8610fa361316e565b613175565b8960075f6101000a81548173ffffffffffffffffffffffffffffffffffffffff021916908373ffffffffffffffffffffffffffffffffffffffff1602179055508860085f6101000a81548173ffffffffffffffffffffffffffffffffffffffff021916908373ffffffffffffffffffffffffffffffffffffffff1602179055508760095f6101000a81548173ffffffffffffffffffffffffffffffffffffffff021916908373ffffffffffffffffffffffffffffffffffffffff16021790555086600a5f6101000a81548173ffffffffffffffffffffffffffffffffffffffff021916908373ffffffffffffffffffffffffffffffffffffffff16021790555085600b5f6101000a81548173ffffffffffffffffffffffffffffffffffffffff021916908373ffffffffffffffffffffffffffffffffffffffff1602179055506402540be400600f8190555062015180683635c9adc5dea00000600f5467a688906bd8b0000061111891906152b4565b6111229190615322565b61112c9190615322565b600e81905550600a6013819055504260108190555068056bc75e2d6310000060065f6001600681111561116257611161614ca9565b5b600681111561117457611173614ca9565b5b81526020019081526020015f2081905550681043561a882930000060065f600260068111156111a6576111a5614ca9565b5b60068111156111b8576111b7614ca9565b5b81526020019081526020015f2081905550681b1ae4d6e2ef50000060065f600360068111156111ea576111e9614ca9565b5b60068111156111fc576111fb614ca9565b5b81526020019081526020015f2081905550683635c9adc5dea0000060065f6004600681111561122e5761122d614ca9565b5b60068111156112405761123f614ca9565b5b81526020019081526020015f208190555068a2a15d09519be0000060065f6005600681111561127257611271614ca9565b5b600681111561128457611283614ca9565b5b81526020019081526020015f208190555083156112ef575f855f0160086101000a81548160ff0219169083151502179055507fc7f505b2f371ae2175ee4913f4499e1f2633a7b5936321eed1cdaeb6115181d260016040516112e69190615433565b60405180910390a15b50505050505050505050565b606060035f8373ffffffffffffffffffffffffffffffffffffffff1673ffffffffffffffffffffffffffffffffffffffff1681526020019081526020015f20805480602002602001604051908101604052809291908181526020015f905b828210156113f1578382905f5260205f2090600302016040518060600160405290815f82015f9054906101000a900473ffffffffffffffffffffffffffffffffffffffff1673ffffffffffffffffffffffffffffffffffffffff1673ffffffffffffffffffffffffffffffffffffffff1681526020016001820154815260200160028201548152505081526020019060010190611359565b505050509050919050565b6001602052805f5260405f205f91509050805f0154908060010154908060020154908060030154908060040154905085565b5f5f60015f8473ffffffffffffffffffffffffffffffffffffffff1673ffffffffffffffffffffffffffffffffffffffff1681526020019081526020015f2090505f8160040154600f5461148186612d47565b61148b9190615322565b61149486610ba2565b84600301546114a3919061544c565b6114ad919061544c565b6114b7919061544c565b90506003825f01546114c991906152b4565b8111156114dd57815f0154925050506114e3565b5f925050505b919050565b60025f3373ffffffffffffffffffffffffffffffffffffffff1673ffffffffffffffffffffffffffffffffffffffff1681526020019081526020015f2060040154811115611562576040517f6aea990400000000000000000000000000000000000000000000000000000000815260040160405180910390fd5b6115a3733c83065b83a8fd66587f330845f4603f7c49275c33600b5f9054906101000a900473ffffffffffffffffffffffffffffffffffffffff1684613189565b600b5f9054906101000a900473ffffffffffffffffffffffffffffffffffffffff1673ffffffffffffffffffffffffffffffffffffffff166379e32cd933836040518363ffffffff1660e01b81526004016115ff92919061547f565b5f604051808303815f87803b158015611616575f5ffd5b505af1158015611628573d5f5f3e3d5ffd5b505050508060025f3373ffffffffffffffffffffffffffffffffffffffff1673ffffffffffffffffffffffffffffffffffffffff1681526020019081526020015f206004015f82825461167b9190615281565b9250508190555050565b600f5481565b600b5f9054906101000a900473ffffffffffffffffffffffffffffffffffffffff1681565b6002602052805f5260405f205f91509050805f015f9054906101000a900473ffffffffffffffffffffffffffffffffffffffff1690805f0160149054906101000a900460ff1690806001015490806002015490806003015490806004015490806005015490806006015f9054906101000a900460ff16905088565b5f5f60015f8473ffffffffffffffffffffffffffffffffffffffff1673ffffffffffffffffffffffffffffffffffffffff1681526020019081526020015f206040518060a00160405290815f820154815260200160018201548152602001600282015481526020016003820154815260200160048201548152505090505f815f0151036117bb575f9150506118fa565b5f6117c584610ba2565b90505f6117d185612d47565b90505f60025f8773ffffffffffffffffffffffffffffffffffffffff1673ffffffffffffffffffffffffffffffffffffffff1681526020019081526020015f206003015482848660600151611826919061544c565b611830919061544c565b61183a919061544c565b905060085f9054906101000a900473ffffffffffffffffffffffffffffffffffffffff1673ffffffffffffffffffffffffffffffffffffffff168673ffffffffffffffffffffffffffffffffffffffff160361189c57809450505050506118fa565b5f6003855f01516118ad91906152b4565b9050808560800151106118c7575f955050505050506118fa565b5f8560800151826118d89190615281565b9050808311156118f0578096505050505050506118fa565b8296505050505050505b919050565b61190761310e565b600d5f9054906101000a900460ff1615611956576040517f08c379a000000000000000000000000000000000000000000000000000000000815260040161194d906154f0565b60405180910390fd5b5f60015f3373ffffffffffffffffffffffffffffffffffffffff1673ffffffffffffffffffffffffffffffffffffffff1681526020019081526020015f2090505f815f0154036119d2576040517fcacf989a00000000000000000000000000000000000000000000000000000000815260040160405180910390fd5b5f6119dc3361142e565b600c546119e99190615281565b90506119f4816132bc565b5f6119fe3361172b565b90505f8103611a39576040517f6e99268600000000000000000000000000000000000000000000000000000000815260040160405180910390fd5b5f836003018190555080836004015f828254611a55919061544c565b925050819055505f60025f3373ffffffffffffffffffffffffffffffffffffffff1673ffffffffffffffffffffffffffffffffffffffff1681526020019081526020015f2090505f8160030181905550600680811115611ab857611ab7614ca9565b5b815f0160149054906101000a900460ff166006811115611adb57611ada614ca9565b5b03611afb578060020154601154611af291906152b4565b81600501819055505b600b5f9054906101000a900473ffffffffffffffffffffffffffffffffffffffff1673ffffffffffffffffffffffffffffffffffffffff16632d019c4233846040518363ffffffff1660e01b8152600401611b5792919061547f565b5f604051808303815f87803b158015611b6e575f5ffd5b505af1158015611b80573d5f5f3e3d5ffd5b505050507fd8138f8a3f377c5259ca548e70e4c2de94f129f5a11036a15b69513cba2b426a3383604051611bb592919061547f565b60405180910390a150505050611bc9613152565b565b611bd3613355565b611bdc8261343b565b611be68282613446565b5050565b5f611bf3613564565b7f360894a13ba1a3210667c828492db98dca3e2076cc3735a920a3ca505d382bbc5f1b905090565b3373ffffffffffffffffffffffffffffffffffffffff1660075f9054906101000a900473ffffffffffffffffffffffffffffffffffffffff1673ffffffffffffffffffffffffffffffffffffffff1614611caa576040517f08c379a0000000000000000000000000000000000000000000000000000000008152600401611ca190615558565b60405180910390fd5b611cb58382846135eb565b505050565b611cc261371b565b611ccb5f6137a2565b565b611cd561310e565b611cde336120e6565b15611d15576040517f1d9410b700000000000000000000000000000000000000000000000000000000815260040160405180910390fd5b5f73ffffffffffffffffffffffffffffffffffffffff168173ffffffffffffffffffffffffffffffffffffffff1603611d7a576040517fd92e233d00000000000000000000000000000000000000000000000000000000815260040160405180910390fd5b3373ffffffffffffffffffffffffffffffffffffffff168173ffffffffffffffffffffffffffffffffffffffff1603611ddf576040517f4f2f060100000000000000000000000000000000000000000000000000000000815260040160405180910390fd5b60085f9054906101000a900473ffffffffffffffffffffffffffffffffffffffff1673ffffffffffffffffffffffffffffffffffffffff168173ffffffffffffffffffffffffffffffffffffffff1614611f4b575f73ffffffffffffffffffffffffffffffffffffffff1660025f8373ffffffffffffffffffffffffffffffffffffffff1673ffffffffffffffffffffffffffffffffffffffff1681526020019081526020015f205f015f9054906101000a900473ffffffffffffffffffffffffffffffffffffffff1673ffffffffffffffffffffffffffffffffffffffff1614158015611f0b57505f60015f8373ffffffffffffffffffffffffffffffffffffffff1673ffffffffffffffffffffffffffffffffffffffff1681526020019081526020015f205f0154115b611f4a576040517f08c379a0000000000000000000000000000000000000000000000000000000008152600401611f41906155e6565b60405180910390fd5b5b5f73ffffffffffffffffffffffffffffffffffffffff1660025f3373ffffffffffffffffffffffffffffffffffffffff1673ffffffffffffffffffffffffffffffffffffffff1681526020019081526020015f205f015f9054906101000a900473ffffffffffffffffffffffffffffffffffffffff1673ffffffffffffffffffffffffffffffffffffffff161461200e576040517f5b3d5a1b00000000000000000000000000000000000000000000000000000000815260040160405180910390fd5b8060025f3373ffffffffffffffffffffffffffffffffffffffff1673ffffffffffffffffffffffffffffffffffffffff1681526020019081526020015f205f015f6101000a81548173ffffffffffffffffffffffffffffffffffffffff021916908373ffffffffffffffffffffffffffffffffffffffff1602179055507f455db5b564134af440ac23bd273ce313070080fc2c3d5d36c03f62de3c62849881336040516120bc929190615604565b60405180910390a16120cc613152565b50565b600381565b600d5f9054906101000a900460ff1681565b5f5f60095f9054906101000a900473ffffffffffffffffffffffffffffffffffffffff1673ffffffffffffffffffffffffffffffffffffffff16631959a002846040518263ffffffff1660e01b815260040161214291906149ba565b608060405180830381865afa15801561215d573d5f5f3e3d5ffd5b505050506040513d601f19601f82011682018060405250810190612181919061537a565b50505090505f73ffffffffffffffffffffffffffffffffffffffff168173ffffffffffffffffffffffffffffffffffffffff161415801561220c575060025f8473ffffffffffffffffffffffffffffffffffffffff1673ffffffffffffffffffffffffffffffffffffffff1681526020019081526020015f206006015f9054906101000a900460ff16155b915050919050565b5f5f60015f8473ffffffffffffffffffffffffffffffffffffffff1673ffffffffffffffffffffffffffffffffffffffff1681526020019081526020015f205f0154119050919050565b5f5f612268613873565b9050805f015f9054906101000a900473ffffffffffffffffffffffffffffffffffffffff1691505090565b600e5481565b60105481565b5f5f5f5f5f5f60025f8873ffffffffffffffffffffffffffffffffffffffff1673ffffffffffffffffffffffffffffffffffffffff1681526020019081526020015f20604051806101000160405290815f82015f9054906101000a900473ffffffffffffffffffffffffffffffffffffffff1673ffffffffffffffffffffffffffffffffffffffff1673ffffffffffffffffffffffffffffffffffffffff1681526020015f820160149054906101000a900460ff16600681111561236657612365614ca9565b5b600681111561237857612377614ca9565b5b81526020016001820154815260200160028201548152602001600382015481526020016004820154815260200160058201548152602001600682015f9054906101000a900460ff16151515158152505090508060400151955080606001519450806080015193508060a0015192508060e0015191505091939590929450565b6005602052805f5260405f205f915054906101000a900460ff1681565b61241c61310e565b5f60015f3373ffffffffffffffffffffffffffffffffffffffff1673ffffffffffffffffffffffffffffffffffffffff1681526020019081526020015f2090505f60025f3373ffffffffffffffffffffffffffffffffffffffff1673ffffffffffffffffffffffffffffffffffffffff1681526020019081526020015f2090505f73ffffffffffffffffffffffffffffffffffffffff16815f015f9054906101000a900473ffffffffffffffffffffffffffffffffffffffff1673ffffffffffffffffffffffffffffffffffffffff1603612523576040517faf4d1ef200000000000000000000000000000000000000000000000000000000815260040160405180910390fd5b68056bc75e2d63100000831015612566576040517f1fbaba3500000000000000000000000000000000000000000000000000000000815260040160405180910390fd5b5f606460018561257691906152b4565b6125809190615322565b90505f606460018661259291906152b4565b61259c9190615322565b90506125ea733c83065b83a8fd66587f330845f4603f7c49275c33600b5f9054906101000a900473ffffffffffffffffffffffffffffffffffffffff1685896125e59190615281565b613189565b61262b733c83065b83a8fd66587f330845f4603f7c49275c33600a5f9054906101000a900473ffffffffffffffffffffffffffffffffffffffff1685613189565b5f73ffffffffffffffffffffffffffffffffffffffff16600a5f9054906101000a900473ffffffffffffffffffffffffffffffffffffffff1673ffffffffffffffffffffffffffffffffffffffff161461270757600a5f9054906101000a900473ffffffffffffffffffffffffffffffffffffffff1673ffffffffffffffffffffffffffffffffffffffff1663cc430ced836040518263ffffffff1660e01b81526004016126d99190614962565b5f604051808303815f87803b1580156126f0575f5ffd5b505af1158015612702573d5f5f3e3d5ffd5b505050505b600b5f9054906101000a900473ffffffffffffffffffffffffffffffffffffffff1673ffffffffffffffffffffffffffffffffffffffff166351c6590a8284886127519190615281565b61275b9190615281565b6040518263ffffffff1660e01b81526004016127779190614962565b5f604051808303815f87803b15801561278e575f5ffd5b505af11580156127a0573d5f5f3e3d5ffd5b505050506127ad3361389a565b6127b8600c546132bc565b6006808111156127cb576127ca614ca9565b5b835f0160149054906101000a900460ff1660068111156127ee576127ed614ca9565b5b036127fd576127fc33613973565b5b84845f015f82825461280f919061544c565b9250508190555084600c5f828254612827919061544c565b9250508190555060055f3373ffffffffffffffffffffffffffffffffffffffff1673ffffffffffffffffffffffffffffffffffffffff1681526020019081526020015f205f9054906101000a900460ff1661298f5760045f845f015f9054906101000a900473ffffffffffffffffffffffffffffffffffffffff1673ffffffffffffffffffffffffffffffffffffffff1673ffffffffffffffffffffffffffffffffffffffff1681526020019081526020015f2033908060018154018082558091505060019003905f5260205f20015f9091909190916101000a81548173ffffffffffffffffffffffffffffffffffffffff021916908373ffffffffffffffffffffffffffffffffffffffff160217905550600160055f3373ffffffffffffffffffffffffffffffffffffffff1673ffffffffffffffffffffffffffffffffffffffff1681526020019081526020015f205f6101000a81548160ff0219169083151502179055505b6129993386613a74565b7f9e71bc8eea02a63969f509818f2dafb9254532904319f9dbda79b67bd34a5f3d33866040516129ca92919061547f565b60405180910390a1505050506129de613152565b50565b60095f9054906101000a900473ffffffffffffffffffffffffffffffffffffffff1681565b6040518060400160405280600581526020017f352e302e3000000000000000000000000000000000000000000000000000000081525081565b600c5481565b5f5f5f5f5f5f5f60015f8973ffffffffffffffffffffffffffffffffffffffff1673ffffffffffffffffffffffffffffffffffffffff1681526020019081526020015f206040518060a00160405290815f820154815260200160018201548152602001600282015481526020016003820154815260200160048201548152505090505f60025f8a73ffffffffffffffffffffffffffffffffffffffff1673ffffffffffffffffffffffffffffffffffffffff1681526020019081526020015f20604051806101000160405290815f82015f9054906101000a900473ffffffffffffffffffffffffffffffffffffffff1673ffffffffffffffffffffffffffffffffffffffff1673ffffffffffffffffffffffffffffffffffffffff1681526020015f820160149054906101000a900460ff166006811115612b8957612b88614ca9565b5b6006811115612b9b57612b9a614ca9565b5b81526020016001820154815260200160028201548152602001600382015481526020016004820154815260200160058201548152602001600682015f9054906101000a900460ff161515151581525050905080602001519750805f01519650815f0151955060039450612c0d8961172b565b9350612c1889612d47565b9250505091939550919395565b3373ffffffffffffffffffffffffffffffffffffffff1660075f9054906101000a900473ffffffffffffffffffffffffffffffffffffffff1673ffffffffffffffffffffffffffffffffffffffff1614612cb4576040517f08c379a0000000000000000000000000000000000000000000000000000000008152600401612cab90615558565b60405180910390fd5b80600d5f6101000a81548160ff02191690831515021790555050565b6003602052815f5260405f208181548110612ce9575f80fd5b905f5260205f2090600302015f9150915050805f015f9054906101000a900473ffffffffffffffffffffffffffffffffffffffff16908060010154908060020154905083565b733c83065b83a8fd66587f330845f4603f7c49275c81565b5f5f60105403612d59575f9050612f61565b5f60025f8473ffffffffffffffffffffffffffffffffffffffff1673ffffffffffffffffffffffffffffffffffffffff1681526020019081526020015f20604051806101000160405290815f82015f9054906101000a900473ffffffffffffffffffffffffffffffffffffffff1673ffffffffffffffffffffffffffffffffffffffff1673ffffffffffffffffffffffffffffffffffffffff1681526020015f820160149054906101000a900460ff166006811115612e1b57612e1a614ca9565b5b6006811115612e2d57612e2c614ca9565b5b81526020016001820154815260200160028201548152602001600382015481526020016004820154815260200160058201548152602001600682015f9054906101000a900460ff16151515158152505090505f81606001511480612e9257505f601254145b15612ea0575f915050612f61565b5f60115490505f60105442612eb59190615281565b90505f811115612f13575f6064601354600e5484600c54612ed691906152b4565b612ee091906152b4565b612eea91906152b4565b612ef49190615322565b905060125481612f049190615322565b83612f0f919061544c565b9250505b5f600f54838560600151612f2791906152b4565b612f319190615322565b90508360c001518111612f4a575f945050505050612f61565b8360c0015181612f5a9190615281565b9450505050505b919050565b600a5f9054906101000a900473ffffffffffffffffffffffffffffffffffffffff1681565b606060045f8373ffffffffffffffffffffffffffffffffffffffff1673ffffffffffffffffffffffffffffffffffffffff1681526020019081526020015f2080548060200260200160405190810160405280929190818152602001828054801561304757602002820191905f5260205f20905b815f9054906101000a900473ffffffffffffffffffffffffffffffffffffffff1673ffffffffffffffffffffffffffffffffffffffff1681526020019060010190808311612ffe575b50505050509050919050565b60125481565b60115481565b61306761371b565b5f73ffffffffffffffffffffffffffffffffffffffff168173ffffffffffffffffffffffffffffffffffffffff16036130d7575f6040517f1e4fbdf70000000000000000000000000000000000000000000000000000000081526004016130ce91906149ba565b60405180910390fd5b6130e0816137a2565b50565b60075f9054906101000a900473ffffffffffffffffffffffffffffffffffffffff1681565b60135481565b60025f5403613149576040517f3ee5aeb500000000000000000000000000000000000000000000000000000000815260040160405180910390fd5b60025f81905550565b60015f81905550565b5f5f613165614119565b90508091505090565b5f33905090565b61317d614142565b61318681614182565b50565b5f5f8573ffffffffffffffffffffffffffffffffffffffff166323b872dd8686866040516024016131bc9392919061562b565b6040516020818303038152906040529060e01b6020820180517bffffffffffffffffffffffffffffffffffffffffffffffffffffffff838183161783525050505060405161320a91906156a4565b5f604051808303815f865af19150503d805f8114613243576040519150601f19603f3d011682016040523d82523d5f602084013e613248565b606091505b509150915081801561327557505f8151148061327457508080602001905181019061327391906156ce565b5b5b6132b4576040517f08c379a00000000000000000000000000000000000000000000000000000000081526004016132ab90615769565b60405180910390fd5b505050505050565b5f601054426132cb9190615281565b90505f8114806132dc57505f601254145b156132ee574260108190555050613352565b5f6064601354600e54848661330391906152b4565b61330d91906152b4565b61331791906152b4565b6133219190615322565b9050601254816133319190615322565b60115f828254613341919061544c565b925050819055504260108190555050505b50565b7f000000000000000000000000000000000000000000000000000000000000000073ffffffffffffffffffffffffffffffffffffffff163073ffffffffffffffffffffffffffffffffffffffff16148061340257507f000000000000000000000000000000000000000000000000000000000000000073ffffffffffffffffffffffffffffffffffffffff166133e9614206565b73ffffffffffffffffffffffffffffffffffffffff1614155b15613439576040517fe07c8dba00000000000000000000000000000000000000000000000000000000815260040160405180910390fd5b565b61344361371b565b50565b8173ffffffffffffffffffffffffffffffffffffffff166352d1902d6040518163ffffffff1660e01b8152600401602060405180830381865afa9250505080156134ae57506040513d601f19601f820116820180604052508101906134ab91906157b1565b60015b6134ef57816040517f4c9c8ce30000000000000000000000000000000000000000000000000000000081526004016134e691906149ba565b60405180910390fd5b7f360894a13ba1a3210667c828492db98dca3e2076cc3735a920a3ca505d382bbc5f1b811461355557806040517faa1d49a400000000000000000000000000000000000000000000000000000000815260040161354c9190614f60565b60405180910390fd5b61355f8383614259565b505050565b7f000000000000000000000000000000000000000000000000000000000000000073ffffffffffffffffffffffffffffffffffffffff163073ffffffffffffffffffffffffffffffffffffffff16146135e9576040517fe07c8dba00000000000000000000000000000000000000000000000000000000815260040160405180910390fd5b565b5f5f8473ffffffffffffffffffffffffffffffffffffffff1663a9059cbb858560405160240161361c92919061547f565b6040516020818303038152906040529060e01b6020820180517bffffffffffffffffffffffffffffffffffffffffffffffffffffffff838183161783525050505060405161366a91906156a4565b5f604051808303815f865af19150503d805f81146136a3576040519150601f19603f3d011682016040523d82523d5f602084013e6136a8565b606091505b50915091508180156136d557505f815114806136d45750808060200190518101906136d391906156ce565b5b5b613714576040517f08c379a000000000000000000000000000000000000000000000000000000000815260040161370b90615826565b60405180910390fd5b5050505050565b61372361316e565b73ffffffffffffffffffffffffffffffffffffffff1661374161225e565b73ffffffffffffffffffffffffffffffffffffffff16146137a05761376461316e565b6040517f118cdaa700000000000000000000000000000000000000000000000000000000815260040161379791906149ba565b60405180910390fd5b565b5f6137ab613873565b90505f815f015f9054906101000a900473ffffffffffffffffffffffffffffffffffffffff16905082825f015f6101000a81548173ffffffffffffffffffffffffffffffffffffffff021916908373ffffffffffffffffffffffffffffffffffffffff1602179055508273ffffffffffffffffffffffffffffffffffffffff168173ffffffffffffffffffffffffffffffffffffffff167f8be0079c531659141344cd1fd0a4f28419497f9722a3daafe3b4186f6b6457e060405160405180910390a3505050565b5f7f9016d09d72d40fdae2fd8ceac6b6234c7706214fd39c1cd1e609a0528c199300905090565b5f60015f8373ffffffffffffffffffffffffffffffffffffffff1673ffffffffffffffffffffffffffffffffffffffff1681526020019081526020015f2090505f815f0154036138f35742816002018190555050613970565b5f8160020154426139049190615281565b90505f8103613914575050613970565b5f600f54835f0154600e548461392a91906152b4565b61393491906152b4565b61393e9190615322565b90505f8111156139635780836003015f82825461395b919061544c565b925050819055505b4283600201819055505050505b50565b5f61397d33612d47565b90505f811115613a70578060015f8473ffffffffffffffffffffffffffffffffffffffff1673ffffffffffffffffffffffffffffffffffffffff1681526020019081526020015f206003015f8282546139d6919061544c565b9250508190555060025f8373ffffffffffffffffffffffffffffffffffffffff1673ffffffffffffffffffffffffffffffffffffffff1681526020019081526020015f2060020154601154613a2b91906152b4565b60025f8473ffffffffffffffffffffffffffffffffffffffff1673ffffffffffffffffffffffffffffffffffffffff1681526020019081526020015f20600501819055505b5050565b5f60025f8473ffffffffffffffffffffffffffffffffffffffff1673ffffffffffffffffffffffffffffffffffffffff1681526020019081526020015f205f015f9054906101000a900473ffffffffffffffffffffffffffffffffffffffff169050613ade614851565b5f603290505b5f73ffffffffffffffffffffffffffffffffffffffff168373ffffffffffffffffffffffffffffffffffffffff161461407b575f60025f8573ffffffffffffffffffffffffffffffffffffffff1673ffffffffffffffffffffffffffffffffffffffff1681526020019081526020015f2090506001816001015f828254613b6b919061544c565b9250508190555084816002015f828254613b85919061544c565b925050819055505f5f905060056006811115613ba457613ba3614ca9565b5b825f0160149054906101000a900460ff166006811115613bc757613bc6614ca9565b5b03613cf2575f60045f8773ffffffffffffffffffffffffffffffffffffffff1673ffffffffffffffffffffffffffffffffffffffff1681526020019081526020015f2090505f818054905090505f5f90505b81811015613cee5760056006811115613c3557613c34614ca9565b5b60025f858481548110613c4b57613c4a615844565b5b905f5260205f20015f9054906101000a900473ffffffffffffffffffffffffffffffffffffffff1673ffffffffffffffffffffffffffffffffffffffff1673ffffffffffffffffffffffffffffffffffffffff1681526020019081526020015f205f0160149054906101000a900460ff166006811115613cce57613ccd614ca9565b5b03613ce3578360010193506002841015613cee575b806001019050613c19565b5050505b5f5f613d0f845f0160149054906101000a900460ff16878a6142cb565b915091508015613e775781846003015f828254613d2c919061544c565b9250508190555060035f8873ffffffffffffffffffffffffffffffffffffffff1673ffffffffffffffffffffffffffffffffffffffff1681526020019081526020015f2060405180606001604052808b73ffffffffffffffffffffffffffffffffffffffff16815260200184815260200142815250908060018154018082558091505060019003905f5260205f2090600302015f909190919091505f820151815f015f6101000a81548173ffffffffffffffffffffffffffffffffffffffff021916908373ffffffffffffffffffffffffffffffffffffffff16021790555060208201518160010155604082015181600201555050600186855f0160149054906101000a900460ff166006811115613e4757613e46614ca9565b5b60068110613e5857613e57615844565b5b602002019015159081151581525050600a85613e749190615281565b94505b5f5f5f613fab87604051806101000160405290815f82015f9054906101000a900473ffffffffffffffffffffffffffffffffffffffff1673ffffffffffffffffffffffffffffffffffffffff1673ffffffffffffffffffffffffffffffffffffffff1681526020015f820160149054906101000a900460ff166006811115613f0257613f01614ca9565b5b6006811115613f1457613f13614ca9565b5b81526020016001820154815260200160028201548152602001600382015481526020016004820154815260200160058201548152602001600682015f9054906101000a900460ff16151515158152505060045f8d73ffffffffffffffffffffffffffffffffffffffff1673ffffffffffffffffffffffffffffffffffffffff1681526020019081526020015f20805490508861438c565b925092509250801561404a5782875f0160146101000a81548160ff02191690836006811115613fdd57613fdc614ca9565b5b02179055508160125f828254613ff3919061544c565b9250508190555060065f8460068111156140105761400f614ca9565b5b600681111561402257614021614ca9565b5b81526020019081526020015f2054876004015f828254614042919061544c565b925050819055505b865f015f9054906101000a900473ffffffffffffffffffffffffffffffffffffffff16995050505050505050613ae4565b5f811115614112576064818561409191906152b4565b61409b9190615322565b60025f60085f9054906101000a900473ffffffffffffffffffffffffffffffffffffffff1673ffffffffffffffffffffffffffffffffffffffff1673ffffffffffffffffffffffffffffffffffffffff1681526020019081526020015f206003015f82825461410a919061544c565b925050819055505b5050505050565b5f7ff0c57e16840df040f15088dc2f81fe391c3923bec73e23a9662efc9c229c6a005f1b905090565b61414a6145f1565b614180576040517fd7e6bcf800000000000000000000000000000000000000000000000000000000815260040160405180910390fd5b565b61418a614142565b5f73ffffffffffffffffffffffffffffffffffffffff168173ffffffffffffffffffffffffffffffffffffffff16036141fa575f6040517f1e4fbdf70000000000000000000000000000000000000000000000000000000081526004016141f191906149ba565b60405180910390fd5b614203816137a2565b50565b5f6142327f360894a13ba1a3210667c828492db98dca3e2076cc3735a920a3ca505d382bbc5f1b61460f565b5f015f9054906101000a900473ffffffffffffffffffffffffffffffffffffffff16905090565b61426282614618565b8173ffffffffffffffffffffffffffffffffffffffff167fbc7cd75a20ee27fd9adebab32041f755214dbc6bffa90cc0225b39da2e5c2d3b60405160405180910390a25f815111156142be576142b882826146e1565b506142c7565b6142c66147d2565b5b5050565b5f5f5f91505f90506006808111156142e6576142e5614ca9565b5b8560068111156142f9576142f8614ca9565b5b1415801561432b57505f600681111561431557614314614ca9565b5b85600681111561432857614327614ca9565b5b14155b15614384575f85600681111561434457614343614ca9565b5b905084816006811061435957614358615844565b5b6020020151614382576064600a8561437191906152b4565b61437b9190615322565b9250600191505b505b935093915050565b5f5f5f856020015192505f91505f90505f60068111156143af576143ae614ca9565b5b866020015160068111156143c6576143c5614ca9565b5b1480156143d4575060038510155b80156143ee575069021e19e0c9bab2400000866060015110155b156144005760019250600190506145e8565b6001600681111561441457614413614ca9565b5b8660200151600681111561442b5761442a614ca9565b5b148015614439575060048510155b80156144535750690a968163f0a57b400000866060015110155b156144655760029250600190506145e7565b6002600681111561447957614478614ca9565b5b866020015160068111156144905761448f614ca9565b5b14801561449e575060058510155b80156144b85750692a5a058fc295ed000000866060015110155b156144ca5760039250600190506145e6565b600360068111156144de576144dd614ca9565b5b866020015160068111156144f5576144f4614ca9565b5b148015614503575060078510155b801561451d575069a968163f0a57b4000000866060015110155b1561452f5760049250600190506145e5565b6004600681111561454357614542614ca9565b5b8660200151600681111561455a57614559614ca9565b5b148015614568575060098510155b801561458357506a027b46536c66c8e3000000866060015110155b156145955760059250600190506145e4565b600560068111156145a9576145a8614ca9565b5b866020015160068111156145c0576145bf614ca9565b5b1480156145ce575060028410155b156145e3576006925085606001519150600190505b5b5b5b5b5b93509350939050565b5f6145fa61315b565b5f0160089054906101000a900460ff16905090565b5f819050919050565b5f8173ffffffffffffffffffffffffffffffffffffffff163b0361467357806040517f4c9c8ce300000000000000000000000000000000000000000000000000000000815260040161466a91906149ba565b60405180910390fd5b8061469f7f360894a13ba1a3210667c828492db98dca3e2076cc3735a920a3ca505d382bbc5f1b61460f565b5f015f6101000a81548173ffffffffffffffffffffffffffffffffffffffff021916908373ffffffffffffffffffffffffffffffffffffffff16021790555050565b60605f6146ee848461480e565b905080801561472457505f614701614822565b118061472357505f8473ffffffffffffffffffffffffffffffffffffffff163b115b5b1561473957614731614829565b9150506147cc565b801561477c57836040517f9996b31500000000000000000000000000000000000000000000000000000000815260040161477391906149ba565b60405180910390fd5b5f614785614822565b111561479857614793614846565b6147ca565b6040517fd6bda27500000000000000000000000000000000000000000000000000000000815260040160405180910390fd5b505b92915050565b5f34111561480c576040517fb398979f00000000000000000000000000000000000000000000000000000000815260040160405180910390fd5b565b5f5f5f835160208501865af4905092915050565b5f3d905090565b606060405190503d81523d5f602083013e3d602001810160405290565b6040513d5f823e3d81fd5b6040518060c00160405280600690602082028036833780820191505090505090565b5f82825260208201905092915050565b7f4e4f5f4449524543545f53454e440000000000000000000000000000000000005f82015250565b5f6148b7600e83614873565b91506148c282614883565b602082019050919050565b5f6020820190508181035f8301526148e4816148ab565b9050919050565b5f604051905090565b5f5ffd5b5f5ffd5b60078110614908575f5ffd5b50565b5f81359050614919816148fc565b92915050565b5f60208284031215614934576149336148f4565b5b5f6149418482850161490b565b91505092915050565b5f819050919050565b61495c8161494a565b82525050565b5f6020820190506149755f830184614953565b92915050565b5f73ffffffffffffffffffffffffffffffffffffffff82169050919050565b5f6149a48261497b565b9050919050565b6149b48161499a565b82525050565b5f6020820190506149cd5f8301846149ab565b92915050565b6149dc8161499a565b81146149e6575f5ffd5b50565b5f813590506149f7816149d3565b92915050565b614a068161494a565b8114614a10575f5ffd5b50565b5f81359050614a21816149fd565b92915050565b5f5f60408385031215614a3d57614a3c6148f4565b5b5f614a4a858286016149e9565b9250506020614a5b85828601614a13565b9150509250929050565b5f60208284031215614a7a57614a796148f4565b5b5f614a87848285016149e9565b91505092915050565b5f5f5f5f5f60a08688031215614aa957614aa86148f4565b5b5f614ab6888289016149e9565b9550506020614ac7888289016149e9565b9450506040614ad8888289016149e9565b9350506060614ae9888289016149e9565b9250506080614afa888289016149e9565b9150509295509295909350565b5f81519050919050565b5f82825260208201905092915050565b5f819050602082019050919050565b614b398161499a565b82525050565b614b488161494a565b82525050565b606082015f820151614b625f850182614b30565b506020820151614b756020850182614b3f565b506040820151614b886040850182614b3f565b50505050565b5f614b998383614b4e565b60608301905092915050565b5f602082019050919050565b5f614bbb82614b07565b614bc58185614b11565b9350614bd083614b21565b805f5b83811015614c00578151614be78882614b8e565b9750614bf283614ba5565b925050600181019050614bd3565b5085935050505092915050565b5f6020820190508181035f830152614c258184614bb1565b905092915050565b5f60a082019050614c405f830188614953565b614c4d6020830187614953565b614c5a6040830186614953565b614c676060830185614953565b614c746080830184614953565b9695505050505050565b5f60208284031215614c9357614c926148f4565b5b5f614ca084828501614a13565b91505092915050565b7f4e487b71000000000000000000000000000000000000000000000000000000005f52602160045260245ffd5b60078110614ce757614ce6614ca9565b5b50565b5f819050614cf782614cd6565b919050565b5f614d0682614cea565b9050919050565b614d1681614cfc565b82525050565b5f8115159050919050565b614d3081614d1c565b82525050565b5f61010082019050614d4a5f83018b6149ab565b614d57602083018a614d0d565b614d646040830189614953565b614d716060830188614953565b614d7e6080830187614953565b614d8b60a0830186614953565b614d9860c0830185614953565b614da560e0830184614d27565b9998505050505050505050565b5f5ffd5b5f5ffd5b5f601f19601f8301169050919050565b7f4e487b71000000000000000000000000000000000000000000000000000000005f52604160045260245ffd5b614e0082614dba565b810181811067ffffffffffffffff82111715614e1f57614e1e614dca565b5b80604052505050565b5f614e316148eb565b9050614e3d8282614df7565b919050565b5f67ffffffffffffffff821115614e5c57614e5b614dca565b5b614e6582614dba565b9050602081019050919050565b828183375f83830152505050565b5f614e92614e8d84614e42565b614e28565b905082815260208101848484011115614eae57614ead614db6565b5b614eb9848285614e72565b509392505050565b5f82601f830112614ed557614ed4614db2565b5b8135614ee5848260208601614e80565b91505092915050565b5f5f60408385031215614f0457614f036148f4565b5b5f614f11858286016149e9565b925050602083013567ffffffffffffffff811115614f3257614f316148f8565b5b614f3e85828601614ec1565b9150509250929050565b5f819050919050565b614f5a81614f48565b82525050565b5f602082019050614f735f830184614f51565b92915050565b5f5f5f60608486031215614f9057614f8f6148f4565b5b5f614f9d868287016149e9565b9350506020614fae86828701614a13565b9250506040614fbf868287016149e9565b9150509250925092565b5f602082019050614fdc5f830184614d27565b92915050565b5f60a082019050614ff55f830188614953565b6150026020830187614953565b61500f6040830186614953565b61501c6060830185614953565b6150296080830184614d27565b9695505050505050565b5f81519050919050565b8281835e5f83830152505050565b5f61505582615033565b61505f8185614873565b935061506f81856020860161503d565b61507881614dba565b840191505092915050565b5f6020820190508181035f83015261509b818461504b565b905092915050565b5f60c0820190506150b65f830189614d0d565b6150c360208301886149ab565b6150d06040830187614953565b6150dd6060830186614953565b6150ea6080830185614953565b6150f760a0830184614953565b979650505050505050565b61510b81614d1c565b8114615115575f5ffd5b50565b5f8135905061512681615102565b92915050565b5f60208284031215615141576151406148f4565b5b5f61514e84828501615118565b91505092915050565b5f60608201905061516a5f8301866149ab565b6151776020830185614953565b6151846040830184614953565b949350505050565b5f81519050919050565b5f82825260208201905092915050565b5f819050602082019050919050565b5f6151c08383614b30565b60208301905092915050565b5f602082019050919050565b5f6151e28261518c565b6151ec8185615196565b93506151f7836151a6565b805f5b8381101561522757815161520e88826151b5565b9750615219836151cc565b9250506001810190506151fa565b5085935050505092915050565b5f6020820190508181035f83015261524c81846151d8565b905092915050565b7f4e487b71000000000000000000000000000000000000000000000000000000005f52601160045260245ffd5b5f61528b8261494a565b91506152968361494a565b92508282039050818111156152ae576152ad615254565b5b92915050565b5f6152be8261494a565b91506152c98361494a565b92508282026152d78161494a565b915082820484148315176152ee576152ed615254565b5b5092915050565b7f4e487b71000000000000000000000000000000000000000000000000000000005f52601260045260245ffd5b5f61532c8261494a565b91506153378361494a565b925082615347576153466152f5565b5b828204905092915050565b5f81519050615360816149d3565b92915050565b5f81519050615374816149fd565b92915050565b5f5f5f5f60808587031215615392576153916148f4565b5b5f61539f87828801615352565b94505060206153b087828801615366565b93505060406153c187828801615366565b92505060606153d287828801615366565b91505092959194509250565b5f819050919050565b5f67ffffffffffffffff82169050919050565b5f819050919050565b5f61541d615418615413846153de565b6153fa565b6153e7565b9050919050565b61542d81615403565b82525050565b5f6020820190506154465f830184615424565b92915050565b5f6154568261494a565b91506154618361494a565b925082820190508082111561547957615478615254565b5b92915050565b5f6040820190506154925f8301856149ab565b61549f6020830184614953565b9392505050565b7f46696e616e63652070617573652e0000000000000000000000000000000000005f82015250565b5f6154da600e83614873565b91506154e5826154a6565b602082019050919050565b5f6020820190508181035f830152615507816154ce565b9050919050565b7f4e6f74207065726d69742e0000000000000000000000000000000000000000005f82015250565b5f615542600b83614873565b915061554d8261550e565b602082019050919050565b5f6020820190508181035f83015261556f81615536565b9050919050565b7f5245434f4d4d454e444154494f4e5f49535f52455155495245445f52454645525f8201527f52414c2e00000000000000000000000000000000000000000000000000000000602082015250565b5f6155d0602483614873565b91506155db82615576565b604082019050919050565b5f6020820190508181035f8301526155fd816155c4565b9050919050565b5f6040820190506156175f8301856149ab565b61562460208301846149ab565b9392505050565b5f60608201905061563e5f8301866149ab565b61564b60208301856149ab565b6156586040830184614953565b949350505050565b5f81519050919050565b5f81905092915050565b5f61567e82615660565b615688818561566a565b935061569881856020860161503d565b80840191505092915050565b5f6156af8284615674565b915081905092915050565b5f815190506156c881615102565b92915050565b5f602082840312156156e3576156e26148f4565b5b5f6156f0848285016156ba565b91505092915050565b7f5472616e7366657248656c7065723a205452414e534645525f46524f4d5f46415f8201527f494c454400000000000000000000000000000000000000000000000000000000602082015250565b5f615753602483614873565b915061575e826156f9565b604082019050919050565b5f6020820190508181035f83015261578081615747565b9050919050565b61579081614f48565b811461579a575f5ffd5b50565b5f815190506157ab81615787565b92915050565b5f602082840312156157c6576157c56148f4565b5b5f6157d38482850161579d565b91505092915050565b7f5472616e7366657248656c7065723a205452414e534645525f4641494c4544005f82015250565b5f615810601f83614873565b915061581b826157dc565b602082019050919050565b5f6020820190508181035f83015261583d81615804565b9050919050565b7f4e487b71000000000000000000000000000000000000000000000000000000005f52603260045260245ffdfea26469706673582212202b0bd43ea8b0a43fc76f239828f90184d21886a6207a742f19612094c3995e9c64736f6c634300081e0033","linkReferences":{}},"methodIdentifiers":{"DEAD()":"03fd2a45","MULTIPLE()":"7516a79e","UPGRADE_INTERFACE_VERSION()":"ad3cb1cc","USDT()":"c54e44eb","admin()":"f851a440","awardRecords(address,uint256)":"c023b3a5","claim()":"4e71d92d","decimals()":"313ce567","directReferrals(address,uint256)":"05ad3935","djsv1()":"ac6439b5","emergencyWithdraw(address,uint256,address)":"551512de","getDirectReferrals(address)":"d2c8e0e5","getInvalidStaking(address)":"19b12a53","getReferralAwardRecords(address)":"18785eb6","getUserAward(address)":"3e4ff6f2","getUserInfoBasic(address)":"b5006823","getUserInfoReferral(address)":"9238b0f9","getUserShareLevelAward(address)":"c7c93c94","getUserStakingAward(address)":"0acf716b","initialCode()":"10baf089","initialize(address,address,address,address,address)":"1459457a","isAddDirectReferrals(address)":"a3f2a64a","lastShareAwardTime()":"922be46d","liquidityManager()":"33827438","migrationReferral(address)":"0ff9ef12","nodeDividends()":"c7fb372f","owner()":"8da5cb5b","pause()":"8456cb59","perSecondStakedAeward()":"905635d4","perSharePerformanceAward()":"db81c515","proxiableUUID()":"52d1902d","referral(address)":"7247959a","referralInfo(address)":"39540b0a","renounceOwnership()":"715018a6","setPause(bool)":"bedb86fb","shareRate()":"fb802a65","stake(uint256)":"a694fc3a","subCoinQuotas(uint8)":"00c4bb2b","swapSubToken(uint256)":"1b602f22","totalSharePerformance()":"d567aadb","totalStakedUsdt()":"b2859e2b","transferOwnership(address)":"f2fde38b","upgradeToAndCall(address,bytes)":"4f1ef286","userInfo(address)":"1959a002","validReferralCode(address)":"87631a2a","whetherNeedMigrate(address)":"85215f7c"},"id":50}