{"abi":[{"type":"receive","stateMutability":"payable"},{"type":"function","name":"DEAD","inputs":[],"outputs":[{"name":"","type":"address","internalType":"address"}],"stateMutability":"view"},{"type":"function","name":"UPGRADE_INTERFACE_VERSION","inputs":[],"outputs":[{"name":"","type":"string","internalType":"string"}],"stateMutability":"view"},{"type":"function","name":"USDT","inputs":[],"outputs":[{"name":"","type":"address","internalType":"address"}],"stateMutability":"view"},{"type":"function","name":"admin","inputs":[],"outputs":[{"name":"","type":"address","internalType":"address"}],"stateMutability":"view"},{"type":"function","name":"awardRecords","inputs":[{"name":"","type":"address","internalType":"address"},{"name":"","type":"uint256","internalType":"uint256"}],"outputs":[{"name":"from","type":"address","internalType":"address"},{"name":"amount","type":"uint256","internalType":"uint256"},{"name":"time","type":"uint256","internalType":"uint256"}],"stateMutability":"view"},{"type":"function","name":"claim","inputs":[],"outputs":[],"stateMutability":"nonpayable"},{"type":"function","name":"decimals","inputs":[],"outputs":[{"name":"","type":"uint256","internalType":"uint256"}],"stateMutability":"view"},{"type":"function","name":"directReferrals","inputs":[{"name":"","type":"address","internalType":"address"},{"name":"","type":"uint256","internalType":"uint256"}],"outputs":[{"name":"","type":"address","internalType":"address"}],"stateMutability":"view"},{"type":"function","name":"djsv1","inputs":[],"outputs":[{"name":"","type":"address","internalType":"address"}],"stateMutability":"view"},{"type":"function","name":"emergencyWithdraw","inputs":[{"name":"_token","type":"address","internalType":"address"},{"name":"_amount","type":"uint256","internalType":"uint256"},{"name":"_to","type":"address","internalType":"address"}],"outputs":[],"stateMutability":"nonpayable"},{"type":"function","name":"getDirectReferrals","inputs":[{"name":"user","type":"address","internalType":"address"}],"outputs":[{"name":"","type":"address[]","internalType":"address[]"}],"stateMutability":"view"},{"type":"function","name":"getInvalidStaking","inputs":[{"name":"user","type":"address","internalType":"address"}],"outputs":[{"name":"","type":"uint256","internalType":"uint256"}],"stateMutability":"view"},{"type":"function","name":"getReferralAwardRecords","inputs":[{"name":"user","type":"address","internalType":"address"}],"outputs":[{"name":"","type":"tuple[]","internalType":"struct Process.Record[]","components":[{"name":"from","type":"address","internalType":"address"},{"name":"amount","type":"uint256","internalType":"uint256"},{"name":"time","type":"uint256","internalType":"uint256"}]}],"stateMutability":"view"},{"type":"function","name":"getUserAward","inputs":[{"name":"user","type":"address","internalType":"address"}],"outputs":[{"name":"","type":"uint256","internalType":"uint256"}],"stateMutability":"view"},{"type":"function","name":"getUserInfoBasic","inputs":[{"name":"user","type":"address","internalType":"address"}],"outputs":[{"name":"level","type":"uint8","internalType":"enum Process.Level"},{"name":"recommender","type":"address","internalType":"address"},{"name":"stakingUsdt","type":"uint256","internalType":"uint256"},{"name":"multiple","type":"uint256","internalType":"uint256"},{"name":"totalAward","type":"uint256","internalType":"uint256"},{"name":"shareAward","type":"uint256","internalType":"uint256"}],"stateMutability":"view"},{"type":"function","name":"getUserInfoReferral","inputs":[{"name":"user","type":"address","internalType":"address"}],"outputs":[{"name":"referralNum","type":"uint256","internalType":"uint256"},{"name":"performance","type":"uint256","internalType":"uint256"},{"name":"referralAward","type":"uint256","internalType":"uint256"},{"name":"subCoinQuota","type":"uint256","internalType":"uint256"},{"name":"isMigration","type":"bool","internalType":"bool"}],"stateMutability":"view"},{"type":"function","name":"getUserShareLevelAward","inputs":[{"name":"user","type":"address","internalType":"address"}],"outputs":[{"name":"","type":"uint256","internalType":"uint256"}],"stateMutability":"view"},{"type":"function","name":"getUserStakingAward","inputs":[{"name":"user","type":"address","internalType":"address"}],"outputs":[{"name":"","type":"uint256","internalType":"uint256"}],"stateMutability":"view"},{"type":"function","name":"initialCode","inputs":[],"outputs":[{"name":"","type":"address","internalType":"address"}],"stateMutability":"view"},{"type":"function","name":"initialize","inputs":[{"name":"_admin","type":"address","internalType":"address"},{"name":"_initialCode","type":"address","internalType":"address"},{"name":"_djsv1","type":"address","internalType":"address"},{"name":"_nodeDividends","type":"address","internalType":"address"},{"name":"_liquidityManager","type":"address","internalType":"address"}],"outputs":[],"stateMutability":"nonpayable"},{"type":"function","name":"isAddDirectReferrals","inputs":[{"name":"","type":"address","internalType":"address"}],"outputs":[{"name":"","type":"bool","internalType":"bool"}],"stateMutability":"view"},{"type":"function","name":"lastShareAwardTime","inputs":[],"outputs":[{"name":"","type":"uint256","internalType":"uint256"}],"stateMutability":"view"},{"type":"function","name":"liquidityManager","inputs":[],"outputs":[{"name":"","type":"address","internalType":"address"}],"stateMutability":"view"},{"type":"function","name":"migrationReferral","inputs":[{"name":"user","type":"address","internalType":"address"}],"outputs":[],"stateMutability":"nonpayable"},{"type":"function","name":"nodeDividends","inputs":[],"outputs":[{"name":"","type":"address","internalType":"address"}],"stateMutability":"view"},{"type":"function","name":"owner","inputs":[],"outputs":[{"name":"","type":"address","internalType":"address"}],"stateMutability":"view"},{"type":"function","name":"pause","inputs":[],"outputs":[{"name":"","type":"bool","internalType":"bool"}],"stateMutability":"view"},{"type":"function","name":"perSecondStakedAeward","inputs":[],"outputs":[{"name":"","type":"uint256","internalType":"uint256"}],"stateMutability":"view"},{"type":"function","name":"perSharePerformanceAward","inputs":[],"outputs":[{"name":"","type":"uint256","internalType":"uint256"}],"stateMutability":"view"},{"type":"function","name":"proxiableUUID","inputs":[],"outputs":[{"name":"","type":"bytes32","internalType":"bytes32"}],"stateMutability":"view"},{"type":"function","name":"referral","inputs":[{"name":"recommender","type":"address","internalType":"address"}],"outputs":[],"stateMutability":"nonpayable"},{"type":"function","name":"referralInfo","inputs":[{"name":"","type":"address","internalType":"address"}],"outputs":[{"name":"recommender","type":"address","internalType":"address"},{"name":"level","type":"uint8","internalType":"enum Process.Level"},{"name":"referralNum","type":"uint256","internalType":"uint256"},{"name":"performance","type":"uint256","internalType":"uint256"},{"name":"referralAward","type":"uint256","internalType":"uint256"},{"name":"subCoinQuota","type":"uint256","internalType":"uint256"},{"name":"shareAwardDebt","type":"uint256","internalType":"uint256"},{"name":"isMigration","type":"bool","internalType":"bool"}],"stateMutability":"view"},{"type":"function","name":"renounceOwnership","inputs":[],"outputs":[],"stateMutability":"nonpayable"},{"type":"function","name":"setPause","inputs":[{"name":"isPause","type":"bool","internalType":"bool"}],"outputs":[],"stateMutability":"nonpayable"},{"type":"function","name":"shareRate","inputs":[],"outputs":[{"name":"","type":"uint256","internalType":"uint256"}],"stateMutability":"view"},{"type":"function","name":"stake","inputs":[{"name":"amountUSDT","type":"uint256","internalType":"uint256"}],"outputs":[],"stateMutability":"nonpayable"},{"type":"function","name":"subCoinQuotas","inputs":[{"name":"","type":"uint8","internalType":"enum Process.Level"}],"outputs":[{"name":"","type":"uint256","internalType":"uint256"}],"stateMutability":"view"},{"type":"function","name":"swapSubToken","inputs":[{"name":"amountUSDT","type":"uint256","internalType":"uint256"}],"outputs":[],"stateMutability":"nonpayable"},{"type":"function","name":"totalSharePerformance","inputs":[],"outputs":[{"name":"","type":"uint256","internalType":"uint256"}],"stateMutability":"view"},{"type":"function","name":"totalStakedUsdt","inputs":[],"outputs":[{"name":"","type":"uint256","internalType":"uint256"}],"stateMutability":"view"},{"type":"function","name":"transferOwnership","inputs":[{"name":"newOwner","type":"address","internalType":"address"}],"outputs":[],"stateMutability":"nonpayable"},{"type":"function","name":"upgradeToAndCall","inputs":[{"name":"newImplementation","type":"address","internalType":"address"},{"name":"data","type":"bytes","internalType":"bytes"}],"outputs":[],"stateMutability":"payable"},{"type":"function","name":"userInfo","inputs":[{"name":"","type":"address","internalType":"address"}],"outputs":[{"name":"stakingUsdt","type":"uint256","internalType":"uint256"},{"name":"multiple","type":"uint256","internalType":"uint256"},{"name":"stakingTime","type":"uint256","internalType":"uint256"},{"name":"pendingProfit","type":"uint256","internalType":"uint256"},{"name":"extracted","type":"uint256","internalType":"uint256"}],"stateMutability":"view"},{"type":"function","name":"whetherNeedMigrate","inputs":[{"name":"user","type":"address","internalType":"address"}],"outputs":[{"name":"","type":"bool","internalType":"bool"}],"stateMutability":"view"},{"type":"event","name":"Claimed","inputs":[{"name":"user","type":"address","indexed":false,"internalType":"address"},{"name":"amount","type":"uint256","indexed":false,"internalType":"uint256"}],"anonymous":false},{"type":"event","name":"Initialized","inputs":[{"name":"version","type":"uint64","indexed":false,"internalType":"uint64"}],"anonymous":false},{"type":"event","name":"OwnershipTransferred","inputs":[{"name":"previousOwner","type":"address","indexed":true,"internalType":"address"},{"name":"newOwner","type":"address","indexed":true,"internalType":"address"}],"anonymous":false},{"type":"event","name":"Referrals","inputs":[{"name":"recommender","type":"address","indexed":false,"internalType":"address"},{"name":"referred","type":"address","indexed":false,"internalType":"address"}],"anonymous":false},{"type":"event","name":"Staked","inputs":[{"name":"user","type":"address","indexed":false,"internalType":"address"},{"name":"amount","type":"uint256","indexed":false,"internalType":"uint256"}],"anonymous":false},{"type":"event","name":"Upgraded","inputs":[{"name":"implementation","type":"address","indexed":true,"internalType":"address"}],"anonymous":false},{"type":"error","name":"AddressEmptyCode","inputs":[{"name":"target","type":"address","internalType":"address"}]},{"type":"error","name":"AlreadyMigrated","inputs":[]},{"type":"error","name":"AmountTooLow","inputs":[]},{"type":"error","name":"ERC1967InvalidImplementation","inputs":[{"name":"implementation","type":"address","internalType":"address"}]},{"type":"error","name":"ERC1967NonPayable","inputs":[]},{"type":"error","name":"FailedCall","inputs":[]},{"type":"error","name":"InsufficientQuota","inputs":[]},{"type":"error","name":"InvalidInitialization","inputs":[]},{"type":"error","name":"InvalidRecommender","inputs":[]},{"type":"error","name":"InviterExists","inputs":[]},{"type":"error","name":"NeedMigrate","inputs":[]},{"type":"error","name":"NoMigrationRequired","inputs":[]},{"type":"error","name":"NoReward","inputs":[]},{"type":"error","name":"NoStake","inputs":[]},{"type":"error","name":"NotInitializing","inputs":[]},{"type":"error","name":"NotRequiredReferral","inputs":[]},{"type":"error","name":"OwnableInvalidOwner","inputs":[{"name":"owner","type":"address","internalType":"address"}]},{"type":"error","name":"OwnableUnauthorizedAccount","inputs":[{"name":"account","type":"address","internalType":"address"}]},{"type":"error","name":"ReentrancyGuardReentrantCall","inputs":[]},{"type":"error","name":"UUPSUnauthorizedCallContext","inputs":[]},{"type":"error","name":"UUPSUnsupportedProxiableUUID","inputs":[{"name":"slot","type":"bytes32","internalType":"bytes32"}]},{"type":"error","name":"ZeroAddress","inputs":[]}],"bytecode":{"object":"0x60a06040523073ffffffffffffffffffffffffffffffffffffffff1660809073ffffffffffffffffffffffffffffffffffffffff168152503480156041575f5ffd5b5060015f819055506080516158a561006f5f395f8181613355015281816133aa015261356401526158a55ff3fe608060405260043610610269575f3560e01c806385215f7c11610143578063bedb86fb116100b5578063d2c8e0e511610079578063d2c8e0e5146109b7578063d567aadb146109f3578063db81c51514610a1d578063f2fde38b14610a47578063f851a44014610a6f578063fb802a6514610a99576102a9565b8063bedb86fb146108c1578063c023b3a5146108e9578063c54e44eb14610927578063c7c93c9414610951578063c7fb372f1461098d576102a9565b8063a3f2a64a11610107578063a3f2a64a1461079e578063a694fc3a146107da578063ac6439b514610802578063ad3cb1cc1461082c578063b2859e2b14610856578063b500682314610880576102a9565b806385215f7c146106a45780638da5cb5b146106e0578063905635d41461070a578063922be46d146107345780639238b0f91461075e576102a9565b8063313ce567116101dc5780634f1ef286116101a05780634f1ef286146105ce57806352d1902d146105ea578063551512de14610614578063715018a61461063c5780637247959a146106525780638456cb591461067a576102a9565b8063313ce567146104e5578063338274381461050f57806339540b0a146105395780633e4ff6f21461057c5780634e71d92d146105b8576102a9565b806310baf0891161022e57806310baf089146103b35780631459457a146103dd57806318785eb6146104055780631959a0021461044157806319b12a53146104815780631b602f22146104bd576102a9565b8062c4bb2b146102ad57806303fd2a45146102e957806305ad3935146103135780630acf716b1461034f5780630ff9ef121461038b576102a9565b366102a9576040517f08c379a00000000000000000000000000000000000000000000000000000000081526004016102a0906148cb565b60405180910390fd5b5f5ffd5b3480156102b8575f5ffd5b506102d360048036038101906102ce919061491d565b610ac3565b6040516102e09190614960565b60405180910390f35b3480156102f4575f5ffd5b506102fd610ad8565b60405161030a91906149b8565b60405180910390f35b34801561031e575f5ffd5b5061033960048036038101906103349190614a25565b610ade565b60405161034691906149b8565b60405180910390f35b34801561035a575f5ffd5b5061037560048036038101906103709190614a63565b610b26565b6040516103829190614960565b60405180910390f35b348015610396575f5ffd5b506103b160048036038101906103ac9190614a63565b610be3565b005b3480156103be575f5ffd5b506103c7610de1565b6040516103d491906149b8565b60405180910390f35b3480156103e8575f5ffd5b5061040360048036038101906103fe9190614a8e565b610e06565b005b348015610410575f5ffd5b5061042b60048036038101906104269190614a63565b61127f565b6040516104389190614c0b565b60405180910390f35b34801561044c575f5ffd5b5061046760048036038101906104629190614a63565b611380565b604051610478959493929190614c2b565b60405180910390f35b34801561048c575f5ffd5b506104a760048036038101906104a29190614a63565b6113b2565b6040516104b49190614960565b60405180910390f35b3480156104c8575f5ffd5b506104e360048036038101906104de9190614c7c565b61146f565b005b3480156104f0575f5ffd5b506104f961160c565b6040516105069190614960565b60405180910390f35b34801561051a575f5ffd5b50610523611612565b60405161053091906149b8565b60405180910390f35b348015610544575f5ffd5b5061055f600480360381019061055a9190614a63565b611637565b604051610573989796959493929190614d34565b60405180910390f35b348015610587575f5ffd5b506105a2600480360381019061059d9190614a63565b6116b2565b6040516105af9190614960565b60405180910390f35b3480156105c3575f5ffd5b506105cc611889565b005b6105e860048036038101906105e39190614eec565b611b55565b005b3480156105f5575f5ffd5b506105fe611b74565b60405161060b9190614f5e565b60405180910390f35b34801561061f575f5ffd5b5061063a60048036038101906106359190614f77565b611ba5565b005b348015610647575f5ffd5b50610650611c44565b005b34801561065d575f5ffd5b5061067860048036038101906106739190614a63565b611c57565b005b348015610685575f5ffd5b5061068e612059565b60405161069b9190614fc7565b60405180910390f35b3480156106af575f5ffd5b506106ca60048036038101906106c59190614a63565b61206b565b6040516106d79190614fc7565b60405180910390f35b3480156106eb575f5ffd5b506106f4612199565b60405161070191906149b8565b60405180910390f35b348015610715575f5ffd5b5061071e6121ce565b60405161072b9190614960565b60405180910390f35b34801561073f575f5ffd5b506107486121d4565b6040516107559190614960565b60405180910390f35b348015610769575f5ffd5b50610784600480360381019061077f9190614a63565b6121da565b604051610795959493929190614fe0565b60405180910390f35b3480156107a9575f5ffd5b506107c460048036038101906107bf9190614a63565b612332565b6040516107d19190614fc7565b60405180910390f35b3480156107e5575f5ffd5b5061080060048036038101906107fb9190614c7c565b61234f565b005b34801561080d575f5ffd5b506108166129dc565b60405161082391906149b8565b60405180910390f35b348015610837575f5ffd5b50610840612a01565b60405161084d9190615081565b60405180910390f35b348015610861575f5ffd5b5061086a612a3a565b6040516108779190614960565b60405180910390f35b34801561088b575f5ffd5b506108a660048036038101906108a19190614a63565b612a40565b6040516108b8969594939291906150a1565b60405180910390f35b3480156108cc575f5ffd5b506108e760048036038101906108e2919061512a565b612c23565b005b3480156108f4575f5ffd5b5061090f600480360381019061090a9190614a25565b612cce565b60405161091e93929190615155565b60405180910390f35b348015610932575f5ffd5b5061093b612d2d565b60405161094891906149b8565b60405180910390f35b34801561095c575f5ffd5b5061097760048036038101906109729190614a63565b612d45565b6040516109849190614960565b60405180910390f35b348015610998575f5ffd5b506109a1612f64565b6040516109ae91906149b8565b60405180910390f35b3480156109c2575f5ffd5b506109dd60048036038101906109d89190614a63565b612f89565b6040516109ea9190615232565b60405180910390f35b3480156109fe575f5ffd5b50610a07613051565b604051610a149190614960565b60405180910390f35b348015610a28575f5ffd5b50610a31613057565b604051610a3e9190614960565b60405180910390f35b348015610a52575f5ffd5b50610a6d6004803603810190610a689190614a63565b61305d565b005b348015610a7a575f5ffd5b50610a836130e1565b604051610a9091906149b8565b60405180910390f35b348015610aa4575f5ffd5b50610aad613106565b604051610aba9190614960565b60405180910390f35b6006602052805f5260405f205f915090505481565b61dead81565b6004602052815f5260405f208181548110610af7575f80fd5b905f5260205f20015f915091509054906101000a900473ffffffffffffffffffffffffffffffffffffffff1681565b5f5f60015f8473ffffffffffffffffffffffffffffffffffffffff1673ffffffffffffffffffffffffffffffffffffffff1681526020019081526020015f206040518060a00160405290815f82015481526020016001820154815260200160028201548152602001600382015481526020016004820154815250509050600f54815f0151600e54836040015142610bbd919061527f565b610bc791906152b2565b610bd191906152b2565b610bdb9190615320565b915050919050565b610beb61310c565b5f60025f8373ffffffffffffffffffffffffffffffffffffffff1673ffffffffffffffffffffffffffffffffffffffff1681526020019081526020015f209050806006015f9054906101000a900460ff1615610c73576040517fca1c3cbc00000000000000000000000000000000000000000000000000000000815260040160405180910390fd5b5f60095f9054906101000a900473ffffffffffffffffffffffffffffffffffffffff1673ffffffffffffffffffffffffffffffffffffffff16631959a002846040518263ffffffff1660e01b8152600401610cce91906149b8565b608060405180830381865afa158015610ce9573d5f5f3e3d5ffd5b505050506040513d601f19601f82011682018060405250810190610d0d9190615378565b50505090505f73ffffffffffffffffffffffffffffffffffffffff168173ffffffffffffffffffffffffffffffffffffffff1603610d77576040517f9c9e07a800000000000000000000000000000000000000000000000000000000815260040160405180910390fd5b80825f015f6101000a81548173ffffffffffffffffffffffffffffffffffffffff021916908373ffffffffffffffffffffffffffffffffffffffff1602179055506001826006015f6101000a81548160ff0219169083151502179055505050610dde613150565b50565b60085f9054906101000a900473ffffffffffffffffffffffffffffffffffffffff1681565b5f610e0f613159565b90505f815f0160089054906101000a900460ff161590505f825f015f9054906101000a900467ffffffffffffffff1690505f5f8267ffffffffffffffff16148015610e575750825b90505f60018367ffffffffffffffff16148015610e8a57505f3073ffffffffffffffffffffffffffffffffffffffff163b145b905081158015610e98575080155b15610ecf576040517ff92ee8a900000000000000000000000000000000000000000000000000000000815260040160405180910390fd5b6001855f015f6101000a81548167ffffffffffffffff021916908367ffffffffffffffff1602179055508315610f1c576001855f0160086101000a81548160ff0219169083151502179055505b610f2c610f2761316c565b613173565b8960075f6101000a81548173ffffffffffffffffffffffffffffffffffffffff021916908373ffffffffffffffffffffffffffffffffffffffff1602179055508860085f6101000a81548173ffffffffffffffffffffffffffffffffffffffff021916908373ffffffffffffffffffffffffffffffffffffffff1602179055508760095f6101000a81548173ffffffffffffffffffffffffffffffffffffffff021916908373ffffffffffffffffffffffffffffffffffffffff16021790555086600a5f6101000a81548173ffffffffffffffffffffffffffffffffffffffff021916908373ffffffffffffffffffffffffffffffffffffffff16021790555085600b5f6101000a81548173ffffffffffffffffffffffffffffffffffffffff021916908373ffffffffffffffffffffffffffffffffffffffff1602179055506402540be400600f8190555062015180683635c9adc5dea00000600f5467a688906bd8b0000061109c91906152b2565b6110a69190615320565b6110b09190615320565b600e81905550600a6013819055504260108190555068056bc75e2d6310000060065f600160068111156110e6576110e5614ca7565b5b60068111156110f8576110f7614ca7565b5b81526020019081526020015f2081905550681043561a882930000060065f6002600681111561112a57611129614ca7565b5b600681111561113c5761113b614ca7565b5b81526020019081526020015f2081905550681b1ae4d6e2ef50000060065f6003600681111561116e5761116d614ca7565b5b60068111156111805761117f614ca7565b5b81526020019081526020015f2081905550683635c9adc5dea0000060065f600460068111156111b2576111b1614ca7565b5b60068111156111c4576111c3614ca7565b5b81526020019081526020015f208190555068a2a15d09519be0000060065f600560068111156111f6576111f5614ca7565b5b600681111561120857611207614ca7565b5b81526020019081526020015f20819055508315611273575f855f0160086101000a81548160ff0219169083151502179055507fc7f505b2f371ae2175ee4913f4499e1f2633a7b5936321eed1cdaeb6115181d2600160405161126a9190615431565b60405180910390a15b50505050505050505050565b606060035f8373ffffffffffffffffffffffffffffffffffffffff1673ffffffffffffffffffffffffffffffffffffffff1681526020019081526020015f20805480602002602001604051908101604052809291908181526020015f905b82821015611375578382905f5260205f2090600302016040518060600160405290815f82015f9054906101000a900473ffffffffffffffffffffffffffffffffffffffff1673ffffffffffffffffffffffffffffffffffffffff1673ffffffffffffffffffffffffffffffffffffffff16815260200160018201548152602001600282015481525050815260200190600101906112dd565b505050509050919050565b6001602052805f5260405f205f91509050805f0154908060010154908060020154908060030154908060040154905085565b5f5f60015f8473ffffffffffffffffffffffffffffffffffffffff1673ffffffffffffffffffffffffffffffffffffffff1681526020019081526020015f2090505f8160040154600f5461140586612d45565b61140f9190615320565b61141886610b26565b8460030154611427919061544a565b611431919061544a565b61143b919061544a565b90508160010154825f015461145091906152b2565b81111561146457815f01549250505061146a565b5f925050505b919050565b60025f3373ffffffffffffffffffffffffffffffffffffffff1673ffffffffffffffffffffffffffffffffffffffff1681526020019081526020015f20600401548111156114e9576040517f6aea990400000000000000000000000000000000000000000000000000000000815260040160405180910390fd5b61152a7355d398326f99059ff775485246999027b319795533600b5f9054906101000a900473ffffffffffffffffffffffffffffffffffffffff1684613187565b600b5f9054906101000a900473ffffffffffffffffffffffffffffffffffffffff1673ffffffffffffffffffffffffffffffffffffffff166379e32cd933836040518363ffffffff1660e01b815260040161158692919061547d565b5f604051808303815f87803b15801561159d575f5ffd5b505af11580156115af573d5f5f3e3d5ffd5b505050508060025f3373ffffffffffffffffffffffffffffffffffffffff1673ffffffffffffffffffffffffffffffffffffffff1681526020019081526020015f206004015f828254611602919061527f565b9250508190555050565b600f5481565b600b5f9054906101000a900473ffffffffffffffffffffffffffffffffffffffff1681565b6002602052805f5260405f205f91509050805f015f9054906101000a900473ffffffffffffffffffffffffffffffffffffffff1690805f0160149054906101000a900460ff1690806001015490806002015490806003015490806004015490806005015490806006015f9054906101000a900460ff16905088565b5f5f60015f8473ffffffffffffffffffffffffffffffffffffffff1673ffffffffffffffffffffffffffffffffffffffff1681526020019081526020015f206040518060a00160405290815f820154815260200160018201548152602001600282015481526020016003820154815260200160048201548152505090505f815f015103611742575f915050611884565b5f61174c84610b26565b90505f61175885612d45565b90505f60025f8773ffffffffffffffffffffffffffffffffffffffff1673ffffffffffffffffffffffffffffffffffffffff1681526020019081526020015f2060030154828486606001516117ad919061544a565b6117b7919061544a565b6117c1919061544a565b905060085f9054906101000a900473ffffffffffffffffffffffffffffffffffffffff1673ffffffffffffffffffffffffffffffffffffffff168673ffffffffffffffffffffffffffffffffffffffff16036118235780945050505050611884565b5f8460200151855f015161183791906152b2565b905080856080015110611851575f95505050505050611884565b5f856080015182611862919061527f565b90508083111561187a57809650505050505050611884565b8296505050505050505b919050565b61189161310c565b600d5f9054906101000a900460ff16156118e0576040517f08c379a00000000000000000000000000000000000000000000000000000000081526004016118d7906154ee565b60405180910390fd5b5f60015f3373ffffffffffffffffffffffffffffffffffffffff1673ffffffffffffffffffffffffffffffffffffffff1681526020019081526020015f2090505f815f01540361195c576040517fcacf989a00000000000000000000000000000000000000000000000000000000815260040160405180910390fd5b5f611966336113b2565b600c54611973919061527f565b905061197e816132ba565b5f611988336116b2565b90505f81036119c3576040517f6e99268600000000000000000000000000000000000000000000000000000000815260040160405180910390fd5b5f836003018190555080836004015f8282546119df919061544a565b925050819055505f60025f3373ffffffffffffffffffffffffffffffffffffffff1673ffffffffffffffffffffffffffffffffffffffff1681526020019081526020015f2090505f8160030181905550600680811115611a4257611a41614ca7565b5b815f0160149054906101000a900460ff166006811115611a6557611a64614ca7565b5b03611a85578060020154601154611a7c91906152b2565b81600501819055505b600b5f9054906101000a900473ffffffffffffffffffffffffffffffffffffffff1673ffffffffffffffffffffffffffffffffffffffff16632d019c4233846040518363ffffffff1660e01b8152600401611ae192919061547d565b5f604051808303815f87803b158015611af8575f5ffd5b505af1158015611b0a573d5f5f3e3d5ffd5b505050507fd8138f8a3f377c5259ca548e70e4c2de94f129f5a11036a15b69513cba2b426a3383604051611b3f92919061547d565b60405180910390a150505050611b53613150565b565b611b5d613353565b611b6682613439565b611b708282613444565b5050565b5f611b7d613562565b7f360894a13ba1a3210667c828492db98dca3e2076cc3735a920a3ca505d382bbc5f1b905090565b3373ffffffffffffffffffffffffffffffffffffffff1660075f9054906101000a900473ffffffffffffffffffffffffffffffffffffffff1673ffffffffffffffffffffffffffffffffffffffff1614611c34576040517f08c379a0000000000000000000000000000000000000000000000000000000008152600401611c2b90615556565b60405180910390fd5b611c3f8382846135e9565b505050565b611c4c613719565b611c555f6137a0565b565b611c5f61310c565b611c683361206b565b15611c9f576040517f1d9410b700000000000000000000000000000000000000000000000000000000815260040160405180910390fd5b5f73ffffffffffffffffffffffffffffffffffffffff168173ffffffffffffffffffffffffffffffffffffffff1603611d04576040517fd92e233d00000000000000000000000000000000000000000000000000000000815260040160405180910390fd5b3373ffffffffffffffffffffffffffffffffffffffff168173ffffffffffffffffffffffffffffffffffffffff1603611d69576040517f4f2f060100000000000000000000000000000000000000000000000000000000815260040160405180910390fd5b60085f9054906101000a900473ffffffffffffffffffffffffffffffffffffffff1673ffffffffffffffffffffffffffffffffffffffff168173ffffffffffffffffffffffffffffffffffffffff1614611ed5575f73ffffffffffffffffffffffffffffffffffffffff1660025f8373ffffffffffffffffffffffffffffffffffffffff1673ffffffffffffffffffffffffffffffffffffffff1681526020019081526020015f205f015f9054906101000a900473ffffffffffffffffffffffffffffffffffffffff1673ffffffffffffffffffffffffffffffffffffffff1614158015611e9557505f60015f8373ffffffffffffffffffffffffffffffffffffffff1673ffffffffffffffffffffffffffffffffffffffff1681526020019081526020015f205f0154115b611ed4576040517f08c379a0000000000000000000000000000000000000000000000000000000008152600401611ecb906155e4565b60405180910390fd5b5b5f73ffffffffffffffffffffffffffffffffffffffff1660025f3373ffffffffffffffffffffffffffffffffffffffff1673ffffffffffffffffffffffffffffffffffffffff1681526020019081526020015f205f015f9054906101000a900473ffffffffffffffffffffffffffffffffffffffff1673ffffffffffffffffffffffffffffffffffffffff1614611f98576040517f5b3d5a1b00000000000000000000000000000000000000000000000000000000815260040160405180910390fd5b8060025f3373ffffffffffffffffffffffffffffffffffffffff1673ffffffffffffffffffffffffffffffffffffffff1681526020019081526020015f205f015f6101000a81548173ffffffffffffffffffffffffffffffffffffffff021916908373ffffffffffffffffffffffffffffffffffffffff1602179055507f455db5b564134af440ac23bd273ce313070080fc2c3d5d36c03f62de3c6284988133604051612046929190615602565b60405180910390a1612056613150565b50565b600d5f9054906101000a900460ff1681565b5f5f60095f9054906101000a900473ffffffffffffffffffffffffffffffffffffffff1673ffffffffffffffffffffffffffffffffffffffff16631959a002846040518263ffffffff1660e01b81526004016120c791906149b8565b608060405180830381865afa1580156120e2573d5f5f3e3d5ffd5b505050506040513d601f19601f820116820180604052508101906121069190615378565b50505090505f73ffffffffffffffffffffffffffffffffffffffff168173ffffffffffffffffffffffffffffffffffffffff1614158015612191575060025f8473ffffffffffffffffffffffffffffffffffffffff1673ffffffffffffffffffffffffffffffffffffffff1681526020019081526020015f206006015f9054906101000a900460ff16155b915050919050565b5f5f6121a3613871565b9050805f015f9054906101000a900473ffffffffffffffffffffffffffffffffffffffff1691505090565b600e5481565b60105481565b5f5f5f5f5f5f60025f8873ffffffffffffffffffffffffffffffffffffffff1673ffffffffffffffffffffffffffffffffffffffff1681526020019081526020015f20604051806101000160405290815f82015f9054906101000a900473ffffffffffffffffffffffffffffffffffffffff1673ffffffffffffffffffffffffffffffffffffffff1673ffffffffffffffffffffffffffffffffffffffff1681526020015f820160149054906101000a900460ff1660068111156122a1576122a0614ca7565b5b60068111156122b3576122b2614ca7565b5b81526020016001820154815260200160028201548152602001600382015481526020016004820154815260200160058201548152602001600682015f9054906101000a900460ff16151515158152505090508060400151955080606001519450806080015193508060a0015192508060e0015191505091939590929450565b6005602052805f5260405f205f915054906101000a900460ff1681565b61235761310c565b5f60015f3373ffffffffffffffffffffffffffffffffffffffff1673ffffffffffffffffffffffffffffffffffffffff1681526020019081526020015f2090505f60025f3373ffffffffffffffffffffffffffffffffffffffff1673ffffffffffffffffffffffffffffffffffffffff1681526020019081526020015f2090505f73ffffffffffffffffffffffffffffffffffffffff16815f015f9054906101000a900473ffffffffffffffffffffffffffffffffffffffff1673ffffffffffffffffffffffffffffffffffffffff160361245e576040517faf4d1ef200000000000000000000000000000000000000000000000000000000815260040160405180910390fd5b68056bc75e2d631000008310156124a1576040517f1fbaba3500000000000000000000000000000000000000000000000000000000815260040160405180910390fd5b5f60646001856124b191906152b2565b6124bb9190615320565b90505f60646001866124cd91906152b2565b6124d79190615320565b90506125257355d398326f99059ff775485246999027b319795533600b5f9054906101000a900473ffffffffffffffffffffffffffffffffffffffff168589612520919061527f565b613187565b6125667355d398326f99059ff775485246999027b319795533600a5f9054906101000a900473ffffffffffffffffffffffffffffffffffffffff1685613187565b600b5f9054906101000a900473ffffffffffffffffffffffffffffffffffffffff1673ffffffffffffffffffffffffffffffffffffffff166303ec9fb0826040518263ffffffff1660e01b81526004016125c09190614960565b5f604051808303815f87803b1580156125d7575f5ffd5b505af11580156125e9573d5f5f3e3d5ffd5b505050505f73ffffffffffffffffffffffffffffffffffffffff16600a5f9054906101000a900473ffffffffffffffffffffffffffffffffffffffff1673ffffffffffffffffffffffffffffffffffffffff16146126c957600a5f9054906101000a900473ffffffffffffffffffffffffffffffffffffffff1673ffffffffffffffffffffffffffffffffffffffff1663cc430ced836040518263ffffffff1660e01b815260040161269b9190614960565b5f604051808303815f87803b1580156126b2575f5ffd5b505af11580156126c4573d5f5f3e3d5ffd5b505050505b600b5f9054906101000a900473ffffffffffffffffffffffffffffffffffffffff1673ffffffffffffffffffffffffffffffffffffffff166351c6590a828488612713919061527f565b61271d919061527f565b6040518263ffffffff1660e01b81526004016127399190614960565b5f604051808303815f87803b158015612750575f5ffd5b505af1158015612762573d5f5f3e3d5ffd5b5050505061276f33613898565b61277a600c546132ba565b60068081111561278d5761278c614ca7565b5b835f0160149054906101000a900460ff1660068111156127b0576127af614ca7565b5b036127bf576127be33613971565b5b84845f015f8282546127d1919061544a565b925050819055505f68a2a15d09519be00000855f0154116127f35760026127f6565b60035b60ff16905080856001015414612810578085600101819055505b85600c5f828254612821919061544a565b9250508190555060055f3373ffffffffffffffffffffffffffffffffffffffff1673ffffffffffffffffffffffffffffffffffffffff1681526020019081526020015f205f9054906101000a900460ff166129895760045f855f015f9054906101000a900473ffffffffffffffffffffffffffffffffffffffff1673ffffffffffffffffffffffffffffffffffffffff1673ffffffffffffffffffffffffffffffffffffffff1681526020019081526020015f2033908060018154018082558091505060019003905f5260205f20015f9091909190916101000a81548173ffffffffffffffffffffffffffffffffffffffff021916908373ffffffffffffffffffffffffffffffffffffffff160217905550600160055f3373ffffffffffffffffffffffffffffffffffffffff1673ffffffffffffffffffffffffffffffffffffffff1681526020019081526020015f205f6101000a81548160ff0219169083151502179055505b6129933387613a72565b7f9e71bc8eea02a63969f509818f2dafb9254532904319f9dbda79b67bd34a5f3d33876040516129c492919061547d565b60405180910390a150505050506129d9613150565b50565b60095f9054906101000a900473ffffffffffffffffffffffffffffffffffffffff1681565b6040518060400160405280600581526020017f352e302e3000000000000000000000000000000000000000000000000000000081525081565b600c5481565b5f5f5f5f5f5f5f60015f8973ffffffffffffffffffffffffffffffffffffffff1673ffffffffffffffffffffffffffffffffffffffff1681526020019081526020015f206040518060a00160405290815f820154815260200160018201548152602001600282015481526020016003820154815260200160048201548152505090505f60025f8a73ffffffffffffffffffffffffffffffffffffffff1673ffffffffffffffffffffffffffffffffffffffff1681526020019081526020015f20604051806101000160405290815f82015f9054906101000a900473ffffffffffffffffffffffffffffffffffffffff1673ffffffffffffffffffffffffffffffffffffffff1673ffffffffffffffffffffffffffffffffffffffff1681526020015f820160149054906101000a900460ff166006811115612b8457612b83614ca7565b5b6006811115612b9657612b95614ca7565b5b81526020016001820154815260200160028201548152602001600382015481526020016004820154815260200160058201548152602001600682015f9054906101000a900460ff161515151581525050905080602001519750805f01519650815f0151955081602001519450612c0b896116b2565b9350612c1689612d45565b9250505091939550919395565b3373ffffffffffffffffffffffffffffffffffffffff1660075f9054906101000a900473ffffffffffffffffffffffffffffffffffffffff1673ffffffffffffffffffffffffffffffffffffffff1614612cb2576040517f08c379a0000000000000000000000000000000000000000000000000000000008152600401612ca990615556565b60405180910390fd5b80600d5f6101000a81548160ff02191690831515021790555050565b6003602052815f5260405f208181548110612ce7575f80fd5b905f5260205f2090600302015f9150915050805f015f9054906101000a900473ffffffffffffffffffffffffffffffffffffffff16908060010154908060020154905083565b7355d398326f99059ff775485246999027b319795581565b5f5f60105403612d57575f9050612f5f565b5f60025f8473ffffffffffffffffffffffffffffffffffffffff1673ffffffffffffffffffffffffffffffffffffffff1681526020019081526020015f20604051806101000160405290815f82015f9054906101000a900473ffffffffffffffffffffffffffffffffffffffff1673ffffffffffffffffffffffffffffffffffffffff1673ffffffffffffffffffffffffffffffffffffffff1681526020015f820160149054906101000a900460ff166006811115612e1957612e18614ca7565b5b6006811115612e2b57612e2a614ca7565b5b81526020016001820154815260200160028201548152602001600382015481526020016004820154815260200160058201548152602001600682015f9054906101000a900460ff16151515158152505090505f81606001511480612e9057505f601254145b15612e9e575f915050612f5f565b5f60115490505f60105442612eb3919061527f565b90505f811115612f11575f6064601354600e5484600c54612ed491906152b2565b612ede91906152b2565b612ee891906152b2565b612ef29190615320565b905060125481612f029190615320565b83612f0d919061544a565b9250505b5f600f54838560600151612f2591906152b2565b612f2f9190615320565b90508360c001518111612f48575f945050505050612f5f565b8360c0015181612f58919061527f565b9450505050505b919050565b600a5f9054906101000a900473ffffffffffffffffffffffffffffffffffffffff1681565b606060045f8373ffffffffffffffffffffffffffffffffffffffff1673ffffffffffffffffffffffffffffffffffffffff1681526020019081526020015f2080548060200260200160405190810160405280929190818152602001828054801561304557602002820191905f5260205f20905b815f9054906101000a900473ffffffffffffffffffffffffffffffffffffffff1673ffffffffffffffffffffffffffffffffffffffff1681526020019060010190808311612ffc575b50505050509050919050565b60125481565b60115481565b613065613719565b5f73ffffffffffffffffffffffffffffffffffffffff168173ffffffffffffffffffffffffffffffffffffffff16036130d5575f6040517f1e4fbdf70000000000000000000000000000000000000000000000000000000081526004016130cc91906149b8565b60405180910390fd5b6130de816137a0565b50565b60075f9054906101000a900473ffffffffffffffffffffffffffffffffffffffff1681565b60135481565b60025f5403613147576040517f3ee5aeb500000000000000000000000000000000000000000000000000000000815260040160405180910390fd5b60025f81905550565b60015f81905550565b5f5f613163614117565b90508091505090565b5f33905090565b61317b614140565b61318481614180565b50565b5f5f8573ffffffffffffffffffffffffffffffffffffffff166323b872dd8686866040516024016131ba93929190615629565b6040516020818303038152906040529060e01b6020820180517bffffffffffffffffffffffffffffffffffffffffffffffffffffffff838183161783525050505060405161320891906156a2565b5f604051808303815f865af19150503d805f8114613241576040519150601f19603f3d011682016040523d82523d5f602084013e613246565b606091505b509150915081801561327357505f8151148061327257508080602001905181019061327191906156cc565b5b5b6132b2576040517f08c379a00000000000000000000000000000000000000000000000000000000081526004016132a990615767565b60405180910390fd5b505050505050565b5f601054426132c9919061527f565b90505f8114806132da57505f601254145b156132ec574260108190555050613350565b5f6064601354600e54848661330191906152b2565b61330b91906152b2565b61331591906152b2565b61331f9190615320565b90506012548161332f9190615320565b60115f82825461333f919061544a565b925050819055504260108190555050505b50565b7f000000000000000000000000000000000000000000000000000000000000000073ffffffffffffffffffffffffffffffffffffffff163073ffffffffffffffffffffffffffffffffffffffff16148061340057507f000000000000000000000000000000000000000000000000000000000000000073ffffffffffffffffffffffffffffffffffffffff166133e7614204565b73ffffffffffffffffffffffffffffffffffffffff1614155b15613437576040517fe07c8dba00000000000000000000000000000000000000000000000000000000815260040160405180910390fd5b565b613441613719565b50565b8173ffffffffffffffffffffffffffffffffffffffff166352d1902d6040518163ffffffff1660e01b8152600401602060405180830381865afa9250505080156134ac57506040513d601f19601f820116820180604052508101906134a991906157af565b60015b6134ed57816040517f4c9c8ce30000000000000000000000000000000000000000000000000000000081526004016134e491906149b8565b60405180910390fd5b7f360894a13ba1a3210667c828492db98dca3e2076cc3735a920a3ca505d382bbc5f1b811461355357806040517faa1d49a400000000000000000000000000000000000000000000000000000000815260040161354a9190614f5e565b60405180910390fd5b61355d8383614257565b505050565b7f000000000000000000000000000000000000000000000000000000000000000073ffffffffffffffffffffffffffffffffffffffff163073ffffffffffffffffffffffffffffffffffffffff16146135e7576040517fe07c8dba00000000000000000000000000000000000000000000000000000000815260040160405180910390fd5b565b5f5f8473ffffffffffffffffffffffffffffffffffffffff1663a9059cbb858560405160240161361a92919061547d565b6040516020818303038152906040529060e01b6020820180517bffffffffffffffffffffffffffffffffffffffffffffffffffffffff838183161783525050505060405161366891906156a2565b5f604051808303815f865af19150503d805f81146136a1576040519150601f19603f3d011682016040523d82523d5f602084013e6136a6565b606091505b50915091508180156136d357505f815114806136d25750808060200190518101906136d191906156cc565b5b5b613712576040517f08c379a000000000000000000000000000000000000000000000000000000000815260040161370990615824565b60405180910390fd5b5050505050565b61372161316c565b73ffffffffffffffffffffffffffffffffffffffff1661373f612199565b73ffffffffffffffffffffffffffffffffffffffff161461379e5761376261316c565b6040517f118cdaa700000000000000000000000000000000000000000000000000000000815260040161379591906149b8565b60405180910390fd5b565b5f6137a9613871565b90505f815f015f9054906101000a900473ffffffffffffffffffffffffffffffffffffffff16905082825f015f6101000a81548173ffffffffffffffffffffffffffffffffffffffff021916908373ffffffffffffffffffffffffffffffffffffffff1602179055508273ffffffffffffffffffffffffffffffffffffffff168173ffffffffffffffffffffffffffffffffffffffff167f8be0079c531659141344cd1fd0a4f28419497f9722a3daafe3b4186f6b6457e060405160405180910390a3505050565b5f7f9016d09d72d40fdae2fd8ceac6b6234c7706214fd39c1cd1e609a0528c199300905090565b5f60015f8373ffffffffffffffffffffffffffffffffffffffff1673ffffffffffffffffffffffffffffffffffffffff1681526020019081526020015f2090505f815f0154036138f1574281600201819055505061396e565b5f816002015442613902919061527f565b90505f810361391257505061396e565b5f600f54835f0154600e548461392891906152b2565b61393291906152b2565b61393c9190615320565b90505f8111156139615780836003015f828254613959919061544a565b925050819055505b4283600201819055505050505b50565b5f61397b33612d45565b90505f811115613a6e578060015f8473ffffffffffffffffffffffffffffffffffffffff1673ffffffffffffffffffffffffffffffffffffffff1681526020019081526020015f206003015f8282546139d4919061544a565b9250508190555060025f8373ffffffffffffffffffffffffffffffffffffffff1673ffffffffffffffffffffffffffffffffffffffff1681526020019081526020015f2060020154601154613a2991906152b2565b60025f8473ffffffffffffffffffffffffffffffffffffffff1673ffffffffffffffffffffffffffffffffffffffff1681526020019081526020015f20600501819055505b5050565b5f60025f8473ffffffffffffffffffffffffffffffffffffffff1673ffffffffffffffffffffffffffffffffffffffff1681526020019081526020015f205f015f9054906101000a900473ffffffffffffffffffffffffffffffffffffffff169050613adc61484f565b5f603290505b5f73ffffffffffffffffffffffffffffffffffffffff168373ffffffffffffffffffffffffffffffffffffffff1614614079575f60025f8573ffffffffffffffffffffffffffffffffffffffff1673ffffffffffffffffffffffffffffffffffffffff1681526020019081526020015f2090506001816001015f828254613b69919061544a565b9250508190555084816002015f828254613b83919061544a565b925050819055505f5f905060056006811115613ba257613ba1614ca7565b5b825f0160149054906101000a900460ff166006811115613bc557613bc4614ca7565b5b03613cf0575f60045f8773ffffffffffffffffffffffffffffffffffffffff1673ffffffffffffffffffffffffffffffffffffffff1681526020019081526020015f2090505f818054905090505f5f90505b81811015613cec5760056006811115613c3357613c32614ca7565b5b60025f858481548110613c4957613c48615842565b5b905f5260205f20015f9054906101000a900473ffffffffffffffffffffffffffffffffffffffff1673ffffffffffffffffffffffffffffffffffffffff1673ffffffffffffffffffffffffffffffffffffffff1681526020019081526020015f205f0160149054906101000a900460ff166006811115613ccc57613ccb614ca7565b5b03613ce1578360010193506002841015613cec575b806001019050613c17565b5050505b5f5f613d0d845f0160149054906101000a900460ff16878a6142c9565b915091508015613e755781846003015f828254613d2a919061544a565b9250508190555060035f8873ffffffffffffffffffffffffffffffffffffffff1673ffffffffffffffffffffffffffffffffffffffff1681526020019081526020015f2060405180606001604052808b73ffffffffffffffffffffffffffffffffffffffff16815260200184815260200142815250908060018154018082558091505060019003905f5260205f2090600302015f909190919091505f820151815f015f6101000a81548173ffffffffffffffffffffffffffffffffffffffff021916908373ffffffffffffffffffffffffffffffffffffffff16021790555060208201518160010155604082015181600201555050600186855f0160149054906101000a900460ff166006811115613e4557613e44614ca7565b5b60068110613e5657613e55615842565b5b602002019015159081151581525050600a85613e72919061527f565b94505b5f5f5f613fa987604051806101000160405290815f82015f9054906101000a900473ffffffffffffffffffffffffffffffffffffffff1673ffffffffffffffffffffffffffffffffffffffff1673ffffffffffffffffffffffffffffffffffffffff1681526020015f820160149054906101000a900460ff166006811115613f0057613eff614ca7565b5b6006811115613f1257613f11614ca7565b5b81526020016001820154815260200160028201548152602001600382015481526020016004820154815260200160058201548152602001600682015f9054906101000a900460ff16151515158152505060045f8d73ffffffffffffffffffffffffffffffffffffffff1673ffffffffffffffffffffffffffffffffffffffff1681526020019081526020015f20805490508861438a565b92509250925080156140485782875f0160146101000a81548160ff02191690836006811115613fdb57613fda614ca7565b5b02179055508160125f828254613ff1919061544a565b9250508190555060065f84600681111561400e5761400d614ca7565b5b60068111156140205761401f614ca7565b5b81526020019081526020015f2054876004015f828254614040919061544a565b925050819055505b865f015f9054906101000a900473ffffffffffffffffffffffffffffffffffffffff16995050505050505050613ae2565b5f811115614110576064818561408f91906152b2565b6140999190615320565b60025f60085f9054906101000a900473ffffffffffffffffffffffffffffffffffffffff1673ffffffffffffffffffffffffffffffffffffffff1673ffffffffffffffffffffffffffffffffffffffff1681526020019081526020015f206003015f828254614108919061544a565b925050819055505b5050505050565b5f7ff0c57e16840df040f15088dc2f81fe391c3923bec73e23a9662efc9c229c6a005f1b905090565b6141486145ef565b61417e576040517fd7e6bcf800000000000000000000000000000000000000000000000000000000815260040160405180910390fd5b565b614188614140565b5f73ffffffffffffffffffffffffffffffffffffffff168173ffffffffffffffffffffffffffffffffffffffff16036141f8575f6040517f1e4fbdf70000000000000000000000000000000000000000000000000000000081526004016141ef91906149b8565b60405180910390fd5b614201816137a0565b50565b5f6142307f360894a13ba1a3210667c828492db98dca3e2076cc3735a920a3ca505d382bbc5f1b61460d565b5f015f9054906101000a900473ffffffffffffffffffffffffffffffffffffffff16905090565b61426082614616565b8173ffffffffffffffffffffffffffffffffffffffff167fbc7cd75a20ee27fd9adebab32041f755214dbc6bffa90cc0225b39da2e5c2d3b60405160405180910390a25f815111156142bc576142b682826146df565b506142c5565b6142c46147d0565b5b5050565b5f5f5f91505f90506006808111156142e4576142e3614ca7565b5b8560068111156142f7576142f6614ca7565b5b1415801561432957505f600681111561431357614312614ca7565b5b85600681111561432657614325614ca7565b5b14155b15614382575f85600681111561434257614341614ca7565b5b905084816006811061435757614356615842565b5b6020020151614380576064600a8561436f91906152b2565b6143799190615320565b9250600191505b505b935093915050565b5f5f5f856020015192505f91505f90505f60068111156143ad576143ac614ca7565b5b866020015160068111156143c4576143c3614ca7565b5b1480156143d2575060038510155b80156143ec575069021e19e0c9bab2400000866060015110155b156143fe5760019250600190506145e6565b6001600681111561441257614411614ca7565b5b8660200151600681111561442957614428614ca7565b5b148015614437575060048510155b80156144515750690a968163f0a57b400000866060015110155b156144635760029250600190506145e5565b6002600681111561447757614476614ca7565b5b8660200151600681111561448e5761448d614ca7565b5b14801561449c575060058510155b80156144b65750692a5a058fc295ed000000866060015110155b156144c85760039250600190506145e4565b600360068111156144dc576144db614ca7565b5b866020015160068111156144f3576144f2614ca7565b5b148015614501575060078510155b801561451b575069a968163f0a57b4000000866060015110155b1561452d5760049250600190506145e3565b6004600681111561454157614540614ca7565b5b8660200151600681111561455857614557614ca7565b5b148015614566575060098510155b801561458157506a027b46536c66c8e3000000866060015110155b156145935760059250600190506145e2565b600560068111156145a7576145a6614ca7565b5b866020015160068111156145be576145bd614ca7565b5b1480156145cc575060028410155b156145e1576006925085606001519150600190505b5b5b5b5b5b93509350939050565b5f6145f8613159565b5f0160089054906101000a900460ff16905090565b5f819050919050565b5f8173ffffffffffffffffffffffffffffffffffffffff163b0361467157806040517f4c9c8ce300000000000000000000000000000000000000000000000000000000815260040161466891906149b8565b60405180910390fd5b8061469d7f360894a13ba1a3210667c828492db98dca3e2076cc3735a920a3ca505d382bbc5f1b61460d565b5f015f6101000a81548173ffffffffffffffffffffffffffffffffffffffff021916908373ffffffffffffffffffffffffffffffffffffffff16021790555050565b60605f6146ec848461480c565b905080801561472257505f6146ff614820565b118061472157505f8473ffffffffffffffffffffffffffffffffffffffff163b115b5b156147375761472f614827565b9150506147ca565b801561477a57836040517f9996b31500000000000000000000000000000000000000000000000000000000815260040161477191906149b8565b60405180910390fd5b5f614783614820565b111561479657614791614844565b6147c8565b6040517fd6bda27500000000000000000000000000000000000000000000000000000000815260040160405180910390fd5b505b92915050565b5f34111561480a576040517fb398979f00000000000000000000000000000000000000000000000000000000815260040160405180910390fd5b565b5f5f5f835160208501865af4905092915050565b5f3d905090565b606060405190503d81523d5f602083013e3d602001810160405290565b6040513d5f823e3d81fd5b6040518060c00160405280600690602082028036833780820191505090505090565b5f82825260208201905092915050565b7f4e4f5f4449524543545f53454e440000000000000000000000000000000000005f82015250565b5f6148b5600e83614871565b91506148c082614881565b602082019050919050565b5f6020820190508181035f8301526148e2816148a9565b9050919050565b5f604051905090565b5f5ffd5b5f5ffd5b60078110614906575f5ffd5b50565b5f81359050614917816148fa565b92915050565b5f60208284031215614932576149316148f2565b5b5f61493f84828501614909565b91505092915050565b5f819050919050565b61495a81614948565b82525050565b5f6020820190506149735f830184614951565b92915050565b5f73ffffffffffffffffffffffffffffffffffffffff82169050919050565b5f6149a282614979565b9050919050565b6149b281614998565b82525050565b5f6020820190506149cb5f8301846149a9565b92915050565b6149da81614998565b81146149e4575f5ffd5b50565b5f813590506149f5816149d1565b92915050565b614a0481614948565b8114614a0e575f5ffd5b50565b5f81359050614a1f816149fb565b92915050565b5f5f60408385031215614a3b57614a3a6148f2565b5b5f614a48858286016149e7565b9250506020614a5985828601614a11565b9150509250929050565b5f60208284031215614a7857614a776148f2565b5b5f614a85848285016149e7565b91505092915050565b5f5f5f5f5f60a08688031215614aa757614aa66148f2565b5b5f614ab4888289016149e7565b9550506020614ac5888289016149e7565b9450506040614ad6888289016149e7565b9350506060614ae7888289016149e7565b9250506080614af8888289016149e7565b9150509295509295909350565b5f81519050919050565b5f82825260208201905092915050565b5f819050602082019050919050565b614b3781614998565b82525050565b614b4681614948565b82525050565b606082015f820151614b605f850182614b2e565b506020820151614b736020850182614b3d565b506040820151614b866040850182614b3d565b50505050565b5f614b978383614b4c565b60608301905092915050565b5f602082019050919050565b5f614bb982614b05565b614bc38185614b0f565b9350614bce83614b1f565b805f5b83811015614bfe578151614be58882614b8c565b9750614bf083614ba3565b925050600181019050614bd1565b5085935050505092915050565b5f6020820190508181035f830152614c238184614baf565b905092915050565b5f60a082019050614c3e5f830188614951565b614c4b6020830187614951565b614c586040830186614951565b614c656060830185614951565b614c726080830184614951565b9695505050505050565b5f60208284031215614c9157614c906148f2565b5b5f614c9e84828501614a11565b91505092915050565b7f4e487b71000000000000000000000000000000000000000000000000000000005f52602160045260245ffd5b60078110614ce557614ce4614ca7565b5b50565b5f819050614cf582614cd4565b919050565b5f614d0482614ce8565b9050919050565b614d1481614cfa565b82525050565b5f8115159050919050565b614d2e81614d1a565b82525050565b5f61010082019050614d485f83018b6149a9565b614d55602083018a614d0b565b614d626040830189614951565b614d6f6060830188614951565b614d7c6080830187614951565b614d8960a0830186614951565b614d9660c0830185614951565b614da360e0830184614d25565b9998505050505050505050565b5f5ffd5b5f5ffd5b5f601f19601f8301169050919050565b7f4e487b71000000000000000000000000000000000000000000000000000000005f52604160045260245ffd5b614dfe82614db8565b810181811067ffffffffffffffff82111715614e1d57614e1c614dc8565b5b80604052505050565b5f614e2f6148e9565b9050614e3b8282614df5565b919050565b5f67ffffffffffffffff821115614e5a57614e59614dc8565b5b614e6382614db8565b9050602081019050919050565b828183375f83830152505050565b5f614e90614e8b84614e40565b614e26565b905082815260208101848484011115614eac57614eab614db4565b5b614eb7848285614e70565b509392505050565b5f82601f830112614ed357614ed2614db0565b5b8135614ee3848260208601614e7e565b91505092915050565b5f5f60408385031215614f0257614f016148f2565b5b5f614f0f858286016149e7565b925050602083013567ffffffffffffffff811115614f3057614f2f6148f6565b5b614f3c85828601614ebf565b9150509250929050565b5f819050919050565b614f5881614f46565b82525050565b5f602082019050614f715f830184614f4f565b92915050565b5f5f5f60608486031215614f8e57614f8d6148f2565b5b5f614f9b868287016149e7565b9350506020614fac86828701614a11565b9250506040614fbd868287016149e7565b9150509250925092565b5f602082019050614fda5f830184614d25565b92915050565b5f60a082019050614ff35f830188614951565b6150006020830187614951565b61500d6040830186614951565b61501a6060830185614951565b6150276080830184614d25565b9695505050505050565b5f81519050919050565b8281835e5f83830152505050565b5f61505382615031565b61505d8185614871565b935061506d81856020860161503b565b61507681614db8565b840191505092915050565b5f6020820190508181035f8301526150998184615049565b905092915050565b5f60c0820190506150b45f830189614d0b565b6150c160208301886149a9565b6150ce6040830187614951565b6150db6060830186614951565b6150e86080830185614951565b6150f560a0830184614951565b979650505050505050565b61510981614d1a565b8114615113575f5ffd5b50565b5f8135905061512481615100565b92915050565b5f6020828403121561513f5761513e6148f2565b5b5f61514c84828501615116565b91505092915050565b5f6060820190506151685f8301866149a9565b6151756020830185614951565b6151826040830184614951565b949350505050565b5f81519050919050565b5f82825260208201905092915050565b5f819050602082019050919050565b5f6151be8383614b2e565b60208301905092915050565b5f602082019050919050565b5f6151e08261518a565b6151ea8185615194565b93506151f5836151a4565b805f5b8381101561522557815161520c88826151b3565b9750615217836151ca565b9250506001810190506151f8565b5085935050505092915050565b5f6020820190508181035f83015261524a81846151d6565b905092915050565b7f4e487b71000000000000000000000000000000000000000000000000000000005f52601160045260245ffd5b5f61528982614948565b915061529483614948565b92508282039050818111156152ac576152ab615252565b5b92915050565b5f6152bc82614948565b91506152c783614948565b92508282026152d581614948565b915082820484148315176152ec576152eb615252565b5b5092915050565b7f4e487b71000000000000000000000000000000000000000000000000000000005f52601260045260245ffd5b5f61532a82614948565b915061533583614948565b925082615345576153446152f3565b5b828204905092915050565b5f8151905061535e816149d1565b92915050565b5f81519050615372816149fb565b92915050565b5f5f5f5f608085870312156153905761538f6148f2565b5b5f61539d87828801615350565b94505060206153ae87828801615364565b93505060406153bf87828801615364565b92505060606153d087828801615364565b91505092959194509250565b5f819050919050565b5f67ffffffffffffffff82169050919050565b5f819050919050565b5f61541b615416615411846153dc565b6153f8565b6153e5565b9050919050565b61542b81615401565b82525050565b5f6020820190506154445f830184615422565b92915050565b5f61545482614948565b915061545f83614948565b925082820190508082111561547757615476615252565b5b92915050565b5f6040820190506154905f8301856149a9565b61549d6020830184614951565b9392505050565b7f46696e616e63652070617573652e0000000000000000000000000000000000005f82015250565b5f6154d8600e83614871565b91506154e3826154a4565b602082019050919050565b5f6020820190508181035f830152615505816154cc565b9050919050565b7f4e6f74207065726d69742e0000000000000000000000000000000000000000005f82015250565b5f615540600b83614871565b915061554b8261550c565b602082019050919050565b5f6020820190508181035f83015261556d81615534565b9050919050565b7f5245434f4d4d454e444154494f4e5f49535f52455155495245445f52454645525f8201527f52414c2e00000000000000000000000000000000000000000000000000000000602082015250565b5f6155ce602483614871565b91506155d982615574565b604082019050919050565b5f6020820190508181035f8301526155fb816155c2565b9050919050565b5f6040820190506156155f8301856149a9565b61562260208301846149a9565b9392505050565b5f60608201905061563c5f8301866149a9565b61564960208301856149a9565b6156566040830184614951565b949350505050565b5f81519050919050565b5f81905092915050565b5f61567c8261565e565b6156868185615668565b935061569681856020860161503b565b80840191505092915050565b5f6156ad8284615672565b915081905092915050565b5f815190506156c681615100565b92915050565b5f602082840312156156e1576156e06148f2565b5b5f6156ee848285016156b8565b91505092915050565b7f5472616e7366657248656c7065723a205452414e534645525f46524f4d5f46415f8201527f494c454400000000000000000000000000000000000000000000000000000000602082015250565b5f615751602483614871565b915061575c826156f7565b604082019050919050565b5f6020820190508181035f83015261577e81615745565b9050919050565b61578e81614f46565b8114615798575f5ffd5b50565b5f815190506157a981615785565b92915050565b5f602082840312156157c4576157c36148f2565b5b5f6157d18482850161579b565b91505092915050565b7f5472616e7366657248656c7065723a205452414e534645525f4641494c4544005f82015250565b5f61580e601f83614871565b9150615819826157da565b602082019050919050565b5f6020820190508181035f83015261583b81615802565b9050919050565b7f4e487b71000000000000000000000000000000000000000000000000000000005f52603260045260245ffdfea264697066735822122012a547a012564cd2ba8748bb22880e3fb1061e750cec5ffcfee22ce1eceb9b4964736f6c634300081e0033","linkReferences":{}},"methodIdentifiers":{"DEAD()":"03fd2a45","UPGRADE_INTERFACE_VERSION()":"ad3cb1cc","USDT()":"c54e44eb","admin()":"f851a440","awardRecords(address,uint256)":"c023b3a5","claim()":"4e71d92d","decimals()":"313ce567","directReferrals(address,uint256)":"05ad3935","djsv1()":"ac6439b5","emergencyWithdraw(address,uint256,address)":"551512de","getDirectReferrals(address)":"d2c8e0e5","getInvalidStaking(address)":"19b12a53","getReferralAwardRecords(address)":"18785eb6","getUserAward(address)":"3e4ff6f2","getUserInfoBasic(address)":"b5006823","getUserInfoReferral(address)":"9238b0f9","getUserShareLevelAward(address)":"c7c93c94","getUserStakingAward(address)":"0acf716b","initialCode()":"10baf089","initialize(address,address,address,address,address)":"1459457a","isAddDirectReferrals(address)":"a3f2a64a","lastShareAwardTime()":"922be46d","liquidityManager()":"33827438","migrationReferral(address)":"0ff9ef12","nodeDividends()":"c7fb372f","owner()":"8da5cb5b","pause()":"8456cb59","perSecondStakedAeward()":"905635d4","perSharePerformanceAward()":"db81c515","proxiableUUID()":"52d1902d","referral(address)":"7247959a","referralInfo(address)":"39540b0a","renounceOwnership()":"715018a6","setPause(bool)":"bedb86fb","shareRate()":"fb802a65","stake(uint256)":"a694fc3a","subCoinQuotas(uint8)":"00c4bb2b","swapSubToken(uint256)":"1b602f22","totalSharePerformance()":"d567aadb","totalStakedUsdt()":"b2859e2b","transferOwnership(address)":"f2fde38b","upgradeToAndCall(address,bytes)":"4f1ef286","userInfo(address)":"1959a002","whetherNeedMigrate(address)":"85215f7c"},"id":47}