{"abi":[{"type":"receive","stateMutability":"payable"},{"type":"function","name":"MULTIPLE","inputs":[],"outputs":[{"name":"","type":"uint256","internalType":"uint256"}],"stateMutability":"view"},{"type":"function","name":"UPGRADE_INTERFACE_VERSION","inputs":[],"outputs":[{"name":"","type":"string","internalType":"string"}],"stateMutability":"view"},{"type":"function","name":"admin","inputs":[],"outputs":[{"name":"","type":"address","internalType":"address"}],"stateMutability":"view"},{"type":"function","name":"claim","inputs":[],"outputs":[],"stateMutability":"nonpayable"},{"type":"function","name":"djsv1","inputs":[],"outputs":[{"name":"","type":"address","internalType":"address"}],"stateMutability":"view"},{"type":"function","name":"emergencyWithdraw","inputs":[{"name":"_token","type":"address","internalType":"address"},{"name":"_amount","type":"uint256","internalType":"uint256"},{"name":"_to","type":"address","internalType":"address"}],"outputs":[],"stateMutability":"nonpayable"},{"type":"function","name":"getDirectReferralAddr","inputs":[{"name":"user","type":"address","internalType":"address"}],"outputs":[{"name":"","type":"address[]","internalType":"address[]"}],"stateMutability":"view"},{"type":"function","name":"getDirectReferralInfo","inputs":[{"name":"user","type":"address","internalType":"address"}],"outputs":[{"name":"","type":"tuple[]","internalType":"struct Process.Info[]","components":[{"name":"user","type":"address","internalType":"address"},{"name":"amount","type":"uint256","internalType":"uint256"}]}],"stateMutability":"view"},{"type":"function","name":"getReferralAwardRecords","inputs":[{"name":"user","type":"address","internalType":"address"}],"outputs":[{"name":"","type":"tuple[]","internalType":"struct Process.Record[]","components":[{"name":"category","type":"uint8","internalType":"enum Process.Category"},{"name":"from","type":"address","internalType":"address"},{"name":"amount","type":"uint256","internalType":"uint256"},{"name":"time","type":"uint256","internalType":"uint256"}]}],"stateMutability":"view"},{"type":"function","name":"getShareAddrs","inputs":[],"outputs":[{"name":"","type":"address[]","internalType":"address[]"}],"stateMutability":"view"},{"type":"function","name":"getTotalSharePerformance","inputs":[],"outputs":[{"name":"","type":"uint256","internalType":"uint256"}],"stateMutability":"view"},{"type":"function","name":"getUserAward","inputs":[{"name":"user","type":"address","internalType":"address"}],"outputs":[{"name":"","type":"uint256","internalType":"uint256"}],"stateMutability":"view"},{"type":"function","name":"getUserStakingAward","inputs":[{"name":"user","type":"address","internalType":"address"}],"outputs":[{"name":"","type":"uint256","internalType":"uint256"}],"stateMutability":"view"},{"type":"function","name":"initialCode","inputs":[],"outputs":[{"name":"","type":"address","internalType":"address"}],"stateMutability":"view"},{"type":"function","name":"initialize","inputs":[{"name":"_usdt","type":"address","internalType":"address"},{"name":"_admin","type":"address","internalType":"address"},{"name":"_initialCode","type":"address","internalType":"address"},{"name":"_djsv1","type":"address","internalType":"address"},{"name":"_nodeDividends","type":"address","internalType":"address"},{"name":"_liquidityManager","type":"address","internalType":"address"},{"name":"_recipientForBurn","type":"address","internalType":"address"}],"outputs":[],"stateMutability":"nonpayable"},{"type":"function","name":"liquidityManager","inputs":[],"outputs":[{"name":"","type":"address","internalType":"address"}],"stateMutability":"view"},{"type":"function","name":"migrationReferral","inputs":[{"name":"user","type":"address","internalType":"address"}],"outputs":[],"stateMutability":"nonpayable"},{"type":"function","name":"nodeDividends","inputs":[],"outputs":[{"name":"","type":"address","internalType":"address"}],"stateMutability":"view"},{"type":"function","name":"owner","inputs":[],"outputs":[{"name":"","type":"address","internalType":"address"}],"stateMutability":"view"},{"type":"function","name":"pause","inputs":[],"outputs":[{"name":"","type":"bool","internalType":"bool"}],"stateMutability":"view"},{"type":"function","name":"perSecondStakedAeward","inputs":[],"outputs":[{"name":"","type":"uint256","internalType":"uint256"}],"stateMutability":"view"},{"type":"function","name":"proxiableUUID","inputs":[],"outputs":[{"name":"","type":"bytes32","internalType":"bytes32"}],"stateMutability":"view"},{"type":"function","name":"recipientForBurn","inputs":[],"outputs":[{"name":"","type":"address","internalType":"address"}],"stateMutability":"view"},{"type":"function","name":"referral","inputs":[{"name":"recommender","type":"address","internalType":"address"}],"outputs":[],"stateMutability":"nonpayable"},{"type":"function","name":"referralInfo","inputs":[{"name":"","type":"address","internalType":"address"}],"outputs":[{"name":"recommender","type":"address","internalType":"address"},{"name":"level","type":"uint8","internalType":"enum Process.Level"},{"name":"referralNum","type":"uint256","internalType":"uint256"},{"name":"performance","type":"uint256","internalType":"uint256"},{"name":"referralAward","type":"uint256","internalType":"uint256"},{"name":"shareAward","type":"uint256","internalType":"uint256"},{"name":"subCoinQuota","type":"uint256","internalType":"uint256"},{"name":"isMigration","type":"bool","internalType":"bool"}],"stateMutability":"view"},{"type":"function","name":"renounceOwnership","inputs":[],"outputs":[],"stateMutability":"nonpayable"},{"type":"function","name":"setLiquidityManager","inputs":[{"name":"_liquidityManager","type":"address","internalType":"address"}],"outputs":[],"stateMutability":"nonpayable"},{"type":"function","name":"setNodeDividends","inputs":[{"name":"_nodeDividends","type":"address","internalType":"address"}],"outputs":[],"stateMutability":"nonpayable"},{"type":"function","name":"setPause","inputs":[{"name":"isPause","type":"bool","internalType":"bool"}],"outputs":[],"stateMutability":"nonpayable"},{"type":"function","name":"stake","inputs":[{"name":"amountUSDT","type":"uint256","internalType":"uint256"}],"outputs":[],"stateMutability":"nonpayable"},{"type":"function","name":"subCoinQuotas","inputs":[{"name":"","type":"uint8","internalType":"enum Process.Level"}],"outputs":[{"name":"","type":"uint256","internalType":"uint256"}],"stateMutability":"view"},{"type":"function","name":"swapSubToken","inputs":[{"name":"amountUSDT","type":"uint256","internalType":"uint256"}],"outputs":[],"stateMutability":"nonpayable"},{"type":"function","name":"totalStakedUsdt","inputs":[],"outputs":[{"name":"","type":"uint256","internalType":"uint256"}],"stateMutability":"view"},{"type":"function","name":"transferOwnership","inputs":[{"name":"newOwner","type":"address","internalType":"address"}],"outputs":[],"stateMutability":"nonpayable"},{"type":"function","name":"upgradeToAndCall","inputs":[{"name":"newImplementation","type":"address","internalType":"address"},{"name":"data","type":"bytes","internalType":"bytes"}],"outputs":[],"stateMutability":"payable"},{"type":"function","name":"userInfo","inputs":[{"name":"","type":"address","internalType":"address"}],"outputs":[{"name":"stakingUsdt","type":"uint256","internalType":"uint256"},{"name":"stakingTime","type":"uint256","internalType":"uint256"},{"name":"pendingProfit","type":"uint256","internalType":"uint256"},{"name":"extracted","type":"uint256","internalType":"uint256"},{"name":"addSubCoinQuota","type":"bool","internalType":"bool"}],"stateMutability":"view"},{"type":"function","name":"validReferralCode","inputs":[{"name":"user","type":"address","internalType":"address"}],"outputs":[{"name":"","type":"bool","internalType":"bool"}],"stateMutability":"view"},{"type":"function","name":"whetherNeedMigrate","inputs":[{"name":"user","type":"address","internalType":"address"}],"outputs":[{"name":"","type":"bool","internalType":"bool"}],"stateMutability":"view"},{"type":"event","name":"Claimed","inputs":[{"name":"user","type":"address","indexed":false,"internalType":"address"},{"name":"amount","type":"uint256","indexed":false,"internalType":"uint256"}],"anonymous":false},{"type":"event","name":"Initialized","inputs":[{"name":"version","type":"uint64","indexed":false,"internalType":"uint64"}],"anonymous":false},{"type":"event","name":"OwnershipTransferred","inputs":[{"name":"previousOwner","type":"address","indexed":true,"internalType":"address"},{"name":"newOwner","type":"address","indexed":true,"internalType":"address"}],"anonymous":false},{"type":"event","name":"Referrals","inputs":[{"name":"recommender","type":"address","indexed":false,"internalType":"address"},{"name":"referred","type":"address","indexed":false,"internalType":"address"}],"anonymous":false},{"type":"event","name":"Staked","inputs":[{"name":"user","type":"address","indexed":false,"internalType":"address"},{"name":"amount","type":"uint256","indexed":false,"internalType":"uint256"}],"anonymous":false},{"type":"event","name":"Upgraded","inputs":[{"name":"implementation","type":"address","indexed":true,"internalType":"address"}],"anonymous":false},{"type":"error","name":"AddressEmptyCode","inputs":[{"name":"target","type":"address","internalType":"address"}]},{"type":"error","name":"AlreadyMigrated","inputs":[]},{"type":"error","name":"AmountTooLow","inputs":[]},{"type":"error","name":"ERC1967InvalidImplementation","inputs":[{"name":"implementation","type":"address","internalType":"address"}]},{"type":"error","name":"ERC1967NonPayable","inputs":[]},{"type":"error","name":"FailedCall","inputs":[]},{"type":"error","name":"InsufficientQuota","inputs":[]},{"type":"error","name":"InvalidInitialization","inputs":[]},{"type":"error","name":"InvalidRecommender","inputs":[]},{"type":"error","name":"InviterExists","inputs":[]},{"type":"error","name":"NeedMigrate","inputs":[]},{"type":"error","name":"NoMigrationRequired","inputs":[]},{"type":"error","name":"NoReward","inputs":[]},{"type":"error","name":"NoStake","inputs":[]},{"type":"error","name":"NotInitializing","inputs":[]},{"type":"error","name":"NotRequiredReferral","inputs":[]},{"type":"error","name":"OwnableInvalidOwner","inputs":[{"name":"owner","type":"address","internalType":"address"}]},{"type":"error","name":"OwnableUnauthorizedAccount","inputs":[{"name":"account","type":"address","internalType":"address"}]},{"type":"error","name":"ReentrancyGuardReentrantCall","inputs":[]},{"type":"error","name":"UUPSUnauthorizedCallContext","inputs":[]},{"type":"error","name":"UUPSUnsupportedProxiableUUID","inputs":[{"name":"slot","type":"bytes32","internalType":"bytes32"}]},{"type":"error","name":"ZeroAddress","inputs":[]}],"bytecode":{"object":"0x60a06040523073ffffffffffffffffffffffffffffffffffffffff1660809073ffffffffffffffffffffffffffffffffffffffff168152503480156041575f5ffd5b5060015f81905550608051615d4c61006f5f395f81816131ec0152818161324101526133fb0152615d4c5ff3fe608060405260043610610227575f3560e01c80637247959a11610122578063ac6439b5116100aa578063dcdcd08c1161006e578063dcdcd08c14610828578063e27aaafa14610864578063f26449bf1461088e578063f2fde38b146108ca578063f851a440146108f257610267565b8063ac6439b514610758578063ad3cb1cc14610782578063b2859e2b146107ac578063bedb86fb146107d6578063c7fb372f146107fe57610267565b806387631a2a116100f157806387631a2a146106785780638da5cb5b146106b45780638f011a28146106de578063905635d414610706578063a694fc3a1461073057610267565b80637247959a146105c05780637516a79e146105e85780638456cb591461061257806385215f7c1461063c57610267565b806335876476116101b05780634f1ef286116101745780634f1ef2861461051257806352d1902d1461052e578063551512de14610558578063665e44e914610580578063715018a6146105aa57610267565b8063358764761461042d57806339540b0a146104555780633c1624d4146104985780633e4ff6f2146104c05780634e71d92d146104fc57610267565b806315da2f71116101f757806315da2f711461033557806318785eb61461035f5780631959a0021461039b5780631b602f22146103db578063338274381461040357610267565b8062c4bb2b1461026b5780630acf716b146102a75780630ff9ef12146102e357806310baf0891461030b57610267565b36610267576040517f08c379a000000000000000000000000000000000000000000000000000000000815260040161025e90614d21565b60405180910390fd5b5f5ffd5b348015610276575f5ffd5b50610291600480360381019061028c9190614d73565b61091c565b60405161029e9190614db6565b60405180910390f35b3480156102b2575f5ffd5b506102cd60048036038101906102c89190614e29565b610931565b6040516102da9190614db6565b60405180910390f35b3480156102ee575f5ffd5b5061030960048036038101906103049190614e29565b6109fe565b005b348015610316575f5ffd5b5061031f610bfc565b60405161032c9190614e63565b60405180910390f35b348015610340575f5ffd5b50610349610c21565b6040516103569190614f33565b60405180910390f35b34801561036a575f5ffd5b5061038560048036038101906103809190614e29565b610cac565b60405161039291906150d0565b60405180910390f35b3480156103a6575f5ffd5b506103c160048036038101906103bc9190614e29565b610de7565b6040516103d295949392919061510a565b60405180910390f35b3480156103e6575f5ffd5b5061040160048036038101906103fc9190615185565b610e25565b005b34801561040e575f5ffd5b50610417610fcf565b6040516104249190614e63565b60405180910390f35b348015610438575f5ffd5b50610453600480360381019061044e91906151b0565b610ff4565b005b348015610460575f5ffd5b5061047b60048036038101906104769190614e29565b6114e0565b60405161048f989796959493929190615293565b60405180910390f35b3480156104a3575f5ffd5b506104be60048036038101906104b99190614e29565b61155b565b005b3480156104cb575f5ffd5b506104e660048036038101906104e19190614e29565b6115a6565b6040516104f39190614db6565b60405180910390f35b348015610507575f5ffd5b50610510611724565b005b61052c6004803603810190610527919061544b565b61194d565b005b348015610539575f5ffd5b5061054261196c565b60405161054f91906154bd565b60405180910390f35b348015610563575f5ffd5b5061057e600480360381019061057991906154d6565b61199d565b005b34801561058b575f5ffd5b50610594611a3c565b6040516105a19190614db6565b60405180910390f35b3480156105b5575f5ffd5b506105be611b04565b005b3480156105cb575f5ffd5b506105e660048036038101906105e19190614e29565b611b17565b005b3480156105f3575f5ffd5b506105fc611f19565b6040516106099190614db6565b60405180910390f35b34801561061d575f5ffd5b50610626611f1e565b6040516106339190615526565b60405180910390f35b348015610647575f5ffd5b50610662600480360381019061065d9190614e29565b611f30565b60405161066f9190615526565b60405180910390f35b348015610683575f5ffd5b5061069e60048036038101906106999190614e29565b61205e565b6040516106ab9190615526565b60405180910390f35b3480156106bf575f5ffd5b506106c86120a8565b6040516106d59190614e63565b60405180910390f35b3480156106e9575f5ffd5b5061070460048036038101906106ff9190614e29565b6120dd565b005b348015610711575f5ffd5b5061071a612128565b6040516107279190614db6565b60405180910390f35b34801561073b575f5ffd5b5061075660048036038101906107519190615185565b61212e565b005b348015610763575f5ffd5b5061076c61277b565b6040516107799190614e63565b60405180910390f35b34801561078d575f5ffd5b506107966127a0565b6040516107a3919061558f565b60405180910390f35b3480156107b7575f5ffd5b506107c06127d9565b6040516107cd9190614db6565b60405180910390f35b3480156107e1575f5ffd5b506107fc60048036038101906107f791906155d9565b6127df565b005b348015610809575f5ffd5b5061081261288a565b60405161081f9190614e63565b60405180910390f35b348015610833575f5ffd5b5061084e60048036038101906108499190614e29565b6128af565b60405161085b91906156d9565b60405180910390f35b34801561086f575f5ffd5b50610878612a88565b6040516108859190614e63565b60405180910390f35b348015610899575f5ffd5b506108b460048036038101906108af9190614e29565b612aad565b6040516108c19190614f33565b60405180910390f35b3480156108d5575f5ffd5b506108f060048036038101906108eb9190614e29565b612b75565b005b3480156108fd575f5ffd5b50610906612bf9565b6040516109139190614e63565b60405180910390f35b6006602052805f5260405f205f915090505481565b5f5f60015f8473ffffffffffffffffffffffffffffffffffffffff1673ffffffffffffffffffffffffffffffffffffffff1681526020019081526020015f206040518060a00160405290815f8201548152602001600182015481526020016002820154815260200160038201548152602001600482015f9054906101000a900460ff1615151515815250509050601254815f01516011548360200151426109d89190615726565b6109e29190615759565b6109ec9190615759565b6109f691906157c7565b915050919050565b610a06612c1e565b5f60025f8373ffffffffffffffffffffffffffffffffffffffff1673ffffffffffffffffffffffffffffffffffffffff1681526020019081526020015f209050806006015f9054906101000a900460ff1615610a8e576040517fca1c3cbc00000000000000000000000000000000000000000000000000000000815260040160405180910390fd5b5f600c5f9054906101000a900473ffffffffffffffffffffffffffffffffffffffff1673ffffffffffffffffffffffffffffffffffffffff16631959a002846040518263ffffffff1660e01b8152600401610ae99190614e63565b608060405180830381865afa158015610b04573d5f5f3e3d5ffd5b505050506040513d601f19601f82011682018060405250810190610b28919061581f565b50505090505f73ffffffffffffffffffffffffffffffffffffffff168173ffffffffffffffffffffffffffffffffffffffff1603610b92576040517f9c9e07a800000000000000000000000000000000000000000000000000000000815260040160405180910390fd5b80825f015f6101000a81548173ffffffffffffffffffffffffffffffffffffffff021916908373ffffffffffffffffffffffffffffffffffffffff1602179055506001826006015f6101000a81548160ff0219169083151502179055505050610bf9612c62565b50565b600b5f9054906101000a900473ffffffffffffffffffffffffffffffffffffffff1681565b60606007805480602002602001604051908101604052809291908181526020018280548015610ca257602002820191905f5260205f20905b815f9054906101000a900473ffffffffffffffffffffffffffffffffffffffff1673ffffffffffffffffffffffffffffffffffffffff1681526020019060010190808311610c59575b5050505050905090565b606060035f8373ffffffffffffffffffffffffffffffffffffffff1673ffffffffffffffffffffffffffffffffffffffff1681526020019081526020015f20805480602002602001604051908101604052809291908181526020015f905b82821015610ddc578382905f5260205f2090600302016040518060800160405290815f82015f9054906101000a900460ff166002811115610d4e57610d4d614f7c565b5b6002811115610d6057610d5f614f7c565b5b81526020015f820160019054906101000a900473ffffffffffffffffffffffffffffffffffffffff1673ffffffffffffffffffffffffffffffffffffffff1673ffffffffffffffffffffffffffffffffffffffff1681526020016001820154815260200160028201548152505081526020019060010190610d0a565b505050509050919050565b6001602052805f5260405f205f91509050805f015490806001015490806002015490806003015490806004015f9054906101000a900460ff16905085565b60025f3373ffffffffffffffffffffffffffffffffffffffff1673ffffffffffffffffffffffffffffffffffffffff1681526020019081526020015f2060050154811115610e9f576040517f6aea990400000000000000000000000000000000000000000000000000000000815260040160405180910390fd5b610eed60095f9054906101000a900473ffffffffffffffffffffffffffffffffffffffff1633600e5f9054906101000a900473ffffffffffffffffffffffffffffffffffffffff1684612c6b565b600e5f9054906101000a900473ffffffffffffffffffffffffffffffffffffffff1673ffffffffffffffffffffffffffffffffffffffff166379e32cd933836040518363ffffffff1660e01b8152600401610f49929190615883565b5f604051808303815f87803b158015610f60575f5ffd5b505af1158015610f72573d5f5f3e3d5ffd5b505050508060025f3373ffffffffffffffffffffffffffffffffffffffff1673ffffffffffffffffffffffffffffffffffffffff1681526020019081526020015f206005015f828254610fc59190615726565b9250508190555050565b600e5f9054906101000a900473ffffffffffffffffffffffffffffffffffffffff1681565b5f610ffd612d9e565b90505f815f0160089054906101000a900460ff161590505f825f015f9054906101000a900467ffffffffffffffff1690505f5f8267ffffffffffffffff161480156110455750825b90505f60018367ffffffffffffffff1614801561107857505f3073ffffffffffffffffffffffffffffffffffffffff163b145b905081158015611086575080155b156110bd576040517ff92ee8a900000000000000000000000000000000000000000000000000000000815260040160405180910390fd5b6001855f015f6101000a81548167ffffffffffffffff021916908367ffffffffffffffff160217905550831561110a576001855f0160086101000a81548160ff0219169083151502179055505b61111a611115612db1565b612db8565b8b60095f6101000a81548173ffffffffffffffffffffffffffffffffffffffff021916908373ffffffffffffffffffffffffffffffffffffffff1602179055508a600a5f6101000a81548173ffffffffffffffffffffffffffffffffffffffff021916908373ffffffffffffffffffffffffffffffffffffffff16021790555089600b5f6101000a81548173ffffffffffffffffffffffffffffffffffffffff021916908373ffffffffffffffffffffffffffffffffffffffff16021790555088600c5f6101000a81548173ffffffffffffffffffffffffffffffffffffffff021916908373ffffffffffffffffffffffffffffffffffffffff16021790555087600d5f6101000a81548173ffffffffffffffffffffffffffffffffffffffff021916908373ffffffffffffffffffffffffffffffffffffffff16021790555086600e5f6101000a81548173ffffffffffffffffffffffffffffffffffffffff021916908373ffffffffffffffffffffffffffffffffffffffff16021790555085600f5f6101000a81548173ffffffffffffffffffffffffffffffffffffffff021916908373ffffffffffffffffffffffffffffffffffffffff1602179055506402540be40060128190555062015180683635c9adc5dea0000060125467a688906bd8b0000061130a9190615759565b61131491906157c7565b61131e91906157c7565b60118190555068056bc75e2d6310000060065f6001600681111561134557611344614f7c565b5b600681111561135757611356614f7c565b5b81526020019081526020015f2081905550681043561a882930000060065f6002600681111561138957611388614f7c565b5b600681111561139b5761139a614f7c565b5b81526020019081526020015f2081905550681b1ae4d6e2ef50000060065f600360068111156113cd576113cc614f7c565b5b60068111156113df576113de614f7c565b5b81526020019081526020015f2081905550683635c9adc5dea0000060065f6004600681111561141157611410614f7c565b5b600681111561142357611422614f7c565b5b81526020019081526020015f208190555068a2a15d09519be0000060065f6005600681111561145557611454614f7c565b5b600681111561146757611466614f7c565b5b81526020019081526020015f208190555083156114d2575f855f0160086101000a81548160ff0219169083151502179055507fc7f505b2f371ae2175ee4913f4499e1f2633a7b5936321eed1cdaeb6115181d260016040516114c991906158ff565b60405180910390a15b505050505050505050505050565b6002602052805f5260405f205f91509050805f015f9054906101000a900473ffffffffffffffffffffffffffffffffffffffff1690805f0160149054906101000a900460ff1690806001015490806002015490806003015490806004015490806005015490806006015f9054906101000a900460ff16905088565b611563612dcc565b80600e5f6101000a81548173ffffffffffffffffffffffffffffffffffffffff021916908373ffffffffffffffffffffffffffffffffffffffff16021790555050565b5f5f60015f8473ffffffffffffffffffffffffffffffffffffffff1673ffffffffffffffffffffffffffffffffffffffff1681526020019081526020015f206040518060a00160405290815f8201548152602001600182015481526020016002820154815260200160038201548152602001600482015f9054906101000a900460ff16151515158152505090505f815f015103611646575f91505061171f565b5f61165084610931565b90505f8183604001516116639190615918565b9050600b5f9054906101000a900473ffffffffffffffffffffffffffffffffffffffff1673ffffffffffffffffffffffffffffffffffffffff168573ffffffffffffffffffffffffffffffffffffffff16036116c45780935050505061171f565b5f6003845f01516116d59190615759565b9050808460600151106116ee575f94505050505061171f565b5f8460600151826116ff9190615726565b90508083111561171657809550505050505061171f565b82955050505050505b919050565b61172c612c1e565b60135f9054906101000a900460ff161561177b576040517f08c379a000000000000000000000000000000000000000000000000000000000815260040161177290615995565b60405180910390fd5b5f60015f3373ffffffffffffffffffffffffffffffffffffffff1673ffffffffffffffffffffffffffffffffffffffff1681526020019081526020015f2090505f815f0154036117f7576040517fcacf989a00000000000000000000000000000000000000000000000000000000815260040160405180910390fd5b5f61180133610931565b905061180c33612e53565b6118163382612f2c565b5f611820336115a6565b90505f810361185b576040517f6e99268600000000000000000000000000000000000000000000000000000000815260040160405180910390fd5b5f836002018190555080836003015f8282546118779190615918565b92505081905550600e5f9054906101000a900473ffffffffffffffffffffffffffffffffffffffff1673ffffffffffffffffffffffffffffffffffffffff16632d019c4233836040518363ffffffff1660e01b81526004016118da929190615883565b5f604051808303815f87803b1580156118f1575f5ffd5b505af1158015611903573d5f5f3e3d5ffd5b505050507fd8138f8a3f377c5259ca548e70e4c2de94f129f5a11036a15b69513cba2b426a3382604051611938929190615883565b60405180910390a150505061194b612c62565b565b6119556131ea565b61195e826132d0565b61196882826132db565b5050565b5f6119756133f9565b7f360894a13ba1a3210667c828492db98dca3e2076cc3735a920a3ca505d382bbc5f1b905090565b3373ffffffffffffffffffffffffffffffffffffffff16600a5f9054906101000a900473ffffffffffffffffffffffffffffffffffffffff1673ffffffffffffffffffffffffffffffffffffffff1614611a2c576040517f08c379a0000000000000000000000000000000000000000000000000000000008152600401611a23906159fd565b60405180910390fd5b611a37838284613480565b505050565b5f5f5f60078054905003611a53575f915050611b01565b5f5f90505b600780549050811015611afb5760025f60078381548110611a7c57611a7b615a1b565b5b905f5260205f20015f9054906101000a900473ffffffffffffffffffffffffffffffffffffffff1673ffffffffffffffffffffffffffffffffffffffff1673ffffffffffffffffffffffffffffffffffffffff1681526020019081526020015f206002015482611aec9190615918565b91508080600101915050611a58565b50809150505b90565b611b0c612dcc565b611b155f6135b0565b565b611b1f612c1e565b611b2833611f30565b15611b5f576040517f1d9410b700000000000000000000000000000000000000000000000000000000815260040160405180910390fd5b5f73ffffffffffffffffffffffffffffffffffffffff168173ffffffffffffffffffffffffffffffffffffffff1603611bc4576040517fd92e233d00000000000000000000000000000000000000000000000000000000815260040160405180910390fd5b3373ffffffffffffffffffffffffffffffffffffffff168173ffffffffffffffffffffffffffffffffffffffff1603611c29576040517f4f2f060100000000000000000000000000000000000000000000000000000000815260040160405180910390fd5b600b5f9054906101000a900473ffffffffffffffffffffffffffffffffffffffff1673ffffffffffffffffffffffffffffffffffffffff168173ffffffffffffffffffffffffffffffffffffffff1614611d95575f73ffffffffffffffffffffffffffffffffffffffff1660025f8373ffffffffffffffffffffffffffffffffffffffff1673ffffffffffffffffffffffffffffffffffffffff1681526020019081526020015f205f015f9054906101000a900473ffffffffffffffffffffffffffffffffffffffff1673ffffffffffffffffffffffffffffffffffffffff1614158015611d5557505f60015f8373ffffffffffffffffffffffffffffffffffffffff1673ffffffffffffffffffffffffffffffffffffffff1681526020019081526020015f205f0154115b611d94576040517f08c379a0000000000000000000000000000000000000000000000000000000008152600401611d8b90615ab8565b60405180910390fd5b5b5f73ffffffffffffffffffffffffffffffffffffffff1660025f3373ffffffffffffffffffffffffffffffffffffffff1673ffffffffffffffffffffffffffffffffffffffff1681526020019081526020015f205f015f9054906101000a900473ffffffffffffffffffffffffffffffffffffffff1673ffffffffffffffffffffffffffffffffffffffff1614611e58576040517f5b3d5a1b00000000000000000000000000000000000000000000000000000000815260040160405180910390fd5b8060025f3373ffffffffffffffffffffffffffffffffffffffff1673ffffffffffffffffffffffffffffffffffffffff1681526020019081526020015f205f015f6101000a81548173ffffffffffffffffffffffffffffffffffffffff021916908373ffffffffffffffffffffffffffffffffffffffff1602179055507f455db5b564134af440ac23bd273ce313070080fc2c3d5d36c03f62de3c6284988133604051611f06929190615ad6565b60405180910390a1611f16612c62565b50565b600381565b60135f9054906101000a900460ff1681565b5f5f600c5f9054906101000a900473ffffffffffffffffffffffffffffffffffffffff1673ffffffffffffffffffffffffffffffffffffffff16631959a002846040518263ffffffff1660e01b8152600401611f8c9190614e63565b608060405180830381865afa158015611fa7573d5f5f3e3d5ffd5b505050506040513d601f19601f82011682018060405250810190611fcb919061581f565b50505090505f73ffffffffffffffffffffffffffffffffffffffff168173ffffffffffffffffffffffffffffffffffffffff1614158015612056575060025f8473ffffffffffffffffffffffffffffffffffffffff1673ffffffffffffffffffffffffffffffffffffffff1681526020019081526020015f206006015f9054906101000a900460ff16155b915050919050565b5f5f60015f8473ffffffffffffffffffffffffffffffffffffffff1673ffffffffffffffffffffffffffffffffffffffff1681526020019081526020015f205f0154119050919050565b5f5f6120b2613681565b9050805f015f9054906101000a900473ffffffffffffffffffffffffffffffffffffffff1691505090565b6120e5612dcc565b80600d5f6101000a81548173ffffffffffffffffffffffffffffffffffffffff021916908373ffffffffffffffffffffffffffffffffffffffff16021790555050565b60115481565b612136612c1e565b5f60015f3373ffffffffffffffffffffffffffffffffffffffff1673ffffffffffffffffffffffffffffffffffffffff1681526020019081526020015f2090505f60025f3373ffffffffffffffffffffffffffffffffffffffff1673ffffffffffffffffffffffffffffffffffffffff1681526020019081526020015f2090505f73ffffffffffffffffffffffffffffffffffffffff16815f015f9054906101000a900473ffffffffffffffffffffffffffffffffffffffff1673ffffffffffffffffffffffffffffffffffffffff160361223d576040517faf4d1ef200000000000000000000000000000000000000000000000000000000815260040160405180910390fd5b68056bc75e2d63100000831015612280576040517f1fbaba3500000000000000000000000000000000000000000000000000000000815260040160405180910390fd5b5f60646001856122909190615759565b61229a91906157c7565b90505f60646001866122ac9190615759565b6122b691906157c7565b90505f8183876122c69190615726565b6122d09190615726565b905061232060095f9054906101000a900473ffffffffffffffffffffffffffffffffffffffff1633600e5f9054906101000a900473ffffffffffffffffffffffffffffffffffffffff1684612c6b565b61236e60095f9054906101000a900473ffffffffffffffffffffffffffffffffffffffff1633600f5f9054906101000a900473ffffffffffffffffffffffffffffffffffffffff1685612c6b565b6123bc60095f9054906101000a900473ffffffffffffffffffffffffffffffffffffffff1633600d5f9054906101000a900473ffffffffffffffffffffffffffffffffffffffff1686612c6b565b5f73ffffffffffffffffffffffffffffffffffffffff16600d5f9054906101000a900473ffffffffffffffffffffffffffffffffffffffff1673ffffffffffffffffffffffffffffffffffffffff161461249857600d5f9054906101000a900473ffffffffffffffffffffffffffffffffffffffff1673ffffffffffffffffffffffffffffffffffffffff1663cc430ced846040518263ffffffff1660e01b815260040161246a9190614db6565b5f604051808303815f87803b158015612481575f5ffd5b505af1158015612493573d5f5f3e3d5ffd5b505050505b600e5f9054906101000a900473ffffffffffffffffffffffffffffffffffffffff1673ffffffffffffffffffffffffffffffffffffffff166351c6590a826040518263ffffffff1660e01b81526004016124f29190614db6565b5f604051808303815f87803b158015612509575f5ffd5b505af115801561251b573d5f5f3e3d5ffd5b5050505061252833612e53565b85855f015f82825461253a9190615918565b92505081905550683635c9adc5dea00000855f01541015801561256b5750846004015f9054906101000a900460ff16155b156125af576001856004015f6101000a81548160ff021916908315150217905550678ac7230489e80000846005015f8282546125a79190615918565b925050819055505b8560105f8282546125c09190615918565b9250508190555060055f3373ffffffffffffffffffffffffffffffffffffffff1673ffffffffffffffffffffffffffffffffffffffff1681526020019081526020015f205f9054906101000a900460ff166127285760045f855f015f9054906101000a900473ffffffffffffffffffffffffffffffffffffffff1673ffffffffffffffffffffffffffffffffffffffff1673ffffffffffffffffffffffffffffffffffffffff1681526020019081526020015f2033908060018154018082558091505060019003905f5260205f20015f9091909190916101000a81548173ffffffffffffffffffffffffffffffffffffffff021916908373ffffffffffffffffffffffffffffffffffffffff160217905550600160055f3373ffffffffffffffffffffffffffffffffffffffff1673ffffffffffffffffffffffffffffffffffffffff1681526020019081526020015f205f6101000a81548160ff0219169083151502179055505b61273233876136a8565b7f9e71bc8eea02a63969f509818f2dafb9254532904319f9dbda79b67bd34a5f3d3387604051612763929190615883565b60405180910390a15050505050612778612c62565b50565b600c5f9054906101000a900473ffffffffffffffffffffffffffffffffffffffff1681565b6040518060400160405280600581526020017f352e302e3000000000000000000000000000000000000000000000000000000081525081565b60105481565b3373ffffffffffffffffffffffffffffffffffffffff16600a5f9054906101000a900473ffffffffffffffffffffffffffffffffffffffff1673ffffffffffffffffffffffffffffffffffffffff161461286e576040517f08c379a0000000000000000000000000000000000000000000000000000000008152600401612865906159fd565b60405180910390fd5b8060135f6101000a81548160ff02191690831515021790555050565b600d5f9054906101000a900473ffffffffffffffffffffffffffffffffffffffff1681565b60605f60045f8473ffffffffffffffffffffffffffffffffffffffff1673ffffffffffffffffffffffffffffffffffffffff1681526020019081526020015f2090505f818054905090505f8167ffffffffffffffff81111561291457612913615327565b5b60405190808252806020026020018201604052801561294d57816020015b61293a614c77565b8152602001906001900390816129325790505b5090505f5f90505b82811015612a7c575f84828154811061297157612970615a1b565b5b905f5260205f20015f9054906101000a900473ffffffffffffffffffffffffffffffffffffffff16905060405180604001604052808273ffffffffffffffffffffffffffffffffffffffff16815260200160025f8473ffffffffffffffffffffffffffffffffffffffff1673ffffffffffffffffffffffffffffffffffffffff1681526020019081526020015f206002015460015f8573ffffffffffffffffffffffffffffffffffffffff1673ffffffffffffffffffffffffffffffffffffffff1681526020019081526020015f205f0154612a4d9190615918565b815250838381518110612a6357612a62615a1b565b5b6020026020010181905250508080600101915050612955565b50809350505050919050565b600f5f9054906101000a900473ffffffffffffffffffffffffffffffffffffffff1681565b606060045f8373ffffffffffffffffffffffffffffffffffffffff1673ffffffffffffffffffffffffffffffffffffffff1681526020019081526020015f20805480602002602001604051908101604052809291908181526020018280548015612b6957602002820191905f5260205f20905b815f9054906101000a900473ffffffffffffffffffffffffffffffffffffffff1673ffffffffffffffffffffffffffffffffffffffff1681526020019060010190808311612b20575b50505050509050919050565b612b7d612dcc565b5f73ffffffffffffffffffffffffffffffffffffffff168173ffffffffffffffffffffffffffffffffffffffff1603612bed575f6040517f1e4fbdf7000000000000000000000000000000000000000000000000000000008152600401612be49190614e63565b60405180910390fd5b612bf6816135b0565b50565b600a5f9054906101000a900473ffffffffffffffffffffffffffffffffffffffff1681565b60025f5403612c59576040517f3ee5aeb500000000000000000000000000000000000000000000000000000000815260040160405180910390fd5b60025f81905550565b60015f81905550565b5f5f8573ffffffffffffffffffffffffffffffffffffffff166323b872dd868686604051602401612c9e93929190615afd565b6040516020818303038152906040529060e01b6020820180517bffffffffffffffffffffffffffffffffffffffffffffffffffffffff8381831617835250505050604051612cec9190615b76565b5f604051808303815f865af19150503d805f8114612d25576040519150601f19603f3d011682016040523d82523d5f602084013e612d2a565b606091505b5091509150818015612d5757505f81511480612d56575080806020019051810190612d559190615ba0565b5b5b612d96576040517f08c379a0000000000000000000000000000000000000000000000000000000008152600401612d8d90615c3b565b60405180910390fd5b505050505050565b5f5f612da8613be4565b90508091505090565b5f33905090565b612dc0613c0d565b612dc981613c4d565b50565b612dd4612db1565b73ffffffffffffffffffffffffffffffffffffffff16612df26120a8565b73ffffffffffffffffffffffffffffffffffffffff1614612e5157612e15612db1565b6040517f118cdaa7000000000000000000000000000000000000000000000000000000008152600401612e489190614e63565b60405180910390fd5b565b5f60015f8373ffffffffffffffffffffffffffffffffffffffff1673ffffffffffffffffffffffffffffffffffffffff1681526020019081526020015f2090505f815f015403612eac5742816001018190555050612f29565b5f816001015442612ebd9190615726565b90505f8103612ecd575050612f29565b5f601254835f015460115484612ee39190615759565b612eed9190615759565b612ef791906157c7565b90505f811115612f1c5780836002015f828254612f149190615918565b925050819055505b4283600101819055505050505b50565b5f5f9050612f3a8383613cd1565b5f612f458484613f7a565b90508082612f539190615918565b91505f6064603285612f659190615759565b612f6f91906157c7565b9050808210156131d9575f8282612f869190615726565b90505f60015f600b5f9054906101000a900473ffffffffffffffffffffffffffffffffffffffff1673ffffffffffffffffffffffffffffffffffffffff1673ffffffffffffffffffffffffffffffffffffffff1681526020019081526020015f2090505f60025f600b5f9054906101000a900473ffffffffffffffffffffffffffffffffffffffff1673ffffffffffffffffffffffffffffffffffffffff1673ffffffffffffffffffffffffffffffffffffffff1681526020019081526020015f20905082826002015f82825461305d9190615918565b9250508190555082816003015f8282546130779190615918565b9250508190555060035f600b5f9054906101000a900473ffffffffffffffffffffffffffffffffffffffff1673ffffffffffffffffffffffffffffffffffffffff1673ffffffffffffffffffffffffffffffffffffffff1681526020019081526020015f206040518060800160405280600160028111156130fb576130fa614f7c565b5b81526020018a73ffffffffffffffffffffffffffffffffffffffff16815260200185815260200142815250908060018154018082558091505060019003905f5260205f2090600302015f909190919091505f820151815f015f6101000a81548160ff0219169083600281111561317457613173614f7c565b5b02179055506020820151815f0160016101000a81548173ffffffffffffffffffffffffffffffffffffffff021916908373ffffffffffffffffffffffffffffffffffffffff160217905550604082015181600101556060820151816002015550505050505b6131e385856142c3565b5050505050565b7f000000000000000000000000000000000000000000000000000000000000000073ffffffffffffffffffffffffffffffffffffffff163073ffffffffffffffffffffffffffffffffffffffff16148061329757507f000000000000000000000000000000000000000000000000000000000000000073ffffffffffffffffffffffffffffffffffffffff1661327e61458a565b73ffffffffffffffffffffffffffffffffffffffff1614155b156132ce576040517fe07c8dba00000000000000000000000000000000000000000000000000000000815260040160405180910390fd5b565b6132d8612dcc565b50565b8173ffffffffffffffffffffffffffffffffffffffff166352d1902d6040518163ffffffff1660e01b8152600401602060405180830381865afa92505050801561334357506040513d601f19601f820116820180604052508101906133409190615c83565b60015b61338457816040517f4c9c8ce300000000000000000000000000000000000000000000000000000000815260040161337b9190614e63565b60405180910390fd5b7f360894a13ba1a3210667c828492db98dca3e2076cc3735a920a3ca505d382bbc5f1b81146133ea57806040517faa1d49a40000000000000000000000000000000000000000000000000000000081526004016133e191906154bd565b60405180910390fd5b6133f483836145dd565b505050565b7f000000000000000000000000000000000000000000000000000000000000000073ffffffffffffffffffffffffffffffffffffffff163073ffffffffffffffffffffffffffffffffffffffff161461347e576040517fe07c8dba00000000000000000000000000000000000000000000000000000000815260040160405180910390fd5b565b5f5f8473ffffffffffffffffffffffffffffffffffffffff1663a9059cbb85856040516024016134b1929190615883565b6040516020818303038152906040529060e01b6020820180517bffffffffffffffffffffffffffffffffffffffffffffffffffffffff83818316178352505050506040516134ff9190615b76565b5f604051808303815f865af19150503d805f8114613538576040519150601f19603f3d011682016040523d82523d5f602084013e61353d565b606091505b509150915081801561356a57505f815114806135695750808060200190518101906135689190615ba0565b5b5b6135a9576040517f08c379a00000000000000000000000000000000000000000000000000000000081526004016135a090615cf8565b60405180910390fd5b5050505050565b5f6135b9613681565b90505f815f015f9054906101000a900473ffffffffffffffffffffffffffffffffffffffff16905082825f015f6101000a81548173ffffffffffffffffffffffffffffffffffffffff021916908373ffffffffffffffffffffffffffffffffffffffff1602179055508273ffffffffffffffffffffffffffffffffffffffff168173ffffffffffffffffffffffffffffffffffffffff167f8be0079c531659141344cd1fd0a4f28419497f9722a3daafe3b4186f6b6457e060405160405180910390a3505050565b5f7f9016d09d72d40fdae2fd8ceac6b6234c7706214fd39c1cd1e609a0528c199300905090565b5f60025f8473ffffffffffffffffffffffffffffffffffffffff1673ffffffffffffffffffffffffffffffffffffffff1681526020019081526020015f205f015f9054906101000a900473ffffffffffffffffffffffffffffffffffffffff1690505b5f73ffffffffffffffffffffffffffffffffffffffff168173ffffffffffffffffffffffffffffffffffffffff1614613bdf575f60025f8373ffffffffffffffffffffffffffffffffffffffff1673ffffffffffffffffffffffffffffffffffffffff1681526020019081526020015f2090506001816001015f8282546137929190615918565b9250508190555082816002015f8282546137ac9190615918565b925050819055505f5f9050600560068111156137cb576137ca614f7c565b5b825f0160149054906101000a900460ff1660068111156137ee576137ed614f7c565b5b03613919575f60045f8573ffffffffffffffffffffffffffffffffffffffff1673ffffffffffffffffffffffffffffffffffffffff1681526020019081526020015f2090505f818054905090505f5f90505b81811015613915576005600681111561385c5761385b614f7c565b5b60025f85848154811061387257613871615a1b565b5b905f5260205f20015f9054906101000a900473ffffffffffffffffffffffffffffffffffffffff1673ffffffffffffffffffffffffffffffffffffffff1673ffffffffffffffffffffffffffffffffffffffff1681526020019081526020015f205f0160149054906101000a900460ff1660068111156138f5576138f4614f7c565b5b0361390a578360010193506002841015613915575b806001019050613840565b5050505b5f5f613a4c84604051806101000160405290815f82015f9054906101000a900473ffffffffffffffffffffffffffffffffffffffff1673ffffffffffffffffffffffffffffffffffffffff1673ffffffffffffffffffffffffffffffffffffffff1681526020015f820160149054906101000a900460ff1660068111156139a3576139a2614f7c565b5b60068111156139b5576139b4614f7c565b5b81526020016001820154815260200160028201548152602001600382015481526020016004820154815260200160058201548152602001600682015f9054906101000a900460ff16151515158152505060045f8873ffffffffffffffffffffffffffffffffffffffff1673ffffffffffffffffffffffffffffffffffffffff1681526020019081526020015f20805490508561464f565b915091508015613bb15781845f0160146101000a81548160ff02191690836006811115613a7c57613a7b614f7c565b5b021790555060065f836006811115613a9757613a96614f7c565b5b6006811115613aa957613aa8614f7c565b5b81526020019081526020015f2054846005015f828254613ac99190615918565b92505081905550600680811115613ae357613ae2614f7c565b5b826006811115613af657613af5614f7c565b5b148015613b4a575060085f8673ffffffffffffffffffffffffffffffffffffffff1673ffffffffffffffffffffffffffffffffffffffff1681526020019081526020015f205f9054906101000a900460ff16155b15613bb057600785908060018154018082558091505060019003905f5260205f20015f9091909190916101000a81548173ffffffffffffffffffffffffffffffffffffffff021916908373ffffffffffffffffffffffffffffffffffffffff1602179055505b5b835f015f9054906101000a900473ffffffffffffffffffffffffffffffffffffffff1694505050505061370b565b505050565b5f7ff0c57e16840df040f15088dc2f81fe391c3923bec73e23a9662efc9c229c6a005f1b905090565b613c156148a8565b613c4b576040517fd7e6bcf800000000000000000000000000000000000000000000000000000000815260040160405180910390fd5b565b613c55613c0d565b5f73ffffffffffffffffffffffffffffffffffffffff168173ffffffffffffffffffffffffffffffffffffffff1603613cc5575f6040517f1e4fbdf7000000000000000000000000000000000000000000000000000000008152600401613cbc9190614e63565b60405180910390fd5b613cce816135b0565b50565b5f60025f8473ffffffffffffffffffffffffffffffffffffffff1673ffffffffffffffffffffffffffffffffffffffff1681526020019081526020015f205f015f9054906101000a900473ffffffffffffffffffffffffffffffffffffffff1690505f73ffffffffffffffffffffffffffffffffffffffff168173ffffffffffffffffffffffffffffffffffffffff1603613d6c5750613f76565b5f6064600a84613d7c9190615759565b613d8691906157c7565b90505f60015f8473ffffffffffffffffffffffffffffffffffffffff1673ffffffffffffffffffffffffffffffffffffffff1681526020019081526020015f2090505f60025f8573ffffffffffffffffffffffffffffffffffffffff1673ffffffffffffffffffffffffffffffffffffffff1681526020019081526020015f20905082826002015f828254613e1b9190615918565b9250508190555082816003015f828254613e359190615918565b9250508190555060035f8573ffffffffffffffffffffffffffffffffffffffff1673ffffffffffffffffffffffffffffffffffffffff1681526020019081526020015f2060405180608001604052805f6002811115613e9757613e96614f7c565b5b81526020018873ffffffffffffffffffffffffffffffffffffffff16815260200185815260200142815250908060018154018082558091505060019003905f5260205f2090600302015f909190919091505f820151815f015f6101000a81548160ff02191690836002811115613f1057613f0f614f7c565b5b02179055506020820151815f0160016101000a81548173ffffffffffffffffffffffffffffffffffffffff021916908373ffffffffffffffffffffffffffffffffffffffff16021790555060408201518160010155606082015181600201555050505050505b5050565b5f613f83614ca5565b5f60025f8673ffffffffffffffffffffffffffffffffffffffff1673ffffffffffffffffffffffffffffffffffffffff1681526020019081526020015f205f015f9054906101000a900473ffffffffffffffffffffffffffffffffffffffff1690505b5f73ffffffffffffffffffffffffffffffffffffffff168173ffffffffffffffffffffffffffffffffffffffff16146142bb575f60025f8373ffffffffffffffffffffffffffffffffffffffff1673ffffffffffffffffffffffffffffffffffffffff1681526020019081526020015f2090505f60015f8473ffffffffffffffffffffffffffffffffffffffff1673ffffffffffffffffffffffffffffffffffffffff1681526020019081526020015f2090505f5f5f6140b7855f0160149054906101000a900460ff16888b6148c6565b925092509250811561428c576001878260ff16600581106140db576140da615a1b565b5b60200201901515908115158152505082846002015f8282546140fd9190615918565b9250508190555082856003015f8282546141179190615918565b92505081905550828861412a9190615918565b975060035f8773ffffffffffffffffffffffffffffffffffffffff1673ffffffffffffffffffffffffffffffffffffffff1681526020019081526020015f2060405180608001604052806001600281111561418857614187614f7c565b5b81526020018c73ffffffffffffffffffffffffffffffffffffffff16815260200185815260200142815250908060018154018082558091505060019003905f5260205f2090600302015f909190919091505f820151815f015f6101000a81548160ff0219169083600281111561420157614200614f7c565b5b02179055506020820151815f0160016101000a81548173ffffffffffffffffffffffffffffffffffffffff021916908373ffffffffffffffffffffffffffffffffffffffff16021790555060408201518160010155606082015181600201555050606460328a6142719190615759565b61427b91906157c7565b880361428b5750505050506142bb565b5b845f015f9054906101000a900473ffffffffffffffffffffffffffffffffffffffff1695505050505050613fe6565b505092915050565b5f60078054905090505f81036142d95750614586565b5f6142e2611a3c565b90505f81036142f2575050614586565b5f6064600a856143029190615759565b61430c91906157c7565b90505f5f90505b83811015614581575f600782815481106143305761432f615a1b565b5b905f5260205f20015f9054906101000a900473ffffffffffffffffffffffffffffffffffffffff1690505f60025f8373ffffffffffffffffffffffffffffffffffffffff1673ffffffffffffffffffffffffffffffffffffffff1681526020019081526020015f2090505f60015f8473ffffffffffffffffffffffffffffffffffffffff1673ffffffffffffffffffffffffffffffffffffffff1681526020019081526020015f2090505f868360020154876143ec9190615759565b6143f691906157c7565b90505f81036144085750505050614576565b80836004015f82825461441b9190615918565b9250508190555080826002015f8282546144359190615918565b9250508190555060035f8573ffffffffffffffffffffffffffffffffffffffff1673ffffffffffffffffffffffffffffffffffffffff1681526020019081526020015f20604051806080016040528060028081111561449757614496614f7c565b5b81526020018c73ffffffffffffffffffffffffffffffffffffffff16815260200183815260200142815250908060018154018082558091505060019003905f5260205f2090600302015f909190919091505f820151815f015f6101000a81548160ff021916908360028111156145105761450f614f7c565b5b02179055506020820151815f0160016101000a81548173ffffffffffffffffffffffffffffffffffffffff021916908373ffffffffffffffffffffffffffffffffffffffff16021790555060408201518160010155606082015181600201555050505050505b806001019050614313565b505050505b5050565b5f6145b67f360894a13ba1a3210667c828492db98dca3e2076cc3735a920a3ca505d382bbc5f1b614a35565b5f015f9054906101000a900473ffffffffffffffffffffffffffffffffffffffff16905090565b6145e682614a3e565b8173ffffffffffffffffffffffffffffffffffffffff167fbc7cd75a20ee27fd9adebab32041f755214dbc6bffa90cc0225b39da2e5c2d3b60405160405180910390a25f815111156146425761463c8282614b07565b5061464b565b61464a614bf8565b5b5050565b5f5f846020015191505f90505f600681111561466e5761466d614f7c565b5b8560200151600681111561468557614684614f7c565b5b148015614693575060038410155b80156146ad575069021e19e0c9bab2400000856060015110155b156146bf5760019150600190506148a0565b600160068111156146d3576146d2614f7c565b5b856020015160068111156146ea576146e9614f7c565b5b1480156146f8575060048410155b80156147125750690a968163f0a57b400000856060015110155b1561472457600291506001905061489f565b6002600681111561473857614737614f7c565b5b8560200151600681111561474f5761474e614f7c565b5b14801561475d575060058410155b80156147775750692a5a058fc295ed000000856060015110155b1561478957600391506001905061489e565b6003600681111561479d5761479c614f7c565b5b856020015160068111156147b4576147b3614f7c565b5b1480156147c2575060078410155b80156147dc575069a968163f0a57b4000000856060015110155b156147ee57600491506001905061489d565b6004600681111561480257614801614f7c565b5b8560200151600681111561481957614818614f7c565b5b148015614827575060098410155b801561484257506a027b46536c66c8e3000000856060015110155b1561485457600591506001905061489c565b6005600681111561486857614867614f7c565b5b8560200151600681111561487f5761487e614f7c565b5b14801561488d575060028310155b1561489b5760069150600190505b5b5b5b5b5b935093915050565b5f6148b1612d9e565b5f0160089054906101000a900460ff16905090565b5f5f5f5f92505f91505f9050600160068111156148e6576148e5614f7c565b5b8660068111156148f9576148f8614f7c565b5b03614906575f90506149ec565b6002600681111561491a57614919614f7c565b5b86600681111561492d5761492c614f7c565b5b0361493b57600190506149eb565b6003600681111561494f5761494e614f7c565b5b86600681111561496257614961614f7c565b5b0361497057600290506149ea565b6004600681111561498457614983614f7c565b5b86600681111561499757614996614f7c565b5b036149a557600390506149e9565b600560068111156149b9576149b8614f7c565b5b8660068111156149cc576149cb614f7c565b5b036149da57600490506149e8565b5f5f5f925092509250614a2c565b5b5b5b5b848160ff1660058110614a0257614a01615a1b565b5b6020020151614a2b576064600a85614a1a9190615759565b614a2491906157c7565b9250600191505b5b93509350939050565b5f819050919050565b5f8173ffffffffffffffffffffffffffffffffffffffff163b03614a9957806040517f4c9c8ce3000000000000000000000000000000000000000000000000000000008152600401614a909190614e63565b60405180910390fd5b80614ac57f360894a13ba1a3210667c828492db98dca3e2076cc3735a920a3ca505d382bbc5f1b614a35565b5f015f6101000a81548173ffffffffffffffffffffffffffffffffffffffff021916908373ffffffffffffffffffffffffffffffffffffffff16021790555050565b60605f614b148484614c34565b9050808015614b4a57505f614b27614c48565b1180614b4957505f8473ffffffffffffffffffffffffffffffffffffffff163b115b5b15614b5f57614b57614c4f565b915050614bf2565b8015614ba257836040517f9996b315000000000000000000000000000000000000000000000000000000008152600401614b999190614e63565b60405180910390fd5b5f614bab614c48565b1115614bbe57614bb9614c6c565b614bf0565b6040517fd6bda27500000000000000000000000000000000000000000000000000000000815260040160405180910390fd5b505b92915050565b5f341115614c32576040517fb398979f00000000000000000000000000000000000000000000000000000000815260040160405180910390fd5b565b5f5f5f835160208501865af4905092915050565b5f3d905090565b606060405190503d81523d5f602083013e3d602001810160405290565b6040513d5f823e3d81fd5b60405180604001604052805f73ffffffffffffffffffffffffffffffffffffffff1681526020015f81525090565b6040518060a00160405280600590602082028036833780820191505090505090565b5f82825260208201905092915050565b7f4e4f5f4449524543545f53454e440000000000000000000000000000000000005f82015250565b5f614d0b600e83614cc7565b9150614d1682614cd7565b602082019050919050565b5f6020820190508181035f830152614d3881614cff565b9050919050565b5f604051905090565b5f5ffd5b5f5ffd5b60078110614d5c575f5ffd5b50565b5f81359050614d6d81614d50565b92915050565b5f60208284031215614d8857614d87614d48565b5b5f614d9584828501614d5f565b91505092915050565b5f819050919050565b614db081614d9e565b82525050565b5f602082019050614dc95f830184614da7565b92915050565b5f73ffffffffffffffffffffffffffffffffffffffff82169050919050565b5f614df882614dcf565b9050919050565b614e0881614dee565b8114614e12575f5ffd5b50565b5f81359050614e2381614dff565b92915050565b5f60208284031215614e3e57614e3d614d48565b5b5f614e4b84828501614e15565b91505092915050565b614e5d81614dee565b82525050565b5f602082019050614e765f830184614e54565b92915050565b5f81519050919050565b5f82825260208201905092915050565b5f819050602082019050919050565b614eae81614dee565b82525050565b5f614ebf8383614ea5565b60208301905092915050565b5f602082019050919050565b5f614ee182614e7c565b614eeb8185614e86565b9350614ef683614e96565b805f5b83811015614f26578151614f0d8882614eb4565b9750614f1883614ecb565b925050600181019050614ef9565b5085935050505092915050565b5f6020820190508181035f830152614f4b8184614ed7565b905092915050565b5f81519050919050565b5f82825260208201905092915050565b5f819050602082019050919050565b7f4e487b71000000000000000000000000000000000000000000000000000000005f52602160045260245ffd5b60038110614fba57614fb9614f7c565b5b50565b5f819050614fca82614fa9565b919050565b5f614fd982614fbd565b9050919050565b614fe981614fcf565b82525050565b614ff881614d9e565b82525050565b608082015f8201516150125f850182614fe0565b5060208201516150256020850182614ea5565b5060408201516150386040850182614fef565b50606082015161504b6060850182614fef565b50505050565b5f61505c8383614ffe565b60808301905092915050565b5f602082019050919050565b5f61507e82614f53565b6150888185614f5d565b935061509383614f6d565b805f5b838110156150c35781516150aa8882615051565b97506150b583615068565b925050600181019050615096565b5085935050505092915050565b5f6020820190508181035f8301526150e88184615074565b905092915050565b5f8115159050919050565b615104816150f0565b82525050565b5f60a08201905061511d5f830188614da7565b61512a6020830187614da7565b6151376040830186614da7565b6151446060830185614da7565b61515160808301846150fb565b9695505050505050565b61516481614d9e565b811461516e575f5ffd5b50565b5f8135905061517f8161515b565b92915050565b5f6020828403121561519a57615199614d48565b5b5f6151a784828501615171565b91505092915050565b5f5f5f5f5f5f5f60e0888a0312156151cb576151ca614d48565b5b5f6151d88a828b01614e15565b97505060206151e98a828b01614e15565b96505060406151fa8a828b01614e15565b955050606061520b8a828b01614e15565b945050608061521c8a828b01614e15565b93505060a061522d8a828b01614e15565b92505060c061523e8a828b01614e15565b91505092959891949750929550565b6007811061525e5761525d614f7c565b5b50565b5f81905061526e8261524d565b919050565b5f61527d82615261565b9050919050565b61528d81615273565b82525050565b5f610100820190506152a75f83018b614e54565b6152b4602083018a615284565b6152c16040830189614da7565b6152ce6060830188614da7565b6152db6080830187614da7565b6152e860a0830186614da7565b6152f560c0830185614da7565b61530260e08301846150fb565b9998505050505050505050565b5f5ffd5b5f5ffd5b5f601f19601f8301169050919050565b7f4e487b71000000000000000000000000000000000000000000000000000000005f52604160045260245ffd5b61535d82615317565b810181811067ffffffffffffffff8211171561537c5761537b615327565b5b80604052505050565b5f61538e614d3f565b905061539a8282615354565b919050565b5f67ffffffffffffffff8211156153b9576153b8615327565b5b6153c282615317565b9050602081019050919050565b828183375f83830152505050565b5f6153ef6153ea8461539f565b615385565b90508281526020810184848401111561540b5761540a615313565b5b6154168482856153cf565b509392505050565b5f82601f8301126154325761543161530f565b5b81356154428482602086016153dd565b91505092915050565b5f5f6040838503121561546157615460614d48565b5b5f61546e85828601614e15565b925050602083013567ffffffffffffffff81111561548f5761548e614d4c565b5b61549b8582860161541e565b9150509250929050565b5f819050919050565b6154b7816154a5565b82525050565b5f6020820190506154d05f8301846154ae565b92915050565b5f5f5f606084860312156154ed576154ec614d48565b5b5f6154fa86828701614e15565b935050602061550b86828701615171565b925050604061551c86828701614e15565b9150509250925092565b5f6020820190506155395f8301846150fb565b92915050565b5f81519050919050565b8281835e5f83830152505050565b5f6155618261553f565b61556b8185614cc7565b935061557b818560208601615549565b61558481615317565b840191505092915050565b5f6020820190508181035f8301526155a78184615557565b905092915050565b6155b8816150f0565b81146155c2575f5ffd5b50565b5f813590506155d3816155af565b92915050565b5f602082840312156155ee576155ed614d48565b5b5f6155fb848285016155c5565b91505092915050565b5f81519050919050565b5f82825260208201905092915050565b5f819050602082019050919050565b604082015f8201516156415f850182614ea5565b5060208201516156546020850182614fef565b50505050565b5f615665838361562d565b60408301905092915050565b5f602082019050919050565b5f61568782615604565b615691818561560e565b935061569c8361561e565b805f5b838110156156cc5781516156b3888261565a565b97506156be83615671565b92505060018101905061569f565b5085935050505092915050565b5f6020820190508181035f8301526156f1818461567d565b905092915050565b7f4e487b71000000000000000000000000000000000000000000000000000000005f52601160045260245ffd5b5f61573082614d9e565b915061573b83614d9e565b9250828203905081811115615753576157526156f9565b5b92915050565b5f61576382614d9e565b915061576e83614d9e565b925082820261577c81614d9e565b91508282048414831517615793576157926156f9565b5b5092915050565b7f4e487b71000000000000000000000000000000000000000000000000000000005f52601260045260245ffd5b5f6157d182614d9e565b91506157dc83614d9e565b9250826157ec576157eb61579a565b5b828204905092915050565b5f8151905061580581614dff565b92915050565b5f815190506158198161515b565b92915050565b5f5f5f5f6080858703121561583757615836614d48565b5b5f615844878288016157f7565b94505060206158558782880161580b565b93505060406158668782880161580b565b92505060606158778782880161580b565b91505092959194509250565b5f6040820190506158965f830185614e54565b6158a36020830184614da7565b9392505050565b5f819050919050565b5f67ffffffffffffffff82169050919050565b5f819050919050565b5f6158e96158e46158df846158aa565b6158c6565b6158b3565b9050919050565b6158f9816158cf565b82525050565b5f6020820190506159125f8301846158f0565b92915050565b5f61592282614d9e565b915061592d83614d9e565b9250828201905080821115615945576159446156f9565b5b92915050565b7f46696e616e63652070617573652e0000000000000000000000000000000000005f82015250565b5f61597f600e83614cc7565b915061598a8261594b565b602082019050919050565b5f6020820190508181035f8301526159ac81615973565b9050919050565b7f4e6f74207065726d69742e0000000000000000000000000000000000000000005f82015250565b5f6159e7600b83614cc7565b91506159f2826159b3565b602082019050919050565b5f6020820190508181035f830152615a14816159db565b9050919050565b7f4e487b71000000000000000000000000000000000000000000000000000000005f52603260045260245ffd5b7f5245434f4d4d454e444154494f4e5f49535f52455155495245445f52454645525f8201527f52414c2e00000000000000000000000000000000000000000000000000000000602082015250565b5f615aa2602483614cc7565b9150615aad82615a48565b604082019050919050565b5f6020820190508181035f830152615acf81615a96565b9050919050565b5f604082019050615ae95f830185614e54565b615af66020830184614e54565b9392505050565b5f606082019050615b105f830186614e54565b615b1d6020830185614e54565b615b2a6040830184614da7565b949350505050565b5f81519050919050565b5f81905092915050565b5f615b5082615b32565b615b5a8185615b3c565b9350615b6a818560208601615549565b80840191505092915050565b5f615b818284615b46565b915081905092915050565b5f81519050615b9a816155af565b92915050565b5f60208284031215615bb557615bb4614d48565b5b5f615bc284828501615b8c565b91505092915050565b7f5472616e7366657248656c7065723a205452414e534645525f46524f4d5f46415f8201527f494c454400000000000000000000000000000000000000000000000000000000602082015250565b5f615c25602483614cc7565b9150615c3082615bcb565b604082019050919050565b5f6020820190508181035f830152615c5281615c19565b9050919050565b615c62816154a5565b8114615c6c575f5ffd5b50565b5f81519050615c7d81615c59565b92915050565b5f60208284031215615c9857615c97614d48565b5b5f615ca584828501615c6f565b91505092915050565b7f5472616e7366657248656c7065723a205452414e534645525f4641494c4544005f82015250565b5f615ce2601f83614cc7565b9150615ced82615cae565b602082019050919050565b5f6020820190508181035f830152615d0f81615cd6565b905091905056fea2646970667358221220a5ebc66b8ddbd033e7a442fd6b4450865bb6a41bc7b9915b0afe61d68010dee164736f6c634300081e0033","linkReferences":{}},"methodIdentifiers":{"MULTIPLE()":"7516a79e","UPGRADE_INTERFACE_VERSION()":"ad3cb1cc","admin()":"f851a440","claim()":"4e71d92d","djsv1()":"ac6439b5","emergencyWithdraw(address,uint256,address)":"551512de","getDirectReferralAddr(address)":"f26449bf","getDirectReferralInfo(address)":"dcdcd08c","getReferralAwardRecords(address)":"18785eb6","getShareAddrs()":"15da2f71","getTotalSharePerformance()":"665e44e9","getUserAward(address)":"3e4ff6f2","getUserStakingAward(address)":"0acf716b","initialCode()":"10baf089","initialize(address,address,address,address,address,address,address)":"35876476","liquidityManager()":"33827438","migrationReferral(address)":"0ff9ef12","nodeDividends()":"c7fb372f","owner()":"8da5cb5b","pause()":"8456cb59","perSecondStakedAeward()":"905635d4","proxiableUUID()":"52d1902d","recipientForBurn()":"e27aaafa","referral(address)":"7247959a","referralInfo(address)":"39540b0a","renounceOwnership()":"715018a6","setLiquidityManager(address)":"3c1624d4","setNodeDividends(address)":"8f011a28","setPause(bool)":"bedb86fb","stake(uint256)":"a694fc3a","subCoinQuotas(uint8)":"00c4bb2b","swapSubToken(uint256)":"1b602f22","totalStakedUsdt()":"b2859e2b","transferOwnership(address)":"f2fde38b","upgradeToAndCall(address,bytes)":"4f1ef286","userInfo(address)":"1959a002","validReferralCode(address)":"87631a2a","whetherNeedMigrate(address)":"85215f7c"},"id":44}