{"abi":[{"type":"constructor","inputs":[{"name":"_initialRecipient","type":"address","internalType":"address"}],"stateMutability":"nonpayable"},{"type":"function","name":"ADX","inputs":[],"outputs":[{"name":"","type":"address","internalType":"address"}],"stateMutability":"view"},{"type":"function","name":"DEAD","inputs":[],"outputs":[{"name":"","type":"address","internalType":"address"}],"stateMutability":"view"},{"type":"function","name":"allowance","inputs":[{"name":"owner","type":"address","internalType":"address"},{"name":"spender","type":"address","internalType":"address"}],"outputs":[{"name":"","type":"uint256","internalType":"uint256"}],"stateMutability":"view"},{"type":"function","name":"allowlist","inputs":[{"name":"","type":"address","internalType":"address"}],"outputs":[{"name":"","type":"bool","internalType":"bool"}],"stateMutability":"view"},{"type":"function","name":"approve","inputs":[{"name":"spender","type":"address","internalType":"address"},{"name":"value","type":"uint256","internalType":"uint256"}],"outputs":[{"name":"","type":"bool","internalType":"bool"}],"stateMutability":"nonpayable"},{"type":"function","name":"balanceOf","inputs":[{"name":"account","type":"address","internalType":"address"}],"outputs":[{"name":"","type":"uint256","internalType":"uint256"}],"stateMutability":"view"},{"type":"function","name":"buy_tax_rate","inputs":[],"outputs":[{"name":"","type":"uint256","internalType":"uint256"}],"stateMutability":"view"},{"type":"function","name":"decimals","inputs":[],"outputs":[{"name":"","type":"uint8","internalType":"uint8"}],"stateMutability":"view"},{"type":"function","name":"name","inputs":[],"outputs":[{"name":"","type":"string","internalType":"string"}],"stateMutability":"view"},{"type":"function","name":"owner","inputs":[],"outputs":[{"name":"","type":"address","internalType":"address"}],"stateMutability":"view"},{"type":"function","name":"pancakePair","inputs":[],"outputs":[{"name":"","type":"address","internalType":"address"}],"stateMutability":"view"},{"type":"function","name":"pancakeRouter","inputs":[],"outputs":[{"name":"","type":"address","internalType":"contract IPancakeRouter02"}],"stateMutability":"view"},{"type":"function","name":"renounceOwnership","inputs":[],"outputs":[],"stateMutability":"nonpayable"},{"type":"function","name":"sell_tax_rate","inputs":[],"outputs":[{"name":"","type":"uint256","internalType":"uint256"}],"stateMutability":"view"},{"type":"function","name":"setAllowlist","inputs":[{"name":"addrs","type":"address[]","internalType":"address[]"},{"name":"isAllow","type":"bool","internalType":"bool"}],"outputs":[],"stateMutability":"nonpayable"},{"type":"function","name":"symbol","inputs":[],"outputs":[{"name":"","type":"string","internalType":"string"}],"stateMutability":"view"},{"type":"function","name":"totalSupply","inputs":[],"outputs":[{"name":"","type":"uint256","internalType":"uint256"}],"stateMutability":"view"},{"type":"function","name":"transfer","inputs":[{"name":"to","type":"address","internalType":"address"},{"name":"value","type":"uint256","internalType":"uint256"}],"outputs":[{"name":"","type":"bool","internalType":"bool"}],"stateMutability":"nonpayable"},{"type":"function","name":"transferFrom","inputs":[{"name":"from","type":"address","internalType":"address"},{"name":"to","type":"address","internalType":"address"},{"name":"value","type":"uint256","internalType":"uint256"}],"outputs":[{"name":"","type":"bool","internalType":"bool"}],"stateMutability":"nonpayable"},{"type":"function","name":"transferOwnership","inputs":[{"name":"newOwner","type":"address","internalType":"address"}],"outputs":[],"stateMutability":"nonpayable"},{"type":"event","name":"Approval","inputs":[{"name":"owner","type":"address","indexed":true,"internalType":"address"},{"name":"spender","type":"address","indexed":true,"internalType":"address"},{"name":"value","type":"uint256","indexed":false,"internalType":"uint256"}],"anonymous":false},{"type":"event","name":"OwnershipTransferred","inputs":[{"name":"previousOwner","type":"address","indexed":true,"internalType":"address"},{"name":"newOwner","type":"address","indexed":true,"internalType":"address"}],"anonymous":false},{"type":"event","name":"Transfer","inputs":[{"name":"from","type":"address","indexed":true,"internalType":"address"},{"name":"to","type":"address","indexed":true,"internalType":"address"},{"name":"value","type":"uint256","indexed":false,"internalType":"uint256"}],"anonymous":false},{"type":"error","name":"ERC20InsufficientAllowance","inputs":[{"name":"spender","type":"address","internalType":"address"},{"name":"allowance","type":"uint256","internalType":"uint256"},{"name":"needed","type":"uint256","internalType":"uint256"}]},{"type":"error","name":"ERC20InsufficientBalance","inputs":[{"name":"sender","type":"address","internalType":"address"},{"name":"balance","type":"uint256","internalType":"uint256"},{"name":"needed","type":"uint256","internalType":"uint256"}]},{"type":"error","name":"ERC20InvalidApprover","inputs":[{"name":"approver","type":"address","internalType":"address"}]},{"type":"error","name":"ERC20InvalidReceiver","inputs":[{"name":"receiver","type":"address","internalType":"address"}]},{"type":"error","name":"ERC20InvalidSender","inputs":[{"name":"sender","type":"address","internalType":"address"}]},{"type":"error","name":"ERC20InvalidSpender","inputs":[{"name":"spender","type":"address","internalType":"address"}]},{"type":"error","name":"OwnableInvalidOwner","inputs":[{"name":"owner","type":"address","internalType":"address"}]},{"type":"error","name":"OwnableUnauthorizedAccount","inputs":[{"name":"account","type":"address","internalType":"address"}]}],"bytecode":{"object":"0x60806040527310ed43c718714eb63d5aa57b78b54704e256024e60065f6101000a81548173ffffffffffffffffffffffffffffffffffffffff021916908373ffffffffffffffffffffffffffffffffffffffff1602179055506014600755606460085534801561006d575f5ffd5b50604051612354380380612354833981810160405281019061008f919061086b565b336040518060400160405280600681526020017f58313031763200000000000000000000000000000000000000000000000000008152506040518060400160405280600481526020017f5831303100000000000000000000000000000000000000000000000000000000815250816003908161010b9190610ad3565b50806004908161011b9190610ad3565b5050505f73ffffffffffffffffffffffffffffffffffffffff168173ffffffffffffffffffffffffffffffffffffffff160361018e575f6040517f1e4fbdf70000000000000000000000000000000000000000000000000000000081526004016101859190610bb1565b60405180910390fd5b61019d8161036e60201b60201c565b506101b88169d5e035af96a85340000061043160201b60201c565b60065f9054906101000a900473ffffffffffffffffffffffffffffffffffffffff1673ffffffffffffffffffffffffffffffffffffffff1663c45a01556040518163ffffffff1660e01b8152600401602060405180830381865afa158015610222573d5f5f3e3d5ffd5b505050506040513d601f19601f82011682018060405250810190610246919061086b565b73ffffffffffffffffffffffffffffffffffffffff1663c9c65396307368a4d37635cdb55af61b8e58446949fb21f384e56040518363ffffffff1660e01b8152600401610294929190610bca565b6020604051808303815f875af11580156102b0573d5f5f3e3d5ffd5b505050506040513d601f19601f820116820180604052508101906102d4919061086b565b60095f6101000a81548173ffffffffffffffffffffffffffffffffffffffff021916908373ffffffffffffffffffffffffffffffffffffffff1602179055506001600a5f8373ffffffffffffffffffffffffffffffffffffffff1673ffffffffffffffffffffffffffffffffffffffff1681526020019081526020015f205f6101000a81548160ff02191690831515021790555050610cae565b5f60055f9054906101000a900473ffffffffffffffffffffffffffffffffffffffff1690508160055f6101000a81548173ffffffffffffffffffffffffffffffffffffffff021916908373ffffffffffffffffffffffffffffffffffffffff1602179055508173ffffffffffffffffffffffffffffffffffffffff168173ffffffffffffffffffffffffffffffffffffffff167f8be0079c531659141344cd1fd0a4f28419497f9722a3daafe3b4186f6b6457e060405160405180910390a35050565b5f73ffffffffffffffffffffffffffffffffffffffff168273ffffffffffffffffffffffffffffffffffffffff16036104a1575f6040517fec442f050000000000000000000000000000000000000000000000000000000081526004016104989190610bb1565b60405180910390fd5b6104b25f83836104b660201b60201c565b5050565b600b5f9054906101000a900460ff16806104fb57505f73ffffffffffffffffffffffffffffffffffffffff168373ffffffffffffffffffffffffffffffffffffffff16145b8061053157505f73ffffffffffffffffffffffffffffffffffffffff168273ffffffffffffffffffffffffffffffffffffffff16145b806105825750600a5f8473ffffffffffffffffffffffffffffffffffffffff1673ffffffffffffffffffffffffffffffffffffffff1681526020019081526020015f205f9054906101000a900460ff165b806105d35750600a5f8373ffffffffffffffffffffffffffffffffffffffff1673ffffffffffffffffffffffffffffffffffffffff1681526020019081526020015f205f9054906101000a900460ff165b156105ee576105e98383836105f460201b60201c565b6105ef565b5b505050565b5f73ffffffffffffffffffffffffffffffffffffffff168373ffffffffffffffffffffffffffffffffffffffff1603610644578060025f8282546106389190610c1e565b92505081905550610712565b5f5f5f8573ffffffffffffffffffffffffffffffffffffffff1673ffffffffffffffffffffffffffffffffffffffff1681526020019081526020015f20549050818110156106cd578381836040517fe450d38c0000000000000000000000000000000000000000000000000000000081526004016106c493929190610c60565b60405180910390fd5b8181035f5f8673ffffffffffffffffffffffffffffffffffffffff1673ffffffffffffffffffffffffffffffffffffffff1681526020019081526020015f2081905550505b5f73ffffffffffffffffffffffffffffffffffffffff168273ffffffffffffffffffffffffffffffffffffffff1603610759578060025f82825403925050819055506107a3565b805f5f8473ffffffffffffffffffffffffffffffffffffffff1673ffffffffffffffffffffffffffffffffffffffff1681526020019081526020015f205f82825401925050819055505b8173ffffffffffffffffffffffffffffffffffffffff168373ffffffffffffffffffffffffffffffffffffffff167fddf252ad1be2c89b69c2b068fc378daa952ba7f163c4a11628f55a4df523b3ef836040516108009190610c95565b60405180910390a3505050565b5f5ffd5b5f73ffffffffffffffffffffffffffffffffffffffff82169050919050565b5f61083a82610811565b9050919050565b61084a81610830565b8114610854575f5ffd5b50565b5f8151905061086581610841565b92915050565b5f602082840312156108805761087f61080d565b5b5f61088d84828501610857565b91505092915050565b5f81519050919050565b7f4e487b71000000000000000000000000000000000000000000000000000000005f52604160045260245ffd5b7f4e487b71000000000000000000000000000000000000000000000000000000005f52602260045260245ffd5b5f600282049050600182168061091157607f821691505b602082108103610924576109236108cd565b5b50919050565b5f819050815f5260205f209050919050565b5f6020601f8301049050919050565b5f82821b905092915050565b5f600883026109867fffffffffffffffffffffffffffffffffffffffffffffffffffffffffffffffff8261094b565b610990868361094b565b95508019841693508086168417925050509392505050565b5f819050919050565b5f819050919050565b5f6109d46109cf6109ca846109a8565b6109b1565b6109a8565b9050919050565b5f819050919050565b6109ed836109ba565b610a016109f9826109db565b848454610957565b825550505050565b5f5f905090565b610a18610a09565b610a238184846109e4565b505050565b5b81811015610a4657610a3b5f82610a10565b600181019050610a29565b5050565b601f821115610a8b57610a5c8161092a565b610a658461093c565b81016020851015610a74578190505b610a88610a808561093c565b830182610a28565b50505b505050565b5f82821c905092915050565b5f610aab5f1984600802610a90565b1980831691505092915050565b5f610ac38383610a9c565b9150826002028217905092915050565b610adc82610896565b67ffffffffffffffff811115610af557610af46108a0565b5b610aff82546108fa565b610b0a828285610a4a565b5f60209050601f831160018114610b3b575f8415610b29578287015190505b610b338582610ab8565b865550610b9a565b601f198416610b498661092a565b5f5b82811015610b7057848901518255600182019150602085019450602081019050610b4b565b86831015610b8d5784890151610b89601f891682610a9c565b8355505b6001600288020188555050505b505050505050565b610bab81610830565b82525050565b5f602082019050610bc45f830184610ba2565b92915050565b5f604082019050610bdd5f830185610ba2565b610bea6020830184610ba2565b9392505050565b7f4e487b71000000000000000000000000000000000000000000000000000000005f52601160045260245ffd5b5f610c28826109a8565b9150610c33836109a8565b9250828201905080821115610c4b57610c4a610bf1565b5b92915050565b610c5a816109a8565b82525050565b5f606082019050610c735f830186610ba2565b610c806020830185610c51565b610c8d6040830184610c51565b949350505050565b5f602082019050610ca85f830184610c51565b92915050565b61169980610cbb5f395ff3fe608060405234801561000f575f5ffd5b506004361061012a575f3560e01c806395d89b41116100ab578063c21ebd071161006f578063c21ebd0714610336578063dcea0a6414610354578063dd62ed3e14610372578063f01fe7c4146103a2578063f2fde38b146103be5761012a565b806395d89b411461027c578063a1f970501461029a578063a7cd52cb146102b8578063a9059cbb146102e8578063b8c9d25c146103185761012a565b8063313ce567116100f2578063313ce567146101e85780636e620c451461020657806370a0823114610224578063715018a6146102545780638da5cb5b1461025e5761012a565b806303fd2a451461012e57806306fdde031461014c578063095ea7b31461016a57806318160ddd1461019a57806323b872dd146101b8575b5f5ffd5b6101366103da565b604051610143919061106f565b60405180910390f35b6101546103e0565b60405161016191906110f8565b60405180910390f35b610184600480360381019061017f9190611186565b610470565b60405161019191906111de565b60405180910390f35b6101a2610492565b6040516101af9190611206565b60405180910390f35b6101d260048036038101906101cd919061121f565b61049b565b6040516101df91906111de565b60405180910390f35b6101f06104c9565b6040516101fd919061128a565b60405180910390f35b61020e6104d1565b60405161021b9190611206565b60405180910390f35b61023e600480360381019061023991906112a3565b6104d7565b60405161024b9190611206565b60405180910390f35b61025c61051c565b005b61026661052f565b604051610273919061106f565b60405180910390f35b610284610557565b60405161029191906110f8565b60405180910390f35b6102a26105e7565b6040516102af9190611206565b60405180910390f35b6102d260048036038101906102cd91906112a3565b6105ed565b6040516102df91906111de565b60405180910390f35b61030260048036038101906102fd9190611186565b61060a565b60405161030f91906111de565b60405180910390f35b61032061062c565b60405161032d919061106f565b60405180910390f35b61033e610651565b60405161034b9190611329565b60405180910390f35b61035c610676565b604051610369919061106f565b60405180910390f35b61038c60048036038101906103879190611342565b61068e565b6040516103999190611206565b60405180910390f35b6103bc60048036038101906103b791906114ea565b610710565b005b6103d860048036038101906103d391906112a3565b6107a6565b005b61dead81565b6060600380546103ef90611571565b80601f016020809104026020016040519081016040528092919081815260200182805461041b90611571565b80156104665780601f1061043d57610100808354040283529160200191610466565b820191905f5260205f20905b81548152906001019060200180831161044957829003601f168201915b5050505050905090565b5f5f61047a61082a565b9050610487818585610831565b600191505092915050565b5f600254905090565b5f5f6104a561082a565b90506104b2858285610843565b6104bd8585856108d6565b60019150509392505050565b5f6012905090565b60085481565b5f5f5f8373ffffffffffffffffffffffffffffffffffffffff1673ffffffffffffffffffffffffffffffffffffffff1681526020019081526020015f20549050919050565b6105246109c6565b61052d5f610a4d565b565b5f60055f9054906101000a900473ffffffffffffffffffffffffffffffffffffffff16905090565b60606004805461056690611571565b80601f016020809104026020016040519081016040528092919081815260200182805461059290611571565b80156105dd5780601f106105b4576101008083540402835291602001916105dd565b820191905f5260205f20905b8154815290600101906020018083116105c057829003601f168201915b5050505050905090565b60075481565b600a602052805f5260405f205f915054906101000a900460ff1681565b5f5f61061461082a565b90506106218185856108d6565b600191505092915050565b60095f9054906101000a900473ffffffffffffffffffffffffffffffffffffffff1681565b60065f9054906101000a900473ffffffffffffffffffffffffffffffffffffffff1681565b7368a4d37635cdb55af61b8e58446949fb21f384e581565b5f60015f8473ffffffffffffffffffffffffffffffffffffffff1673ffffffffffffffffffffffffffffffffffffffff1681526020019081526020015f205f8373ffffffffffffffffffffffffffffffffffffffff1673ffffffffffffffffffffffffffffffffffffffff1681526020019081526020015f2054905092915050565b6107186109c6565b5f5f90505b82518110156107a15781600a5f85848151811061073d5761073c6115a1565b5b602002602001015173ffffffffffffffffffffffffffffffffffffffff1673ffffffffffffffffffffffffffffffffffffffff1681526020019081526020015f205f6101000a81548160ff021916908315150217905550808060010191505061071d565b505050565b6107ae6109c6565b5f73ffffffffffffffffffffffffffffffffffffffff168173ffffffffffffffffffffffffffffffffffffffff160361081e575f6040517f1e4fbdf7000000000000000000000000000000000000000000000000000000008152600401610815919061106f565b60405180910390fd5b61082781610a4d565b50565b5f33905090565b61083e8383836001610b10565b505050565b5f61084e848461068e565b90507fffffffffffffffffffffffffffffffffffffffffffffffffffffffffffffffff8110156108d057818110156108c1578281836040517ffb8f41b20000000000000000000000000000000000000000000000000000000081526004016108b8939291906115ce565b60405180910390fd5b6108cf84848484035f610b10565b5b50505050565b5f73ffffffffffffffffffffffffffffffffffffffff168373ffffffffffffffffffffffffffffffffffffffff1603610946575f6040517f96c6fd1e00000000000000000000000000000000000000000000000000000000815260040161093d919061106f565b60405180910390fd5b5f73ffffffffffffffffffffffffffffffffffffffff168273ffffffffffffffffffffffffffffffffffffffff16036109b6575f6040517fec442f050000000000000000000000000000000000000000000000000000000081526004016109ad919061106f565b60405180910390fd5b6109c1838383610cdf565b505050565b6109ce61082a565b73ffffffffffffffffffffffffffffffffffffffff166109ec61052f565b73ffffffffffffffffffffffffffffffffffffffff1614610a4b57610a0f61082a565b6040517f118cdaa7000000000000000000000000000000000000000000000000000000008152600401610a42919061106f565b60405180910390fd5b565b5f60055f9054906101000a900473ffffffffffffffffffffffffffffffffffffffff1690508160055f6101000a81548173ffffffffffffffffffffffffffffffffffffffff021916908373ffffffffffffffffffffffffffffffffffffffff1602179055508173ffffffffffffffffffffffffffffffffffffffff168173ffffffffffffffffffffffffffffffffffffffff167f8be0079c531659141344cd1fd0a4f28419497f9722a3daafe3b4186f6b6457e060405160405180910390a35050565b5f73ffffffffffffffffffffffffffffffffffffffff168473ffffffffffffffffffffffffffffffffffffffff1603610b80575f6040517fe602df05000000000000000000000000000000000000000000000000000000008152600401610b77919061106f565b60405180910390fd5b5f73ffffffffffffffffffffffffffffffffffffffff168373ffffffffffffffffffffffffffffffffffffffff1603610bf0575f6040517f94280d62000000000000000000000000000000000000000000000000000000008152600401610be7919061106f565b60405180910390fd5b8160015f8673ffffffffffffffffffffffffffffffffffffffff1673ffffffffffffffffffffffffffffffffffffffff1681526020019081526020015f205f8573ffffffffffffffffffffffffffffffffffffffff1673ffffffffffffffffffffffffffffffffffffffff1681526020019081526020015f20819055508015610cd9578273ffffffffffffffffffffffffffffffffffffffff168473ffffffffffffffffffffffffffffffffffffffff167f8c5be1e5ebec7d5bd14f71427d1e84f3dd0314c0f7b2291e5b200ac8c7c3b92584604051610cd09190611206565b60405180910390a35b50505050565b600b5f9054906101000a900460ff1680610d2457505f73ffffffffffffffffffffffffffffffffffffffff168373ffffffffffffffffffffffffffffffffffffffff16145b80610d5a57505f73ffffffffffffffffffffffffffffffffffffffff168273ffffffffffffffffffffffffffffffffffffffff16145b80610dab5750600a5f8473ffffffffffffffffffffffffffffffffffffffff1673ffffffffffffffffffffffffffffffffffffffff1681526020019081526020015f205f9054906101000a900460ff165b80610dfc5750600a5f8373ffffffffffffffffffffffffffffffffffffffff1673ffffffffffffffffffffffffffffffffffffffff1681526020019081526020015f205f9054906101000a900460ff165b15610e1157610e0c838383610e17565b610e12565b5b505050565b5f73ffffffffffffffffffffffffffffffffffffffff168373ffffffffffffffffffffffffffffffffffffffff1603610e67578060025f828254610e5b9190611630565b92505081905550610f35565b5f5f5f8573ffffffffffffffffffffffffffffffffffffffff1673ffffffffffffffffffffffffffffffffffffffff1681526020019081526020015f2054905081811015610ef0578381836040517fe450d38c000000000000000000000000000000000000000000000000000000008152600401610ee7939291906115ce565b60405180910390fd5b8181035f5f8673ffffffffffffffffffffffffffffffffffffffff1673ffffffffffffffffffffffffffffffffffffffff1681526020019081526020015f2081905550505b5f73ffffffffffffffffffffffffffffffffffffffff168273ffffffffffffffffffffffffffffffffffffffff1603610f7c578060025f8282540392505081905550610fc6565b805f5f8473ffffffffffffffffffffffffffffffffffffffff1673ffffffffffffffffffffffffffffffffffffffff1681526020019081526020015f205f82825401925050819055505b8173ffffffffffffffffffffffffffffffffffffffff168373ffffffffffffffffffffffffffffffffffffffff167fddf252ad1be2c89b69c2b068fc378daa952ba7f163c4a11628f55a4df523b3ef836040516110239190611206565b60405180910390a3505050565b5f73ffffffffffffffffffffffffffffffffffffffff82169050919050565b5f61105982611030565b9050919050565b6110698161104f565b82525050565b5f6020820190506110825f830184611060565b92915050565b5f81519050919050565b5f82825260208201905092915050565b8281835e5f83830152505050565b5f601f19601f8301169050919050565b5f6110ca82611088565b6110d48185611092565b93506110e48185602086016110a2565b6110ed816110b0565b840191505092915050565b5f6020820190508181035f83015261111081846110c0565b905092915050565b5f604051905090565b5f5ffd5b5f5ffd5b6111328161104f565b811461113c575f5ffd5b50565b5f8135905061114d81611129565b92915050565b5f819050919050565b61116581611153565b811461116f575f5ffd5b50565b5f813590506111808161115c565b92915050565b5f5f6040838503121561119c5761119b611121565b5b5f6111a98582860161113f565b92505060206111ba85828601611172565b9150509250929050565b5f8115159050919050565b6111d8816111c4565b82525050565b5f6020820190506111f15f8301846111cf565b92915050565b61120081611153565b82525050565b5f6020820190506112195f8301846111f7565b92915050565b5f5f5f6060848603121561123657611235611121565b5b5f6112438682870161113f565b93505060206112548682870161113f565b925050604061126586828701611172565b9150509250925092565b5f60ff82169050919050565b6112848161126f565b82525050565b5f60208201905061129d5f83018461127b565b92915050565b5f602082840312156112b8576112b7611121565b5b5f6112c58482850161113f565b91505092915050565b5f819050919050565b5f6112f16112ec6112e784611030565b6112ce565b611030565b9050919050565b5f611302826112d7565b9050919050565b5f611313826112f8565b9050919050565b61132381611309565b82525050565b5f60208201905061133c5f83018461131a565b92915050565b5f5f6040838503121561135857611357611121565b5b5f6113658582860161113f565b92505060206113768582860161113f565b9150509250929050565b5f5ffd5b7f4e487b71000000000000000000000000000000000000000000000000000000005f52604160045260245ffd5b6113ba826110b0565b810181811067ffffffffffffffff821117156113d9576113d8611384565b5b80604052505050565b5f6113eb611118565b90506113f782826113b1565b919050565b5f67ffffffffffffffff82111561141657611415611384565b5b602082029050602081019050919050565b5f5ffd5b5f61143d611438846113fc565b6113e2565b905080838252602082019050602084028301858111156114605761145f611427565b5b835b818110156114895780611475888261113f565b845260208401935050602081019050611462565b5050509392505050565b5f82601f8301126114a7576114a6611380565b5b81356114b784826020860161142b565b91505092915050565b6114c9816111c4565b81146114d3575f5ffd5b50565b5f813590506114e4816114c0565b92915050565b5f5f60408385031215611500576114ff611121565b5b5f83013567ffffffffffffffff81111561151d5761151c611125565b5b61152985828601611493565b925050602061153a858286016114d6565b9150509250929050565b7f4e487b71000000000000000000000000000000000000000000000000000000005f52602260045260245ffd5b5f600282049050600182168061158857607f821691505b60208210810361159b5761159a611544565b5b50919050565b7f4e487b71000000000000000000000000000000000000000000000000000000005f52603260045260245ffd5b5f6060820190506115e15f830186611060565b6115ee60208301856111f7565b6115fb60408301846111f7565b949350505050565b7f4e487b71000000000000000000000000000000000000000000000000000000005f52601160045260245ffd5b5f61163a82611153565b915061164583611153565b925082820190508082111561165d5761165c611603565b5b9291505056fea264697066735822122042e105d850219eda533c0fa3a946643f674c2609abf28fdfa433aeabf4100af964736f6c634300081e0033","linkReferences":{}},"methodIdentifiers":{"ADX()":"dcea0a64","DEAD()":"03fd2a45","allowance(address,address)":"dd62ed3e","allowlist(address)":"a7cd52cb","approve(address,uint256)":"095ea7b3","balanceOf(address)":"70a08231","buy_tax_rate()":"6e620c45","decimals()":"313ce567","name()":"06fdde03","owner()":"8da5cb5b","pancakePair()":"b8c9d25c","pancakeRouter()":"c21ebd07","renounceOwnership()":"715018a6","sell_tax_rate()":"a1f97050","setAllowlist(address[],bool)":"f01fe7c4","symbol()":"95d89b41","totalSupply()":"18160ddd","transfer(address,uint256)":"a9059cbb","transferFrom(address,address,uint256)":"23b872dd","transferOwnership(address)":"f2fde38b"},"id":42}