{"abi":[{"type":"receive","stateMutability":"payable"},{"type":"function","name":"DEAD","inputs":[],"outputs":[{"name":"","type":"address","internalType":"address"}],"stateMutability":"view"},{"type":"function","name":"UPGRADE_INTERFACE_VERSION","inputs":[],"outputs":[{"name":"","type":"string","internalType":"string"}],"stateMutability":"view"},{"type":"function","name":"USDT","inputs":[],"outputs":[{"name":"","type":"address","internalType":"address"}],"stateMutability":"view"},{"type":"function","name":"acquireSpecifiedUsdt","inputs":[{"name":"to","type":"address","internalType":"address"},{"name":"needUSDT","type":"uint256","internalType":"uint256"}],"outputs":[],"stateMutability":"nonpayable"},{"type":"function","name":"addLiquidity","inputs":[{"name":"amountUSDT","type":"uint256","internalType":"uint256"}],"outputs":[],"stateMutability":"nonpayable"},{"type":"function","name":"emergencyWithdraw","inputs":[{"name":"_token","type":"address","internalType":"address"},{"name":"_amount","type":"uint256","internalType":"uint256"},{"name":"_to","type":"address","internalType":"address"}],"outputs":[],"stateMutability":"nonpayable"},{"type":"function","name":"getNeedLP","inputs":[{"name":"amountUSDT","type":"uint256","internalType":"uint256"}],"outputs":[{"name":"","type":"uint256","internalType":"uint256"}],"stateMutability":"view"},{"type":"function","name":"initialize","inputs":[{"name":"_usdt","type":"address","internalType":"address"},{"name":"_token","type":"address","internalType":"address"},{"name":"_subToken","type":"address","internalType":"address"},{"name":"_recipientForBurn","type":"address","internalType":"address"}],"outputs":[],"stateMutability":"nonpayable"},{"type":"function","name":"owner","inputs":[],"outputs":[{"name":"","type":"address","internalType":"address"}],"stateMutability":"view"},{"type":"function","name":"pancakeRouter","inputs":[],"outputs":[{"name":"","type":"address","internalType":"contract IUniswapV2Router02"}],"stateMutability":"view"},{"type":"function","name":"proxiableUUID","inputs":[],"outputs":[{"name":"","type":"bytes32","internalType":"bytes32"}],"stateMutability":"view"},{"type":"function","name":"quoteLPValue","inputs":[{"name":"pair","type":"address","internalType":"address"}],"outputs":[{"name":"tokenAmount","type":"uint256","internalType":"uint256"},{"name":"usdtAmount","type":"uint256","internalType":"uint256"}],"stateMutability":"view"},{"type":"function","name":"recipientForBurn","inputs":[],"outputs":[{"name":"","type":"address","internalType":"address"}],"stateMutability":"view"},{"type":"function","name":"renounceOwnership","inputs":[],"outputs":[],"stateMutability":"nonpayable"},{"type":"function","name":"setStaking","inputs":[{"name":"_staking","type":"address","internalType":"address"}],"outputs":[],"stateMutability":"nonpayable"},{"type":"function","name":"staking","inputs":[],"outputs":[{"name":"","type":"address","internalType":"address"}],"stateMutability":"view"},{"type":"function","name":"subToken","inputs":[],"outputs":[{"name":"","type":"address","internalType":"address"}],"stateMutability":"view"},{"type":"function","name":"swapForSubTokenToUser","inputs":[{"name":"to","type":"address","internalType":"address"},{"name":"amountUSDT","type":"uint256","internalType":"uint256"}],"outputs":[],"stateMutability":"nonpayable"},{"type":"function","name":"token","inputs":[],"outputs":[{"name":"","type":"address","internalType":"address"}],"stateMutability":"view"},{"type":"function","name":"transferOwnership","inputs":[{"name":"newOwner","type":"address","internalType":"address"}],"outputs":[],"stateMutability":"nonpayable"},{"type":"function","name":"upgradeToAndCall","inputs":[{"name":"newImplementation","type":"address","internalType":"address"},{"name":"data","type":"bytes","internalType":"bytes"}],"outputs":[],"stateMutability":"payable"},{"type":"event","name":"Initialized","inputs":[{"name":"version","type":"uint64","indexed":false,"internalType":"uint64"}],"anonymous":false},{"type":"event","name":"OwnershipTransferred","inputs":[{"name":"previousOwner","type":"address","indexed":true,"internalType":"address"},{"name":"newOwner","type":"address","indexed":true,"internalType":"address"}],"anonymous":false},{"type":"event","name":"Upgraded","inputs":[{"name":"implementation","type":"address","indexed":true,"internalType":"address"}],"anonymous":false},{"type":"error","name":"AddressEmptyCode","inputs":[{"name":"target","type":"address","internalType":"address"}]},{"type":"error","name":"AmountTooLow","inputs":[]},{"type":"error","name":"ERC1967InvalidImplementation","inputs":[{"name":"implementation","type":"address","internalType":"address"}]},{"type":"error","name":"ERC1967NonPayable","inputs":[]},{"type":"error","name":"FailedCall","inputs":[]},{"type":"error","name":"InsufficientLiquidity","inputs":[]},{"type":"error","name":"InvalidAmount","inputs":[]},{"type":"error","name":"InvalidInitialization","inputs":[]},{"type":"error","name":"NoLiquidity","inputs":[]},{"type":"error","name":"NotInitializing","inputs":[]},{"type":"error","name":"OwnableInvalidOwner","inputs":[{"name":"owner","type":"address","internalType":"address"}]},{"type":"error","name":"OwnableUnauthorizedAccount","inputs":[{"name":"account","type":"address","internalType":"address"}]},{"type":"error","name":"ReentrancyGuardReentrantCall","inputs":[]},{"type":"error","name":"UUPSUnauthorizedCallContext","inputs":[]},{"type":"error","name":"UUPSUnsupportedProxiableUUID","inputs":[{"name":"slot","type":"bytes32","internalType":"bytes32"}]}],"bytecode":{"object":"0x60a06040523073ffffffffffffffffffffffffffffffffffffffff1660809073ffffffffffffffffffffffffffffffffffffffff168152503480156041575f5ffd5b5060015f8190555060805161406e61006f5f395f8181612585015281816125da01526129a2015261406e5ff3fe60806040526004361061012d575f3560e01c80638da5cb5b116100aa578063e27aaafa1161006e578063e27aaafa146103ce578063e9ffa9f4146103f8578063f2fde38b14610422578063f8c8765e1461044a578063fb54682714610472578063fc0c546a146104ae5761016d565b80638da5cb5b146102fe5780638ff3909914610328578063ad3cb1cc14610350578063c21ebd071461037a578063c54e44eb146103a45761016d565b806351c6590a116100f157806351c6590a1461024657806352d1902d1461026e578063551512de14610298578063715018a6146102c057806379e32cd9146102d65761016d565b806303fd2a451461017157806308a60d9b1461019b5780632d019c42146101d85780634cf088d9146102005780634f1ef2861461022a5761016d565b3661016d576040517f08c379a000000000000000000000000000000000000000000000000000000000815260040161016490613040565b60405180910390fd5b5f5ffd5b34801561017c575f5ffd5b506101856104d8565b604051610192919061309d565b60405180910390f35b3480156101a6575f5ffd5b506101c160048036038101906101bc91906130f1565b6104de565b6040516101cf929190613134565b60405180910390f35b3480156101e3575f5ffd5b506101fe60048036038101906101f99190613185565b610ade565b005b34801561020b575f5ffd5b5061021461131f565b604051610221919061309d565b60405180910390f35b610244600480360381019061023f91906132ff565b611344565b005b348015610251575f5ffd5b5061026c60048036038101906102679190613359565b611363565b005b348015610279575f5ffd5b506102826117fb565b60405161028f919061339c565b60405180910390f35b3480156102a3575f5ffd5b506102be60048036038101906102b991906133b5565b61182c565b005b3480156102cb575f5ffd5b506102d4611844565b005b3480156102e1575f5ffd5b506102fc60048036038101906102f79190613185565b611857565b005b348015610309575f5ffd5b50610312611a09565b60405161031f919061309d565b60405180910390f35b348015610333575f5ffd5b5061034e600480360381019061034991906130f1565b611a3e565b005b34801561035b575f5ffd5b50610364611a89565b6040516103719190613455565b60405180910390f35b348015610385575f5ffd5b5061038e611ac2565b60405161039b91906134d0565b60405180910390f35b3480156103af575f5ffd5b506103b8611ada565b6040516103c5919061309d565b60405180910390f35b3480156103d9575f5ffd5b506103e2611aff565b6040516103ef919061309d565b60405180910390f35b348015610403575f5ffd5b5061040c611b24565b604051610419919061309d565b60405180910390f35b34801561042d575f5ffd5b50610448600480360381019061044391906130f1565b611b49565b005b348015610455575f5ffd5b50610470600480360381019061046b91906134e9565b611bcd565b005b34801561047d575f5ffd5b5061049860048036038101906104939190613359565b611e58565b6040516104a5919061354d565b60405180910390f35b3480156104b9575f5ffd5b506104c26121ff565b6040516104cf919061309d565b60405180910390f35b61dead81565b5f5f5f5f8473ffffffffffffffffffffffffffffffffffffffff16630902f1ac6040518163ffffffff1660e01b8152600401606060405180830381865afa15801561052b573d5f5f3e3d5ffd5b505050506040513d601f19601f8201168201806040525081019061054f91906135e2565b50915091505f8573ffffffffffffffffffffffffffffffffffffffff166318160ddd6040518163ffffffff1660e01b8152600401602060405180830381865afa15801561059e573d5f5f3e3d5ffd5b505050506040513d601f19601f820116820180604052508101906105c29190613646565b90505f8673ffffffffffffffffffffffffffffffffffffffff16630dfe16816040518163ffffffff1660e01b8152600401602060405180830381865afa15801561060e573d5f5f3e3d5ffd5b505050506040513d601f19601f820116820180604052508101906106329190613685565b90505f8773ffffffffffffffffffffffffffffffffffffffff1663d21220a76040518163ffffffff1660e01b8152600401602060405180830381865afa15801561067e573d5f5f3e3d5ffd5b505050506040513d601f19601f820116820180604052508101906106a29190613685565b905060025f9054906101000a900473ffffffffffffffffffffffffffffffffffffffff1673ffffffffffffffffffffffffffffffffffffffff168273ffffffffffffffffffffffffffffffffffffffff16148061074b575060025f9054906101000a900473ffffffffffffffffffffffffffffffffffffffff1673ffffffffffffffffffffffffffffffffffffffff168173ffffffffffffffffffffffffffffffffffffffff16145b61078a576040517f08c379a0000000000000000000000000000000000000000000000000000000008152600401610781906136fa565b60405180910390fd5b60015f9054906101000a900473ffffffffffffffffffffffffffffffffffffffff1673ffffffffffffffffffffffffffffffffffffffff168273ffffffffffffffffffffffffffffffffffffffff161480610831575060015f9054906101000a900473ffffffffffffffffffffffffffffffffffffffff1673ffffffffffffffffffffffffffffffffffffffff168173ffffffffffffffffffffffffffffffffffffffff16145b610870576040517f08c379a000000000000000000000000000000000000000000000000000000000815260040161086790613762565b60405180910390fd5b60025f9054906101000a900473ffffffffffffffffffffffffffffffffffffffff1673ffffffffffffffffffffffffffffffffffffffff168273ffffffffffffffffffffffffffffffffffffffff16148015610918575060015f9054906101000a900473ffffffffffffffffffffffffffffffffffffffff1673ffffffffffffffffffffffffffffffffffffffff168173ffffffffffffffffffffffffffffffffffffffff16145b156109845782670de0b6b3a7640000866dffffffffffffffffffffffffffff1661094291906137ad565b61094c919061381b565b965082670de0b6b3a7640000856dffffffffffffffffffffffffffff1661097391906137ad565b61097d919061381b565b9550610ad4565b60015f9054906101000a900473ffffffffffffffffffffffffffffffffffffffff1673ffffffffffffffffffffffffffffffffffffffff168273ffffffffffffffffffffffffffffffffffffffff16148015610a2c575060025f9054906101000a900473ffffffffffffffffffffffffffffffffffffffff1673ffffffffffffffffffffffffffffffffffffffff168173ffffffffffffffffffffffffffffffffffffffff16145b15610a985782670de0b6b3a7640000856dffffffffffffffffffffffffffff16610a5691906137ad565b610a60919061381b565b965082670de0b6b3a7640000866dffffffffffffffffffffffffffff16610a8791906137ad565b610a91919061381b565b9550610ad3565b6040517f08c379a0000000000000000000000000000000000000000000000000000000008152600401610aca90613895565b60405180910390fd5b5b5050505050915091565b3373ffffffffffffffffffffffffffffffffffffffff1660055f9054906101000a900473ffffffffffffffffffffffffffffffffffffffff1673ffffffffffffffffffffffffffffffffffffffff1614610b6d576040517f08c379a0000000000000000000000000000000000000000000000000000000008152600401610b64906138fd565b60405180910390fd5b674563918244f400008111610bae576040517f2c5211c600000000000000000000000000000000000000000000000000000000815260040160405180910390fd5b5f7310ed43c718714eb63d5aa57b78b54704e256024e73ffffffffffffffffffffffffffffffffffffffff1663c45a01556040518163ffffffff1660e01b8152600401602060405180830381865afa158015610c0c573d5f5f3e3d5ffd5b505050506040513d601f19601f82011682018060405250810190610c309190613685565b73ffffffffffffffffffffffffffffffffffffffff1663e6a4390560015f9054906101000a900473ffffffffffffffffffffffffffffffffffffffff1660025f9054906101000a900473ffffffffffffffffffffffffffffffffffffffff166040518363ffffffff1660e01b8152600401610cac92919061391b565b602060405180830381865afa158015610cc7573d5f5f3e3d5ffd5b505050506040513d601f19601f82011682018060405250810190610ceb9190613685565b90505f8173ffffffffffffffffffffffffffffffffffffffff166370a08231306040518263ffffffff1660e01b8152600401610d27919061309d565b602060405180830381865afa158015610d42573d5f5f3e3d5ffd5b505050506040513d601f19601f82011682018060405250810190610d669190613646565b90505f8103610da1576040517fc301e07e00000000000000000000000000000000000000000000000000000000815260040160405180910390fd5b5f5f610dac846104de565b915091505f600267ffffffffffffffff811115610dcc57610dcb6131db565b5b604051908082528060200260200182016040528015610dfa5781602001602082028036833780820191505090505b50905060025f9054906101000a900473ffffffffffffffffffffffffffffffffffffffff16815f81518110610e3257610e31613942565b5b602002602001019073ffffffffffffffffffffffffffffffffffffffff16908173ffffffffffffffffffffffffffffffffffffffff168152505060015f9054906101000a900473ffffffffffffffffffffffffffffffffffffffff1681600181518110610ea257610ea1613942565b5b602002602001019073ffffffffffffffffffffffffffffffffffffffff16908173ffffffffffffffffffffffffffffffffffffffff16815250505f7310ed43c718714eb63d5aa57b78b54704e256024e73ffffffffffffffffffffffffffffffffffffffff16631f00ca74600289610f1a919061381b565b846040518363ffffffff1660e01b8152600401610f38929190613a26565b5f60405180830381865afa158015610f52573d5f5f3e3d5ffd5b505050506040513d5f823e3d601f19601f82011682018060405250810190610f7a9190613b18565b90505f84670de0b6b3a7640000835f81518110610f9a57610f99613942565b5b6020026020010151610fac91906137ad565b610fb6919061381b565b90505f84670de0b6b3a764000060028b610fd0919061381b565b610fda91906137ad565b610fe4919061381b565b90505f818311610ff45781610ff6565b825b905087811115611032576040517fbb55fd2700000000000000000000000000000000000000000000000000000000815260040160405180910390fd5b61103c8982612224565b5f60025f9054906101000a900473ffffffffffffffffffffffffffffffffffffffff1673ffffffffffffffffffffffffffffffffffffffff166370a08231306040518263ffffffff1660e01b8152600401611097919061309d565b602060405180830381865afa1580156110b2573d5f5f3e3d5ffd5b505050506040513d601f19601f820116820180604052508101906110d69190613646565b905061111860025f9054906101000a900473ffffffffffffffffffffffffffffffffffffffff167310ed43c718714eb63d5aa57b78b54704e256024e83612323565b7310ed43c718714eb63d5aa57b78b54704e256024e73ffffffffffffffffffffffffffffffffffffffff16635c11d795825f8930601e426111599190613b5f565b6040518663ffffffff1660e01b8152600401611179959493929190613bcb565b5f604051808303815f87803b158015611190575f5ffd5b505af11580156111a2573d5f5f3e3d5ffd5b505050505f60015f9054906101000a900473ffffffffffffffffffffffffffffffffffffffff1673ffffffffffffffffffffffffffffffffffffffff166370a08231306040518263ffffffff1660e01b8152600401611201919061309d565b602060405180830381865afa15801561121c573d5f5f3e3d5ffd5b505050506040513d601f19601f820116820180604052508101906112409190613646565b90508b81101561127c576040517f1fbaba3500000000000000000000000000000000000000000000000000000000815260040160405180910390fd5b6112bb60015f9054906101000a900473ffffffffffffffffffffffffffffffffffffffff168e674563918244f400008f6112b69190613c23565b612453565b61131060015f9054906101000a900473ffffffffffffffffffffffffffffffffffffffff1660045f9054906101000a900473ffffffffffffffffffffffffffffffffffffffff16674563918244f40000612453565b50505050505050505050505050565b60055f9054906101000a900473ffffffffffffffffffffffffffffffffffffffff1681565b61134c612583565b61135582612669565b61135f8282612674565b5050565b3373ffffffffffffffffffffffffffffffffffffffff1660055f9054906101000a900473ffffffffffffffffffffffffffffffffffffffff1673ffffffffffffffffffffffffffffffffffffffff16146113f2576040517f08c379a00000000000000000000000000000000000000000000000000000000081526004016113e9906138fd565b60405180910390fd5b5f600282611400919061381b565b90505f60025f9054906101000a900473ffffffffffffffffffffffffffffffffffffffff1673ffffffffffffffffffffffffffffffffffffffff166370a08231306040518263ffffffff1660e01b815260040161145d919061309d565b602060405180830381865afa158015611478573d5f5f3e3d5ffd5b505050506040513d601f19601f8201168201806040525081019061149c9190613646565b90506114eb60015f9054906101000a900473ffffffffffffffffffffffffffffffffffffffff1660025f9054906101000a900473ffffffffffffffffffffffffffffffffffffffff1684612792565b5f60025f9054906101000a900473ffffffffffffffffffffffffffffffffffffffff1673ffffffffffffffffffffffffffffffffffffffff166370a08231306040518263ffffffff1660e01b8152600401611546919061309d565b602060405180830381865afa158015611561573d5f5f3e3d5ffd5b505050506040513d601f19601f820116820180604052508101906115859190613646565b90505f83856115949190613c23565b90505f83836115a39190613c23565b905060015f9054906101000a900473ffffffffffffffffffffffffffffffffffffffff1673ffffffffffffffffffffffffffffffffffffffff1663095ea7b37310ed43c718714eb63d5aa57b78b54704e256024e846040518363ffffffff1660e01b8152600401611615929190613c56565b6020604051808303815f875af1158015611631573d5f5f3e3d5ffd5b505050506040513d601f19601f820116820180604052508101906116559190613cb2565b5060025f9054906101000a900473ffffffffffffffffffffffffffffffffffffffff1673ffffffffffffffffffffffffffffffffffffffff1663095ea7b37310ed43c718714eb63d5aa57b78b54704e256024e836040518363ffffffff1660e01b81526004016116c6929190613c56565b6020604051808303815f875af11580156116e2573d5f5f3e3d5ffd5b505050506040513d601f19601f820116820180604052508101906117069190613cb2565b507310ed43c718714eb63d5aa57b78b54704e256024e73ffffffffffffffffffffffffffffffffffffffff1663e8e3370060015f9054906101000a900473ffffffffffffffffffffffffffffffffffffffff1660025f9054906101000a900473ffffffffffffffffffffffffffffffffffffffff1685855f5f30601e4261178d9190613b5f565b6040518963ffffffff1660e01b81526004016117b0989796959493929190613cdd565b6060604051808303815f875af11580156117cc573d5f5f3e3d5ffd5b505050506040513d601f19601f820116820180604052508101906117f09190613d59565b505050505050505050565b5f6118046129a0565b7f360894a13ba1a3210667c828492db98dca3e2076cc3735a920a3ca505d382bbc5f1b905090565b611834612a27565b61183f838284612453565b505050565b61184c612a27565b6118555f612aae565b565b3373ffffffffffffffffffffffffffffffffffffffff1660055f9054906101000a900473ffffffffffffffffffffffffffffffffffffffff1673ffffffffffffffffffffffffffffffffffffffff16146118e6576040517f08c379a00000000000000000000000000000000000000000000000000000000081526004016118dd906138fd565b60405180910390fd5b5f810315611a055761193b60015f9054906101000a900473ffffffffffffffffffffffffffffffffffffffff1660035f9054906101000a900473ffffffffffffffffffffffffffffffffffffffff1683612792565b5f60035f9054906101000a900473ffffffffffffffffffffffffffffffffffffffff1673ffffffffffffffffffffffffffffffffffffffff166370a08231306040518263ffffffff1660e01b8152600401611996919061309d565b602060405180830381865afa1580156119b1573d5f5f3e3d5ffd5b505050506040513d601f19601f820116820180604052508101906119d59190613646565b9050611a0360035f9054906101000a900473ffffffffffffffffffffffffffffffffffffffff168483612453565b505b5050565b5f5f611a13612b7f565b9050805f015f9054906101000a900473ffffffffffffffffffffffffffffffffffffffff1691505090565b611a46612a27565b8060055f6101000a81548173ffffffffffffffffffffffffffffffffffffffff021916908373ffffffffffffffffffffffffffffffffffffffff16021790555050565b6040518060400160405280600581526020017f352e302e3000000000000000000000000000000000000000000000000000000081525081565b7310ed43c718714eb63d5aa57b78b54704e256024e81565b60015f9054906101000a900473ffffffffffffffffffffffffffffffffffffffff1681565b60045f9054906101000a900473ffffffffffffffffffffffffffffffffffffffff1681565b60035f9054906101000a900473ffffffffffffffffffffffffffffffffffffffff1681565b611b51612a27565b5f73ffffffffffffffffffffffffffffffffffffffff168173ffffffffffffffffffffffffffffffffffffffff1603611bc1575f6040517f1e4fbdf7000000000000000000000000000000000000000000000000000000008152600401611bb8919061309d565b60405180910390fd5b611bca81612aae565b50565b5f611bd6612ba6565b90505f815f0160089054906101000a900460ff161590505f825f015f9054906101000a900467ffffffffffffffff1690505f5f8267ffffffffffffffff16148015611c1e5750825b90505f60018367ffffffffffffffff16148015611c5157505f3073ffffffffffffffffffffffffffffffffffffffff163b145b905081158015611c5f575080155b15611c96576040517ff92ee8a900000000000000000000000000000000000000000000000000000000815260040160405180910390fd5b6001855f015f6101000a81548167ffffffffffffffff021916908367ffffffffffffffff1602179055508315611ce3576001855f0160086101000a81548160ff0219169083151502179055505b611cf3611cee612bb9565b612bc0565b8860015f6101000a81548173ffffffffffffffffffffffffffffffffffffffff021916908373ffffffffffffffffffffffffffffffffffffffff1602179055508560045f6101000a81548173ffffffffffffffffffffffffffffffffffffffff021916908373ffffffffffffffffffffffffffffffffffffffff1602179055508760025f6101000a81548173ffffffffffffffffffffffffffffffffffffffff021916908373ffffffffffffffffffffffffffffffffffffffff1602179055508660035f6101000a81548173ffffffffffffffffffffffffffffffffffffffff021916908373ffffffffffffffffffffffffffffffffffffffff1602179055508315611e4d575f855f0160086101000a81548160ff0219169083151502179055507fc7f505b2f371ae2175ee4913f4499e1f2633a7b5936321eed1cdaeb6115181d26001604051611e449190613df5565b60405180910390a15b505050505050505050565b5f5f7310ed43c718714eb63d5aa57b78b54704e256024e73ffffffffffffffffffffffffffffffffffffffff1663c45a01556040518163ffffffff1660e01b8152600401602060405180830381865afa158015611eb7573d5f5f3e3d5ffd5b505050506040513d601f19601f82011682018060405250810190611edb9190613685565b73ffffffffffffffffffffffffffffffffffffffff1663e6a4390560015f9054906101000a900473ffffffffffffffffffffffffffffffffffffffff1660025f9054906101000a900473ffffffffffffffffffffffffffffffffffffffff166040518363ffffffff1660e01b8152600401611f5792919061391b565b602060405180830381865afa158015611f72573d5f5f3e3d5ffd5b505050506040513d601f19601f82011682018060405250810190611f969190613685565b90505f5f611fa3836104de565b915091505f600267ffffffffffffffff811115611fc357611fc26131db565b5b604051908082528060200260200182016040528015611ff15781602001602082028036833780820191505090505b50905060025f9054906101000a900473ffffffffffffffffffffffffffffffffffffffff16815f8151811061202957612028613942565b5b602002602001019073ffffffffffffffffffffffffffffffffffffffff16908173ffffffffffffffffffffffffffffffffffffffff168152505060015f9054906101000a900473ffffffffffffffffffffffffffffffffffffffff168160018151811061209957612098613942565b5b602002602001019073ffffffffffffffffffffffffffffffffffffffff16908173ffffffffffffffffffffffffffffffffffffffff16815250505f7310ed43c718714eb63d5aa57b78b54704e256024e73ffffffffffffffffffffffffffffffffffffffff16631f00ca74600289612111919061381b565b846040518363ffffffff1660e01b815260040161212f929190613a26565b5f60405180830381865afa158015612149573d5f5f3e3d5ffd5b505050506040513d5f823e3d601f19601f820116820180604052508101906121719190613b18565b90505f84670de0b6b3a7640000835f8151811061219157612190613942565b5b60200260200101516121a391906137ad565b6121ad919061381b565b90505f84670de0b6b3a764000060028b6121c7919061381b565b6121d191906137ad565b6121db919061381b565b90505f8183116121eb57816121ed565b825b90508098505050505050505050919050565b60025f9054906101000a900473ffffffffffffffffffffffffffffffffffffffff1681565b612243827310ed43c718714eb63d5aa57b78b54704e256024e83612323565b7310ed43c718714eb63d5aa57b78b54704e256024e73ffffffffffffffffffffffffffffffffffffffff1663baa2abde60025f9054906101000a900473ffffffffffffffffffffffffffffffffffffffff1660015f9054906101000a900473ffffffffffffffffffffffffffffffffffffffff16845f5f30426040518863ffffffff1660e01b81526004016122de9796959493929190613e0e565b60408051808303815f875af11580156122f9573d5f5f3e3d5ffd5b505050506040513d601f19601f8201168201806040525081019061231d9190613e7b565b50505050565b5f5f8473ffffffffffffffffffffffffffffffffffffffff1663095ea7b38585604051602401612354929190613c56565b6040516020818303038152906040529060e01b6020820180517bffffffffffffffffffffffffffffffffffffffffffffffffffffffff83818316178352505050506040516123a29190613efd565b5f604051808303815f865af19150503d805f81146123db576040519150601f19603f3d011682016040523d82523d5f602084013e6123e0565b606091505b509150915081801561240d57505f8151148061240c57508080602001905181019061240b9190613cb2565b5b5b61244c576040517f08c379a000000000000000000000000000000000000000000000000000000000815260040161244390613f5d565b60405180910390fd5b5050505050565b5f5f8473ffffffffffffffffffffffffffffffffffffffff1663a9059cbb8585604051602401612484929190613c56565b6040516020818303038152906040529060e01b6020820180517bffffffffffffffffffffffffffffffffffffffffffffffffffffffff83818316178352505050506040516124d29190613efd565b5f604051808303815f865af19150503d805f811461250b576040519150601f19603f3d011682016040523d82523d5f602084013e612510565b606091505b509150915081801561253d57505f8151148061253c57508080602001905181019061253b9190613cb2565b5b5b61257c576040517f08c379a000000000000000000000000000000000000000000000000000000000815260040161257390613fc5565b60405180910390fd5b5050505050565b7f000000000000000000000000000000000000000000000000000000000000000073ffffffffffffffffffffffffffffffffffffffff163073ffffffffffffffffffffffffffffffffffffffff16148061263057507f000000000000000000000000000000000000000000000000000000000000000073ffffffffffffffffffffffffffffffffffffffff16612617612bd4565b73ffffffffffffffffffffffffffffffffffffffff1614155b15612667576040517fe07c8dba00000000000000000000000000000000000000000000000000000000815260040160405180910390fd5b565b612671612a27565b50565b8173ffffffffffffffffffffffffffffffffffffffff166352d1902d6040518163ffffffff1660e01b8152600401602060405180830381865afa9250505080156126dc57506040513d601f19601f820116820180604052508101906126d9919061400d565b60015b61271d57816040517f4c9c8ce3000000000000000000000000000000000000000000000000000000008152600401612714919061309d565b60405180910390fd5b7f360894a13ba1a3210667c828492db98dca3e2076cc3735a920a3ca505d382bbc5f1b811461278357806040517faa1d49a400000000000000000000000000000000000000000000000000000000815260040161277a919061339c565b60405180910390fd5b61278d8383612c27565b505050565b5f600267ffffffffffffffff8111156127ae576127ad6131db565b5b6040519080825280602002602001820160405280156127dc5781602001602082028036833780820191505090505b50905083815f815181106127f3576127f2613942565b5b602002602001019073ffffffffffffffffffffffffffffffffffffffff16908173ffffffffffffffffffffffffffffffffffffffff1681525050828160018151811061284257612841613942565b5b602002602001019073ffffffffffffffffffffffffffffffffffffffff16908173ffffffffffffffffffffffffffffffffffffffff16815250508373ffffffffffffffffffffffffffffffffffffffff1663095ea7b37310ed43c718714eb63d5aa57b78b54704e256024e846040518363ffffffff1660e01b81526004016128cb929190613c56565b6020604051808303815f875af11580156128e7573d5f5f3e3d5ffd5b505050506040513d601f19601f8201168201806040525081019061290b9190613cb2565b507310ed43c718714eb63d5aa57b78b54704e256024e73ffffffffffffffffffffffffffffffffffffffff16635c11d795835f8430601e4261294d9190613b5f565b6040518663ffffffff1660e01b815260040161296d959493929190613bcb565b5f604051808303815f87803b158015612984575f5ffd5b505af1158015612996573d5f5f3e3d5ffd5b5050505050505050565b7f000000000000000000000000000000000000000000000000000000000000000073ffffffffffffffffffffffffffffffffffffffff163073ffffffffffffffffffffffffffffffffffffffff1614612a25576040517fe07c8dba00000000000000000000000000000000000000000000000000000000815260040160405180910390fd5b565b612a2f612bb9565b73ffffffffffffffffffffffffffffffffffffffff16612a4d611a09565b73ffffffffffffffffffffffffffffffffffffffff1614612aac57612a70612bb9565b6040517f118cdaa7000000000000000000000000000000000000000000000000000000008152600401612aa3919061309d565b60405180910390fd5b565b5f612ab7612b7f565b90505f815f015f9054906101000a900473ffffffffffffffffffffffffffffffffffffffff16905082825f015f6101000a81548173ffffffffffffffffffffffffffffffffffffffff021916908373ffffffffffffffffffffffffffffffffffffffff1602179055508273ffffffffffffffffffffffffffffffffffffffff168173ffffffffffffffffffffffffffffffffffffffff167f8be0079c531659141344cd1fd0a4f28419497f9722a3daafe3b4186f6b6457e060405160405180910390a3505050565b5f7f9016d09d72d40fdae2fd8ceac6b6234c7706214fd39c1cd1e609a0528c199300905090565b5f5f612bb0612c99565b90508091505090565b5f33905090565b612bc8612cc2565b612bd181612d02565b50565b5f612c007f360894a13ba1a3210667c828492db98dca3e2076cc3735a920a3ca505d382bbc5f1b612d86565b5f015f9054906101000a900473ffffffffffffffffffffffffffffffffffffffff16905090565b612c3082612d8f565b8173ffffffffffffffffffffffffffffffffffffffff167fbc7cd75a20ee27fd9adebab32041f755214dbc6bffa90cc0225b39da2e5c2d3b60405160405180910390a25f81511115612c8c57612c868282612e58565b50612c95565b612c94612f49565b5b5050565b5f7ff0c57e16840df040f15088dc2f81fe391c3923bec73e23a9662efc9c229c6a005f1b905090565b612cca612f85565b612d00576040517fd7e6bcf800000000000000000000000000000000000000000000000000000000815260040160405180910390fd5b565b612d0a612cc2565b5f73ffffffffffffffffffffffffffffffffffffffff168173ffffffffffffffffffffffffffffffffffffffff1603612d7a575f6040517f1e4fbdf7000000000000000000000000000000000000000000000000000000008152600401612d71919061309d565b60405180910390fd5b612d8381612aae565b50565b5f819050919050565b5f8173ffffffffffffffffffffffffffffffffffffffff163b03612dea57806040517f4c9c8ce3000000000000000000000000000000000000000000000000000000008152600401612de1919061309d565b60405180910390fd5b80612e167f360894a13ba1a3210667c828492db98dca3e2076cc3735a920a3ca505d382bbc5f1b612d86565b5f015f6101000a81548173ffffffffffffffffffffffffffffffffffffffff021916908373ffffffffffffffffffffffffffffffffffffffff16021790555050565b60605f612e658484612fa3565b9050808015612e9b57505f612e78612fb7565b1180612e9a57505f8473ffffffffffffffffffffffffffffffffffffffff163b115b5b15612eb057612ea8612fbe565b915050612f43565b8015612ef357836040517f9996b315000000000000000000000000000000000000000000000000000000008152600401612eea919061309d565b60405180910390fd5b5f612efc612fb7565b1115612f0f57612f0a612fdb565b612f41565b6040517fd6bda27500000000000000000000000000000000000000000000000000000000815260040160405180910390fd5b505b92915050565b5f341115612f83576040517fb398979f00000000000000000000000000000000000000000000000000000000815260040160405180910390fd5b565b5f612f8e612ba6565b5f0160089054906101000a900460ff16905090565b5f5f5f835160208501865af4905092915050565b5f3d905090565b606060405190503d81523d5f602083013e3d602001810160405290565b6040513d5f823e3d81fd5b5f82825260208201905092915050565b7f4e4f5f4449524543545f53454e440000000000000000000000000000000000005f82015250565b5f61302a600e83612fe6565b915061303582612ff6565b602082019050919050565b5f6020820190508181035f8301526130578161301e565b9050919050565b5f73ffffffffffffffffffffffffffffffffffffffff82169050919050565b5f6130878261305e565b9050919050565b6130978161307d565b82525050565b5f6020820190506130b05f83018461308e565b92915050565b5f604051905090565b5f5ffd5b5f5ffd5b6130d08161307d565b81146130da575f5ffd5b50565b5f813590506130eb816130c7565b92915050565b5f60208284031215613106576131056130bf565b5b5f613113848285016130dd565b91505092915050565b5f819050919050565b61312e8161311c565b82525050565b5f6040820190506131475f830185613125565b6131546020830184613125565b9392505050565b6131648161311c565b811461316e575f5ffd5b50565b5f8135905061317f8161315b565b92915050565b5f5f6040838503121561319b5761319a6130bf565b5b5f6131a8858286016130dd565b92505060206131b985828601613171565b9150509250929050565b5f5ffd5b5f5ffd5b5f601f19601f8301169050919050565b7f4e487b71000000000000000000000000000000000000000000000000000000005f52604160045260245ffd5b613211826131cb565b810181811067ffffffffffffffff821117156132305761322f6131db565b5b80604052505050565b5f6132426130b6565b905061324e8282613208565b919050565b5f67ffffffffffffffff82111561326d5761326c6131db565b5b613276826131cb565b9050602081019050919050565b828183375f83830152505050565b5f6132a361329e84613253565b613239565b9050828152602081018484840111156132bf576132be6131c7565b5b6132ca848285613283565b509392505050565b5f82601f8301126132e6576132e56131c3565b5b81356132f6848260208601613291565b91505092915050565b5f5f60408385031215613315576133146130bf565b5b5f613322858286016130dd565b925050602083013567ffffffffffffffff811115613343576133426130c3565b5b61334f858286016132d2565b9150509250929050565b5f6020828403121561336e5761336d6130bf565b5b5f61337b84828501613171565b91505092915050565b5f819050919050565b61339681613384565b82525050565b5f6020820190506133af5f83018461338d565b92915050565b5f5f5f606084860312156133cc576133cb6130bf565b5b5f6133d9868287016130dd565b93505060206133ea86828701613171565b92505060406133fb868287016130dd565b9150509250925092565b5f81519050919050565b8281835e5f83830152505050565b5f61342782613405565b6134318185612fe6565b935061344181856020860161340f565b61344a816131cb565b840191505092915050565b5f6020820190508181035f83015261346d818461341d565b905092915050565b5f819050919050565b5f61349861349361348e8461305e565b613475565b61305e565b9050919050565b5f6134a98261347e565b9050919050565b5f6134ba8261349f565b9050919050565b6134ca816134b0565b82525050565b5f6020820190506134e35f8301846134c1565b92915050565b5f5f5f5f60808587031215613501576135006130bf565b5b5f61350e878288016130dd565b945050602061351f878288016130dd565b9350506040613530878288016130dd565b9250506060613541878288016130dd565b91505092959194509250565b5f6020820190506135605f830184613125565b92915050565b5f6dffffffffffffffffffffffffffff82169050919050565b61358881613566565b8114613592575f5ffd5b50565b5f815190506135a38161357f565b92915050565b5f63ffffffff82169050919050565b6135c1816135a9565b81146135cb575f5ffd5b50565b5f815190506135dc816135b8565b92915050565b5f5f5f606084860312156135f9576135f86130bf565b5b5f61360686828701613595565b935050602061361786828701613595565b9250506040613628868287016135ce565b9150509250925092565b5f815190506136408161315b565b92915050565b5f6020828403121561365b5761365a6130bf565b5b5f61366884828501613632565b91505092915050565b5f8151905061367f816130c7565b92915050565b5f6020828403121561369a576136996130bf565b5b5f6136a784828501613671565b91505092915050565b7f746f6b656e206e6f7420696e20706169720000000000000000000000000000005f82015250565b5f6136e4601183612fe6565b91506136ef826136b0565b602082019050919050565b5f6020820190508181035f830152613711816136d8565b9050919050565b7f55534454206e6f7420696e2070616972000000000000000000000000000000005f82015250565b5f61374c601083612fe6565b915061375782613718565b602082019050919050565b5f6020820190508181035f83015261377981613740565b9050919050565b7f4e487b71000000000000000000000000000000000000000000000000000000005f52601160045260245ffd5b5f6137b78261311c565b91506137c28361311c565b92508282026137d08161311c565b915082820484148315176137e7576137e6613780565b5b5092915050565b7f4e487b71000000000000000000000000000000000000000000000000000000005f52601260045260245ffd5b5f6138258261311c565b91506138308361311c565b9250826138405761383f6137ee565b5b828204905092915050565b7f696e76616c6964207061697200000000000000000000000000000000000000005f82015250565b5f61387f600c83612fe6565b915061388a8261384b565b602082019050919050565b5f6020820190508181035f8301526138ac81613873565b9050919050565b7f4e6f74207065726d69742e0000000000000000000000000000000000000000005f82015250565b5f6138e7600b83612fe6565b91506138f2826138b3565b602082019050919050565b5f6020820190508181035f830152613914816138db565b9050919050565b5f60408201905061392e5f83018561308e565b61393b602083018461308e565b9392505050565b7f4e487b71000000000000000000000000000000000000000000000000000000005f52603260045260245ffd5b5f81519050919050565b5f82825260208201905092915050565b5f819050602082019050919050565b6139a18161307d565b82525050565b5f6139b28383613998565b60208301905092915050565b5f602082019050919050565b5f6139d48261396f565b6139de8185613979565b93506139e983613989565b805f5b83811015613a19578151613a0088826139a7565b9750613a0b836139be565b9250506001810190506139ec565b5085935050505092915050565b5f604082019050613a395f830185613125565b8181036020830152613a4b81846139ca565b90509392505050565b5f67ffffffffffffffff821115613a6e57613a6d6131db565b5b602082029050602081019050919050565b5f5ffd5b5f613a95613a9084613a54565b613239565b90508083825260208201905060208402830185811115613ab857613ab7613a7f565b5b835b81811015613ae15780613acd8882613632565b845260208401935050602081019050613aba565b5050509392505050565b5f82601f830112613aff57613afe6131c3565b5b8151613b0f848260208601613a83565b91505092915050565b5f60208284031215613b2d57613b2c6130bf565b5b5f82015167ffffffffffffffff811115613b4a57613b496130c3565b5b613b5684828501613aeb565b91505092915050565b5f613b698261311c565b9150613b748361311c565b9250828201905080821115613b8c57613b8b613780565b5b92915050565b5f819050919050565b5f613bb5613bb0613bab84613b92565b613475565b61311c565b9050919050565b613bc581613b9b565b82525050565b5f60a082019050613bde5f830188613125565b613beb6020830187613bbc565b8181036040830152613bfd81866139ca565b9050613c0c606083018561308e565b613c196080830184613125565b9695505050505050565b5f613c2d8261311c565b9150613c388361311c565b9250828203905081811115613c5057613c4f613780565b5b92915050565b5f604082019050613c695f83018561308e565b613c766020830184613125565b9392505050565b5f8115159050919050565b613c9181613c7d565b8114613c9b575f5ffd5b50565b5f81519050613cac81613c88565b92915050565b5f60208284031215613cc757613cc66130bf565b5b5f613cd484828501613c9e565b91505092915050565b5f61010082019050613cf15f83018b61308e565b613cfe602083018a61308e565b613d0b6040830189613125565b613d186060830188613125565b613d256080830187613bbc565b613d3260a0830186613bbc565b613d3f60c083018561308e565b613d4c60e0830184613125565b9998505050505050505050565b5f5f5f60608486031215613d7057613d6f6130bf565b5b5f613d7d86828701613632565b9350506020613d8e86828701613632565b9250506040613d9f86828701613632565b9150509250925092565b5f819050919050565b5f67ffffffffffffffff82169050919050565b5f613ddf613dda613dd584613da9565b613475565b613db2565b9050919050565b613def81613dc5565b82525050565b5f602082019050613e085f830184613de6565b92915050565b5f60e082019050613e215f83018a61308e565b613e2e602083018961308e565b613e3b6040830188613125565b613e486060830187613bbc565b613e556080830186613bbc565b613e6260a083018561308e565b613e6f60c0830184613125565b98975050505050505050565b5f5f60408385031215613e9157613e906130bf565b5b5f613e9e85828601613632565b9250506020613eaf85828601613632565b9150509250929050565b5f81519050919050565b5f81905092915050565b5f613ed782613eb9565b613ee18185613ec3565b9350613ef181856020860161340f565b80840191505092915050565b5f613f088284613ecd565b915081905092915050565b7f5472616e7366657248656c7065723a20415050524f56455f4641494c454400005f82015250565b5f613f47601e83612fe6565b9150613f5282613f13565b602082019050919050565b5f6020820190508181035f830152613f7481613f3b565b9050919050565b7f5472616e7366657248656c7065723a205452414e534645525f4641494c4544005f82015250565b5f613faf601f83612fe6565b9150613fba82613f7b565b602082019050919050565b5f6020820190508181035f830152613fdc81613fa3565b9050919050565b613fec81613384565b8114613ff6575f5ffd5b50565b5f8151905061400781613fe3565b92915050565b5f60208284031215614022576140216130bf565b5b5f61402f84828501613ff9565b9150509291505056fea2646970667358221220ee3c70bd998e4181d2a0bdb655c04f44cfda6c91af65a5594a831c45cc8564d164736f6c634300081e0033","linkReferences":{}},"methodIdentifiers":{"DEAD()":"03fd2a45","UPGRADE_INTERFACE_VERSION()":"ad3cb1cc","USDT()":"c54e44eb","acquireSpecifiedUsdt(address,uint256)":"2d019c42","addLiquidity(uint256)":"51c6590a","emergencyWithdraw(address,uint256,address)":"551512de","getNeedLP(uint256)":"fb546827","initialize(address,address,address,address)":"f8c8765e","owner()":"8da5cb5b","pancakeRouter()":"c21ebd07","proxiableUUID()":"52d1902d","quoteLPValue(address)":"08a60d9b","recipientForBurn()":"e27aaafa","renounceOwnership()":"715018a6","setStaking(address)":"8ff39099","staking()":"4cf088d9","subToken()":"e9ffa9f4","swapForSubTokenToUser(address,uint256)":"79e32cd9","token()":"fc0c546a","transferOwnership(address)":"f2fde38b","upgradeToAndCall(address,bytes)":"4f1ef286"},"id":51}