{"abi":[{"type":"receive","stateMutability":"payable"},{"type":"function","name":"DEAD","inputs":[],"outputs":[{"name":"","type":"address","internalType":"address"}],"stateMutability":"view"},{"type":"function","name":"UPGRADE_INTERFACE_VERSION","inputs":[],"outputs":[{"name":"","type":"string","internalType":"string"}],"stateMutability":"view"},{"type":"function","name":"USDT","inputs":[],"outputs":[{"name":"","type":"address","internalType":"address"}],"stateMutability":"view"},{"type":"function","name":"acquireSpecifiedUsdt","inputs":[{"name":"to","type":"address","internalType":"address"},{"name":"needUSDT","type":"uint256","internalType":"uint256"}],"outputs":[],"stateMutability":"nonpayable"},{"type":"function","name":"addLiquidity","inputs":[{"name":"amountUSDT","type":"uint256","internalType":"uint256"}],"outputs":[],"stateMutability":"nonpayable"},{"type":"function","name":"emergencyWithdraw","inputs":[{"name":"_token","type":"address","internalType":"address"},{"name":"_amount","type":"uint256","internalType":"uint256"},{"name":"_to","type":"address","internalType":"address"}],"outputs":[],"stateMutability":"nonpayable"},{"type":"function","name":"getNeedLP","inputs":[{"name":"amountUSDT","type":"uint256","internalType":"uint256"}],"outputs":[{"name":"","type":"uint256","internalType":"uint256"}],"stateMutability":"view"},{"type":"function","name":"initialize","inputs":[{"name":"_token","type":"address","internalType":"address"},{"name":"_subToken","type":"address","internalType":"address"}],"outputs":[],"stateMutability":"nonpayable"},{"type":"function","name":"owner","inputs":[],"outputs":[{"name":"","type":"address","internalType":"address"}],"stateMutability":"view"},{"type":"function","name":"pancakeRouter","inputs":[],"outputs":[{"name":"","type":"address","internalType":"contract IUniswapV2Router02"}],"stateMutability":"view"},{"type":"function","name":"proxiableUUID","inputs":[],"outputs":[{"name":"","type":"bytes32","internalType":"bytes32"}],"stateMutability":"view"},{"type":"function","name":"quoteLPValue","inputs":[{"name":"pair","type":"address","internalType":"address"}],"outputs":[{"name":"tokenAmount","type":"uint256","internalType":"uint256"},{"name":"usdtAmount","type":"uint256","internalType":"uint256"}],"stateMutability":"view"},{"type":"function","name":"renounceOwnership","inputs":[],"outputs":[],"stateMutability":"nonpayable"},{"type":"function","name":"setStaking","inputs":[{"name":"_staking","type":"address","internalType":"address"}],"outputs":[],"stateMutability":"nonpayable"},{"type":"function","name":"staking","inputs":[],"outputs":[{"name":"","type":"address","internalType":"address"}],"stateMutability":"view"},{"type":"function","name":"subToken","inputs":[],"outputs":[{"name":"","type":"address","internalType":"address"}],"stateMutability":"view"},{"type":"function","name":"swapForSubTokenToBurn","inputs":[{"name":"amountUSDT","type":"uint256","internalType":"uint256"}],"outputs":[],"stateMutability":"nonpayable"},{"type":"function","name":"swapForSubTokenToUser","inputs":[{"name":"to","type":"address","internalType":"address"},{"name":"amountUSDT","type":"uint256","internalType":"uint256"}],"outputs":[],"stateMutability":"nonpayable"},{"type":"function","name":"token","inputs":[],"outputs":[{"name":"","type":"address","internalType":"address"}],"stateMutability":"view"},{"type":"function","name":"transferOwnership","inputs":[{"name":"newOwner","type":"address","internalType":"address"}],"outputs":[],"stateMutability":"nonpayable"},{"type":"function","name":"upgradeToAndCall","inputs":[{"name":"newImplementation","type":"address","internalType":"address"},{"name":"data","type":"bytes","internalType":"bytes"}],"outputs":[],"stateMutability":"payable"},{"type":"event","name":"Initialized","inputs":[{"name":"version","type":"uint64","indexed":false,"internalType":"uint64"}],"anonymous":false},{"type":"event","name":"OwnershipTransferred","inputs":[{"name":"previousOwner","type":"address","indexed":true,"internalType":"address"},{"name":"newOwner","type":"address","indexed":true,"internalType":"address"}],"anonymous":false},{"type":"event","name":"Upgraded","inputs":[{"name":"implementation","type":"address","indexed":true,"internalType":"address"}],"anonymous":false},{"type":"error","name":"AddressEmptyCode","inputs":[{"name":"target","type":"address","internalType":"address"}]},{"type":"error","name":"AmountTooLow","inputs":[]},{"type":"error","name":"ERC1967InvalidImplementation","inputs":[{"name":"implementation","type":"address","internalType":"address"}]},{"type":"error","name":"ERC1967NonPayable","inputs":[]},{"type":"error","name":"FailedCall","inputs":[]},{"type":"error","name":"InsufficientLiquidity","inputs":[]},{"type":"error","name":"InvalidAmount","inputs":[]},{"type":"error","name":"InvalidInitialization","inputs":[]},{"type":"error","name":"NoLiquidity","inputs":[]},{"type":"error","name":"NotInitializing","inputs":[]},{"type":"error","name":"OwnableInvalidOwner","inputs":[{"name":"owner","type":"address","internalType":"address"}]},{"type":"error","name":"OwnableUnauthorizedAccount","inputs":[{"name":"account","type":"address","internalType":"address"}]},{"type":"error","name":"ReentrancyGuardReentrantCall","inputs":[]},{"type":"error","name":"UUPSUnauthorizedCallContext","inputs":[]},{"type":"error","name":"UUPSUnsupportedProxiableUUID","inputs":[{"name":"slot","type":"bytes32","internalType":"bytes32"}]}],"bytecode":{"object":"0x60a06040523073ffffffffffffffffffffffffffffffffffffffff1660809073ffffffffffffffffffffffffffffffffffffffff168152503480156041575f5ffd5b5060015f8190555060805161439f61006f5f395f8181612b1801528181612b6d0152612d27015261439f5ff3fe60806040526004361061012d575f3560e01c8063715018a6116100aa578063c21ebd071161006e578063c21ebd07146103ca578063c54e44eb146103f4578063e9ffa9f41461041e578063f2fde38b14610448578063fb54682714610470578063fc0c546a146104ac5761016d565b8063715018a61461031057806379e32cd9146103265780638da5cb5b1461034e5780638ff3909914610378578063ad3cb1cc146103a05761016d565b80634cf088d9116100f15780634cf088d9146102505780634f1ef2861461027a57806351c6590a1461029657806352d1902d146102be578063551512de146102e85761016d565b806303ec9fb01461017157806303fd2a451461019957806308a60d9b146101c35780632d019c4214610200578063485cc955146102285761016d565b3661016d576040517f08c379a000000000000000000000000000000000000000000000000000000000815260040161016490613397565b60405180910390fd5b5f5ffd5b34801561017c575f5ffd5b50610197600480360381019061019291906133f9565b6104d6565b005b3480156101a4575f5ffd5b506101ad61067c565b6040516101ba9190613463565b60405180910390f35b3480156101ce575f5ffd5b506101e960048036038101906101e491906134a6565b610682565b6040516101f79291906134e0565b60405180910390f35b34801561020b575f5ffd5b5061022660048036038101906102219190613507565b610c4e565b005b348015610233575f5ffd5b5061024e60048036038101906102499190613545565b611417565b005b34801561025b575f5ffd5b50610264611620565b6040516102719190613463565b60405180910390f35b610294600480360381019061028f91906136bf565b611645565b005b3480156102a1575f5ffd5b506102bc60048036038101906102b791906133f9565b611664565b005b3480156102c9575f5ffd5b506102d2611ad5565b6040516102df9190613731565b60405180910390f35b3480156102f3575f5ffd5b5061030e6004803603810190610309919061374a565b611b06565b005b34801561031b575f5ffd5b50610324611b1e565b005b348015610331575f5ffd5b5061034c60048036038101906103479190613507565b611b31565b005b348015610359575f5ffd5b50610362611cd6565b60405161036f9190613463565b60405180910390f35b348015610383575f5ffd5b5061039e600480360381019061039991906134a6565b611d0b565b005b3480156103ab575f5ffd5b506103b4611d56565b6040516103c191906137ea565b60405180910390f35b3480156103d5575f5ffd5b506103de611d8f565b6040516103eb9190613865565b60405180910390f35b3480156103ff575f5ffd5b50610408611da7565b6040516104159190613463565b60405180910390f35b348015610429575f5ffd5b50610432611dbf565b60405161043f9190613463565b60405180910390f35b348015610453575f5ffd5b5061046e600480360381019061046991906134a6565b611de4565b005b34801561047b575f5ffd5b50610496600480360381019061049191906133f9565b611e68565b6040516104a3919061387e565b60405180910390f35b3480156104b7575f5ffd5b506104c06121f5565b6040516104cd9190613463565b60405180910390f35b3373ffffffffffffffffffffffffffffffffffffffff1660035f9054906101000a900473ffffffffffffffffffffffffffffffffffffffff1673ffffffffffffffffffffffffffffffffffffffff1614610565576040517f08c379a000000000000000000000000000000000000000000000000000000000815260040161055c906138e1565b60405180910390fd5b5f810315610679576105ad7355d398326f99059ff775485246999027b319795560025f9054906101000a900473ffffffffffffffffffffffffffffffffffffffff168361221a565b5f60025f9054906101000a900473ffffffffffffffffffffffffffffffffffffffff1673ffffffffffffffffffffffffffffffffffffffff166370a08231306040518263ffffffff1660e01b81526004016106089190613463565b602060405180830381865afa158015610623573d5f5f3e3d5ffd5b505050506040513d601f19601f820116820180604052508101906106479190613913565b905061067760025f9054906101000a900473ffffffffffffffffffffffffffffffffffffffff1661dead83612428565b505b50565b61dead81565b5f5f5f5f8473ffffffffffffffffffffffffffffffffffffffff16630902f1ac6040518163ffffffff1660e01b8152600401606060405180830381865afa1580156106cf573d5f5f3e3d5ffd5b505050506040513d601f19601f820116820180604052508101906106f391906139ba565b50915091505f8573ffffffffffffffffffffffffffffffffffffffff166318160ddd6040518163ffffffff1660e01b8152600401602060405180830381865afa158015610742573d5f5f3e3d5ffd5b505050506040513d601f19601f820116820180604052508101906107669190613913565b90505f8673ffffffffffffffffffffffffffffffffffffffff16630dfe16816040518163ffffffff1660e01b8152600401602060405180830381865afa1580156107b2573d5f5f3e3d5ffd5b505050506040513d601f19601f820116820180604052508101906107d69190613a1e565b90505f8773ffffffffffffffffffffffffffffffffffffffff1663d21220a76040518163ffffffff1660e01b8152600401602060405180830381865afa158015610822573d5f5f3e3d5ffd5b505050506040513d601f19601f820116820180604052508101906108469190613a1e565b905060015f9054906101000a900473ffffffffffffffffffffffffffffffffffffffff1673ffffffffffffffffffffffffffffffffffffffff168273ffffffffffffffffffffffffffffffffffffffff1614806108ef575060015f9054906101000a900473ffffffffffffffffffffffffffffffffffffffff1673ffffffffffffffffffffffffffffffffffffffff168173ffffffffffffffffffffffffffffffffffffffff16145b61092e576040517f08c379a000000000000000000000000000000000000000000000000000000000815260040161092590613a93565b60405180910390fd5b7355d398326f99059ff775485246999027b319795573ffffffffffffffffffffffffffffffffffffffff168273ffffffffffffffffffffffffffffffffffffffff1614806109bb57507355d398326f99059ff775485246999027b319795573ffffffffffffffffffffffffffffffffffffffff168173ffffffffffffffffffffffffffffffffffffffff16145b6109fa576040517f08c379a00000000000000000000000000000000000000000000000000000000081526004016109f190613afb565b60405180910390fd5b60015f9054906101000a900473ffffffffffffffffffffffffffffffffffffffff1673ffffffffffffffffffffffffffffffffffffffff168273ffffffffffffffffffffffffffffffffffffffff16148015610a9557507355d398326f99059ff775485246999027b319795573ffffffffffffffffffffffffffffffffffffffff168173ffffffffffffffffffffffffffffffffffffffff16145b15610b015782670de0b6b3a7640000866dffffffffffffffffffffffffffff16610abf9190613b46565b610ac99190613bb4565b965082670de0b6b3a7640000856dffffffffffffffffffffffffffff16610af09190613b46565b610afa9190613bb4565b9550610c44565b7355d398326f99059ff775485246999027b319795573ffffffffffffffffffffffffffffffffffffffff168273ffffffffffffffffffffffffffffffffffffffff16148015610b9c575060015f9054906101000a900473ffffffffffffffffffffffffffffffffffffffff1673ffffffffffffffffffffffffffffffffffffffff168173ffffffffffffffffffffffffffffffffffffffff16145b15610c085782670de0b6b3a7640000856dffffffffffffffffffffffffffff16610bc69190613b46565b610bd09190613bb4565b965082670de0b6b3a7640000866dffffffffffffffffffffffffffff16610bf79190613b46565b610c019190613bb4565b9550610c43565b6040517f08c379a0000000000000000000000000000000000000000000000000000000008152600401610c3a90613c2e565b60405180910390fd5b5b5050505050915091565b3373ffffffffffffffffffffffffffffffffffffffff1660035f9054906101000a900473ffffffffffffffffffffffffffffffffffffffff1673ffffffffffffffffffffffffffffffffffffffff1614610cdd576040517f08c379a0000000000000000000000000000000000000000000000000000000008152600401610cd4906138e1565b60405180910390fd5b674563918244f400008111610d1e576040517f2c5211c600000000000000000000000000000000000000000000000000000000815260040160405180910390fd5b5f7310ed43c718714eb63d5aa57b78b54704e256024e73ffffffffffffffffffffffffffffffffffffffff1663c45a01556040518163ffffffff1660e01b8152600401602060405180830381865afa158015610d7c573d5f5f3e3d5ffd5b505050506040513d601f19601f82011682018060405250810190610da09190613a1e565b73ffffffffffffffffffffffffffffffffffffffff1663e6a439057355d398326f99059ff775485246999027b319795560015f9054906101000a900473ffffffffffffffffffffffffffffffffffffffff166040518363ffffffff1660e01b8152600401610e0f929190613c4c565b602060405180830381865afa158015610e2a573d5f5f3e3d5ffd5b505050506040513d601f19601f82011682018060405250810190610e4e9190613a1e565b90505f8173ffffffffffffffffffffffffffffffffffffffff166370a08231306040518263ffffffff1660e01b8152600401610e8a9190613463565b602060405180830381865afa158015610ea5573d5f5f3e3d5ffd5b505050506040513d601f19601f82011682018060405250810190610ec99190613913565b90505f8103610f04576040517fc301e07e00000000000000000000000000000000000000000000000000000000815260040160405180910390fd5b5f5f610f0f84610682565b915091505f600267ffffffffffffffff811115610f2f57610f2e61359b565b5b604051908082528060200260200182016040528015610f5d5781602001602082028036833780820191505090505b50905060015f9054906101000a900473ffffffffffffffffffffffffffffffffffffffff16815f81518110610f9557610f94613c73565b5b602002602001019073ffffffffffffffffffffffffffffffffffffffff16908173ffffffffffffffffffffffffffffffffffffffff16815250507355d398326f99059ff775485246999027b319795581600181518110610ff857610ff7613c73565b5b602002602001019073ffffffffffffffffffffffffffffffffffffffff16908173ffffffffffffffffffffffffffffffffffffffff16815250505f7310ed43c718714eb63d5aa57b78b54704e256024e73ffffffffffffffffffffffffffffffffffffffff16631f00ca746002896110709190613bb4565b846040518363ffffffff1660e01b815260040161108e929190613d57565b5f60405180830381865afa1580156110a8573d5f5f3e3d5ffd5b505050506040513d5f823e3d601f19601f820116820180604052508101906110d09190613e49565b90505f84670de0b6b3a7640000835f815181106110f0576110ef613c73565b5b60200260200101516111029190613b46565b61110c9190613bb4565b90505f84670de0b6b3a764000060028b6111269190613bb4565b6111309190613b46565b61113a9190613bb4565b90505f81831161114a578161114c565b825b905087811115611188576040517fbb55fd2700000000000000000000000000000000000000000000000000000000815260040160405180910390fd5b6111928982612558565b5f60015f9054906101000a900473ffffffffffffffffffffffffffffffffffffffff1673ffffffffffffffffffffffffffffffffffffffff166370a08231306040518263ffffffff1660e01b81526004016111ed9190613463565b602060405180830381865afa158015611208573d5f5f3e3d5ffd5b505050506040513d601f19601f8201168201806040525081019061122c9190613913565b905061126e60015f9054906101000a900473ffffffffffffffffffffffffffffffffffffffff167310ed43c718714eb63d5aa57b78b54704e256024e8361264a565b7310ed43c718714eb63d5aa57b78b54704e256024e73ffffffffffffffffffffffffffffffffffffffff16635c11d795825f8930601e426112af9190613e90565b6040518663ffffffff1660e01b81526004016112cf959493929190613efc565b5f604051808303815f87803b1580156112e6575f5ffd5b505af11580156112f8573d5f5f3e3d5ffd5b505050505f7355d398326f99059ff775485246999027b319795573ffffffffffffffffffffffffffffffffffffffff166370a08231306040518263ffffffff1660e01b815260040161134a9190613463565b602060405180830381865afa158015611365573d5f5f3e3d5ffd5b505050506040513d601f19601f820116820180604052508101906113899190613913565b90508b8110156113c5576040517f1fbaba3500000000000000000000000000000000000000000000000000000000815260040160405180910390fd5b6113f77355d398326f99059ff775485246999027b31979558e674563918244f400008f6113f29190613f54565b612428565b611408674563918244f4000061277a565b50505050505050505050505050565b5f611420612ae8565b90505f815f0160089054906101000a900460ff161590505f825f015f9054906101000a900467ffffffffffffffff1690505f5f8267ffffffffffffffff161480156114685750825b90505f60018367ffffffffffffffff1614801561149b57505f3073ffffffffffffffffffffffffffffffffffffffff163b145b9050811580156114a9575080155b156114e0576040517ff92ee8a900000000000000000000000000000000000000000000000000000000815260040160405180910390fd5b6001855f015f6101000a81548167ffffffffffffffff021916908367ffffffffffffffff160217905550831561152d576001855f0160086101000a81548160ff0219169083151502179055505b61153d611538612afb565b612b02565b8660015f6101000a81548173ffffffffffffffffffffffffffffffffffffffff021916908373ffffffffffffffffffffffffffffffffffffffff1602179055508560025f6101000a81548173ffffffffffffffffffffffffffffffffffffffff021916908373ffffffffffffffffffffffffffffffffffffffff1602179055508315611617575f855f0160086101000a81548160ff0219169083151502179055507fc7f505b2f371ae2175ee4913f4499e1f2633a7b5936321eed1cdaeb6115181d2600160405161160e9190613fd3565b60405180910390a15b50505050505050565b60035f9054906101000a900473ffffffffffffffffffffffffffffffffffffffff1681565b61164d612b16565b61165682612bfc565b6116608282612c07565b5050565b3373ffffffffffffffffffffffffffffffffffffffff1660035f9054906101000a900473ffffffffffffffffffffffffffffffffffffffff1673ffffffffffffffffffffffffffffffffffffffff16146116f3576040517f08c379a00000000000000000000000000000000000000000000000000000000081526004016116ea906138e1565b60405180910390fd5b5f6002826117019190613bb4565b90505f60015f9054906101000a900473ffffffffffffffffffffffffffffffffffffffff1673ffffffffffffffffffffffffffffffffffffffff166370a08231306040518263ffffffff1660e01b815260040161175e9190613463565b602060405180830381865afa158015611779573d5f5f3e3d5ffd5b505050506040513d601f19601f8201168201806040525081019061179d9190613913565b90506117df7355d398326f99059ff775485246999027b319795560015f9054906101000a900473ffffffffffffffffffffffffffffffffffffffff168461221a565b5f60015f9054906101000a900473ffffffffffffffffffffffffffffffffffffffff1673ffffffffffffffffffffffffffffffffffffffff166370a08231306040518263ffffffff1660e01b815260040161183a9190613463565b602060405180830381865afa158015611855573d5f5f3e3d5ffd5b505050506040513d601f19601f820116820180604052508101906118799190613913565b90505f83856118889190613f54565b90505f83836118979190613f54565b90507355d398326f99059ff775485246999027b319795573ffffffffffffffffffffffffffffffffffffffff1663095ea7b37310ed43c718714eb63d5aa57b78b54704e256024e846040518363ffffffff1660e01b81526004016118fc929190613fec565b6020604051808303815f875af1158015611918573d5f5f3e3d5ffd5b505050506040513d601f19601f8201168201806040525081019061193c9190614048565b5060015f9054906101000a900473ffffffffffffffffffffffffffffffffffffffff1673ffffffffffffffffffffffffffffffffffffffff1663095ea7b37310ed43c718714eb63d5aa57b78b54704e256024e836040518363ffffffff1660e01b81526004016119ad929190613fec565b6020604051808303815f875af11580156119c9573d5f5f3e3d5ffd5b505050506040513d601f19601f820116820180604052508101906119ed9190614048565b507310ed43c718714eb63d5aa57b78b54704e256024e73ffffffffffffffffffffffffffffffffffffffff1663e8e337007355d398326f99059ff775485246999027b319795560015f9054906101000a900473ffffffffffffffffffffffffffffffffffffffff1685855f5f30601e42611a679190613e90565b6040518963ffffffff1660e01b8152600401611a8a989796959493929190614073565b6060604051808303815f875af1158015611aa6573d5f5f3e3d5ffd5b505050506040513d601f19601f82011682018060405250810190611aca91906140ef565b505050505050505050565b5f611ade612d25565b7f360894a13ba1a3210667c828492db98dca3e2076cc3735a920a3ca505d382bbc5f1b905090565b611b0e612dac565b611b19838284612428565b505050565b611b26612dac565b611b2f5f612e33565b565b3373ffffffffffffffffffffffffffffffffffffffff1660035f9054906101000a900473ffffffffffffffffffffffffffffffffffffffff1673ffffffffffffffffffffffffffffffffffffffff1614611bc0576040517f08c379a0000000000000000000000000000000000000000000000000000000008152600401611bb7906138e1565b60405180910390fd5b5f810315611cd257611c087355d398326f99059ff775485246999027b319795560025f9054906101000a900473ffffffffffffffffffffffffffffffffffffffff168361221a565b5f60025f9054906101000a900473ffffffffffffffffffffffffffffffffffffffff1673ffffffffffffffffffffffffffffffffffffffff166370a08231306040518263ffffffff1660e01b8152600401611c639190613463565b602060405180830381865afa158015611c7e573d5f5f3e3d5ffd5b505050506040513d601f19601f82011682018060405250810190611ca29190613913565b9050611cd060025f9054906101000a900473ffffffffffffffffffffffffffffffffffffffff168483612428565b505b5050565b5f5f611ce0612f04565b9050805f015f9054906101000a900473ffffffffffffffffffffffffffffffffffffffff1691505090565b611d13612dac565b8060035f6101000a81548173ffffffffffffffffffffffffffffffffffffffff021916908373ffffffffffffffffffffffffffffffffffffffff16021790555050565b6040518060400160405280600581526020017f352e302e3000000000000000000000000000000000000000000000000000000081525081565b7310ed43c718714eb63d5aa57b78b54704e256024e81565b7355d398326f99059ff775485246999027b319795581565b60025f9054906101000a900473ffffffffffffffffffffffffffffffffffffffff1681565b611dec612dac565b5f73ffffffffffffffffffffffffffffffffffffffff168173ffffffffffffffffffffffffffffffffffffffff1603611e5c575f6040517f1e4fbdf7000000000000000000000000000000000000000000000000000000008152600401611e539190613463565b60405180910390fd5b611e6581612e33565b50565b5f5f7310ed43c718714eb63d5aa57b78b54704e256024e73ffffffffffffffffffffffffffffffffffffffff1663c45a01556040518163ffffffff1660e01b8152600401602060405180830381865afa158015611ec7573d5f5f3e3d5ffd5b505050506040513d601f19601f82011682018060405250810190611eeb9190613a1e565b73ffffffffffffffffffffffffffffffffffffffff1663e6a439057355d398326f99059ff775485246999027b319795560015f9054906101000a900473ffffffffffffffffffffffffffffffffffffffff166040518363ffffffff1660e01b8152600401611f5a929190613c4c565b602060405180830381865afa158015611f75573d5f5f3e3d5ffd5b505050506040513d601f19601f82011682018060405250810190611f999190613a1e565b90505f5f611fa683610682565b915091505f600267ffffffffffffffff811115611fc657611fc561359b565b5b604051908082528060200260200182016040528015611ff45781602001602082028036833780820191505090505b50905060015f9054906101000a900473ffffffffffffffffffffffffffffffffffffffff16815f8151811061202c5761202b613c73565b5b602002602001019073ffffffffffffffffffffffffffffffffffffffff16908173ffffffffffffffffffffffffffffffffffffffff16815250507355d398326f99059ff775485246999027b31979558160018151811061208f5761208e613c73565b5b602002602001019073ffffffffffffffffffffffffffffffffffffffff16908173ffffffffffffffffffffffffffffffffffffffff16815250505f7310ed43c718714eb63d5aa57b78b54704e256024e73ffffffffffffffffffffffffffffffffffffffff16631f00ca746002896121079190613bb4565b846040518363ffffffff1660e01b8152600401612125929190613d57565b5f60405180830381865afa15801561213f573d5f5f3e3d5ffd5b505050506040513d5f823e3d601f19601f820116820180604052508101906121679190613e49565b90505f84670de0b6b3a7640000835f8151811061218757612186613c73565b5b60200260200101516121999190613b46565b6121a39190613bb4565b90505f84670de0b6b3a764000060028b6121bd9190613bb4565b6121c79190613b46565b6121d19190613bb4565b90505f8183116121e157816121e3565b825b90508098505050505050505050919050565b60015f9054906101000a900473ffffffffffffffffffffffffffffffffffffffff1681565b5f600267ffffffffffffffff8111156122365761223561359b565b5b6040519080825280602002602001820160405280156122645781602001602082028036833780820191505090505b50905083815f8151811061227b5761227a613c73565b5b602002602001019073ffffffffffffffffffffffffffffffffffffffff16908173ffffffffffffffffffffffffffffffffffffffff168152505082816001815181106122ca576122c9613c73565b5b602002602001019073ffffffffffffffffffffffffffffffffffffffff16908173ffffffffffffffffffffffffffffffffffffffff16815250508373ffffffffffffffffffffffffffffffffffffffff1663095ea7b37310ed43c718714eb63d5aa57b78b54704e256024e846040518363ffffffff1660e01b8152600401612353929190613fec565b6020604051808303815f875af115801561236f573d5f5f3e3d5ffd5b505050506040513d601f19601f820116820180604052508101906123939190614048565b507310ed43c718714eb63d5aa57b78b54704e256024e73ffffffffffffffffffffffffffffffffffffffff16635c11d795835f8430601e426123d59190613e90565b6040518663ffffffff1660e01b81526004016123f5959493929190613efc565b5f604051808303815f87803b15801561240c575f5ffd5b505af115801561241e573d5f5f3e3d5ffd5b5050505050505050565b5f5f8473ffffffffffffffffffffffffffffffffffffffff1663a9059cbb8585604051602401612459929190613fec565b6040516020818303038152906040529060e01b6020820180517bffffffffffffffffffffffffffffffffffffffffffffffffffffffff83818316178352505050506040516124a79190614183565b5f604051808303815f865af19150503d805f81146124e0576040519150601f19603f3d011682016040523d82523d5f602084013e6124e5565b606091505b509150915081801561251257505f815114806125115750808060200190518101906125109190614048565b5b5b612551576040517f08c379a0000000000000000000000000000000000000000000000000000000008152600401612548906141e3565b60405180910390fd5b5050505050565b612577827310ed43c718714eb63d5aa57b78b54704e256024e8361264a565b7310ed43c718714eb63d5aa57b78b54704e256024e73ffffffffffffffffffffffffffffffffffffffff1663baa2abde60015f9054906101000a900473ffffffffffffffffffffffffffffffffffffffff167355d398326f99059ff775485246999027b3197955845f5f30426040518863ffffffff1660e01b81526004016126059796959493929190614201565b60408051808303815f875af1158015612620573d5f5f3e3d5ffd5b505050506040513d601f19601f82011682018060405250810190612644919061426e565b50505050565b5f5f8473ffffffffffffffffffffffffffffffffffffffff1663095ea7b3858560405160240161267b929190613fec565b6040516020818303038152906040529060e01b6020820180517bffffffffffffffffffffffffffffffffffffffffffffffffffffffff83818316178352505050506040516126c99190614183565b5f604051808303815f865af19150503d805f8114612702576040519150601f19603f3d011682016040523d82523d5f602084013e612707565b606091505b509150915081801561273457505f815114806127335750808060200190518101906127329190614048565b5b5b612773576040517f08c379a000000000000000000000000000000000000000000000000000000000815260040161276a906142f6565b60405180910390fd5b5050505050565b5f810315612ae5575f600267ffffffffffffffff81111561279e5761279d61359b565b5b6040519080825280602002602001820160405280156127cc5781602001602082028036833780820191505090505b5090507355d398326f99059ff775485246999027b3197955815f815181106127f7576127f6613c73565b5b602002602001019073ffffffffffffffffffffffffffffffffffffffff16908173ffffffffffffffffffffffffffffffffffffffff168152505060025f9054906101000a900473ffffffffffffffffffffffffffffffffffffffff168160018151811061286757612866613c73565b5b602002602001019073ffffffffffffffffffffffffffffffffffffffff16908173ffffffffffffffffffffffffffffffffffffffff16815250505f60025f9054906101000a900473ffffffffffffffffffffffffffffffffffffffff1673ffffffffffffffffffffffffffffffffffffffff166370a08231306040518263ffffffff1660e01b81526004016128fc9190613463565b602060405180830381865afa158015612917573d5f5f3e3d5ffd5b505050506040513d601f19601f8201168201806040525081019061293b9190613913565b90506129707355d398326f99059ff775485246999027b31979557310ed43c718714eb63d5aa57b78b54704e256024e8561264a565b7310ed43c718714eb63d5aa57b78b54704e256024e73ffffffffffffffffffffffffffffffffffffffff16635c11d795845f8530603c426129b19190613e90565b6040518663ffffffff1660e01b81526004016129d1959493929190613efc565b5f604051808303815f87803b1580156129e8575f5ffd5b505af11580156129fa573d5f5f3e3d5ffd5b505050505f60025f9054906101000a900473ffffffffffffffffffffffffffffffffffffffff1673ffffffffffffffffffffffffffffffffffffffff166370a08231306040518263ffffffff1660e01b8152600401612a599190613463565b602060405180830381865afa158015612a74573d5f5f3e3d5ffd5b505050506040513d601f19601f82011682018060405250810190612a989190613913565b90505f8282612aa79190613f54565b90505f811115612ae057612adf60025f9054906101000a900473ffffffffffffffffffffffffffffffffffffffff1661dead83612428565b5b505050505b50565b5f5f612af2612f2b565b90508091505090565b5f33905090565b612b0a612f54565b612b1381612f94565b50565b7f000000000000000000000000000000000000000000000000000000000000000073ffffffffffffffffffffffffffffffffffffffff163073ffffffffffffffffffffffffffffffffffffffff161480612bc357507f000000000000000000000000000000000000000000000000000000000000000073ffffffffffffffffffffffffffffffffffffffff16612baa613018565b73ffffffffffffffffffffffffffffffffffffffff1614155b15612bfa576040517fe07c8dba00000000000000000000000000000000000000000000000000000000815260040160405180910390fd5b565b612c04612dac565b50565b8173ffffffffffffffffffffffffffffffffffffffff166352d1902d6040518163ffffffff1660e01b8152600401602060405180830381865afa925050508015612c6f57506040513d601f19601f82011682018060405250810190612c6c919061433e565b60015b612cb057816040517f4c9c8ce3000000000000000000000000000000000000000000000000000000008152600401612ca79190613463565b60405180910390fd5b7f360894a13ba1a3210667c828492db98dca3e2076cc3735a920a3ca505d382bbc5f1b8114612d1657806040517faa1d49a4000000000000000000000000000000000000000000000000000000008152600401612d0d9190613731565b60405180910390fd5b612d20838361306b565b505050565b7f000000000000000000000000000000000000000000000000000000000000000073ffffffffffffffffffffffffffffffffffffffff163073ffffffffffffffffffffffffffffffffffffffff1614612daa576040517fe07c8dba00000000000000000000000000000000000000000000000000000000815260040160405180910390fd5b565b612db4612afb565b73ffffffffffffffffffffffffffffffffffffffff16612dd2611cd6565b73ffffffffffffffffffffffffffffffffffffffff1614612e3157612df5612afb565b6040517f118cdaa7000000000000000000000000000000000000000000000000000000008152600401612e289190613463565b60405180910390fd5b565b5f612e3c612f04565b90505f815f015f9054906101000a900473ffffffffffffffffffffffffffffffffffffffff16905082825f015f6101000a81548173ffffffffffffffffffffffffffffffffffffffff021916908373ffffffffffffffffffffffffffffffffffffffff1602179055508273ffffffffffffffffffffffffffffffffffffffff168173ffffffffffffffffffffffffffffffffffffffff167f8be0079c531659141344cd1fd0a4f28419497f9722a3daafe3b4186f6b6457e060405160405180910390a3505050565b5f7f9016d09d72d40fdae2fd8ceac6b6234c7706214fd39c1cd1e609a0528c199300905090565b5f7ff0c57e16840df040f15088dc2f81fe391c3923bec73e23a9662efc9c229c6a005f1b905090565b612f5c6130dd565b612f92576040517fd7e6bcf800000000000000000000000000000000000000000000000000000000815260040160405180910390fd5b565b612f9c612f54565b5f73ffffffffffffffffffffffffffffffffffffffff168173ffffffffffffffffffffffffffffffffffffffff160361300c575f6040517f1e4fbdf70000000000000000000000000000000000000000000000000000000081526004016130039190613463565b60405180910390fd5b61301581612e33565b50565b5f6130447f360894a13ba1a3210667c828492db98dca3e2076cc3735a920a3ca505d382bbc5f1b6130fb565b5f015f9054906101000a900473ffffffffffffffffffffffffffffffffffffffff16905090565b61307482613104565b8173ffffffffffffffffffffffffffffffffffffffff167fbc7cd75a20ee27fd9adebab32041f755214dbc6bffa90cc0225b39da2e5c2d3b60405160405180910390a25f815111156130d0576130ca82826131cd565b506130d9565b6130d86132be565b5b5050565b5f6130e6612ae8565b5f0160089054906101000a900460ff16905090565b5f819050919050565b5f8173ffffffffffffffffffffffffffffffffffffffff163b0361315f57806040517f4c9c8ce30000000000000000000000000000000000000000000000000000000081526004016131569190613463565b60405180910390fd5b8061318b7f360894a13ba1a3210667c828492db98dca3e2076cc3735a920a3ca505d382bbc5f1b6130fb565b5f015f6101000a81548173ffffffffffffffffffffffffffffffffffffffff021916908373ffffffffffffffffffffffffffffffffffffffff16021790555050565b60605f6131da84846132fa565b905080801561321057505f6131ed61330e565b118061320f57505f8473ffffffffffffffffffffffffffffffffffffffff163b115b5b156132255761321d613315565b9150506132b8565b801561326857836040517f9996b31500000000000000000000000000000000000000000000000000000000815260040161325f9190613463565b60405180910390fd5b5f61327161330e565b11156132845761327f613332565b6132b6565b6040517fd6bda27500000000000000000000000000000000000000000000000000000000815260040160405180910390fd5b505b92915050565b5f3411156132f8576040517fb398979f00000000000000000000000000000000000000000000000000000000815260040160405180910390fd5b565b5f5f5f835160208501865af4905092915050565b5f3d905090565b606060405190503d81523d5f602083013e3d602001810160405290565b6040513d5f823e3d81fd5b5f82825260208201905092915050565b7f4e4f5f4449524543545f53454e440000000000000000000000000000000000005f82015250565b5f613381600e8361333d565b915061338c8261334d565b602082019050919050565b5f6020820190508181035f8301526133ae81613375565b9050919050565b5f604051905090565b5f5ffd5b5f5ffd5b5f819050919050565b6133d8816133c6565b81146133e2575f5ffd5b50565b5f813590506133f3816133cf565b92915050565b5f6020828403121561340e5761340d6133be565b5b5f61341b848285016133e5565b91505092915050565b5f73ffffffffffffffffffffffffffffffffffffffff82169050919050565b5f61344d82613424565b9050919050565b61345d81613443565b82525050565b5f6020820190506134765f830184613454565b92915050565b61348581613443565b811461348f575f5ffd5b50565b5f813590506134a08161347c565b92915050565b5f602082840312156134bb576134ba6133be565b5b5f6134c884828501613492565b91505092915050565b6134da816133c6565b82525050565b5f6040820190506134f35f8301856134d1565b61350060208301846134d1565b9392505050565b5f5f6040838503121561351d5761351c6133be565b5b5f61352a85828601613492565b925050602061353b858286016133e5565b9150509250929050565b5f5f6040838503121561355b5761355a6133be565b5b5f61356885828601613492565b925050602061357985828601613492565b9150509250929050565b5f5ffd5b5f5ffd5b5f601f19601f8301169050919050565b7f4e487b71000000000000000000000000000000000000000000000000000000005f52604160045260245ffd5b6135d18261358b565b810181811067ffffffffffffffff821117156135f0576135ef61359b565b5b80604052505050565b5f6136026133b5565b905061360e82826135c8565b919050565b5f67ffffffffffffffff82111561362d5761362c61359b565b5b6136368261358b565b9050602081019050919050565b828183375f83830152505050565b5f61366361365e84613613565b6135f9565b90508281526020810184848401111561367f5761367e613587565b5b61368a848285613643565b509392505050565b5f82601f8301126136a6576136a5613583565b5b81356136b6848260208601613651565b91505092915050565b5f5f604083850312156136d5576136d46133be565b5b5f6136e285828601613492565b925050602083013567ffffffffffffffff811115613703576137026133c2565b5b61370f85828601613692565b9150509250929050565b5f819050919050565b61372b81613719565b82525050565b5f6020820190506137445f830184613722565b92915050565b5f5f5f60608486031215613761576137606133be565b5b5f61376e86828701613492565b935050602061377f868287016133e5565b925050604061379086828701613492565b9150509250925092565b5f81519050919050565b8281835e5f83830152505050565b5f6137bc8261379a565b6137c6818561333d565b93506137d68185602086016137a4565b6137df8161358b565b840191505092915050565b5f6020820190508181035f83015261380281846137b2565b905092915050565b5f819050919050565b5f61382d61382861382384613424565b61380a565b613424565b9050919050565b5f61383e82613813565b9050919050565b5f61384f82613834565b9050919050565b61385f81613845565b82525050565b5f6020820190506138785f830184613856565b92915050565b5f6020820190506138915f8301846134d1565b92915050565b7f4e6f74207065726d69742e0000000000000000000000000000000000000000005f82015250565b5f6138cb600b8361333d565b91506138d682613897565b602082019050919050565b5f6020820190508181035f8301526138f8816138bf565b9050919050565b5f8151905061390d816133cf565b92915050565b5f60208284031215613928576139276133be565b5b5f613935848285016138ff565b91505092915050565b5f6dffffffffffffffffffffffffffff82169050919050565b6139608161393e565b811461396a575f5ffd5b50565b5f8151905061397b81613957565b92915050565b5f63ffffffff82169050919050565b61399981613981565b81146139a3575f5ffd5b50565b5f815190506139b481613990565b92915050565b5f5f5f606084860312156139d1576139d06133be565b5b5f6139de8682870161396d565b93505060206139ef8682870161396d565b9250506040613a00868287016139a6565b9150509250925092565b5f81519050613a188161347c565b92915050565b5f60208284031215613a3357613a326133be565b5b5f613a4084828501613a0a565b91505092915050565b7f746f6b656e206e6f7420696e20706169720000000000000000000000000000005f82015250565b5f613a7d60118361333d565b9150613a8882613a49565b602082019050919050565b5f6020820190508181035f830152613aaa81613a71565b9050919050565b7f55534454206e6f7420696e2070616972000000000000000000000000000000005f82015250565b5f613ae560108361333d565b9150613af082613ab1565b602082019050919050565b5f6020820190508181035f830152613b1281613ad9565b9050919050565b7f4e487b71000000000000000000000000000000000000000000000000000000005f52601160045260245ffd5b5f613b50826133c6565b9150613b5b836133c6565b9250828202613b69816133c6565b91508282048414831517613b8057613b7f613b19565b5b5092915050565b7f4e487b71000000000000000000000000000000000000000000000000000000005f52601260045260245ffd5b5f613bbe826133c6565b9150613bc9836133c6565b925082613bd957613bd8613b87565b5b828204905092915050565b7f696e76616c6964207061697200000000000000000000000000000000000000005f82015250565b5f613c18600c8361333d565b9150613c2382613be4565b602082019050919050565b5f6020820190508181035f830152613c4581613c0c565b9050919050565b5f604082019050613c5f5f830185613454565b613c6c6020830184613454565b9392505050565b7f4e487b71000000000000000000000000000000000000000000000000000000005f52603260045260245ffd5b5f81519050919050565b5f82825260208201905092915050565b5f819050602082019050919050565b613cd281613443565b82525050565b5f613ce38383613cc9565b60208301905092915050565b5f602082019050919050565b5f613d0582613ca0565b613d0f8185613caa565b9350613d1a83613cba565b805f5b83811015613d4a578151613d318882613cd8565b9750613d3c83613cef565b925050600181019050613d1d565b5085935050505092915050565b5f604082019050613d6a5f8301856134d1565b8181036020830152613d7c8184613cfb565b90509392505050565b5f67ffffffffffffffff821115613d9f57613d9e61359b565b5b602082029050602081019050919050565b5f5ffd5b5f613dc6613dc184613d85565b6135f9565b90508083825260208201905060208402830185811115613de957613de8613db0565b5b835b81811015613e125780613dfe88826138ff565b845260208401935050602081019050613deb565b5050509392505050565b5f82601f830112613e3057613e2f613583565b5b8151613e40848260208601613db4565b91505092915050565b5f60208284031215613e5e57613e5d6133be565b5b5f82015167ffffffffffffffff811115613e7b57613e7a6133c2565b5b613e8784828501613e1c565b91505092915050565b5f613e9a826133c6565b9150613ea5836133c6565b9250828201905080821115613ebd57613ebc613b19565b5b92915050565b5f819050919050565b5f613ee6613ee1613edc84613ec3565b61380a565b6133c6565b9050919050565b613ef681613ecc565b82525050565b5f60a082019050613f0f5f8301886134d1565b613f1c6020830187613eed565b8181036040830152613f2e8186613cfb565b9050613f3d6060830185613454565b613f4a60808301846134d1565b9695505050505050565b5f613f5e826133c6565b9150613f69836133c6565b9250828203905081811115613f8157613f80613b19565b5b92915050565b5f819050919050565b5f67ffffffffffffffff82169050919050565b5f613fbd613fb8613fb384613f87565b61380a565b613f90565b9050919050565b613fcd81613fa3565b82525050565b5f602082019050613fe65f830184613fc4565b92915050565b5f604082019050613fff5f830185613454565b61400c60208301846134d1565b9392505050565b5f8115159050919050565b61402781614013565b8114614031575f5ffd5b50565b5f815190506140428161401e565b92915050565b5f6020828403121561405d5761405c6133be565b5b5f61406a84828501614034565b91505092915050565b5f610100820190506140875f83018b613454565b614094602083018a613454565b6140a160408301896134d1565b6140ae60608301886134d1565b6140bb6080830187613eed565b6140c860a0830186613eed565b6140d560c0830185613454565b6140e260e08301846134d1565b9998505050505050505050565b5f5f5f60608486031215614106576141056133be565b5b5f614113868287016138ff565b9350506020614124868287016138ff565b9250506040614135868287016138ff565b9150509250925092565b5f81519050919050565b5f81905092915050565b5f61415d8261413f565b6141678185614149565b93506141778185602086016137a4565b80840191505092915050565b5f61418e8284614153565b915081905092915050565b7f5472616e7366657248656c7065723a205452414e534645525f4641494c4544005f82015250565b5f6141cd601f8361333d565b91506141d882614199565b602082019050919050565b5f6020820190508181035f8301526141fa816141c1565b9050919050565b5f60e0820190506142145f83018a613454565b6142216020830189613454565b61422e60408301886134d1565b61423b6060830187613eed565b6142486080830186613eed565b61425560a0830185613454565b61426260c08301846134d1565b98975050505050505050565b5f5f60408385031215614284576142836133be565b5b5f614291858286016138ff565b92505060206142a2858286016138ff565b9150509250929050565b7f5472616e7366657248656c7065723a20415050524f56455f4641494c454400005f82015250565b5f6142e0601e8361333d565b91506142eb826142ac565b602082019050919050565b5f6020820190508181035f83015261430d816142d4565b9050919050565b61431d81613719565b8114614327575f5ffd5b50565b5f8151905061433881614314565b92915050565b5f60208284031215614353576143526133be565b5b5f6143608482850161432a565b9150509291505056fea2646970667358221220b2e2040b73ff88ceda8a54a157849e445914eb877a8a69d227d255011b9dc56064736f6c634300081e0033","linkReferences":{}},"methodIdentifiers":{"DEAD()":"03fd2a45","UPGRADE_INTERFACE_VERSION()":"ad3cb1cc","USDT()":"c54e44eb","acquireSpecifiedUsdt(address,uint256)":"2d019c42","addLiquidity(uint256)":"51c6590a","emergencyWithdraw(address,uint256,address)":"551512de","getNeedLP(uint256)":"fb546827","initialize(address,address)":"485cc955","owner()":"8da5cb5b","pancakeRouter()":"c21ebd07","proxiableUUID()":"52d1902d","quoteLPValue(address)":"08a60d9b","renounceOwnership()":"715018a6","setStaking(address)":"8ff39099","staking()":"4cf088d9","subToken()":"e9ffa9f4","swapForSubTokenToBurn(uint256)":"03ec9fb0","swapForSubTokenToUser(address,uint256)":"79e32cd9","token()":"fc0c546a","transferOwnership(address)":"f2fde38b","upgradeToAndCall(address,bytes)":"4f1ef286"},"id":50}