{"abi":[{"type":"constructor","inputs":[{"name":"_initialRecipient","type":"address","internalType":"address"}],"stateMutability":"nonpayable"},{"type":"function","name":"TEST","inputs":[],"outputs":[{"name":"","type":"address","internalType":"address"}],"stateMutability":"view"},{"type":"function","name":"allowance","inputs":[{"name":"owner","type":"address","internalType":"address"},{"name":"spender","type":"address","internalType":"address"}],"outputs":[{"name":"","type":"uint256","internalType":"uint256"}],"stateMutability":"view"},{"type":"function","name":"approve","inputs":[{"name":"spender","type":"address","internalType":"address"},{"name":"value","type":"uint256","internalType":"uint256"}],"outputs":[{"name":"","type":"bool","internalType":"bool"}],"stateMutability":"nonpayable"},{"type":"function","name":"balanceOf","inputs":[{"name":"account","type":"address","internalType":"address"}],"outputs":[{"name":"","type":"uint256","internalType":"uint256"}],"stateMutability":"view"},{"type":"function","name":"decimals","inputs":[],"outputs":[{"name":"","type":"uint8","internalType":"uint8"}],"stateMutability":"view"},{"type":"function","name":"name","inputs":[],"outputs":[{"name":"","type":"string","internalType":"string"}],"stateMutability":"view"},{"type":"function","name":"owner","inputs":[],"outputs":[{"name":"","type":"address","internalType":"address"}],"stateMutability":"view"},{"type":"function","name":"renounceOwnership","inputs":[],"outputs":[],"stateMutability":"nonpayable"},{"type":"function","name":"symbol","inputs":[],"outputs":[{"name":"","type":"string","internalType":"string"}],"stateMutability":"view"},{"type":"function","name":"totalSupply","inputs":[],"outputs":[{"name":"","type":"uint256","internalType":"uint256"}],"stateMutability":"view"},{"type":"function","name":"transfer","inputs":[{"name":"to","type":"address","internalType":"address"},{"name":"value","type":"uint256","internalType":"uint256"}],"outputs":[{"name":"","type":"bool","internalType":"bool"}],"stateMutability":"nonpayable"},{"type":"function","name":"transferFrom","inputs":[{"name":"from","type":"address","internalType":"address"},{"name":"to","type":"address","internalType":"address"},{"name":"value","type":"uint256","internalType":"uint256"}],"outputs":[{"name":"","type":"bool","internalType":"bool"}],"stateMutability":"nonpayable"},{"type":"function","name":"transferOwnership","inputs":[{"name":"newOwner","type":"address","internalType":"address"}],"outputs":[],"stateMutability":"nonpayable"},{"type":"event","name":"Approval","inputs":[{"name":"owner","type":"address","indexed":true,"internalType":"address"},{"name":"spender","type":"address","indexed":true,"internalType":"address"},{"name":"value","type":"uint256","indexed":false,"internalType":"uint256"}],"anonymous":false},{"type":"event","name":"OwnershipTransferred","inputs":[{"name":"previousOwner","type":"address","indexed":true,"internalType":"address"},{"name":"newOwner","type":"address","indexed":true,"internalType":"address"}],"anonymous":false},{"type":"event","name":"Transfer","inputs":[{"name":"from","type":"address","indexed":true,"internalType":"address"},{"name":"to","type":"address","indexed":true,"internalType":"address"},{"name":"value","type":"uint256","indexed":false,"internalType":"uint256"}],"anonymous":false},{"type":"error","name":"ERC20InsufficientAllowance","inputs":[{"name":"spender","type":"address","internalType":"address"},{"name":"allowance","type":"uint256","internalType":"uint256"},{"name":"needed","type":"uint256","internalType":"uint256"}]},{"type":"error","name":"ERC20InsufficientBalance","inputs":[{"name":"sender","type":"address","internalType":"address"},{"name":"balance","type":"uint256","internalType":"uint256"},{"name":"needed","type":"uint256","internalType":"uint256"}]},{"type":"error","name":"ERC20InvalidApprover","inputs":[{"name":"approver","type":"address","internalType":"address"}]},{"type":"error","name":"ERC20InvalidReceiver","inputs":[{"name":"receiver","type":"address","internalType":"address"}]},{"type":"error","name":"ERC20InvalidSender","inputs":[{"name":"sender","type":"address","internalType":"address"}]},{"type":"error","name":"ERC20InvalidSpender","inputs":[{"name":"spender","type":"address","internalType":"address"}]},{"type":"error","name":"OwnableInvalidOwner","inputs":[{"name":"owner","type":"address","internalType":"address"}]},{"type":"error","name":"OwnableUnauthorizedAccount","inputs":[{"name":"account","type":"address","internalType":"address"}]}],"bytecode":{"object":"0x608060405234801561000f575f5ffd5b50604051611a1a380380611a1a83398181016040528101906100319190610550565b336040518060400160405280600881526020017f544553542d5553440000000000000000000000000000000000000000000000008152506040518060400160405280600381526020017f545553000000000000000000000000000000000000000000000000000000000081525081600390816100ad91906107b8565b5080600490816100bd91906107b8565b5050505f73ffffffffffffffffffffffffffffffffffffffff168173ffffffffffffffffffffffffffffffffffffffff1603610130575f6040517f1e4fbdf70000000000000000000000000000000000000000000000000000000081526004016101279190610896565b60405180910390fd5b61013f8161019160201b60201c565b5061015d816c0c9f2c9cd04674edea4000000061025460201b60201c565b61018b73300b1b817f2431e345cde7b80229016f86ed598469021e19e0c9bab240000061025460201b60201c565b5061096c565b5f60055f9054906101000a900473ffffffffffffffffffffffffffffffffffffffff1690508160055f6101000a81548173ffffffffffffffffffffffffffffffffffffffff021916908373ffffffffffffffffffffffffffffffffffffffff1602179055508173ffffffffffffffffffffffffffffffffffffffff168173ffffffffffffffffffffffffffffffffffffffff167f8be0079c531659141344cd1fd0a4f28419497f9722a3daafe3b4186f6b6457e060405160405180910390a35050565b5f73ffffffffffffffffffffffffffffffffffffffff168273ffffffffffffffffffffffffffffffffffffffff16036102c4575f6040517fec442f050000000000000000000000000000000000000000000000000000000081526004016102bb9190610896565b60405180910390fd5b6102d55f83836102d960201b60201c565b5050565b5f73ffffffffffffffffffffffffffffffffffffffff168373ffffffffffffffffffffffffffffffffffffffff1603610329578060025f82825461031d91906108dc565b925050819055506103f7565b5f5f5f8573ffffffffffffffffffffffffffffffffffffffff1673ffffffffffffffffffffffffffffffffffffffff1681526020019081526020015f20549050818110156103b2578381836040517fe450d38c0000000000000000000000000000000000000000000000000000000081526004016103a99392919061091e565b60405180910390fd5b8181035f5f8673ffffffffffffffffffffffffffffffffffffffff1673ffffffffffffffffffffffffffffffffffffffff1681526020019081526020015f2081905550505b5f73ffffffffffffffffffffffffffffffffffffffff168273ffffffffffffffffffffffffffffffffffffffff160361043e578060025f8282540392505081905550610488565b805f5f8473ffffffffffffffffffffffffffffffffffffffff1673ffffffffffffffffffffffffffffffffffffffff1681526020019081526020015f205f82825401925050819055505b8173ffffffffffffffffffffffffffffffffffffffff168373ffffffffffffffffffffffffffffffffffffffff167fddf252ad1be2c89b69c2b068fc378daa952ba7f163c4a11628f55a4df523b3ef836040516104e59190610953565b60405180910390a3505050565b5f5ffd5b5f73ffffffffffffffffffffffffffffffffffffffff82169050919050565b5f61051f826104f6565b9050919050565b61052f81610515565b8114610539575f5ffd5b50565b5f8151905061054a81610526565b92915050565b5f60208284031215610565576105646104f2565b5b5f6105728482850161053c565b91505092915050565b5f81519050919050565b7f4e487b71000000000000000000000000000000000000000000000000000000005f52604160045260245ffd5b7f4e487b71000000000000000000000000000000000000000000000000000000005f52602260045260245ffd5b5f60028204905060018216806105f657607f821691505b602082108103610609576106086105b2565b5b50919050565b5f819050815f5260205f209050919050565b5f6020601f8301049050919050565b5f82821b905092915050565b5f6008830261066b7fffffffffffffffffffffffffffffffffffffffffffffffffffffffffffffffff82610630565b6106758683610630565b95508019841693508086168417925050509392505050565b5f819050919050565b5f819050919050565b5f6106b96106b46106af8461068d565b610696565b61068d565b9050919050565b5f819050919050565b6106d28361069f565b6106e66106de826106c0565b84845461063c565b825550505050565b5f5f905090565b6106fd6106ee565b6107088184846106c9565b505050565b5b8181101561072b576107205f826106f5565b60018101905061070e565b5050565b601f821115610770576107418161060f565b61074a84610621565b81016020851015610759578190505b61076d61076585610621565b83018261070d565b50505b505050565b5f82821c905092915050565b5f6107905f1984600802610775565b1980831691505092915050565b5f6107a88383610781565b9150826002028217905092915050565b6107c18261057b565b67ffffffffffffffff8111156107da576107d9610585565b5b6107e482546105df565b6107ef82828561072f565b5f60209050601f831160018114610820575f841561080e578287015190505b610818858261079d565b86555061087f565b601f19841661082e8661060f565b5f5b8281101561085557848901518255600182019150602085019450602081019050610830565b86831015610872578489015161086e601f891682610781565b8355505b6001600288020188555050505b505050505050565b61089081610515565b82525050565b5f6020820190506108a95f830184610887565b92915050565b7f4e487b71000000000000000000000000000000000000000000000000000000005f52601160045260245ffd5b5f6108e68261068d565b91506108f18361068d565b9250828201905080821115610909576109086108af565b5b92915050565b6109188161068d565b82525050565b5f6060820190506109315f830186610887565b61093e602083018561090f565b61094b604083018461090f565b949350505050565b5f6020820190506109665f83018461090f565b92915050565b6110a1806109795f395ff3fe608060405234801561000f575f5ffd5b50600436106100cd575f3560e01c806370a082311161008a57806395d89b411161006457806395d89b4114610201578063a9059cbb1461021f578063dd62ed3e1461024f578063f2fde38b1461027f576100cd565b806370a08231146101a9578063715018a6146101d95780638da5cb5b146101e3576100cd565b806306fdde03146100d1578063095ea7b3146100ef57806318160ddd1461011f57806323b872dd1461013d578063313ce5671461016d57806351d977a61461018b575b5f5ffd5b6100d961029b565b6040516100e69190610d1a565b60405180910390f35b61010960048036038101906101049190610dcb565b61032b565b6040516101169190610e23565b60405180910390f35b61012761034d565b6040516101349190610e4b565b60405180910390f35b61015760048036038101906101529190610e64565b610356565b6040516101649190610e23565b60405180910390f35b610175610384565b6040516101829190610ecf565b60405180910390f35b61019361038c565b6040516101a09190610ef7565b60405180910390f35b6101c360048036038101906101be9190610f10565b6103a4565b6040516101d09190610e4b565b60405180910390f35b6101e16103e9565b005b6101eb6103fc565b6040516101f89190610ef7565b60405180910390f35b610209610424565b6040516102169190610d1a565b60405180910390f35b61023960048036038101906102349190610dcb565b6104b4565b6040516102469190610e23565b60405180910390f35b61026960048036038101906102649190610f3b565b6104d6565b6040516102769190610e4b565b60405180910390f35b61029960048036038101906102949190610f10565b610558565b005b6060600380546102aa90610fa6565b80601f01602080910402602001604051908101604052809291908181526020018280546102d690610fa6565b80156103215780601f106102f857610100808354040283529160200191610321565b820191905f5260205f20905b81548152906001019060200180831161030457829003601f168201915b5050505050905090565b5f5f6103356105dc565b90506103428185856105e3565b600191505092915050565b5f600254905090565b5f5f6103606105dc565b905061036d8582856105f5565b610378858585610688565b60019150509392505050565b5f6012905090565b73300b1b817f2431e345cde7b80229016f86ed598481565b5f5f5f8373ffffffffffffffffffffffffffffffffffffffff1673ffffffffffffffffffffffffffffffffffffffff1681526020019081526020015f20549050919050565b6103f1610778565b6103fa5f6107ff565b565b5f60055f9054906101000a900473ffffffffffffffffffffffffffffffffffffffff16905090565b60606004805461043390610fa6565b80601f016020809104026020016040519081016040528092919081815260200182805461045f90610fa6565b80156104aa5780601f10610481576101008083540402835291602001916104aa565b820191905f5260205f20905b81548152906001019060200180831161048d57829003601f168201915b5050505050905090565b5f5f6104be6105dc565b90506104cb818585610688565b600191505092915050565b5f60015f8473ffffffffffffffffffffffffffffffffffffffff1673ffffffffffffffffffffffffffffffffffffffff1681526020019081526020015f205f8373ffffffffffffffffffffffffffffffffffffffff1673ffffffffffffffffffffffffffffffffffffffff1681526020019081526020015f2054905092915050565b610560610778565b5f73ffffffffffffffffffffffffffffffffffffffff168173ffffffffffffffffffffffffffffffffffffffff16036105d0575f6040517f1e4fbdf70000000000000000000000000000000000000000000000000000000081526004016105c79190610ef7565b60405180910390fd5b6105d9816107ff565b50565b5f33905090565b6105f083838360016108c2565b505050565b5f61060084846104d6565b90507fffffffffffffffffffffffffffffffffffffffffffffffffffffffffffffffff8110156106825781811015610673578281836040517ffb8f41b200000000000000000000000000000000000000000000000000000000815260040161066a93929190610fd6565b60405180910390fd5b61068184848484035f6108c2565b5b50505050565b5f73ffffffffffffffffffffffffffffffffffffffff168373ffffffffffffffffffffffffffffffffffffffff16036106f8575f6040517f96c6fd1e0000000000000000000000000000000000000000000000000000000081526004016106ef9190610ef7565b60405180910390fd5b5f73ffffffffffffffffffffffffffffffffffffffff168273ffffffffffffffffffffffffffffffffffffffff1603610768575f6040517fec442f0500000000000000000000000000000000000000000000000000000000815260040161075f9190610ef7565b60405180910390fd5b610773838383610a91565b505050565b6107806105dc565b73ffffffffffffffffffffffffffffffffffffffff1661079e6103fc565b73ffffffffffffffffffffffffffffffffffffffff16146107fd576107c16105dc565b6040517f118cdaa70000000000000000000000000000000000000000000000000000000081526004016107f49190610ef7565b60405180910390fd5b565b5f60055f9054906101000a900473ffffffffffffffffffffffffffffffffffffffff1690508160055f6101000a81548173ffffffffffffffffffffffffffffffffffffffff021916908373ffffffffffffffffffffffffffffffffffffffff1602179055508173ffffffffffffffffffffffffffffffffffffffff168173ffffffffffffffffffffffffffffffffffffffff167f8be0079c531659141344cd1fd0a4f28419497f9722a3daafe3b4186f6b6457e060405160405180910390a35050565b5f73ffffffffffffffffffffffffffffffffffffffff168473ffffffffffffffffffffffffffffffffffffffff1603610932575f6040517fe602df050000000000000000000000000000000000000000000000000000000081526004016109299190610ef7565b60405180910390fd5b5f73ffffffffffffffffffffffffffffffffffffffff168373ffffffffffffffffffffffffffffffffffffffff16036109a2575f6040517f94280d620000000000000000000000000000000000000000000000000000000081526004016109999190610ef7565b60405180910390fd5b8160015f8673ffffffffffffffffffffffffffffffffffffffff1673ffffffffffffffffffffffffffffffffffffffff1681526020019081526020015f205f8573ffffffffffffffffffffffffffffffffffffffff1673ffffffffffffffffffffffffffffffffffffffff1681526020019081526020015f20819055508015610a8b578273ffffffffffffffffffffffffffffffffffffffff168473ffffffffffffffffffffffffffffffffffffffff167f8c5be1e5ebec7d5bd14f71427d1e84f3dd0314c0f7b2291e5b200ac8c7c3b92584604051610a829190610e4b565b60405180910390a35b50505050565b5f73ffffffffffffffffffffffffffffffffffffffff168373ffffffffffffffffffffffffffffffffffffffff1603610ae1578060025f828254610ad59190611038565b92505081905550610baf565b5f5f5f8573ffffffffffffffffffffffffffffffffffffffff1673ffffffffffffffffffffffffffffffffffffffff1681526020019081526020015f2054905081811015610b6a578381836040517fe450d38c000000000000000000000000000000000000000000000000000000008152600401610b6193929190610fd6565b60405180910390fd5b8181035f5f8673ffffffffffffffffffffffffffffffffffffffff1673ffffffffffffffffffffffffffffffffffffffff1681526020019081526020015f2081905550505b5f73ffffffffffffffffffffffffffffffffffffffff168273ffffffffffffffffffffffffffffffffffffffff1603610bf6578060025f8282540392505081905550610c40565b805f5f8473ffffffffffffffffffffffffffffffffffffffff1673ffffffffffffffffffffffffffffffffffffffff1681526020019081526020015f205f82825401925050819055505b8173ffffffffffffffffffffffffffffffffffffffff168373ffffffffffffffffffffffffffffffffffffffff167fddf252ad1be2c89b69c2b068fc378daa952ba7f163c4a11628f55a4df523b3ef83604051610c9d9190610e4b565b60405180910390a3505050565b5f81519050919050565b5f82825260208201905092915050565b8281835e5f83830152505050565b5f601f19601f8301169050919050565b5f610cec82610caa565b610cf68185610cb4565b9350610d06818560208601610cc4565b610d0f81610cd2565b840191505092915050565b5f6020820190508181035f830152610d328184610ce2565b905092915050565b5f5ffd5b5f73ffffffffffffffffffffffffffffffffffffffff82169050919050565b5f610d6782610d3e565b9050919050565b610d7781610d5d565b8114610d81575f5ffd5b50565b5f81359050610d9281610d6e565b92915050565b5f819050919050565b610daa81610d98565b8114610db4575f5ffd5b50565b5f81359050610dc581610da1565b92915050565b5f5f60408385031215610de157610de0610d3a565b5b5f610dee85828601610d84565b9250506020610dff85828601610db7565b9150509250929050565b5f8115159050919050565b610e1d81610e09565b82525050565b5f602082019050610e365f830184610e14565b92915050565b610e4581610d98565b82525050565b5f602082019050610e5e5f830184610e3c565b92915050565b5f5f5f60608486031215610e7b57610e7a610d3a565b5b5f610e8886828701610d84565b9350506020610e9986828701610d84565b9250506040610eaa86828701610db7565b9150509250925092565b5f60ff82169050919050565b610ec981610eb4565b82525050565b5f602082019050610ee25f830184610ec0565b92915050565b610ef181610d5d565b82525050565b5f602082019050610f0a5f830184610ee8565b92915050565b5f60208284031215610f2557610f24610d3a565b5b5f610f3284828501610d84565b91505092915050565b5f5f60408385031215610f5157610f50610d3a565b5b5f610f5e85828601610d84565b9250506020610f6f85828601610d84565b9150509250929050565b7f4e487b71000000000000000000000000000000000000000000000000000000005f52602260045260245ffd5b5f6002820490506001821680610fbd57607f821691505b602082108103610fd057610fcf610f79565b5b50919050565b5f606082019050610fe95f830186610ee8565b610ff66020830185610e3c565b6110036040830184610e3c565b949350505050565b7f4e487b71000000000000000000000000000000000000000000000000000000005f52601160045260245ffd5b5f61104282610d98565b915061104d83610d98565b92508282019050808211156110655761106461100b565b5b9291505056fea2646970667358221220de3dfb786bfe161c559653bca3e96b6c4ef31dbab6478f2d04ea2393ec130b8d64736f6c634300081e0033","linkReferences":{}},"methodIdentifiers":{"TEST()":"51d977a6","allowance(address,address)":"dd62ed3e","approve(address,uint256)":"095ea7b3","balanceOf(address)":"70a08231","decimals()":"313ce567","name()":"06fdde03","owner()":"8da5cb5b","renounceOwnership()":"715018a6","symbol()":"95d89b41","totalSupply()":"18160ddd","transfer(address,uint256)":"a9059cbb","transferFrom(address,address,uint256)":"23b872dd","transferOwnership(address)":"f2fde38b"},"id":56}