{"abi":[{"type":"receive","stateMutability":"payable"},{"type":"function","name":"ADX","inputs":[],"outputs":[{"name":"","type":"address","internalType":"address"}],"stateMutability":"view"},{"type":"function","name":"DEAD","inputs":[],"outputs":[{"name":"","type":"address","internalType":"address"}],"stateMutability":"view"},{"type":"function","name":"UPGRADE_INTERFACE_VERSION","inputs":[],"outputs":[{"name":"","type":"string","internalType":"string"}],"stateMutability":"view"},{"type":"function","name":"USDT","inputs":[],"outputs":[{"name":"","type":"address","internalType":"address"}],"stateMutability":"view"},{"type":"function","name":"gas","inputs":[],"outputs":[{"name":"","type":"address","internalType":"address"}],"stateMutability":"view"},{"type":"function","name":"getAmountAdxOut","inputs":[{"name":"amount","type":"uint256","internalType":"uint256"}],"outputs":[{"name":"","type":"uint256","internalType":"uint256"}],"stateMutability":"view"},{"type":"function","name":"getAmountOut","inputs":[{"name":"amount","type":"uint256","internalType":"uint256"}],"outputs":[{"name":"","type":"uint256","internalType":"uint256"}],"stateMutability":"view"},{"type":"function","name":"initialize","inputs":[{"name":"_router","type":"address","internalType":"address"},{"name":"_x101","type":"address","internalType":"address"},{"name":"_gas","type":"address","internalType":"address"}],"outputs":[],"stateMutability":"nonpayable"},{"type":"function","name":"owner","inputs":[],"outputs":[{"name":"","type":"address","internalType":"address"}],"stateMutability":"view"},{"type":"function","name":"proxiableUUID","inputs":[],"outputs":[{"name":"","type":"bytes32","internalType":"bytes32"}],"stateMutability":"view"},{"type":"function","name":"renounceOwnership","inputs":[],"outputs":[],"stateMutability":"nonpayable"},{"type":"function","name":"sellForX101","inputs":[{"name":"amount","type":"uint256","internalType":"uint256"}],"outputs":[],"stateMutability":"nonpayable"},{"type":"function","name":"setTokenAddr","inputs":[{"name":"_gas","type":"address","internalType":"address"},{"name":"_x101","type":"address","internalType":"address"}],"outputs":[],"stateMutability":"nonpayable"},{"type":"function","name":"transferOwnership","inputs":[{"name":"newOwner","type":"address","internalType":"address"}],"outputs":[],"stateMutability":"nonpayable"},{"type":"function","name":"uniswapV2Router","inputs":[],"outputs":[{"name":"","type":"address","internalType":"address"}],"stateMutability":"view"},{"type":"function","name":"uniswapV2factory","inputs":[],"outputs":[{"name":"","type":"address","internalType":"address"}],"stateMutability":"view"},{"type":"function","name":"upgradeToAndCall","inputs":[{"name":"newImplementation","type":"address","internalType":"address"},{"name":"data","type":"bytes","internalType":"bytes"}],"outputs":[],"stateMutability":"payable"},{"type":"function","name":"x101","inputs":[],"outputs":[{"name":"","type":"address","internalType":"address"}],"stateMutability":"view"},{"type":"event","name":"Initialized","inputs":[{"name":"version","type":"uint64","indexed":false,"internalType":"uint64"}],"anonymous":false},{"type":"event","name":"OwnershipTransferred","inputs":[{"name":"previousOwner","type":"address","indexed":true,"internalType":"address"},{"name":"newOwner","type":"address","indexed":true,"internalType":"address"}],"anonymous":false},{"type":"event","name":"Upgraded","inputs":[{"name":"implementation","type":"address","indexed":true,"internalType":"address"}],"anonymous":false},{"type":"error","name":"AddressEmptyCode","inputs":[{"name":"target","type":"address","internalType":"address"}]},{"type":"error","name":"ERC1967InvalidImplementation","inputs":[{"name":"implementation","type":"address","internalType":"address"}]},{"type":"error","name":"ERC1967NonPayable","inputs":[]},{"type":"error","name":"FailedCall","inputs":[]},{"type":"error","name":"InvalidInitialization","inputs":[]},{"type":"error","name":"NotInitializing","inputs":[]},{"type":"error","name":"OwnableInvalidOwner","inputs":[{"name":"owner","type":"address","internalType":"address"}]},{"type":"error","name":"OwnableUnauthorizedAccount","inputs":[{"name":"account","type":"address","internalType":"address"}]},{"type":"error","name":"ReentrancyGuardReentrantCall","inputs":[]},{"type":"error","name":"UUPSUnauthorizedCallContext","inputs":[]},{"type":"error","name":"UUPSUnsupportedProxiableUUID","inputs":[{"name":"slot","type":"bytes32","internalType":"bytes32"}]}],"bytecode":{"object":"0x60a06040523073ffffffffffffffffffffffffffffffffffffffff1660809073ffffffffffffffffffffffffffffffffffffffff1681525034801561004357600080fd5b50600160008190555060805161321461007560003960008181611bc301528181611c180152611dd301526132146000f3fe60806040526004361061010d5760003560e01c8063715018a611610095578063c0c53b8b11610064578063c0c53b8b1461036c578063c54e44eb14610395578063dcea0a64146103c0578063ddcd036b146103eb578063f2fde38b146104285761014d565b8063715018a6146102d65780637f1d259b146102ed5780638da5cb5b14610316578063ad3cb1cc146103415761014d565b80634f1ef286116100dc5780634f1ef286146101fc57806352d1902d146102185780635c195217146102435780636ca7c2161461028057806370fe251b146102ab5761014d565b806303fd2a45146101525780631694505e1461017d5780632b61397f146101a85780632de5ee8d146101d15761014d565b3661014d576040517f08c379a000000000000000000000000000000000000000000000000000000000815260040161014490612497565b60405180910390fd5b600080fd5b34801561015e57600080fd5b50610167610451565b60405161017491906124f8565b60405180910390f35b34801561018957600080fd5b50610192610457565b60405161019f91906124f8565b60405180910390f35b3480156101b457600080fd5b506101cf60048036038101906101ca919061255d565b61047d565b005b3480156101dd57600080fd5b506101e6610ae8565b6040516101f391906124f8565b60405180910390f35b610216600480360381019061021191906126fc565b610b0e565b005b34801561022457600080fd5b5061022d610b2d565b60405161023a9190612771565b60405180910390f35b34801561024f57600080fd5b5061026a6004803603810190610265919061255d565b610b60565b604051610277919061279b565b60405180910390f35b34801561028c57600080fd5b506102956110f2565b6040516102a291906124f8565b60405180910390f35b3480156102b757600080fd5b506102c0611118565b6040516102cd91906124f8565b60405180910390f35b3480156102e257600080fd5b506102eb61113e565b005b3480156102f957600080fd5b50610314600480360381019061030f91906127b6565b611152565b005b34801561032257600080fd5b5061032b6111e0565b60405161033891906124f8565b60405180910390f35b34801561034d57600080fd5b50610356611218565b6040516103639190612864565b60405180910390f35b34801561037857600080fd5b50610393600480360381019061038e9190612886565b611251565b005b3480156103a157600080fd5b506103aa61157d565b6040516103b791906124f8565b60405180910390f35b3480156103cc57600080fd5b506103d5611595565b6040516103e291906124f8565b60405180910390f35b3480156103f757600080fd5b50610412600480360381019061040d919061255d565b6115ad565b60405161041f919061279b565b60405180910390f35b34801561043457600080fd5b5061044f600480360381019061044a91906128d9565b611796565b005b61dead81565b600360009054906101000a900473ffffffffffffffffffffffffffffffffffffffff1681565b6104ab600260009054906101000a900473ffffffffffffffffffffffffffffffffffffffff1633308461181c565b60006104b682610b60565b9050600073ffffffffffffffffffffffffffffffffffffffff16600160009054906101000a900473ffffffffffffffffffffffffffffffffffffffff1673ffffffffffffffffffffffffffffffffffffffff16146105a257600160009054906101000a900473ffffffffffffffffffffffffffffffffffffffff1673ffffffffffffffffffffffffffffffffffffffff1663c25d6a9a3361dead846040518463ffffffff1660e01b815260040161056f93929190612906565b600060405180830381600087803b15801561058957600080fd5b505af115801561059d573d6000803e3d6000fd5b505050505b60007368a4d37635cdb55af61b8e58446949fb21f384e573ffffffffffffffffffffffffffffffffffffffff166370a08231306040518263ffffffff1660e01b81526004016105f191906124f8565b602060405180830381865afa15801561060e573d6000803e3d6000fd5b505050506040513d601f19601f820116820180604052508101906106329190612952565b9050610683600260009054906101000a900473ffffffffffffffffffffffffffffffffffffffff16600360009054906101000a900473ffffffffffffffffffffffffffffffffffffffff1685611955565b6000600267ffffffffffffffff8111156106a05761069f6125d1565b5b6040519080825280602002602001820160405280156106ce5781602001602082028036833780820191505090505b509050600260009054906101000a900473ffffffffffffffffffffffffffffffffffffffff16816000815181106107085761070761297f565b5b602002602001019073ffffffffffffffffffffffffffffffffffffffff16908173ffffffffffffffffffffffffffffffffffffffff16815250507368a4d37635cdb55af61b8e58446949fb21f384e58160018151811061076b5761076a61297f565b5b602002602001019073ffffffffffffffffffffffffffffffffffffffff16908173ffffffffffffffffffffffffffffffffffffffff1681525050600360009054906101000a900473ffffffffffffffffffffffffffffffffffffffff1673ffffffffffffffffffffffffffffffffffffffff16635c11d7958560008430601e426107f591906129dd565b6040518663ffffffff1660e01b8152600401610815959493929190612b14565b600060405180830381600087803b15801561082f57600080fd5b505af1158015610843573d6000803e3d6000fd5b505050506000827368a4d37635cdb55af61b8e58446949fb21f384e573ffffffffffffffffffffffffffffffffffffffff166370a08231306040518263ffffffff1660e01b815260040161089791906124f8565b602060405180830381865afa1580156108b4573d6000803e3d6000fd5b505050506040513d601f19601f820116820180604052508101906108d89190612952565b6108e29190612b6e565b90506109037368a4d37635cdb55af61b8e58446949fb21f384e53383611a8b565b600260009054906101000a900473ffffffffffffffffffffffffffffffffffffffff1673ffffffffffffffffffffffffffffffffffffffff16635dde541760646014886109509190612ba2565b61095a9190612c13565b6040518263ffffffff1660e01b8152600401610976919061279b565b600060405180830381600087803b15801561099057600080fd5b505af11580156109a4573d6000803e3d6000fd5b505050506000600460009054906101000a900473ffffffffffffffffffffffffffffffffffffffff1673ffffffffffffffffffffffffffffffffffffffff1663e6a43905600260009054906101000a900473ffffffffffffffffffffffffffffffffffffffff167368a4d37635cdb55af61b8e58446949fb21f384e56040518363ffffffff1660e01b8152600401610a3d929190612c44565b602060405180830381865afa158015610a5a573d6000803e3d6000fd5b505050506040513d601f19601f82011682018060405250810190610a7e9190612c82565b90508073ffffffffffffffffffffffffffffffffffffffff1663fff6cae96040518163ffffffff1660e01b8152600401600060405180830381600087803b158015610ac857600080fd5b505af1158015610adc573d6000803e3d6000fd5b50505050505050505050565b600260009054906101000a900473ffffffffffffffffffffffffffffffffffffffff1681565b610b16611bc1565b610b1f82611ca7565b610b298282611cb2565b5050565b6000610b37611dd1565b7f360894a13ba1a3210667c828492db98dca3e2076cc3735a920a3ca505d382bbc60001b905090565b600080600460009054906101000a900473ffffffffffffffffffffffffffffffffffffffff1673ffffffffffffffffffffffffffffffffffffffff1663e6a43905600260009054906101000a900473ffffffffffffffffffffffffffffffffffffffff167368a4d37635cdb55af61b8e58446949fb21f384e56040518363ffffffff1660e01b8152600401610bf6929190612c44565b602060405180830381865afa158015610c13573d6000803e3d6000fd5b505050506040513d601f19601f82011682018060405250810190610c379190612c82565b90506000808273ffffffffffffffffffffffffffffffffffffffff16630902f1ac6040518163ffffffff1660e01b8152600401606060405180830381865afa158015610c87573d6000803e3d6000fd5b505050506040513d601f19601f82011682018060405250810190610cab9190612d31565b50915091506000826dffffffffffffffffffffffffffff16118015610ce057506000816dffffffffffffffffffffffffffff16115b156110e5576000600460009054906101000a900473ffffffffffffffffffffffffffffffffffffffff1673ffffffffffffffffffffffffffffffffffffffff1663e6a439057368a4d37635cdb55af61b8e58446949fb21f384e5733ea660cdc7b7ccc9f81c955f1f2412dceb8518a56040518363ffffffff1660e01b8152600401610d6c929190612c44565b602060405180830381865afa158015610d89573d6000803e3d6000fd5b505050506040513d601f19601f82011682018060405250810190610dad9190612c82565b9050600073ffffffffffffffffffffffffffffffffffffffff168173ffffffffffffffffffffffffffffffffffffffff16146110e3576000808273ffffffffffffffffffffffffffffffffffffffff16630902f1ac6040518163ffffffff1660e01b8152600401606060405180830381865afa158015610e31573d6000803e3d6000fd5b505050506040513d601f19601f82011682018060405250810190610e559190612d31565b50915091506000826dffffffffffffffffffffffffffff16118015610e8a57506000816dffffffffffffffffffffffffffff16115b156110e0576000600367ffffffffffffffff811115610eac57610eab6125d1565b5b604051908082528060200260200182016040528015610eda5781602001602082028036833780820191505090505b509050600260009054906101000a900473ffffffffffffffffffffffffffffffffffffffff1681600081518110610f1457610f1361297f565b5b602002602001019073ffffffffffffffffffffffffffffffffffffffff16908173ffffffffffffffffffffffffffffffffffffffff16815250507368a4d37635cdb55af61b8e58446949fb21f384e581600181518110610f7757610f7661297f565b5b602002602001019073ffffffffffffffffffffffffffffffffffffffff16908173ffffffffffffffffffffffffffffffffffffffff1681525050733ea660cdc7b7ccc9f81c955f1f2412dceb8518a581600281518110610fda57610fd961297f565b5b602002602001019073ffffffffffffffffffffffffffffffffffffffff16908173ffffffffffffffffffffffffffffffffffffffff1681525050600360009054906101000a900473ffffffffffffffffffffffffffffffffffffffff1673ffffffffffffffffffffffffffffffffffffffff1663d06ca61f8a836040518363ffffffff1660e01b8152600401611071929190612d84565b600060405180830381865afa15801561108e573d6000803e3d6000fd5b505050506040513d6000823e3d601f19601f820116820180604052508101906110b79190612e7c565b6002815181106110ca576110c961297f565b5b60200260200101519750505050505050506110ed565b50505b505b600093505050505b919050565b600160009054906101000a900473ffffffffffffffffffffffffffffffffffffffff1681565b600460009054906101000a900473ffffffffffffffffffffffffffffffffffffffff1681565b611146611e58565b6111506000611edf565b565b61115a611e58565b81600160006101000a81548173ffffffffffffffffffffffffffffffffffffffff021916908373ffffffffffffffffffffffffffffffffffffffff16021790555080600260006101000a81548173ffffffffffffffffffffffffffffffffffffffff021916908373ffffffffffffffffffffffffffffffffffffffff1602179055505050565b6000806111eb611fb6565b90508060000160009054906101000a900473ffffffffffffffffffffffffffffffffffffffff1691505090565b6040518060400160405280600581526020017f352e302e3000000000000000000000000000000000000000000000000000000081525081565b600061125b611fde565b905060008160000160089054906101000a900460ff1615905060008260000160009054906101000a900467ffffffffffffffff1690506000808267ffffffffffffffff161480156112a95750825b9050600060018367ffffffffffffffff161480156112de575060003073ffffffffffffffffffffffffffffffffffffffff163b145b9050811580156112ec575080155b15611323576040517ff92ee8a900000000000000000000000000000000000000000000000000000000815260040160405180910390fd5b60018560000160006101000a81548167ffffffffffffffff021916908367ffffffffffffffff16021790555083156113735760018560000160086101000a81548160ff0219169083151502179055505b61138361137e611ff2565b611ffa565b87600360006101000a81548173ffffffffffffffffffffffffffffffffffffffff021916908373ffffffffffffffffffffffffffffffffffffffff16021790555086600260006101000a81548173ffffffffffffffffffffffffffffffffffffffff021916908373ffffffffffffffffffffffffffffffffffffffff16021790555085600160006101000a81548173ffffffffffffffffffffffffffffffffffffffff021916908373ffffffffffffffffffffffffffffffffffffffff160217905550600360009054906101000a900473ffffffffffffffffffffffffffffffffffffffff1673ffffffffffffffffffffffffffffffffffffffff1663c45a01556040518163ffffffff1660e01b8152600401602060405180830381865afa1580156114b3573d6000803e3d6000fd5b505050506040513d601f19601f820116820180604052508101906114d79190612c82565b600460006101000a81548173ffffffffffffffffffffffffffffffffffffffff021916908373ffffffffffffffffffffffffffffffffffffffff16021790555083156115735760008560000160086101000a81548160ff0219169083151502179055507fc7f505b2f371ae2175ee4913f4499e1f2633a7b5936321eed1cdaeb6115181d2600160405161156a9190612f14565b60405180910390a15b5050505050505050565b733ea660cdc7b7ccc9f81c955f1f2412dceb8518a581565b7368a4d37635cdb55af61b8e58446949fb21f384e581565b600080600267ffffffffffffffff8111156115cb576115ca6125d1565b5b6040519080825280602002602001820160405280156115f95781602001602082028036833780820191505090505b509050600260009054906101000a900473ffffffffffffffffffffffffffffffffffffffff16816000815181106116335761163261297f565b5b602002602001019073ffffffffffffffffffffffffffffffffffffffff16908173ffffffffffffffffffffffffffffffffffffffff16815250507368a4d37635cdb55af61b8e58446949fb21f384e5816001815181106116965761169561297f565b5b602002602001019073ffffffffffffffffffffffffffffffffffffffff16908173ffffffffffffffffffffffffffffffffffffffff1681525050600360009054906101000a900473ffffffffffffffffffffffffffffffffffffffff1673ffffffffffffffffffffffffffffffffffffffff1663d06ca61f84836040518363ffffffff1660e01b815260040161172d929190612d84565b600060405180830381865afa15801561174a573d6000803e3d6000fd5b505050506040513d6000823e3d601f19601f820116820180604052508101906117739190612e7c565b6001815181106117865761178561297f565b5b6020026020010151915050919050565b61179e611e58565b600073ffffffffffffffffffffffffffffffffffffffff168173ffffffffffffffffffffffffffffffffffffffff16036118105760006040517f1e4fbdf700000000000000000000000000000000000000000000000000000000815260040161180791906124f8565b60405180910390fd5b61181981611edf565b50565b6000808573ffffffffffffffffffffffffffffffffffffffff166323b872dd86868660405160240161185093929190612906565b6040516020818303038152906040529060e01b6020820180517bffffffffffffffffffffffffffffffffffffffffffffffffffffffff838183161783525050505060405161189e9190612f76565b6000604051808303816000865af19150503d80600081146118db576040519150601f19603f3d011682016040523d82523d6000602084013e6118e0565b606091505b509150915081801561190e575060008151148061190d57508080602001905181019061190c9190612fc5565b5b5b61194d576040517f08c379a000000000000000000000000000000000000000000000000000000000815260040161194490613064565b60405180910390fd5b505050505050565b6000808473ffffffffffffffffffffffffffffffffffffffff1663095ea7b38585604051602401611987929190613084565b6040516020818303038152906040529060e01b6020820180517bffffffffffffffffffffffffffffffffffffffffffffffffffffffff83818316178352505050506040516119d59190612f76565b6000604051808303816000865af19150503d8060008114611a12576040519150601f19603f3d011682016040523d82523d6000602084013e611a17565b606091505b5091509150818015611a455750600081511480611a44575080806020019051810190611a439190612fc5565b5b5b611a84576040517f08c379a0000000000000000000000000000000000000000000000000000000008152600401611a7b906130f9565b60405180910390fd5b5050505050565b6000808473ffffffffffffffffffffffffffffffffffffffff1663a9059cbb8585604051602401611abd929190613084565b6040516020818303038152906040529060e01b6020820180517bffffffffffffffffffffffffffffffffffffffffffffffffffffffff8381831617835250505050604051611b0b9190612f76565b6000604051808303816000865af19150503d8060008114611b48576040519150601f19603f3d011682016040523d82523d6000602084013e611b4d565b606091505b5091509150818015611b7b5750600081511480611b7a575080806020019051810190611b799190612fc5565b5b5b611bba576040517f08c379a0000000000000000000000000000000000000000000000000000000008152600401611bb190613165565b60405180910390fd5b5050505050565b7f000000000000000000000000000000000000000000000000000000000000000073ffffffffffffffffffffffffffffffffffffffff163073ffffffffffffffffffffffffffffffffffffffff161480611c6e57507f000000000000000000000000000000000000000000000000000000000000000073ffffffffffffffffffffffffffffffffffffffff16611c5561200e565b73ffffffffffffffffffffffffffffffffffffffff1614155b15611ca5576040517fe07c8dba00000000000000000000000000000000000000000000000000000000815260040160405180910390fd5b565b611caf611e58565b50565b8173ffffffffffffffffffffffffffffffffffffffff166352d1902d6040518163ffffffff1660e01b8152600401602060405180830381865afa925050508015611d1a57506040513d601f19601f82011682018060405250810190611d1791906131b1565b60015b611d5b57816040517f4c9c8ce3000000000000000000000000000000000000000000000000000000008152600401611d5291906124f8565b60405180910390fd5b7f360894a13ba1a3210667c828492db98dca3e2076cc3735a920a3ca505d382bbc60001b8114611dc257806040517faa1d49a4000000000000000000000000000000000000000000000000000000008152600401611db99190612771565b60405180910390fd5b611dcc8383612065565b505050565b7f000000000000000000000000000000000000000000000000000000000000000073ffffffffffffffffffffffffffffffffffffffff163073ffffffffffffffffffffffffffffffffffffffff1614611e56576040517fe07c8dba00000000000000000000000000000000000000000000000000000000815260040160405180910390fd5b565b611e60611ff2565b73ffffffffffffffffffffffffffffffffffffffff16611e7e6111e0565b73ffffffffffffffffffffffffffffffffffffffff1614611edd57611ea1611ff2565b6040517f118cdaa7000000000000000000000000000000000000000000000000000000008152600401611ed491906124f8565b60405180910390fd5b565b6000611ee9611fb6565b905060008160000160009054906101000a900473ffffffffffffffffffffffffffffffffffffffff169050828260000160006101000a81548173ffffffffffffffffffffffffffffffffffffffff021916908373ffffffffffffffffffffffffffffffffffffffff1602179055508273ffffffffffffffffffffffffffffffffffffffff168173ffffffffffffffffffffffffffffffffffffffff167f8be0079c531659141344cd1fd0a4f28419497f9722a3daafe3b4186f6b6457e060405160405180910390a3505050565b60007f9016d09d72d40fdae2fd8ceac6b6234c7706214fd39c1cd1e609a0528c199300905090565b600080611fe96120d8565b90508091505090565b600033905090565b612002612103565b61200b81612143565b50565b600061203c7f360894a13ba1a3210667c828492db98dca3e2076cc3735a920a3ca505d382bbc60001b6121c9565b60000160009054906101000a900473ffffffffffffffffffffffffffffffffffffffff16905090565b61206e826121d3565b8173ffffffffffffffffffffffffffffffffffffffff167fbc7cd75a20ee27fd9adebab32041f755214dbc6bffa90cc0225b39da2e5c2d3b60405160405180910390a26000815111156120cb576120c582826122a0565b506120d4565b6120d3612395565b5b5050565b60007ff0c57e16840df040f15088dc2f81fe391c3923bec73e23a9662efc9c229c6a0060001b905090565b61210b6123d2565b612141576040517fd7e6bcf800000000000000000000000000000000000000000000000000000000815260040160405180910390fd5b565b61214b612103565b600073ffffffffffffffffffffffffffffffffffffffff168173ffffffffffffffffffffffffffffffffffffffff16036121bd5760006040517f1e4fbdf70000000000000000000000000000000000000000000000000000000081526004016121b491906124f8565b60405180910390fd5b6121c681611edf565b50565b6000819050919050565b60008173ffffffffffffffffffffffffffffffffffffffff163b0361222f57806040517f4c9c8ce300000000000000000000000000000000000000000000000000000000815260040161222691906124f8565b60405180910390fd5b8061225c7f360894a13ba1a3210667c828492db98dca3e2076cc3735a920a3ca505d382bbc60001b6121c9565b60000160006101000a81548173ffffffffffffffffffffffffffffffffffffffff021916908373ffffffffffffffffffffffffffffffffffffffff16021790555050565b606060006122ae84846123f2565b90508080156122e6575060006122c2612408565b11806122e5575060008473ffffffffffffffffffffffffffffffffffffffff163b115b5b156122fb576122f3612410565b91505061238f565b801561233e57836040517f9996b31500000000000000000000000000000000000000000000000000000000815260040161233591906124f8565b60405180910390fd5b6000612348612408565b111561235b5761235661242e565b61238d565b6040517fd6bda27500000000000000000000000000000000000000000000000000000000815260040160405180910390fd5b505b92915050565b60003411156123d0576040517fb398979f00000000000000000000000000000000000000000000000000000000815260040160405180910390fd5b565b60006123dc611fde565b60000160089054906101000a900460ff16905090565b6000806000835160208501865af4905092915050565b60003d905090565b606060405190503d81523d6000602083013e3d602001810160405290565b6040513d6000823e3d81fd5b600082825260208201905092915050565b7f4e4f5f4449524543545f53454e44000000000000000000000000000000000000600082015250565b6000612481600e8361243a565b915061248c8261244b565b602082019050919050565b600060208201905081810360008301526124b081612474565b9050919050565b600073ffffffffffffffffffffffffffffffffffffffff82169050919050565b60006124e2826124b7565b9050919050565b6124f2816124d7565b82525050565b600060208201905061250d60008301846124e9565b92915050565b6000604051905090565b600080fd5b600080fd5b6000819050919050565b61253a81612527565b811461254557600080fd5b50565b60008135905061255781612531565b92915050565b6000602082840312156125735761257261251d565b5b600061258184828501612548565b91505092915050565b612593816124d7565b811461259e57600080fd5b50565b6000813590506125b08161258a565b92915050565b600080fd5b600080fd5b6000601f19601f8301169050919050565b7f4e487b7100000000000000000000000000000000000000000000000000000000600052604160045260246000fd5b612609826125c0565b810181811067ffffffffffffffff82111715612628576126276125d1565b5b80604052505050565b600061263b612513565b90506126478282612600565b919050565b600067ffffffffffffffff821115612667576126666125d1565b5b612670826125c0565b9050602081019050919050565b82818337600083830152505050565b600061269f61269a8461264c565b612631565b9050828152602081018484840111156126bb576126ba6125bb565b5b6126c684828561267d565b509392505050565b600082601f8301126126e3576126e26125b6565b5b81356126f384826020860161268c565b91505092915050565b600080604083850312156127135761271261251d565b5b6000612721858286016125a1565b925050602083013567ffffffffffffffff81111561274257612741612522565b5b61274e858286016126ce565b9150509250929050565b6000819050919050565b61276b81612758565b82525050565b60006020820190506127866000830184612762565b92915050565b61279581612527565b82525050565b60006020820190506127b0600083018461278c565b92915050565b600080604083850312156127cd576127cc61251d565b5b60006127db858286016125a1565b92505060206127ec858286016125a1565b9150509250929050565b600081519050919050565b60005b8381101561281f578082015181840152602081019050612804565b60008484015250505050565b6000612836826127f6565b612840818561243a565b9350612850818560208601612801565b612859816125c0565b840191505092915050565b6000602082019050818103600083015261287e818461282b565b905092915050565b60008060006060848603121561289f5761289e61251d565b5b60006128ad868287016125a1565b93505060206128be868287016125a1565b92505060406128cf868287016125a1565b9150509250925092565b6000602082840312156128ef576128ee61251d565b5b60006128fd848285016125a1565b91505092915050565b600060608201905061291b60008301866124e9565b61292860208301856124e9565b612935604083018461278c565b949350505050565b60008151905061294c81612531565b92915050565b6000602082840312156129685761296761251d565b5b60006129768482850161293d565b91505092915050565b7f4e487b7100000000000000000000000000000000000000000000000000000000600052603260045260246000fd5b7f4e487b7100000000000000000000000000000000000000000000000000000000600052601160045260246000fd5b60006129e882612527565b91506129f383612527565b9250828201905080821115612a0b57612a0a6129ae565b5b92915050565b6000819050919050565b6000819050919050565b6000612a40612a3b612a3684612a11565b612a1b565b612527565b9050919050565b612a5081612a25565b82525050565b600081519050919050565b600082825260208201905092915050565b6000819050602082019050919050565b612a8b816124d7565b82525050565b6000612a9d8383612a82565b60208301905092915050565b6000602082019050919050565b6000612ac182612a56565b612acb8185612a61565b9350612ad683612a72565b8060005b83811015612b07578151612aee8882612a91565b9750612af983612aa9565b925050600181019050612ada565b5085935050505092915050565b600060a082019050612b29600083018861278c565b612b366020830187612a47565b8181036040830152612b488186612ab6565b9050612b5760608301856124e9565b612b64608083018461278c565b9695505050505050565b6000612b7982612527565b9150612b8483612527565b9250828203905081811115612b9c57612b9b6129ae565b5b92915050565b6000612bad82612527565b9150612bb883612527565b9250828202612bc681612527565b91508282048414831517612bdd57612bdc6129ae565b5b5092915050565b7f4e487b7100000000000000000000000000000000000000000000000000000000600052601260045260246000fd5b6000612c1e82612527565b9150612c2983612527565b925082612c3957612c38612be4565b5b828204905092915050565b6000604082019050612c5960008301856124e9565b612c6660208301846124e9565b9392505050565b600081519050612c7c8161258a565b92915050565b600060208284031215612c9857612c9761251d565b5b6000612ca684828501612c6d565b91505092915050565b60006dffffffffffffffffffffffffffff82169050919050565b612cd281612caf565b8114612cdd57600080fd5b50565b600081519050612cef81612cc9565b92915050565b600063ffffffff82169050919050565b612d0e81612cf5565b8114612d1957600080fd5b50565b600081519050612d2b81612d05565b92915050565b600080600060608486031215612d4a57612d4961251d565b5b6000612d5886828701612ce0565b9350506020612d6986828701612ce0565b9250506040612d7a86828701612d1c565b9150509250925092565b6000604082019050612d99600083018561278c565b8181036020830152612dab8184612ab6565b90509392505050565b600067ffffffffffffffff821115612dcf57612dce6125d1565b5b602082029050602081019050919050565b600080fd5b6000612df8612df384612db4565b612631565b90508083825260208201905060208402830185811115612e1b57612e1a612de0565b5b835b81811015612e445780612e30888261293d565b845260208401935050602081019050612e1d565b5050509392505050565b600082601f830112612e6357612e626125b6565b5b8151612e73848260208601612de5565b91505092915050565b600060208284031215612e9257612e9161251d565b5b600082015167ffffffffffffffff811115612eb057612eaf612522565b5b612ebc84828501612e4e565b91505092915050565b6000819050919050565b600067ffffffffffffffff82169050919050565b6000612efe612ef9612ef484612ec5565b612a1b565b612ecf565b9050919050565b612f0e81612ee3565b82525050565b6000602082019050612f296000830184612f05565b92915050565b600081519050919050565b600081905092915050565b6000612f5082612f2f565b612f5a8185612f3a565b9350612f6a818560208601612801565b80840191505092915050565b6000612f828284612f45565b915081905092915050565b60008115159050919050565b612fa281612f8d565b8114612fad57600080fd5b50565b600081519050612fbf81612f99565b92915050565b600060208284031215612fdb57612fda61251d565b5b6000612fe984828501612fb0565b91505092915050565b7f5472616e7366657248656c7065723a205452414e534645525f46524f4d5f464160008201527f494c454400000000000000000000000000000000000000000000000000000000602082015250565b600061304e60248361243a565b915061305982612ff2565b604082019050919050565b6000602082019050818103600083015261307d81613041565b9050919050565b600060408201905061309960008301856124e9565b6130a6602083018461278c565b9392505050565b7f5472616e7366657248656c7065723a20415050524f56455f4641494c45440000600082015250565b60006130e3601e8361243a565b91506130ee826130ad565b602082019050919050565b60006020820190508181036000830152613112816130d6565b9050919050565b7f5472616e7366657248656c7065723a205452414e534645525f4641494c454400600082015250565b600061314f601f8361243a565b915061315a82613119565b602082019050919050565b6000602082019050818103600083015261317e81613142565b9050919050565b61318e81612758565b811461319957600080fd5b50565b6000815190506131ab81613185565b92915050565b6000602082840312156131c7576131c661251d565b5b60006131d58482850161319c565b9150509291505056fea2646970667358221220d14202e726dec1929ce6c2a46dbadccb102e8610ad715c2f5b7c4ee02004f81664736f6c63430008160033","linkReferences":{}},"methodIdentifiers":{"ADX()":"dcea0a64","DEAD()":"03fd2a45","UPGRADE_INTERFACE_VERSION()":"ad3cb1cc","USDT()":"c54e44eb","gas()":"6ca7c216","getAmountAdxOut(uint256)":"ddcd036b","getAmountOut(uint256)":"5c195217","initialize(address,address,address)":"c0c53b8b","owner()":"8da5cb5b","proxiableUUID()":"52d1902d","renounceOwnership()":"715018a6","sellForX101(uint256)":"2b61397f","setTokenAddr(address,address)":"7f1d259b","transferOwnership(address)":"f2fde38b","uniswapV2Router()":"1694505e","uniswapV2factory()":"70fe251b","upgradeToAndCall(address,bytes)":"4f1ef286","x101()":"2de5ee8d"},"id":47}