{"abi":[{"type":"receive","stateMutability":"payable"},{"type":"function","name":"UPGRADE_INTERFACE_VERSION","inputs":[],"outputs":[{"name":"","type":"string","internalType":"string"}],"stateMutability":"view"},{"type":"function","name":"USDT","inputs":[],"outputs":[{"name":"","type":"address","internalType":"address"}],"stateMutability":"view"},{"type":"function","name":"claimOrderAward","inputs":[{"name":"orderId","type":"uint256","internalType":"uint256"}],"outputs":[],"stateMutability":"nonpayable"},{"type":"function","name":"claimUserUSDT","inputs":[],"outputs":[],"stateMutability":"nonpayable"},{"type":"function","name":"forexRate","inputs":[],"outputs":[{"name":"","type":"uint256","internalType":"uint256"}],"stateMutability":"view"},{"type":"function","name":"getAwardUsdt","inputs":[{"name":"user","type":"address","internalType":"address"}],"outputs":[{"name":"","type":"uint256","internalType":"uint256"}],"stateMutability":"view"},{"type":"function","name":"getCountdown","inputs":[{"name":"orderId","type":"uint256","internalType":"uint256"}],"outputs":[{"name":"","type":"uint256","internalType":"uint256"}],"stateMutability":"view"},{"type":"function","name":"getExtractable","inputs":[{"name":"orderId","type":"uint256","internalType":"uint256"}],"outputs":[{"name":"","type":"uint256","internalType":"uint256"}],"stateMutability":"view"},{"type":"function","name":"getOrderInfo","inputs":[{"name":"orderId","type":"uint256","internalType":"uint256"}],"outputs":[{"name":"nftQuantity","type":"uint256","internalType":"uint256"},{"name":"tokenIds","type":"uint256[]","internalType":"uint256[]"},{"name":"tokenQuota","type":"uint256","internalType":"uint256"},{"name":"stakingTime","type":"uint256","internalType":"uint256"},{"name":"extracted","type":"uint256","internalType":"uint256"},{"name":"extractable","type":"uint256","internalType":"uint256"},{"name":"countDown","type":"uint256","internalType":"uint256"}],"stateMutability":"view"},{"type":"function","name":"getUserInfo","inputs":[{"name":"user","type":"address","internalType":"address"}],"outputs":[{"name":"amountNFT","type":"uint256","internalType":"uint256"},{"name":"allOrders","type":"uint256[]","internalType":"uint256[]"},{"name":"awardUSDT","type":"uint256","internalType":"uint256"}],"stateMutability":"view"},{"type":"function","name":"initialize","inputs":[{"name":"_nfts","type":"address","internalType":"address"},{"name":"_token","type":"address","internalType":"address"}],"outputs":[],"stateMutability":"nonpayable"},{"type":"function","name":"isOrderFinished","inputs":[{"name":"orderId","type":"uint256","internalType":"uint256"}],"outputs":[{"name":"","type":"bool","internalType":"bool"}],"stateMutability":"view"},{"type":"function","name":"nfts","inputs":[],"outputs":[{"name":"","type":"address","internalType":"address"}],"stateMutability":"view"},{"type":"function","name":"onERC721Received","inputs":[{"name":"","type":"address","internalType":"address"},{"name":"","type":"address","internalType":"address"},{"name":"","type":"uint256","internalType":"uint256"},{"name":"","type":"bytes","internalType":"bytes"}],"outputs":[{"name":"","type":"bytes4","internalType":"bytes4"}],"stateMutability":"nonpayable"},{"type":"function","name":"orderIndex","inputs":[],"outputs":[{"name":"","type":"uint256","internalType":"uint256"}],"stateMutability":"view"},{"type":"function","name":"owner","inputs":[],"outputs":[{"name":"","type":"address","internalType":"address"}],"stateMutability":"view"},{"type":"function","name":"perNftAward","inputs":[],"outputs":[{"name":"","type":"uint256","internalType":"uint256"}],"stateMutability":"view"},{"type":"function","name":"proxiableUUID","inputs":[],"outputs":[{"name":"","type":"bytes32","internalType":"bytes32"}],"stateMutability":"view"},{"type":"function","name":"renounceOwnership","inputs":[],"outputs":[],"stateMutability":"nonpayable"},{"type":"function","name":"setStaking","inputs":[{"name":"_staking","type":"address","internalType":"address"}],"outputs":[],"stateMutability":"nonpayable"},{"type":"function","name":"stake","inputs":[{"name":"tokenIds","type":"uint256[]","internalType":"uint256[]"}],"outputs":[],"stateMutability":"nonpayable"},{"type":"function","name":"staking","inputs":[],"outputs":[{"name":"","type":"address","internalType":"address"}],"stateMutability":"view"},{"type":"function","name":"token","inputs":[],"outputs":[{"name":"","type":"address","internalType":"address"}],"stateMutability":"view"},{"type":"function","name":"totalDuration","inputs":[],"outputs":[{"name":"","type":"uint256","internalType":"uint256"}],"stateMutability":"view"},{"type":"function","name":"totalNftQuantity","inputs":[],"outputs":[{"name":"","type":"uint256","internalType":"uint256"}],"stateMutability":"view"},{"type":"function","name":"transferOwnership","inputs":[{"name":"newOwner","type":"address","internalType":"address"}],"outputs":[],"stateMutability":"nonpayable"},{"type":"function","name":"updateFarm","inputs":[{"name":"amountUSDT","type":"uint256","internalType":"uint256"}],"outputs":[],"stateMutability":"nonpayable"},{"type":"function","name":"upgradeToAndCall","inputs":[{"name":"newImplementation","type":"address","internalType":"address"},{"name":"data","type":"bytes","internalType":"bytes"}],"outputs":[],"stateMutability":"payable"},{"type":"function","name":"userInfo","inputs":[{"name":"","type":"address","internalType":"address"}],"outputs":[{"name":"amountNFT","type":"uint256","internalType":"uint256"},{"name":"farmDebt","type":"uint256","internalType":"uint256"},{"name":"pending","type":"uint256","internalType":"uint256"}],"stateMutability":"view"},{"type":"event","name":"Initialized","inputs":[{"name":"version","type":"uint64","indexed":false,"internalType":"uint64"}],"anonymous":false},{"type":"event","name":"OwnershipTransferred","inputs":[{"name":"previousOwner","type":"address","indexed":true,"internalType":"address"},{"name":"newOwner","type":"address","indexed":true,"internalType":"address"}],"anonymous":false},{"type":"event","name":"Upgraded","inputs":[{"name":"implementation","type":"address","indexed":true,"internalType":"address"}],"anonymous":false},{"type":"error","name":"AddressEmptyCode","inputs":[{"name":"target","type":"address","internalType":"address"}]},{"type":"error","name":"ERC1967InvalidImplementation","inputs":[{"name":"implementation","type":"address","internalType":"address"}]},{"type":"error","name":"ERC1967NonPayable","inputs":[]},{"type":"error","name":"FailedCall","inputs":[]},{"type":"error","name":"InvalidInitialization","inputs":[]},{"type":"error","name":"NotInitializing","inputs":[]},{"type":"error","name":"OwnableInvalidOwner","inputs":[{"name":"owner","type":"address","internalType":"address"}]},{"type":"error","name":"OwnableUnauthorizedAccount","inputs":[{"name":"account","type":"address","internalType":"address"}]},{"type":"error","name":"UUPSUnauthorizedCallContext","inputs":[]},{"type":"error","name":"UUPSUnsupportedProxiableUUID","inputs":[{"name":"slot","type":"bytes32","internalType":"bytes32"}]}],"bytecode":{"object":"0x60a06040523073ffffffffffffffffffffffffffffffffffffffff1660809073ffffffffffffffffffffffffffffffffffffffff168152503480156041575f5ffd5b50608051612c076100685f395f8181611586015281816115db01526117950152612c075ff3fe6080604052600436106101c5575f3560e01c80638aa12239116100f6578063c54e44eb11610094578063d311636b11610063578063d311636b14610665578063de68555a146106a7578063f2fde38b146106d1578063fc0c546a146106f957610205565b8063c54e44eb146105c1578063ca78800e146105eb578063cc430ced14610601578063d2beae3b1461062957610205565b80638ff39099116100d05780638ff39099146104f7578063ad3cb1cc1461051f578063b25c603b14610549578063b8a010ae1461058557610205565b80638aa12239146104795780638af6c259146104a35780638da5cb5b146104cd57610205565b80634cf088d91161016357806352d1902d1161013d57806352d1902d146103d35780636386c1c7146103fd57806363cb83a01461043b578063715018a61461046357610205565b80634cf088d9146103515780634f1ef2861461037b5780635254b6b61461039757610205565b80631959a0021161019f5780631959a0021461029757806330471fee146102d557806330ffa373146102ff578063485cc9551461032957610205565b80630fbf0a9314610209578063150b7a02146102315780631714f2e01461026d57610205565b36610205576040517f08c379a00000000000000000000000000000000000000000000000000000000081526004016101fc90611f35565b60405180910390fd5b5f5ffd5b348015610214575f5ffd5b5061022f600480360381019061022a9190611fc5565b610723565b005b34801561023c575f5ffd5b50610257600480360381019061025291906121d5565b610a19565b604051610264919061228f565b60405180910390f35b348015610278575f5ffd5b50610281610a2c565b60405161028e91906122b7565b60405180910390f35b3480156102a2575f5ffd5b506102bd60048036038101906102b891906122d0565b610a50565b6040516102cc9392919061230a565b60405180910390f35b3480156102e0575f5ffd5b506102e9610a76565b6040516102f6919061233f565b60405180910390f35b34801561030a575f5ffd5b50610313610a7c565b604051610320919061233f565b60405180910390f35b348015610334575f5ffd5b5061034f600480360381019061034a9190612358565b610a82565b005b34801561035c575f5ffd5b50610365610cac565b60405161037291906122b7565b60405180910390f35b61039560048036038101906103909190612396565b610cd1565b005b3480156103a2575f5ffd5b506103bd60048036038101906103b891906123f0565b610cf0565b6040516103ca919061233f565b60405180910390f35b3480156103de575f5ffd5b506103e7610d97565b6040516103f49190612433565b60405180910390f35b348015610408575f5ffd5b50610423600480360381019061041e91906122d0565b610dc8565b60405161043293929190612503565b60405180910390f35b348015610446575f5ffd5b50610461600480360381019061045c91906123f0565b610e78565b005b34801561046e575f5ffd5b50610477610fc3565b005b348015610484575f5ffd5b5061048d610fd6565b60405161049a919061233f565b60405180910390f35b3480156104ae575f5ffd5b506104b7610fdc565b6040516104c4919061233f565b60405180910390f35b3480156104d8575f5ffd5b506104e1610fe2565b6040516104ee91906122b7565b60405180910390f35b348015610502575f5ffd5b5061051d600480360381019061051891906122d0565b611017565b005b34801561052a575f5ffd5b50610533611062565b604051610540919061258f565b60405180910390f35b348015610554575f5ffd5b5061056f600480360381019061056a91906122d0565b61109b565b60405161057c919061233f565b60405180910390f35b348015610590575f5ffd5b506105ab60048036038101906105a691906123f0565b611130565b6040516105b8919061233f565b60405180910390f35b3480156105cc575f5ffd5b506105d5611197565b6040516105e291906122b7565b60405180910390f35b3480156105f6575f5ffd5b506105ff6111af565b005b34801561060c575f5ffd5b50610627600480360381019061062291906123f0565b6112ad565b005b348015610634575f5ffd5b5061064f600480360381019061064a91906123f0565b6113c6565b60405161065c91906125c9565b60405180910390f35b348015610670575f5ffd5b5061068b600480360381019061068691906123f0565b6113fa565b60405161069e97969594939291906125e2565b60405180910390f35b3480156106b2575f5ffd5b506106bb6114a7565b6040516106c8919061233f565b60405180910390f35b3480156106dc575f5ffd5b506106f760048036038101906106f291906122d0565b6114ad565b005b348015610704575f5ffd5b5061070d611531565b60405161071a91906122b7565b60405180910390f35b5f8282905011610768576040517f08c379a000000000000000000000000000000000000000000000000000000000815260040161075f906126a0565b60405180910390fd5b5f60035f3373ffffffffffffffffffffffffffffffffffffffff1673ffffffffffffffffffffffffffffffffffffffff1681526020019081526020015f2090505f815f015411156107fb575f8160010154600654835f01546107ca91906126eb565b6107d4919061272c565b90505f8111156107f95780826002015f8282546107f1919061275f565b925050819055505b505b5f60045f60095481526020019081526020015f20905033815f015f6101000a81548173ffffffffffffffffffffffffffffffffffffffff021916908373ffffffffffffffffffffffffffffffffffffffff1602179055508383905081600101819055504281600401819055506007548484905061087891906126eb565b81600301819055505f5f90505b84849050811015610981575f5f9054906101000a900473ffffffffffffffffffffffffffffffffffffffff1673ffffffffffffffffffffffffffffffffffffffff166342842e0e33308888868181106108e1576108e0612792565b5b905060200201356040518463ffffffff1660e01b8152600401610906939291906127bf565b5f604051808303815f87803b15801561091d575f5ffd5b505af115801561092f573d5f5f3e3d5ffd5b505050508160020185858381811061094a57610949612792565b5b90506020020135908060018154018082558091505060019003905f5260205f20015f90919091909150558080600101915050610885565b5083839050825f015f828254610997919061275f565b9250508190555081600301600954908060018154018082558091505060019003905f5260205f20015f90919091909150558383905060055f8282546109dc919061275f565b92505081905550600654825f01546109f491906126eb565b826001018190555060095f815480929190610a0e906127f4565b919050555050505050565b5f63150b7a0260e01b9050949350505050565b5f5f9054906101000a900473ffffffffffffffffffffffffffffffffffffffff1681565b6003602052805f5260405f205f91509050805f0154908060010154908060020154905083565b60095481565b60075481565b5f610a8b611556565b90505f815f0160089054906101000a900460ff161590505f825f015f9054906101000a900467ffffffffffffffff1690505f5f8267ffffffffffffffff16148015610ad35750825b90505f60018367ffffffffffffffff16148015610b0657505f3073ffffffffffffffffffffffffffffffffffffffff163b145b905081158015610b14575080155b15610b4b576040517ff92ee8a900000000000000000000000000000000000000000000000000000000815260040160405180910390fd5b6001855f015f6101000a81548167ffffffffffffffff021916908367ffffffffffffffff1602179055508315610b98576001855f0160086101000a81548160ff0219169083151502179055505b610ba8610ba3611569565b611570565b865f5f6101000a81548173ffffffffffffffffffffffffffffffffffffffff021916908373ffffffffffffffffffffffffffffffffffffffff1602179055508560015f6101000a81548173ffffffffffffffffffffffffffffffffffffffff021916908373ffffffffffffffffffffffffffffffffffffffff160217905550681b1ae4d6e2ef50000060078190555062278d0060088190555060016009819055508315610ca3575f855f0160086101000a81548160ff0219169083151502179055507fc7f505b2f371ae2175ee4913f4499e1f2633a7b5936321eed1cdaeb6115181d26001604051610c9a9190612890565b60405180910390a15b50505050505050565b60025f9054906101000a900473ffffffffffffffffffffffffffffffffffffffff1681565b610cd9611584565b610ce28261166a565b610cec8282611675565b5050565b5f5f60045f8481526020019081526020015f2090505f81600301541480610d1a57505f8160040154145b15610d28575f915050610d92565b5f816004015442610d39919061272c565b90506008548110610d615781600501548260030154610d58919061272c565b92505050610d92565b8160050154600854828460030154610d7991906126eb565b610d8391906128d6565b610d8d919061272c565b925050505b919050565b5f610da0611793565b7f360894a13ba1a3210667c828492db98dca3e2076cc3735a920a3ca505d382bbc5f1b905090565b5f60605f5f60035f8673ffffffffffffffffffffffffffffffffffffffff1673ffffffffffffffffffffffffffffffffffffffff1681526020019081526020015f209050805f0154935080600301805480602002602001604051908101604052809291908181526020018280548015610e5e57602002820191905f5260205f20905b815481526020019060010190808311610e4a575b50505050509250610e6e8561109b565b9150509193909250565b3373ffffffffffffffffffffffffffffffffffffffff1660045f8381526020019081526020015f205f015f9054906101000a900473ffffffffffffffffffffffffffffffffffffffff1673ffffffffffffffffffffffffffffffffffffffff1614610f18576040517f08c379a0000000000000000000000000000000000000000000000000000000008152600401610f0f90612950565b60405180910390fd5b5f5f9050610f2582610cf0565b90505f8111610f69576040517f08c379a0000000000000000000000000000000000000000000000000000000008152600401610f60906129b8565b60405180910390fd5b8060045f8481526020019081526020015f206005015f828254610f8c919061275f565b92505081905550610fbf60015f9054906101000a900473ffffffffffffffffffffffffffffffffffffffff16338361181a565b5050565b610fcb61194a565b610fd45f6119d1565b565b60055481565b60085481565b5f5f610fec611aa2565b9050805f015f9054906101000a900473ffffffffffffffffffffffffffffffffffffffff1691505090565b61101f61194a565b8060025f6101000a81548173ffffffffffffffffffffffffffffffffffffffff021916908373ffffffffffffffffffffffffffffffffffffffff16021790555050565b6040518060400160405280600581526020017f352e302e3000000000000000000000000000000000000000000000000000000081525081565b5f5f60035f8473ffffffffffffffffffffffffffffffffffffffff1673ffffffffffffffffffffffffffffffffffffffff1681526020019081526020015f2090505f815f0154036110f357806002015491505061112b565b5f8160010154600654835f015461110a91906126eb565b611114919061272c565b9050808260020154611126919061275f565b925050505b919050565b5f5f60045f8481526020019081526020015f2090505f816004015403611159575f915050611192565b5f81600401544261116a919061272c565b9050600854811061117f575f92505050611192565b8060085461118d919061272c565b925050505b919050565b733c83065b83a8fd66587f330845f4603f7c49275c81565b5f60035f3373ffffffffffffffffffffffffffffffffffffffff1673ffffffffffffffffffffffffffffffffffffffff1681526020019081526020015f2090505f8160010154600654835f015461120691906126eb565b611210919061272c565b90505f818360020154611223919061275f565b90505f8111611267576040517f08c379a000000000000000000000000000000000000000000000000000000000815260040161125e90612a20565b60405180910390fd5b5f8360020181905550600654835f015461128191906126eb565b83600101819055506112a8733c83065b83a8fd66587f330845f4603f7c49275c338361181a565b505050565b60025f9054906101000a900473ffffffffffffffffffffffffffffffffffffffff1673ffffffffffffffffffffffffffffffffffffffff163373ffffffffffffffffffffffffffffffffffffffff161480611354575060015f9054906101000a900473ffffffffffffffffffffffffffffffffffffffff1673ffffffffffffffffffffffffffffffffffffffff163373ffffffffffffffffffffffffffffffffffffffff16145b611393576040517f08c379a000000000000000000000000000000000000000000000000000000000815260040161138a90612950565b60405180910390fd5b5f60055403156113c357600554816113ab91906128d6565b60065f8282546113bb919061275f565b925050819055505b50565b5f60045f8381526020019081526020015f206003015460045f8481526020019081526020015f206005015410159050919050565b5f60605f5f5f5f5f5f60045f8a81526020019081526020015f209050806001015497508060020180548060200260200160405190810160405280929190818152602001828054801561146957602002820191905f5260205f20905b815481526020019060010190808311611455575b5050505050965080600301549550806004015494508060050154935061148e89610cf0565b925061149989611130565b915050919395979092949650565b60065481565b6114b561194a565b5f73ffffffffffffffffffffffffffffffffffffffff168173ffffffffffffffffffffffffffffffffffffffff1603611525575f6040517f1e4fbdf700000000000000000000000000000000000000000000000000000000815260040161151c91906122b7565b60405180910390fd5b61152e816119d1565b50565b60015f9054906101000a900473ffffffffffffffffffffffffffffffffffffffff1681565b5f5f611560611ac9565b90508091505090565b5f33905090565b611578611af2565b61158181611b32565b50565b7f000000000000000000000000000000000000000000000000000000000000000073ffffffffffffffffffffffffffffffffffffffff163073ffffffffffffffffffffffffffffffffffffffff16148061163157507f000000000000000000000000000000000000000000000000000000000000000073ffffffffffffffffffffffffffffffffffffffff16611618611bb6565b73ffffffffffffffffffffffffffffffffffffffff1614155b15611668576040517fe07c8dba00000000000000000000000000000000000000000000000000000000815260040160405180910390fd5b565b61167261194a565b50565b8173ffffffffffffffffffffffffffffffffffffffff166352d1902d6040518163ffffffff1660e01b8152600401602060405180830381865afa9250505080156116dd57506040513d601f19601f820116820180604052508101906116da9190612a68565b60015b61171e57816040517f4c9c8ce300000000000000000000000000000000000000000000000000000000815260040161171591906122b7565b60405180910390fd5b7f360894a13ba1a3210667c828492db98dca3e2076cc3735a920a3ca505d382bbc5f1b811461178457806040517faa1d49a400000000000000000000000000000000000000000000000000000000815260040161177b9190612433565b60405180910390fd5b61178e8383611c09565b505050565b7f000000000000000000000000000000000000000000000000000000000000000073ffffffffffffffffffffffffffffffffffffffff163073ffffffffffffffffffffffffffffffffffffffff1614611818576040517fe07c8dba00000000000000000000000000000000000000000000000000000000815260040160405180910390fd5b565b5f5f8473ffffffffffffffffffffffffffffffffffffffff1663a9059cbb858560405160240161184b929190612a93565b6040516020818303038152906040529060e01b6020820180517bffffffffffffffffffffffffffffffffffffffffffffffffffffffff83818316178352505050506040516118999190612afe565b5f604051808303815f865af19150503d805f81146118d2576040519150601f19603f3d011682016040523d82523d5f602084013e6118d7565b606091505b509150915081801561190457505f815114806119035750808060200190518101906119029190612b3e565b5b5b611943576040517f08c379a000000000000000000000000000000000000000000000000000000000815260040161193a90612bb3565b60405180910390fd5b5050505050565b611952611569565b73ffffffffffffffffffffffffffffffffffffffff16611970610fe2565b73ffffffffffffffffffffffffffffffffffffffff16146119cf57611993611569565b6040517f118cdaa70000000000000000000000000000000000000000000000000000000081526004016119c691906122b7565b60405180910390fd5b565b5f6119da611aa2565b90505f815f015f9054906101000a900473ffffffffffffffffffffffffffffffffffffffff16905082825f015f6101000a81548173ffffffffffffffffffffffffffffffffffffffff021916908373ffffffffffffffffffffffffffffffffffffffff1602179055508273ffffffffffffffffffffffffffffffffffffffff168173ffffffffffffffffffffffffffffffffffffffff167f8be0079c531659141344cd1fd0a4f28419497f9722a3daafe3b4186f6b6457e060405160405180910390a3505050565b5f7f9016d09d72d40fdae2fd8ceac6b6234c7706214fd39c1cd1e609a0528c199300905090565b5f7ff0c57e16840df040f15088dc2f81fe391c3923bec73e23a9662efc9c229c6a005f1b905090565b611afa611c7b565b611b30576040517fd7e6bcf800000000000000000000000000000000000000000000000000000000815260040160405180910390fd5b565b611b3a611af2565b5f73ffffffffffffffffffffffffffffffffffffffff168173ffffffffffffffffffffffffffffffffffffffff1603611baa575f6040517f1e4fbdf7000000000000000000000000000000000000000000000000000000008152600401611ba191906122b7565b60405180910390fd5b611bb3816119d1565b50565b5f611be27f360894a13ba1a3210667c828492db98dca3e2076cc3735a920a3ca505d382bbc5f1b611c99565b5f015f9054906101000a900473ffffffffffffffffffffffffffffffffffffffff16905090565b611c1282611ca2565b8173ffffffffffffffffffffffffffffffffffffffff167fbc7cd75a20ee27fd9adebab32041f755214dbc6bffa90cc0225b39da2e5c2d3b60405160405180910390a25f81511115611c6e57611c688282611d6b565b50611c77565b611c76611e5c565b5b5050565b5f611c84611556565b5f0160089054906101000a900460ff16905090565b5f819050919050565b5f8173ffffffffffffffffffffffffffffffffffffffff163b03611cfd57806040517f4c9c8ce3000000000000000000000000000000000000000000000000000000008152600401611cf491906122b7565b60405180910390fd5b80611d297f360894a13ba1a3210667c828492db98dca3e2076cc3735a920a3ca505d382bbc5f1b611c99565b5f015f6101000a81548173ffffffffffffffffffffffffffffffffffffffff021916908373ffffffffffffffffffffffffffffffffffffffff16021790555050565b60605f611d788484611e98565b9050808015611dae57505f611d8b611eac565b1180611dad57505f8473ffffffffffffffffffffffffffffffffffffffff163b115b5b15611dc357611dbb611eb3565b915050611e56565b8015611e0657836040517f9996b315000000000000000000000000000000000000000000000000000000008152600401611dfd91906122b7565b60405180910390fd5b5f611e0f611eac565b1115611e2257611e1d611ed0565b611e54565b6040517fd6bda27500000000000000000000000000000000000000000000000000000000815260040160405180910390fd5b505b92915050565b5f341115611e96576040517fb398979f00000000000000000000000000000000000000000000000000000000815260040160405180910390fd5b565b5f5f5f835160208501865af4905092915050565b5f3d905090565b606060405190503d81523d5f602083013e3d602001810160405290565b6040513d5f823e3d81fd5b5f82825260208201905092915050565b7f4e4f5f4449524543545f53454e440000000000000000000000000000000000005f82015250565b5f611f1f600e83611edb565b9150611f2a82611eeb565b602082019050919050565b5f6020820190508181035f830152611f4c81611f13565b9050919050565b5f604051905090565b5f5ffd5b5f5ffd5b5f5ffd5b5f5ffd5b5f5ffd5b5f5f83601f840112611f8557611f84611f64565b5b8235905067ffffffffffffffff811115611fa257611fa1611f68565b5b602083019150836020820283011115611fbe57611fbd611f6c565b5b9250929050565b5f5f60208385031215611fdb57611fda611f5c565b5b5f83013567ffffffffffffffff811115611ff857611ff7611f60565b5b61200485828601611f70565b92509250509250929050565b5f73ffffffffffffffffffffffffffffffffffffffff82169050919050565b5f61203982612010565b9050919050565b6120498161202f565b8114612053575f5ffd5b50565b5f8135905061206481612040565b92915050565b5f819050919050565b61207c8161206a565b8114612086575f5ffd5b50565b5f8135905061209781612073565b92915050565b5f5ffd5b5f601f19601f8301169050919050565b7f4e487b71000000000000000000000000000000000000000000000000000000005f52604160045260245ffd5b6120e7826120a1565b810181811067ffffffffffffffff82111715612106576121056120b1565b5b80604052505050565b5f612118611f53565b905061212482826120de565b919050565b5f67ffffffffffffffff821115612143576121426120b1565b5b61214c826120a1565b9050602081019050919050565b828183375f83830152505050565b5f61217961217484612129565b61210f565b9050828152602081018484840111156121955761219461209d565b5b6121a0848285612159565b509392505050565b5f82601f8301126121bc576121bb611f64565b5b81356121cc848260208601612167565b91505092915050565b5f5f5f5f608085870312156121ed576121ec611f5c565b5b5f6121fa87828801612056565b945050602061220b87828801612056565b935050604061221c87828801612089565b925050606085013567ffffffffffffffff81111561223d5761223c611f60565b5b612249878288016121a8565b91505092959194509250565b5f7fffffffff0000000000000000000000000000000000000000000000000000000082169050919050565b61228981612255565b82525050565b5f6020820190506122a25f830184612280565b92915050565b6122b18161202f565b82525050565b5f6020820190506122ca5f8301846122a8565b92915050565b5f602082840312156122e5576122e4611f5c565b5b5f6122f284828501612056565b91505092915050565b6123048161206a565b82525050565b5f60608201905061231d5f8301866122fb565b61232a60208301856122fb565b61233760408301846122fb565b949350505050565b5f6020820190506123525f8301846122fb565b92915050565b5f5f6040838503121561236e5761236d611f5c565b5b5f61237b85828601612056565b925050602061238c85828601612056565b9150509250929050565b5f5f604083850312156123ac576123ab611f5c565b5b5f6123b985828601612056565b925050602083013567ffffffffffffffff8111156123da576123d9611f60565b5b6123e6858286016121a8565b9150509250929050565b5f6020828403121561240557612404611f5c565b5b5f61241284828501612089565b91505092915050565b5f819050919050565b61242d8161241b565b82525050565b5f6020820190506124465f830184612424565b92915050565b5f81519050919050565b5f82825260208201905092915050565b5f819050602082019050919050565b61247e8161206a565b82525050565b5f61248f8383612475565b60208301905092915050565b5f602082019050919050565b5f6124b18261244c565b6124bb8185612456565b93506124c683612466565b805f5b838110156124f65781516124dd8882612484565b97506124e88361249b565b9250506001810190506124c9565b5085935050505092915050565b5f6060820190506125165f8301866122fb565b818103602083015261252881856124a7565b905061253760408301846122fb565b949350505050565b5f81519050919050565b8281835e5f83830152505050565b5f6125618261253f565b61256b8185611edb565b935061257b818560208601612549565b612584816120a1565b840191505092915050565b5f6020820190508181035f8301526125a78184612557565b905092915050565b5f8115159050919050565b6125c3816125af565b82525050565b5f6020820190506125dc5f8301846125ba565b92915050565b5f60e0820190506125f55f83018a6122fb565b818103602083015261260781896124a7565b905061261660408301886122fb565b61262360608301876122fb565b61263060808301866122fb565b61263d60a08301856122fb565b61264a60c08301846122fb565b98975050505050505050565b7f454d5054590000000000000000000000000000000000000000000000000000005f82015250565b5f61268a600583611edb565b915061269582612656565b602082019050919050565b5f6020820190508181035f8301526126b78161267e565b9050919050565b7f4e487b71000000000000000000000000000000000000000000000000000000005f52601160045260245ffd5b5f6126f58261206a565b91506127008361206a565b925082820261270e8161206a565b91508282048414831517612725576127246126be565b5b5092915050565b5f6127368261206a565b91506127418361206a565b9250828203905081811115612759576127586126be565b5b92915050565b5f6127698261206a565b91506127748361206a565b925082820190508082111561278c5761278b6126be565b5b92915050565b7f4e487b71000000000000000000000000000000000000000000000000000000005f52603260045260245ffd5b5f6060820190506127d25f8301866122a8565b6127df60208301856122a8565b6127ec60408301846122fb565b949350505050565b5f6127fe8261206a565b91507fffffffffffffffffffffffffffffffffffffffffffffffffffffffffffffffff82036128305761282f6126be565b5b600182019050919050565b5f819050919050565b5f67ffffffffffffffff82169050919050565b5f819050919050565b5f61287a6128756128708461283b565b612857565b612844565b9050919050565b61288a81612860565b82525050565b5f6020820190506128a35f830184612881565b92915050565b7f4e487b71000000000000000000000000000000000000000000000000000000005f52601260045260245ffd5b5f6128e08261206a565b91506128eb8361206a565b9250826128fb576128fa6128a9565b5b828204905092915050565b7f4e6f74207065726d69742e0000000000000000000000000000000000000000005f82015250565b5f61293a600b83611edb565b915061294582612906565b602082019050919050565b5f6020820190508181035f8301526129678161292e565b9050919050565b7f4e4f5f41574152440000000000000000000000000000000000000000000000005f82015250565b5f6129a2600883611edb565b91506129ad8261296e565b602082019050919050565b5f6020820190508181035f8301526129cf81612996565b9050919050565b7f4e4f5f52455741524400000000000000000000000000000000000000000000005f82015250565b5f612a0a600983611edb565b9150612a15826129d6565b602082019050919050565b5f6020820190508181035f830152612a37816129fe565b9050919050565b612a478161241b565b8114612a51575f5ffd5b50565b5f81519050612a6281612a3e565b92915050565b5f60208284031215612a7d57612a7c611f5c565b5b5f612a8a84828501612a54565b91505092915050565b5f604082019050612aa65f8301856122a8565b612ab360208301846122fb565b9392505050565b5f81519050919050565b5f81905092915050565b5f612ad882612aba565b612ae28185612ac4565b9350612af2818560208601612549565b80840191505092915050565b5f612b098284612ace565b915081905092915050565b612b1d816125af565b8114612b27575f5ffd5b50565b5f81519050612b3881612b14565b92915050565b5f60208284031215612b5357612b52611f5c565b5b5f612b6084828501612b2a565b91505092915050565b7f5472616e7366657248656c7065723a205452414e534645525f4641494c4544005f82015250565b5f612b9d601f83611edb565b9150612ba882612b69565b602082019050919050565b5f6020820190508181035f830152612bca81612b91565b905091905056fea264697066735822122098b946a2ba920c624c9fe4456720abb73b88b1d0a95894ed986b5affd92d793864736f6c634300081e0033","linkReferences":{}},"methodIdentifiers":{"UPGRADE_INTERFACE_VERSION()":"ad3cb1cc","USDT()":"c54e44eb","claimOrderAward(uint256)":"63cb83a0","claimUserUSDT()":"ca78800e","forexRate()":"30ffa373","getAwardUsdt(address)":"b25c603b","getCountdown(uint256)":"b8a010ae","getExtractable(uint256)":"5254b6b6","getOrderInfo(uint256)":"d311636b","getUserInfo(address)":"6386c1c7","initialize(address,address)":"485cc955","isOrderFinished(uint256)":"d2beae3b","nfts()":"1714f2e0","onERC721Received(address,address,uint256,bytes)":"150b7a02","orderIndex()":"30471fee","owner()":"8da5cb5b","perNftAward()":"de68555a","proxiableUUID()":"52d1902d","renounceOwnership()":"715018a6","setStaking(address)":"8ff39099","stake(uint256[])":"0fbf0a93","staking()":"4cf088d9","token()":"fc0c546a","totalDuration()":"8af6c259","totalNftQuantity()":"8aa12239","transferOwnership(address)":"f2fde38b","updateFarm(uint256)":"cc430ced","upgradeToAndCall(address,bytes)":"4f1ef286","userInfo(address)":"1959a002"},"id":54}