{"abi":[{"type":"receive","stateMutability":"payable"},{"type":"function","name":"UPGRADE_INTERFACE_VERSION","inputs":[],"outputs":[{"name":"","type":"string","internalType":"string"}],"stateMutability":"view"},{"type":"function","name":"USDT","inputs":[],"outputs":[{"name":"","type":"address","internalType":"address"}],"stateMutability":"view"},{"type":"function","name":"claimOrderAward","inputs":[{"name":"orderId","type":"uint256","internalType":"uint256"}],"outputs":[],"stateMutability":"nonpayable"},{"type":"function","name":"claimUserUSDT","inputs":[],"outputs":[],"stateMutability":"nonpayable"},{"type":"function","name":"forexRate","inputs":[],"outputs":[{"name":"","type":"uint256","internalType":"uint256"}],"stateMutability":"view"},{"type":"function","name":"getAwardUsdt","inputs":[{"name":"user","type":"address","internalType":"address"}],"outputs":[{"name":"","type":"uint256","internalType":"uint256"}],"stateMutability":"view"},{"type":"function","name":"getCountdown","inputs":[{"name":"orderId","type":"uint256","internalType":"uint256"}],"outputs":[{"name":"","type":"uint256","internalType":"uint256"}],"stateMutability":"view"},{"type":"function","name":"getExtractable","inputs":[{"name":"orderId","type":"uint256","internalType":"uint256"}],"outputs":[{"name":"","type":"uint256","internalType":"uint256"}],"stateMutability":"view"},{"type":"function","name":"getOrderInfo","inputs":[{"name":"orderId","type":"uint256","internalType":"uint256"}],"outputs":[{"name":"nftQuantity","type":"uint256","internalType":"uint256"},{"name":"tokenIds","type":"uint256[]","internalType":"uint256[]"},{"name":"tokenQuota","type":"uint256","internalType":"uint256"},{"name":"stakingTime","type":"uint256","internalType":"uint256"},{"name":"extracted","type":"uint256","internalType":"uint256"},{"name":"extractable","type":"uint256","internalType":"uint256"},{"name":"countDown","type":"uint256","internalType":"uint256"}],"stateMutability":"view"},{"type":"function","name":"getUserInfo","inputs":[{"name":"user","type":"address","internalType":"address"}],"outputs":[{"name":"amountNFT","type":"uint256","internalType":"uint256"},{"name":"allOrders","type":"uint256[]","internalType":"uint256[]"},{"name":"awardUSDT","type":"uint256","internalType":"uint256"}],"stateMutability":"view"},{"type":"function","name":"initialize","inputs":[{"name":"_usdt","type":"address","internalType":"address"},{"name":"_nfts","type":"address","internalType":"address"},{"name":"_token","type":"address","internalType":"address"}],"outputs":[],"stateMutability":"nonpayable"},{"type":"function","name":"isOrderFinished","inputs":[{"name":"orderId","type":"uint256","internalType":"uint256"}],"outputs":[{"name":"","type":"bool","internalType":"bool"}],"stateMutability":"view"},{"type":"function","name":"nfts","inputs":[],"outputs":[{"name":"","type":"address","internalType":"address"}],"stateMutability":"view"},{"type":"function","name":"onERC721Received","inputs":[{"name":"","type":"address","internalType":"address"},{"name":"","type":"address","internalType":"address"},{"name":"","type":"uint256","internalType":"uint256"},{"name":"","type":"bytes","internalType":"bytes"}],"outputs":[{"name":"","type":"bytes4","internalType":"bytes4"}],"stateMutability":"nonpayable"},{"type":"function","name":"orderIndex","inputs":[],"outputs":[{"name":"","type":"uint256","internalType":"uint256"}],"stateMutability":"view"},{"type":"function","name":"owner","inputs":[],"outputs":[{"name":"","type":"address","internalType":"address"}],"stateMutability":"view"},{"type":"function","name":"perNftAward","inputs":[],"outputs":[{"name":"","type":"uint256","internalType":"uint256"}],"stateMutability":"view"},{"type":"function","name":"proxiableUUID","inputs":[],"outputs":[{"name":"","type":"bytes32","internalType":"bytes32"}],"stateMutability":"view"},{"type":"function","name":"renounceOwnership","inputs":[],"outputs":[],"stateMutability":"nonpayable"},{"type":"function","name":"setForexRate","inputs":[{"name":"_forexRate","type":"uint256","internalType":"uint256"}],"outputs":[],"stateMutability":"nonpayable"},{"type":"function","name":"setStaking","inputs":[{"name":"_staking","type":"address","internalType":"address"}],"outputs":[],"stateMutability":"nonpayable"},{"type":"function","name":"stake","inputs":[{"name":"tokenIds","type":"uint256[]","internalType":"uint256[]"}],"outputs":[],"stateMutability":"nonpayable"},{"type":"function","name":"staking","inputs":[],"outputs":[{"name":"","type":"address","internalType":"address"}],"stateMutability":"view"},{"type":"function","name":"token","inputs":[],"outputs":[{"name":"","type":"address","internalType":"address"}],"stateMutability":"view"},{"type":"function","name":"totalDuration","inputs":[],"outputs":[{"name":"","type":"uint256","internalType":"uint256"}],"stateMutability":"view"},{"type":"function","name":"totalNftQuantity","inputs":[],"outputs":[{"name":"","type":"uint256","internalType":"uint256"}],"stateMutability":"view"},{"type":"function","name":"transferOwnership","inputs":[{"name":"newOwner","type":"address","internalType":"address"}],"outputs":[],"stateMutability":"nonpayable"},{"type":"function","name":"updateFarm","inputs":[{"name":"amountUSDT","type":"uint256","internalType":"uint256"}],"outputs":[],"stateMutability":"nonpayable"},{"type":"function","name":"upgradeToAndCall","inputs":[{"name":"newImplementation","type":"address","internalType":"address"},{"name":"data","type":"bytes","internalType":"bytes"}],"outputs":[],"stateMutability":"payable"},{"type":"function","name":"userInfo","inputs":[{"name":"","type":"address","internalType":"address"}],"outputs":[{"name":"amountNFT","type":"uint256","internalType":"uint256"},{"name":"farmDebt","type":"uint256","internalType":"uint256"},{"name":"pending","type":"uint256","internalType":"uint256"}],"stateMutability":"view"},{"type":"event","name":"Initialized","inputs":[{"name":"version","type":"uint64","indexed":false,"internalType":"uint64"}],"anonymous":false},{"type":"event","name":"OwnershipTransferred","inputs":[{"name":"previousOwner","type":"address","indexed":true,"internalType":"address"},{"name":"newOwner","type":"address","indexed":true,"internalType":"address"}],"anonymous":false},{"type":"event","name":"Upgraded","inputs":[{"name":"implementation","type":"address","indexed":true,"internalType":"address"}],"anonymous":false},{"type":"error","name":"AddressEmptyCode","inputs":[{"name":"target","type":"address","internalType":"address"}]},{"type":"error","name":"ERC1967InvalidImplementation","inputs":[{"name":"implementation","type":"address","internalType":"address"}]},{"type":"error","name":"ERC1967NonPayable","inputs":[]},{"type":"error","name":"FailedCall","inputs":[]},{"type":"error","name":"InvalidInitialization","inputs":[]},{"type":"error","name":"NotInitializing","inputs":[]},{"type":"error","name":"OwnableInvalidOwner","inputs":[{"name":"owner","type":"address","internalType":"address"}]},{"type":"error","name":"OwnableUnauthorizedAccount","inputs":[{"name":"account","type":"address","internalType":"address"}]},{"type":"error","name":"UUPSUnauthorizedCallContext","inputs":[]},{"type":"error","name":"UUPSUnsupportedProxiableUUID","inputs":[{"name":"slot","type":"bytes32","internalType":"bytes32"}]}],"bytecode":{"object":"0x60a06040523073ffffffffffffffffffffffffffffffffffffffff1660809073ffffffffffffffffffffffffffffffffffffffff168152503480156041575f5ffd5b50608051612cb96100685f395f81816115f80152818161164d01526118070152612cb95ff3fe6080604052600436106101d0575f3560e01c80638af6c259116100f6578063c54e44eb11610094578063d311636b11610063578063d311636b14610698578063de68555a146106da578063f2fde38b14610704578063fc0c546a1461072c57610210565b8063c54e44eb146105f4578063ca78800e1461061e578063cc430ced14610634578063d2beae3b1461065c57610210565b8063ad3cb1cc116100d0578063ad3cb1cc1461052a578063b25c603b14610554578063b8a010ae14610590578063c0c53b8b146105cc57610210565b80638af6c259146104ae5780638da5cb5b146104d85780638ff390991461050257610210565b80634f1ef2861161016e57806363cb83a01161013d57806363cb83a01461041e578063715018a614610446578063720d039c1461045c5780638aa122391461048457610210565b80634f1ef2861461035e5780635254b6b61461037a57806352d1902d146103b65780636386c1c7146103e057610210565b80631959a002116101aa5780631959a002146102a257806330471fee146102e057806330ffa3731461030a5780634cf088d91461033457610210565b80630fbf0a9314610214578063150b7a021461023c5780631714f2e01461027857610210565b36610210576040517f08c379a000000000000000000000000000000000000000000000000000000000815260040161020790611fd5565b60405180910390fd5b5f5ffd5b34801561021f575f5ffd5b5061023a60048036038101906102359190612065565b610756565b005b348015610247575f5ffd5b50610262600480360381019061025d9190612275565b610a4d565b60405161026f919061232f565b60405180910390f35b348015610283575f5ffd5b5061028c610a60565b6040516102999190612357565b60405180910390f35b3480156102ad575f5ffd5b506102c860048036038101906102c39190612370565b610a85565b6040516102d7939291906123aa565b60405180910390f35b3480156102eb575f5ffd5b506102f4610aab565b60405161030191906123df565b60405180910390f35b348015610315575f5ffd5b5061031e610ab1565b60405161032b91906123df565b60405180910390f35b34801561033f575f5ffd5b50610348610ab7565b6040516103559190612357565b60405180910390f35b610378600480360381019061037391906123f8565b610adc565b005b348015610385575f5ffd5b506103a0600480360381019061039b9190612452565b610afb565b6040516103ad91906123df565b60405180910390f35b3480156103c1575f5ffd5b506103ca610ba2565b6040516103d79190612495565b60405180910390f35b3480156103eb575f5ffd5b5061040660048036038101906104019190612370565b610bd3565b60405161041593929190612565565b60405180910390f35b348015610429575f5ffd5b50610444600480360381019061043f9190612452565b610c83565b005b348015610451575f5ffd5b5061045a610dce565b005b348015610467575f5ffd5b50610482600480360381019061047d9190612452565b610de1565b005b34801561048f575f5ffd5b50610498610df3565b6040516104a591906123df565b60405180910390f35b3480156104b9575f5ffd5b506104c2610df9565b6040516104cf91906123df565b60405180910390f35b3480156104e3575f5ffd5b506104ec610dff565b6040516104f99190612357565b60405180910390f35b34801561050d575f5ffd5b5061052860048036038101906105239190612370565b610e34565b005b348015610535575f5ffd5b5061053e610e7f565b60405161054b91906125f1565b60405180910390f35b34801561055f575f5ffd5b5061057a60048036038101906105759190612370565b610eb8565b60405161058791906123df565b60405180910390f35b34801561059b575f5ffd5b506105b660048036038101906105b19190612452565b610f4d565b6040516105c391906123df565b60405180910390f35b3480156105d7575f5ffd5b506105f260048036038101906105ed9190612611565b610fb4565b005b3480156105ff575f5ffd5b5061060861121f565b6040516106159190612357565b60405180910390f35b348015610629575f5ffd5b50610632611243565b005b34801561063f575f5ffd5b5061065a60048036038101906106559190612452565b61134d565b005b348015610667575f5ffd5b50610682600480360381019061067d9190612452565b611466565b60405161068f919061267b565b60405180910390f35b3480156106a3575f5ffd5b506106be60048036038101906106b99190612452565b61149a565b6040516106d19796959493929190612694565b60405180910390f35b3480156106e5575f5ffd5b506106ee611547565b6040516106fb91906123df565b60405180910390f35b34801561070f575f5ffd5b5061072a60048036038101906107259190612370565b61154d565b005b348015610737575f5ffd5b506107406115d1565b60405161074d9190612357565b60405180910390f35b5f828290501161079b576040517f08c379a000000000000000000000000000000000000000000000000000000000815260040161079290612752565b60405180910390fd5b5f60045f3373ffffffffffffffffffffffffffffffffffffffff1673ffffffffffffffffffffffffffffffffffffffff1681526020019081526020015f2090505f815f0154111561082e575f8160010154600754835f01546107fd919061279d565b61080791906127de565b90505f81111561082c5780826002015f8282546108249190612811565b925050819055505b505b5f60055f600a5481526020019081526020015f20905033815f015f6101000a81548173ffffffffffffffffffffffffffffffffffffffff021916908373ffffffffffffffffffffffffffffffffffffffff160217905550838390508160010181905550428160040181905550600854848490506108ab919061279d565b81600301819055505f5f90505b848490508110156109b55760015f9054906101000a900473ffffffffffffffffffffffffffffffffffffffff1673ffffffffffffffffffffffffffffffffffffffff166342842e0e333088888681811061091557610914612844565b5b905060200201356040518463ffffffff1660e01b815260040161093a93929190612871565b5f604051808303815f87803b158015610951575f5ffd5b505af1158015610963573d5f5f3e3d5ffd5b505050508160020185858381811061097e5761097d612844565b5b90506020020135908060018154018082558091505060019003905f5260205f20015f909190919091505580806001019150506108b8565b5083839050825f015f8282546109cb9190612811565b9250508190555081600301600a54908060018154018082558091505060019003905f5260205f20015f90919091909150558383905060065f828254610a109190612811565b92505081905550600754825f0154610a28919061279d565b8260010181905550600a5f815480929190610a42906128a6565b919050555050505050565b5f63150b7a0260e01b9050949350505050565b60015f9054906101000a900473ffffffffffffffffffffffffffffffffffffffff1681565b6004602052805f5260405f205f91509050805f0154908060010154908060020154905083565b600a5481565b60085481565b60035f9054906101000a900473ffffffffffffffffffffffffffffffffffffffff1681565b610ae46115f6565b610aed826116dc565b610af782826116e7565b5050565b5f5f60055f8481526020019081526020015f2090505f81600301541480610b2557505f8160040154145b15610b33575f915050610b9d565b5f816004015442610b4491906127de565b90506009548110610b6c5781600501548260030154610b6391906127de565b92505050610b9d565b8160050154600954828460030154610b84919061279d565b610b8e919061291a565b610b9891906127de565b925050505b919050565b5f610bab611805565b7f360894a13ba1a3210667c828492db98dca3e2076cc3735a920a3ca505d382bbc5f1b905090565b5f60605f5f60045f8673ffffffffffffffffffffffffffffffffffffffff1673ffffffffffffffffffffffffffffffffffffffff1681526020019081526020015f209050805f0154935080600301805480602002602001604051908101604052809291908181526020018280548015610c6957602002820191905f5260205f20905b815481526020019060010190808311610c55575b50505050509250610c7985610eb8565b9150509193909250565b3373ffffffffffffffffffffffffffffffffffffffff1660055f8381526020019081526020015f205f015f9054906101000a900473ffffffffffffffffffffffffffffffffffffffff1673ffffffffffffffffffffffffffffffffffffffff1614610d23576040517f08c379a0000000000000000000000000000000000000000000000000000000008152600401610d1a90612994565b60405180910390fd5b5f5f9050610d3082610afb565b90505f8111610d74576040517f08c379a0000000000000000000000000000000000000000000000000000000008152600401610d6b906129fc565b60405180910390fd5b8060055f8481526020019081526020015f206005015f828254610d979190612811565b92505081905550610dca60025f9054906101000a900473ffffffffffffffffffffffffffffffffffffffff16338361188c565b5050565b610dd66119bc565b610ddf5f611a43565b565b610de96119bc565b8060088190555050565b60065481565b60095481565b5f5f610e09611b14565b9050805f015f9054906101000a900473ffffffffffffffffffffffffffffffffffffffff1691505090565b610e3c6119bc565b8060035f6101000a81548173ffffffffffffffffffffffffffffffffffffffff021916908373ffffffffffffffffffffffffffffffffffffffff16021790555050565b6040518060400160405280600581526020017f352e302e3000000000000000000000000000000000000000000000000000000081525081565b5f5f60045f8473ffffffffffffffffffffffffffffffffffffffff1673ffffffffffffffffffffffffffffffffffffffff1681526020019081526020015f2090505f815f015403610f10578060020154915050610f48565b5f8160010154600754835f0154610f27919061279d565b610f3191906127de565b9050808260020154610f439190612811565b925050505b919050565b5f5f60055f8481526020019081526020015f2090505f816004015403610f76575f915050610faf565b5f816004015442610f8791906127de565b90506009548110610f9c575f92505050610faf565b80600954610faa91906127de565b925050505b919050565b5f610fbd611b3b565b90505f815f0160089054906101000a900460ff161590505f825f015f9054906101000a900467ffffffffffffffff1690505f5f8267ffffffffffffffff161480156110055750825b90505f60018367ffffffffffffffff1614801561103857505f3073ffffffffffffffffffffffffffffffffffffffff163b145b905081158015611046575080155b1561107d576040517ff92ee8a900000000000000000000000000000000000000000000000000000000815260040160405180910390fd5b6001855f015f6101000a81548167ffffffffffffffff021916908367ffffffffffffffff16021790555083156110ca576001855f0160086101000a81548160ff0219169083151502179055505b6110da6110d5611b4e565b611b55565b875f5f6101000a81548173ffffffffffffffffffffffffffffffffffffffff021916908373ffffffffffffffffffffffffffffffffffffffff1602179055508660015f6101000a81548173ffffffffffffffffffffffffffffffffffffffff021916908373ffffffffffffffffffffffffffffffffffffffff1602179055508560025f6101000a81548173ffffffffffffffffffffffffffffffffffffffff021916908373ffffffffffffffffffffffffffffffffffffffff160217905550681b1ae4d6e2ef50000060088190555062278d006009819055506001600a819055508315611215575f855f0160086101000a81548160ff0219169083151502179055507fc7f505b2f371ae2175ee4913f4499e1f2633a7b5936321eed1cdaeb6115181d2600160405161120c9190612a6f565b60405180910390a15b5050505050505050565b5f5f9054906101000a900473ffffffffffffffffffffffffffffffffffffffff1681565b5f60045f3373ffffffffffffffffffffffffffffffffffffffff1673ffffffffffffffffffffffffffffffffffffffff1681526020019081526020015f2090505f8160010154600754835f015461129a919061279d565b6112a491906127de565b90505f8183600201546112b79190612811565b90505f81116112fb576040517f08c379a00000000000000000000000000000000000000000000000000000000081526004016112f290612ad2565b60405180910390fd5b5f8360020181905550600754835f0154611315919061279d565b83600101819055506113485f5f9054906101000a900473ffffffffffffffffffffffffffffffffffffffff16338361188c565b505050565b60035f9054906101000a900473ffffffffffffffffffffffffffffffffffffffff1673ffffffffffffffffffffffffffffffffffffffff163373ffffffffffffffffffffffffffffffffffffffff1614806113f4575060025f9054906101000a900473ffffffffffffffffffffffffffffffffffffffff1673ffffffffffffffffffffffffffffffffffffffff163373ffffffffffffffffffffffffffffffffffffffff16145b611433576040517f08c379a000000000000000000000000000000000000000000000000000000000815260040161142a90612994565b60405180910390fd5b5f6006540315611463576006548161144b919061291a565b60075f82825461145b9190612811565b925050819055505b50565b5f60055f8381526020019081526020015f206003015460055f8481526020019081526020015f206005015410159050919050565b5f60605f5f5f5f5f5f60055f8a81526020019081526020015f209050806001015497508060020180548060200260200160405190810160405280929190818152602001828054801561150957602002820191905f5260205f20905b8154815260200190600101908083116114f5575b5050505050965080600301549550806004015494508060050154935061152e89610afb565b925061153989610f4d565b915050919395979092949650565b60075481565b6115556119bc565b5f73ffffffffffffffffffffffffffffffffffffffff168173ffffffffffffffffffffffffffffffffffffffff16036115c5575f6040517f1e4fbdf70000000000000000000000000000000000000000000000000000000081526004016115bc9190612357565b60405180910390fd5b6115ce81611a43565b50565b60025f9054906101000a900473ffffffffffffffffffffffffffffffffffffffff1681565b7f000000000000000000000000000000000000000000000000000000000000000073ffffffffffffffffffffffffffffffffffffffff163073ffffffffffffffffffffffffffffffffffffffff1614806116a357507f000000000000000000000000000000000000000000000000000000000000000073ffffffffffffffffffffffffffffffffffffffff1661168a611b69565b73ffffffffffffffffffffffffffffffffffffffff1614155b156116da576040517fe07c8dba00000000000000000000000000000000000000000000000000000000815260040160405180910390fd5b565b6116e46119bc565b50565b8173ffffffffffffffffffffffffffffffffffffffff166352d1902d6040518163ffffffff1660e01b8152600401602060405180830381865afa92505050801561174f57506040513d601f19601f8201168201806040525081019061174c9190612b1a565b60015b61179057816040517f4c9c8ce30000000000000000000000000000000000000000000000000000000081526004016117879190612357565b60405180910390fd5b7f360894a13ba1a3210667c828492db98dca3e2076cc3735a920a3ca505d382bbc5f1b81146117f657806040517faa1d49a40000000000000000000000000000000000000000000000000000000081526004016117ed9190612495565b60405180910390fd5b6118008383611bbc565b505050565b7f000000000000000000000000000000000000000000000000000000000000000073ffffffffffffffffffffffffffffffffffffffff163073ffffffffffffffffffffffffffffffffffffffff161461188a576040517fe07c8dba00000000000000000000000000000000000000000000000000000000815260040160405180910390fd5b565b5f5f8473ffffffffffffffffffffffffffffffffffffffff1663a9059cbb85856040516024016118bd929190612b45565b6040516020818303038152906040529060e01b6020820180517bffffffffffffffffffffffffffffffffffffffffffffffffffffffff838183161783525050505060405161190b9190612bb0565b5f604051808303815f865af19150503d805f8114611944576040519150601f19603f3d011682016040523d82523d5f602084013e611949565b606091505b509150915081801561197657505f815114806119755750808060200190518101906119749190612bf0565b5b5b6119b5576040517f08c379a00000000000000000000000000000000000000000000000000000000081526004016119ac90612c65565b60405180910390fd5b5050505050565b6119c4611b4e565b73ffffffffffffffffffffffffffffffffffffffff166119e2610dff565b73ffffffffffffffffffffffffffffffffffffffff1614611a4157611a05611b4e565b6040517f118cdaa7000000000000000000000000000000000000000000000000000000008152600401611a389190612357565b60405180910390fd5b565b5f611a4c611b14565b90505f815f015f9054906101000a900473ffffffffffffffffffffffffffffffffffffffff16905082825f015f6101000a81548173ffffffffffffffffffffffffffffffffffffffff021916908373ffffffffffffffffffffffffffffffffffffffff1602179055508273ffffffffffffffffffffffffffffffffffffffff168173ffffffffffffffffffffffffffffffffffffffff167f8be0079c531659141344cd1fd0a4f28419497f9722a3daafe3b4186f6b6457e060405160405180910390a3505050565b5f7f9016d09d72d40fdae2fd8ceac6b6234c7706214fd39c1cd1e609a0528c199300905090565b5f5f611b45611c2e565b90508091505090565b5f33905090565b611b5d611c57565b611b6681611c97565b50565b5f611b957f360894a13ba1a3210667c828492db98dca3e2076cc3735a920a3ca505d382bbc5f1b611d1b565b5f015f9054906101000a900473ffffffffffffffffffffffffffffffffffffffff16905090565b611bc582611d24565b8173ffffffffffffffffffffffffffffffffffffffff167fbc7cd75a20ee27fd9adebab32041f755214dbc6bffa90cc0225b39da2e5c2d3b60405160405180910390a25f81511115611c2157611c1b8282611ded565b50611c2a565b611c29611ede565b5b5050565b5f7ff0c57e16840df040f15088dc2f81fe391c3923bec73e23a9662efc9c229c6a005f1b905090565b611c5f611f1a565b611c95576040517fd7e6bcf800000000000000000000000000000000000000000000000000000000815260040160405180910390fd5b565b611c9f611c57565b5f73ffffffffffffffffffffffffffffffffffffffff168173ffffffffffffffffffffffffffffffffffffffff1603611d0f575f6040517f1e4fbdf7000000000000000000000000000000000000000000000000000000008152600401611d069190612357565b60405180910390fd5b611d1881611a43565b50565b5f819050919050565b5f8173ffffffffffffffffffffffffffffffffffffffff163b03611d7f57806040517f4c9c8ce3000000000000000000000000000000000000000000000000000000008152600401611d769190612357565b60405180910390fd5b80611dab7f360894a13ba1a3210667c828492db98dca3e2076cc3735a920a3ca505d382bbc5f1b611d1b565b5f015f6101000a81548173ffffffffffffffffffffffffffffffffffffffff021916908373ffffffffffffffffffffffffffffffffffffffff16021790555050565b60605f611dfa8484611f38565b9050808015611e3057505f611e0d611f4c565b1180611e2f57505f8473ffffffffffffffffffffffffffffffffffffffff163b115b5b15611e4557611e3d611f53565b915050611ed8565b8015611e8857836040517f9996b315000000000000000000000000000000000000000000000000000000008152600401611e7f9190612357565b60405180910390fd5b5f611e91611f4c565b1115611ea457611e9f611f70565b611ed6565b6040517fd6bda27500000000000000000000000000000000000000000000000000000000815260040160405180910390fd5b505b92915050565b5f341115611f18576040517fb398979f00000000000000000000000000000000000000000000000000000000815260040160405180910390fd5b565b5f611f23611b3b565b5f0160089054906101000a900460ff16905090565b5f5f5f835160208501865af4905092915050565b5f3d905090565b606060405190503d81523d5f602083013e3d602001810160405290565b6040513d5f823e3d81fd5b5f82825260208201905092915050565b7f4e4f5f4449524543545f53454e440000000000000000000000000000000000005f82015250565b5f611fbf600e83611f7b565b9150611fca82611f8b565b602082019050919050565b5f6020820190508181035f830152611fec81611fb3565b9050919050565b5f604051905090565b5f5ffd5b5f5ffd5b5f5ffd5b5f5ffd5b5f5ffd5b5f5f83601f84011261202557612024612004565b5b8235905067ffffffffffffffff81111561204257612041612008565b5b60208301915083602082028301111561205e5761205d61200c565b5b9250929050565b5f5f6020838503121561207b5761207a611ffc565b5b5f83013567ffffffffffffffff81111561209857612097612000565b5b6120a485828601612010565b92509250509250929050565b5f73ffffffffffffffffffffffffffffffffffffffff82169050919050565b5f6120d9826120b0565b9050919050565b6120e9816120cf565b81146120f3575f5ffd5b50565b5f81359050612104816120e0565b92915050565b5f819050919050565b61211c8161210a565b8114612126575f5ffd5b50565b5f8135905061213781612113565b92915050565b5f5ffd5b5f601f19601f8301169050919050565b7f4e487b71000000000000000000000000000000000000000000000000000000005f52604160045260245ffd5b61218782612141565b810181811067ffffffffffffffff821117156121a6576121a5612151565b5b80604052505050565b5f6121b8611ff3565b90506121c4828261217e565b919050565b5f67ffffffffffffffff8211156121e3576121e2612151565b5b6121ec82612141565b9050602081019050919050565b828183375f83830152505050565b5f612219612214846121c9565b6121af565b9050828152602081018484840111156122355761223461213d565b5b6122408482856121f9565b509392505050565b5f82601f83011261225c5761225b612004565b5b813561226c848260208601612207565b91505092915050565b5f5f5f5f6080858703121561228d5761228c611ffc565b5b5f61229a878288016120f6565b94505060206122ab878288016120f6565b93505060406122bc87828801612129565b925050606085013567ffffffffffffffff8111156122dd576122dc612000565b5b6122e987828801612248565b91505092959194509250565b5f7fffffffff0000000000000000000000000000000000000000000000000000000082169050919050565b612329816122f5565b82525050565b5f6020820190506123425f830184612320565b92915050565b612351816120cf565b82525050565b5f60208201905061236a5f830184612348565b92915050565b5f6020828403121561238557612384611ffc565b5b5f612392848285016120f6565b91505092915050565b6123a48161210a565b82525050565b5f6060820190506123bd5f83018661239b565b6123ca602083018561239b565b6123d7604083018461239b565b949350505050565b5f6020820190506123f25f83018461239b565b92915050565b5f5f6040838503121561240e5761240d611ffc565b5b5f61241b858286016120f6565b925050602083013567ffffffffffffffff81111561243c5761243b612000565b5b61244885828601612248565b9150509250929050565b5f6020828403121561246757612466611ffc565b5b5f61247484828501612129565b91505092915050565b5f819050919050565b61248f8161247d565b82525050565b5f6020820190506124a85f830184612486565b92915050565b5f81519050919050565b5f82825260208201905092915050565b5f819050602082019050919050565b6124e08161210a565b82525050565b5f6124f183836124d7565b60208301905092915050565b5f602082019050919050565b5f612513826124ae565b61251d81856124b8565b9350612528836124c8565b805f5b8381101561255857815161253f88826124e6565b975061254a836124fd565b92505060018101905061252b565b5085935050505092915050565b5f6060820190506125785f83018661239b565b818103602083015261258a8185612509565b9050612599604083018461239b565b949350505050565b5f81519050919050565b8281835e5f83830152505050565b5f6125c3826125a1565b6125cd8185611f7b565b93506125dd8185602086016125ab565b6125e681612141565b840191505092915050565b5f6020820190508181035f83015261260981846125b9565b905092915050565b5f5f5f6060848603121561262857612627611ffc565b5b5f612635868287016120f6565b9350506020612646868287016120f6565b9250506040612657868287016120f6565b9150509250925092565b5f8115159050919050565b61267581612661565b82525050565b5f60208201905061268e5f83018461266c565b92915050565b5f60e0820190506126a75f83018a61239b565b81810360208301526126b98189612509565b90506126c8604083018861239b565b6126d5606083018761239b565b6126e2608083018661239b565b6126ef60a083018561239b565b6126fc60c083018461239b565b98975050505050505050565b7f454d5054590000000000000000000000000000000000000000000000000000005f82015250565b5f61273c600583611f7b565b915061274782612708565b602082019050919050565b5f6020820190508181035f83015261276981612730565b9050919050565b7f4e487b71000000000000000000000000000000000000000000000000000000005f52601160045260245ffd5b5f6127a78261210a565b91506127b28361210a565b92508282026127c08161210a565b915082820484148315176127d7576127d6612770565b5b5092915050565b5f6127e88261210a565b91506127f38361210a565b925082820390508181111561280b5761280a612770565b5b92915050565b5f61281b8261210a565b91506128268361210a565b925082820190508082111561283e5761283d612770565b5b92915050565b7f4e487b71000000000000000000000000000000000000000000000000000000005f52603260045260245ffd5b5f6060820190506128845f830186612348565b6128916020830185612348565b61289e604083018461239b565b949350505050565b5f6128b08261210a565b91507fffffffffffffffffffffffffffffffffffffffffffffffffffffffffffffffff82036128e2576128e1612770565b5b600182019050919050565b7f4e487b71000000000000000000000000000000000000000000000000000000005f52601260045260245ffd5b5f6129248261210a565b915061292f8361210a565b92508261293f5761293e6128ed565b5b828204905092915050565b7f4e6f74207065726d69742e0000000000000000000000000000000000000000005f82015250565b5f61297e600b83611f7b565b91506129898261294a565b602082019050919050565b5f6020820190508181035f8301526129ab81612972565b9050919050565b7f4e4f5f41574152440000000000000000000000000000000000000000000000005f82015250565b5f6129e6600883611f7b565b91506129f1826129b2565b602082019050919050565b5f6020820190508181035f830152612a13816129da565b9050919050565b5f819050919050565b5f67ffffffffffffffff82169050919050565b5f819050919050565b5f612a59612a54612a4f84612a1a565b612a36565b612a23565b9050919050565b612a6981612a3f565b82525050565b5f602082019050612a825f830184612a60565b92915050565b7f4e4f5f52455741524400000000000000000000000000000000000000000000005f82015250565b5f612abc600983611f7b565b9150612ac782612a88565b602082019050919050565b5f6020820190508181035f830152612ae981612ab0565b9050919050565b612af98161247d565b8114612b03575f5ffd5b50565b5f81519050612b1481612af0565b92915050565b5f60208284031215612b2f57612b2e611ffc565b5b5f612b3c84828501612b06565b91505092915050565b5f604082019050612b585f830185612348565b612b65602083018461239b565b9392505050565b5f81519050919050565b5f81905092915050565b5f612b8a82612b6c565b612b948185612b76565b9350612ba48185602086016125ab565b80840191505092915050565b5f612bbb8284612b80565b915081905092915050565b612bcf81612661565b8114612bd9575f5ffd5b50565b5f81519050612bea81612bc6565b92915050565b5f60208284031215612c0557612c04611ffc565b5b5f612c1284828501612bdc565b91505092915050565b7f5472616e7366657248656c7065723a205452414e534645525f4641494c4544005f82015250565b5f612c4f601f83611f7b565b9150612c5a82612c1b565b602082019050919050565b5f6020820190508181035f830152612c7c81612c43565b905091905056fea2646970667358221220f4dfcafdec96225b8b72da547e9f1e9e6a8d75623c3b9cdf3256c96f83c645c464736f6c634300081e0033","linkReferences":{}},"methodIdentifiers":{"UPGRADE_INTERFACE_VERSION()":"ad3cb1cc","USDT()":"c54e44eb","claimOrderAward(uint256)":"63cb83a0","claimUserUSDT()":"ca78800e","forexRate()":"30ffa373","getAwardUsdt(address)":"b25c603b","getCountdown(uint256)":"b8a010ae","getExtractable(uint256)":"5254b6b6","getOrderInfo(uint256)":"d311636b","getUserInfo(address)":"6386c1c7","initialize(address,address,address)":"c0c53b8b","isOrderFinished(uint256)":"d2beae3b","nfts()":"1714f2e0","onERC721Received(address,address,uint256,bytes)":"150b7a02","orderIndex()":"30471fee","owner()":"8da5cb5b","perNftAward()":"de68555a","proxiableUUID()":"52d1902d","renounceOwnership()":"715018a6","setForexRate(uint256)":"720d039c","setStaking(address)":"8ff39099","stake(uint256[])":"0fbf0a93","staking()":"4cf088d9","token()":"fc0c546a","totalDuration()":"8af6c259","totalNftQuantity()":"8aa12239","transferOwnership(address)":"f2fde38b","updateFarm(uint256)":"cc430ced","upgradeToAndCall(address,bytes)":"4f1ef286","userInfo(address)":"1959a002"},"id":52}