{"abi":[{"type":"receive","stateMutability":"payable"},{"type":"function","name":"UPGRADE_INTERFACE_VERSION","inputs":[],"outputs":[{"name":"","type":"string","internalType":"string"}],"stateMutability":"view"},{"type":"function","name":"USDT","inputs":[],"outputs":[{"name":"","type":"address","internalType":"address"}],"stateMutability":"view"},{"type":"function","name":"claimToken","inputs":[{"name":"amountToken","type":"uint256","internalType":"uint256"}],"outputs":[],"stateMutability":"nonpayable"},{"type":"function","name":"claimUSDT","inputs":[],"outputs":[],"stateMutability":"nonpayable"},{"type":"function","name":"emergencyWithdraw","inputs":[{"name":"_token","type":"address","internalType":"address"},{"name":"_amount","type":"uint256","internalType":"uint256"},{"name":"_to","type":"address","internalType":"address"}],"outputs":[],"stateMutability":"nonpayable"},{"type":"function","name":"forexRate","inputs":[],"outputs":[{"name":"","type":"uint256","internalType":"uint256"}],"stateMutability":"view"},{"type":"function","name":"getAvailableAmountUSDT","inputs":[{"name":"user","type":"address","internalType":"address"}],"outputs":[{"name":"","type":"uint256","internalType":"uint256"}],"stateMutability":"view"},{"type":"function","name":"getReleaseAmountToken","inputs":[{"name":"user","type":"address","internalType":"address"}],"outputs":[{"name":"released","type":"uint256","internalType":"uint256"},{"name":"claimable","type":"uint256","internalType":"uint256"}],"stateMutability":"view"},{"type":"function","name":"getUserInfo","inputs":[{"name":"user","type":"address","internalType":"address"}],"outputs":[{"name":"nftQuantity","type":"uint256","internalType":"uint256"},{"name":"tokenIds","type":"uint256[]","internalType":"uint256[]"},{"name":"releaseQuota","type":"uint256","internalType":"uint256"},{"name":"stakingTime","type":"uint256","internalType":"uint256"},{"name":"pendingToken","type":"uint256","internalType":"uint256"},{"name":"pendingUSDT","type":"uint256","internalType":"uint256"},{"name":"extractedToken","type":"uint256","internalType":"uint256"},{"name":"farmDebt","type":"uint256","internalType":"uint256"},{"name":"claimableToken","type":"uint256","internalType":"uint256"},{"name":"availableUSDT","type":"uint256","internalType":"uint256"}],"stateMutability":"view"},{"type":"function","name":"initialize","inputs":[{"name":"_nfts","type":"address","internalType":"address"},{"name":"_token","type":"address","internalType":"address"}],"outputs":[],"stateMutability":"nonpayable"},{"type":"function","name":"nfts","inputs":[],"outputs":[{"name":"","type":"address","internalType":"address"}],"stateMutability":"view"},{"type":"function","name":"onERC721Received","inputs":[{"name":"","type":"address","internalType":"address"},{"name":"","type":"address","internalType":"address"},{"name":"","type":"uint256","internalType":"uint256"},{"name":"","type":"bytes","internalType":"bytes"}],"outputs":[{"name":"","type":"bytes4","internalType":"bytes4"}],"stateMutability":"nonpayable"},{"type":"function","name":"owner","inputs":[],"outputs":[{"name":"","type":"address","internalType":"address"}],"stateMutability":"view"},{"type":"function","name":"perNftAward","inputs":[],"outputs":[{"name":"","type":"uint256","internalType":"uint256"}],"stateMutability":"view"},{"type":"function","name":"proxiableUUID","inputs":[],"outputs":[{"name":"","type":"bytes32","internalType":"bytes32"}],"stateMutability":"view"},{"type":"function","name":"renounceOwnership","inputs":[],"outputs":[],"stateMutability":"nonpayable"},{"type":"function","name":"setStaking","inputs":[{"name":"_staking","type":"address","internalType":"address"}],"outputs":[],"stateMutability":"nonpayable"},{"type":"function","name":"stake","inputs":[{"name":"tokenIds","type":"uint256[]","internalType":"uint256[]"}],"outputs":[],"stateMutability":"nonpayable"},{"type":"function","name":"staking","inputs":[],"outputs":[{"name":"","type":"address","internalType":"address"}],"stateMutability":"view"},{"type":"function","name":"token","inputs":[],"outputs":[{"name":"","type":"address","internalType":"address"}],"stateMutability":"view"},{"type":"function","name":"totalDuration","inputs":[],"outputs":[{"name":"","type":"uint256","internalType":"uint256"}],"stateMutability":"view"},{"type":"function","name":"totalNftQuantity","inputs":[],"outputs":[{"name":"","type":"uint256","internalType":"uint256"}],"stateMutability":"view"},{"type":"function","name":"transferOwnership","inputs":[{"name":"newOwner","type":"address","internalType":"address"}],"outputs":[],"stateMutability":"nonpayable"},{"type":"function","name":"updateFarm","inputs":[{"name":"amountUSDT","type":"uint256","internalType":"uint256"}],"outputs":[],"stateMutability":"nonpayable"},{"type":"function","name":"upgradeToAndCall","inputs":[{"name":"newImplementation","type":"address","internalType":"address"},{"name":"data","type":"bytes","internalType":"bytes"}],"outputs":[],"stateMutability":"payable"},{"type":"function","name":"userInfo","inputs":[{"name":"","type":"address","internalType":"address"}],"outputs":[{"name":"nftQuantity","type":"uint256","internalType":"uint256"},{"name":"releaseQuota","type":"uint256","internalType":"uint256"},{"name":"stakingTime","type":"uint256","internalType":"uint256"},{"name":"pendingToken","type":"uint256","internalType":"uint256"},{"name":"pendingUSDT","type":"uint256","internalType":"uint256"},{"name":"extractedToken","type":"uint256","internalType":"uint256"},{"name":"farmDebt","type":"uint256","internalType":"uint256"}],"stateMutability":"view"},{"type":"event","name":"Initialized","inputs":[{"name":"version","type":"uint64","indexed":false,"internalType":"uint64"}],"anonymous":false},{"type":"event","name":"OwnershipTransferred","inputs":[{"name":"previousOwner","type":"address","indexed":true,"internalType":"address"},{"name":"newOwner","type":"address","indexed":true,"internalType":"address"}],"anonymous":false},{"type":"event","name":"Upgraded","inputs":[{"name":"implementation","type":"address","indexed":true,"internalType":"address"}],"anonymous":false},{"type":"error","name":"AddressEmptyCode","inputs":[{"name":"target","type":"address","internalType":"address"}]},{"type":"error","name":"ERC1967InvalidImplementation","inputs":[{"name":"implementation","type":"address","internalType":"address"}]},{"type":"error","name":"ERC1967NonPayable","inputs":[]},{"type":"error","name":"FailedCall","inputs":[]},{"type":"error","name":"InvalidInitialization","inputs":[]},{"type":"error","name":"NotInitializing","inputs":[]},{"type":"error","name":"OwnableInvalidOwner","inputs":[{"name":"owner","type":"address","internalType":"address"}]},{"type":"error","name":"OwnableUnauthorizedAccount","inputs":[{"name":"account","type":"address","internalType":"address"}]},{"type":"error","name":"UUPSUnauthorizedCallContext","inputs":[]},{"type":"error","name":"UUPSUnsupportedProxiableUUID","inputs":[{"name":"slot","type":"bytes32","internalType":"bytes32"}]}],"bytecode":{"object":"0x60a06040523073ffffffffffffffffffffffffffffffffffffffff1660809073ffffffffffffffffffffffffffffffffffffffff168152503480156041575f5ffd5b5060805161297a6100685f395f81816112cd0152818161132201526114dc015261297a5ff3fe608060405260043610610184575f3560e01c80637564ac38116100d0578063a9e7c2e511610089578063cc430ced11610063578063cc430ced1461058e578063de68555a146105b6578063f2fde38b146105e0578063fc0c546a14610608576101c4565b8063a9e7c2e514610512578063ad3cb1cc1461053a578063c54e44eb14610564576101c4565b80637564ac381461041a5780638aa12239146104305780638af6c2591461045a5780638da5cb5b146104845780638ff39099146104ae5780639857a65c146104d6576101c4565b8063485cc9551161013d57806352d1902d1161011757806352d1902d1461036d578063551512de146103975780636386c1c7146103bf578063715018a614610404576101c4565b8063485cc955146102ff5780634cf088d9146103275780634f1ef28614610351576101c4565b80630fbf0a93146101c8578063150b7a02146101f05780631714f2e01461022c5780631959a0021461025657806321bb5a3c1461029857806330ffa373146102d5576101c4565b366101c4576040517f08c379a00000000000000000000000000000000000000000000000000000000081526004016101bb90611c7c565b60405180910390fd5b5f5ffd5b3480156101d3575f5ffd5b506101ee60048036038101906101e99190611e2e565b610632565b005b3480156101fb575f5ffd5b5061021660048036038101906102119190611f7f565b610833565b6040516102239190612039565b60405180910390f35b348015610237575f5ffd5b50610240610846565b60405161024d9190612061565b60405180910390f35b348015610261575f5ffd5b5061027c6004803603810190610277919061207a565b61086a565b60405161028f97969594939291906120b4565b60405180910390f35b3480156102a3575f5ffd5b506102be60048036038101906102b9919061207a565b6108a8565b6040516102cc929190612121565b60405180910390f35b3480156102e0575f5ffd5b506102e96109ba565b6040516102f69190612148565b60405180910390f35b34801561030a575f5ffd5b5061032560048036038101906103209190612161565b6109c0565b005b348015610332575f5ffd5b5061033b610be2565b6040516103489190612061565b60405180910390f35b61036b6004803603810190610366919061219f565b610c07565b005b348015610378575f5ffd5b50610381610c26565b60405161038e9190612211565b60405180910390f35b3480156103a2575f5ffd5b506103bd60048036038101906103b8919061222a565b610c57565b005b3480156103ca575f5ffd5b506103e560048036038101906103e0919061207a565b610c6f565b6040516103fb9a99989796959493929190612331565b60405180910390f35b34801561040f575f5ffd5b50610418610d65565b005b348015610425575f5ffd5b5061042e610d78565b005b34801561043b575f5ffd5b50610444610e4b565b6040516104519190612148565b60405180910390f35b348015610465575f5ffd5b5061046e610e51565b60405161047b9190612148565b60405180910390f35b34801561048f575f5ffd5b50610498610e57565b6040516104a59190612061565b60405180910390f35b3480156104b9575f5ffd5b506104d460048036038101906104cf919061207a565b610e8c565b005b3480156104e1575f5ffd5b506104fc60048036038101906104f7919061207a565b610ed7565b6040516105099190612148565b60405180910390f35b34801561051d575f5ffd5b50610538600480360381019061053391906123d2565b610f6a565b005b348015610545575f5ffd5b5061054e611084565b60405161055b919061244d565b60405180910390f35b34801561056f575f5ffd5b506105786110bd565b6040516105859190612061565b60405180910390f35b348015610599575f5ffd5b506105b460048036038101906105af91906123d2565b6110d5565b005b3480156105c1575f5ffd5b506105ca6111ee565b6040516105d79190612148565b60405180910390f35b3480156105eb575f5ffd5b506106066004803603810190610601919061207a565b6111f4565b005b348015610613575f5ffd5b5061061c611278565b6040516106299190612061565b60405180910390f35b5f60035f3373ffffffffffffffffffffffffffffffffffffffff1673ffffffffffffffffffffffffffffffffffffffff1681526020019081526020015f2090505f8160020154111561069f575f610688336108a8565b9150505f81111561069d578082600401819055505b505b5f5f90505b82518110156107a0575f5f9054906101000a900473ffffffffffffffffffffffffffffffffffffffff1673ffffffffffffffffffffffffffffffffffffffff166342842e0e33308685815181106106fe576106fd61246d565b5b60200260200101516040518463ffffffff1660e01b81526004016107249392919061249a565b5f604051808303815f87803b15801561073b575f5ffd5b505af115801561074d573d5f5f3e3d5ffd5b50505050816001018382815181106107685761076761246d565b5b6020026020010151908060018154018082558091505060019003905f5260205f20015f909190919091505580806001019150506106a4565b506107aa33610ed7565b81600501819055508151815f015f8282546107c591906124fc565b9250508190555060065482516107db919061252f565b816002015f8282546107ed91906124fc565b92505081905550428160030181905550600554815f015461080e919061252f565b8160070181905550815160045f82825461082891906124fc565b925050819055505050565b5f63150b7a0260e01b9050949350505050565b5f5f9054906101000a900473ffffffffffffffffffffffffffffffffffffffff1681565b6003602052805f5260405f205f91509050805f0154908060020154908060030154908060040154908060050154908060060154908060070154905087565b5f5f5f60035f8573ffffffffffffffffffffffffffffffffffffffff1673ffffffffffffffffffffffffffffffffffffffff1681526020019081526020015f2090505f816002015414801561090057505f8160040154145b15610911575f5f92509250506109b5565b5f5f90505f826003015411801561092b57505f8260020154115b1561097a575f8260030154426109419190612570565b905060075481106109585782600201549150610978565b60075481846002015461096b919061252f565b61097591906125d0565b91505b505b80826004015461098a91906124fc565b93508160060154841161099f575f92506109b2565b8160060154846109af9190612570565b92505b50505b915091565b60065481565b5f6109c961129d565b90505f815f0160089054906101000a900460ff161590505f825f015f9054906101000a900467ffffffffffffffff1690505f5f8267ffffffffffffffff16148015610a115750825b90505f60018367ffffffffffffffff16148015610a4457505f3073ffffffffffffffffffffffffffffffffffffffff163b145b905081158015610a52575080155b15610a89576040517ff92ee8a900000000000000000000000000000000000000000000000000000000815260040160405180910390fd5b6001855f015f6101000a81548167ffffffffffffffff021916908367ffffffffffffffff1602179055508315610ad6576001855f0160086101000a81548160ff0219169083151502179055505b610ae6610ae16112b0565b6112b7565b865f5f6101000a81548173ffffffffffffffffffffffffffffffffffffffff021916908373ffffffffffffffffffffffffffffffffffffffff1602179055508560025f6101000a81548173ffffffffffffffffffffffffffffffffffffffff021916908373ffffffffffffffffffffffffffffffffffffffff160217905550681b1ae4d6e2ef50000060068190555062278d006007819055508315610bd9575f855f0160086101000a81548160ff0219169083151502179055507fc7f505b2f371ae2175ee4913f4499e1f2633a7b5936321eed1cdaeb6115181d26001604051610bd09190612655565b60405180910390a15b50505050505050565b60015f9054906101000a900473ffffffffffffffffffffffffffffffffffffffff1681565b610c0f6112cb565b610c18826113b1565b610c2282826113bc565b5050565b5f610c2f6114da565b7f360894a13ba1a3210667c828492db98dca3e2076cc3735a920a3ca505d382bbc5f1b905090565b610c5f611561565b610c6a8382846115e8565b505050565b5f60605f5f5f5f5f5f5f5f5f60035f8d73ffffffffffffffffffffffffffffffffffffffff1673ffffffffffffffffffffffffffffffffffffffff1681526020019081526020015f209050805f01549a5080600101805480602002602001604051908101604052809291908181526020018280548015610d0c57602002820191905f5260205f20905b815481526020019060010190808311610cf8575b50505050509950806002015498508060030154975080600401549650806005015495508060060154945080600701549350610d468c6108a8565b905080935050610d558c610ed7565b9150509193959799509193959799565b610d6d611561565b610d765f611718565b565b5f60035f3373ffffffffffffffffffffffffffffffffffffffff1673ffffffffffffffffffffffffffffffffffffffff1681526020019081526020015f2090505f610dc233610ed7565b90505f8111610e06576040517f08c379a0000000000000000000000000000000000000000000000000000000008152600401610dfd906126b8565b60405180910390fd5b610e257355d398326f99059ff775485246999027b319795533836115e8565b5f8260050181905550600554825f0154610e3f919061252f565b82600701819055505050565b60045481565b60075481565b5f5f610e616117e9565b9050805f015f9054906101000a900473ffffffffffffffffffffffffffffffffffffffff1691505090565b610e94611561565b8060015f6101000a81548173ffffffffffffffffffffffffffffffffffffffff021916908373ffffffffffffffffffffffffffffffffffffffff16021790555050565b5f5f60035f8473ffffffffffffffffffffffffffffffffffffffff1673ffffffffffffffffffffffffffffffffffffffff1681526020019081526020015f2090505f600554825f0154610f2a919061252f565b8260050154610f3991906124fc565b905080826007015410610f50575f92505050610f65565b816007015481610f609190612570565b925050505b919050565b5f60035f3373ffffffffffffffffffffffffffffffffffffffff1673ffffffffffffffffffffffffffffffffffffffff1681526020019081526020015f2090505f610fb4336108a8565b9150505f83118015610fc65750808311155b611005576040517f08c379a0000000000000000000000000000000000000000000000000000000008152600401610ffc90612720565b60405180910390fd5b8160040154831161102f5782826004015f8282546110239190612570565b92505081905550611039565b5f82600401819055505b61106560025f9054906101000a900473ffffffffffffffffffffffffffffffffffffffff1633856115e8565b82826006015f82825461107891906124fc565b92505081905550505050565b6040518060400160405280600581526020017f352e302e3000000000000000000000000000000000000000000000000000000081525081565b7355d398326f99059ff775485246999027b319795581565b60015f9054906101000a900473ffffffffffffffffffffffffffffffffffffffff1673ffffffffffffffffffffffffffffffffffffffff163373ffffffffffffffffffffffffffffffffffffffff16148061117c575060025f9054906101000a900473ffffffffffffffffffffffffffffffffffffffff1673ffffffffffffffffffffffffffffffffffffffff163373ffffffffffffffffffffffffffffffffffffffff16145b6111bb576040517f08c379a00000000000000000000000000000000000000000000000000000000081526004016111b290612788565b60405180910390fd5b5f60045403156111eb57600454816111d391906125d0565b60055f8282546111e391906124fc565b925050819055505b50565b60055481565b6111fc611561565b5f73ffffffffffffffffffffffffffffffffffffffff168173ffffffffffffffffffffffffffffffffffffffff160361126c575f6040517f1e4fbdf70000000000000000000000000000000000000000000000000000000081526004016112639190612061565b60405180910390fd5b61127581611718565b50565b60025f9054906101000a900473ffffffffffffffffffffffffffffffffffffffff1681565b5f5f6112a7611810565b90508091505090565b5f33905090565b6112bf611839565b6112c881611879565b50565b7f000000000000000000000000000000000000000000000000000000000000000073ffffffffffffffffffffffffffffffffffffffff163073ffffffffffffffffffffffffffffffffffffffff16148061137857507f000000000000000000000000000000000000000000000000000000000000000073ffffffffffffffffffffffffffffffffffffffff1661135f6118fd565b73ffffffffffffffffffffffffffffffffffffffff1614155b156113af576040517fe07c8dba00000000000000000000000000000000000000000000000000000000815260040160405180910390fd5b565b6113b9611561565b50565b8173ffffffffffffffffffffffffffffffffffffffff166352d1902d6040518163ffffffff1660e01b8152600401602060405180830381865afa92505050801561142457506040513d601f19601f8201168201806040525081019061142191906127d0565b60015b61146557816040517f4c9c8ce300000000000000000000000000000000000000000000000000000000815260040161145c9190612061565b60405180910390fd5b7f360894a13ba1a3210667c828492db98dca3e2076cc3735a920a3ca505d382bbc5f1b81146114cb57806040517faa1d49a40000000000000000000000000000000000000000000000000000000081526004016114c29190612211565b60405180910390fd5b6114d58383611950565b505050565b7f000000000000000000000000000000000000000000000000000000000000000073ffffffffffffffffffffffffffffffffffffffff163073ffffffffffffffffffffffffffffffffffffffff161461155f576040517fe07c8dba00000000000000000000000000000000000000000000000000000000815260040160405180910390fd5b565b6115696112b0565b73ffffffffffffffffffffffffffffffffffffffff16611587610e57565b73ffffffffffffffffffffffffffffffffffffffff16146115e6576115aa6112b0565b6040517f118cdaa70000000000000000000000000000000000000000000000000000000081526004016115dd9190612061565b60405180910390fd5b565b5f5f8473ffffffffffffffffffffffffffffffffffffffff1663a9059cbb85856040516024016116199291906127fb565b6040516020818303038152906040529060e01b6020820180517bffffffffffffffffffffffffffffffffffffffffffffffffffffffff83818316178352505050506040516116679190612866565b5f604051808303815f865af19150503d805f81146116a0576040519150601f19603f3d011682016040523d82523d5f602084013e6116a5565b606091505b50915091508180156116d257505f815114806116d15750808060200190518101906116d091906128b1565b5b5b611711576040517f08c379a000000000000000000000000000000000000000000000000000000000815260040161170890612926565b60405180910390fd5b5050505050565b5f6117216117e9565b90505f815f015f9054906101000a900473ffffffffffffffffffffffffffffffffffffffff16905082825f015f6101000a81548173ffffffffffffffffffffffffffffffffffffffff021916908373ffffffffffffffffffffffffffffffffffffffff1602179055508273ffffffffffffffffffffffffffffffffffffffff168173ffffffffffffffffffffffffffffffffffffffff167f8be0079c531659141344cd1fd0a4f28419497f9722a3daafe3b4186f6b6457e060405160405180910390a3505050565b5f7f9016d09d72d40fdae2fd8ceac6b6234c7706214fd39c1cd1e609a0528c199300905090565b5f7ff0c57e16840df040f15088dc2f81fe391c3923bec73e23a9662efc9c229c6a005f1b905090565b6118416119c2565b611877576040517fd7e6bcf800000000000000000000000000000000000000000000000000000000815260040160405180910390fd5b565b611881611839565b5f73ffffffffffffffffffffffffffffffffffffffff168173ffffffffffffffffffffffffffffffffffffffff16036118f1575f6040517f1e4fbdf70000000000000000000000000000000000000000000000000000000081526004016118e89190612061565b60405180910390fd5b6118fa81611718565b50565b5f6119297f360894a13ba1a3210667c828492db98dca3e2076cc3735a920a3ca505d382bbc5f1b6119e0565b5f015f9054906101000a900473ffffffffffffffffffffffffffffffffffffffff16905090565b611959826119e9565b8173ffffffffffffffffffffffffffffffffffffffff167fbc7cd75a20ee27fd9adebab32041f755214dbc6bffa90cc0225b39da2e5c2d3b60405160405180910390a25f815111156119b5576119af8282611ab2565b506119be565b6119bd611ba3565b5b5050565b5f6119cb61129d565b5f0160089054906101000a900460ff16905090565b5f819050919050565b5f8173ffffffffffffffffffffffffffffffffffffffff163b03611a4457806040517f4c9c8ce3000000000000000000000000000000000000000000000000000000008152600401611a3b9190612061565b60405180910390fd5b80611a707f360894a13ba1a3210667c828492db98dca3e2076cc3735a920a3ca505d382bbc5f1b6119e0565b5f015f6101000a81548173ffffffffffffffffffffffffffffffffffffffff021916908373ffffffffffffffffffffffffffffffffffffffff16021790555050565b60605f611abf8484611bdf565b9050808015611af557505f611ad2611bf3565b1180611af457505f8473ffffffffffffffffffffffffffffffffffffffff163b115b5b15611b0a57611b02611bfa565b915050611b9d565b8015611b4d57836040517f9996b315000000000000000000000000000000000000000000000000000000008152600401611b449190612061565b60405180910390fd5b5f611b56611bf3565b1115611b6957611b64611c17565b611b9b565b6040517fd6bda27500000000000000000000000000000000000000000000000000000000815260040160405180910390fd5b505b92915050565b5f341115611bdd576040517fb398979f00000000000000000000000000000000000000000000000000000000815260040160405180910390fd5b565b5f5f5f835160208501865af4905092915050565b5f3d905090565b606060405190503d81523d5f602083013e3d602001810160405290565b6040513d5f823e3d81fd5b5f82825260208201905092915050565b7f4e4f5f4449524543545f53454e440000000000000000000000000000000000005f82015250565b5f611c66600e83611c22565b9150611c7182611c32565b602082019050919050565b5f6020820190508181035f830152611c9381611c5a565b9050919050565b5f604051905090565b5f5ffd5b5f5ffd5b5f5ffd5b5f601f19601f8301169050919050565b7f4e487b71000000000000000000000000000000000000000000000000000000005f52604160045260245ffd5b611cf582611caf565b810181811067ffffffffffffffff82111715611d1457611d13611cbf565b5b80604052505050565b5f611d26611c9a565b9050611d328282611cec565b919050565b5f67ffffffffffffffff821115611d5157611d50611cbf565b5b602082029050602081019050919050565b5f5ffd5b5f819050919050565b611d7881611d66565b8114611d82575f5ffd5b50565b5f81359050611d9381611d6f565b92915050565b5f611dab611da684611d37565b611d1d565b90508083825260208201905060208402830185811115611dce57611dcd611d62565b5b835b81811015611df75780611de38882611d85565b845260208401935050602081019050611dd0565b5050509392505050565b5f82601f830112611e1557611e14611cab565b5b8135611e25848260208601611d99565b91505092915050565b5f60208284031215611e4357611e42611ca3565b5b5f82013567ffffffffffffffff811115611e6057611e5f611ca7565b5b611e6c84828501611e01565b91505092915050565b5f73ffffffffffffffffffffffffffffffffffffffff82169050919050565b5f611e9e82611e75565b9050919050565b611eae81611e94565b8114611eb8575f5ffd5b50565b5f81359050611ec981611ea5565b92915050565b5f5ffd5b5f67ffffffffffffffff821115611eed57611eec611cbf565b5b611ef682611caf565b9050602081019050919050565b828183375f83830152505050565b5f611f23611f1e84611ed3565b611d1d565b905082815260208101848484011115611f3f57611f3e611ecf565b5b611f4a848285611f03565b509392505050565b5f82601f830112611f6657611f65611cab565b5b8135611f76848260208601611f11565b91505092915050565b5f5f5f5f60808587031215611f9757611f96611ca3565b5b5f611fa487828801611ebb565b9450506020611fb587828801611ebb565b9350506040611fc687828801611d85565b925050606085013567ffffffffffffffff811115611fe757611fe6611ca7565b5b611ff387828801611f52565b91505092959194509250565b5f7fffffffff0000000000000000000000000000000000000000000000000000000082169050919050565b61203381611fff565b82525050565b5f60208201905061204c5f83018461202a565b92915050565b61205b81611e94565b82525050565b5f6020820190506120745f830184612052565b92915050565b5f6020828403121561208f5761208e611ca3565b5b5f61209c84828501611ebb565b91505092915050565b6120ae81611d66565b82525050565b5f60e0820190506120c75f83018a6120a5565b6120d460208301896120a5565b6120e160408301886120a5565b6120ee60608301876120a5565b6120fb60808301866120a5565b61210860a08301856120a5565b61211560c08301846120a5565b98975050505050505050565b5f6040820190506121345f8301856120a5565b61214160208301846120a5565b9392505050565b5f60208201905061215b5f8301846120a5565b92915050565b5f5f6040838503121561217757612176611ca3565b5b5f61218485828601611ebb565b925050602061219585828601611ebb565b9150509250929050565b5f5f604083850312156121b5576121b4611ca3565b5b5f6121c285828601611ebb565b925050602083013567ffffffffffffffff8111156121e3576121e2611ca7565b5b6121ef85828601611f52565b9150509250929050565b5f819050919050565b61220b816121f9565b82525050565b5f6020820190506122245f830184612202565b92915050565b5f5f5f6060848603121561224157612240611ca3565b5b5f61224e86828701611ebb565b935050602061225f86828701611d85565b925050604061227086828701611ebb565b9150509250925092565b5f81519050919050565b5f82825260208201905092915050565b5f819050602082019050919050565b6122ac81611d66565b82525050565b5f6122bd83836122a3565b60208301905092915050565b5f602082019050919050565b5f6122df8261227a565b6122e98185612284565b93506122f483612294565b805f5b8381101561232457815161230b88826122b2565b9750612316836122c9565b9250506001810190506122f7565b5085935050505092915050565b5f610140820190506123455f83018d6120a5565b8181036020830152612357818c6122d5565b9050612366604083018b6120a5565b612373606083018a6120a5565b61238060808301896120a5565b61238d60a08301886120a5565b61239a60c08301876120a5565b6123a760e08301866120a5565b6123b56101008301856120a5565b6123c36101208301846120a5565b9b9a5050505050505050505050565b5f602082840312156123e7576123e6611ca3565b5b5f6123f484828501611d85565b91505092915050565b5f81519050919050565b8281835e5f83830152505050565b5f61241f826123fd565b6124298185611c22565b9350612439818560208601612407565b61244281611caf565b840191505092915050565b5f6020820190508181035f8301526124658184612415565b905092915050565b7f4e487b71000000000000000000000000000000000000000000000000000000005f52603260045260245ffd5b5f6060820190506124ad5f830186612052565b6124ba6020830185612052565b6124c760408301846120a5565b949350505050565b7f4e487b71000000000000000000000000000000000000000000000000000000005f52601160045260245ffd5b5f61250682611d66565b915061251183611d66565b9250828201905080821115612529576125286124cf565b5b92915050565b5f61253982611d66565b915061254483611d66565b925082820261255281611d66565b91508282048414831517612569576125686124cf565b5b5092915050565b5f61257a82611d66565b915061258583611d66565b925082820390508181111561259d5761259c6124cf565b5b92915050565b7f4e487b71000000000000000000000000000000000000000000000000000000005f52601260045260245ffd5b5f6125da82611d66565b91506125e583611d66565b9250826125f5576125f46125a3565b5b828204905092915050565b5f819050919050565b5f67ffffffffffffffff82169050919050565b5f819050919050565b5f61263f61263a61263584612600565b61261c565b612609565b9050919050565b61264f81612625565b82525050565b5f6020820190506126685f830184612646565b92915050565b7f4e6f205553445420617661696c61626c650000000000000000000000000000005f82015250565b5f6126a2601183611c22565b91506126ad8261266e565b602082019050919050565b5f6020820190508181035f8301526126cf81612696565b9050919050565b7f496e76616c696420616d6f756e740000000000000000000000000000000000005f82015250565b5f61270a600e83611c22565b9150612715826126d6565b602082019050919050565b5f6020820190508181035f830152612737816126fe565b9050919050565b7f4e6f74207065726d69742e0000000000000000000000000000000000000000005f82015250565b5f612772600b83611c22565b915061277d8261273e565b602082019050919050565b5f6020820190508181035f83015261279f81612766565b9050919050565b6127af816121f9565b81146127b9575f5ffd5b50565b5f815190506127ca816127a6565b92915050565b5f602082840312156127e5576127e4611ca3565b5b5f6127f2848285016127bc565b91505092915050565b5f60408201905061280e5f830185612052565b61281b60208301846120a5565b9392505050565b5f81519050919050565b5f81905092915050565b5f61284082612822565b61284a818561282c565b935061285a818560208601612407565b80840191505092915050565b5f6128718284612836565b915081905092915050565b5f8115159050919050565b6128908161287c565b811461289a575f5ffd5b50565b5f815190506128ab81612887565b92915050565b5f602082840312156128c6576128c5611ca3565b5b5f6128d38482850161289d565b91505092915050565b7f5472616e7366657248656c7065723a205452414e534645525f4641494c4544005f82015250565b5f612910601f83611c22565b915061291b826128dc565b602082019050919050565b5f6020820190508181035f83015261293d81612904565b905091905056fea26469706673582212204511377d3c64a6c54ed4f83ec54e30cef0ea31c661b0a417535e48202112821264736f6c634300081e0033","linkReferences":{}},"methodIdentifiers":{"UPGRADE_INTERFACE_VERSION()":"ad3cb1cc","USDT()":"c54e44eb","claimToken(uint256)":"a9e7c2e5","claimUSDT()":"7564ac38","emergencyWithdraw(address,uint256,address)":"551512de","forexRate()":"30ffa373","getAvailableAmountUSDT(address)":"9857a65c","getReleaseAmountToken(address)":"21bb5a3c","getUserInfo(address)":"6386c1c7","initialize(address,address)":"485cc955","nfts()":"1714f2e0","onERC721Received(address,address,uint256,bytes)":"150b7a02","owner()":"8da5cb5b","perNftAward()":"de68555a","proxiableUUID()":"52d1902d","renounceOwnership()":"715018a6","setStaking(address)":"8ff39099","stake(uint256[])":"0fbf0a93","staking()":"4cf088d9","token()":"fc0c546a","totalDuration()":"8af6c259","totalNftQuantity()":"8aa12239","transferOwnership(address)":"f2fde38b","updateFarm(uint256)":"cc430ced","upgradeToAndCall(address,bytes)":"4f1ef286","userInfo(address)":"1959a002"},"id":51}