{"abi":[{"type":"constructor","inputs":[{"name":"_initialRecipient","type":"address","internalType":"address"},{"name":"_marketing","type":"address","internalType":"address"},{"name":"_wallet","type":"address","internalType":"address"},{"name":"_USDT","type":"address","internalType":"address"}],"stateMutability":"nonpayable"},{"type":"function","name":"DEAD","inputs":[],"outputs":[{"name":"","type":"address","internalType":"address"}],"stateMutability":"view"},{"type":"function","name":"PROFIT_MARKET_TAX_RATE","inputs":[],"outputs":[{"name":"","type":"uint256","internalType":"uint256"}],"stateMutability":"view"},{"type":"function","name":"PROFIT_NODE_TAX_RATE","inputs":[],"outputs":[{"name":"","type":"uint256","internalType":"uint256"}],"stateMutability":"view"},{"type":"function","name":"PROFIT_WALLET_TAX_RATE","inputs":[],"outputs":[{"name":"","type":"uint256","internalType":"uint256"}],"stateMutability":"view"},{"type":"function","name":"SWAP_DEAD_FEE_RATE","inputs":[],"outputs":[{"name":"","type":"uint256","internalType":"uint256"}],"stateMutability":"view"},{"type":"function","name":"SWAP_NODE_FEE_RATE","inputs":[],"outputs":[{"name":"","type":"uint256","internalType":"uint256"}],"stateMutability":"view"},{"type":"function","name":"USDT","inputs":[],"outputs":[{"name":"","type":"address","internalType":"address"}],"stateMutability":"view"},{"type":"function","name":"allowance","inputs":[{"name":"owner","type":"address","internalType":"address"},{"name":"spender","type":"address","internalType":"address"}],"outputs":[{"name":"","type":"uint256","internalType":"uint256"}],"stateMutability":"view"},{"type":"function","name":"allowlist","inputs":[{"name":"","type":"address","internalType":"address"}],"outputs":[{"name":"","type":"bool","internalType":"bool"}],"stateMutability":"view"},{"type":"function","name":"approve","inputs":[{"name":"spender","type":"address","internalType":"address"},{"name":"value","type":"uint256","internalType":"uint256"}],"outputs":[{"name":"","type":"bool","internalType":"bool"}],"stateMutability":"nonpayable"},{"type":"function","name":"averagePriceOf","inputs":[{"name":"user","type":"address","internalType":"address"}],"outputs":[{"name":"","type":"uint256","internalType":"uint256"}],"stateMutability":"view"},{"type":"function","name":"balanceOf","inputs":[{"name":"account","type":"address","internalType":"address"}],"outputs":[{"name":"","type":"uint256","internalType":"uint256"}],"stateMutability":"view"},{"type":"function","name":"currentPrice","inputs":[],"outputs":[{"name":"","type":"uint256","internalType":"uint256"}],"stateMutability":"view"},{"type":"function","name":"decimals","inputs":[],"outputs":[{"name":"","type":"uint8","internalType":"uint8"}],"stateMutability":"view"},{"type":"function","name":"getAmountOut","inputs":[{"name":"amountToken","type":"uint256","internalType":"uint256"}],"outputs":[{"name":"","type":"uint256","internalType":"uint256"}],"stateMutability":"view"},{"type":"function","name":"getProfitTaxToken","inputs":[{"name":"from","type":"address","internalType":"address"},{"name":"amountToken","type":"uint256","internalType":"uint256"}],"outputs":[{"name":"taxToken","type":"uint256","internalType":"uint256"}],"stateMutability":"view"},{"type":"function","name":"marketing","inputs":[],"outputs":[{"name":"","type":"address","internalType":"address"}],"stateMutability":"view"},{"type":"function","name":"name","inputs":[],"outputs":[{"name":"","type":"string","internalType":"string"}],"stateMutability":"view"},{"type":"function","name":"nodeDividends","inputs":[],"outputs":[{"name":"","type":"address","internalType":"address"}],"stateMutability":"view"},{"type":"function","name":"owner","inputs":[],"outputs":[{"name":"","type":"address","internalType":"address"}],"stateMutability":"view"},{"type":"function","name":"pancakePair","inputs":[],"outputs":[{"name":"","type":"address","internalType":"address"}],"stateMutability":"view"},{"type":"function","name":"pancakeRouter","inputs":[],"outputs":[{"name":"","type":"address","internalType":"contract IUniswapV2Router02"}],"stateMutability":"view"},{"type":"function","name":"renounceOwnership","inputs":[],"outputs":[],"stateMutability":"nonpayable"},{"type":"function","name":"setAllowlist","inputs":[{"name":"addrs","type":"address[]","internalType":"address[]"},{"name":"isAllow","type":"bool","internalType":"bool"}],"outputs":[],"stateMutability":"nonpayable"},{"type":"function","name":"setNodeDividends","inputs":[{"name":"_nodeDividends","type":"address","internalType":"address"}],"outputs":[],"stateMutability":"nonpayable"},{"type":"function","name":"setTradingOpen","inputs":[{"name":"_tradingOpen","type":"bool","internalType":"bool"}],"outputs":[],"stateMutability":"nonpayable"},{"type":"function","name":"symbol","inputs":[],"outputs":[{"name":"","type":"string","internalType":"string"}],"stateMutability":"view"},{"type":"function","name":"totalCostUsdt","inputs":[{"name":"","type":"address","internalType":"address"}],"outputs":[{"name":"","type":"uint256","internalType":"uint256"}],"stateMutability":"view"},{"type":"function","name":"totalSupply","inputs":[],"outputs":[{"name":"","type":"uint256","internalType":"uint256"}],"stateMutability":"view"},{"type":"function","name":"tradingOpen","inputs":[],"outputs":[{"name":"","type":"bool","internalType":"bool"}],"stateMutability":"view"},{"type":"function","name":"transfer","inputs":[{"name":"to","type":"address","internalType":"address"},{"name":"value","type":"uint256","internalType":"uint256"}],"outputs":[{"name":"","type":"bool","internalType":"bool"}],"stateMutability":"nonpayable"},{"type":"function","name":"transferFrom","inputs":[{"name":"from","type":"address","internalType":"address"},{"name":"to","type":"address","internalType":"address"},{"name":"value","type":"uint256","internalType":"uint256"}],"outputs":[{"name":"","type":"bool","internalType":"bool"}],"stateMutability":"nonpayable"},{"type":"function","name":"transferOwnership","inputs":[{"name":"newOwner","type":"address","internalType":"address"}],"outputs":[],"stateMutability":"nonpayable"},{"type":"function","name":"wallet","inputs":[],"outputs":[{"name":"","type":"address","internalType":"address"}],"stateMutability":"view"},{"type":"event","name":"Approval","inputs":[{"name":"owner","type":"address","indexed":true,"internalType":"address"},{"name":"spender","type":"address","indexed":true,"internalType":"address"},{"name":"value","type":"uint256","indexed":false,"internalType":"uint256"}],"anonymous":false},{"type":"event","name":"OwnershipTransferred","inputs":[{"name":"previousOwner","type":"address","indexed":true,"internalType":"address"},{"name":"newOwner","type":"address","indexed":true,"internalType":"address"}],"anonymous":false},{"type":"event","name":"SwapAndSendTax","inputs":[{"name":"recipient","type":"address","indexed":false,"internalType":"address"},{"name":"tokensSwapped","type":"uint256","indexed":false,"internalType":"uint256"}],"anonymous":false},{"type":"event","name":"Transfer","inputs":[{"name":"from","type":"address","indexed":true,"internalType":"address"},{"name":"to","type":"address","indexed":true,"internalType":"address"},{"name":"value","type":"uint256","indexed":false,"internalType":"uint256"}],"anonymous":false},{"type":"error","name":"ERC20InsufficientAllowance","inputs":[{"name":"spender","type":"address","internalType":"address"},{"name":"allowance","type":"uint256","internalType":"uint256"},{"name":"needed","type":"uint256","internalType":"uint256"}]},{"type":"error","name":"ERC20InsufficientBalance","inputs":[{"name":"sender","type":"address","internalType":"address"},{"name":"balance","type":"uint256","internalType":"uint256"},{"name":"needed","type":"uint256","internalType":"uint256"}]},{"type":"error","name":"ERC20InvalidApprover","inputs":[{"name":"approver","type":"address","internalType":"address"}]},{"type":"error","name":"ERC20InvalidReceiver","inputs":[{"name":"receiver","type":"address","internalType":"address"}]},{"type":"error","name":"ERC20InvalidSender","inputs":[{"name":"sender","type":"address","internalType":"address"}]},{"type":"error","name":"ERC20InvalidSpender","inputs":[{"name":"spender","type":"address","internalType":"address"}]},{"type":"error","name":"OwnableInvalidOwner","inputs":[{"name":"owner","type":"address","internalType":"address"}]},{"type":"error","name":"OwnableUnauthorizedAccount","inputs":[{"name":"account","type":"address","internalType":"address"}]}],"bytecode":{"object":"0x60806040527310ed43c718714eb63d5aa57b78b54704e256024e60065f6101000a81548173ffffffffffffffffffffffffffffffffffffffff021916908373ffffffffffffffffffffffffffffffffffffffff160217905550348015610063575f5ffd5b5060405161596b38038061596b83398181016040528101906100859190611ea7565b336040518060400160405280600381526020017f444a5300000000000000000000000000000000000000000000000000000000008152506040518060400160405280600381526020017f444a53000000000000000000000000000000000000000000000000000000000081525081600390816101019190612148565b5080600490816101119190612148565b5050505f73ffffffffffffffffffffffffffffffffffffffff168173ffffffffffffffffffffffffffffffffffffffff1603610184575f6040517f1e4fbdf700000000000000000000000000000000000000000000000000000000815260040161017b9190612226565b60405180910390fd5b610193816104df60201b60201c565b506101af846a05aec7723d5c0459c000006105a260201b60201c565b6001600c5f8673ffffffffffffffffffffffffffffffffffffffff1673ffffffffffffffffffffffffffffffffffffffff1681526020019081526020015f205f6101000a81548160ff0219169083151502179055506001600c5f8573ffffffffffffffffffffffffffffffffffffffff1673ffffffffffffffffffffffffffffffffffffffff1681526020019081526020015f205f6101000a81548160ff0219169083151502179055506001600c5f8473ffffffffffffffffffffffffffffffffffffffff1673ffffffffffffffffffffffffffffffffffffffff1681526020019081526020015f205f6101000a81548160ff0219169083151502179055508260095f6101000a81548173ffffffffffffffffffffffffffffffffffffffff021916908373ffffffffffffffffffffffffffffffffffffffff16021790555081600b5f6101000a81548173ffffffffffffffffffffffffffffffffffffffff021916908373ffffffffffffffffffffffffffffffffffffffff1602179055508060085f6101000a81548173ffffffffffffffffffffffffffffffffffffffff021916908373ffffffffffffffffffffffffffffffffffffffff16021790555060065f9054906101000a900473ffffffffffffffffffffffffffffffffffffffff1673ffffffffffffffffffffffffffffffffffffffff1663c45a01556040518163ffffffff1660e01b8152600401602060405180830381865afa1580156103d8573d5f5f3e3d5ffd5b505050506040513d601f19601f820116820180604052508101906103fc919061223f565b73ffffffffffffffffffffffffffffffffffffffff1663c9c653963060085f9054906101000a900473ffffffffffffffffffffffffffffffffffffffff166040518363ffffffff1660e01b815260040161045792919061226a565b6020604051808303815f875af1158015610473573d5f5f3e3d5ffd5b505050506040513d601f19601f82011682018060405250810190610497919061223f565b60075f6101000a81548173ffffffffffffffffffffffffffffffffffffffff021916908373ffffffffffffffffffffffffffffffffffffffff1602179055505050505061285c565b5f60055f9054906101000a900473ffffffffffffffffffffffffffffffffffffffff1690508160055f6101000a81548173ffffffffffffffffffffffffffffffffffffffff021916908373ffffffffffffffffffffffffffffffffffffffff1602179055508173ffffffffffffffffffffffffffffffffffffffff168173ffffffffffffffffffffffffffffffffffffffff167f8be0079c531659141344cd1fd0a4f28419497f9722a3daafe3b4186f6b6457e060405160405180910390a35050565b5f73ffffffffffffffffffffffffffffffffffffffff168273ffffffffffffffffffffffffffffffffffffffff1603610612575f6040517fec442f050000000000000000000000000000000000000000000000000000000081526004016106099190612226565b60405180910390fd5b6106235f838361062760201b60201c565b5050565b600b60149054906101000a900460ff168061066d57505f73ffffffffffffffffffffffffffffffffffffffff168373ffffffffffffffffffffffffffffffffffffffff16145b806106a357505f73ffffffffffffffffffffffffffffffffffffffff168273ffffffffffffffffffffffffffffffffffffffff16145b806106f45750600c5f8473ffffffffffffffffffffffffffffffffffffffff1673ffffffffffffffffffffffffffffffffffffffff1681526020019081526020015f205f9054906101000a900460ff165b806107455750600c5f8373ffffffffffffffffffffffffffffffffffffffff1673ffffffffffffffffffffffffffffffffffffffff1681526020019081526020015f205f9054906101000a900460ff165b156107605761075b838383610a3560201b60201c565b610a30565b5f60075f9054906101000a900473ffffffffffffffffffffffffffffffffffffffff1673ffffffffffffffffffffffffffffffffffffffff168473ffffffffffffffffffffffffffffffffffffffff161490505f60075f9054906101000a900473ffffffffffffffffffffffffffffffffffffffff1673ffffffffffffffffffffffffffffffffffffffff168473ffffffffffffffffffffffffffffffffffffffff1614905081156108245761081d858585610c4e60201b60201c565b5050610a30565b80156108425761083b858585610d6060201b60201c565b5050610a30565b5f6108523061103060201b60201c565b90505f81111561086c5761086b8161107560201b60201c565b5b5f61087c8761103060201b60201c565b90505f600d5f8973ffffffffffffffffffffffffffffffffffffffff1673ffffffffffffffffffffffffffffffffffffffff1681526020019081526020015f205490506108d0888888610a3560201b60201c565b5f811180156108de57505f82115b15610a2a575f8287836108f191906122be565b6108fb919061232c565b90508082610909919061235c565b600d5f8b73ffffffffffffffffffffffffffffffffffffffff1673ffffffffffffffffffffffffffffffffffffffff1681526020019081526020015f2081905550620f4240600d5f8b73ffffffffffffffffffffffffffffffffffffffff1673ffffffffffffffffffffffffffffffffffffffff1681526020019081526020015f205410156109d5575f600d5f8b73ffffffffffffffffffffffffffffffffffffffff1673ffffffffffffffffffffffffffffffffffffffff1681526020019081526020015f20819055505b80600d5f8a73ffffffffffffffffffffffffffffffffffffffff1673ffffffffffffffffffffffffffffffffffffffff1681526020019081526020015f205f828254610a21919061238f565b92505081905550505b50505050505b505050565b5f73ffffffffffffffffffffffffffffffffffffffff168373ffffffffffffffffffffffffffffffffffffffff1603610a85578060025f828254610a79919061238f565b92505081905550610b53565b5f5f5f8573ffffffffffffffffffffffffffffffffffffffff1673ffffffffffffffffffffffffffffffffffffffff1681526020019081526020015f2054905081811015610b0e578381836040517fe450d38c000000000000000000000000000000000000000000000000000000008152600401610b05939291906123d1565b60405180910390fd5b8181035f5f8673ffffffffffffffffffffffffffffffffffffffff1673ffffffffffffffffffffffffffffffffffffffff1681526020019081526020015f2081905550505b5f73ffffffffffffffffffffffffffffffffffffffff168273ffffffffffffffffffffffffffffffffffffffff1603610b9a578060025f8282540392505081905550610be4565b805f5f8473ffffffffffffffffffffffffffffffffffffffff1673ffffffffffffffffffffffffffffffffffffffff1681526020019081526020015f205f82825401925050819055505b8173ffffffffffffffffffffffffffffffffffffffff168373ffffffffffffffffffffffffffffffffffffffff167fddf252ad1be2c89b69c2b068fc378daa952ba7f163c4a11628f55a4df523b3ef83604051610c419190612406565b60405180910390a3505050565b600b60159054906101000a900460ff16610c9d576040517f08c379a0000000000000000000000000000000000000000000000000000000008152600401610c9490612479565b60405180910390fd5b5f6064600283610cad91906122be565b610cb7919061232c565b90505f6064600384610cc991906122be565b610cd3919061232c565b90505f818385610ce3919061235c565b610ced919061235c565b9050610d23856103e8601987610d0391906122be565b610d0d919061232c565b86610d18919061238f565b6111c960201b60201c565b610d34863084610a3560201b60201c565b610d478661dead85610a3560201b60201c565b610d58868683610a3560201b60201c565b505050505050565b600b60159054906101000a900460ff16610daf576040517f08c379a0000000000000000000000000000000000000000000000000000000008152600401610da690612479565b60405180910390fd5b5f610dbf8461103060201b60201c565b90505f6064600284610dd191906122be565b610ddb919061232c565b90505f6064600385610ded91906122be565b610df7919061232c565b90505f818386610e07919061235c565b610e11919061235c565b90505f610e24888361130160201b60201c565b90505f811115610e4f57610e3f883083610a3560201b60201c565b610e4e816113c860201b60201c565b5b610e60883085610a3560201b60201c565b610e738861dead86610a3560201b60201c565b610e8f88888385610e84919061235c565b610a3560201b60201c565b5f610e9f8961103060201b60201c565b90505f8103610eef575f600d5f8b73ffffffffffffffffffffffffffffffffffffffff1673ffffffffffffffffffffffffffffffffffffffff1681526020019081526020015f2081905550611025565b5f600d5f8b73ffffffffffffffffffffffffffffffffffffffff1673ffffffffffffffffffffffffffffffffffffffff1681526020019081526020015f205490505f878983610f3e91906122be565b610f48919061232c565b90508082610f56919061235c565b600d5f8d73ffffffffffffffffffffffffffffffffffffffff1673ffffffffffffffffffffffffffffffffffffffff1681526020019081526020015f2081905550620f4240600d5f8d73ffffffffffffffffffffffffffffffffffffffff1673ffffffffffffffffffffffffffffffffffffffff1681526020019081526020015f20541015611022575f600d5f8d73ffffffffffffffffffffffffffffffffffffffff1673ffffffffffffffffffffffffffffffffffffffff1681526020019081526020015f20819055505b50505b505050505050505050565b5f5f5f8373ffffffffffffffffffffffffffffffffffffffff1673ffffffffffffffffffffffffffffffffffffffff1681526020019081526020015f20549050919050565b5f73ffffffffffffffffffffffffffffffffffffffff16600a5f9054906101000a900473ffffffffffffffffffffffffffffffffffffffff1673ffffffffffffffffffffffffffffffffffffffff1614611194576110fa81600a5f9054906101000a900473ffffffffffffffffffffffffffffffffffffffff166115d360201b60201c565b600a5f9054906101000a900473ffffffffffffffffffffffffffffffffffffffff1673ffffffffffffffffffffffffffffffffffffffff1663cc430ced6111468361182860201b60201c565b6040518263ffffffff1660e01b81526004016111629190612406565b5f604051808303815f87803b158015611179575f5ffd5b505af115801561118b573d5f5f3e3d5ffd5b505050506111c6565b6111c581600b5f9054906101000a900473ffffffffffffffffffffffffffffffffffffffff166115d360201b60201c565b5b50565b60065f9054906101000a900473ffffffffffffffffffffffffffffffffffffffff1673ffffffffffffffffffffffffffffffffffffffff168273ffffffffffffffffffffffffffffffffffffffff161480611270575060075f9054906101000a900473ffffffffffffffffffffffffffffffffffffffff1673ffffffffffffffffffffffffffffffffffffffff168273ffffffffffffffffffffffffffffffffffffffff16145b6112fd575f6112836119fa60201b60201c565b90505f670de0b6b3a7640000838361129b91906122be565b6112a5919061232c565b905080600d5f8673ffffffffffffffffffffffffffffffffffffffff1673ffffffffffffffffffffffffffffffffffffffff1681526020019081526020015f205f8282546112f3919061238f565b9250508190555050505b5050565b5f5f8203611311575f90506113c2565b5f61132184611bcd60201b60201c565b90505f8103611333575f9150506113c2565b5f6113426119fa60201b60201c565b9050818111611355575f925050506113c2565b5f6005600a6014611366919061238f565b611370919061238f565b90505f828484611380919061235c565b8761138b91906122be565b611395919061232c565b9050606482826113a591906122be565b6113af919061232c565b9450858511156113bd575f94505b505050505b92915050565b5f60646039836113d891906122be565b6113e2919061232c565b90505f6064601c846113f491906122be565b6113fe919061232c565b90505f81838561140e919061235c565b611418919061235c565b905061144b8360095f9054906101000a900473ffffffffffffffffffffffffffffffffffffffff166115d360201b60201c565b61147c82600b5f9054906101000a900473ffffffffffffffffffffffffffffffffffffffff166115d360201b60201c565b5f73ffffffffffffffffffffffffffffffffffffffff16600a5f9054906101000a900473ffffffffffffffffffffffffffffffffffffffff1673ffffffffffffffffffffffffffffffffffffffff161461159b5761150181600a5f9054906101000a900473ffffffffffffffffffffffffffffffffffffffff166115d360201b60201c565b600a5f9054906101000a900473ffffffffffffffffffffffffffffffffffffffff1673ffffffffffffffffffffffffffffffffffffffff1663cc430ced61154d8361182860201b60201c565b6040518263ffffffff1660e01b81526004016115699190612406565b5f604051808303815f87803b158015611580575f5ffd5b505af1158015611592573d5f5f3e3d5ffd5b505050506115cd565b6115cc81600b5f9054906101000a900473ffffffffffffffffffffffffffffffffffffffff166115d360201b60201c565b5b50505050565b5f820315611824576001600b60146101000a81548160ff0219169083151502179055505f600267ffffffffffffffff81111561161257611611611f15565b5b6040519080825280602002602001820160405280156116405781602001602082028036833780820191505090505b50905030815f8151811061165757611656612497565b5b602002602001019073ffffffffffffffffffffffffffffffffffffffff16908173ffffffffffffffffffffffffffffffffffffffff168152505060085f9054906101000a900473ffffffffffffffffffffffffffffffffffffffff16816001815181106116c7576116c6612497565b5b602002602001019073ffffffffffffffffffffffffffffffffffffffff16908173ffffffffffffffffffffffffffffffffffffffff16815250506117333060065f9054906101000a900473ffffffffffffffffffffffffffffffffffffffff1685611c5560201b60201c565b60065f9054906101000a900473ffffffffffffffffffffffffffffffffffffffff1673ffffffffffffffffffffffffffffffffffffffff16635c11d795845f8486601e42611781919061238f565b6040518663ffffffff1660e01b81526004016117a19594939291906125b4565b5f604051808303815f87803b1580156117b8575f5ffd5b505af19250505080156117c9575060015b15611808577faedb4dc54dc30d46d331ffcc44cd836607bea96c12e1b21a95210ed899184d0482846040516117ff92919061260c565b60405180910390a15b5f600b60146101000a81548160ff021916908315150217905550505b5050565b5f5f600267ffffffffffffffff81111561184557611844611f15565b5b6040519080825280602002602001820160405280156118735781602001602082028036833780820191505090505b50905030815f8151811061188a57611889612497565b5b602002602001019073ffffffffffffffffffffffffffffffffffffffff16908173ffffffffffffffffffffffffffffffffffffffff168152505060085f9054906101000a900473ffffffffffffffffffffffffffffffffffffffff16816001815181106118fa576118f9612497565b5b602002602001019073ffffffffffffffffffffffffffffffffffffffff16908173ffffffffffffffffffffffffffffffffffffffff16815250505f60065f9054906101000a900473ffffffffffffffffffffffffffffffffffffffff1673ffffffffffffffffffffffffffffffffffffffff1663d06ca61f85846040518363ffffffff1660e01b8152600401611991929190612633565b5f60405180830381865afa1580156119ab573d5f5f3e3d5ffd5b505050506040513d5f823e3d601f19601f820116820180604052508101906119d391906127ae565b9050806001815181106119e9576119e8612497565b5b602002602001015192505050919050565b5f5f600267ffffffffffffffff811115611a1757611a16611f15565b5b604051908082528060200260200182016040528015611a455781602001602082028036833780820191505090505b50905030815f81518110611a5c57611a5b612497565b5b602002602001019073ffffffffffffffffffffffffffffffffffffffff16908173ffffffffffffffffffffffffffffffffffffffff168152505060085f9054906101000a900473ffffffffffffffffffffffffffffffffffffffff1681600181518110611acc57611acb612497565b5b602002602001019073ffffffffffffffffffffffffffffffffffffffff16908173ffffffffffffffffffffffffffffffffffffffff168152505060065f9054906101000a900473ffffffffffffffffffffffffffffffffffffffff1673ffffffffffffffffffffffffffffffffffffffff1663d06ca61f670de0b6b3a7640000836040518363ffffffff1660e01b8152600401611b6a92919061282e565b5f60405180830381865afa158015611b84573d5f5f3e3d5ffd5b505050506040513d5f823e3d601f19601f82011682018060405250810190611bac91906127ae565b600181518110611bbf57611bbe612497565b5b602002602001015191505090565b5f5f611bde8361103060201b60201c565b90505f8103611bf0575f915050611c50565b80670de0b6b3a7640000600d5f8673ffffffffffffffffffffffffffffffffffffffff1673ffffffffffffffffffffffffffffffffffffffff1681526020019081526020015f2054611c4291906122be565b611c4c919061232c565b9150505b919050565b611c688383836001611c6d60201b60201c565b505050565b5f73ffffffffffffffffffffffffffffffffffffffff168473ffffffffffffffffffffffffffffffffffffffff1603611cdd575f6040517fe602df05000000000000000000000000000000000000000000000000000000008152600401611cd49190612226565b60405180910390fd5b5f73ffffffffffffffffffffffffffffffffffffffff168373ffffffffffffffffffffffffffffffffffffffff1603611d4d575f6040517f94280d62000000000000000000000000000000000000000000000000000000008152600401611d449190612226565b60405180910390fd5b8160015f8673ffffffffffffffffffffffffffffffffffffffff1673ffffffffffffffffffffffffffffffffffffffff1681526020019081526020015f205f8573ffffffffffffffffffffffffffffffffffffffff1673ffffffffffffffffffffffffffffffffffffffff1681526020019081526020015f20819055508015611e36578273ffffffffffffffffffffffffffffffffffffffff168473ffffffffffffffffffffffffffffffffffffffff167f8c5be1e5ebec7d5bd14f71427d1e84f3dd0314c0f7b2291e5b200ac8c7c3b92584604051611e2d9190612406565b60405180910390a35b50505050565b5f604051905090565b5f5ffd5b5f5ffd5b5f73ffffffffffffffffffffffffffffffffffffffff82169050919050565b5f611e7682611e4d565b9050919050565b611e8681611e6c565b8114611e90575f5ffd5b50565b5f81519050611ea181611e7d565b92915050565b5f5f5f5f60808587031215611ebf57611ebe611e45565b5b5f611ecc87828801611e93565b9450506020611edd87828801611e93565b9350506040611eee87828801611e93565b9250506060611eff87828801611e93565b91505092959194509250565b5f81519050919050565b7f4e487b71000000000000000000000000000000000000000000000000000000005f52604160045260245ffd5b7f4e487b71000000000000000000000000000000000000000000000000000000005f52602260045260245ffd5b5f6002820490506001821680611f8657607f821691505b602082108103611f9957611f98611f42565b5b50919050565b5f819050815f5260205f209050919050565b5f6020601f8301049050919050565b5f82821b905092915050565b5f60088302611ffb7fffffffffffffffffffffffffffffffffffffffffffffffffffffffffffffffff82611fc0565b6120058683611fc0565b95508019841693508086168417925050509392505050565b5f819050919050565b5f819050919050565b5f61204961204461203f8461201d565b612026565b61201d565b9050919050565b5f819050919050565b6120628361202f565b61207661206e82612050565b848454611fcc565b825550505050565b5f5f905090565b61208d61207e565b612098818484612059565b505050565b5b818110156120bb576120b05f82612085565b60018101905061209e565b5050565b601f821115612100576120d181611f9f565b6120da84611fb1565b810160208510156120e9578190505b6120fd6120f585611fb1565b83018261209d565b50505b505050565b5f82821c905092915050565b5f6121205f1984600802612105565b1980831691505092915050565b5f6121388383612111565b9150826002028217905092915050565b61215182611f0b565b67ffffffffffffffff81111561216a57612169611f15565b5b6121748254611f6f565b61217f8282856120bf565b5f60209050601f8311600181146121b0575f841561219e578287015190505b6121a8858261212d565b86555061220f565b601f1984166121be86611f9f565b5f5b828110156121e5578489015182556001820191506020850194506020810190506121c0565b8683101561220257848901516121fe601f891682612111565b8355505b6001600288020188555050505b505050505050565b61222081611e6c565b82525050565b5f6020820190506122395f830184612217565b92915050565b5f6020828403121561225457612253611e45565b5b5f61226184828501611e93565b91505092915050565b5f60408201905061227d5f830185612217565b61228a6020830184612217565b9392505050565b7f4e487b71000000000000000000000000000000000000000000000000000000005f52601160045260245ffd5b5f6122c88261201d565b91506122d38361201d565b92508282026122e18161201d565b915082820484148315176122f8576122f7612291565b5b5092915050565b7f4e487b71000000000000000000000000000000000000000000000000000000005f52601260045260245ffd5b5f6123368261201d565b91506123418361201d565b925082612351576123506122ff565b5b828204905092915050565b5f6123668261201d565b91506123718361201d565b925082820390508181111561238957612388612291565b5b92915050565b5f6123998261201d565b91506123a48361201d565b92508282019050808211156123bc576123bb612291565b5b92915050565b6123cb8161201d565b82525050565b5f6060820190506123e45f830186612217565b6123f160208301856123c2565b6123fe60408301846123c2565b949350505050565b5f6020820190506124195f8301846123c2565b92915050565b5f82825260208201905092915050565b7f4255595f414e445f53454c4c5f495344495341424c45442e00000000000000005f82015250565b5f61246360188361241f565b915061246e8261242f565b602082019050919050565b5f6020820190508181035f83015261249081612457565b9050919050565b7f4e487b71000000000000000000000000000000000000000000000000000000005f52603260045260245ffd5b5f819050919050565b5f6124e76124e26124dd846124c4565b612026565b61201d565b9050919050565b6124f7816124cd565b82525050565b5f81519050919050565b5f82825260208201905092915050565b5f819050602082019050919050565b61252f81611e6c565b82525050565b5f6125408383612526565b60208301905092915050565b5f602082019050919050565b5f612562826124fd565b61256c8185612507565b935061257783612517565b805f5b838110156125a757815161258e8882612535565b97506125998361254c565b92505060018101905061257a565b5085935050505092915050565b5f60a0820190506125c75f8301886123c2565b6125d460208301876124ee565b81810360408301526125e68186612558565b90506125f56060830185612217565b61260260808301846123c2565b9695505050505050565b5f60408201905061261f5f830185612217565b61262c60208301846123c2565b9392505050565b5f6040820190506126465f8301856123c2565b81810360208301526126588184612558565b90509392505050565b5f5ffd5b5f601f19601f8301169050919050565b61267e82612665565b810181811067ffffffffffffffff8211171561269d5761269c611f15565b5b80604052505050565b5f6126af611e3c565b90506126bb8282612675565b919050565b5f67ffffffffffffffff8211156126da576126d9611f15565b5b602082029050602081019050919050565b5f5ffd5b6126f88161201d565b8114612702575f5ffd5b50565b5f81519050612713816126ef565b92915050565b5f61272b612726846126c0565b6126a6565b9050808382526020820190506020840283018581111561274e5761274d6126eb565b5b835b8181101561277757806127638882612705565b845260208401935050602081019050612750565b5050509392505050565b5f82601f83011261279557612794612661565b5b81516127a5848260208601612719565b91505092915050565b5f602082840312156127c3576127c2611e45565b5b5f82015167ffffffffffffffff8111156127e0576127df611e49565b5b6127ec84828501612781565b91505092915050565b5f819050919050565b5f61281861281361280e846127f5565b612026565b61201d565b9050919050565b612828816127fe565b82525050565b5f6040820190506128415f83018561281f565b81810360208301526128538184612558565b90509392505050565b613102806128695f395ff3fe608060405234801561000f575f5ffd5b5060043610610204575f3560e01c80638f011a2811610118578063c21ebd07116100ab578063e9a997e51161007a578063e9a997e51461060a578063f01fe7c414610628578063f2fde38b14610644578063fcb1138d14610660578063ffb54a991461067e57610204565b8063c21ebd0714610580578063c54e44eb1461059e578063c7fb372f146105bc578063dd62ed3e146105da57610204565b8063a7cd52cb116100e7578063a7cd52cb146104d2578063a9059cbb14610502578063b8c9d25c14610532578063c1d960ae1461055057610204565b80638f011a281461045c57806395d89b41146104785780639d1b464a146104965780639dc41984146104b457610204565b80632d3e474a1161019b57806360d1d4a41161016a57806360d1d4a4146103b657806370a08231146103e6578063715018a61461041657806386f0f61b146104205780638da5cb5b1461043e57610204565b80632d3e474a1461032c578063313ce5671461034a578063521eb273146103685780635c1952171461038657610204565b80630c355b47116101d75780630c355b47146102a457806318160ddd146102c257806321c03a97146102e057806323b872dd146102fc57610204565b806303fd2a451461020857806306fdde0314610226578063088878b514610244578063095ea7b314610274575b5f5ffd5b61021061069c565b60405161021d919061262a565b60405180910390f35b61022e6106a2565b60405161023b91906126b3565b60405180910390f35b61025e6004803603810190610259919061270e565b610732565b60405161026b9190612751565b60405180910390f35b61028e60048036038101906102899190612794565b6107b4565b60405161029b91906127ec565b60405180910390f35b6102ac6107d6565b6040516102b99190612751565b60405180910390f35b6102ca6107db565b6040516102d79190612751565b60405180910390f35b6102fa60048036038101906102f5919061282f565b6107e4565b005b6103166004803603810190610311919061285a565b610809565b60405161032391906127ec565b60405180910390f35b610334610837565b604051610341919061262a565b60405180910390f35b61035261085c565b60405161035f91906128c5565b60405180910390f35b610370610864565b60405161037d919061262a565b60405180910390f35b6103a0600480360381019061039b91906128de565b610889565b6040516103ad9190612751565b60405180910390f35b6103d060048036038101906103cb919061270e565b610a5b565b6040516103dd9190612751565b60405180910390f35b61040060048036038101906103fb919061270e565b610a70565b60405161040d9190612751565b60405180910390f35b61041e610ab5565b005b610428610ac8565b6040516104359190612751565b60405180910390f35b610446610acd565b604051610453919061262a565b60405180910390f35b6104766004803603810190610471919061270e565b610af5565b005b610480610b40565b60405161048d91906126b3565b60405180910390f35b61049e610bd0565b6040516104ab9190612751565b60405180910390f35b6104bc610da3565b6040516104c99190612751565b60405180910390f35b6104ec60048036038101906104e7919061270e565b610da8565b6040516104f991906127ec565b60405180910390f35b61051c60048036038101906105179190612794565b610dc5565b60405161052991906127ec565b60405180910390f35b61053a610de7565b604051610547919061262a565b60405180910390f35b61056a60048036038101906105659190612794565b610e0c565b6040516105779190612751565b60405180910390f35b610588610ec7565b6040516105959190612964565b60405180910390f35b6105a6610eec565b6040516105b3919061262a565b60405180910390f35b6105c4610f11565b6040516105d1919061262a565b60405180910390f35b6105f460048036038101906105ef919061297d565b610f36565b6040516106019190612751565b60405180910390f35b610612610fb8565b60405161061f9190612751565b60405180910390f35b610642600480360381019061063d9190612afb565b610fbd565b005b61065e6004803603810190610659919061270e565b611053565b005b6106686110d7565b6040516106759190612751565b60405180910390f35b6106866110dc565b60405161069391906127ec565b60405180910390f35b61dead81565b6060600380546106b190612b82565b80601f01602080910402602001604051908101604052809291908181526020018280546106dd90612b82565b80156107285780601f106106ff57610100808354040283529160200191610728565b820191905f5260205f20905b81548152906001019060200180831161070b57829003601f168201915b5050505050905090565b5f5f61073d83610a70565b90505f810361074f575f9150506107af565b80670de0b6b3a7640000600d5f8673ffffffffffffffffffffffffffffffffffffffff1673ffffffffffffffffffffffffffffffffffffffff1681526020019081526020015f20546107a19190612bdf565b6107ab9190612c4d565b9150505b919050565b5f5f6107be6110ef565b90506107cb8185856110f6565b600191505092915050565b600a81565b5f600254905090565b6107ec611108565b80600b60156101000a81548160ff02191690831515021790555050565b5f5f6108136110ef565b905061082085828561118f565b61082b858585611222565b60019150509392505050565b60095f9054906101000a900473ffffffffffffffffffffffffffffffffffffffff1681565b5f6012905090565b600b5f9054906101000a900473ffffffffffffffffffffffffffffffffffffffff1681565b5f5f600267ffffffffffffffff8111156108a6576108a56129bf565b5b6040519080825280602002602001820160405280156108d45781602001602082028036833780820191505090505b50905030815f815181106108eb576108ea612c7d565b5b602002602001019073ffffffffffffffffffffffffffffffffffffffff16908173ffffffffffffffffffffffffffffffffffffffff168152505060085f9054906101000a900473ffffffffffffffffffffffffffffffffffffffff168160018151811061095b5761095a612c7d565b5b602002602001019073ffffffffffffffffffffffffffffffffffffffff16908173ffffffffffffffffffffffffffffffffffffffff16815250505f60065f9054906101000a900473ffffffffffffffffffffffffffffffffffffffff1673ffffffffffffffffffffffffffffffffffffffff1663d06ca61f85846040518363ffffffff1660e01b81526004016109f2929190612d61565b5f60405180830381865afa158015610a0c573d5f5f3e3d5ffd5b505050506040513d5f823e3d601f19601f82011682018060405250810190610a349190612e63565b905080600181518110610a4a57610a49612c7d565b5b602002602001015192505050919050565b600d602052805f5260405f205f915090505481565b5f5f5f8373ffffffffffffffffffffffffffffffffffffffff1673ffffffffffffffffffffffffffffffffffffffff1681526020019081526020015f20549050919050565b610abd611108565b610ac65f611312565b565b600281565b5f60055f9054906101000a900473ffffffffffffffffffffffffffffffffffffffff16905090565b610afd611108565b80600a5f6101000a81548173ffffffffffffffffffffffffffffffffffffffff021916908373ffffffffffffffffffffffffffffffffffffffff16021790555050565b606060048054610b4f90612b82565b80601f0160208091040260200160405190810160405280929190818152602001828054610b7b90612b82565b8015610bc65780601f10610b9d57610100808354040283529160200191610bc6565b820191905f5260205f20905b815481529060010190602001808311610ba957829003601f168201915b5050505050905090565b5f5f600267ffffffffffffffff811115610bed57610bec6129bf565b5b604051908082528060200260200182016040528015610c1b5781602001602082028036833780820191505090505b50905030815f81518110610c3257610c31612c7d565b5b602002602001019073ffffffffffffffffffffffffffffffffffffffff16908173ffffffffffffffffffffffffffffffffffffffff168152505060085f9054906101000a900473ffffffffffffffffffffffffffffffffffffffff1681600181518110610ca257610ca1612c7d565b5b602002602001019073ffffffffffffffffffffffffffffffffffffffff16908173ffffffffffffffffffffffffffffffffffffffff168152505060065f9054906101000a900473ffffffffffffffffffffffffffffffffffffffff1673ffffffffffffffffffffffffffffffffffffffff1663d06ca61f670de0b6b3a7640000836040518363ffffffff1660e01b8152600401610d40929190612ee3565b5f60405180830381865afa158015610d5a573d5f5f3e3d5ffd5b505050506040513d5f823e3d601f19601f82011682018060405250810190610d829190612e63565b600181518110610d9557610d94612c7d565b5b602002602001015191505090565b601481565b600c602052805f5260405f205f915054906101000a900460ff1681565b5f5f610dcf6110ef565b9050610ddc818585611222565b600191505092915050565b60075f9054906101000a900473ffffffffffffffffffffffffffffffffffffffff1681565b5f5f8203610e1c575f9050610ec1565b5f610e2684610732565b90505f8103610e38575f915050610ec1565b5f610e41610bd0565b9050818111610e54575f92505050610ec1565b5f6005600a6014610e659190612f11565b610e6f9190612f11565b90505f828484610e7f9190612f44565b87610e8a9190612bdf565b610e949190612c4d565b905060648282610ea49190612bdf565b610eae9190612c4d565b945085851115610ebc575f94505b505050505b92915050565b60065f9054906101000a900473ffffffffffffffffffffffffffffffffffffffff1681565b60085f9054906101000a900473ffffffffffffffffffffffffffffffffffffffff1681565b600a5f9054906101000a900473ffffffffffffffffffffffffffffffffffffffff1681565b5f60015f8473ffffffffffffffffffffffffffffffffffffffff1673ffffffffffffffffffffffffffffffffffffffff1681526020019081526020015f205f8373ffffffffffffffffffffffffffffffffffffffff1673ffffffffffffffffffffffffffffffffffffffff1681526020019081526020015f2054905092915050565b600381565b610fc5611108565b5f5f90505b825181101561104e5781600c5f858481518110610fea57610fe9612c7d565b5b602002602001015173ffffffffffffffffffffffffffffffffffffffff1673ffffffffffffffffffffffffffffffffffffffff1681526020019081526020015f205f6101000a81548160ff0219169083151502179055508080600101915050610fca565b505050565b61105b611108565b5f73ffffffffffffffffffffffffffffffffffffffff168173ffffffffffffffffffffffffffffffffffffffff16036110cb575f6040517f1e4fbdf70000000000000000000000000000000000000000000000000000000081526004016110c2919061262a565b60405180910390fd5b6110d481611312565b50565b600581565b600b60159054906101000a900460ff1681565b5f33905090565b61110383838360016113d5565b505050565b6111106110ef565b73ffffffffffffffffffffffffffffffffffffffff1661112e610acd565b73ffffffffffffffffffffffffffffffffffffffff161461118d576111516110ef565b6040517f118cdaa7000000000000000000000000000000000000000000000000000000008152600401611184919061262a565b60405180910390fd5b565b5f61119a8484610f36565b90507fffffffffffffffffffffffffffffffffffffffffffffffffffffffffffffffff81101561121c578181101561120d578281836040517ffb8f41b200000000000000000000000000000000000000000000000000000000815260040161120493929190612f77565b60405180910390fd5b61121b84848484035f6113d5565b5b50505050565b5f73ffffffffffffffffffffffffffffffffffffffff168373ffffffffffffffffffffffffffffffffffffffff1603611292575f6040517f96c6fd1e000000000000000000000000000000000000000000000000000000008152600401611289919061262a565b60405180910390fd5b5f73ffffffffffffffffffffffffffffffffffffffff168273ffffffffffffffffffffffffffffffffffffffff1603611302575f6040517fec442f050000000000000000000000000000000000000000000000000000000081526004016112f9919061262a565b60405180910390fd5b61130d8383836115a4565b505050565b5f60055f9054906101000a900473ffffffffffffffffffffffffffffffffffffffff1690508160055f6101000a81548173ffffffffffffffffffffffffffffffffffffffff021916908373ffffffffffffffffffffffffffffffffffffffff1602179055508173ffffffffffffffffffffffffffffffffffffffff168173ffffffffffffffffffffffffffffffffffffffff167f8be0079c531659141344cd1fd0a4f28419497f9722a3daafe3b4186f6b6457e060405160405180910390a35050565b5f73ffffffffffffffffffffffffffffffffffffffff168473ffffffffffffffffffffffffffffffffffffffff1603611445575f6040517fe602df0500000000000000000000000000000000000000000000000000000000815260040161143c919061262a565b60405180910390fd5b5f73ffffffffffffffffffffffffffffffffffffffff168373ffffffffffffffffffffffffffffffffffffffff16036114b5575f6040517f94280d620000000000000000000000000000000000000000000000000000000081526004016114ac919061262a565b60405180910390fd5b8160015f8673ffffffffffffffffffffffffffffffffffffffff1673ffffffffffffffffffffffffffffffffffffffff1681526020019081526020015f205f8573ffffffffffffffffffffffffffffffffffffffff1673ffffffffffffffffffffffffffffffffffffffff1681526020019081526020015f2081905550801561159e578273ffffffffffffffffffffffffffffffffffffffff168473ffffffffffffffffffffffffffffffffffffffff167f8c5be1e5ebec7d5bd14f71427d1e84f3dd0314c0f7b2291e5b200ac8c7c3b925846040516115959190612751565b60405180910390a35b50505050565b600b60149054906101000a900460ff16806115ea57505f73ffffffffffffffffffffffffffffffffffffffff168373ffffffffffffffffffffffffffffffffffffffff16145b8061162057505f73ffffffffffffffffffffffffffffffffffffffff168273ffffffffffffffffffffffffffffffffffffffff16145b806116715750600c5f8473ffffffffffffffffffffffffffffffffffffffff1673ffffffffffffffffffffffffffffffffffffffff1681526020019081526020015f205f9054906101000a900460ff165b806116c25750600c5f8373ffffffffffffffffffffffffffffffffffffffff1673ffffffffffffffffffffffffffffffffffffffff1681526020019081526020015f205f9054906101000a900460ff165b156116d7576116d2838383611988565b611983565b5f60075f9054906101000a900473ffffffffffffffffffffffffffffffffffffffff1673ffffffffffffffffffffffffffffffffffffffff168473ffffffffffffffffffffffffffffffffffffffff161490505f60075f9054906101000a900473ffffffffffffffffffffffffffffffffffffffff1673ffffffffffffffffffffffffffffffffffffffff168473ffffffffffffffffffffffffffffffffffffffff1614905081156117955761178e858585611ba1565b5050611983565b80156117ad576117a6858585611c9b565b5050611983565b5f6117b730610a70565b90505f8111156117cb576117ca81611f3b565b5b5f6117d587610a70565b90505f600d5f8973ffffffffffffffffffffffffffffffffffffffff1673ffffffffffffffffffffffffffffffffffffffff1681526020019081526020015f20549050611823888888611988565b5f8111801561183157505f82115b1561197d575f8287836118449190612bdf565b61184e9190612c4d565b9050808261185c9190612f44565b600d5f8b73ffffffffffffffffffffffffffffffffffffffff1673ffffffffffffffffffffffffffffffffffffffff1681526020019081526020015f2081905550620f4240600d5f8b73ffffffffffffffffffffffffffffffffffffffff1673ffffffffffffffffffffffffffffffffffffffff1681526020019081526020015f20541015611928575f600d5f8b73ffffffffffffffffffffffffffffffffffffffff1673ffffffffffffffffffffffffffffffffffffffff1681526020019081526020015f20819055505b80600d5f8a73ffffffffffffffffffffffffffffffffffffffff1673ffffffffffffffffffffffffffffffffffffffff1681526020019081526020015f205f8282546119749190612f11565b92505081905550505b50505050505b505050565b5f73ffffffffffffffffffffffffffffffffffffffff168373ffffffffffffffffffffffffffffffffffffffff16036119d8578060025f8282546119cc9190612f11565b92505081905550611aa6565b5f5f5f8573ffffffffffffffffffffffffffffffffffffffff1673ffffffffffffffffffffffffffffffffffffffff1681526020019081526020015f2054905081811015611a61578381836040517fe450d38c000000000000000000000000000000000000000000000000000000008152600401611a5893929190612f77565b60405180910390fd5b8181035f5f8673ffffffffffffffffffffffffffffffffffffffff1673ffffffffffffffffffffffffffffffffffffffff1681526020019081526020015f2081905550505b5f73ffffffffffffffffffffffffffffffffffffffff168273ffffffffffffffffffffffffffffffffffffffff1603611aed578060025f8282540392505081905550611b37565b805f5f8473ffffffffffffffffffffffffffffffffffffffff1673ffffffffffffffffffffffffffffffffffffffff1681526020019081526020015f205f82825401925050819055505b8173ffffffffffffffffffffffffffffffffffffffff168373ffffffffffffffffffffffffffffffffffffffff167fddf252ad1be2c89b69c2b068fc378daa952ba7f163c4a11628f55a4df523b3ef83604051611b949190612751565b60405180910390a3505050565b600b60159054906101000a900460ff16611bf0576040517f08c379a0000000000000000000000000000000000000000000000000000000008152600401611be790612ff6565b60405180910390fd5b5f6064600283611c009190612bdf565b611c0a9190612c4d565b90505f6064600384611c1c9190612bdf565b611c269190612c4d565b90505f818385611c369190612f44565b611c409190612f44565b9050611c70856103e8601987611c569190612bdf565b611c609190612c4d565b86611c6b9190612f11565b61207d565b611c7b863084611988565b611c888661dead85611988565b611c93868683611988565b505050505050565b600b60159054906101000a900460ff16611cea576040517f08c379a0000000000000000000000000000000000000000000000000000000008152600401611ce190612ff6565b60405180910390fd5b5f611cf484610a70565b90505f6064600284611d069190612bdf565b611d109190612c4d565b90505f6064600385611d229190612bdf565b611d2c9190612c4d565b90505f818386611d3c9190612f44565b611d469190612f44565b90505f611d538883610e0c565b90505f811115611d7257611d68883083611988565b611d71816121af565b5b611d7d883085611988565b611d8a8861dead86611988565b611da088888385611d9b9190612f44565b611988565b5f611daa89610a70565b90505f8103611dfa575f600d5f8b73ffffffffffffffffffffffffffffffffffffffff1673ffffffffffffffffffffffffffffffffffffffff1681526020019081526020015f2081905550611f30565b5f600d5f8b73ffffffffffffffffffffffffffffffffffffffff1673ffffffffffffffffffffffffffffffffffffffff1681526020019081526020015f205490505f878983611e499190612bdf565b611e539190612c4d565b90508082611e619190612f44565b600d5f8d73ffffffffffffffffffffffffffffffffffffffff1673ffffffffffffffffffffffffffffffffffffffff1681526020019081526020015f2081905550620f4240600d5f8d73ffffffffffffffffffffffffffffffffffffffff1673ffffffffffffffffffffffffffffffffffffffff1681526020019081526020015f20541015611f2d575f600d5f8d73ffffffffffffffffffffffffffffffffffffffff1673ffffffffffffffffffffffffffffffffffffffff1681526020019081526020015f20819055505b50505b505050505050505050565b5f73ffffffffffffffffffffffffffffffffffffffff16600a5f9054906101000a900473ffffffffffffffffffffffffffffffffffffffff1673ffffffffffffffffffffffffffffffffffffffff161461204e57611fba81600a5f9054906101000a900473ffffffffffffffffffffffffffffffffffffffff1661239c565b600a5f9054906101000a900473ffffffffffffffffffffffffffffffffffffffff1673ffffffffffffffffffffffffffffffffffffffff1663cc430ced61200083610889565b6040518263ffffffff1660e01b815260040161201c9190612751565b5f604051808303815f87803b158015612033575f5ffd5b505af1158015612045573d5f5f3e3d5ffd5b5050505061207a565b61207981600b5f9054906101000a900473ffffffffffffffffffffffffffffffffffffffff1661239c565b5b50565b60065f9054906101000a900473ffffffffffffffffffffffffffffffffffffffff1673ffffffffffffffffffffffffffffffffffffffff168273ffffffffffffffffffffffffffffffffffffffff161480612124575060075f9054906101000a900473ffffffffffffffffffffffffffffffffffffffff1673ffffffffffffffffffffffffffffffffffffffff168273ffffffffffffffffffffffffffffffffffffffff16145b6121ab575f612131610bd0565b90505f670de0b6b3a764000083836121499190612bdf565b6121539190612c4d565b905080600d5f8673ffffffffffffffffffffffffffffffffffffffff1673ffffffffffffffffffffffffffffffffffffffff1681526020019081526020015f205f8282546121a19190612f11565b9250508190555050505b5050565b5f60646039836121bf9190612bdf565b6121c99190612c4d565b90505f6064601c846121db9190612bdf565b6121e59190612c4d565b90505f8183856121f59190612f44565b6121ff9190612f44565b905061222c8360095f9054906101000a900473ffffffffffffffffffffffffffffffffffffffff1661239c565b61225782600b5f9054906101000a900473ffffffffffffffffffffffffffffffffffffffff1661239c565b5f73ffffffffffffffffffffffffffffffffffffffff16600a5f9054906101000a900473ffffffffffffffffffffffffffffffffffffffff1673ffffffffffffffffffffffffffffffffffffffff161461236a576122d681600a5f9054906101000a900473ffffffffffffffffffffffffffffffffffffffff1661239c565b600a5f9054906101000a900473ffffffffffffffffffffffffffffffffffffffff1673ffffffffffffffffffffffffffffffffffffffff1663cc430ced61231c83610889565b6040518263ffffffff1660e01b81526004016123389190612751565b5f604051808303815f87803b15801561234f575f5ffd5b505af1158015612361573d5f5f3e3d5ffd5b50505050612396565b61239581600b5f9054906101000a900473ffffffffffffffffffffffffffffffffffffffff1661239c565b5b50505050565b5f8203156125e7576001600b60146101000a81548160ff0219169083151502179055505f600267ffffffffffffffff8111156123db576123da6129bf565b5b6040519080825280602002602001820160405280156124095781602001602082028036833780820191505090505b50905030815f815181106124205761241f612c7d565b5b602002602001019073ffffffffffffffffffffffffffffffffffffffff16908173ffffffffffffffffffffffffffffffffffffffff168152505060085f9054906101000a900473ffffffffffffffffffffffffffffffffffffffff16816001815181106124905761248f612c7d565b5b602002602001019073ffffffffffffffffffffffffffffffffffffffff16908173ffffffffffffffffffffffffffffffffffffffff16815250506124f63060065f9054906101000a900473ffffffffffffffffffffffffffffffffffffffff16856110f6565b60065f9054906101000a900473ffffffffffffffffffffffffffffffffffffffff1673ffffffffffffffffffffffffffffffffffffffff16635c11d795845f8486601e426125449190612f11565b6040518663ffffffff1660e01b815260040161256495949392919061304d565b5f604051808303815f87803b15801561257b575f5ffd5b505af192505050801561258c575060015b156125cb577faedb4dc54dc30d46d331ffcc44cd836607bea96c12e1b21a95210ed899184d0482846040516125c29291906130a5565b60405180910390a15b5f600b60146101000a81548160ff021916908315150217905550505b5050565b5f73ffffffffffffffffffffffffffffffffffffffff82169050919050565b5f612614826125eb565b9050919050565b6126248161260a565b82525050565b5f60208201905061263d5f83018461261b565b92915050565b5f81519050919050565b5f82825260208201905092915050565b8281835e5f83830152505050565b5f601f19601f8301169050919050565b5f61268582612643565b61268f818561264d565b935061269f81856020860161265d565b6126a88161266b565b840191505092915050565b5f6020820190508181035f8301526126cb818461267b565b905092915050565b5f604051905090565b5f5ffd5b5f5ffd5b6126ed8161260a565b81146126f7575f5ffd5b50565b5f81359050612708816126e4565b92915050565b5f60208284031215612723576127226126dc565b5b5f612730848285016126fa565b91505092915050565b5f819050919050565b61274b81612739565b82525050565b5f6020820190506127645f830184612742565b92915050565b61277381612739565b811461277d575f5ffd5b50565b5f8135905061278e8161276a565b92915050565b5f5f604083850312156127aa576127a96126dc565b5b5f6127b7858286016126fa565b92505060206127c885828601612780565b9150509250929050565b5f8115159050919050565b6127e6816127d2565b82525050565b5f6020820190506127ff5f8301846127dd565b92915050565b61280e816127d2565b8114612818575f5ffd5b50565b5f8135905061282981612805565b92915050565b5f60208284031215612844576128436126dc565b5b5f6128518482850161281b565b91505092915050565b5f5f5f60608486031215612871576128706126dc565b5b5f61287e868287016126fa565b935050602061288f868287016126fa565b92505060406128a086828701612780565b9150509250925092565b5f60ff82169050919050565b6128bf816128aa565b82525050565b5f6020820190506128d85f8301846128b6565b92915050565b5f602082840312156128f3576128f26126dc565b5b5f61290084828501612780565b91505092915050565b5f819050919050565b5f61292c612927612922846125eb565b612909565b6125eb565b9050919050565b5f61293d82612912565b9050919050565b5f61294e82612933565b9050919050565b61295e81612944565b82525050565b5f6020820190506129775f830184612955565b92915050565b5f5f60408385031215612993576129926126dc565b5b5f6129a0858286016126fa565b92505060206129b1858286016126fa565b9150509250929050565b5f5ffd5b7f4e487b71000000000000000000000000000000000000000000000000000000005f52604160045260245ffd5b6129f58261266b565b810181811067ffffffffffffffff82111715612a1457612a136129bf565b5b80604052505050565b5f612a266126d3565b9050612a3282826129ec565b919050565b5f67ffffffffffffffff821115612a5157612a506129bf565b5b602082029050602081019050919050565b5f5ffd5b5f612a78612a7384612a37565b612a1d565b90508083825260208201905060208402830185811115612a9b57612a9a612a62565b5b835b81811015612ac45780612ab088826126fa565b845260208401935050602081019050612a9d565b5050509392505050565b5f82601f830112612ae257612ae16129bb565b5b8135612af2848260208601612a66565b91505092915050565b5f5f60408385031215612b1157612b106126dc565b5b5f83013567ffffffffffffffff811115612b2e57612b2d6126e0565b5b612b3a85828601612ace565b9250506020612b4b8582860161281b565b9150509250929050565b7f4e487b71000000000000000000000000000000000000000000000000000000005f52602260045260245ffd5b5f6002820490506001821680612b9957607f821691505b602082108103612bac57612bab612b55565b5b50919050565b7f4e487b71000000000000000000000000000000000000000000000000000000005f52601160045260245ffd5b5f612be982612739565b9150612bf483612739565b9250828202612c0281612739565b91508282048414831517612c1957612c18612bb2565b5b5092915050565b7f4e487b71000000000000000000000000000000000000000000000000000000005f52601260045260245ffd5b5f612c5782612739565b9150612c6283612739565b925082612c7257612c71612c20565b5b828204905092915050565b7f4e487b71000000000000000000000000000000000000000000000000000000005f52603260045260245ffd5b5f81519050919050565b5f82825260208201905092915050565b5f819050602082019050919050565b612cdc8161260a565b82525050565b5f612ced8383612cd3565b60208301905092915050565b5f602082019050919050565b5f612d0f82612caa565b612d198185612cb4565b9350612d2483612cc4565b805f5b83811015612d54578151612d3b8882612ce2565b9750612d4683612cf9565b925050600181019050612d27565b5085935050505092915050565b5f604082019050612d745f830185612742565b8181036020830152612d868184612d05565b90509392505050565b5f67ffffffffffffffff821115612da957612da86129bf565b5b602082029050602081019050919050565b5f81519050612dc88161276a565b92915050565b5f612de0612ddb84612d8f565b612a1d565b90508083825260208201905060208402830185811115612e0357612e02612a62565b5b835b81811015612e2c5780612e188882612dba565b845260208401935050602081019050612e05565b5050509392505050565b5f82601f830112612e4a57612e496129bb565b5b8151612e5a848260208601612dce565b91505092915050565b5f60208284031215612e7857612e776126dc565b5b5f82015167ffffffffffffffff811115612e9557612e946126e0565b5b612ea184828501612e36565b91505092915050565b5f819050919050565b5f612ecd612ec8612ec384612eaa565b612909565b612739565b9050919050565b612edd81612eb3565b82525050565b5f604082019050612ef65f830185612ed4565b8181036020830152612f088184612d05565b90509392505050565b5f612f1b82612739565b9150612f2683612739565b9250828201905080821115612f3e57612f3d612bb2565b5b92915050565b5f612f4e82612739565b9150612f5983612739565b9250828203905081811115612f7157612f70612bb2565b5b92915050565b5f606082019050612f8a5f83018661261b565b612f976020830185612742565b612fa46040830184612742565b949350505050565b7f4255595f414e445f53454c4c5f495344495341424c45442e00000000000000005f82015250565b5f612fe060188361264d565b9150612feb82612fac565b602082019050919050565b5f6020820190508181035f83015261300d81612fd4565b9050919050565b5f819050919050565b5f61303761303261302d84613014565b612909565b612739565b9050919050565b6130478161301d565b82525050565b5f60a0820190506130605f830188612742565b61306d602083018761303e565b818103604083015261307f8186612d05565b905061308e606083018561261b565b61309b6080830184612742565b9695505050505050565b5f6040820190506130b85f83018561261b565b6130c56020830184612742565b939250505056fea264697066735822122054c412b8e6b9526680c135dfc0107ff0422781449d83dde6291c33cd3f71533964736f6c634300081e0033","linkReferences":{}},"methodIdentifiers":{"DEAD()":"03fd2a45","PROFIT_MARKET_TAX_RATE()":"9dc41984","PROFIT_NODE_TAX_RATE()":"0c355b47","PROFIT_WALLET_TAX_RATE()":"fcb1138d","SWAP_DEAD_FEE_RATE()":"86f0f61b","SWAP_NODE_FEE_RATE()":"e9a997e5","USDT()":"c54e44eb","allowance(address,address)":"dd62ed3e","allowlist(address)":"a7cd52cb","approve(address,uint256)":"095ea7b3","averagePriceOf(address)":"088878b5","balanceOf(address)":"70a08231","currentPrice()":"9d1b464a","decimals()":"313ce567","getAmountOut(uint256)":"5c195217","getProfitTaxToken(address,uint256)":"c1d960ae","marketing()":"2d3e474a","name()":"06fdde03","nodeDividends()":"c7fb372f","owner()":"8da5cb5b","pancakePair()":"b8c9d25c","pancakeRouter()":"c21ebd07","renounceOwnership()":"715018a6","setAllowlist(address[],bool)":"f01fe7c4","setNodeDividends(address)":"8f011a28","setTradingOpen(bool)":"21c03a97","symbol()":"95d89b41","totalCostUsdt(address)":"60d1d4a4","totalSupply()":"18160ddd","tradingOpen()":"ffb54a99","transfer(address,uint256)":"a9059cbb","transferFrom(address,address,uint256)":"23b872dd","transferOwnership(address)":"f2fde38b","wallet()":"521eb273"},"id":42}