{"abi":[{"type":"constructor","inputs":[{"name":"_initialRecipient","type":"address","internalType":"address"},{"name":"_marketing","type":"address","internalType":"address"},{"name":"_wallet","type":"address","internalType":"address"}],"stateMutability":"nonpayable"},{"type":"function","name":"DEAD","inputs":[],"outputs":[{"name":"","type":"address","internalType":"address"}],"stateMutability":"view"},{"type":"function","name":"PROFIT_MARKET_TAX_RATE","inputs":[],"outputs":[{"name":"","type":"uint256","internalType":"uint256"}],"stateMutability":"view"},{"type":"function","name":"PROFIT_NODE_TAX_RATE","inputs":[],"outputs":[{"name":"","type":"uint256","internalType":"uint256"}],"stateMutability":"view"},{"type":"function","name":"PROFIT_WALLET_TAX_RATE","inputs":[],"outputs":[{"name":"","type":"uint256","internalType":"uint256"}],"stateMutability":"view"},{"type":"function","name":"SWAP_DEAD_FEE_RATE","inputs":[],"outputs":[{"name":"","type":"uint256","internalType":"uint256"}],"stateMutability":"view"},{"type":"function","name":"SWAP_NODE_FEE_RATE","inputs":[],"outputs":[{"name":"","type":"uint256","internalType":"uint256"}],"stateMutability":"view"},{"type":"function","name":"USDT","inputs":[],"outputs":[{"name":"","type":"address","internalType":"address"}],"stateMutability":"view"},{"type":"function","name":"allowance","inputs":[{"name":"owner","type":"address","internalType":"address"},{"name":"spender","type":"address","internalType":"address"}],"outputs":[{"name":"","type":"uint256","internalType":"uint256"}],"stateMutability":"view"},{"type":"function","name":"allowlist","inputs":[{"name":"","type":"address","internalType":"address"}],"outputs":[{"name":"","type":"bool","internalType":"bool"}],"stateMutability":"view"},{"type":"function","name":"approve","inputs":[{"name":"spender","type":"address","internalType":"address"},{"name":"value","type":"uint256","internalType":"uint256"}],"outputs":[{"name":"","type":"bool","internalType":"bool"}],"stateMutability":"nonpayable"},{"type":"function","name":"averagePriceOf","inputs":[{"name":"user","type":"address","internalType":"address"}],"outputs":[{"name":"","type":"uint256","internalType":"uint256"}],"stateMutability":"view"},{"type":"function","name":"balanceOf","inputs":[{"name":"account","type":"address","internalType":"address"}],"outputs":[{"name":"","type":"uint256","internalType":"uint256"}],"stateMutability":"view"},{"type":"function","name":"currentPrice","inputs":[],"outputs":[{"name":"","type":"uint256","internalType":"uint256"}],"stateMutability":"view"},{"type":"function","name":"decimals","inputs":[],"outputs":[{"name":"","type":"uint8","internalType":"uint8"}],"stateMutability":"view"},{"type":"function","name":"getAmountOut","inputs":[{"name":"amountToken","type":"uint256","internalType":"uint256"}],"outputs":[{"name":"","type":"uint256","internalType":"uint256"}],"stateMutability":"view"},{"type":"function","name":"getProfitTaxToken","inputs":[{"name":"from","type":"address","internalType":"address"},{"name":"amountToken","type":"uint256","internalType":"uint256"}],"outputs":[{"name":"taxToken","type":"uint256","internalType":"uint256"}],"stateMutability":"view"},{"type":"function","name":"marketing","inputs":[],"outputs":[{"name":"","type":"address","internalType":"address"}],"stateMutability":"view"},{"type":"function","name":"name","inputs":[],"outputs":[{"name":"","type":"string","internalType":"string"}],"stateMutability":"view"},{"type":"function","name":"nodeDividends","inputs":[],"outputs":[{"name":"","type":"address","internalType":"address"}],"stateMutability":"view"},{"type":"function","name":"owner","inputs":[],"outputs":[{"name":"","type":"address","internalType":"address"}],"stateMutability":"view"},{"type":"function","name":"pancakePair","inputs":[],"outputs":[{"name":"","type":"address","internalType":"address"}],"stateMutability":"view"},{"type":"function","name":"pancakeRouter","inputs":[],"outputs":[{"name":"","type":"address","internalType":"contract IUniswapV2Router02"}],"stateMutability":"view"},{"type":"function","name":"renounceOwnership","inputs":[],"outputs":[],"stateMutability":"nonpayable"},{"type":"function","name":"setAllowlist","inputs":[{"name":"addrs","type":"address[]","internalType":"address[]"},{"name":"isAllow","type":"bool","internalType":"bool"}],"outputs":[],"stateMutability":"nonpayable"},{"type":"function","name":"setNodeDividends","inputs":[{"name":"_nodeDividends","type":"address","internalType":"address"}],"outputs":[],"stateMutability":"nonpayable"},{"type":"function","name":"setTradingOpen","inputs":[{"name":"_tradingOpen","type":"bool","internalType":"bool"}],"outputs":[],"stateMutability":"nonpayable"},{"type":"function","name":"symbol","inputs":[],"outputs":[{"name":"","type":"string","internalType":"string"}],"stateMutability":"view"},{"type":"function","name":"totalCostUsdt","inputs":[{"name":"","type":"address","internalType":"address"}],"outputs":[{"name":"","type":"uint256","internalType":"uint256"}],"stateMutability":"view"},{"type":"function","name":"totalSupply","inputs":[],"outputs":[{"name":"","type":"uint256","internalType":"uint256"}],"stateMutability":"view"},{"type":"function","name":"tradingOpen","inputs":[],"outputs":[{"name":"","type":"bool","internalType":"bool"}],"stateMutability":"view"},{"type":"function","name":"transfer","inputs":[{"name":"to","type":"address","internalType":"address"},{"name":"value","type":"uint256","internalType":"uint256"}],"outputs":[{"name":"","type":"bool","internalType":"bool"}],"stateMutability":"nonpayable"},{"type":"function","name":"transferFrom","inputs":[{"name":"from","type":"address","internalType":"address"},{"name":"to","type":"address","internalType":"address"},{"name":"value","type":"uint256","internalType":"uint256"}],"outputs":[{"name":"","type":"bool","internalType":"bool"}],"stateMutability":"nonpayable"},{"type":"function","name":"transferOwnership","inputs":[{"name":"newOwner","type":"address","internalType":"address"}],"outputs":[],"stateMutability":"nonpayable"},{"type":"function","name":"wallet","inputs":[],"outputs":[{"name":"","type":"address","internalType":"address"}],"stateMutability":"view"},{"type":"event","name":"Approval","inputs":[{"name":"owner","type":"address","indexed":true,"internalType":"address"},{"name":"spender","type":"address","indexed":true,"internalType":"address"},{"name":"value","type":"uint256","indexed":false,"internalType":"uint256"}],"anonymous":false},{"type":"event","name":"OwnershipTransferred","inputs":[{"name":"previousOwner","type":"address","indexed":true,"internalType":"address"},{"name":"newOwner","type":"address","indexed":true,"internalType":"address"}],"anonymous":false},{"type":"event","name":"SwapAndSendTax","inputs":[{"name":"recipient","type":"address","indexed":false,"internalType":"address"},{"name":"tokensSwapped","type":"uint256","indexed":false,"internalType":"uint256"}],"anonymous":false},{"type":"event","name":"Transfer","inputs":[{"name":"from","type":"address","indexed":true,"internalType":"address"},{"name":"to","type":"address","indexed":true,"internalType":"address"},{"name":"value","type":"uint256","indexed":false,"internalType":"uint256"}],"anonymous":false},{"type":"error","name":"ERC20InsufficientAllowance","inputs":[{"name":"spender","type":"address","internalType":"address"},{"name":"allowance","type":"uint256","internalType":"uint256"},{"name":"needed","type":"uint256","internalType":"uint256"}]},{"type":"error","name":"ERC20InsufficientBalance","inputs":[{"name":"sender","type":"address","internalType":"address"},{"name":"balance","type":"uint256","internalType":"uint256"},{"name":"needed","type":"uint256","internalType":"uint256"}]},{"type":"error","name":"ERC20InvalidApprover","inputs":[{"name":"approver","type":"address","internalType":"address"}]},{"type":"error","name":"ERC20InvalidReceiver","inputs":[{"name":"receiver","type":"address","internalType":"address"}]},{"type":"error","name":"ERC20InvalidSender","inputs":[{"name":"sender","type":"address","internalType":"address"}]},{"type":"error","name":"ERC20InvalidSpender","inputs":[{"name":"spender","type":"address","internalType":"address"}]},{"type":"error","name":"OwnableInvalidOwner","inputs":[{"name":"owner","type":"address","internalType":"address"}]},{"type":"error","name":"OwnableUnauthorizedAccount","inputs":[{"name":"account","type":"address","internalType":"address"}]}],"bytecode":{"object":"0x60806040527310ed43c718714eb63d5aa57b78b54704e256024e60065f6101000a81548173ffffffffffffffffffffffffffffffffffffffff021916908373ffffffffffffffffffffffffffffffffffffffff160217905550348015610063575f5ffd5b506040516158ae3803806158ae83398181016040528101906100859190611e32565b336040518060400160405280600381526020017f444a5300000000000000000000000000000000000000000000000000000000008152506040518060400160405280600381526020017f444a530000000000000000000000000000000000000000000000000000000000815250816003908161010191906120bf565b50806004908161011191906120bf565b5050505f73ffffffffffffffffffffffffffffffffffffffff168173ffffffffffffffffffffffffffffffffffffffff1603610184575f6040517f1e4fbdf700000000000000000000000000000000000000000000000000000000815260040161017b919061219d565b60405180910390fd5b6101938161049160201b60201c565b506101af836a05aec7723d5c0459c0000061055460201b60201c565b60065f9054906101000a900473ffffffffffffffffffffffffffffffffffffffff1673ffffffffffffffffffffffffffffffffffffffff1663c45a01556040518163ffffffff1660e01b8152600401602060405180830381865afa158015610219573d5f5f3e3d5ffd5b505050506040513d601f19601f8201168201806040525081019061023d91906121b6565b73ffffffffffffffffffffffffffffffffffffffff1663c9c6539630733c83065b83a8fd66587f330845f4603f7c49275c6040518363ffffffff1660e01b815260040161028b9291906121e1565b6020604051808303815f875af11580156102a7573d5f5f3e3d5ffd5b505050506040513d601f19601f820116820180604052508101906102cb91906121b6565b60075f6101000a81548173ffffffffffffffffffffffffffffffffffffffff021916908373ffffffffffffffffffffffffffffffffffffffff1602179055506001600b5f8573ffffffffffffffffffffffffffffffffffffffff1673ffffffffffffffffffffffffffffffffffffffff1681526020019081526020015f205f6101000a81548160ff0219169083151502179055506001600b5f8473ffffffffffffffffffffffffffffffffffffffff1673ffffffffffffffffffffffffffffffffffffffff1681526020019081526020015f205f6101000a81548160ff0219169083151502179055506001600b5f8373ffffffffffffffffffffffffffffffffffffffff1673ffffffffffffffffffffffffffffffffffffffff1681526020019081526020015f205f6101000a81548160ff0219169083151502179055508160085f6101000a81548173ffffffffffffffffffffffffffffffffffffffff021916908373ffffffffffffffffffffffffffffffffffffffff16021790555080600a5f6101000a81548173ffffffffffffffffffffffffffffffffffffffff021916908373ffffffffffffffffffffffffffffffffffffffff1602179055505050506127d3565b5f60055f9054906101000a900473ffffffffffffffffffffffffffffffffffffffff1690508160055f6101000a81548173ffffffffffffffffffffffffffffffffffffffff021916908373ffffffffffffffffffffffffffffffffffffffff1602179055508173ffffffffffffffffffffffffffffffffffffffff168173ffffffffffffffffffffffffffffffffffffffff167f8be0079c531659141344cd1fd0a4f28419497f9722a3daafe3b4186f6b6457e060405160405180910390a35050565b5f73ffffffffffffffffffffffffffffffffffffffff168273ffffffffffffffffffffffffffffffffffffffff16036105c4575f6040517fec442f050000000000000000000000000000000000000000000000000000000081526004016105bb919061219d565b60405180910390fd5b6105d55f83836105d960201b60201c565b5050565b600a60149054906101000a900460ff168061061f57505f73ffffffffffffffffffffffffffffffffffffffff168373ffffffffffffffffffffffffffffffffffffffff16145b8061065557505f73ffffffffffffffffffffffffffffffffffffffff168273ffffffffffffffffffffffffffffffffffffffff16145b806106a65750600b5f8473ffffffffffffffffffffffffffffffffffffffff1673ffffffffffffffffffffffffffffffffffffffff1681526020019081526020015f205f9054906101000a900460ff165b806106f75750600b5f8373ffffffffffffffffffffffffffffffffffffffff1673ffffffffffffffffffffffffffffffffffffffff1681526020019081526020015f205f9054906101000a900460ff165b156107125761070d8383836109e760201b60201c565b6109e2565b5f60075f9054906101000a900473ffffffffffffffffffffffffffffffffffffffff1673ffffffffffffffffffffffffffffffffffffffff168473ffffffffffffffffffffffffffffffffffffffff161490505f60075f9054906101000a900473ffffffffffffffffffffffffffffffffffffffff1673ffffffffffffffffffffffffffffffffffffffff168473ffffffffffffffffffffffffffffffffffffffff1614905081156107d6576107cf858585610c0060201b60201c565b50506109e2565b80156107f4576107ed858585610d1260201b60201c565b50506109e2565b5f61080430610fe260201b60201c565b90505f81111561081e5761081d8161102760201b60201c565b5b5f61082e87610fe260201b60201c565b90505f600c5f8973ffffffffffffffffffffffffffffffffffffffff1673ffffffffffffffffffffffffffffffffffffffff1681526020019081526020015f205490506108828888886109e760201b60201c565b5f8111801561089057505f82115b156109dc575f8287836108a39190612235565b6108ad91906122a3565b905080826108bb91906122d3565b600c5f8b73ffffffffffffffffffffffffffffffffffffffff1673ffffffffffffffffffffffffffffffffffffffff1681526020019081526020015f2081905550620f4240600c5f8b73ffffffffffffffffffffffffffffffffffffffff1673ffffffffffffffffffffffffffffffffffffffff1681526020019081526020015f20541015610987575f600c5f8b73ffffffffffffffffffffffffffffffffffffffff1673ffffffffffffffffffffffffffffffffffffffff1681526020019081526020015f20819055505b80600c5f8a73ffffffffffffffffffffffffffffffffffffffff1673ffffffffffffffffffffffffffffffffffffffff1681526020019081526020015f205f8282546109d39190612306565b92505081905550505b50505050505b505050565b5f73ffffffffffffffffffffffffffffffffffffffff168373ffffffffffffffffffffffffffffffffffffffff1603610a37578060025f828254610a2b9190612306565b92505081905550610b05565b5f5f5f8573ffffffffffffffffffffffffffffffffffffffff1673ffffffffffffffffffffffffffffffffffffffff1681526020019081526020015f2054905081811015610ac0578381836040517fe450d38c000000000000000000000000000000000000000000000000000000008152600401610ab793929190612348565b60405180910390fd5b8181035f5f8673ffffffffffffffffffffffffffffffffffffffff1673ffffffffffffffffffffffffffffffffffffffff1681526020019081526020015f2081905550505b5f73ffffffffffffffffffffffffffffffffffffffff168273ffffffffffffffffffffffffffffffffffffffff1603610b4c578060025f8282540392505081905550610b96565b805f5f8473ffffffffffffffffffffffffffffffffffffffff1673ffffffffffffffffffffffffffffffffffffffff1681526020019081526020015f205f82825401925050819055505b8173ffffffffffffffffffffffffffffffffffffffff168373ffffffffffffffffffffffffffffffffffffffff167fddf252ad1be2c89b69c2b068fc378daa952ba7f163c4a11628f55a4df523b3ef83604051610bf3919061237d565b60405180910390a3505050565b600a60159054906101000a900460ff16610c4f576040517f08c379a0000000000000000000000000000000000000000000000000000000008152600401610c46906123f0565b60405180910390fd5b5f6064600283610c5f9190612235565b610c6991906122a3565b90505f6064600384610c7b9190612235565b610c8591906122a3565b90505f818385610c9591906122d3565b610c9f91906122d3565b9050610cd5856103e8601987610cb59190612235565b610cbf91906122a3565b86610cca9190612306565b61117b60201b60201c565b610ce68630846109e760201b60201c565b610cf98661dead856109e760201b60201c565b610d0a8686836109e760201b60201c565b505050505050565b600a60159054906101000a900460ff16610d61576040517f08c379a0000000000000000000000000000000000000000000000000000000008152600401610d58906123f0565b60405180910390fd5b5f610d7184610fe260201b60201c565b90505f6064600284610d839190612235565b610d8d91906122a3565b90505f6064600385610d9f9190612235565b610da991906122a3565b90505f818386610db991906122d3565b610dc391906122d3565b90505f610dd688836112b360201b60201c565b90505f811115610e0157610df18830836109e760201b60201c565b610e008161137a60201b60201c565b5b610e128830856109e760201b60201c565b610e258861dead866109e760201b60201c565b610e4188888385610e3691906122d3565b6109e760201b60201c565b5f610e5189610fe260201b60201c565b90505f8103610ea1575f600c5f8b73ffffffffffffffffffffffffffffffffffffffff1673ffffffffffffffffffffffffffffffffffffffff1681526020019081526020015f2081905550610fd7565b5f600c5f8b73ffffffffffffffffffffffffffffffffffffffff1673ffffffffffffffffffffffffffffffffffffffff1681526020019081526020015f205490505f878983610ef09190612235565b610efa91906122a3565b90508082610f0891906122d3565b600c5f8d73ffffffffffffffffffffffffffffffffffffffff1673ffffffffffffffffffffffffffffffffffffffff1681526020019081526020015f2081905550620f4240600c5f8d73ffffffffffffffffffffffffffffffffffffffff1673ffffffffffffffffffffffffffffffffffffffff1681526020019081526020015f20541015610fd4575f600c5f8d73ffffffffffffffffffffffffffffffffffffffff1673ffffffffffffffffffffffffffffffffffffffff1681526020019081526020015f20819055505b50505b505050505050505050565b5f5f5f8373ffffffffffffffffffffffffffffffffffffffff1673ffffffffffffffffffffffffffffffffffffffff1681526020019081526020015f20549050919050565b5f73ffffffffffffffffffffffffffffffffffffffff1660095f9054906101000a900473ffffffffffffffffffffffffffffffffffffffff1673ffffffffffffffffffffffffffffffffffffffff1614611146576110ac8160095f9054906101000a900473ffffffffffffffffffffffffffffffffffffffff1661158560201b60201c565b60095f9054906101000a900473ffffffffffffffffffffffffffffffffffffffff1673ffffffffffffffffffffffffffffffffffffffff1663cc430ced6110f8836117cd60201b60201c565b6040518263ffffffff1660e01b8152600401611114919061237d565b5f604051808303815f87803b15801561112b575f5ffd5b505af115801561113d573d5f5f3e3d5ffd5b50505050611178565b61117781600a5f9054906101000a900473ffffffffffffffffffffffffffffffffffffffff1661158560201b60201c565b5b50565b60065f9054906101000a900473ffffffffffffffffffffffffffffffffffffffff1673ffffffffffffffffffffffffffffffffffffffff168273ffffffffffffffffffffffffffffffffffffffff161480611222575060075f9054906101000a900473ffffffffffffffffffffffffffffffffffffffff1673ffffffffffffffffffffffffffffffffffffffff168273ffffffffffffffffffffffffffffffffffffffff16145b6112af575f61123561199260201b60201c565b90505f670de0b6b3a7640000838361124d9190612235565b61125791906122a3565b905080600c5f8673ffffffffffffffffffffffffffffffffffffffff1673ffffffffffffffffffffffffffffffffffffffff1681526020019081526020015f205f8282546112a59190612306565b9250508190555050505b5050565b5f5f82036112c3575f9050611374565b5f6112d384611b5860201b60201c565b90505f81036112e5575f915050611374565b5f6112f461199260201b60201c565b9050818111611307575f92505050611374565b5f6005600a60146113189190612306565b6113229190612306565b90505f82848461133291906122d3565b8761133d9190612235565b61134791906122a3565b9050606482826113579190612235565b61136191906122a3565b94508585111561136f575f94505b505050505b92915050565b5f606460398361138a9190612235565b61139491906122a3565b90505f6064601c846113a69190612235565b6113b091906122a3565b90505f8183856113c091906122d3565b6113ca91906122d3565b90506113fd8360085f9054906101000a900473ffffffffffffffffffffffffffffffffffffffff1661158560201b60201c565b61142e82600a5f9054906101000a900473ffffffffffffffffffffffffffffffffffffffff1661158560201b60201c565b5f73ffffffffffffffffffffffffffffffffffffffff1660095f9054906101000a900473ffffffffffffffffffffffffffffffffffffffff1673ffffffffffffffffffffffffffffffffffffffff161461154d576114b38160095f9054906101000a900473ffffffffffffffffffffffffffffffffffffffff1661158560201b60201c565b60095f9054906101000a900473ffffffffffffffffffffffffffffffffffffffff1673ffffffffffffffffffffffffffffffffffffffff1663cc430ced6114ff836117cd60201b60201c565b6040518263ffffffff1660e01b815260040161151b919061237d565b5f604051808303815f87803b158015611532575f5ffd5b505af1158015611544573d5f5f3e3d5ffd5b5050505061157f565b61157e81600a5f9054906101000a900473ffffffffffffffffffffffffffffffffffffffff1661158560201b60201c565b5b50505050565b5f8203156117c9576001600a60146101000a81548160ff0219169083151502179055505f600267ffffffffffffffff8111156115c4576115c3611e8c565b5b6040519080825280602002602001820160405280156115f25781602001602082028036833780820191505090505b50905030815f815181106116095761160861240e565b5b602002602001019073ffffffffffffffffffffffffffffffffffffffff16908173ffffffffffffffffffffffffffffffffffffffff1681525050733c83065b83a8fd66587f330845f4603f7c49275c8160018151811061166c5761166b61240e565b5b602002602001019073ffffffffffffffffffffffffffffffffffffffff16908173ffffffffffffffffffffffffffffffffffffffff16815250506116d83060065f9054906101000a900473ffffffffffffffffffffffffffffffffffffffff1685611be060201b60201c565b60065f9054906101000a900473ffffffffffffffffffffffffffffffffffffffff1673ffffffffffffffffffffffffffffffffffffffff16635c11d795845f8486601e426117269190612306565b6040518663ffffffff1660e01b815260040161174695949392919061252b565b5f604051808303815f87803b15801561175d575f5ffd5b505af192505050801561176e575060015b156117ad577faedb4dc54dc30d46d331ffcc44cd836607bea96c12e1b21a95210ed899184d0482846040516117a4929190612583565b60405180910390a15b5f600a60146101000a81548160ff021916908315150217905550505b5050565b5f5f600267ffffffffffffffff8111156117ea576117e9611e8c565b5b6040519080825280602002602001820160405280156118185781602001602082028036833780820191505090505b50905030815f8151811061182f5761182e61240e565b5b602002602001019073ffffffffffffffffffffffffffffffffffffffff16908173ffffffffffffffffffffffffffffffffffffffff1681525050733c83065b83a8fd66587f330845f4603f7c49275c816001815181106118925761189161240e565b5b602002602001019073ffffffffffffffffffffffffffffffffffffffff16908173ffffffffffffffffffffffffffffffffffffffff16815250505f60065f9054906101000a900473ffffffffffffffffffffffffffffffffffffffff1673ffffffffffffffffffffffffffffffffffffffff1663d06ca61f85846040518363ffffffff1660e01b81526004016119299291906125aa565b5f60405180830381865afa158015611943573d5f5f3e3d5ffd5b505050506040513d5f823e3d601f19601f8201168201806040525081019061196b9190612725565b9050806001815181106119815761198061240e565b5b602002602001015192505050919050565b5f5f600267ffffffffffffffff8111156119af576119ae611e8c565b5b6040519080825280602002602001820160405280156119dd5781602001602082028036833780820191505090505b50905030815f815181106119f4576119f361240e565b5b602002602001019073ffffffffffffffffffffffffffffffffffffffff16908173ffffffffffffffffffffffffffffffffffffffff1681525050733c83065b83a8fd66587f330845f4603f7c49275c81600181518110611a5757611a5661240e565b5b602002602001019073ffffffffffffffffffffffffffffffffffffffff16908173ffffffffffffffffffffffffffffffffffffffff168152505060065f9054906101000a900473ffffffffffffffffffffffffffffffffffffffff1673ffffffffffffffffffffffffffffffffffffffff1663d06ca61f670de0b6b3a7640000836040518363ffffffff1660e01b8152600401611af59291906127a5565b5f60405180830381865afa158015611b0f573d5f5f3e3d5ffd5b505050506040513d5f823e3d601f19601f82011682018060405250810190611b379190612725565b600181518110611b4a57611b4961240e565b5b602002602001015191505090565b5f5f611b6983610fe260201b60201c565b90505f8103611b7b575f915050611bdb565b80670de0b6b3a7640000600c5f8673ffffffffffffffffffffffffffffffffffffffff1673ffffffffffffffffffffffffffffffffffffffff1681526020019081526020015f2054611bcd9190612235565b611bd791906122a3565b9150505b919050565b611bf38383836001611bf860201b60201c565b505050565b5f73ffffffffffffffffffffffffffffffffffffffff168473ffffffffffffffffffffffffffffffffffffffff1603611c68575f6040517fe602df05000000000000000000000000000000000000000000000000000000008152600401611c5f919061219d565b60405180910390fd5b5f73ffffffffffffffffffffffffffffffffffffffff168373ffffffffffffffffffffffffffffffffffffffff1603611cd8575f6040517f94280d62000000000000000000000000000000000000000000000000000000008152600401611ccf919061219d565b60405180910390fd5b8160015f8673ffffffffffffffffffffffffffffffffffffffff1673ffffffffffffffffffffffffffffffffffffffff1681526020019081526020015f205f8573ffffffffffffffffffffffffffffffffffffffff1673ffffffffffffffffffffffffffffffffffffffff1681526020019081526020015f20819055508015611dc1578273ffffffffffffffffffffffffffffffffffffffff168473ffffffffffffffffffffffffffffffffffffffff167f8c5be1e5ebec7d5bd14f71427d1e84f3dd0314c0f7b2291e5b200ac8c7c3b92584604051611db8919061237d565b60405180910390a35b50505050565b5f604051905090565b5f5ffd5b5f5ffd5b5f73ffffffffffffffffffffffffffffffffffffffff82169050919050565b5f611e0182611dd8565b9050919050565b611e1181611df7565b8114611e1b575f5ffd5b50565b5f81519050611e2c81611e08565b92915050565b5f5f5f60608486031215611e4957611e48611dd0565b5b5f611e5686828701611e1e565b9350506020611e6786828701611e1e565b9250506040611e7886828701611e1e565b9150509250925092565b5f81519050919050565b7f4e487b71000000000000000000000000000000000000000000000000000000005f52604160045260245ffd5b7f4e487b71000000000000000000000000000000000000000000000000000000005f52602260045260245ffd5b5f6002820490506001821680611efd57607f821691505b602082108103611f1057611f0f611eb9565b5b50919050565b5f819050815f5260205f209050919050565b5f6020601f8301049050919050565b5f82821b905092915050565b5f60088302611f727fffffffffffffffffffffffffffffffffffffffffffffffffffffffffffffffff82611f37565b611f7c8683611f37565b95508019841693508086168417925050509392505050565b5f819050919050565b5f819050919050565b5f611fc0611fbb611fb684611f94565b611f9d565b611f94565b9050919050565b5f819050919050565b611fd983611fa6565b611fed611fe582611fc7565b848454611f43565b825550505050565b5f5f905090565b612004611ff5565b61200f818484611fd0565b505050565b5b81811015612032576120275f82611ffc565b600181019050612015565b5050565b601f8211156120775761204881611f16565b61205184611f28565b81016020851015612060578190505b61207461206c85611f28565b830182612014565b50505b505050565b5f82821c905092915050565b5f6120975f198460080261207c565b1980831691505092915050565b5f6120af8383612088565b9150826002028217905092915050565b6120c882611e82565b67ffffffffffffffff8111156120e1576120e0611e8c565b5b6120eb8254611ee6565b6120f6828285612036565b5f60209050601f831160018114612127575f8415612115578287015190505b61211f85826120a4565b865550612186565b601f19841661213586611f16565b5f5b8281101561215c57848901518255600182019150602085019450602081019050612137565b868310156121795784890151612175601f891682612088565b8355505b6001600288020188555050505b505050505050565b61219781611df7565b82525050565b5f6020820190506121b05f83018461218e565b92915050565b5f602082840312156121cb576121ca611dd0565b5b5f6121d884828501611e1e565b91505092915050565b5f6040820190506121f45f83018561218e565b612201602083018461218e565b9392505050565b7f4e487b71000000000000000000000000000000000000000000000000000000005f52601160045260245ffd5b5f61223f82611f94565b915061224a83611f94565b925082820261225881611f94565b9150828204841483151761226f5761226e612208565b5b5092915050565b7f4e487b71000000000000000000000000000000000000000000000000000000005f52601260045260245ffd5b5f6122ad82611f94565b91506122b883611f94565b9250826122c8576122c7612276565b5b828204905092915050565b5f6122dd82611f94565b91506122e883611f94565b9250828203905081811115612300576122ff612208565b5b92915050565b5f61231082611f94565b915061231b83611f94565b925082820190508082111561233357612332612208565b5b92915050565b61234281611f94565b82525050565b5f60608201905061235b5f83018661218e565b6123686020830185612339565b6123756040830184612339565b949350505050565b5f6020820190506123905f830184612339565b92915050565b5f82825260208201905092915050565b7f4255595f414e445f53454c4c5f495344495341424c45442e00000000000000005f82015250565b5f6123da601883612396565b91506123e5826123a6565b602082019050919050565b5f6020820190508181035f830152612407816123ce565b9050919050565b7f4e487b71000000000000000000000000000000000000000000000000000000005f52603260045260245ffd5b5f819050919050565b5f61245e6124596124548461243b565b611f9d565b611f94565b9050919050565b61246e81612444565b82525050565b5f81519050919050565b5f82825260208201905092915050565b5f819050602082019050919050565b6124a681611df7565b82525050565b5f6124b7838361249d565b60208301905092915050565b5f602082019050919050565b5f6124d982612474565b6124e3818561247e565b93506124ee8361248e565b805f5b8381101561251e57815161250588826124ac565b9750612510836124c3565b9250506001810190506124f1565b5085935050505092915050565b5f60a08201905061253e5f830188612339565b61254b6020830187612465565b818103604083015261255d81866124cf565b905061256c606083018561218e565b6125796080830184612339565b9695505050505050565b5f6040820190506125965f83018561218e565b6125a36020830184612339565b9392505050565b5f6040820190506125bd5f830185612339565b81810360208301526125cf81846124cf565b90509392505050565b5f5ffd5b5f601f19601f8301169050919050565b6125f5826125dc565b810181811067ffffffffffffffff8211171561261457612613611e8c565b5b80604052505050565b5f612626611dc7565b905061263282826125ec565b919050565b5f67ffffffffffffffff82111561265157612650611e8c565b5b602082029050602081019050919050565b5f5ffd5b61266f81611f94565b8114612679575f5ffd5b50565b5f8151905061268a81612666565b92915050565b5f6126a261269d84612637565b61261d565b905080838252602082019050602084028301858111156126c5576126c4612662565b5b835b818110156126ee57806126da888261267c565b8452602084019350506020810190506126c7565b5050509392505050565b5f82601f83011261270c5761270b6125d8565b5b815161271c848260208601612690565b91505092915050565b5f6020828403121561273a57612739611dd0565b5b5f82015167ffffffffffffffff81111561275757612756611dd4565b5b612763848285016126f8565b91505092915050565b5f819050919050565b5f61278f61278a6127858461276c565b611f9d565b611f94565b9050919050565b61279f81612775565b82525050565b5f6040820190506127b85f830185612796565b81810360208301526127ca81846124cf565b90509392505050565b6130ce806127e05f395ff3fe608060405234801561000f575f5ffd5b5060043610610204575f3560e01c80638f011a2811610118578063c21ebd07116100ab578063e9a997e51161007a578063e9a997e51461060a578063f01fe7c414610628578063f2fde38b14610644578063fcb1138d14610660578063ffb54a991461067e57610204565b8063c21ebd0714610580578063c54e44eb1461059e578063c7fb372f146105bc578063dd62ed3e146105da57610204565b8063a7cd52cb116100e7578063a7cd52cb146104d2578063a9059cbb14610502578063b8c9d25c14610532578063c1d960ae1461055057610204565b80638f011a281461045c57806395d89b41146104785780639d1b464a146104965780639dc41984146104b457610204565b80632d3e474a1161019b57806360d1d4a41161016a57806360d1d4a4146103b657806370a08231146103e6578063715018a61461041657806386f0f61b146104205780638da5cb5b1461043e57610204565b80632d3e474a1461032c578063313ce5671461034a578063521eb273146103685780635c1952171461038657610204565b80630c355b47116101d75780630c355b47146102a457806318160ddd146102c257806321c03a97146102e057806323b872dd146102fc57610204565b806303fd2a451461020857806306fdde0314610226578063088878b514610244578063095ea7b314610274575b5f5ffd5b61021061069c565b60405161021d91906125f6565b60405180910390f35b61022e6106a2565b60405161023b919061267f565b60405180910390f35b61025e600480360381019061025991906126da565b610732565b60405161026b919061271d565b60405180910390f35b61028e60048036038101906102899190612760565b6107b4565b60405161029b91906127b8565b60405180910390f35b6102ac6107d6565b6040516102b9919061271d565b60405180910390f35b6102ca6107db565b6040516102d7919061271d565b60405180910390f35b6102fa60048036038101906102f591906127fb565b6107e4565b005b61031660048036038101906103119190612826565b610809565b60405161032391906127b8565b60405180910390f35b610334610837565b60405161034191906125f6565b60405180910390f35b61035261085c565b60405161035f9190612891565b60405180910390f35b610370610864565b60405161037d91906125f6565b60405180910390f35b6103a0600480360381019061039b91906128aa565b610889565b6040516103ad919061271d565b60405180910390f35b6103d060048036038101906103cb91906126da565b610a4e565b6040516103dd919061271d565b60405180910390f35b61040060048036038101906103fb91906126da565b610a63565b60405161040d919061271d565b60405180910390f35b61041e610aa8565b005b610428610abb565b604051610435919061271d565b60405180910390f35b610446610ac0565b60405161045391906125f6565b60405180910390f35b610476600480360381019061047191906126da565b610ae8565b005b610480610b33565b60405161048d919061267f565b60405180910390f35b61049e610bc3565b6040516104ab919061271d565b60405180910390f35b6104bc610d89565b6040516104c9919061271d565b60405180910390f35b6104ec60048036038101906104e791906126da565b610d8e565b6040516104f991906127b8565b60405180910390f35b61051c60048036038101906105179190612760565b610dab565b60405161052991906127b8565b60405180910390f35b61053a610dcd565b60405161054791906125f6565b60405180910390f35b61056a60048036038101906105659190612760565b610df2565b604051610577919061271d565b60405180910390f35b610588610ead565b6040516105959190612930565b60405180910390f35b6105a6610ed2565b6040516105b391906125f6565b60405180910390f35b6105c4610eea565b6040516105d191906125f6565b60405180910390f35b6105f460048036038101906105ef9190612949565b610f0f565b604051610601919061271d565b60405180910390f35b610612610f91565b60405161061f919061271d565b60405180910390f35b610642600480360381019061063d9190612ac7565b610f96565b005b61065e600480360381019061065991906126da565b61102c565b005b6106686110b0565b604051610675919061271d565b60405180910390f35b6106866110b5565b60405161069391906127b8565b60405180910390f35b61dead81565b6060600380546106b190612b4e565b80601f01602080910402602001604051908101604052809291908181526020018280546106dd90612b4e565b80156107285780601f106106ff57610100808354040283529160200191610728565b820191905f5260205f20905b81548152906001019060200180831161070b57829003601f168201915b5050505050905090565b5f5f61073d83610a63565b90505f810361074f575f9150506107af565b80670de0b6b3a7640000600c5f8673ffffffffffffffffffffffffffffffffffffffff1673ffffffffffffffffffffffffffffffffffffffff1681526020019081526020015f20546107a19190612bab565b6107ab9190612c19565b9150505b919050565b5f5f6107be6110c8565b90506107cb8185856110cf565b600191505092915050565b600a81565b5f600254905090565b6107ec6110e1565b80600a60156101000a81548160ff02191690831515021790555050565b5f5f6108136110c8565b9050610820858285611168565b61082b8585856111fb565b60019150509392505050565b60085f9054906101000a900473ffffffffffffffffffffffffffffffffffffffff1681565b5f6012905090565b600a5f9054906101000a900473ffffffffffffffffffffffffffffffffffffffff1681565b5f5f600267ffffffffffffffff8111156108a6576108a561298b565b5b6040519080825280602002602001820160405280156108d45781602001602082028036833780820191505090505b50905030815f815181106108eb576108ea612c49565b5b602002602001019073ffffffffffffffffffffffffffffffffffffffff16908173ffffffffffffffffffffffffffffffffffffffff1681525050733c83065b83a8fd66587f330845f4603f7c49275c8160018151811061094e5761094d612c49565b5b602002602001019073ffffffffffffffffffffffffffffffffffffffff16908173ffffffffffffffffffffffffffffffffffffffff16815250505f60065f9054906101000a900473ffffffffffffffffffffffffffffffffffffffff1673ffffffffffffffffffffffffffffffffffffffff1663d06ca61f85846040518363ffffffff1660e01b81526004016109e5929190612d2d565b5f60405180830381865afa1580156109ff573d5f5f3e3d5ffd5b505050506040513d5f823e3d601f19601f82011682018060405250810190610a279190612e2f565b905080600181518110610a3d57610a3c612c49565b5b602002602001015192505050919050565b600c602052805f5260405f205f915090505481565b5f5f5f8373ffffffffffffffffffffffffffffffffffffffff1673ffffffffffffffffffffffffffffffffffffffff1681526020019081526020015f20549050919050565b610ab06110e1565b610ab95f6112eb565b565b600281565b5f60055f9054906101000a900473ffffffffffffffffffffffffffffffffffffffff16905090565b610af06110e1565b8060095f6101000a81548173ffffffffffffffffffffffffffffffffffffffff021916908373ffffffffffffffffffffffffffffffffffffffff16021790555050565b606060048054610b4290612b4e565b80601f0160208091040260200160405190810160405280929190818152602001828054610b6e90612b4e565b8015610bb95780601f10610b9057610100808354040283529160200191610bb9565b820191905f5260205f20905b815481529060010190602001808311610b9c57829003601f168201915b5050505050905090565b5f5f600267ffffffffffffffff811115610be057610bdf61298b565b5b604051908082528060200260200182016040528015610c0e5781602001602082028036833780820191505090505b50905030815f81518110610c2557610c24612c49565b5b602002602001019073ffffffffffffffffffffffffffffffffffffffff16908173ffffffffffffffffffffffffffffffffffffffff1681525050733c83065b83a8fd66587f330845f4603f7c49275c81600181518110610c8857610c87612c49565b5b602002602001019073ffffffffffffffffffffffffffffffffffffffff16908173ffffffffffffffffffffffffffffffffffffffff168152505060065f9054906101000a900473ffffffffffffffffffffffffffffffffffffffff1673ffffffffffffffffffffffffffffffffffffffff1663d06ca61f670de0b6b3a7640000836040518363ffffffff1660e01b8152600401610d26929190612eaf565b5f60405180830381865afa158015610d40573d5f5f3e3d5ffd5b505050506040513d5f823e3d601f19601f82011682018060405250810190610d689190612e2f565b600181518110610d7b57610d7a612c49565b5b602002602001015191505090565b601481565b600b602052805f5260405f205f915054906101000a900460ff1681565b5f5f610db56110c8565b9050610dc28185856111fb565b600191505092915050565b60075f9054906101000a900473ffffffffffffffffffffffffffffffffffffffff1681565b5f5f8203610e02575f9050610ea7565b5f610e0c84610732565b90505f8103610e1e575f915050610ea7565b5f610e27610bc3565b9050818111610e3a575f92505050610ea7565b5f6005600a6014610e4b9190612edd565b610e559190612edd565b90505f828484610e659190612f10565b87610e709190612bab565b610e7a9190612c19565b905060648282610e8a9190612bab565b610e949190612c19565b945085851115610ea2575f94505b505050505b92915050565b60065f9054906101000a900473ffffffffffffffffffffffffffffffffffffffff1681565b733c83065b83a8fd66587f330845f4603f7c49275c81565b60095f9054906101000a900473ffffffffffffffffffffffffffffffffffffffff1681565b5f60015f8473ffffffffffffffffffffffffffffffffffffffff1673ffffffffffffffffffffffffffffffffffffffff1681526020019081526020015f205f8373ffffffffffffffffffffffffffffffffffffffff1673ffffffffffffffffffffffffffffffffffffffff1681526020019081526020015f2054905092915050565b600381565b610f9e6110e1565b5f5f90505b82518110156110275781600b5f858481518110610fc357610fc2612c49565b5b602002602001015173ffffffffffffffffffffffffffffffffffffffff1673ffffffffffffffffffffffffffffffffffffffff1681526020019081526020015f205f6101000a81548160ff0219169083151502179055508080600101915050610fa3565b505050565b6110346110e1565b5f73ffffffffffffffffffffffffffffffffffffffff168173ffffffffffffffffffffffffffffffffffffffff16036110a4575f6040517f1e4fbdf700000000000000000000000000000000000000000000000000000000815260040161109b91906125f6565b60405180910390fd5b6110ad816112eb565b50565b600581565b600a60159054906101000a900460ff1681565b5f33905090565b6110dc83838360016113ae565b505050565b6110e96110c8565b73ffffffffffffffffffffffffffffffffffffffff16611107610ac0565b73ffffffffffffffffffffffffffffffffffffffff16146111665761112a6110c8565b6040517f118cdaa700000000000000000000000000000000000000000000000000000000815260040161115d91906125f6565b60405180910390fd5b565b5f6111738484610f0f565b90507fffffffffffffffffffffffffffffffffffffffffffffffffffffffffffffffff8110156111f557818110156111e6578281836040517ffb8f41b20000000000000000000000000000000000000000000000000000000081526004016111dd93929190612f43565b60405180910390fd5b6111f484848484035f6113ae565b5b50505050565b5f73ffffffffffffffffffffffffffffffffffffffff168373ffffffffffffffffffffffffffffffffffffffff160361126b575f6040517f96c6fd1e00000000000000000000000000000000000000000000000000000000815260040161126291906125f6565b60405180910390fd5b5f73ffffffffffffffffffffffffffffffffffffffff168273ffffffffffffffffffffffffffffffffffffffff16036112db575f6040517fec442f050000000000000000000000000000000000000000000000000000000081526004016112d291906125f6565b60405180910390fd5b6112e683838361157d565b505050565b5f60055f9054906101000a900473ffffffffffffffffffffffffffffffffffffffff1690508160055f6101000a81548173ffffffffffffffffffffffffffffffffffffffff021916908373ffffffffffffffffffffffffffffffffffffffff1602179055508173ffffffffffffffffffffffffffffffffffffffff168173ffffffffffffffffffffffffffffffffffffffff167f8be0079c531659141344cd1fd0a4f28419497f9722a3daafe3b4186f6b6457e060405160405180910390a35050565b5f73ffffffffffffffffffffffffffffffffffffffff168473ffffffffffffffffffffffffffffffffffffffff160361141e575f6040517fe602df0500000000000000000000000000000000000000000000000000000000815260040161141591906125f6565b60405180910390fd5b5f73ffffffffffffffffffffffffffffffffffffffff168373ffffffffffffffffffffffffffffffffffffffff160361148e575f6040517f94280d6200000000000000000000000000000000000000000000000000000000815260040161148591906125f6565b60405180910390fd5b8160015f8673ffffffffffffffffffffffffffffffffffffffff1673ffffffffffffffffffffffffffffffffffffffff1681526020019081526020015f205f8573ffffffffffffffffffffffffffffffffffffffff1673ffffffffffffffffffffffffffffffffffffffff1681526020019081526020015f20819055508015611577578273ffffffffffffffffffffffffffffffffffffffff168473ffffffffffffffffffffffffffffffffffffffff167f8c5be1e5ebec7d5bd14f71427d1e84f3dd0314c0f7b2291e5b200ac8c7c3b9258460405161156e919061271d565b60405180910390a35b50505050565b600a60149054906101000a900460ff16806115c357505f73ffffffffffffffffffffffffffffffffffffffff168373ffffffffffffffffffffffffffffffffffffffff16145b806115f957505f73ffffffffffffffffffffffffffffffffffffffff168273ffffffffffffffffffffffffffffffffffffffff16145b8061164a5750600b5f8473ffffffffffffffffffffffffffffffffffffffff1673ffffffffffffffffffffffffffffffffffffffff1681526020019081526020015f205f9054906101000a900460ff165b8061169b5750600b5f8373ffffffffffffffffffffffffffffffffffffffff1673ffffffffffffffffffffffffffffffffffffffff1681526020019081526020015f205f9054906101000a900460ff165b156116b0576116ab838383611961565b61195c565b5f60075f9054906101000a900473ffffffffffffffffffffffffffffffffffffffff1673ffffffffffffffffffffffffffffffffffffffff168473ffffffffffffffffffffffffffffffffffffffff161490505f60075f9054906101000a900473ffffffffffffffffffffffffffffffffffffffff1673ffffffffffffffffffffffffffffffffffffffff168473ffffffffffffffffffffffffffffffffffffffff16149050811561176e57611767858585611b7a565b505061195c565b80156117865761177f858585611c74565b505061195c565b5f61179030610a63565b90505f8111156117a4576117a381611f14565b5b5f6117ae87610a63565b90505f600c5f8973ffffffffffffffffffffffffffffffffffffffff1673ffffffffffffffffffffffffffffffffffffffff1681526020019081526020015f205490506117fc888888611961565b5f8111801561180a57505f82115b15611956575f82878361181d9190612bab565b6118279190612c19565b905080826118359190612f10565b600c5f8b73ffffffffffffffffffffffffffffffffffffffff1673ffffffffffffffffffffffffffffffffffffffff1681526020019081526020015f2081905550620f4240600c5f8b73ffffffffffffffffffffffffffffffffffffffff1673ffffffffffffffffffffffffffffffffffffffff1681526020019081526020015f20541015611901575f600c5f8b73ffffffffffffffffffffffffffffffffffffffff1673ffffffffffffffffffffffffffffffffffffffff1681526020019081526020015f20819055505b80600c5f8a73ffffffffffffffffffffffffffffffffffffffff1673ffffffffffffffffffffffffffffffffffffffff1681526020019081526020015f205f82825461194d9190612edd565b92505081905550505b50505050505b505050565b5f73ffffffffffffffffffffffffffffffffffffffff168373ffffffffffffffffffffffffffffffffffffffff16036119b1578060025f8282546119a59190612edd565b92505081905550611a7f565b5f5f5f8573ffffffffffffffffffffffffffffffffffffffff1673ffffffffffffffffffffffffffffffffffffffff1681526020019081526020015f2054905081811015611a3a578381836040517fe450d38c000000000000000000000000000000000000000000000000000000008152600401611a3193929190612f43565b60405180910390fd5b8181035f5f8673ffffffffffffffffffffffffffffffffffffffff1673ffffffffffffffffffffffffffffffffffffffff1681526020019081526020015f2081905550505b5f73ffffffffffffffffffffffffffffffffffffffff168273ffffffffffffffffffffffffffffffffffffffff1603611ac6578060025f8282540392505081905550611b10565b805f5f8473ffffffffffffffffffffffffffffffffffffffff1673ffffffffffffffffffffffffffffffffffffffff1681526020019081526020015f205f82825401925050819055505b8173ffffffffffffffffffffffffffffffffffffffff168373ffffffffffffffffffffffffffffffffffffffff167fddf252ad1be2c89b69c2b068fc378daa952ba7f163c4a11628f55a4df523b3ef83604051611b6d919061271d565b60405180910390a3505050565b600a60159054906101000a900460ff16611bc9576040517f08c379a0000000000000000000000000000000000000000000000000000000008152600401611bc090612fc2565b60405180910390fd5b5f6064600283611bd99190612bab565b611be39190612c19565b90505f6064600384611bf59190612bab565b611bff9190612c19565b90505f818385611c0f9190612f10565b611c199190612f10565b9050611c49856103e8601987611c2f9190612bab565b611c399190612c19565b86611c449190612edd565b612056565b611c54863084611961565b611c618661dead85611961565b611c6c868683611961565b505050505050565b600a60159054906101000a900460ff16611cc3576040517f08c379a0000000000000000000000000000000000000000000000000000000008152600401611cba90612fc2565b60405180910390fd5b5f611ccd84610a63565b90505f6064600284611cdf9190612bab565b611ce99190612c19565b90505f6064600385611cfb9190612bab565b611d059190612c19565b90505f818386611d159190612f10565b611d1f9190612f10565b90505f611d2c8883610df2565b90505f811115611d4b57611d41883083611961565b611d4a81612188565b5b611d56883085611961565b611d638861dead86611961565b611d7988888385611d749190612f10565b611961565b5f611d8389610a63565b90505f8103611dd3575f600c5f8b73ffffffffffffffffffffffffffffffffffffffff1673ffffffffffffffffffffffffffffffffffffffff1681526020019081526020015f2081905550611f09565b5f600c5f8b73ffffffffffffffffffffffffffffffffffffffff1673ffffffffffffffffffffffffffffffffffffffff1681526020019081526020015f205490505f878983611e229190612bab565b611e2c9190612c19565b90508082611e3a9190612f10565b600c5f8d73ffffffffffffffffffffffffffffffffffffffff1673ffffffffffffffffffffffffffffffffffffffff1681526020019081526020015f2081905550620f4240600c5f8d73ffffffffffffffffffffffffffffffffffffffff1673ffffffffffffffffffffffffffffffffffffffff1681526020019081526020015f20541015611f06575f600c5f8d73ffffffffffffffffffffffffffffffffffffffff1673ffffffffffffffffffffffffffffffffffffffff1681526020019081526020015f20819055505b50505b505050505050505050565b5f73ffffffffffffffffffffffffffffffffffffffff1660095f9054906101000a900473ffffffffffffffffffffffffffffffffffffffff1673ffffffffffffffffffffffffffffffffffffffff161461202757611f938160095f9054906101000a900473ffffffffffffffffffffffffffffffffffffffff16612375565b60095f9054906101000a900473ffffffffffffffffffffffffffffffffffffffff1673ffffffffffffffffffffffffffffffffffffffff1663cc430ced611fd983610889565b6040518263ffffffff1660e01b8152600401611ff5919061271d565b5f604051808303815f87803b15801561200c575f5ffd5b505af115801561201e573d5f5f3e3d5ffd5b50505050612053565b61205281600a5f9054906101000a900473ffffffffffffffffffffffffffffffffffffffff16612375565b5b50565b60065f9054906101000a900473ffffffffffffffffffffffffffffffffffffffff1673ffffffffffffffffffffffffffffffffffffffff168273ffffffffffffffffffffffffffffffffffffffff1614806120fd575060075f9054906101000a900473ffffffffffffffffffffffffffffffffffffffff1673ffffffffffffffffffffffffffffffffffffffff168273ffffffffffffffffffffffffffffffffffffffff16145b612184575f61210a610bc3565b90505f670de0b6b3a764000083836121229190612bab565b61212c9190612c19565b905080600c5f8673ffffffffffffffffffffffffffffffffffffffff1673ffffffffffffffffffffffffffffffffffffffff1681526020019081526020015f205f82825461217a9190612edd565b9250508190555050505b5050565b5f60646039836121989190612bab565b6121a29190612c19565b90505f6064601c846121b49190612bab565b6121be9190612c19565b90505f8183856121ce9190612f10565b6121d89190612f10565b90506122058360085f9054906101000a900473ffffffffffffffffffffffffffffffffffffffff16612375565b61223082600a5f9054906101000a900473ffffffffffffffffffffffffffffffffffffffff16612375565b5f73ffffffffffffffffffffffffffffffffffffffff1660095f9054906101000a900473ffffffffffffffffffffffffffffffffffffffff1673ffffffffffffffffffffffffffffffffffffffff1614612343576122af8160095f9054906101000a900473ffffffffffffffffffffffffffffffffffffffff16612375565b60095f9054906101000a900473ffffffffffffffffffffffffffffffffffffffff1673ffffffffffffffffffffffffffffffffffffffff1663cc430ced6122f583610889565b6040518263ffffffff1660e01b8152600401612311919061271d565b5f604051808303815f87803b158015612328575f5ffd5b505af115801561233a573d5f5f3e3d5ffd5b5050505061236f565b61236e81600a5f9054906101000a900473ffffffffffffffffffffffffffffffffffffffff16612375565b5b50505050565b5f8203156125b3576001600a60146101000a81548160ff0219169083151502179055505f600267ffffffffffffffff8111156123b4576123b361298b565b5b6040519080825280602002602001820160405280156123e25781602001602082028036833780820191505090505b50905030815f815181106123f9576123f8612c49565b5b602002602001019073ffffffffffffffffffffffffffffffffffffffff16908173ffffffffffffffffffffffffffffffffffffffff1681525050733c83065b83a8fd66587f330845f4603f7c49275c8160018151811061245c5761245b612c49565b5b602002602001019073ffffffffffffffffffffffffffffffffffffffff16908173ffffffffffffffffffffffffffffffffffffffff16815250506124c23060065f9054906101000a900473ffffffffffffffffffffffffffffffffffffffff16856110cf565b60065f9054906101000a900473ffffffffffffffffffffffffffffffffffffffff1673ffffffffffffffffffffffffffffffffffffffff16635c11d795845f8486601e426125109190612edd565b6040518663ffffffff1660e01b8152600401612530959493929190613019565b5f604051808303815f87803b158015612547575f5ffd5b505af1925050508015612558575060015b15612597577faedb4dc54dc30d46d331ffcc44cd836607bea96c12e1b21a95210ed899184d04828460405161258e929190613071565b60405180910390a15b5f600a60146101000a81548160ff021916908315150217905550505b5050565b5f73ffffffffffffffffffffffffffffffffffffffff82169050919050565b5f6125e0826125b7565b9050919050565b6125f0816125d6565b82525050565b5f6020820190506126095f8301846125e7565b92915050565b5f81519050919050565b5f82825260208201905092915050565b8281835e5f83830152505050565b5f601f19601f8301169050919050565b5f6126518261260f565b61265b8185612619565b935061266b818560208601612629565b61267481612637565b840191505092915050565b5f6020820190508181035f8301526126978184612647565b905092915050565b5f604051905090565b5f5ffd5b5f5ffd5b6126b9816125d6565b81146126c3575f5ffd5b50565b5f813590506126d4816126b0565b92915050565b5f602082840312156126ef576126ee6126a8565b5b5f6126fc848285016126c6565b91505092915050565b5f819050919050565b61271781612705565b82525050565b5f6020820190506127305f83018461270e565b92915050565b61273f81612705565b8114612749575f5ffd5b50565b5f8135905061275a81612736565b92915050565b5f5f60408385031215612776576127756126a8565b5b5f612783858286016126c6565b92505060206127948582860161274c565b9150509250929050565b5f8115159050919050565b6127b28161279e565b82525050565b5f6020820190506127cb5f8301846127a9565b92915050565b6127da8161279e565b81146127e4575f5ffd5b50565b5f813590506127f5816127d1565b92915050565b5f602082840312156128105761280f6126a8565b5b5f61281d848285016127e7565b91505092915050565b5f5f5f6060848603121561283d5761283c6126a8565b5b5f61284a868287016126c6565b935050602061285b868287016126c6565b925050604061286c8682870161274c565b9150509250925092565b5f60ff82169050919050565b61288b81612876565b82525050565b5f6020820190506128a45f830184612882565b92915050565b5f602082840312156128bf576128be6126a8565b5b5f6128cc8482850161274c565b91505092915050565b5f819050919050565b5f6128f86128f36128ee846125b7565b6128d5565b6125b7565b9050919050565b5f612909826128de565b9050919050565b5f61291a826128ff565b9050919050565b61292a81612910565b82525050565b5f6020820190506129435f830184612921565b92915050565b5f5f6040838503121561295f5761295e6126a8565b5b5f61296c858286016126c6565b925050602061297d858286016126c6565b9150509250929050565b5f5ffd5b7f4e487b71000000000000000000000000000000000000000000000000000000005f52604160045260245ffd5b6129c182612637565b810181811067ffffffffffffffff821117156129e0576129df61298b565b5b80604052505050565b5f6129f261269f565b90506129fe82826129b8565b919050565b5f67ffffffffffffffff821115612a1d57612a1c61298b565b5b602082029050602081019050919050565b5f5ffd5b5f612a44612a3f84612a03565b6129e9565b90508083825260208201905060208402830185811115612a6757612a66612a2e565b5b835b81811015612a905780612a7c88826126c6565b845260208401935050602081019050612a69565b5050509392505050565b5f82601f830112612aae57612aad612987565b5b8135612abe848260208601612a32565b91505092915050565b5f5f60408385031215612add57612adc6126a8565b5b5f83013567ffffffffffffffff811115612afa57612af96126ac565b5b612b0685828601612a9a565b9250506020612b17858286016127e7565b9150509250929050565b7f4e487b71000000000000000000000000000000000000000000000000000000005f52602260045260245ffd5b5f6002820490506001821680612b6557607f821691505b602082108103612b7857612b77612b21565b5b50919050565b7f4e487b71000000000000000000000000000000000000000000000000000000005f52601160045260245ffd5b5f612bb582612705565b9150612bc083612705565b9250828202612bce81612705565b91508282048414831517612be557612be4612b7e565b5b5092915050565b7f4e487b71000000000000000000000000000000000000000000000000000000005f52601260045260245ffd5b5f612c2382612705565b9150612c2e83612705565b925082612c3e57612c3d612bec565b5b828204905092915050565b7f4e487b71000000000000000000000000000000000000000000000000000000005f52603260045260245ffd5b5f81519050919050565b5f82825260208201905092915050565b5f819050602082019050919050565b612ca8816125d6565b82525050565b5f612cb98383612c9f565b60208301905092915050565b5f602082019050919050565b5f612cdb82612c76565b612ce58185612c80565b9350612cf083612c90565b805f5b83811015612d20578151612d078882612cae565b9750612d1283612cc5565b925050600181019050612cf3565b5085935050505092915050565b5f604082019050612d405f83018561270e565b8181036020830152612d528184612cd1565b90509392505050565b5f67ffffffffffffffff821115612d7557612d7461298b565b5b602082029050602081019050919050565b5f81519050612d9481612736565b92915050565b5f612dac612da784612d5b565b6129e9565b90508083825260208201905060208402830185811115612dcf57612dce612a2e565b5b835b81811015612df85780612de48882612d86565b845260208401935050602081019050612dd1565b5050509392505050565b5f82601f830112612e1657612e15612987565b5b8151612e26848260208601612d9a565b91505092915050565b5f60208284031215612e4457612e436126a8565b5b5f82015167ffffffffffffffff811115612e6157612e606126ac565b5b612e6d84828501612e02565b91505092915050565b5f819050919050565b5f612e99612e94612e8f84612e76565b6128d5565b612705565b9050919050565b612ea981612e7f565b82525050565b5f604082019050612ec25f830185612ea0565b8181036020830152612ed48184612cd1565b90509392505050565b5f612ee782612705565b9150612ef283612705565b9250828201905080821115612f0a57612f09612b7e565b5b92915050565b5f612f1a82612705565b9150612f2583612705565b9250828203905081811115612f3d57612f3c612b7e565b5b92915050565b5f606082019050612f565f8301866125e7565b612f63602083018561270e565b612f70604083018461270e565b949350505050565b7f4255595f414e445f53454c4c5f495344495341424c45442e00000000000000005f82015250565b5f612fac601883612619565b9150612fb782612f78565b602082019050919050565b5f6020820190508181035f830152612fd981612fa0565b9050919050565b5f819050919050565b5f613003612ffe612ff984612fe0565b6128d5565b612705565b9050919050565b61301381612fe9565b82525050565b5f60a08201905061302c5f83018861270e565b613039602083018761300a565b818103604083015261304b8186612cd1565b905061305a60608301856125e7565b613067608083018461270e565b9695505050505050565b5f6040820190506130845f8301856125e7565b613091602083018461270e565b939250505056fea2646970667358221220507fe7802a25282ea0c664105b220f255380fa883ddd1e59cf19d6f673e0f08664736f6c634300081e0033","linkReferences":{}},"methodIdentifiers":{"DEAD()":"03fd2a45","PROFIT_MARKET_TAX_RATE()":"9dc41984","PROFIT_NODE_TAX_RATE()":"0c355b47","PROFIT_WALLET_TAX_RATE()":"fcb1138d","SWAP_DEAD_FEE_RATE()":"86f0f61b","SWAP_NODE_FEE_RATE()":"e9a997e5","USDT()":"c54e44eb","allowance(address,address)":"dd62ed3e","allowlist(address)":"a7cd52cb","approve(address,uint256)":"095ea7b3","averagePriceOf(address)":"088878b5","balanceOf(address)":"70a08231","currentPrice()":"9d1b464a","decimals()":"313ce567","getAmountOut(uint256)":"5c195217","getProfitTaxToken(address,uint256)":"c1d960ae","marketing()":"2d3e474a","name()":"06fdde03","nodeDividends()":"c7fb372f","owner()":"8da5cb5b","pancakePair()":"b8c9d25c","pancakeRouter()":"c21ebd07","renounceOwnership()":"715018a6","setAllowlist(address[],bool)":"f01fe7c4","setNodeDividends(address)":"8f011a28","setTradingOpen(bool)":"21c03a97","symbol()":"95d89b41","totalCostUsdt(address)":"60d1d4a4","totalSupply()":"18160ddd","tradingOpen()":"ffb54a99","transfer(address,uint256)":"a9059cbb","transferFrom(address,address,uint256)":"23b872dd","transferOwnership(address)":"f2fde38b","wallet()":"521eb273"},"id":48}