{"abi":[{"type":"receive","stateMutability":"payable"},{"type":"function","name":"UPGRADE_INTERFACE_VERSION","inputs":[],"outputs":[{"name":"","type":"string","internalType":"string"}],"stateMutability":"view"},{"type":"function","name":"USDT","inputs":[],"outputs":[{"name":"","type":"address","internalType":"address"}],"stateMutability":"view"},{"type":"function","name":"WBNB","inputs":[],"outputs":[{"name":"","type":"address","internalType":"address"}],"stateMutability":"view"},{"type":"function","name":"addLiquidity","inputs":[{"name":"token0","type":"address","internalType":"address"},{"name":"token1","type":"address","internalType":"address"},{"name":"amount0","type":"uint256","internalType":"uint256"},{"name":"remark","type":"string","internalType":"string"}],"outputs":[],"stateMutability":"nonpayable"},{"type":"function","name":"admin","inputs":[],"outputs":[{"name":"","type":"address","internalType":"address"}],"stateMutability":"view"},{"type":"function","name":"changeRecipient","inputs":[{"name":"_newRecipient","type":"address","internalType":"address"}],"outputs":[],"stateMutability":"nonpayable"},{"type":"function","name":"changeSender","inputs":[{"name":"_newSender","type":"address","internalType":"address"}],"outputs":[],"stateMutability":"nonpayable"},{"type":"function","name":"getAllowance","inputs":[{"name":"token","type":"address","internalType":"address"},{"name":"owner","type":"address","internalType":"address"}],"outputs":[{"name":"","type":"uint256","internalType":"uint256"}],"stateMutability":"view"},{"type":"function","name":"getPrice","inputs":[{"name":"token","type":"address","internalType":"address"}],"outputs":[{"name":"","type":"address","internalType":"address"},{"name":"","type":"uint256","internalType":"uint256"}],"stateMutability":"view"},{"type":"function","name":"getQuoteAmount","inputs":[{"name":"token0","type":"address","internalType":"address"},{"name":"token1","type":"address","internalType":"address"},{"name":"amount0","type":"uint256","internalType":"uint256"}],"outputs":[{"name":"","type":"uint256","internalType":"uint256"}],"stateMutability":"view"},{"type":"function","name":"initialize","inputs":[{"name":"_router","type":"address","internalType":"address"},{"name":"_admin","type":"address","internalType":"address"},{"name":"_recipient","type":"address","internalType":"address"},{"name":"_sender","type":"address","internalType":"address"}],"outputs":[],"stateMutability":"nonpayable"},{"type":"function","name":"multiBalanceOf","inputs":[{"name":"token","type":"address","internalType":"address"},{"name":"users","type":"address[]","internalType":"address[]"}],"outputs":[{"name":"","type":"tuple[]","internalType":"struct Recharge.Info[]","components":[{"name":"user","type":"address","internalType":"address"},{"name":"amount","type":"uint256","internalType":"uint256"}]}],"stateMutability":"view"},{"type":"function","name":"multiRecharge","inputs":[{"name":"token0","type":"address","internalType":"address"},{"name":"token1","type":"address","internalType":"address"},{"name":"amount0","type":"uint256","internalType":"uint256"},{"name":"amount1","type":"uint256","internalType":"uint256"},{"name":"remark","type":"string","internalType":"string"}],"outputs":[],"stateMutability":"nonpayable"},{"type":"function","name":"owner","inputs":[],"outputs":[{"name":"","type":"address","internalType":"address"}],"stateMutability":"view"},{"type":"function","name":"proxiableUUID","inputs":[],"outputs":[{"name":"","type":"bytes32","internalType":"bytes32"}],"stateMutability":"view"},{"type":"function","name":"recipient","inputs":[],"outputs":[{"name":"","type":"address","internalType":"address"}],"stateMutability":"view"},{"type":"function","name":"removeLiquidity","inputs":[{"name":"token0","type":"address","internalType":"address"},{"name":"token1","type":"address","internalType":"address"},{"name":"amount","type":"uint256","internalType":"uint256"},{"name":"to","type":"address","internalType":"address"},{"name":"remark","type":"string","internalType":"string"}],"outputs":[],"stateMutability":"nonpayable"},{"type":"function","name":"renounceOwnership","inputs":[],"outputs":[],"stateMutability":"nonpayable"},{"type":"function","name":"sender","inputs":[],"outputs":[{"name":"","type":"address","internalType":"address"}],"stateMutability":"view"},{"type":"function","name":"setAllocation","inputs":[{"name":"token","type":"address","internalType":"address"},{"name":"recipients","type":"address[]","internalType":"address[]"},{"name":"rates","type":"uint256[]","internalType":"uint256[]"}],"outputs":[],"stateMutability":"nonpayable"},{"type":"function","name":"swapExactIn","inputs":[{"name":"fromToken","type":"address","internalType":"address"},{"name":"targetToken","type":"address","internalType":"address"},{"name":"fromAmount","type":"uint256","internalType":"uint256"},{"name":"from","type":"address","internalType":"address"},{"name":"to","type":"address","internalType":"address"},{"name":"remark","type":"string","internalType":"string"}],"outputs":[],"stateMutability":"nonpayable"},{"type":"function","name":"transferOwnership","inputs":[{"name":"newOwner","type":"address","internalType":"address"}],"outputs":[],"stateMutability":"nonpayable"},{"type":"function","name":"uniswapV2Router","inputs":[],"outputs":[{"name":"","type":"address","internalType":"address"}],"stateMutability":"view"},{"type":"function","name":"uniswapV2factory","inputs":[],"outputs":[{"name":"","type":"address","internalType":"address"}],"stateMutability":"view"},{"type":"function","name":"upgradeToAndCall","inputs":[{"name":"newImplementation","type":"address","internalType":"address"},{"name":"data","type":"bytes","internalType":"bytes"}],"outputs":[],"stateMutability":"payable"},{"type":"function","name":"withdraw","inputs":[{"name":"remark","type":"string","internalType":"string"},{"name":"token","type":"address","internalType":"address"},{"name":"amount","type":"uint256","internalType":"uint256"},{"name":"to","type":"address","internalType":"address"}],"outputs":[],"stateMutability":"nonpayable"},{"type":"event","name":"Exchange","inputs":[{"name":"remark","type":"string","indexed":false,"internalType":"string"},{"name":"original","type":"address","indexed":false,"internalType":"address"},{"name":"amount","type":"uint256","indexed":false,"internalType":"uint256"},{"name":"target","type":"address","indexed":false,"internalType":"address"},{"name":"from","type":"address","indexed":false,"internalType":"address"},{"name":"to","type":"address","indexed":false,"internalType":"address"}],"anonymous":false},{"type":"event","name":"Initialized","inputs":[{"name":"version","type":"uint64","indexed":false,"internalType":"uint64"}],"anonymous":false},{"type":"event","name":"Liquidity","inputs":[{"name":"remark","type":"string","indexed":false,"internalType":"string"},{"name":"user","type":"address","indexed":false,"internalType":"address"},{"name":"token0","type":"address","indexed":false,"internalType":"address"},{"name":"amount0","type":"uint256","indexed":false,"internalType":"uint256"},{"name":"token1","type":"address","indexed":false,"internalType":"address"},{"name":"amount1","type":"uint256","indexed":false,"internalType":"uint256"},{"name":"pair","type":"address","indexed":false,"internalType":"address"},{"name":"liquidity","type":"uint256","indexed":false,"internalType":"uint256"},{"name":"mark","type":"uint8","indexed":false,"internalType":"enum Recharge.Mark"}],"anonymous":false},{"type":"event","name":"MultiRecharge","inputs":[{"name":"remark","type":"string","indexed":false,"internalType":"string"},{"name":"user","type":"address","indexed":false,"internalType":"address"},{"name":"token0","type":"address","indexed":false,"internalType":"address"},{"name":"amount0","type":"uint256","indexed":false,"internalType":"uint256"},{"name":"token1","type":"address","indexed":false,"internalType":"address"},{"name":"amount1","type":"uint256","indexed":false,"internalType":"uint256"}],"anonymous":false},{"type":"event","name":"OwnershipTransferred","inputs":[{"name":"previousOwner","type":"address","indexed":true,"internalType":"address"},{"name":"newOwner","type":"address","indexed":true,"internalType":"address"}],"anonymous":false},{"type":"event","name":"Upgraded","inputs":[{"name":"implementation","type":"address","indexed":true,"internalType":"address"}],"anonymous":false},{"type":"event","name":"Withdraw","inputs":[{"name":"remark","type":"string","indexed":false,"internalType":"string"},{"name":"token","type":"address","indexed":false,"internalType":"address"},{"name":"to","type":"address","indexed":false,"internalType":"address"},{"name":"amount","type":"uint256","indexed":false,"internalType":"uint256"}],"anonymous":false},{"type":"error","name":"AddressEmptyCode","inputs":[{"name":"target","type":"address","internalType":"address"}]},{"type":"error","name":"ERC1967InvalidImplementation","inputs":[{"name":"implementation","type":"address","internalType":"address"}]},{"type":"error","name":"ERC1967NonPayable","inputs":[]},{"type":"error","name":"FailedCall","inputs":[]},{"type":"error","name":"InvalidInitialization","inputs":[]},{"type":"error","name":"NotInitializing","inputs":[]},{"type":"error","name":"OwnableInvalidOwner","inputs":[{"name":"owner","type":"address","internalType":"address"}]},{"type":"error","name":"OwnableUnauthorizedAccount","inputs":[{"name":"account","type":"address","internalType":"address"}]},{"type":"error","name":"ReentrancyGuardReentrantCall","inputs":[]},{"type":"error","name":"UUPSUnauthorizedCallContext","inputs":[]},{"type":"error","name":"UUPSUnsupportedProxiableUUID","inputs":[{"name":"slot","type":"bytes32","internalType":"bytes32"}]}],"bytecode":{"object":"0x60a06040523073ffffffffffffffffffffffffffffffffffffffff1660809073ffffffffffffffffffffffffffffffffffffffff1681525034801561004357600080fd5b506001600081905550608051615c446200007660003960008181612af901528181612b4e0152612d090152615c446000f3fe6080604052600436106101855760003560e01c80638da5cb5b116100d1578063b68cdb311161008a578063d9105f6311610064578063d9105f6314610594578063f2fde38b146105bd578063f851a440146105e6578063f8c8765e14610611576101c5565b8063b68cdb3114610503578063c474603d14610540578063c54e44eb14610569576101c5565b80638da5cb5b146103f35780638dd950021461041e57806392c2bcb4146104495780639f166cf114610472578063ad3cb1cc146104af578063b280a7e7146104da576101c5565b806362a338111161013e57806370fe251b1161011857806370fe251b1461035f578063715018a61461038a57806371862276146103a1578063762cdf81146103ca576101c5565b806362a33811146102e057806366d003ac1461030957806367e404ce14610334576101c5565b806307e312a4146101ca5780630af4187d146101f35780631694505e1461023057806341976e091461025b5780634f1ef2861461029957806352d1902d146102b5576101c5565b366101c5576040517f08c379a00000000000000000000000000000000000000000000000000000000081526004016101bc90613e0f565b60405180910390fd5b600080fd5b3480156101d657600080fd5b506101f160048036038101906101ec9190613f5c565b61063a565b005b3480156101ff57600080fd5b5061021a60048036038101906102159190613ff1565b610a0e565b604051610227919061404a565b60405180910390f35b34801561023c57600080fd5b50610245610a94565b6040516102529190614074565b60405180910390f35b34801561026757600080fd5b50610282600480360381019061027d919061408f565b610aba565b6040516102909291906140bc565b60405180910390f35b6102b360048036038101906102ae9190614226565b61109c565b005b3480156102c157600080fd5b506102ca6110bb565b6040516102d7919061429b565b60405180910390f35b3480156102ec57600080fd5b5061030760048036038101906103029190614383565b6110ee565b005b34801561031557600080fd5b5061031e611276565b60405161032b9190614074565b60405180910390f35b34801561034057600080fd5b5061034961129c565b6040516103569190614074565b60405180910390f35b34801561036b57600080fd5b506103746112c2565b6040516103819190614074565b60405180910390f35b34801561039657600080fd5b5061039f6112e8565b005b3480156103ad57600080fd5b506103c860048036038101906103c3919061445c565b6112fc565b005b3480156103d657600080fd5b506103f160048036038101906103ec91906144f6565b61137f565b005b3480156103ff57600080fd5b50610408611860565b6040516104159190614074565b60405180910390f35b34801561042a57600080fd5b50610433611898565b6040516104409190614074565b60405180910390f35b34801561045557600080fd5b50610470600480360381019061046b919061408f565b6118b0565b005b34801561047e57600080fd5b50610499600480360381019061049491906145a5565b6119f3565b6040516104a69190614701565b60405180910390f35b3480156104bb57600080fd5b506104c4611c91565b6040516104d19190614791565b60405180910390f35b3480156104e657600080fd5b5061050160048036038101906104fc919061408f565b611cca565b005b34801561050f57600080fd5b5061052a600480360381019061052591906147b3565b611e0d565b604051610537919061404a565b60405180910390f35b34801561054c57600080fd5b5061056760048036038101906105629190614806565b61221b565b005b34801561057557600080fd5b5061057e612317565b60405161058b9190614074565b60405180910390f35b3480156105a057600080fd5b506105bb60048036038101906105b691906148a0565b61232f565b005b3480156105c957600080fd5b506105e460048036038101906105df919061408f565b6126dd565b005b3480156105f257600080fd5b506105fb612763565b6040516106089190614074565b60405180910390f35b34801561061d57600080fd5b5061063860048036038101906106339190614928565b612789565b005b3373ffffffffffffffffffffffffffffffffffffffff16600460009054906101000a900473ffffffffffffffffffffffffffffffffffffffff1673ffffffffffffffffffffffffffffffffffffffff16146106ca576040517f08c379a00000000000000000000000000000000000000000000000000000000081526004016106c1906149db565b60405180910390fd5b818190508484905014610712576040517f08c379a000000000000000000000000000000000000000000000000000000000815260040161070990614a47565b60405180910390fd5b600160008673ffffffffffffffffffffffffffffffffffffffff1673ffffffffffffffffffffffffffffffffffffffff168152602001908152602001600020600080820160006107629190613d23565b6001820160006107729190613d44565b50506000600160008773ffffffffffffffffffffffffffffffffffffffff1673ffffffffffffffffffffffffffffffffffffffff1681526020019081526020016000209050600080600090505b868690508110156109c057600073ffffffffffffffffffffffffffffffffffffffff168787838181106107f5576107f4614a67565b5b905060200201602081019061080a919061408f565b73ffffffffffffffffffffffffffffffffffffffff1603610860576040517f08c379a000000000000000000000000000000000000000000000000000000000815260040161085790614ae2565b60405180910390fd5b600085858381811061087557610874614a67565b5b90506020020135116108bc576040517f08c379a00000000000000000000000000000000000000000000000000000000081526004016108b390614b4e565b60405180910390fd5b826000018787838181106108d3576108d2614a67565b5b90506020020160208101906108e8919061408f565b9080600181540180825580915050600190039060005260206000200160009091909190916101000a81548173ffffffffffffffffffffffffffffffffffffffff021916908373ffffffffffffffffffffffffffffffffffffffff1602179055508260010185858381811061095f5761095e614a67565b5b90506020020135908060018154018082558091505060019003906000526020600020016000909190919091505584848281811061099f5761099e614a67565b5b90506020020135826109b19190614b9d565b915080806001019150506107bf565b506103e88114610a05576040517f08c379a00000000000000000000000000000000000000000000000000000000081526004016109fc90614c1d565b60405180910390fd5b50505050505050565b60008273ffffffffffffffffffffffffffffffffffffffff1663dd62ed3e83306040518363ffffffff1660e01b8152600401610a4b929190614c3d565b602060405180830381865afa158015610a68573d6000803e3d6000fd5b505050506040513d601f19601f82011682018060405250810190610a8c9190614c7b565b905092915050565b600260009054906101000a900473ffffffffffffffffffffffffffffffffffffffff1681565b6000806000600360009054906101000a900473ffffffffffffffffffffffffffffffffffffffff1673ffffffffffffffffffffffffffffffffffffffff1663e6a439058573e901e30661dd4fd238c4bfe44b000058561a7b0e6040518363ffffffff1660e01b8152600401610b30929190614c3d565b602060405180830381865afa158015610b4d573d6000803e3d6000fd5b505050506040513d601f19601f82011682018060405250810190610b719190614cbd565b90506000600360009054906101000a900473ffffffffffffffffffffffffffffffffffffffff1673ffffffffffffffffffffffffffffffffffffffff1663e6a4390586733ea660cdc7b7ccc9f81c955f1f2412dceb8518a56040518363ffffffff1660e01b8152600401610be6929190614c3d565b602060405180830381865afa158015610c03573d6000803e3d6000fd5b505050506040513d601f19601f82011682018060405250810190610c279190614cbd565b90506000670de0b6b3a7640000905060008073ffffffffffffffffffffffffffffffffffffffff168373ffffffffffffffffffffffffffffffffffffffff1614610e61576000600267ffffffffffffffff811115610c8857610c876140fb565b5b604051908082528060200260200182016040528015610cb65781602001602082028036833780820191505090505b5090508781600081518110610cce57610ccd614a67565b5b602002602001019073ffffffffffffffffffffffffffffffffffffffff16908173ffffffffffffffffffffffffffffffffffffffff1681525050733ea660cdc7b7ccc9f81c955f1f2412dceb8518a581600181518110610d3157610d30614a67565b5b602002602001019073ffffffffffffffffffffffffffffffffffffffff16908173ffffffffffffffffffffffffffffffffffffffff16815250506000600260009054906101000a900473ffffffffffffffffffffffffffffffffffffffff1673ffffffffffffffffffffffffffffffffffffffff1663d06ca61f85846040518363ffffffff1660e01b8152600401610dca929190614d99565b600060405180830381865afa158015610de7573d6000803e3d6000fd5b505050506040513d6000823e3d601f19601f82011682018060405250810190610e109190614e8c565b90508060018251610e219190614ed5565b81518110610e3257610e31614a67565b5b60200260200101519250733ea660cdc7b7ccc9f81c955f1f2412dceb8518a58397509750505050505050611097565b600073ffffffffffffffffffffffffffffffffffffffff168473ffffffffffffffffffffffffffffffffffffffff161461108b576000600267ffffffffffffffff811115610eb257610eb16140fb565b5b604051908082528060200260200182016040528015610ee05781602001602082028036833780820191505090505b5090508781600081518110610ef857610ef7614a67565b5b602002602001019073ffffffffffffffffffffffffffffffffffffffff16908173ffffffffffffffffffffffffffffffffffffffff168152505073e901e30661dd4fd238c4bfe44b000058561a7b0e81600181518110610f5b57610f5a614a67565b5b602002602001019073ffffffffffffffffffffffffffffffffffffffff16908173ffffffffffffffffffffffffffffffffffffffff16815250506000600260009054906101000a900473ffffffffffffffffffffffffffffffffffffffff1673ffffffffffffffffffffffffffffffffffffffff1663d06ca61f85846040518363ffffffff1660e01b8152600401610ff4929190614d99565b600060405180830381865afa158015611011573d6000803e3d6000fd5b505050506040513d6000823e3d601f19601f8201168201806040525081019061103a9190614e8c565b9050806001825161104b9190614ed5565b8151811061105c5761105b614a67565b5b6020026020010151925073e901e30661dd4fd238c4bfe44b000058561a7b0e8397509750505050505050611097565b60008095509550505050505b915091565b6110a4612af7565b6110ad82612bdd565b6110b78282612be8565b5050565b60006110c5612d07565b7f360894a13ba1a3210667c828492db98dca3e2076cc3735a920a3ca505d382bbc60001b905090565b3373ffffffffffffffffffffffffffffffffffffffff16600460009054906101000a900473ffffffffffffffffffffffffffffffffffffffff1673ffffffffffffffffffffffffffffffffffffffff161461117e576040517f08c379a0000000000000000000000000000000000000000000000000000000008152600401611175906149db565b60405180910390fd5b600082116111c1576040517f08c379a00000000000000000000000000000000000000000000000000000000081526004016111b890614f55565b60405180910390fd5b600073ffffffffffffffffffffffffffffffffffffffff168373ffffffffffffffffffffffffffffffffffffffff16146112285761122383600660009054906101000a900473ffffffffffffffffffffffffffffffffffffffff168385612d8e565b611233565b6112328183612ec7565b5b7f99310eed5bb161586b62449f89ccaa4580f85f953cd64218092edfc2b1f5fce7848483856040516112689493929190614f75565b60405180910390a150505050565b600560009054906101000a900473ffffffffffffffffffffffffffffffffffffffff1681565b600660009054906101000a900473ffffffffffffffffffffffffffffffffffffffff1681565b600360009054906101000a900473ffffffffffffffffffffffffffffffffffffffff1681565b6112f0612fc7565b6112fa600061304e565b565b611304613125565b600084111561131857611317868561316b565b5b600083111561132c5761132b858461316b565b5b7f876458ec83a99c29371392c3eda4a2efbec05609200abd173088243e3bb0b8e182823389888a896040516113679796959493929190614fee565b60405180910390a16113776132eb565b505050505050565b3373ffffffffffffffffffffffffffffffffffffffff16600460009054906101000a900473ffffffffffffffffffffffffffffffffffffffff1673ffffffffffffffffffffffffffffffffffffffff161461140f576040517f08c379a0000000000000000000000000000000000000000000000000000000008152600401611406906149db565b60405180910390fd5b6000600260009054906101000a900473ffffffffffffffffffffffffffffffffffffffff1673ffffffffffffffffffffffffffffffffffffffff1663c45a01556040518163ffffffff1660e01b8152600401602060405180830381865afa15801561147e573d6000803e3d6000fd5b505050506040513d601f19601f820116820180604052508101906114a29190614cbd565b905060008173ffffffffffffffffffffffffffffffffffffffff1663e6a439058a8a6040518363ffffffff1660e01b81526004016114e1929190614c3d565b602060405180830381865afa1580156114fe573d6000803e3d6000fd5b505050506040513d601f19601f820116820180604052508101906115229190614cbd565b9050600073ffffffffffffffffffffffffffffffffffffffff168173ffffffffffffffffffffffffffffffffffffffff1603611593576040517f08c379a000000000000000000000000000000000000000000000000000000000815260040161158a906150a4565b60405180910390fd5b60008173ffffffffffffffffffffffffffffffffffffffff166318160ddd6040518163ffffffff1660e01b8152600401602060405180830381865afa1580156115e0573d6000803e3d6000fd5b505050506040513d601f19601f820116820180604052508101906116049190614c7b565b905060008111611649576040517f08c379a000000000000000000000000000000000000000000000000000000000815260040161164090615110565b60405180910390fd5b6116558a88308b612d8e565b6116828a600260009054906101000a900473ffffffffffffffffffffffffffffffffffffffff168a6132f5565b6000600267ffffffffffffffff81111561169f5761169e6140fb565b5b6040519080825280602002602001820160405280156116cd5781602001602082028036833780820191505090505b5090508a816000815181106116e5576116e4614a67565b5b602002602001019073ffffffffffffffffffffffffffffffffffffffff16908173ffffffffffffffffffffffffffffffffffffffff1681525050898160018151811061173457611733614a67565b5b602002602001019073ffffffffffffffffffffffffffffffffffffffff16908173ffffffffffffffffffffffffffffffffffffffff1681525050600260009054906101000a900473ffffffffffffffffffffffffffffffffffffffff1673ffffffffffffffffffffffffffffffffffffffff16635c11d7958a6000848b601e426117be9190614b9d565b6040518663ffffffff1660e01b81526004016117de959493929190615175565b600060405180830381600087803b1580156117f857600080fd5b505af115801561180c573d6000803e3d6000fd5b505050507fb8d32d215e4cb191d4eab15881b20b08541e7696fca52eb4efe27e77011f738c86868d8c8e8d8d60405161184b97969594939291906151cf565b60405180910390a15050505050505050505050565b60008061186b61342b565b90508060000160009054906101000a900473ffffffffffffffffffffffffffffffffffffffff1691505090565b73e901e30661dd4fd238c4bfe44b000058561a7b0e81565b3373ffffffffffffffffffffffffffffffffffffffff16600460009054906101000a900473ffffffffffffffffffffffffffffffffffffffff1673ffffffffffffffffffffffffffffffffffffffff1614611940576040517f08c379a0000000000000000000000000000000000000000000000000000000008152600401611937906149db565b60405180910390fd5b600073ffffffffffffffffffffffffffffffffffffffff168173ffffffffffffffffffffffffffffffffffffffff16036119af576040517f08c379a00000000000000000000000000000000000000000000000000000000081526004016119a690615285565b60405180910390fd5b80600560006101000a81548173ffffffffffffffffffffffffffffffffffffffff021916908373ffffffffffffffffffffffffffffffffffffffff16021790555050565b6060600083839050905060008167ffffffffffffffff811115611a1957611a186140fb565b5b604051908082528060200260200182016040528015611a5257816020015b611a3f613d65565b815260200190600190039081611a375790505b509050600073ffffffffffffffffffffffffffffffffffffffff168673ffffffffffffffffffffffffffffffffffffffff1603611b555760005b82811015611b4f576040518060400160405280878784818110611ab257611ab1614a67565b5b9050602002016020810190611ac7919061408f565b73ffffffffffffffffffffffffffffffffffffffff168152602001878784818110611af557611af4614a67565b5b9050602002016020810190611b0a919061408f565b73ffffffffffffffffffffffffffffffffffffffff1631815250828281518110611b3757611b36614a67565b5b60200260200101819052508080600101915050611a8c565b50611c85565b600086905060005b83811015611c82576040518060400160405280888884818110611b8357611b82614a67565b5b9050602002016020810190611b98919061408f565b73ffffffffffffffffffffffffffffffffffffffff1681526020018373ffffffffffffffffffffffffffffffffffffffff166370a082318a8a86818110611be257611be1614a67565b5b9050602002016020810190611bf7919061408f565b6040518263ffffffff1660e01b8152600401611c139190614074565b602060405180830381865afa158015611c30573d6000803e3d6000fd5b505050506040513d601f19601f82011682018060405250810190611c549190614c7b565b815250838281518110611c6a57611c69614a67565b5b60200260200101819052508080600101915050611b5d565b50505b80925050509392505050565b6040518060400160405280600581526020017f352e302e3000000000000000000000000000000000000000000000000000000081525081565b3373ffffffffffffffffffffffffffffffffffffffff16600460009054906101000a900473ffffffffffffffffffffffffffffffffffffffff1673ffffffffffffffffffffffffffffffffffffffff1614611d5a576040517f08c379a0000000000000000000000000000000000000000000000000000000008152600401611d51906149db565b60405180910390fd5b600073ffffffffffffffffffffffffffffffffffffffff168173ffffffffffffffffffffffffffffffffffffffff1603611dc9576040517f08c379a0000000000000000000000000000000000000000000000000000000008152600401611dc090615285565b60405180910390fd5b80600660006101000a81548173ffffffffffffffffffffffffffffffffffffffff021916908373ffffffffffffffffffffffffffffffffffffffff16021790555050565b600080600260009054906101000a900473ffffffffffffffffffffffffffffffffffffffff1673ffffffffffffffffffffffffffffffffffffffff1663c45a01556040518163ffffffff1660e01b8152600401602060405180830381865afa158015611e7d573d6000803e3d6000fd5b505050506040513d601f19601f82011682018060405250810190611ea19190614cbd565b905060008173ffffffffffffffffffffffffffffffffffffffff1663e6a4390587876040518363ffffffff1660e01b8152600401611ee0929190614c3d565b602060405180830381865afa158015611efd573d6000803e3d6000fd5b505050506040513d601f19601f82011682018060405250810190611f219190614cbd565b9050600073ffffffffffffffffffffffffffffffffffffffff168173ffffffffffffffffffffffffffffffffffffffff1603611f6257600092505050612214565b6000808273ffffffffffffffffffffffffffffffffffffffff16630902f1ac6040518163ffffffff1660e01b8152600401606060405180830381865afa158015611fb0573d6000803e3d6000fd5b505050506040513d601f19601f82011682018060405250810190611fd49190615327565b50915091506000826dffffffffffffffffffffffffffff16148061200857506000816dffffffffffffffffffffffffffff16145b1561201a576000945050505050612214565b60008373ffffffffffffffffffffffffffffffffffffffff16630dfe16816040518163ffffffff1660e01b8152600401602060405180830381865afa158015612067573d6000803e3d6000fd5b505050506040513d601f19601f8201168201806040525081019061208b9190614cbd565b90508873ffffffffffffffffffffffffffffffffffffffff168173ffffffffffffffffffffffffffffffffffffffff160361216c57600260009054906101000a900473ffffffffffffffffffffffffffffffffffffffff1673ffffffffffffffffffffffffffffffffffffffff1663ad615dec8885856040518463ffffffff1660e01b815260040161211f939291906153ab565b602060405180830381865afa15801561213c573d6000803e3d6000fd5b505050506040513d601f19601f820116820180604052508101906121609190614c7b565b95505050505050612214565b600260009054906101000a900473ffffffffffffffffffffffffffffffffffffffff1673ffffffffffffffffffffffffffffffffffffffff1663ad615dec8884866040518463ffffffff1660e01b81526004016121cb939291906153ab565b602060405180830381865afa1580156121e8573d6000803e3d6000fd5b505050506040513d601f19601f8201168201806040525081019061220c9190614c7b565b955050505050505b9392505050565b3373ffffffffffffffffffffffffffffffffffffffff16600460009054906101000a900473ffffffffffffffffffffffffffffffffffffffff1673ffffffffffffffffffffffffffffffffffffffff16146122ab576040517f08c379a00000000000000000000000000000000000000000000000000000000081526004016122a2906149db565b60405180910390fd5b60008060006122bc89898989613453565b9250925092507f1f9cf1390a45db7ee0f71906e675c9799449d56f55ea9eea00ac8da2916eadf08585888c868d878a8f60026040516123049a99989796959493929190615459565b60405180910390a1505050505050505050565b733ea660cdc7b7ccc9f81c955f1f2412dceb8518a581565b612337613125565b6000831161237a576040517f08c379a00000000000000000000000000000000000000000000000000000000081526004016123719061553b565b60405180910390fd5b60003073ffffffffffffffffffffffffffffffffffffffff1663b68cdb318787876040518463ffffffff1660e01b81526004016123b99392919061555b565b602060405180830381865afa1580156123d6573d6000803e3d6000fd5b505050506040513d601f19601f820116820180604052508101906123fa9190614c7b565b90506000811161243f576040517f08c379a0000000000000000000000000000000000000000000000000000000008152600401612436906155de565b60405180910390fd5b61244b86333087612d8e565b61245785333084612d8e565b61248486600260009054906101000a900473ffffffffffffffffffffffffffffffffffffffff16866132f5565b6124b185600260009054906101000a900473ffffffffffffffffffffffffffffffffffffffff16836132f5565b6000806000600260009054906101000a900473ffffffffffffffffffffffffffffffffffffffff1673ffffffffffffffffffffffffffffffffffffffff1663e8e337008a8a8a8860008030426040518963ffffffff1660e01b81526004016125209897969594939291906155fe565b6060604051808303816000875af115801561253f573d6000803e3d6000fd5b505050506040513d601f19601f82011682018060405250810190612563919061567c565b9250925092506000600260009054906101000a900473ffffffffffffffffffffffffffffffffffffffff1673ffffffffffffffffffffffffffffffffffffffff1663c45a01556040518163ffffffff1660e01b8152600401602060405180830381865afa1580156125d8573d6000803e3d6000fd5b505050506040513d601f19601f820116820180604052508101906125fc9190614cbd565b905060008173ffffffffffffffffffffffffffffffffffffffff1663e6a439058c8c6040518363ffffffff1660e01b815260040161263b929190614c3d565b602060405180830381865afa158015612658573d6000803e3d6000fd5b505050506040513d601f19601f8201168201806040525081019061267c9190614cbd565b90507f1f9cf1390a45db7ee0f71906e675c9799449d56f55ea9eea00ac8da2916eadf08888338e898f8a888b60016040516126c09a99989796959493929190615459565b60405180910390a15050505050506126d66132eb565b5050505050565b6126e5612fc7565b600073ffffffffffffffffffffffffffffffffffffffff168173ffffffffffffffffffffffffffffffffffffffff16036127575760006040517f1e4fbdf700000000000000000000000000000000000000000000000000000000815260040161274e9190614074565b60405180910390fd5b6127608161304e565b50565b600460009054906101000a900473ffffffffffffffffffffffffffffffffffffffff1681565b6000612793613791565b905060008160000160089054906101000a900460ff1615905060008260000160009054906101000a900467ffffffffffffffff1690506000808267ffffffffffffffff161480156127e15750825b9050600060018367ffffffffffffffff16148015612816575060003073ffffffffffffffffffffffffffffffffffffffff163b145b905081158015612824575080155b1561285b576040517ff92ee8a900000000000000000000000000000000000000000000000000000000815260040160405180910390fd5b60018560000160006101000a81548167ffffffffffffffff021916908367ffffffffffffffff16021790555083156128ab5760018560000160086101000a81548160ff0219169083151502179055505b6128bb6128b66137a5565b6137ad565b88600260006101000a81548173ffffffffffffffffffffffffffffffffffffffff021916908373ffffffffffffffffffffffffffffffffffffffff16021790555087600460006101000a81548173ffffffffffffffffffffffffffffffffffffffff021916908373ffffffffffffffffffffffffffffffffffffffff16021790555086600560006101000a81548173ffffffffffffffffffffffffffffffffffffffff021916908373ffffffffffffffffffffffffffffffffffffffff16021790555085600660006101000a81548173ffffffffffffffffffffffffffffffffffffffff021916908373ffffffffffffffffffffffffffffffffffffffff160217905550600260009054906101000a900473ffffffffffffffffffffffffffffffffffffffff1673ffffffffffffffffffffffffffffffffffffffff1663c45a01556040518163ffffffff1660e01b8152600401602060405180830381865afa158015612a2c573d6000803e3d6000fd5b505050506040513d601f19601f82011682018060405250810190612a509190614cbd565b600360006101000a81548173ffffffffffffffffffffffffffffffffffffffff021916908373ffffffffffffffffffffffffffffffffffffffff1602179055508315612aec5760008560000160086101000a81548160ff0219169083151502179055507fc7f505b2f371ae2175ee4913f4499e1f2633a7b5936321eed1cdaeb6115181d26001604051612ae3919061571e565b60405180910390a15b505050505050505050565b7f000000000000000000000000000000000000000000000000000000000000000073ffffffffffffffffffffffffffffffffffffffff163073ffffffffffffffffffffffffffffffffffffffff161480612ba457507f000000000000000000000000000000000000000000000000000000000000000073ffffffffffffffffffffffffffffffffffffffff16612b8b6137c1565b73ffffffffffffffffffffffffffffffffffffffff1614155b15612bdb576040517fe07c8dba00000000000000000000000000000000000000000000000000000000815260040160405180910390fd5b565b612be5612fc7565b50565b8173ffffffffffffffffffffffffffffffffffffffff166352d1902d6040518163ffffffff1660e01b8152600401602060405180830381865afa925050508015612c5057506040513d601f19601f82011682018060405250810190612c4d9190615765565b60015b612c9157816040517f4c9c8ce3000000000000000000000000000000000000000000000000000000008152600401612c889190614074565b60405180910390fd5b7f360894a13ba1a3210667c828492db98dca3e2076cc3735a920a3ca505d382bbc60001b8114612cf857806040517faa1d49a4000000000000000000000000000000000000000000000000000000008152600401612cef919061429b565b60405180910390fd5b612d028383613818565b505050565b7f000000000000000000000000000000000000000000000000000000000000000073ffffffffffffffffffffffffffffffffffffffff163073ffffffffffffffffffffffffffffffffffffffff1614612d8c576040517fe07c8dba00000000000000000000000000000000000000000000000000000000815260040160405180910390fd5b565b6000808573ffffffffffffffffffffffffffffffffffffffff166323b872dd868686604051602401612dc29392919061555b565b6040516020818303038152906040529060e01b6020820180517bffffffffffffffffffffffffffffffffffffffffffffffffffffffff8381831617835250505050604051612e1091906157d9565b6000604051808303816000865af19150503d8060008114612e4d576040519150601f19603f3d011682016040523d82523d6000602084013e612e52565b606091505b5091509150818015612e805750600081511480612e7f575080806020019051810190612e7e9190615828565b5b5b612ebf576040517f08c379a0000000000000000000000000000000000000000000000000000000008152600401612eb6906158c7565b60405180910390fd5b505050505050565b60008273ffffffffffffffffffffffffffffffffffffffff1682600067ffffffffffffffff811115612efc57612efb6140fb565b5b6040519080825280601f01601f191660200182016040528015612f2e5781602001600182028036833780820191505090505b50604051612f3c91906157d9565b60006040518083038185875af1925050503d8060008114612f79576040519150601f19603f3d011682016040523d82523d6000602084013e612f7e565b606091505b5050905080612fc2576040517f08c379a0000000000000000000000000000000000000000000000000000000008152600401612fb990615959565b60405180910390fd5b505050565b612fcf6137a5565b73ffffffffffffffffffffffffffffffffffffffff16612fed611860565b73ffffffffffffffffffffffffffffffffffffffff161461304c576130106137a5565b6040517f118cdaa70000000000000000000000000000000000000000000000000000000081526004016130439190614074565b60405180910390fd5b565b600061305861342b565b905060008160000160009054906101000a900473ffffffffffffffffffffffffffffffffffffffff169050828260000160006101000a81548173ffffffffffffffffffffffffffffffffffffffff021916908373ffffffffffffffffffffffffffffffffffffffff1602179055508273ffffffffffffffffffffffffffffffffffffffff168173ffffffffffffffffffffffffffffffffffffffff167f8be0079c531659141344cd1fd0a4f28419497f9722a3daafe3b4186f6b6457e060405160405180910390a3505050565b600260005403613161576040517f3ee5aeb500000000000000000000000000000000000000000000000000000000815260040160405180910390fd5b6002600081905550565b61317782333084612d8e565b6000600160008473ffffffffffffffffffffffffffffffffffffffff1673ffffffffffffffffffffffffffffffffffffffff168152602001908152602001600020905060008160000180549050036131fc576131f683600560009054906101000a900473ffffffffffffffffffffffffffffffffffffffff168461388b565b506132e7565b600081600001805490509050600083905060005b828110156132e25760006001846132279190614ed5565b82036132355782905061327f565b6103e885600101838154811061324e5761324d614a67565b5b9060005260206000200154876132649190615979565b61326e91906159ea565b9050808361327c9190614ed5565b92505b60008111156132d4576132d3878660000184815481106132a2576132a1614a67565b5b9060005260206000200160009054906101000a900473ffffffffffffffffffffffffffffffffffffffff168361388b565b5b508080600101915050613210565b505050505b5050565b6001600081905550565b6000808473ffffffffffffffffffffffffffffffffffffffff1663095ea7b385856040516024016133279291906140bc565b6040516020818303038152906040529060e01b6020820180517bffffffffffffffffffffffffffffffffffffffffffffffffffffffff838183161783525050505060405161337591906157d9565b6000604051808303816000865af19150503d80600081146133b2576040519150601f19603f3d011682016040523d82523d6000602084013e6133b7565b606091505b50915091508180156133e557506000815114806133e45750808060200190518101906133e39190615828565b5b5b613424576040517f08c379a000000000000000000000000000000000000000000000000000000000815260040161341b90615a67565b60405180910390fd5b5050505050565b60007f9016d09d72d40fdae2fd8ceac6b6234c7706214fd39c1cd1e609a0528c199300905090565b600080600080600260009054906101000a900473ffffffffffffffffffffffffffffffffffffffff1673ffffffffffffffffffffffffffffffffffffffff1663c45a01556040518163ffffffff1660e01b8152600401602060405180830381865afa1580156134c6573d6000803e3d6000fd5b505050506040513d601f19601f820116820180604052508101906134ea9190614cbd565b90508073ffffffffffffffffffffffffffffffffffffffff1663e6a4390589896040518363ffffffff1660e01b8152600401613527929190614c3d565b602060405180830381865afa158015613544573d6000803e3d6000fd5b505050506040513d601f19601f820116820180604052508101906135689190614cbd565b9350600073ffffffffffffffffffffffffffffffffffffffff168473ffffffffffffffffffffffffffffffffffffffff16036135d9576040517f08c379a00000000000000000000000000000000000000000000000000000000081526004016135d0906150a4565b60405180910390fd5b60008473ffffffffffffffffffffffffffffffffffffffff166370a08231306040518263ffffffff1660e01b81526004016136149190614074565b602060405180830381865afa158015613631573d6000803e3d6000fd5b505050506040513d601f19601f820116820180604052508101906136559190614c7b565b90508681101561369a576040517f08c379a000000000000000000000000000000000000000000000000000000000815260040161369190615ad3565b60405180910390fd5b6136c785600260009054906101000a900473ffffffffffffffffffffffffffffffffffffffff16896132f5565b600260009054906101000a900473ffffffffffffffffffffffffffffffffffffffff1673ffffffffffffffffffffffffffffffffffffffff1663baa2abde8a8a8a6000808c601e426137199190614b9d565b6040518863ffffffff1660e01b815260040161373b9796959493929190615af3565b60408051808303816000875af1158015613759573d6000803e3d6000fd5b505050506040513d601f19601f8201168201806040525081019061377d9190615b62565b809450819550505050509450945094915050565b60008061379c6139c1565b90508091505090565b600033905090565b6137b56139ec565b6137be81613a2c565b50565b60006137ef7f360894a13ba1a3210667c828492db98dca3e2076cc3735a920a3ca505d382bbc60001b613ab2565b60000160009054906101000a900473ffffffffffffffffffffffffffffffffffffffff16905090565b61382182613abc565b8173ffffffffffffffffffffffffffffffffffffffff167fbc7cd75a20ee27fd9adebab32041f755214dbc6bffa90cc0225b39da2e5c2d3b60405160405180910390a260008151111561387e576138788282613b89565b50613887565b613886613c7e565b5b5050565b6000808473ffffffffffffffffffffffffffffffffffffffff1663a9059cbb85856040516024016138bd9291906140bc565b6040516020818303038152906040529060e01b6020820180517bffffffffffffffffffffffffffffffffffffffffffffffffffffffff838183161783525050505060405161390b91906157d9565b6000604051808303816000865af19150503d8060008114613948576040519150601f19603f3d011682016040523d82523d6000602084013e61394d565b606091505b509150915081801561397b575060008151148061397a5750808060200190518101906139799190615828565b5b5b6139ba576040517f08c379a00000000000000000000000000000000000000000000000000000000081526004016139b190615bee565b60405180910390fd5b5050505050565b60007ff0c57e16840df040f15088dc2f81fe391c3923bec73e23a9662efc9c229c6a0060001b905090565b6139f4613cbb565b613a2a576040517fd7e6bcf800000000000000000000000000000000000000000000000000000000815260040160405180910390fd5b565b613a346139ec565b600073ffffffffffffffffffffffffffffffffffffffff168173ffffffffffffffffffffffffffffffffffffffff1603613aa65760006040517f1e4fbdf7000000000000000000000000000000000000000000000000000000008152600401613a9d9190614074565b60405180910390fd5b613aaf8161304e565b50565b6000819050919050565b60008173ffffffffffffffffffffffffffffffffffffffff163b03613b1857806040517f4c9c8ce3000000000000000000000000000000000000000000000000000000008152600401613b0f9190614074565b60405180910390fd5b80613b457f360894a13ba1a3210667c828492db98dca3e2076cc3735a920a3ca505d382bbc60001b613ab2565b60000160006101000a81548173ffffffffffffffffffffffffffffffffffffffff021916908373ffffffffffffffffffffffffffffffffffffffff16021790555050565b60606000613b978484613cdb565b9050808015613bcf57506000613bab613cf1565b1180613bce575060008473ffffffffffffffffffffffffffffffffffffffff163b115b5b15613be457613bdc613cf9565b915050613c78565b8015613c2757836040517f9996b315000000000000000000000000000000000000000000000000000000008152600401613c1e9190614074565b60405180910390fd5b6000613c31613cf1565b1115613c4457613c3f613d17565b613c76565b6040517fd6bda27500000000000000000000000000000000000000000000000000000000815260040160405180910390fd5b505b92915050565b6000341115613cb9576040517fb398979f00000000000000000000000000000000000000000000000000000000815260040160405180910390fd5b565b6000613cc5613791565b60000160089054906101000a900460ff16905090565b6000806000835160208501865af4905092915050565b60003d905090565b606060405190503d81523d6000602083013e3d602001810160405290565b6040513d6000823e3d81fd5b5080546000825590600052602060002090810190613d419190613d95565b50565b5080546000825590600052602060002090810190613d629190613d95565b50565b6040518060400160405280600073ffffffffffffffffffffffffffffffffffffffff168152602001600081525090565b5b80821115613dae576000816000905550600101613d96565b5090565b600082825260208201905092915050565b7f4e4f5f4449524543545f53454e44000000000000000000000000000000000000600082015250565b6000613df9600e83613db2565b9150613e0482613dc3565b602082019050919050565b60006020820190508181036000830152613e2881613dec565b9050919050565b6000604051905090565b600080fd5b600080fd5b600073ffffffffffffffffffffffffffffffffffffffff82169050919050565b6000613e6e82613e43565b9050919050565b613e7e81613e63565b8114613e8957600080fd5b50565b600081359050613e9b81613e75565b92915050565b600080fd5b600080fd5b600080fd5b60008083601f840112613ec657613ec5613ea1565b5b8235905067ffffffffffffffff811115613ee357613ee2613ea6565b5b602083019150836020820283011115613eff57613efe613eab565b5b9250929050565b60008083601f840112613f1c57613f1b613ea1565b5b8235905067ffffffffffffffff811115613f3957613f38613ea6565b5b602083019150836020820283011115613f5557613f54613eab565b5b9250929050565b600080600080600060608688031215613f7857613f77613e39565b5b6000613f8688828901613e8c565b955050602086013567ffffffffffffffff811115613fa757613fa6613e3e565b5b613fb388828901613eb0565b9450945050604086013567ffffffffffffffff811115613fd657613fd5613e3e565b5b613fe288828901613f06565b92509250509295509295909350565b6000806040838503121561400857614007613e39565b5b600061401685828601613e8c565b925050602061402785828601613e8c565b9150509250929050565b6000819050919050565b61404481614031565b82525050565b600060208201905061405f600083018461403b565b92915050565b61406e81613e63565b82525050565b60006020820190506140896000830184614065565b92915050565b6000602082840312156140a5576140a4613e39565b5b60006140b384828501613e8c565b91505092915050565b60006040820190506140d16000830185614065565b6140de602083018461403b565b9392505050565b600080fd5b6000601f19601f8301169050919050565b7f4e487b7100000000000000000000000000000000000000000000000000000000600052604160045260246000fd5b614133826140ea565b810181811067ffffffffffffffff82111715614152576141516140fb565b5b80604052505050565b6000614165613e2f565b9050614171828261412a565b919050565b600067ffffffffffffffff821115614191576141906140fb565b5b61419a826140ea565b9050602081019050919050565b82818337600083830152505050565b60006141c96141c484614176565b61415b565b9050828152602081018484840111156141e5576141e46140e5565b5b6141f08482856141a7565b509392505050565b600082601f83011261420d5761420c613ea1565b5b813561421d8482602086016141b6565b91505092915050565b6000806040838503121561423d5761423c613e39565b5b600061424b85828601613e8c565b925050602083013567ffffffffffffffff81111561426c5761426b613e3e565b5b614278858286016141f8565b9150509250929050565b6000819050919050565b61429581614282565b82525050565b60006020820190506142b0600083018461428c565b92915050565b600067ffffffffffffffff8211156142d1576142d06140fb565b5b6142da826140ea565b9050602081019050919050565b60006142fa6142f5846142b6565b61415b565b905082815260208101848484011115614316576143156140e5565b5b6143218482856141a7565b509392505050565b600082601f83011261433e5761433d613ea1565b5b813561434e8482602086016142e7565b91505092915050565b61436081614031565b811461436b57600080fd5b50565b60008135905061437d81614357565b92915050565b6000806000806080858703121561439d5761439c613e39565b5b600085013567ffffffffffffffff8111156143bb576143ba613e3e565b5b6143c787828801614329565b94505060206143d887828801613e8c565b93505060406143e98782880161436e565b92505060606143fa87828801613e8c565b91505092959194509250565b60008083601f84011261441c5761441b613ea1565b5b8235905067ffffffffffffffff81111561443957614438613ea6565b5b60208301915083600182028301111561445557614454613eab565b5b9250929050565b60008060008060008060a0878903121561447957614478613e39565b5b600061448789828a01613e8c565b965050602061449889828a01613e8c565b95505060406144a989828a0161436e565b94505060606144ba89828a0161436e565b935050608087013567ffffffffffffffff8111156144db576144da613e3e565b5b6144e789828a01614406565b92509250509295509295509295565b600080600080600080600060c0888a03121561451557614514613e39565b5b60006145238a828b01613e8c565b97505060206145348a828b01613e8c565b96505060406145458a828b0161436e565b95505060606145568a828b01613e8c565b94505060806145678a828b01613e8c565b93505060a088013567ffffffffffffffff81111561458857614587613e3e565b5b6145948a828b01614406565b925092505092959891949750929550565b6000806000604084860312156145be576145bd613e39565b5b60006145cc86828701613e8c565b935050602084013567ffffffffffffffff8111156145ed576145ec613e3e565b5b6145f986828701613eb0565b92509250509250925092565b600081519050919050565b600082825260208201905092915050565b6000819050602082019050919050565b61463a81613e63565b82525050565b61464981614031565b82525050565b6040820160008201516146656000850182614631565b5060208201516146786020850182614640565b50505050565b600061468a838361464f565b60408301905092915050565b6000602082019050919050565b60006146ae82614605565b6146b88185614610565b93506146c383614621565b8060005b838110156146f45781516146db888261467e565b97506146e683614696565b9250506001810190506146c7565b5085935050505092915050565b6000602082019050818103600083015261471b81846146a3565b905092915050565b600081519050919050565b60005b8381101561474c578082015181840152602081019050614731565b60008484015250505050565b600061476382614723565b61476d8185613db2565b935061477d81856020860161472e565b614786816140ea565b840191505092915050565b600060208201905081810360008301526147ab8184614758565b905092915050565b6000806000606084860312156147cc576147cb613e39565b5b60006147da86828701613e8c565b93505060206147eb86828701613e8c565b92505060406147fc8682870161436e565b9150509250925092565b60008060008060008060a0878903121561482357614822613e39565b5b600061483189828a01613e8c565b965050602061484289828a01613e8c565b955050604061485389828a0161436e565b945050606061486489828a01613e8c565b935050608087013567ffffffffffffffff81111561488557614884613e3e565b5b61489189828a01614406565b92509250509295509295509295565b6000806000806000608086880312156148bc576148bb613e39565b5b60006148ca88828901613e8c565b95505060206148db88828901613e8c565b94505060406148ec8882890161436e565b935050606086013567ffffffffffffffff81111561490d5761490c613e3e565b5b61491988828901614406565b92509250509295509295909350565b6000806000806080858703121561494257614941613e39565b5b600061495087828801613e8c565b945050602061496187828801613e8c565b935050604061497287828801613e8c565b925050606061498387828801613e8c565b91505092959194509250565b7f4e6f74207065726d69742e000000000000000000000000000000000000000000600082015250565b60006149c5600b83613db2565b91506149d08261498f565b602082019050919050565b600060208201905081810360008301526149f4816149b8565b9050919050565b7f4572726f7220617272617920646174612e000000000000000000000000000000600082015250565b6000614a31601183613db2565b9150614a3c826149fb565b602082019050919050565b60006020820190508181036000830152614a6081614a24565b9050919050565b7f4e487b7100000000000000000000000000000000000000000000000000000000600052603260045260246000fd5b7f5a45524f5f414444524553530000000000000000000000000000000000000000600082015250565b6000614acc600c83613db2565b9150614ad782614a96565b602082019050919050565b60006020820190508181036000830152614afb81614abf565b9050919050565b7f5a45524f5f524154450000000000000000000000000000000000000000000000600082015250565b6000614b38600983613db2565b9150614b4382614b02565b602082019050919050565b60006020820190508181036000830152614b6781614b2b565b9050919050565b7f4e487b7100000000000000000000000000000000000000000000000000000000600052601160045260246000fd5b6000614ba882614031565b9150614bb383614031565b9250828201905080821115614bcb57614bca614b6e565b5b92915050565b7f494e56414c49445f524154450000000000000000000000000000000000000000600082015250565b6000614c07600c83613db2565b9150614c1282614bd1565b602082019050919050565b60006020820190508181036000830152614c3681614bfa565b9050919050565b6000604082019050614c526000830185614065565b614c5f6020830184614065565b9392505050565b600081519050614c7581614357565b92915050565b600060208284031215614c9157614c90613e39565b5b6000614c9f84828501614c66565b91505092915050565b600081519050614cb781613e75565b92915050565b600060208284031215614cd357614cd2613e39565b5b6000614ce184828501614ca8565b91505092915050565b600081519050919050565b600082825260208201905092915050565b6000819050602082019050919050565b6000614d228383614631565b60208301905092915050565b6000602082019050919050565b6000614d4682614cea565b614d508185614cf5565b9350614d5b83614d06565b8060005b83811015614d8c578151614d738882614d16565b9750614d7e83614d2e565b925050600181019050614d5f565b5085935050505092915050565b6000604082019050614dae600083018561403b565b8181036020830152614dc08184614d3b565b90509392505050565b600067ffffffffffffffff821115614de457614de36140fb565b5b602082029050602081019050919050565b6000614e08614e0384614dc9565b61415b565b90508083825260208201905060208402830185811115614e2b57614e2a613eab565b5b835b81811015614e545780614e408882614c66565b845260208401935050602081019050614e2d565b5050509392505050565b600082601f830112614e7357614e72613ea1565b5b8151614e83848260208601614df5565b91505092915050565b600060208284031215614ea257614ea1613e39565b5b600082015167ffffffffffffffff811115614ec057614ebf613e3e565b5b614ecc84828501614e5e565b91505092915050565b6000614ee082614031565b9150614eeb83614031565b9250828203905081811115614f0357614f02614b6e565b5b92915050565b7f4552524f525f414d4f554e542e00000000000000000000000000000000000000600082015250565b6000614f3f600d83613db2565b9150614f4a82614f09565b602082019050919050565b60006020820190508181036000830152614f6e81614f32565b9050919050565b60006080820190508181036000830152614f8f8187614758565b9050614f9e6020830186614065565b614fab6040830185614065565b614fb8606083018461403b565b95945050505050565b6000614fcd8385613db2565b9350614fda8385846141a7565b614fe3836140ea565b840190509392505050565b600060c082019050818103600083015261500981898b614fc1565b90506150186020830188614065565b6150256040830187614065565b615032606083018661403b565b61503f6080830185614065565b61504c60a083018461403b565b98975050505050505050565b7f496e76616c696420706169722e00000000000000000000000000000000000000600082015250565b600061508e600d83613db2565b915061509982615058565b602082019050919050565b600060208201905081810360008301526150bd81615081565b9050919050565b7f4c697175696469747920646f6573206e6f742065786973742e00000000000000600082015250565b60006150fa601983613db2565b9150615105826150c4565b602082019050919050565b60006020820190508181036000830152615129816150ed565b9050919050565b6000819050919050565b6000819050919050565b600061515f61515a61515584615130565b61513a565b614031565b9050919050565b61516f81615144565b82525050565b600060a08201905061518a600083018861403b565b6151976020830187615166565b81810360408301526151a98186614d3b565b90506151b86060830185614065565b6151c5608083018461403b565b9695505050505050565b600060c08201905081810360008301526151ea81898b614fc1565b90506151f96020830188614065565b615206604083018761403b565b6152136060830186614065565b6152206080830185614065565b61522d60a0830184614065565b98975050505050505050565b7f5a45524f5f414444524553532e00000000000000000000000000000000000000600082015250565b600061526f600d83613db2565b915061527a82615239565b602082019050919050565b6000602082019050818103600083015261529e81615262565b9050919050565b60006dffffffffffffffffffffffffffff82169050919050565b6152c8816152a5565b81146152d357600080fd5b50565b6000815190506152e5816152bf565b92915050565b600063ffffffff82169050919050565b615304816152eb565b811461530f57600080fd5b50565b600081519050615321816152fb565b92915050565b6000806000606084860312156153405761533f613e39565b5b600061534e868287016152d6565b935050602061535f868287016152d6565b925050604061537086828701615312565b9150509250925092565b600061539561539061538b846152a5565b61513a565b614031565b9050919050565b6153a58161537a565b82525050565b60006060820190506153c0600083018661403b565b6153cd602083018561539c565b6153da604083018461539c565b949350505050565b7f4e487b7100000000000000000000000000000000000000000000000000000000600052602160045260246000fd5b60038110615422576154216153e2565b5b50565b600081905061543382615411565b919050565b600061544382615425565b9050919050565b61545381615438565b82525050565b6000610120820190508181036000830152615475818c8e614fc1565b9050615484602083018b614065565b615491604083018a614065565b61549e606083018961403b565b6154ab6080830188614065565b6154b860a083018761403b565b6154c560c0830186614065565b6154d260e083018561403b565b6154e061010083018461544a565b9b9a5050505050505050505050565b7f5a45524f5f414d4f554e54000000000000000000000000000000000000000000600082015250565b6000615525600b83613db2565b9150615530826154ef565b602082019050919050565b6000602082019050818103600083015261555481615518565b9050919050565b60006060820190506155706000830186614065565b61557d6020830185614065565b61558a604083018461403b565b949350505050565b7f504149525f4e4f545f5245414459000000000000000000000000000000000000600082015250565b60006155c8600e83613db2565b91506155d382615592565b602082019050919050565b600060208201905081810360008301526155f7816155bb565b9050919050565b600061010082019050615614600083018b614065565b615621602083018a614065565b61562e604083018961403b565b61563b606083018861403b565b6156486080830187615166565b61565560a0830186615166565b61566260c0830185614065565b61566f60e083018461403b565b9998505050505050505050565b60008060006060848603121561569557615694613e39565b5b60006156a386828701614c66565b93505060206156b486828701614c66565b92505060406156c586828701614c66565b9150509250925092565b6000819050919050565b600067ffffffffffffffff82169050919050565b60006157086157036156fe846156cf565b61513a565b6156d9565b9050919050565b615718816156ed565b82525050565b6000602082019050615733600083018461570f565b92915050565b61574281614282565b811461574d57600080fd5b50565b60008151905061575f81615739565b92915050565b60006020828403121561577b5761577a613e39565b5b600061578984828501615750565b91505092915050565b600081519050919050565b600081905092915050565b60006157b382615792565b6157bd818561579d565b93506157cd81856020860161472e565b80840191505092915050565b60006157e582846157a8565b915081905092915050565b60008115159050919050565b615805816157f0565b811461581057600080fd5b50565b600081519050615822816157fc565b92915050565b60006020828403121561583e5761583d613e39565b5b600061584c84828501615813565b91505092915050565b7f5472616e7366657248656c7065723a205452414e534645525f46524f4d5f464160008201527f494c454400000000000000000000000000000000000000000000000000000000602082015250565b60006158b1602483613db2565b91506158bc82615855565b604082019050919050565b600060208201905081810360008301526158e0816158a4565b9050919050565b7f5472616e7366657248656c7065723a204554485f5452414e534645525f46414960008201527f4c45440000000000000000000000000000000000000000000000000000000000602082015250565b6000615943602383613db2565b915061594e826158e7565b604082019050919050565b6000602082019050818103600083015261597281615936565b9050919050565b600061598482614031565b915061598f83614031565b925082820261599d81614031565b915082820484148315176159b4576159b3614b6e565b5b5092915050565b7f4e487b7100000000000000000000000000000000000000000000000000000000600052601260045260246000fd5b60006159f582614031565b9150615a0083614031565b925082615a1057615a0f6159bb565b5b828204905092915050565b7f5472616e7366657248656c7065723a20415050524f56455f4641494c45440000600082015250565b6000615a51601e83613db2565b9150615a5c82615a1b565b602082019050919050565b60006020820190508181036000830152615a8081615a44565b9050919050565b7f496e73756666696369656e7420616d6f756e742e000000000000000000000000600082015250565b6000615abd601483613db2565b9150615ac882615a87565b602082019050919050565b60006020820190508181036000830152615aec81615ab0565b9050919050565b600060e082019050615b08600083018a614065565b615b156020830189614065565b615b22604083018861403b565b615b2f6060830187615166565b615b3c6080830186615166565b615b4960a0830185614065565b615b5660c083018461403b565b98975050505050505050565b60008060408385031215615b7957615b78613e39565b5b6000615b8785828601614c66565b9250506020615b9885828601614c66565b9150509250929050565b7f5472616e7366657248656c7065723a205452414e534645525f4641494c454400600082015250565b6000615bd8601f83613db2565b9150615be382615ba2565b602082019050919050565b60006020820190508181036000830152615c0781615bcb565b905091905056fea2646970667358221220d4d1e4fee8d3391506a6105c002698fb119b829209414198a566ba026161bad864736f6c63430008160033","linkReferences":{}},"methodIdentifiers":{"UPGRADE_INTERFACE_VERSION()":"ad3cb1cc","USDT()":"c54e44eb","WBNB()":"8dd95002","addLiquidity(address,address,uint256,string)":"d9105f63","admin()":"f851a440","changeRecipient(address)":"92c2bcb4","changeSender(address)":"b280a7e7","getAllowance(address,address)":"0af4187d","getPrice(address)":"41976e09","getQuoteAmount(address,address,uint256)":"b68cdb31","initialize(address,address,address,address)":"f8c8765e","multiBalanceOf(address,address[])":"9f166cf1","multiRecharge(address,address,uint256,uint256,string)":"71862276","owner()":"8da5cb5b","proxiableUUID()":"52d1902d","recipient()":"66d003ac","removeLiquidity(address,address,uint256,address,string)":"c474603d","renounceOwnership()":"715018a6","sender()":"67e404ce","setAllocation(address,address[],uint256[])":"07e312a4","swapExactIn(address,address,uint256,address,address,string)":"762cdf81","transferOwnership(address)":"f2fde38b","uniswapV2Router()":"1694505e","uniswapV2factory()":"70fe251b","upgradeToAndCall(address,bytes)":"4f1ef286","withdraw(string,address,uint256,address)":"62a33811"},"id":45}