{"abi":[{"type":"receive","stateMutability":"payable"},{"type":"function","name":"UPGRADE_INTERFACE_VERSION","inputs":[],"outputs":[{"name":"","type":"string","internalType":"string"}],"stateMutability":"view"},{"type":"function","name":"USDT","inputs":[],"outputs":[{"name":"","type":"address","internalType":"address"}],"stateMutability":"view"},{"type":"function","name":"WBNB","inputs":[],"outputs":[{"name":"","type":"address","internalType":"address"}],"stateMutability":"view"},{"type":"function","name":"addLiquidity","inputs":[{"name":"token0","type":"address","internalType":"address"},{"name":"token1","type":"address","internalType":"address"},{"name":"amount0","type":"uint256","internalType":"uint256"},{"name":"remark","type":"string","internalType":"string"}],"outputs":[],"stateMutability":"nonpayable"},{"type":"function","name":"admin","inputs":[],"outputs":[{"name":"","type":"address","internalType":"address"}],"stateMutability":"view"},{"type":"function","name":"getAllowance","inputs":[{"name":"token","type":"address","internalType":"address"},{"name":"owner","type":"address","internalType":"address"}],"outputs":[{"name":"","type":"uint256","internalType":"uint256"}],"stateMutability":"view"},{"type":"function","name":"getPrice","inputs":[{"name":"token","type":"address","internalType":"address"}],"outputs":[{"name":"","type":"address","internalType":"address"},{"name":"","type":"uint256","internalType":"uint256"}],"stateMutability":"view"},{"type":"function","name":"getQuoteAmount","inputs":[{"name":"token0","type":"address","internalType":"address"},{"name":"token1","type":"address","internalType":"address"},{"name":"amount0","type":"uint256","internalType":"uint256"}],"outputs":[{"name":"","type":"uint256","internalType":"uint256"}],"stateMutability":"view"},{"type":"function","name":"initialize","inputs":[{"name":"_router","type":"address","internalType":"address"},{"name":"_admin","type":"address","internalType":"address"},{"name":"_recipient","type":"address","internalType":"address"},{"name":"_sender","type":"address","internalType":"address"}],"outputs":[],"stateMutability":"nonpayable"},{"type":"function","name":"multiBalanceOf","inputs":[{"name":"token","type":"address","internalType":"address"},{"name":"users","type":"address[]","internalType":"address[]"}],"outputs":[{"name":"","type":"tuple[]","internalType":"struct Recharge.Info[]","components":[{"name":"user","type":"address","internalType":"address"},{"name":"amount","type":"uint256","internalType":"uint256"}]}],"stateMutability":"view"},{"type":"function","name":"multiRecharge","inputs":[{"name":"token0","type":"address","internalType":"address"},{"name":"token1","type":"address","internalType":"address"},{"name":"amount0","type":"uint256","internalType":"uint256"},{"name":"amount1","type":"uint256","internalType":"uint256"},{"name":"remark","type":"string","internalType":"string"}],"outputs":[],"stateMutability":"nonpayable"},{"type":"function","name":"owner","inputs":[],"outputs":[{"name":"","type":"address","internalType":"address"}],"stateMutability":"view"},{"type":"function","name":"proxiableUUID","inputs":[],"outputs":[{"name":"","type":"bytes32","internalType":"bytes32"}],"stateMutability":"view"},{"type":"function","name":"recipient","inputs":[],"outputs":[{"name":"","type":"address","internalType":"address"}],"stateMutability":"view"},{"type":"function","name":"removeLiquidity","inputs":[{"name":"token0","type":"address","internalType":"address"},{"name":"token1","type":"address","internalType":"address"},{"name":"amount","type":"uint256","internalType":"uint256"},{"name":"to","type":"address","internalType":"address"},{"name":"remark","type":"string","internalType":"string"}],"outputs":[],"stateMutability":"nonpayable"},{"type":"function","name":"renounceOwnership","inputs":[],"outputs":[],"stateMutability":"nonpayable"},{"type":"function","name":"sender","inputs":[],"outputs":[{"name":"","type":"address","internalType":"address"}],"stateMutability":"view"},{"type":"function","name":"setAllocation","inputs":[{"name":"token","type":"address","internalType":"address"},{"name":"recipients","type":"address[]","internalType":"address[]"},{"name":"rates","type":"uint256[]","internalType":"uint256[]"}],"outputs":[],"stateMutability":"nonpayable"},{"type":"function","name":"swapExactIn","inputs":[{"name":"fromToken","type":"address","internalType":"address"},{"name":"targetToken","type":"address","internalType":"address"},{"name":"fromAmount","type":"uint256","internalType":"uint256"},{"name":"from","type":"address","internalType":"address"},{"name":"to","type":"address","internalType":"address"},{"name":"remark","type":"string","internalType":"string"}],"outputs":[],"stateMutability":"nonpayable"},{"type":"function","name":"transferOwnership","inputs":[{"name":"newOwner","type":"address","internalType":"address"}],"outputs":[],"stateMutability":"nonpayable"},{"type":"function","name":"uniswapV2Router","inputs":[],"outputs":[{"name":"","type":"address","internalType":"address"}],"stateMutability":"view"},{"type":"function","name":"uniswapV2factory","inputs":[],"outputs":[{"name":"","type":"address","internalType":"address"}],"stateMutability":"view"},{"type":"function","name":"upgradeToAndCall","inputs":[{"name":"newImplementation","type":"address","internalType":"address"},{"name":"data","type":"bytes","internalType":"bytes"}],"outputs":[],"stateMutability":"payable"},{"type":"function","name":"withdraw","inputs":[{"name":"remark","type":"string","internalType":"string"},{"name":"token","type":"address","internalType":"address"},{"name":"amount","type":"uint256","internalType":"uint256"},{"name":"to","type":"address","internalType":"address"}],"outputs":[],"stateMutability":"nonpayable"},{"type":"event","name":"Exchange","inputs":[{"name":"remark","type":"string","indexed":false,"internalType":"string"},{"name":"original","type":"address","indexed":false,"internalType":"address"},{"name":"amount","type":"uint256","indexed":false,"internalType":"uint256"},{"name":"target","type":"address","indexed":false,"internalType":"address"},{"name":"from","type":"address","indexed":false,"internalType":"address"},{"name":"to","type":"address","indexed":false,"internalType":"address"}],"anonymous":false},{"type":"event","name":"Initialized","inputs":[{"name":"version","type":"uint64","indexed":false,"internalType":"uint64"}],"anonymous":false},{"type":"event","name":"Liquidity","inputs":[{"name":"remark","type":"string","indexed":false,"internalType":"string"},{"name":"user","type":"address","indexed":false,"internalType":"address"},{"name":"token0","type":"address","indexed":false,"internalType":"address"},{"name":"amount0","type":"uint256","indexed":false,"internalType":"uint256"},{"name":"token1","type":"address","indexed":false,"internalType":"address"},{"name":"amount1","type":"uint256","indexed":false,"internalType":"uint256"},{"name":"pair","type":"address","indexed":false,"internalType":"address"},{"name":"liquidity","type":"uint256","indexed":false,"internalType":"uint256"},{"name":"mark","type":"uint8","indexed":false,"internalType":"enum Recharge.Mark"}],"anonymous":false},{"type":"event","name":"MultiRecharge","inputs":[{"name":"remark","type":"string","indexed":false,"internalType":"string"},{"name":"user","type":"address","indexed":false,"internalType":"address"},{"name":"token0","type":"address","indexed":false,"internalType":"address"},{"name":"amount0","type":"uint256","indexed":false,"internalType":"uint256"},{"name":"token1","type":"address","indexed":false,"internalType":"address"},{"name":"amount1","type":"uint256","indexed":false,"internalType":"uint256"}],"anonymous":false},{"type":"event","name":"OwnershipTransferred","inputs":[{"name":"previousOwner","type":"address","indexed":true,"internalType":"address"},{"name":"newOwner","type":"address","indexed":true,"internalType":"address"}],"anonymous":false},{"type":"event","name":"Upgraded","inputs":[{"name":"implementation","type":"address","indexed":true,"internalType":"address"}],"anonymous":false},{"type":"event","name":"Withdraw","inputs":[{"name":"remark","type":"string","indexed":false,"internalType":"string"},{"name":"token","type":"address","indexed":false,"internalType":"address"},{"name":"to","type":"address","indexed":false,"internalType":"address"},{"name":"amount","type":"uint256","indexed":false,"internalType":"uint256"}],"anonymous":false},{"type":"error","name":"AddressEmptyCode","inputs":[{"name":"target","type":"address","internalType":"address"}]},{"type":"error","name":"ERC1967InvalidImplementation","inputs":[{"name":"implementation","type":"address","internalType":"address"}]},{"type":"error","name":"ERC1967NonPayable","inputs":[]},{"type":"error","name":"FailedCall","inputs":[]},{"type":"error","name":"InvalidInitialization","inputs":[]},{"type":"error","name":"NotInitializing","inputs":[]},{"type":"error","name":"OwnableInvalidOwner","inputs":[{"name":"owner","type":"address","internalType":"address"}]},{"type":"error","name":"OwnableUnauthorizedAccount","inputs":[{"name":"account","type":"address","internalType":"address"}]},{"type":"error","name":"ReentrancyGuardReentrantCall","inputs":[]},{"type":"error","name":"UUPSUnauthorizedCallContext","inputs":[]},{"type":"error","name":"UUPSUnsupportedProxiableUUID","inputs":[{"name":"slot","type":"bytes32","internalType":"bytes32"}]}],"bytecode":{"object":"0x60a06040523073ffffffffffffffffffffffffffffffffffffffff1660809073ffffffffffffffffffffffffffffffffffffffff1681525034801561004357600080fd5b5060016000819055506080516158ca62000076600039600081816127eb0152818161284001526129fb01526158ca6000f3fe60806040526004361061014f5760003560e01c8063762cdf81116100b6578063c474603d1161006f578063c474603d146104b8578063c54e44eb146104e1578063d9105f631461050c578063f2fde38b14610535578063f851a4401461055e578063f8c8765e146105895761018f565b8063762cdf81146103945780638da5cb5b146103bd5780638dd95002146103e85780639f166cf114610413578063ad3cb1cc14610450578063b68cdb311461047b5761018f565b806362a338111161010857806362a33811146102aa57806366d003ac146102d357806367e404ce146102fe57806370fe251b14610329578063715018a614610354578063718622761461036b5761018f565b806307e312a4146101945780630af4187d146101bd5780631694505e146101fa57806341976e09146102255780634f1ef2861461026357806352d1902d1461027f5761018f565b3661018f576040517f08c379a000000000000000000000000000000000000000000000000000000000815260040161018690613b01565b60405180910390fd5b600080fd5b3480156101a057600080fd5b506101bb60048036038101906101b69190613c4e565b6105b2565b005b3480156101c957600080fd5b506101e460048036038101906101df9190613ce3565b610986565b6040516101f19190613d3c565b60405180910390f35b34801561020657600080fd5b5061020f610a0c565b60405161021c9190613d66565b60405180910390f35b34801561023157600080fd5b5061024c60048036038101906102479190613d81565b610a32565b60405161025a929190613dae565b60405180910390f35b61027d60048036038101906102789190613f18565b611014565b005b34801561028b57600080fd5b50610294611033565b6040516102a19190613f8d565b60405180910390f35b3480156102b657600080fd5b506102d160048036038101906102cc9190614075565b611066565b005b3480156102df57600080fd5b506102e86111ee565b6040516102f59190613d66565b60405180910390f35b34801561030a57600080fd5b50610313611214565b6040516103209190613d66565b60405180910390f35b34801561033557600080fd5b5061033e61123a565b60405161034b9190613d66565b60405180910390f35b34801561036057600080fd5b50610369611260565b005b34801561037757600080fd5b50610392600480360381019061038d919061414e565b611274565b005b3480156103a057600080fd5b506103bb60048036038101906103b691906141e8565b6112f7565b005b3480156103c957600080fd5b506103d26117d8565b6040516103df9190613d66565b60405180910390f35b3480156103f457600080fd5b506103fd611810565b60405161040a9190613d66565b60405180910390f35b34801561041f57600080fd5b5061043a60048036038101906104359190614297565b611828565b60405161044791906143f3565b60405180910390f35b34801561045c57600080fd5b50610465611ac6565b6040516104729190614483565b60405180910390f35b34801561048757600080fd5b506104a2600480360381019061049d91906144a5565b611aff565b6040516104af9190613d3c565b60405180910390f35b3480156104c457600080fd5b506104df60048036038101906104da91906144f8565b611f0d565b005b3480156104ed57600080fd5b506104f6612009565b6040516105039190613d66565b60405180910390f35b34801561051857600080fd5b50610533600480360381019061052e9190614592565b612021565b005b34801561054157600080fd5b5061055c60048036038101906105579190613d81565b6123cf565b005b34801561056a57600080fd5b50610573612455565b6040516105809190613d66565b60405180910390f35b34801561059557600080fd5b506105b060048036038101906105ab919061461a565b61247b565b005b3373ffffffffffffffffffffffffffffffffffffffff16600460009054906101000a900473ffffffffffffffffffffffffffffffffffffffff1673ffffffffffffffffffffffffffffffffffffffff1614610642576040517f08c379a0000000000000000000000000000000000000000000000000000000008152600401610639906146cd565b60405180910390fd5b81819050848490501461068a576040517f08c379a000000000000000000000000000000000000000000000000000000000815260040161068190614739565b60405180910390fd5b600160008673ffffffffffffffffffffffffffffffffffffffff1673ffffffffffffffffffffffffffffffffffffffff168152602001908152602001600020600080820160006106da9190613a15565b6001820160006106ea9190613a36565b50506000600160008773ffffffffffffffffffffffffffffffffffffffff1673ffffffffffffffffffffffffffffffffffffffff1681526020019081526020016000209050600080600090505b8686905081101561093857600073ffffffffffffffffffffffffffffffffffffffff1687878381811061076d5761076c614759565b5b90506020020160208101906107829190613d81565b73ffffffffffffffffffffffffffffffffffffffff16036107d8576040517f08c379a00000000000000000000000000000000000000000000000000000000081526004016107cf906147d4565b60405180910390fd5b60008585838181106107ed576107ec614759565b5b9050602002013511610834576040517f08c379a000000000000000000000000000000000000000000000000000000000815260040161082b90614840565b60405180910390fd5b8260000187878381811061084b5761084a614759565b5b90506020020160208101906108609190613d81565b9080600181540180825580915050600190039060005260206000200160009091909190916101000a81548173ffffffffffffffffffffffffffffffffffffffff021916908373ffffffffffffffffffffffffffffffffffffffff160217905550826001018585838181106108d7576108d6614759565b5b90506020020135908060018154018082558091505060019003906000526020600020016000909190919091505584848281811061091757610916614759565b5b9050602002013582610929919061488f565b91508080600101915050610737565b506103e8811461097d576040517f08c379a00000000000000000000000000000000000000000000000000000000081526004016109749061490f565b60405180910390fd5b50505050505050565b60008273ffffffffffffffffffffffffffffffffffffffff1663dd62ed3e83306040518363ffffffff1660e01b81526004016109c392919061492f565b602060405180830381865afa1580156109e0573d6000803e3d6000fd5b505050506040513d601f19601f82011682018060405250810190610a04919061496d565b905092915050565b600260009054906101000a900473ffffffffffffffffffffffffffffffffffffffff1681565b6000806000600360009054906101000a900473ffffffffffffffffffffffffffffffffffffffff1673ffffffffffffffffffffffffffffffffffffffff1663e6a439058573e901e30661dd4fd238c4bfe44b000058561a7b0e6040518363ffffffff1660e01b8152600401610aa892919061492f565b602060405180830381865afa158015610ac5573d6000803e3d6000fd5b505050506040513d601f19601f82011682018060405250810190610ae991906149af565b90506000600360009054906101000a900473ffffffffffffffffffffffffffffffffffffffff1673ffffffffffffffffffffffffffffffffffffffff1663e6a4390586733ea660cdc7b7ccc9f81c955f1f2412dceb8518a56040518363ffffffff1660e01b8152600401610b5e92919061492f565b602060405180830381865afa158015610b7b573d6000803e3d6000fd5b505050506040513d601f19601f82011682018060405250810190610b9f91906149af565b90506000670de0b6b3a7640000905060008073ffffffffffffffffffffffffffffffffffffffff168373ffffffffffffffffffffffffffffffffffffffff1614610dd9576000600267ffffffffffffffff811115610c0057610bff613ded565b5b604051908082528060200260200182016040528015610c2e5781602001602082028036833780820191505090505b5090508781600081518110610c4657610c45614759565b5b602002602001019073ffffffffffffffffffffffffffffffffffffffff16908173ffffffffffffffffffffffffffffffffffffffff1681525050733ea660cdc7b7ccc9f81c955f1f2412dceb8518a581600181518110610ca957610ca8614759565b5b602002602001019073ffffffffffffffffffffffffffffffffffffffff16908173ffffffffffffffffffffffffffffffffffffffff16815250506000600260009054906101000a900473ffffffffffffffffffffffffffffffffffffffff1673ffffffffffffffffffffffffffffffffffffffff1663d06ca61f85846040518363ffffffff1660e01b8152600401610d42929190614a8b565b600060405180830381865afa158015610d5f573d6000803e3d6000fd5b505050506040513d6000823e3d601f19601f82011682018060405250810190610d889190614b7e565b90508060018251610d999190614bc7565b81518110610daa57610da9614759565b5b60200260200101519250733ea660cdc7b7ccc9f81c955f1f2412dceb8518a5839750975050505050505061100f565b600073ffffffffffffffffffffffffffffffffffffffff168473ffffffffffffffffffffffffffffffffffffffff1614611003576000600267ffffffffffffffff811115610e2a57610e29613ded565b5b604051908082528060200260200182016040528015610e585781602001602082028036833780820191505090505b5090508781600081518110610e7057610e6f614759565b5b602002602001019073ffffffffffffffffffffffffffffffffffffffff16908173ffffffffffffffffffffffffffffffffffffffff168152505073e901e30661dd4fd238c4bfe44b000058561a7b0e81600181518110610ed357610ed2614759565b5b602002602001019073ffffffffffffffffffffffffffffffffffffffff16908173ffffffffffffffffffffffffffffffffffffffff16815250506000600260009054906101000a900473ffffffffffffffffffffffffffffffffffffffff1673ffffffffffffffffffffffffffffffffffffffff1663d06ca61f85846040518363ffffffff1660e01b8152600401610f6c929190614a8b565b600060405180830381865afa158015610f89573d6000803e3d6000fd5b505050506040513d6000823e3d601f19601f82011682018060405250810190610fb29190614b7e565b90508060018251610fc39190614bc7565b81518110610fd457610fd3614759565b5b6020026020010151925073e901e30661dd4fd238c4bfe44b000058561a7b0e839750975050505050505061100f565b60008095509550505050505b915091565b61101c6127e9565b611025826128cf565b61102f82826128da565b5050565b600061103d6129f9565b7f360894a13ba1a3210667c828492db98dca3e2076cc3735a920a3ca505d382bbc60001b905090565b3373ffffffffffffffffffffffffffffffffffffffff16600460009054906101000a900473ffffffffffffffffffffffffffffffffffffffff1673ffffffffffffffffffffffffffffffffffffffff16146110f6576040517f08c379a00000000000000000000000000000000000000000000000000000000081526004016110ed906146cd565b60405180910390fd5b60008211611139576040517f08c379a000000000000000000000000000000000000000000000000000000000815260040161113090614c47565b60405180910390fd5b600073ffffffffffffffffffffffffffffffffffffffff168373ffffffffffffffffffffffffffffffffffffffff16146111a05761119b83600660009054906101000a900473ffffffffffffffffffffffffffffffffffffffff168385612a80565b6111ab565b6111aa8183612bb9565b5b7f99310eed5bb161586b62449f89ccaa4580f85f953cd64218092edfc2b1f5fce7848483856040516111e09493929190614c67565b60405180910390a150505050565b600560009054906101000a900473ffffffffffffffffffffffffffffffffffffffff1681565b600660009054906101000a900473ffffffffffffffffffffffffffffffffffffffff1681565b600360009054906101000a900473ffffffffffffffffffffffffffffffffffffffff1681565b611268612cb9565b6112726000612d40565b565b61127c612e17565b60008411156112905761128f8685612e5d565b5b60008311156112a4576112a38584612e5d565b5b7f876458ec83a99c29371392c3eda4a2efbec05609200abd173088243e3bb0b8e182823389888a896040516112df9796959493929190614ce0565b60405180910390a16112ef612fdd565b505050505050565b3373ffffffffffffffffffffffffffffffffffffffff16600460009054906101000a900473ffffffffffffffffffffffffffffffffffffffff1673ffffffffffffffffffffffffffffffffffffffff1614611387576040517f08c379a000000000000000000000000000000000000000000000000000000000815260040161137e906146cd565b60405180910390fd5b6000600260009054906101000a900473ffffffffffffffffffffffffffffffffffffffff1673ffffffffffffffffffffffffffffffffffffffff1663c45a01556040518163ffffffff1660e01b8152600401602060405180830381865afa1580156113f6573d6000803e3d6000fd5b505050506040513d601f19601f8201168201806040525081019061141a91906149af565b905060008173ffffffffffffffffffffffffffffffffffffffff1663e6a439058a8a6040518363ffffffff1660e01b815260040161145992919061492f565b602060405180830381865afa158015611476573d6000803e3d6000fd5b505050506040513d601f19601f8201168201806040525081019061149a91906149af565b9050600073ffffffffffffffffffffffffffffffffffffffff168173ffffffffffffffffffffffffffffffffffffffff160361150b576040517f08c379a000000000000000000000000000000000000000000000000000000000815260040161150290614d96565b60405180910390fd5b60008173ffffffffffffffffffffffffffffffffffffffff166318160ddd6040518163ffffffff1660e01b8152600401602060405180830381865afa158015611558573d6000803e3d6000fd5b505050506040513d601f19601f8201168201806040525081019061157c919061496d565b9050600081116115c1576040517f08c379a00000000000000000000000000000000000000000000000000000000081526004016115b890614e02565b60405180910390fd5b6115cd8a88308b612a80565b6115fa8a600260009054906101000a900473ffffffffffffffffffffffffffffffffffffffff168a612fe7565b6000600267ffffffffffffffff81111561161757611616613ded565b5b6040519080825280602002602001820160405280156116455781602001602082028036833780820191505090505b5090508a8160008151811061165d5761165c614759565b5b602002602001019073ffffffffffffffffffffffffffffffffffffffff16908173ffffffffffffffffffffffffffffffffffffffff168152505089816001815181106116ac576116ab614759565b5b602002602001019073ffffffffffffffffffffffffffffffffffffffff16908173ffffffffffffffffffffffffffffffffffffffff1681525050600260009054906101000a900473ffffffffffffffffffffffffffffffffffffffff1673ffffffffffffffffffffffffffffffffffffffff16635c11d7958a6000848b601e42611736919061488f565b6040518663ffffffff1660e01b8152600401611756959493929190614e67565b600060405180830381600087803b15801561177057600080fd5b505af1158015611784573d6000803e3d6000fd5b505050507fb8d32d215e4cb191d4eab15881b20b08541e7696fca52eb4efe27e77011f738c86868d8c8e8d8d6040516117c39796959493929190614ec1565b60405180910390a15050505050505050505050565b6000806117e361311d565b90508060000160009054906101000a900473ffffffffffffffffffffffffffffffffffffffff1691505090565b73e901e30661dd4fd238c4bfe44b000058561a7b0e81565b6060600083839050905060008167ffffffffffffffff81111561184e5761184d613ded565b5b60405190808252806020026020018201604052801561188757816020015b611874613a57565b81526020019060019003908161186c5790505b509050600073ffffffffffffffffffffffffffffffffffffffff168673ffffffffffffffffffffffffffffffffffffffff160361198a5760005b828110156119845760405180604001604052808787848181106118e7576118e6614759565b5b90506020020160208101906118fc9190613d81565b73ffffffffffffffffffffffffffffffffffffffff16815260200187878481811061192a57611929614759565b5b905060200201602081019061193f9190613d81565b73ffffffffffffffffffffffffffffffffffffffff163181525082828151811061196c5761196b614759565b5b602002602001018190525080806001019150506118c1565b50611aba565b600086905060005b83811015611ab75760405180604001604052808888848181106119b8576119b7614759565b5b90506020020160208101906119cd9190613d81565b73ffffffffffffffffffffffffffffffffffffffff1681526020018373ffffffffffffffffffffffffffffffffffffffff166370a082318a8a86818110611a1757611a16614759565b5b9050602002016020810190611a2c9190613d81565b6040518263ffffffff1660e01b8152600401611a489190613d66565b602060405180830381865afa158015611a65573d6000803e3d6000fd5b505050506040513d601f19601f82011682018060405250810190611a89919061496d565b815250838281518110611a9f57611a9e614759565b5b60200260200101819052508080600101915050611992565b50505b80925050509392505050565b6040518060400160405280600581526020017f352e302e3000000000000000000000000000000000000000000000000000000081525081565b600080600260009054906101000a900473ffffffffffffffffffffffffffffffffffffffff1673ffffffffffffffffffffffffffffffffffffffff1663c45a01556040518163ffffffff1660e01b8152600401602060405180830381865afa158015611b6f573d6000803e3d6000fd5b505050506040513d601f19601f82011682018060405250810190611b9391906149af565b905060008173ffffffffffffffffffffffffffffffffffffffff1663e6a4390587876040518363ffffffff1660e01b8152600401611bd292919061492f565b602060405180830381865afa158015611bef573d6000803e3d6000fd5b505050506040513d601f19601f82011682018060405250810190611c1391906149af565b9050600073ffffffffffffffffffffffffffffffffffffffff168173ffffffffffffffffffffffffffffffffffffffff1603611c5457600092505050611f06565b6000808273ffffffffffffffffffffffffffffffffffffffff16630902f1ac6040518163ffffffff1660e01b8152600401606060405180830381865afa158015611ca2573d6000803e3d6000fd5b505050506040513d601f19601f82011682018060405250810190611cc69190614fad565b50915091506000826dffffffffffffffffffffffffffff161480611cfa57506000816dffffffffffffffffffffffffffff16145b15611d0c576000945050505050611f06565b60008373ffffffffffffffffffffffffffffffffffffffff16630dfe16816040518163ffffffff1660e01b8152600401602060405180830381865afa158015611d59573d6000803e3d6000fd5b505050506040513d601f19601f82011682018060405250810190611d7d91906149af565b90508873ffffffffffffffffffffffffffffffffffffffff168173ffffffffffffffffffffffffffffffffffffffff1603611e5e57600260009054906101000a900473ffffffffffffffffffffffffffffffffffffffff1673ffffffffffffffffffffffffffffffffffffffff1663ad615dec8885856040518463ffffffff1660e01b8152600401611e1193929190615031565b602060405180830381865afa158015611e2e573d6000803e3d6000fd5b505050506040513d601f19601f82011682018060405250810190611e52919061496d565b95505050505050611f06565b600260009054906101000a900473ffffffffffffffffffffffffffffffffffffffff1673ffffffffffffffffffffffffffffffffffffffff1663ad615dec8884866040518463ffffffff1660e01b8152600401611ebd93929190615031565b602060405180830381865afa158015611eda573d6000803e3d6000fd5b505050506040513d601f19601f82011682018060405250810190611efe919061496d565b955050505050505b9392505050565b3373ffffffffffffffffffffffffffffffffffffffff16600460009054906101000a900473ffffffffffffffffffffffffffffffffffffffff1673ffffffffffffffffffffffffffffffffffffffff1614611f9d576040517f08c379a0000000000000000000000000000000000000000000000000000000008152600401611f94906146cd565b60405180910390fd5b6000806000611fae89898989613145565b9250925092507f1f9cf1390a45db7ee0f71906e675c9799449d56f55ea9eea00ac8da2916eadf08585888c868d878a8f6002604051611ff69a999897969594939291906150df565b60405180910390a1505050505050505050565b733ea660cdc7b7ccc9f81c955f1f2412dceb8518a581565b612029612e17565b6000831161206c576040517f08c379a0000000000000000000000000000000000000000000000000000000008152600401612063906151c1565b60405180910390fd5b60003073ffffffffffffffffffffffffffffffffffffffff1663b68cdb318787876040518463ffffffff1660e01b81526004016120ab939291906151e1565b602060405180830381865afa1580156120c8573d6000803e3d6000fd5b505050506040513d601f19601f820116820180604052508101906120ec919061496d565b905060008111612131576040517f08c379a000000000000000000000000000000000000000000000000000000000815260040161212890615264565b60405180910390fd5b61213d86333087612a80565b61214985333084612a80565b61217686600260009054906101000a900473ffffffffffffffffffffffffffffffffffffffff1686612fe7565b6121a385600260009054906101000a900473ffffffffffffffffffffffffffffffffffffffff1683612fe7565b6000806000600260009054906101000a900473ffffffffffffffffffffffffffffffffffffffff1673ffffffffffffffffffffffffffffffffffffffff1663e8e337008a8a8a8860008030426040518963ffffffff1660e01b8152600401612212989796959493929190615284565b6060604051808303816000875af1158015612231573d6000803e3d6000fd5b505050506040513d601f19601f820116820180604052508101906122559190615302565b9250925092506000600260009054906101000a900473ffffffffffffffffffffffffffffffffffffffff1673ffffffffffffffffffffffffffffffffffffffff1663c45a01556040518163ffffffff1660e01b8152600401602060405180830381865afa1580156122ca573d6000803e3d6000fd5b505050506040513d601f19601f820116820180604052508101906122ee91906149af565b905060008173ffffffffffffffffffffffffffffffffffffffff1663e6a439058c8c6040518363ffffffff1660e01b815260040161232d92919061492f565b602060405180830381865afa15801561234a573d6000803e3d6000fd5b505050506040513d601f19601f8201168201806040525081019061236e91906149af565b90507f1f9cf1390a45db7ee0f71906e675c9799449d56f55ea9eea00ac8da2916eadf08888338e898f8a888b60016040516123b29a999897969594939291906150df565b60405180910390a15050505050506123c8612fdd565b5050505050565b6123d7612cb9565b600073ffffffffffffffffffffffffffffffffffffffff168173ffffffffffffffffffffffffffffffffffffffff16036124495760006040517f1e4fbdf70000000000000000000000000000000000000000000000000000000081526004016124409190613d66565b60405180910390fd5b61245281612d40565b50565b600460009054906101000a900473ffffffffffffffffffffffffffffffffffffffff1681565b6000612485613483565b905060008160000160089054906101000a900460ff1615905060008260000160009054906101000a900467ffffffffffffffff1690506000808267ffffffffffffffff161480156124d35750825b9050600060018367ffffffffffffffff16148015612508575060003073ffffffffffffffffffffffffffffffffffffffff163b145b905081158015612516575080155b1561254d576040517ff92ee8a900000000000000000000000000000000000000000000000000000000815260040160405180910390fd5b60018560000160006101000a81548167ffffffffffffffff021916908367ffffffffffffffff160217905550831561259d5760018560000160086101000a81548160ff0219169083151502179055505b6125ad6125a8613497565b61349f565b88600260006101000a81548173ffffffffffffffffffffffffffffffffffffffff021916908373ffffffffffffffffffffffffffffffffffffffff16021790555087600460006101000a81548173ffffffffffffffffffffffffffffffffffffffff021916908373ffffffffffffffffffffffffffffffffffffffff16021790555086600560006101000a81548173ffffffffffffffffffffffffffffffffffffffff021916908373ffffffffffffffffffffffffffffffffffffffff16021790555085600660006101000a81548173ffffffffffffffffffffffffffffffffffffffff021916908373ffffffffffffffffffffffffffffffffffffffff160217905550600260009054906101000a900473ffffffffffffffffffffffffffffffffffffffff1673ffffffffffffffffffffffffffffffffffffffff1663c45a01556040518163ffffffff1660e01b8152600401602060405180830381865afa15801561271e573d6000803e3d6000fd5b505050506040513d601f19601f8201168201806040525081019061274291906149af565b600360006101000a81548173ffffffffffffffffffffffffffffffffffffffff021916908373ffffffffffffffffffffffffffffffffffffffff16021790555083156127de5760008560000160086101000a81548160ff0219169083151502179055507fc7f505b2f371ae2175ee4913f4499e1f2633a7b5936321eed1cdaeb6115181d260016040516127d591906153a4565b60405180910390a15b505050505050505050565b7f000000000000000000000000000000000000000000000000000000000000000073ffffffffffffffffffffffffffffffffffffffff163073ffffffffffffffffffffffffffffffffffffffff16148061289657507f000000000000000000000000000000000000000000000000000000000000000073ffffffffffffffffffffffffffffffffffffffff1661287d6134b3565b73ffffffffffffffffffffffffffffffffffffffff1614155b156128cd576040517fe07c8dba00000000000000000000000000000000000000000000000000000000815260040160405180910390fd5b565b6128d7612cb9565b50565b8173ffffffffffffffffffffffffffffffffffffffff166352d1902d6040518163ffffffff1660e01b8152600401602060405180830381865afa92505050801561294257506040513d601f19601f8201168201806040525081019061293f91906153eb565b60015b61298357816040517f4c9c8ce300000000000000000000000000000000000000000000000000000000815260040161297a9190613d66565b60405180910390fd5b7f360894a13ba1a3210667c828492db98dca3e2076cc3735a920a3ca505d382bbc60001b81146129ea57806040517faa1d49a40000000000000000000000000000000000000000000000000000000081526004016129e19190613f8d565b60405180910390fd5b6129f4838361350a565b505050565b7f000000000000000000000000000000000000000000000000000000000000000073ffffffffffffffffffffffffffffffffffffffff163073ffffffffffffffffffffffffffffffffffffffff1614612a7e576040517fe07c8dba00000000000000000000000000000000000000000000000000000000815260040160405180910390fd5b565b6000808573ffffffffffffffffffffffffffffffffffffffff166323b872dd868686604051602401612ab4939291906151e1565b6040516020818303038152906040529060e01b6020820180517bffffffffffffffffffffffffffffffffffffffffffffffffffffffff8381831617835250505050604051612b02919061545f565b6000604051808303816000865af19150503d8060008114612b3f576040519150601f19603f3d011682016040523d82523d6000602084013e612b44565b606091505b5091509150818015612b725750600081511480612b71575080806020019051810190612b7091906154ae565b5b5b612bb1576040517f08c379a0000000000000000000000000000000000000000000000000000000008152600401612ba89061554d565b60405180910390fd5b505050505050565b60008273ffffffffffffffffffffffffffffffffffffffff1682600067ffffffffffffffff811115612bee57612bed613ded565b5b6040519080825280601f01601f191660200182016040528015612c205781602001600182028036833780820191505090505b50604051612c2e919061545f565b60006040518083038185875af1925050503d8060008114612c6b576040519150601f19603f3d011682016040523d82523d6000602084013e612c70565b606091505b5050905080612cb4576040517f08c379a0000000000000000000000000000000000000000000000000000000008152600401612cab906155df565b60405180910390fd5b505050565b612cc1613497565b73ffffffffffffffffffffffffffffffffffffffff16612cdf6117d8565b73ffffffffffffffffffffffffffffffffffffffff1614612d3e57612d02613497565b6040517f118cdaa7000000000000000000000000000000000000000000000000000000008152600401612d359190613d66565b60405180910390fd5b565b6000612d4a61311d565b905060008160000160009054906101000a900473ffffffffffffffffffffffffffffffffffffffff169050828260000160006101000a81548173ffffffffffffffffffffffffffffffffffffffff021916908373ffffffffffffffffffffffffffffffffffffffff1602179055508273ffffffffffffffffffffffffffffffffffffffff168173ffffffffffffffffffffffffffffffffffffffff167f8be0079c531659141344cd1fd0a4f28419497f9722a3daafe3b4186f6b6457e060405160405180910390a3505050565b600260005403612e53576040517f3ee5aeb500000000000000000000000000000000000000000000000000000000815260040160405180910390fd5b6002600081905550565b612e6982333084612a80565b6000600160008473ffffffffffffffffffffffffffffffffffffffff1673ffffffffffffffffffffffffffffffffffffffff16815260200190815260200160002090506000816000018054905003612eee57612ee883600560009054906101000a900473ffffffffffffffffffffffffffffffffffffffff168461357d565b50612fd9565b600081600001805490509050600083905060005b82811015612fd4576000600184612f199190614bc7565b8203612f2757829050612f71565b6103e8856001018381548110612f4057612f3f614759565b5b906000526020600020015487612f5691906155ff565b612f609190615670565b90508083612f6e9190614bc7565b92505b6000811115612fc657612fc587866000018481548110612f9457612f93614759565b5b9060005260206000200160009054906101000a900473ffffffffffffffffffffffffffffffffffffffff168361357d565b5b508080600101915050612f02565b505050505b5050565b6001600081905550565b6000808473ffffffffffffffffffffffffffffffffffffffff1663095ea7b38585604051602401613019929190613dae565b6040516020818303038152906040529060e01b6020820180517bffffffffffffffffffffffffffffffffffffffffffffffffffffffff8381831617835250505050604051613067919061545f565b6000604051808303816000865af19150503d80600081146130a4576040519150601f19603f3d011682016040523d82523d6000602084013e6130a9565b606091505b50915091508180156130d757506000815114806130d65750808060200190518101906130d591906154ae565b5b5b613116576040517f08c379a000000000000000000000000000000000000000000000000000000000815260040161310d906156ed565b60405180910390fd5b5050505050565b60007f9016d09d72d40fdae2fd8ceac6b6234c7706214fd39c1cd1e609a0528c199300905090565b600080600080600260009054906101000a900473ffffffffffffffffffffffffffffffffffffffff1673ffffffffffffffffffffffffffffffffffffffff1663c45a01556040518163ffffffff1660e01b8152600401602060405180830381865afa1580156131b8573d6000803e3d6000fd5b505050506040513d601f19601f820116820180604052508101906131dc91906149af565b90508073ffffffffffffffffffffffffffffffffffffffff1663e6a4390589896040518363ffffffff1660e01b815260040161321992919061492f565b602060405180830381865afa158015613236573d6000803e3d6000fd5b505050506040513d601f19601f8201168201806040525081019061325a91906149af565b9350600073ffffffffffffffffffffffffffffffffffffffff168473ffffffffffffffffffffffffffffffffffffffff16036132cb576040517f08c379a00000000000000000000000000000000000000000000000000000000081526004016132c290614d96565b60405180910390fd5b60008473ffffffffffffffffffffffffffffffffffffffff166370a08231306040518263ffffffff1660e01b81526004016133069190613d66565b602060405180830381865afa158015613323573d6000803e3d6000fd5b505050506040513d601f19601f82011682018060405250810190613347919061496d565b90508681101561338c576040517f08c379a000000000000000000000000000000000000000000000000000000000815260040161338390615759565b60405180910390fd5b6133b985600260009054906101000a900473ffffffffffffffffffffffffffffffffffffffff1689612fe7565b600260009054906101000a900473ffffffffffffffffffffffffffffffffffffffff1673ffffffffffffffffffffffffffffffffffffffff1663baa2abde8a8a8a6000808c601e4261340b919061488f565b6040518863ffffffff1660e01b815260040161342d9796959493929190615779565b60408051808303816000875af115801561344b573d6000803e3d6000fd5b505050506040513d601f19601f8201168201806040525081019061346f91906157e8565b809450819550505050509450945094915050565b60008061348e6136b3565b90508091505090565b600033905090565b6134a76136de565b6134b08161371e565b50565b60006134e17f360894a13ba1a3210667c828492db98dca3e2076cc3735a920a3ca505d382bbc60001b6137a4565b60000160009054906101000a900473ffffffffffffffffffffffffffffffffffffffff16905090565b613513826137ae565b8173ffffffffffffffffffffffffffffffffffffffff167fbc7cd75a20ee27fd9adebab32041f755214dbc6bffa90cc0225b39da2e5c2d3b60405160405180910390a26000815111156135705761356a828261387b565b50613579565b613578613970565b5b5050565b6000808473ffffffffffffffffffffffffffffffffffffffff1663a9059cbb85856040516024016135af929190613dae565b6040516020818303038152906040529060e01b6020820180517bffffffffffffffffffffffffffffffffffffffffffffffffffffffff83818316178352505050506040516135fd919061545f565b6000604051808303816000865af19150503d806000811461363a576040519150601f19603f3d011682016040523d82523d6000602084013e61363f565b606091505b509150915081801561366d575060008151148061366c57508080602001905181019061366b91906154ae565b5b5b6136ac576040517f08c379a00000000000000000000000000000000000000000000000000000000081526004016136a390615874565b60405180910390fd5b5050505050565b60007ff0c57e16840df040f15088dc2f81fe391c3923bec73e23a9662efc9c229c6a0060001b905090565b6136e66139ad565b61371c576040517fd7e6bcf800000000000000000000000000000000000000000000000000000000815260040160405180910390fd5b565b6137266136de565b600073ffffffffffffffffffffffffffffffffffffffff168173ffffffffffffffffffffffffffffffffffffffff16036137985760006040517f1e4fbdf700000000000000000000000000000000000000000000000000000000815260040161378f9190613d66565b60405180910390fd5b6137a181612d40565b50565b6000819050919050565b60008173ffffffffffffffffffffffffffffffffffffffff163b0361380a57806040517f4c9c8ce30000000000000000000000000000000000000000000000000000000081526004016138019190613d66565b60405180910390fd5b806138377f360894a13ba1a3210667c828492db98dca3e2076cc3735a920a3ca505d382bbc60001b6137a4565b60000160006101000a81548173ffffffffffffffffffffffffffffffffffffffff021916908373ffffffffffffffffffffffffffffffffffffffff16021790555050565b6060600061388984846139cd565b90508080156138c15750600061389d6139e3565b11806138c0575060008473ffffffffffffffffffffffffffffffffffffffff163b115b5b156138d6576138ce6139eb565b91505061396a565b801561391957836040517f9996b3150000000000000000000000000000000000000000000000000000000081526004016139109190613d66565b60405180910390fd5b60006139236139e3565b111561393657613931613a09565b613968565b6040517fd6bda27500000000000000000000000000000000000000000000000000000000815260040160405180910390fd5b505b92915050565b60003411156139ab576040517fb398979f00000000000000000000000000000000000000000000000000000000815260040160405180910390fd5b565b60006139b7613483565b60000160089054906101000a900460ff16905090565b6000806000835160208501865af4905092915050565b60003d905090565b606060405190503d81523d6000602083013e3d602001810160405290565b6040513d6000823e3d81fd5b5080546000825590600052602060002090810190613a339190613a87565b50565b5080546000825590600052602060002090810190613a549190613a87565b50565b6040518060400160405280600073ffffffffffffffffffffffffffffffffffffffff168152602001600081525090565b5b80821115613aa0576000816000905550600101613a88565b5090565b600082825260208201905092915050565b7f4e4f5f4449524543545f53454e44000000000000000000000000000000000000600082015250565b6000613aeb600e83613aa4565b9150613af682613ab5565b602082019050919050565b60006020820190508181036000830152613b1a81613ade565b9050919050565b6000604051905090565b600080fd5b600080fd5b600073ffffffffffffffffffffffffffffffffffffffff82169050919050565b6000613b6082613b35565b9050919050565b613b7081613b55565b8114613b7b57600080fd5b50565b600081359050613b8d81613b67565b92915050565b600080fd5b600080fd5b600080fd5b60008083601f840112613bb857613bb7613b93565b5b8235905067ffffffffffffffff811115613bd557613bd4613b98565b5b602083019150836020820283011115613bf157613bf0613b9d565b5b9250929050565b60008083601f840112613c0e57613c0d613b93565b5b8235905067ffffffffffffffff811115613c2b57613c2a613b98565b5b602083019150836020820283011115613c4757613c46613b9d565b5b9250929050565b600080600080600060608688031215613c6a57613c69613b2b565b5b6000613c7888828901613b7e565b955050602086013567ffffffffffffffff811115613c9957613c98613b30565b5b613ca588828901613ba2565b9450945050604086013567ffffffffffffffff811115613cc857613cc7613b30565b5b613cd488828901613bf8565b92509250509295509295909350565b60008060408385031215613cfa57613cf9613b2b565b5b6000613d0885828601613b7e565b9250506020613d1985828601613b7e565b9150509250929050565b6000819050919050565b613d3681613d23565b82525050565b6000602082019050613d516000830184613d2d565b92915050565b613d6081613b55565b82525050565b6000602082019050613d7b6000830184613d57565b92915050565b600060208284031215613d9757613d96613b2b565b5b6000613da584828501613b7e565b91505092915050565b6000604082019050613dc36000830185613d57565b613dd06020830184613d2d565b9392505050565b600080fd5b6000601f19601f8301169050919050565b7f4e487b7100000000000000000000000000000000000000000000000000000000600052604160045260246000fd5b613e2582613ddc565b810181811067ffffffffffffffff82111715613e4457613e43613ded565b5b80604052505050565b6000613e57613b21565b9050613e638282613e1c565b919050565b600067ffffffffffffffff821115613e8357613e82613ded565b5b613e8c82613ddc565b9050602081019050919050565b82818337600083830152505050565b6000613ebb613eb684613e68565b613e4d565b905082815260208101848484011115613ed757613ed6613dd7565b5b613ee2848285613e99565b509392505050565b600082601f830112613eff57613efe613b93565b5b8135613f0f848260208601613ea8565b91505092915050565b60008060408385031215613f2f57613f2e613b2b565b5b6000613f3d85828601613b7e565b925050602083013567ffffffffffffffff811115613f5e57613f5d613b30565b5b613f6a85828601613eea565b9150509250929050565b6000819050919050565b613f8781613f74565b82525050565b6000602082019050613fa26000830184613f7e565b92915050565b600067ffffffffffffffff821115613fc357613fc2613ded565b5b613fcc82613ddc565b9050602081019050919050565b6000613fec613fe784613fa8565b613e4d565b90508281526020810184848401111561400857614007613dd7565b5b614013848285613e99565b509392505050565b600082601f8301126140305761402f613b93565b5b8135614040848260208601613fd9565b91505092915050565b61405281613d23565b811461405d57600080fd5b50565b60008135905061406f81614049565b92915050565b6000806000806080858703121561408f5761408e613b2b565b5b600085013567ffffffffffffffff8111156140ad576140ac613b30565b5b6140b98782880161401b565b94505060206140ca87828801613b7e565b93505060406140db87828801614060565b92505060606140ec87828801613b7e565b91505092959194509250565b60008083601f84011261410e5761410d613b93565b5b8235905067ffffffffffffffff81111561412b5761412a613b98565b5b60208301915083600182028301111561414757614146613b9d565b5b9250929050565b60008060008060008060a0878903121561416b5761416a613b2b565b5b600061417989828a01613b7e565b965050602061418a89828a01613b7e565b955050604061419b89828a01614060565b94505060606141ac89828a01614060565b935050608087013567ffffffffffffffff8111156141cd576141cc613b30565b5b6141d989828a016140f8565b92509250509295509295509295565b600080600080600080600060c0888a03121561420757614206613b2b565b5b60006142158a828b01613b7e565b97505060206142268a828b01613b7e565b96505060406142378a828b01614060565b95505060606142488a828b01613b7e565b94505060806142598a828b01613b7e565b93505060a088013567ffffffffffffffff81111561427a57614279613b30565b5b6142868a828b016140f8565b925092505092959891949750929550565b6000806000604084860312156142b0576142af613b2b565b5b60006142be86828701613b7e565b935050602084013567ffffffffffffffff8111156142df576142de613b30565b5b6142eb86828701613ba2565b92509250509250925092565b600081519050919050565b600082825260208201905092915050565b6000819050602082019050919050565b61432c81613b55565b82525050565b61433b81613d23565b82525050565b6040820160008201516143576000850182614323565b50602082015161436a6020850182614332565b50505050565b600061437c8383614341565b60408301905092915050565b6000602082019050919050565b60006143a0826142f7565b6143aa8185614302565b93506143b583614313565b8060005b838110156143e65781516143cd8882614370565b97506143d883614388565b9250506001810190506143b9565b5085935050505092915050565b6000602082019050818103600083015261440d8184614395565b905092915050565b600081519050919050565b60005b8381101561443e578082015181840152602081019050614423565b60008484015250505050565b600061445582614415565b61445f8185613aa4565b935061446f818560208601614420565b61447881613ddc565b840191505092915050565b6000602082019050818103600083015261449d818461444a565b905092915050565b6000806000606084860312156144be576144bd613b2b565b5b60006144cc86828701613b7e565b93505060206144dd86828701613b7e565b92505060406144ee86828701614060565b9150509250925092565b60008060008060008060a0878903121561451557614514613b2b565b5b600061452389828a01613b7e565b965050602061453489828a01613b7e565b955050604061454589828a01614060565b945050606061455689828a01613b7e565b935050608087013567ffffffffffffffff81111561457757614576613b30565b5b61458389828a016140f8565b92509250509295509295509295565b6000806000806000608086880312156145ae576145ad613b2b565b5b60006145bc88828901613b7e565b95505060206145cd88828901613b7e565b94505060406145de88828901614060565b935050606086013567ffffffffffffffff8111156145ff576145fe613b30565b5b61460b888289016140f8565b92509250509295509295909350565b6000806000806080858703121561463457614633613b2b565b5b600061464287828801613b7e565b945050602061465387828801613b7e565b935050604061466487828801613b7e565b925050606061467587828801613b7e565b91505092959194509250565b7f4e6f74207065726d69742e000000000000000000000000000000000000000000600082015250565b60006146b7600b83613aa4565b91506146c282614681565b602082019050919050565b600060208201905081810360008301526146e6816146aa565b9050919050565b7f4572726f7220617272617920646174612e000000000000000000000000000000600082015250565b6000614723601183613aa4565b915061472e826146ed565b602082019050919050565b6000602082019050818103600083015261475281614716565b9050919050565b7f4e487b7100000000000000000000000000000000000000000000000000000000600052603260045260246000fd5b7f5a45524f5f414444524553530000000000000000000000000000000000000000600082015250565b60006147be600c83613aa4565b91506147c982614788565b602082019050919050565b600060208201905081810360008301526147ed816147b1565b9050919050565b7f5a45524f5f524154450000000000000000000000000000000000000000000000600082015250565b600061482a600983613aa4565b9150614835826147f4565b602082019050919050565b600060208201905081810360008301526148598161481d565b9050919050565b7f4e487b7100000000000000000000000000000000000000000000000000000000600052601160045260246000fd5b600061489a82613d23565b91506148a583613d23565b92508282019050808211156148bd576148bc614860565b5b92915050565b7f494e56414c49445f524154450000000000000000000000000000000000000000600082015250565b60006148f9600c83613aa4565b9150614904826148c3565b602082019050919050565b60006020820190508181036000830152614928816148ec565b9050919050565b60006040820190506149446000830185613d57565b6149516020830184613d57565b9392505050565b60008151905061496781614049565b92915050565b60006020828403121561498357614982613b2b565b5b600061499184828501614958565b91505092915050565b6000815190506149a981613b67565b92915050565b6000602082840312156149c5576149c4613b2b565b5b60006149d38482850161499a565b91505092915050565b600081519050919050565b600082825260208201905092915050565b6000819050602082019050919050565b6000614a148383614323565b60208301905092915050565b6000602082019050919050565b6000614a38826149dc565b614a4281856149e7565b9350614a4d836149f8565b8060005b83811015614a7e578151614a658882614a08565b9750614a7083614a20565b925050600181019050614a51565b5085935050505092915050565b6000604082019050614aa06000830185613d2d565b8181036020830152614ab28184614a2d565b90509392505050565b600067ffffffffffffffff821115614ad657614ad5613ded565b5b602082029050602081019050919050565b6000614afa614af584614abb565b613e4d565b90508083825260208201905060208402830185811115614b1d57614b1c613b9d565b5b835b81811015614b465780614b328882614958565b845260208401935050602081019050614b1f565b5050509392505050565b600082601f830112614b6557614b64613b93565b5b8151614b75848260208601614ae7565b91505092915050565b600060208284031215614b9457614b93613b2b565b5b600082015167ffffffffffffffff811115614bb257614bb1613b30565b5b614bbe84828501614b50565b91505092915050565b6000614bd282613d23565b9150614bdd83613d23565b9250828203905081811115614bf557614bf4614860565b5b92915050565b7f4552524f525f414d4f554e542e00000000000000000000000000000000000000600082015250565b6000614c31600d83613aa4565b9150614c3c82614bfb565b602082019050919050565b60006020820190508181036000830152614c6081614c24565b9050919050565b60006080820190508181036000830152614c81818761444a565b9050614c906020830186613d57565b614c9d6040830185613d57565b614caa6060830184613d2d565b95945050505050565b6000614cbf8385613aa4565b9350614ccc838584613e99565b614cd583613ddc565b840190509392505050565b600060c0820190508181036000830152614cfb81898b614cb3565b9050614d0a6020830188613d57565b614d176040830187613d57565b614d246060830186613d2d565b614d316080830185613d57565b614d3e60a0830184613d2d565b98975050505050505050565b7f496e76616c696420706169722e00000000000000000000000000000000000000600082015250565b6000614d80600d83613aa4565b9150614d8b82614d4a565b602082019050919050565b60006020820190508181036000830152614daf81614d73565b9050919050565b7f4c697175696469747920646f6573206e6f742065786973742e00000000000000600082015250565b6000614dec601983613aa4565b9150614df782614db6565b602082019050919050565b60006020820190508181036000830152614e1b81614ddf565b9050919050565b6000819050919050565b6000819050919050565b6000614e51614e4c614e4784614e22565b614e2c565b613d23565b9050919050565b614e6181614e36565b82525050565b600060a082019050614e7c6000830188613d2d565b614e896020830187614e58565b8181036040830152614e9b8186614a2d565b9050614eaa6060830185613d57565b614eb76080830184613d2d565b9695505050505050565b600060c0820190508181036000830152614edc81898b614cb3565b9050614eeb6020830188613d57565b614ef86040830187613d2d565b614f056060830186613d57565b614f126080830185613d57565b614f1f60a0830184613d57565b98975050505050505050565b60006dffffffffffffffffffffffffffff82169050919050565b614f4e81614f2b565b8114614f5957600080fd5b50565b600081519050614f6b81614f45565b92915050565b600063ffffffff82169050919050565b614f8a81614f71565b8114614f9557600080fd5b50565b600081519050614fa781614f81565b92915050565b600080600060608486031215614fc657614fc5613b2b565b5b6000614fd486828701614f5c565b9350506020614fe586828701614f5c565b9250506040614ff686828701614f98565b9150509250925092565b600061501b61501661501184614f2b565b614e2c565b613d23565b9050919050565b61502b81615000565b82525050565b60006060820190506150466000830186613d2d565b6150536020830185615022565b6150606040830184615022565b949350505050565b7f4e487b7100000000000000000000000000000000000000000000000000000000600052602160045260246000fd5b600381106150a8576150a7615068565b5b50565b60008190506150b982615097565b919050565b60006150c9826150ab565b9050919050565b6150d9816150be565b82525050565b60006101208201905081810360008301526150fb818c8e614cb3565b905061510a602083018b613d57565b615117604083018a613d57565b6151246060830189613d2d565b6151316080830188613d57565b61513e60a0830187613d2d565b61514b60c0830186613d57565b61515860e0830185613d2d565b6151666101008301846150d0565b9b9a5050505050505050505050565b7f5a45524f5f414d4f554e54000000000000000000000000000000000000000000600082015250565b60006151ab600b83613aa4565b91506151b682615175565b602082019050919050565b600060208201905081810360008301526151da8161519e565b9050919050565b60006060820190506151f66000830186613d57565b6152036020830185613d57565b6152106040830184613d2d565b949350505050565b7f504149525f4e4f545f5245414459000000000000000000000000000000000000600082015250565b600061524e600e83613aa4565b915061525982615218565b602082019050919050565b6000602082019050818103600083015261527d81615241565b9050919050565b60006101008201905061529a600083018b613d57565b6152a7602083018a613d57565b6152b46040830189613d2d565b6152c16060830188613d2d565b6152ce6080830187614e58565b6152db60a0830186614e58565b6152e860c0830185613d57565b6152f560e0830184613d2d565b9998505050505050505050565b60008060006060848603121561531b5761531a613b2b565b5b600061532986828701614958565b935050602061533a86828701614958565b925050604061534b86828701614958565b9150509250925092565b6000819050919050565b600067ffffffffffffffff82169050919050565b600061538e61538961538484615355565b614e2c565b61535f565b9050919050565b61539e81615373565b82525050565b60006020820190506153b96000830184615395565b92915050565b6153c881613f74565b81146153d357600080fd5b50565b6000815190506153e5816153bf565b92915050565b60006020828403121561540157615400613b2b565b5b600061540f848285016153d6565b91505092915050565b600081519050919050565b600081905092915050565b600061543982615418565b6154438185615423565b9350615453818560208601614420565b80840191505092915050565b600061546b828461542e565b915081905092915050565b60008115159050919050565b61548b81615476565b811461549657600080fd5b50565b6000815190506154a881615482565b92915050565b6000602082840312156154c4576154c3613b2b565b5b60006154d284828501615499565b91505092915050565b7f5472616e7366657248656c7065723a205452414e534645525f46524f4d5f464160008201527f494c454400000000000000000000000000000000000000000000000000000000602082015250565b6000615537602483613aa4565b9150615542826154db565b604082019050919050565b600060208201905081810360008301526155668161552a565b9050919050565b7f5472616e7366657248656c7065723a204554485f5452414e534645525f46414960008201527f4c45440000000000000000000000000000000000000000000000000000000000602082015250565b60006155c9602383613aa4565b91506155d48261556d565b604082019050919050565b600060208201905081810360008301526155f8816155bc565b9050919050565b600061560a82613d23565b915061561583613d23565b925082820261562381613d23565b9150828204841483151761563a57615639614860565b5b5092915050565b7f4e487b7100000000000000000000000000000000000000000000000000000000600052601260045260246000fd5b600061567b82613d23565b915061568683613d23565b92508261569657615695615641565b5b828204905092915050565b7f5472616e7366657248656c7065723a20415050524f56455f4641494c45440000600082015250565b60006156d7601e83613aa4565b91506156e2826156a1565b602082019050919050565b60006020820190508181036000830152615706816156ca565b9050919050565b7f496e73756666696369656e7420616d6f756e742e000000000000000000000000600082015250565b6000615743601483613aa4565b915061574e8261570d565b602082019050919050565b6000602082019050818103600083015261577281615736565b9050919050565b600060e08201905061578e600083018a613d57565b61579b6020830189613d57565b6157a86040830188613d2d565b6157b56060830187614e58565b6157c26080830186614e58565b6157cf60a0830185613d57565b6157dc60c0830184613d2d565b98975050505050505050565b600080604083850312156157ff576157fe613b2b565b5b600061580d85828601614958565b925050602061581e85828601614958565b9150509250929050565b7f5472616e7366657248656c7065723a205452414e534645525f4641494c454400600082015250565b600061585e601f83613aa4565b915061586982615828565b602082019050919050565b6000602082019050818103600083015261588d81615851565b905091905056fea2646970667358221220ea329ba2477b0ddd2e0a0fb2176d23cf053b3edd248d94f36e54beba4152f15b64736f6c63430008160033","linkReferences":{}},"methodIdentifiers":{"UPGRADE_INTERFACE_VERSION()":"ad3cb1cc","USDT()":"c54e44eb","WBNB()":"8dd95002","addLiquidity(address,address,uint256,string)":"d9105f63","admin()":"f851a440","getAllowance(address,address)":"0af4187d","getPrice(address)":"41976e09","getQuoteAmount(address,address,uint256)":"b68cdb31","initialize(address,address,address,address)":"f8c8765e","multiBalanceOf(address,address[])":"9f166cf1","multiRecharge(address,address,uint256,uint256,string)":"71862276","owner()":"8da5cb5b","proxiableUUID()":"52d1902d","recipient()":"66d003ac","removeLiquidity(address,address,uint256,address,string)":"c474603d","renounceOwnership()":"715018a6","sender()":"67e404ce","setAllocation(address,address[],uint256[])":"07e312a4","swapExactIn(address,address,uint256,address,address,string)":"762cdf81","transferOwnership(address)":"f2fde38b","uniswapV2Router()":"1694505e","uniswapV2factory()":"70fe251b","upgradeToAndCall(address,bytes)":"4f1ef286","withdraw(string,address,uint256,address)":"62a33811"},"id":44}