{"abi":[{"type":"receive","stateMutability":"payable"},{"type":"function","name":"UPGRADE_INTERFACE_VERSION","inputs":[],"outputs":[{"name":"","type":"string","internalType":"string"}],"stateMutability":"view"},{"type":"function","name":"USDT","inputs":[],"outputs":[{"name":"","type":"address","internalType":"address"}],"stateMutability":"view"},{"type":"function","name":"WBNB","inputs":[],"outputs":[{"name":"","type":"address","internalType":"address"}],"stateMutability":"view"},{"type":"function","name":"addLiquidity","inputs":[{"name":"token0","type":"address","internalType":"address"},{"name":"token1","type":"address","internalType":"address"},{"name":"amount0","type":"uint256","internalType":"uint256"},{"name":"remark","type":"string","internalType":"string"}],"outputs":[],"stateMutability":"nonpayable"},{"type":"function","name":"admin","inputs":[],"outputs":[{"name":"","type":"address","internalType":"address"}],"stateMutability":"view"},{"type":"function","name":"getAllowance","inputs":[{"name":"token","type":"address","internalType":"address"},{"name":"owner","type":"address","internalType":"address"},{"name":"spender","type":"address","internalType":"address"}],"outputs":[{"name":"","type":"uint256","internalType":"uint256"}],"stateMutability":"view"},{"type":"function","name":"getPrice","inputs":[{"name":"token","type":"address","internalType":"address"}],"outputs":[{"name":"","type":"address","internalType":"address"},{"name":"","type":"uint256","internalType":"uint256"}],"stateMutability":"view"},{"type":"function","name":"getQuoteAmount","inputs":[{"name":"token0","type":"address","internalType":"address"},{"name":"token1","type":"address","internalType":"address"},{"name":"amount0","type":"uint256","internalType":"uint256"}],"outputs":[{"name":"","type":"uint256","internalType":"uint256"}],"stateMutability":"view"},{"type":"function","name":"initialize","inputs":[{"name":"_router","type":"address","internalType":"address"},{"name":"_admin","type":"address","internalType":"address"},{"name":"_recipient","type":"address","internalType":"address"},{"name":"_sender","type":"address","internalType":"address"}],"outputs":[],"stateMutability":"nonpayable"},{"type":"function","name":"multiBalanceOf","inputs":[{"name":"token","type":"address","internalType":"address"},{"name":"users","type":"address[]","internalType":"address[]"}],"outputs":[{"name":"","type":"tuple[]","internalType":"struct Recharge.Info[]","components":[{"name":"user","type":"address","internalType":"address"},{"name":"amount","type":"uint256","internalType":"uint256"}]}],"stateMutability":"view"},{"type":"function","name":"multiRecharge","inputs":[{"name":"token0","type":"address","internalType":"address"},{"name":"token1","type":"address","internalType":"address"},{"name":"amount0","type":"uint256","internalType":"uint256"},{"name":"amount1","type":"uint256","internalType":"uint256"},{"name":"remark","type":"string","internalType":"string"}],"outputs":[],"stateMutability":"nonpayable"},{"type":"function","name":"owner","inputs":[],"outputs":[{"name":"","type":"address","internalType":"address"}],"stateMutability":"view"},{"type":"function","name":"proxiableUUID","inputs":[],"outputs":[{"name":"","type":"bytes32","internalType":"bytes32"}],"stateMutability":"view"},{"type":"function","name":"recipient","inputs":[],"outputs":[{"name":"","type":"address","internalType":"address"}],"stateMutability":"view"},{"type":"function","name":"removeLiquidity","inputs":[{"name":"token0","type":"address","internalType":"address"},{"name":"token1","type":"address","internalType":"address"},{"name":"amount","type":"uint256","internalType":"uint256"},{"name":"to","type":"address","internalType":"address"},{"name":"remark","type":"string","internalType":"string"}],"outputs":[],"stateMutability":"nonpayable"},{"type":"function","name":"renounceOwnership","inputs":[],"outputs":[],"stateMutability":"nonpayable"},{"type":"function","name":"sender","inputs":[],"outputs":[{"name":"","type":"address","internalType":"address"}],"stateMutability":"view"},{"type":"function","name":"setAllocation","inputs":[{"name":"token","type":"address","internalType":"address"},{"name":"recipients","type":"address[]","internalType":"address[]"},{"name":"rates","type":"uint256[]","internalType":"uint256[]"}],"outputs":[],"stateMutability":"nonpayable"},{"type":"function","name":"swapExactIn","inputs":[{"name":"fromToken","type":"address","internalType":"address"},{"name":"targetToken","type":"address","internalType":"address"},{"name":"fromAmount","type":"uint256","internalType":"uint256"},{"name":"from","type":"address","internalType":"address"},{"name":"to","type":"address","internalType":"address"},{"name":"remark","type":"string","internalType":"string"}],"outputs":[],"stateMutability":"nonpayable"},{"type":"function","name":"transferOwnership","inputs":[{"name":"newOwner","type":"address","internalType":"address"}],"outputs":[],"stateMutability":"nonpayable"},{"type":"function","name":"uniswapV2Router","inputs":[],"outputs":[{"name":"","type":"address","internalType":"address"}],"stateMutability":"view"},{"type":"function","name":"uniswapV2factory","inputs":[],"outputs":[{"name":"","type":"address","internalType":"address"}],"stateMutability":"view"},{"type":"function","name":"upgradeToAndCall","inputs":[{"name":"newImplementation","type":"address","internalType":"address"},{"name":"data","type":"bytes","internalType":"bytes"}],"outputs":[],"stateMutability":"payable"},{"type":"function","name":"withdraw","inputs":[{"name":"remark","type":"string","internalType":"string"},{"name":"token","type":"address","internalType":"address"},{"name":"amount","type":"uint256","internalType":"uint256"},{"name":"to","type":"address","internalType":"address"}],"outputs":[],"stateMutability":"nonpayable"},{"type":"event","name":"Exchange","inputs":[{"name":"remark","type":"string","indexed":false,"internalType":"string"},{"name":"original","type":"address","indexed":false,"internalType":"address"},{"name":"amount","type":"uint256","indexed":false,"internalType":"uint256"},{"name":"target","type":"address","indexed":false,"internalType":"address"},{"name":"from","type":"address","indexed":false,"internalType":"address"},{"name":"to","type":"address","indexed":false,"internalType":"address"}],"anonymous":false},{"type":"event","name":"Initialized","inputs":[{"name":"version","type":"uint64","indexed":false,"internalType":"uint64"}],"anonymous":false},{"type":"event","name":"Liquidity","inputs":[{"name":"remark","type":"string","indexed":false,"internalType":"string"},{"name":"token0","type":"address","indexed":false,"internalType":"address"},{"name":"amount0","type":"uint256","indexed":false,"internalType":"uint256"},{"name":"token1","type":"address","indexed":false,"internalType":"address"},{"name":"amount1","type":"uint256","indexed":false,"internalType":"uint256"},{"name":"pair","type":"address","indexed":false,"internalType":"address"},{"name":"liquidity","type":"uint256","indexed":false,"internalType":"uint256"},{"name":"mark","type":"uint8","indexed":false,"internalType":"enum Recharge.Mark"}],"anonymous":false},{"type":"event","name":"MultiRecharge","inputs":[{"name":"remark","type":"string","indexed":false,"internalType":"string"},{"name":"token0","type":"address","indexed":false,"internalType":"address"},{"name":"amount0","type":"uint256","indexed":false,"internalType":"uint256"},{"name":"token1","type":"address","indexed":false,"internalType":"address"},{"name":"amount1","type":"uint256","indexed":false,"internalType":"uint256"}],"anonymous":false},{"type":"event","name":"OwnershipTransferred","inputs":[{"name":"previousOwner","type":"address","indexed":true,"internalType":"address"},{"name":"newOwner","type":"address","indexed":true,"internalType":"address"}],"anonymous":false},{"type":"event","name":"Upgraded","inputs":[{"name":"implementation","type":"address","indexed":true,"internalType":"address"}],"anonymous":false},{"type":"event","name":"Withdraw","inputs":[{"name":"remark","type":"string","indexed":false,"internalType":"string"},{"name":"token","type":"address","indexed":false,"internalType":"address"},{"name":"to","type":"address","indexed":false,"internalType":"address"},{"name":"amount","type":"uint256","indexed":false,"internalType":"uint256"}],"anonymous":false},{"type":"error","name":"AddressEmptyCode","inputs":[{"name":"target","type":"address","internalType":"address"}]},{"type":"error","name":"ERC1967InvalidImplementation","inputs":[{"name":"implementation","type":"address","internalType":"address"}]},{"type":"error","name":"ERC1967NonPayable","inputs":[]},{"type":"error","name":"FailedCall","inputs":[]},{"type":"error","name":"InvalidInitialization","inputs":[]},{"type":"error","name":"NotInitializing","inputs":[]},{"type":"error","name":"OwnableInvalidOwner","inputs":[{"name":"owner","type":"address","internalType":"address"}]},{"type":"error","name":"OwnableUnauthorizedAccount","inputs":[{"name":"account","type":"address","internalType":"address"}]},{"type":"error","name":"ReentrancyGuardReentrantCall","inputs":[]},{"type":"error","name":"UUPSUnauthorizedCallContext","inputs":[]},{"type":"error","name":"UUPSUnsupportedProxiableUUID","inputs":[{"name":"slot","type":"bytes32","internalType":"bytes32"}]}],"bytecode":{"object":"0x60a06040523073ffffffffffffffffffffffffffffffffffffffff1660809073ffffffffffffffffffffffffffffffffffffffff1681525034801561004357600080fd5b5060016000819055506080516158bb62000076600039600081816127e60152818161283b01526129f601526158bb6000f3fe60806040526004361061014f5760003560e01c80638da5cb5b116100b6578063c54e44eb1161006f578063c54e44eb146104a4578063d9105f63146104cf578063e7092b41146104f8578063f2fde38b14610535578063f851a4401461055e578063f8c8765e146105895761018f565b80638da5cb5b146103805780638dd95002146103ab5780639f166cf1146103d6578063ad3cb1cc14610413578063b68cdb311461043e578063c474603d1461047b5761018f565b806366d003ac1161010857806366d003ac1461029657806367e404ce146102c157806370fe251b146102ec578063715018a614610317578063718622761461032e578063762cdf81146103575761018f565b806307e312a4146101945780631694505e146101bd57806341976e09146101e85780634f1ef2861461022657806352d1902d1461024257806362a338111461026d5761018f565b3661018f576040517f08c379a000000000000000000000000000000000000000000000000000000000815260040161018690613afc565b60405180910390fd5b600080fd5b3480156101a057600080fd5b506101bb60048036038101906101b69190613c49565b6105b2565b005b3480156101c957600080fd5b506101d2610986565b6040516101df9190613ced565b60405180910390f35b3480156101f457600080fd5b5061020f600480360381019061020a9190613d08565b6109ac565b60405161021d929190613d4e565b60405180910390f35b610240600480360381019061023b9190613eb8565b610f8e565b005b34801561024e57600080fd5b50610257610fad565b6040516102649190613f2d565b60405180910390f35b34801561027957600080fd5b50610294600480360381019061028f9190614015565b610fe0565b005b3480156102a257600080fd5b506102ab611168565b6040516102b89190613ced565b60405180910390f35b3480156102cd57600080fd5b506102d661118e565b6040516102e39190613ced565b60405180910390f35b3480156102f857600080fd5b506103016111b4565b60405161030e9190613ced565b60405180910390f35b34801561032357600080fd5b5061032c6111da565b005b34801561033a57600080fd5b50610355600480360381019061035091906140ee565b6111ee565b005b34801561036357600080fd5b5061037e60048036038101906103799190614188565b61126f565b005b34801561038c57600080fd5b50610395611750565b6040516103a29190613ced565b60405180910390f35b3480156103b757600080fd5b506103c0611788565b6040516103cd9190613ced565b60405180910390f35b3480156103e257600080fd5b506103fd60048036038101906103f89190614237565b6117a0565b60405161040a9190614393565b60405180910390f35b34801561041f57600080fd5b50610428611a3e565b6040516104359190614423565b60405180910390f35b34801561044a57600080fd5b5061046560048036038101906104609190614445565b611a77565b6040516104729190614498565b60405180910390f35b34801561048757600080fd5b506104a2600480360381019061049d91906144b3565b611e85565b005b3480156104b057600080fd5b506104b9611f7f565b6040516104c69190613ced565b60405180910390f35b3480156104db57600080fd5b506104f660048036038101906104f1919061454d565b611f97565b005b34801561050457600080fd5b5061051f600480360381019061051a91906145d5565b612343565b60405161052c9190614498565b60405180910390f35b34801561054157600080fd5b5061055c60048036038101906105579190613d08565b6123ca565b005b34801561056a57600080fd5b50610573612450565b6040516105809190613ced565b60405180910390f35b34801561059557600080fd5b506105b060048036038101906105ab9190614628565b612476565b005b3373ffffffffffffffffffffffffffffffffffffffff16600460009054906101000a900473ffffffffffffffffffffffffffffffffffffffff1673ffffffffffffffffffffffffffffffffffffffff1614610642576040517f08c379a0000000000000000000000000000000000000000000000000000000008152600401610639906146db565b60405180910390fd5b81819050848490501461068a576040517f08c379a000000000000000000000000000000000000000000000000000000000815260040161068190614747565b60405180910390fd5b600160008673ffffffffffffffffffffffffffffffffffffffff1673ffffffffffffffffffffffffffffffffffffffff168152602001908152602001600020600080820160006106da9190613a10565b6001820160006106ea9190613a31565b50506000600160008773ffffffffffffffffffffffffffffffffffffffff1673ffffffffffffffffffffffffffffffffffffffff1681526020019081526020016000209050600080600090505b8686905081101561093857600073ffffffffffffffffffffffffffffffffffffffff1687878381811061076d5761076c614767565b5b90506020020160208101906107829190613d08565b73ffffffffffffffffffffffffffffffffffffffff16036107d8576040517f08c379a00000000000000000000000000000000000000000000000000000000081526004016107cf906147e2565b60405180910390fd5b60008585838181106107ed576107ec614767565b5b9050602002013511610834576040517f08c379a000000000000000000000000000000000000000000000000000000000815260040161082b9061484e565b60405180910390fd5b8260000187878381811061084b5761084a614767565b5b90506020020160208101906108609190613d08565b9080600181540180825580915050600190039060005260206000200160009091909190916101000a81548173ffffffffffffffffffffffffffffffffffffffff021916908373ffffffffffffffffffffffffffffffffffffffff160217905550826001018585838181106108d7576108d6614767565b5b90506020020135908060018154018082558091505060019003906000526020600020016000909190919091505584848281811061091757610916614767565b5b9050602002013582610929919061489d565b91508080600101915050610737565b506103e8811461097d576040517f08c379a00000000000000000000000000000000000000000000000000000000081526004016109749061491d565b60405180910390fd5b50505050505050565b600260009054906101000a900473ffffffffffffffffffffffffffffffffffffffff1681565b6000806000600360009054906101000a900473ffffffffffffffffffffffffffffffffffffffff1673ffffffffffffffffffffffffffffffffffffffff1663e6a439058573e901e30661dd4fd238c4bfe44b000058561a7b0e6040518363ffffffff1660e01b8152600401610a2292919061493d565b602060405180830381865afa158015610a3f573d6000803e3d6000fd5b505050506040513d601f19601f82011682018060405250810190610a63919061497b565b90506000600360009054906101000a900473ffffffffffffffffffffffffffffffffffffffff1673ffffffffffffffffffffffffffffffffffffffff1663e6a4390586733ea660cdc7b7ccc9f81c955f1f2412dceb8518a56040518363ffffffff1660e01b8152600401610ad892919061493d565b602060405180830381865afa158015610af5573d6000803e3d6000fd5b505050506040513d601f19601f82011682018060405250810190610b19919061497b565b90506000670de0b6b3a7640000905060008073ffffffffffffffffffffffffffffffffffffffff168373ffffffffffffffffffffffffffffffffffffffff1614610d53576000600267ffffffffffffffff811115610b7a57610b79613d8d565b5b604051908082528060200260200182016040528015610ba85781602001602082028036833780820191505090505b5090508781600081518110610bc057610bbf614767565b5b602002602001019073ffffffffffffffffffffffffffffffffffffffff16908173ffffffffffffffffffffffffffffffffffffffff1681525050733ea660cdc7b7ccc9f81c955f1f2412dceb8518a581600181518110610c2357610c22614767565b5b602002602001019073ffffffffffffffffffffffffffffffffffffffff16908173ffffffffffffffffffffffffffffffffffffffff16815250506000600260009054906101000a900473ffffffffffffffffffffffffffffffffffffffff1673ffffffffffffffffffffffffffffffffffffffff1663d06ca61f85846040518363ffffffff1660e01b8152600401610cbc929190614a57565b600060405180830381865afa158015610cd9573d6000803e3d6000fd5b505050506040513d6000823e3d601f19601f82011682018060405250810190610d029190614b5f565b90508060018251610d139190614ba8565b81518110610d2457610d23614767565b5b60200260200101519250733ea660cdc7b7ccc9f81c955f1f2412dceb8518a58397509750505050505050610f89565b600073ffffffffffffffffffffffffffffffffffffffff168473ffffffffffffffffffffffffffffffffffffffff1614610f7d576000600267ffffffffffffffff811115610da457610da3613d8d565b5b604051908082528060200260200182016040528015610dd25781602001602082028036833780820191505090505b5090508781600081518110610dea57610de9614767565b5b602002602001019073ffffffffffffffffffffffffffffffffffffffff16908173ffffffffffffffffffffffffffffffffffffffff168152505073e901e30661dd4fd238c4bfe44b000058561a7b0e81600181518110610e4d57610e4c614767565b5b602002602001019073ffffffffffffffffffffffffffffffffffffffff16908173ffffffffffffffffffffffffffffffffffffffff16815250506000600260009054906101000a900473ffffffffffffffffffffffffffffffffffffffff1673ffffffffffffffffffffffffffffffffffffffff1663d06ca61f85846040518363ffffffff1660e01b8152600401610ee6929190614a57565b600060405180830381865afa158015610f03573d6000803e3d6000fd5b505050506040513d6000823e3d601f19601f82011682018060405250810190610f2c9190614b5f565b90508060018251610f3d9190614ba8565b81518110610f4e57610f4d614767565b5b6020026020010151925073e901e30661dd4fd238c4bfe44b000058561a7b0e8397509750505050505050610f89565b60008095509550505050505b915091565b610f966127e4565b610f9f826128ca565b610fa982826128d5565b5050565b6000610fb76129f4565b7f360894a13ba1a3210667c828492db98dca3e2076cc3735a920a3ca505d382bbc60001b905090565b3373ffffffffffffffffffffffffffffffffffffffff16600460009054906101000a900473ffffffffffffffffffffffffffffffffffffffff1673ffffffffffffffffffffffffffffffffffffffff1614611070576040517f08c379a0000000000000000000000000000000000000000000000000000000008152600401611067906146db565b60405180910390fd5b600082116110b3576040517f08c379a00000000000000000000000000000000000000000000000000000000081526004016110aa90614c28565b60405180910390fd5b600073ffffffffffffffffffffffffffffffffffffffff168373ffffffffffffffffffffffffffffffffffffffff161461111a5761111583600660009054906101000a900473ffffffffffffffffffffffffffffffffffffffff168385612a7b565b611125565b6111248183612bb4565b5b7f99310eed5bb161586b62449f89ccaa4580f85f953cd64218092edfc2b1f5fce78484838560405161115a9493929190614c48565b60405180910390a150505050565b600560009054906101000a900473ffffffffffffffffffffffffffffffffffffffff1681565b600660009054906101000a900473ffffffffffffffffffffffffffffffffffffffff1681565b600360009054906101000a900473ffffffffffffffffffffffffffffffffffffffff1681565b6111e2612cb4565b6111ec6000612d3b565b565b6111f6612e12565b600084111561120a576112098685612e58565b5b600083111561121e5761121d8584612e58565b5b7f654e20593b10fd03b9dbe3938497fafa11a284960052526dc709eb43040d3c0782828887898860405161125796959493929190614cc1565b60405180910390a1611267612fd8565b505050505050565b3373ffffffffffffffffffffffffffffffffffffffff16600460009054906101000a900473ffffffffffffffffffffffffffffffffffffffff1673ffffffffffffffffffffffffffffffffffffffff16146112ff576040517f08c379a00000000000000000000000000000000000000000000000000000000081526004016112f6906146db565b60405180910390fd5b6000600260009054906101000a900473ffffffffffffffffffffffffffffffffffffffff1673ffffffffffffffffffffffffffffffffffffffff1663c45a01556040518163ffffffff1660e01b8152600401602060405180830381865afa15801561136e573d6000803e3d6000fd5b505050506040513d601f19601f82011682018060405250810190611392919061497b565b905060008173ffffffffffffffffffffffffffffffffffffffff1663e6a439058a8a6040518363ffffffff1660e01b81526004016113d192919061493d565b602060405180830381865afa1580156113ee573d6000803e3d6000fd5b505050506040513d601f19601f82011682018060405250810190611412919061497b565b9050600073ffffffffffffffffffffffffffffffffffffffff168173ffffffffffffffffffffffffffffffffffffffff1603611483576040517f08c379a000000000000000000000000000000000000000000000000000000000815260040161147a90614d69565b60405180910390fd5b60008173ffffffffffffffffffffffffffffffffffffffff166318160ddd6040518163ffffffff1660e01b8152600401602060405180830381865afa1580156114d0573d6000803e3d6000fd5b505050506040513d601f19601f820116820180604052508101906114f49190614d89565b905060008111611539576040517f08c379a000000000000000000000000000000000000000000000000000000000815260040161153090614e02565b60405180910390fd5b6115458a88308b612a7b565b6115728a600260009054906101000a900473ffffffffffffffffffffffffffffffffffffffff168a612fe2565b6000600267ffffffffffffffff81111561158f5761158e613d8d565b5b6040519080825280602002602001820160405280156115bd5781602001602082028036833780820191505090505b5090508a816000815181106115d5576115d4614767565b5b602002602001019073ffffffffffffffffffffffffffffffffffffffff16908173ffffffffffffffffffffffffffffffffffffffff1681525050898160018151811061162457611623614767565b5b602002602001019073ffffffffffffffffffffffffffffffffffffffff16908173ffffffffffffffffffffffffffffffffffffffff1681525050600260009054906101000a900473ffffffffffffffffffffffffffffffffffffffff1673ffffffffffffffffffffffffffffffffffffffff16635c11d7958a6000848b601e426116ae919061489d565b6040518663ffffffff1660e01b81526004016116ce959493929190614e67565b600060405180830381600087803b1580156116e857600080fd5b505af11580156116fc573d6000803e3d6000fd5b505050507fb8d32d215e4cb191d4eab15881b20b08541e7696fca52eb4efe27e77011f738c86868d8c8e8d8d60405161173b9796959493929190614ec1565b60405180910390a15050505050505050505050565b60008061175b613118565b90508060000160009054906101000a900473ffffffffffffffffffffffffffffffffffffffff1691505090565b73e901e30661dd4fd238c4bfe44b000058561a7b0e81565b6060600083839050905060008167ffffffffffffffff8111156117c6576117c5613d8d565b5b6040519080825280602002602001820160405280156117ff57816020015b6117ec613a52565b8152602001906001900390816117e45790505b509050600073ffffffffffffffffffffffffffffffffffffffff168673ffffffffffffffffffffffffffffffffffffffff16036119025760005b828110156118fc57604051806040016040528087878481811061185f5761185e614767565b5b90506020020160208101906118749190613d08565b73ffffffffffffffffffffffffffffffffffffffff1681526020018787848181106118a2576118a1614767565b5b90506020020160208101906118b79190613d08565b73ffffffffffffffffffffffffffffffffffffffff16318152508282815181106118e4576118e3614767565b5b60200260200101819052508080600101915050611839565b50611a32565b600086905060005b83811015611a2f5760405180604001604052808888848181106119305761192f614767565b5b90506020020160208101906119459190613d08565b73ffffffffffffffffffffffffffffffffffffffff1681526020018373ffffffffffffffffffffffffffffffffffffffff166370a082318a8a8681811061198f5761198e614767565b5b90506020020160208101906119a49190613d08565b6040518263ffffffff1660e01b81526004016119c09190613ced565b602060405180830381865afa1580156119dd573d6000803e3d6000fd5b505050506040513d601f19601f82011682018060405250810190611a019190614d89565b815250838281518110611a1757611a16614767565b5b6020026020010181905250808060010191505061190a565b50505b80925050509392505050565b6040518060400160405280600581526020017f352e302e3000000000000000000000000000000000000000000000000000000081525081565b600080600260009054906101000a900473ffffffffffffffffffffffffffffffffffffffff1673ffffffffffffffffffffffffffffffffffffffff1663c45a01556040518163ffffffff1660e01b8152600401602060405180830381865afa158015611ae7573d6000803e3d6000fd5b505050506040513d601f19601f82011682018060405250810190611b0b919061497b565b905060008173ffffffffffffffffffffffffffffffffffffffff1663e6a4390587876040518363ffffffff1660e01b8152600401611b4a92919061493d565b602060405180830381865afa158015611b67573d6000803e3d6000fd5b505050506040513d601f19601f82011682018060405250810190611b8b919061497b565b9050600073ffffffffffffffffffffffffffffffffffffffff168173ffffffffffffffffffffffffffffffffffffffff1603611bcc57600092505050611e7e565b6000808273ffffffffffffffffffffffffffffffffffffffff16630902f1ac6040518163ffffffff1660e01b8152600401606060405180830381865afa158015611c1a573d6000803e3d6000fd5b505050506040513d601f19601f82011682018060405250810190611c3e9190614fad565b50915091506000826dffffffffffffffffffffffffffff161480611c7257506000816dffffffffffffffffffffffffffff16145b15611c84576000945050505050611e7e565b60008373ffffffffffffffffffffffffffffffffffffffff16630dfe16816040518163ffffffff1660e01b8152600401602060405180830381865afa158015611cd1573d6000803e3d6000fd5b505050506040513d601f19601f82011682018060405250810190611cf5919061497b565b90508873ffffffffffffffffffffffffffffffffffffffff168173ffffffffffffffffffffffffffffffffffffffff1603611dd657600260009054906101000a900473ffffffffffffffffffffffffffffffffffffffff1673ffffffffffffffffffffffffffffffffffffffff1663ad615dec8885856040518463ffffffff1660e01b8152600401611d8993929190615031565b602060405180830381865afa158015611da6573d6000803e3d6000fd5b505050506040513d601f19601f82011682018060405250810190611dca9190614d89565b95505050505050611e7e565b600260009054906101000a900473ffffffffffffffffffffffffffffffffffffffff1673ffffffffffffffffffffffffffffffffffffffff1663ad615dec8884866040518463ffffffff1660e01b8152600401611e3593929190615031565b602060405180830381865afa158015611e52573d6000803e3d6000fd5b505050506040513d601f19601f82011682018060405250810190611e769190614d89565b955050505050505b9392505050565b3373ffffffffffffffffffffffffffffffffffffffff16600460009054906101000a900473ffffffffffffffffffffffffffffffffffffffff1673ffffffffffffffffffffffffffffffffffffffff1614611f15576040517f08c379a0000000000000000000000000000000000000000000000000000000008152600401611f0c906146db565b60405180910390fd5b6000806000611f2689898989613140565b9250925092507f40b3035bfbf613475271fc900f5b40507464fc0a3fe970e8be28e78a4cfe8dfc85858b858c86898e6002604051611f6c999897969594939291906150df565b60405180910390a1505050505050505050565b733ea660cdc7b7ccc9f81c955f1f2412dceb8518a581565b611f9f612e12565b60008311611fe2576040517f08c379a0000000000000000000000000000000000000000000000000000000008152600401611fd9906151b2565b60405180910390fd5b60003073ffffffffffffffffffffffffffffffffffffffff1663b68cdb318787876040518463ffffffff1660e01b8152600401612021939291906151d2565b602060405180830381865afa15801561203e573d6000803e3d6000fd5b505050506040513d601f19601f820116820180604052508101906120629190614d89565b9050600081116120a7576040517f08c379a000000000000000000000000000000000000000000000000000000000815260040161209e90615255565b60405180910390fd5b6120b386333087612a7b565b6120bf85333084612a7b565b6120ec86600260009054906101000a900473ffffffffffffffffffffffffffffffffffffffff1686612fe2565b61211985600260009054906101000a900473ffffffffffffffffffffffffffffffffffffffff1683612fe2565b6000806000600260009054906101000a900473ffffffffffffffffffffffffffffffffffffffff1673ffffffffffffffffffffffffffffffffffffffff1663e8e337008a8a8a8860008030426040518963ffffffff1660e01b8152600401612188989796959493929190615275565b6060604051808303816000875af11580156121a7573d6000803e3d6000fd5b505050506040513d601f19601f820116820180604052508101906121cb91906152f3565b9250925092506000600260009054906101000a900473ffffffffffffffffffffffffffffffffffffffff1673ffffffffffffffffffffffffffffffffffffffff1663c45a01556040518163ffffffff1660e01b8152600401602060405180830381865afa158015612240573d6000803e3d6000fd5b505050506040513d601f19601f82011682018060405250810190612264919061497b565b905060008173ffffffffffffffffffffffffffffffffffffffff1663e6a439058c8c6040518363ffffffff1660e01b81526004016122a392919061493d565b602060405180830381865afa1580156122c0573d6000803e3d6000fd5b505050506040513d601f19601f820116820180604052508101906122e4919061497b565b90507f40b3035bfbf613475271fc900f5b40507464fc0a3fe970e8be28e78a4cfe8dfc88888d888e89878a6001604051612326999897969594939291906150df565b60405180910390a150505050505061233c612fd8565b5050505050565b60008373ffffffffffffffffffffffffffffffffffffffff1663dd62ed3e84846040518363ffffffff1660e01b815260040161238092919061493d565b602060405180830381865afa15801561239d573d6000803e3d6000fd5b505050506040513d601f19601f820116820180604052508101906123c19190614d89565b90509392505050565b6123d2612cb4565b600073ffffffffffffffffffffffffffffffffffffffff168173ffffffffffffffffffffffffffffffffffffffff16036124445760006040517f1e4fbdf700000000000000000000000000000000000000000000000000000000815260040161243b9190613ced565b60405180910390fd5b61244d81612d3b565b50565b600460009054906101000a900473ffffffffffffffffffffffffffffffffffffffff1681565b600061248061347e565b905060008160000160089054906101000a900460ff1615905060008260000160009054906101000a900467ffffffffffffffff1690506000808267ffffffffffffffff161480156124ce5750825b9050600060018367ffffffffffffffff16148015612503575060003073ffffffffffffffffffffffffffffffffffffffff163b145b905081158015612511575080155b15612548576040517ff92ee8a900000000000000000000000000000000000000000000000000000000815260040160405180910390fd5b60018560000160006101000a81548167ffffffffffffffff021916908367ffffffffffffffff16021790555083156125985760018560000160086101000a81548160ff0219169083151502179055505b6125a86125a3613492565b61349a565b88600260006101000a81548173ffffffffffffffffffffffffffffffffffffffff021916908373ffffffffffffffffffffffffffffffffffffffff16021790555087600460006101000a81548173ffffffffffffffffffffffffffffffffffffffff021916908373ffffffffffffffffffffffffffffffffffffffff16021790555086600560006101000a81548173ffffffffffffffffffffffffffffffffffffffff021916908373ffffffffffffffffffffffffffffffffffffffff16021790555085600660006101000a81548173ffffffffffffffffffffffffffffffffffffffff021916908373ffffffffffffffffffffffffffffffffffffffff160217905550600260009054906101000a900473ffffffffffffffffffffffffffffffffffffffff1673ffffffffffffffffffffffffffffffffffffffff1663c45a01556040518163ffffffff1660e01b8152600401602060405180830381865afa158015612719573d6000803e3d6000fd5b505050506040513d601f19601f8201168201806040525081019061273d919061497b565b600360006101000a81548173ffffffffffffffffffffffffffffffffffffffff021916908373ffffffffffffffffffffffffffffffffffffffff16021790555083156127d95760008560000160086101000a81548160ff0219169083151502179055507fc7f505b2f371ae2175ee4913f4499e1f2633a7b5936321eed1cdaeb6115181d260016040516127d09190615395565b60405180910390a15b505050505050505050565b7f000000000000000000000000000000000000000000000000000000000000000073ffffffffffffffffffffffffffffffffffffffff163073ffffffffffffffffffffffffffffffffffffffff16148061289157507f000000000000000000000000000000000000000000000000000000000000000073ffffffffffffffffffffffffffffffffffffffff166128786134ae565b73ffffffffffffffffffffffffffffffffffffffff1614155b156128c8576040517fe07c8dba00000000000000000000000000000000000000000000000000000000815260040160405180910390fd5b565b6128d2612cb4565b50565b8173ffffffffffffffffffffffffffffffffffffffff166352d1902d6040518163ffffffff1660e01b8152600401602060405180830381865afa92505050801561293d57506040513d601f19601f8201168201806040525081019061293a91906153dc565b60015b61297e57816040517f4c9c8ce30000000000000000000000000000000000000000000000000000000081526004016129759190613ced565b60405180910390fd5b7f360894a13ba1a3210667c828492db98dca3e2076cc3735a920a3ca505d382bbc60001b81146129e557806040517faa1d49a40000000000000000000000000000000000000000000000000000000081526004016129dc9190613f2d565b60405180910390fd5b6129ef8383613505565b505050565b7f000000000000000000000000000000000000000000000000000000000000000073ffffffffffffffffffffffffffffffffffffffff163073ffffffffffffffffffffffffffffffffffffffff1614612a79576040517fe07c8dba00000000000000000000000000000000000000000000000000000000815260040160405180910390fd5b565b6000808573ffffffffffffffffffffffffffffffffffffffff166323b872dd868686604051602401612aaf939291906151d2565b6040516020818303038152906040529060e01b6020820180517bffffffffffffffffffffffffffffffffffffffffffffffffffffffff8381831617835250505050604051612afd9190615450565b6000604051808303816000865af19150503d8060008114612b3a576040519150601f19603f3d011682016040523d82523d6000602084013e612b3f565b606091505b5091509150818015612b6d5750600081511480612b6c575080806020019051810190612b6b919061549f565b5b5b612bac576040517f08c379a0000000000000000000000000000000000000000000000000000000008152600401612ba39061553e565b60405180910390fd5b505050505050565b60008273ffffffffffffffffffffffffffffffffffffffff1682600067ffffffffffffffff811115612be957612be8613d8d565b5b6040519080825280601f01601f191660200182016040528015612c1b5781602001600182028036833780820191505090505b50604051612c299190615450565b60006040518083038185875af1925050503d8060008114612c66576040519150601f19603f3d011682016040523d82523d6000602084013e612c6b565b606091505b5050905080612caf576040517f08c379a0000000000000000000000000000000000000000000000000000000008152600401612ca6906155d0565b60405180910390fd5b505050565b612cbc613492565b73ffffffffffffffffffffffffffffffffffffffff16612cda611750565b73ffffffffffffffffffffffffffffffffffffffff1614612d3957612cfd613492565b6040517f118cdaa7000000000000000000000000000000000000000000000000000000008152600401612d309190613ced565b60405180910390fd5b565b6000612d45613118565b905060008160000160009054906101000a900473ffffffffffffffffffffffffffffffffffffffff169050828260000160006101000a81548173ffffffffffffffffffffffffffffffffffffffff021916908373ffffffffffffffffffffffffffffffffffffffff1602179055508273ffffffffffffffffffffffffffffffffffffffff168173ffffffffffffffffffffffffffffffffffffffff167f8be0079c531659141344cd1fd0a4f28419497f9722a3daafe3b4186f6b6457e060405160405180910390a3505050565b600260005403612e4e576040517f3ee5aeb500000000000000000000000000000000000000000000000000000000815260040160405180910390fd5b6002600081905550565b612e6482333084612a7b565b6000600160008473ffffffffffffffffffffffffffffffffffffffff1673ffffffffffffffffffffffffffffffffffffffff16815260200190815260200160002090506000816000018054905003612ee957612ee383600560009054906101000a900473ffffffffffffffffffffffffffffffffffffffff1684613578565b50612fd4565b600081600001805490509050600083905060005b82811015612fcf576000600184612f149190614ba8565b8203612f2257829050612f6c565b6103e8856001018381548110612f3b57612f3a614767565b5b906000526020600020015487612f5191906155f0565b612f5b9190615661565b90508083612f699190614ba8565b92505b6000811115612fc157612fc087866000018481548110612f8f57612f8e614767565b5b9060005260206000200160009054906101000a900473ffffffffffffffffffffffffffffffffffffffff1683613578565b5b508080600101915050612efd565b505050505b5050565b6001600081905550565b6000808473ffffffffffffffffffffffffffffffffffffffff1663095ea7b38585604051602401613014929190613d4e565b6040516020818303038152906040529060e01b6020820180517bffffffffffffffffffffffffffffffffffffffffffffffffffffffff83818316178352505050506040516130629190615450565b6000604051808303816000865af19150503d806000811461309f576040519150601f19603f3d011682016040523d82523d6000602084013e6130a4565b606091505b50915091508180156130d257506000815114806130d15750808060200190518101906130d0919061549f565b5b5b613111576040517f08c379a0000000000000000000000000000000000000000000000000000000008152600401613108906156de565b60405180910390fd5b5050505050565b60007f9016d09d72d40fdae2fd8ceac6b6234c7706214fd39c1cd1e609a0528c199300905090565b600080600080600260009054906101000a900473ffffffffffffffffffffffffffffffffffffffff1673ffffffffffffffffffffffffffffffffffffffff1663c45a01556040518163ffffffff1660e01b8152600401602060405180830381865afa1580156131b3573d6000803e3d6000fd5b505050506040513d601f19601f820116820180604052508101906131d7919061497b565b90508073ffffffffffffffffffffffffffffffffffffffff1663e6a4390589896040518363ffffffff1660e01b815260040161321492919061493d565b602060405180830381865afa158015613231573d6000803e3d6000fd5b505050506040513d601f19601f82011682018060405250810190613255919061497b565b9350600073ffffffffffffffffffffffffffffffffffffffff168473ffffffffffffffffffffffffffffffffffffffff16036132c6576040517f08c379a00000000000000000000000000000000000000000000000000000000081526004016132bd90614d69565b60405180910390fd5b60008473ffffffffffffffffffffffffffffffffffffffff166370a08231306040518263ffffffff1660e01b81526004016133019190613ced565b602060405180830381865afa15801561331e573d6000803e3d6000fd5b505050506040513d601f19601f820116820180604052508101906133429190614d89565b905086811015613387576040517f08c379a000000000000000000000000000000000000000000000000000000000815260040161337e9061574a565b60405180910390fd5b6133b485600260009054906101000a900473ffffffffffffffffffffffffffffffffffffffff1689612fe2565b600260009054906101000a900473ffffffffffffffffffffffffffffffffffffffff1673ffffffffffffffffffffffffffffffffffffffff1663baa2abde8a8a8a6000808c601e42613406919061489d565b6040518863ffffffff1660e01b8152600401613428979695949392919061576a565b60408051808303816000875af1158015613446573d6000803e3d6000fd5b505050506040513d601f19601f8201168201806040525081019061346a91906157d9565b809450819550505050509450945094915050565b6000806134896136ae565b90508091505090565b600033905090565b6134a26136d9565b6134ab81613719565b50565b60006134dc7f360894a13ba1a3210667c828492db98dca3e2076cc3735a920a3ca505d382bbc60001b61379f565b60000160009054906101000a900473ffffffffffffffffffffffffffffffffffffffff16905090565b61350e826137a9565b8173ffffffffffffffffffffffffffffffffffffffff167fbc7cd75a20ee27fd9adebab32041f755214dbc6bffa90cc0225b39da2e5c2d3b60405160405180910390a260008151111561356b576135658282613876565b50613574565b61357361396b565b5b5050565b6000808473ffffffffffffffffffffffffffffffffffffffff1663a9059cbb85856040516024016135aa929190613d4e565b6040516020818303038152906040529060e01b6020820180517bffffffffffffffffffffffffffffffffffffffffffffffffffffffff83818316178352505050506040516135f89190615450565b6000604051808303816000865af19150503d8060008114613635576040519150601f19603f3d011682016040523d82523d6000602084013e61363a565b606091505b50915091508180156136685750600081511480613667575080806020019051810190613666919061549f565b5b5b6136a7576040517f08c379a000000000000000000000000000000000000000000000000000000000815260040161369e90615865565b60405180910390fd5b5050505050565b60007ff0c57e16840df040f15088dc2f81fe391c3923bec73e23a9662efc9c229c6a0060001b905090565b6136e16139a8565b613717576040517fd7e6bcf800000000000000000000000000000000000000000000000000000000815260040160405180910390fd5b565b6137216136d9565b600073ffffffffffffffffffffffffffffffffffffffff168173ffffffffffffffffffffffffffffffffffffffff16036137935760006040517f1e4fbdf700000000000000000000000000000000000000000000000000000000815260040161378a9190613ced565b60405180910390fd5b61379c81612d3b565b50565b6000819050919050565b60008173ffffffffffffffffffffffffffffffffffffffff163b0361380557806040517f4c9c8ce30000000000000000000000000000000000000000000000000000000081526004016137fc9190613ced565b60405180910390fd5b806138327f360894a13ba1a3210667c828492db98dca3e2076cc3735a920a3ca505d382bbc60001b61379f565b60000160006101000a81548173ffffffffffffffffffffffffffffffffffffffff021916908373ffffffffffffffffffffffffffffffffffffffff16021790555050565b6060600061388484846139c8565b90508080156138bc575060006138986139de565b11806138bb575060008473ffffffffffffffffffffffffffffffffffffffff163b115b5b156138d1576138c96139e6565b915050613965565b801561391457836040517f9996b31500000000000000000000000000000000000000000000000000000000815260040161390b9190613ced565b60405180910390fd5b600061391e6139de565b11156139315761392c613a04565b613963565b6040517fd6bda27500000000000000000000000000000000000000000000000000000000815260040160405180910390fd5b505b92915050565b60003411156139a6576040517fb398979f00000000000000000000000000000000000000000000000000000000815260040160405180910390fd5b565b60006139b261347e565b60000160089054906101000a900460ff16905090565b6000806000835160208501865af4905092915050565b60003d905090565b606060405190503d81523d6000602083013e3d602001810160405290565b6040513d6000823e3d81fd5b5080546000825590600052602060002090810190613a2e9190613a82565b50565b5080546000825590600052602060002090810190613a4f9190613a82565b50565b6040518060400160405280600073ffffffffffffffffffffffffffffffffffffffff168152602001600081525090565b5b80821115613a9b576000816000905550600101613a83565b5090565b600082825260208201905092915050565b7f4e4f5f4449524543545f53454e44000000000000000000000000000000000000600082015250565b6000613ae6600e83613a9f565b9150613af182613ab0565b602082019050919050565b60006020820190508181036000830152613b1581613ad9565b9050919050565b6000604051905090565b600080fd5b600080fd5b600073ffffffffffffffffffffffffffffffffffffffff82169050919050565b6000613b5b82613b30565b9050919050565b613b6b81613b50565b8114613b7657600080fd5b50565b600081359050613b8881613b62565b92915050565b600080fd5b600080fd5b600080fd5b60008083601f840112613bb357613bb2613b8e565b5b8235905067ffffffffffffffff811115613bd057613bcf613b93565b5b602083019150836020820283011115613bec57613beb613b98565b5b9250929050565b60008083601f840112613c0957613c08613b8e565b5b8235905067ffffffffffffffff811115613c2657613c25613b93565b5b602083019150836020820283011115613c4257613c41613b98565b5b9250929050565b600080600080600060608688031215613c6557613c64613b26565b5b6000613c7388828901613b79565b955050602086013567ffffffffffffffff811115613c9457613c93613b2b565b5b613ca088828901613b9d565b9450945050604086013567ffffffffffffffff811115613cc357613cc2613b2b565b5b613ccf88828901613bf3565b92509250509295509295909350565b613ce781613b50565b82525050565b6000602082019050613d026000830184613cde565b92915050565b600060208284031215613d1e57613d1d613b26565b5b6000613d2c84828501613b79565b91505092915050565b6000819050919050565b613d4881613d35565b82525050565b6000604082019050613d636000830185613cde565b613d706020830184613d3f565b9392505050565b600080fd5b6000601f19601f8301169050919050565b7f4e487b7100000000000000000000000000000000000000000000000000000000600052604160045260246000fd5b613dc582613d7c565b810181811067ffffffffffffffff82111715613de457613de3613d8d565b5b80604052505050565b6000613df7613b1c565b9050613e038282613dbc565b919050565b600067ffffffffffffffff821115613e2357613e22613d8d565b5b613e2c82613d7c565b9050602081019050919050565b82818337600083830152505050565b6000613e5b613e5684613e08565b613ded565b905082815260208101848484011115613e7757613e76613d77565b5b613e82848285613e39565b509392505050565b600082601f830112613e9f57613e9e613b8e565b5b8135613eaf848260208601613e48565b91505092915050565b60008060408385031215613ecf57613ece613b26565b5b6000613edd85828601613b79565b925050602083013567ffffffffffffffff811115613efe57613efd613b2b565b5b613f0a85828601613e8a565b9150509250929050565b6000819050919050565b613f2781613f14565b82525050565b6000602082019050613f426000830184613f1e565b92915050565b600067ffffffffffffffff821115613f6357613f62613d8d565b5b613f6c82613d7c565b9050602081019050919050565b6000613f8c613f8784613f48565b613ded565b905082815260208101848484011115613fa857613fa7613d77565b5b613fb3848285613e39565b509392505050565b600082601f830112613fd057613fcf613b8e565b5b8135613fe0848260208601613f79565b91505092915050565b613ff281613d35565b8114613ffd57600080fd5b50565b60008135905061400f81613fe9565b92915050565b6000806000806080858703121561402f5761402e613b26565b5b600085013567ffffffffffffffff81111561404d5761404c613b2b565b5b61405987828801613fbb565b945050602061406a87828801613b79565b935050604061407b87828801614000565b925050606061408c87828801613b79565b91505092959194509250565b60008083601f8401126140ae576140ad613b8e565b5b8235905067ffffffffffffffff8111156140cb576140ca613b93565b5b6020830191508360018202830111156140e7576140e6613b98565b5b9250929050565b60008060008060008060a0878903121561410b5761410a613b26565b5b600061411989828a01613b79565b965050602061412a89828a01613b79565b955050604061413b89828a01614000565b945050606061414c89828a01614000565b935050608087013567ffffffffffffffff81111561416d5761416c613b2b565b5b61417989828a01614098565b92509250509295509295509295565b600080600080600080600060c0888a0312156141a7576141a6613b26565b5b60006141b58a828b01613b79565b97505060206141c68a828b01613b79565b96505060406141d78a828b01614000565b95505060606141e88a828b01613b79565b94505060806141f98a828b01613b79565b93505060a088013567ffffffffffffffff81111561421a57614219613b2b565b5b6142268a828b01614098565b925092505092959891949750929550565b6000806000604084860312156142505761424f613b26565b5b600061425e86828701613b79565b935050602084013567ffffffffffffffff81111561427f5761427e613b2b565b5b61428b86828701613b9d565b92509250509250925092565b600081519050919050565b600082825260208201905092915050565b6000819050602082019050919050565b6142cc81613b50565b82525050565b6142db81613d35565b82525050565b6040820160008201516142f760008501826142c3565b50602082015161430a60208501826142d2565b50505050565b600061431c83836142e1565b60408301905092915050565b6000602082019050919050565b600061434082614297565b61434a81856142a2565b9350614355836142b3565b8060005b8381101561438657815161436d8882614310565b975061437883614328565b925050600181019050614359565b5085935050505092915050565b600060208201905081810360008301526143ad8184614335565b905092915050565b600081519050919050565b60005b838110156143de5780820151818401526020810190506143c3565b60008484015250505050565b60006143f5826143b5565b6143ff8185613a9f565b935061440f8185602086016143c0565b61441881613d7c565b840191505092915050565b6000602082019050818103600083015261443d81846143ea565b905092915050565b60008060006060848603121561445e5761445d613b26565b5b600061446c86828701613b79565b935050602061447d86828701613b79565b925050604061448e86828701614000565b9150509250925092565b60006020820190506144ad6000830184613d3f565b92915050565b60008060008060008060a087890312156144d0576144cf613b26565b5b60006144de89828a01613b79565b96505060206144ef89828a01613b79565b955050604061450089828a01614000565b945050606061451189828a01613b79565b935050608087013567ffffffffffffffff81111561453257614531613b2b565b5b61453e89828a01614098565b92509250509295509295509295565b60008060008060006080868803121561456957614568613b26565b5b600061457788828901613b79565b955050602061458888828901613b79565b945050604061459988828901614000565b935050606086013567ffffffffffffffff8111156145ba576145b9613b2b565b5b6145c688828901614098565b92509250509295509295909350565b6000806000606084860312156145ee576145ed613b26565b5b60006145fc86828701613b79565b935050602061460d86828701613b79565b925050604061461e86828701613b79565b9150509250925092565b6000806000806080858703121561464257614641613b26565b5b600061465087828801613b79565b945050602061466187828801613b79565b935050604061467287828801613b79565b925050606061468387828801613b79565b91505092959194509250565b7f4e6f74207065726d69742e000000000000000000000000000000000000000000600082015250565b60006146c5600b83613a9f565b91506146d08261468f565b602082019050919050565b600060208201905081810360008301526146f4816146b8565b9050919050565b7f4572726f7220617272617920646174612e000000000000000000000000000000600082015250565b6000614731601183613a9f565b915061473c826146fb565b602082019050919050565b6000602082019050818103600083015261476081614724565b9050919050565b7f4e487b7100000000000000000000000000000000000000000000000000000000600052603260045260246000fd5b7f5a45524f5f414444524553530000000000000000000000000000000000000000600082015250565b60006147cc600c83613a9f565b91506147d782614796565b602082019050919050565b600060208201905081810360008301526147fb816147bf565b9050919050565b7f5a45524f5f524154450000000000000000000000000000000000000000000000600082015250565b6000614838600983613a9f565b915061484382614802565b602082019050919050565b600060208201905081810360008301526148678161482b565b9050919050565b7f4e487b7100000000000000000000000000000000000000000000000000000000600052601160045260246000fd5b60006148a882613d35565b91506148b383613d35565b92508282019050808211156148cb576148ca61486e565b5b92915050565b7f494e56414c49445f524154450000000000000000000000000000000000000000600082015250565b6000614907600c83613a9f565b9150614912826148d1565b602082019050919050565b60006020820190508181036000830152614936816148fa565b9050919050565b60006040820190506149526000830185613cde565b61495f6020830184613cde565b9392505050565b60008151905061497581613b62565b92915050565b60006020828403121561499157614990613b26565b5b600061499f84828501614966565b91505092915050565b600081519050919050565b600082825260208201905092915050565b6000819050602082019050919050565b60006149e083836142c3565b60208301905092915050565b6000602082019050919050565b6000614a04826149a8565b614a0e81856149b3565b9350614a19836149c4565b8060005b83811015614a4a578151614a3188826149d4565b9750614a3c836149ec565b925050600181019050614a1d565b5085935050505092915050565b6000604082019050614a6c6000830185613d3f565b8181036020830152614a7e81846149f9565b90509392505050565b600067ffffffffffffffff821115614aa257614aa1613d8d565b5b602082029050602081019050919050565b600081519050614ac281613fe9565b92915050565b6000614adb614ad684614a87565b613ded565b90508083825260208201905060208402830185811115614afe57614afd613b98565b5b835b81811015614b275780614b138882614ab3565b845260208401935050602081019050614b00565b5050509392505050565b600082601f830112614b4657614b45613b8e565b5b8151614b56848260208601614ac8565b91505092915050565b600060208284031215614b7557614b74613b26565b5b600082015167ffffffffffffffff811115614b9357614b92613b2b565b5b614b9f84828501614b31565b91505092915050565b6000614bb382613d35565b9150614bbe83613d35565b9250828203905081811115614bd657614bd561486e565b5b92915050565b7f4552524f525f414d4f554e542e00000000000000000000000000000000000000600082015250565b6000614c12600d83613a9f565b9150614c1d82614bdc565b602082019050919050565b60006020820190508181036000830152614c4181614c05565b9050919050565b60006080820190508181036000830152614c6281876143ea565b9050614c716020830186613cde565b614c7e6040830185613cde565b614c8b6060830184613d3f565b95945050505050565b6000614ca08385613a9f565b9350614cad838584613e39565b614cb683613d7c565b840190509392505050565b600060a0820190508181036000830152614cdc81888a614c94565b9050614ceb6020830187613cde565b614cf86040830186613d3f565b614d056060830185613cde565b614d126080830184613d3f565b979650505050505050565b7f496e76616c696420706169722e00000000000000000000000000000000000000600082015250565b6000614d53600d83613a9f565b9150614d5e82614d1d565b602082019050919050565b60006020820190508181036000830152614d8281614d46565b9050919050565b600060208284031215614d9f57614d9e613b26565b5b6000614dad84828501614ab3565b91505092915050565b7f4c697175696469747920646f6573206e6f742065786973742e00000000000000600082015250565b6000614dec601983613a9f565b9150614df782614db6565b602082019050919050565b60006020820190508181036000830152614e1b81614ddf565b9050919050565b6000819050919050565b6000819050919050565b6000614e51614e4c614e4784614e22565b614e2c565b613d35565b9050919050565b614e6181614e36565b82525050565b600060a082019050614e7c6000830188613d3f565b614e896020830187614e58565b8181036040830152614e9b81866149f9565b9050614eaa6060830185613cde565b614eb76080830184613d3f565b9695505050505050565b600060c0820190508181036000830152614edc81898b614c94565b9050614eeb6020830188613cde565b614ef86040830187613d3f565b614f056060830186613cde565b614f126080830185613cde565b614f1f60a0830184613cde565b98975050505050505050565b60006dffffffffffffffffffffffffffff82169050919050565b614f4e81614f2b565b8114614f5957600080fd5b50565b600081519050614f6b81614f45565b92915050565b600063ffffffff82169050919050565b614f8a81614f71565b8114614f9557600080fd5b50565b600081519050614fa781614f81565b92915050565b600080600060608486031215614fc657614fc5613b26565b5b6000614fd486828701614f5c565b9350506020614fe586828701614f5c565b9250506040614ff686828701614f98565b9150509250925092565b600061501b61501661501184614f2b565b614e2c565b613d35565b9050919050565b61502b81615000565b82525050565b60006060820190506150466000830186613d3f565b6150536020830185615022565b6150606040830184615022565b949350505050565b7f4e487b7100000000000000000000000000000000000000000000000000000000600052602160045260246000fd5b600381106150a8576150a7615068565b5b50565b60008190506150b982615097565b919050565b60006150c9826150ab565b9050919050565b6150d9816150be565b82525050565b60006101008201905081810360008301526150fb818b8d614c94565b905061510a602083018a613cde565b6151176040830189613d3f565b6151246060830188613cde565b6151316080830187613d3f565b61513e60a0830186613cde565b61514b60c0830185613d3f565b61515860e08301846150d0565b9a9950505050505050505050565b7f5a45524f5f414d4f554e54000000000000000000000000000000000000000000600082015250565b600061519c600b83613a9f565b91506151a782615166565b602082019050919050565b600060208201905081810360008301526151cb8161518f565b9050919050565b60006060820190506151e76000830186613cde565b6151f46020830185613cde565b6152016040830184613d3f565b949350505050565b7f504149525f4e4f545f5245414459000000000000000000000000000000000000600082015250565b600061523f600e83613a9f565b915061524a82615209565b602082019050919050565b6000602082019050818103600083015261526e81615232565b9050919050565b60006101008201905061528b600083018b613cde565b615298602083018a613cde565b6152a56040830189613d3f565b6152b26060830188613d3f565b6152bf6080830187614e58565b6152cc60a0830186614e58565b6152d960c0830185613cde565b6152e660e0830184613d3f565b9998505050505050505050565b60008060006060848603121561530c5761530b613b26565b5b600061531a86828701614ab3565b935050602061532b86828701614ab3565b925050604061533c86828701614ab3565b9150509250925092565b6000819050919050565b600067ffffffffffffffff82169050919050565b600061537f61537a61537584615346565b614e2c565b615350565b9050919050565b61538f81615364565b82525050565b60006020820190506153aa6000830184615386565b92915050565b6153b981613f14565b81146153c457600080fd5b50565b6000815190506153d6816153b0565b92915050565b6000602082840312156153f2576153f1613b26565b5b6000615400848285016153c7565b91505092915050565b600081519050919050565b600081905092915050565b600061542a82615409565b6154348185615414565b93506154448185602086016143c0565b80840191505092915050565b600061545c828461541f565b915081905092915050565b60008115159050919050565b61547c81615467565b811461548757600080fd5b50565b60008151905061549981615473565b92915050565b6000602082840312156154b5576154b4613b26565b5b60006154c38482850161548a565b91505092915050565b7f5472616e7366657248656c7065723a205452414e534645525f46524f4d5f464160008201527f494c454400000000000000000000000000000000000000000000000000000000602082015250565b6000615528602483613a9f565b9150615533826154cc565b604082019050919050565b600060208201905081810360008301526155578161551b565b9050919050565b7f5472616e7366657248656c7065723a204554485f5452414e534645525f46414960008201527f4c45440000000000000000000000000000000000000000000000000000000000602082015250565b60006155ba602383613a9f565b91506155c58261555e565b604082019050919050565b600060208201905081810360008301526155e9816155ad565b9050919050565b60006155fb82613d35565b915061560683613d35565b925082820261561481613d35565b9150828204841483151761562b5761562a61486e565b5b5092915050565b7f4e487b7100000000000000000000000000000000000000000000000000000000600052601260045260246000fd5b600061566c82613d35565b915061567783613d35565b92508261568757615686615632565b5b828204905092915050565b7f5472616e7366657248656c7065723a20415050524f56455f4641494c45440000600082015250565b60006156c8601e83613a9f565b91506156d382615692565b602082019050919050565b600060208201905081810360008301526156f7816156bb565b9050919050565b7f496e73756666696369656e7420616d6f756e742e000000000000000000000000600082015250565b6000615734601483613a9f565b915061573f826156fe565b602082019050919050565b6000602082019050818103600083015261576381615727565b9050919050565b600060e08201905061577f600083018a613cde565b61578c6020830189613cde565b6157996040830188613d3f565b6157a66060830187614e58565b6157b36080830186614e58565b6157c060a0830185613cde565b6157cd60c0830184613d3f565b98975050505050505050565b600080604083850312156157f0576157ef613b26565b5b60006157fe85828601614ab3565b925050602061580f85828601614ab3565b9150509250929050565b7f5472616e7366657248656c7065723a205452414e534645525f4641494c454400600082015250565b600061584f601f83613a9f565b915061585a82615819565b602082019050919050565b6000602082019050818103600083015261587e81615842565b905091905056fea2646970667358221220f87483ec1882dc35410095d3b61ea116974c4cbb4f8642455bccf077275488e764736f6c63430008160033","linkReferences":{}},"methodIdentifiers":{"UPGRADE_INTERFACE_VERSION()":"ad3cb1cc","USDT()":"c54e44eb","WBNB()":"8dd95002","addLiquidity(address,address,uint256,string)":"d9105f63","admin()":"f851a440","getAllowance(address,address,address)":"e7092b41","getPrice(address)":"41976e09","getQuoteAmount(address,address,uint256)":"b68cdb31","initialize(address,address,address,address)":"f8c8765e","multiBalanceOf(address,address[])":"9f166cf1","multiRecharge(address,address,uint256,uint256,string)":"71862276","owner()":"8da5cb5b","proxiableUUID()":"52d1902d","recipient()":"66d003ac","removeLiquidity(address,address,uint256,address,string)":"c474603d","renounceOwnership()":"715018a6","sender()":"67e404ce","setAllocation(address,address[],uint256[])":"07e312a4","swapExactIn(address,address,uint256,address,address,string)":"762cdf81","transferOwnership(address)":"f2fde38b","uniswapV2Router()":"1694505e","uniswapV2factory()":"70fe251b","upgradeToAndCall(address,bytes)":"4f1ef286","withdraw(string,address,uint256,address)":"62a33811"},"id":44}