{"abi":[{"type":"receive","stateMutability":"payable"},{"type":"function","name":"UPGRADE_INTERFACE_VERSION","inputs":[],"outputs":[{"name":"","type":"string","internalType":"string"}],"stateMutability":"view"},{"type":"function","name":"USDT","inputs":[],"outputs":[{"name":"","type":"address","internalType":"address"}],"stateMutability":"view"},{"type":"function","name":"WBNB","inputs":[],"outputs":[{"name":"","type":"address","internalType":"address"}],"stateMutability":"view"},{"type":"function","name":"addLiquidity","inputs":[{"name":"token0","type":"address","internalType":"address"},{"name":"token1","type":"address","internalType":"address"},{"name":"amount0","type":"uint256","internalType":"uint256"},{"name":"remark","type":"string","internalType":"string"}],"outputs":[],"stateMutability":"nonpayable"},{"type":"function","name":"admin","inputs":[],"outputs":[{"name":"","type":"address","internalType":"address"}],"stateMutability":"view"},{"type":"function","name":"changeRecipient","inputs":[{"name":"_newRecipient","type":"address","internalType":"address"}],"outputs":[],"stateMutability":"nonpayable"},{"type":"function","name":"changeSender","inputs":[{"name":"_newSender","type":"address","internalType":"address"}],"outputs":[],"stateMutability":"nonpayable"},{"type":"function","name":"getAllowance","inputs":[{"name":"token","type":"address","internalType":"address"},{"name":"owner","type":"address","internalType":"address"}],"outputs":[{"name":"","type":"uint256","internalType":"uint256"}],"stateMutability":"view"},{"type":"function","name":"getPrice","inputs":[{"name":"token","type":"address","internalType":"address"}],"outputs":[{"name":"","type":"address","internalType":"address"},{"name":"","type":"uint256","internalType":"uint256"}],"stateMutability":"view"},{"type":"function","name":"getQuoteAmount","inputs":[{"name":"token0","type":"address","internalType":"address"},{"name":"token1","type":"address","internalType":"address"},{"name":"amount0","type":"uint256","internalType":"uint256"}],"outputs":[{"name":"","type":"uint256","internalType":"uint256"}],"stateMutability":"view"},{"type":"function","name":"initialize","inputs":[{"name":"_router","type":"address","internalType":"address"},{"name":"_admin","type":"address","internalType":"address"},{"name":"_recipient","type":"address","internalType":"address"},{"name":"_sender","type":"address","internalType":"address"}],"outputs":[],"stateMutability":"nonpayable"},{"type":"function","name":"multiBalanceOf","inputs":[{"name":"token","type":"address","internalType":"address"},{"name":"users","type":"address[]","internalType":"address[]"}],"outputs":[{"name":"","type":"tuple[]","internalType":"struct Recharge.Info[]","components":[{"name":"user","type":"address","internalType":"address"},{"name":"amount","type":"uint256","internalType":"uint256"}]}],"stateMutability":"view"},{"type":"function","name":"multiRecharge","inputs":[{"name":"token0","type":"address","internalType":"address"},{"name":"token1","type":"address","internalType":"address"},{"name":"amount0","type":"uint256","internalType":"uint256"},{"name":"amount1","type":"uint256","internalType":"uint256"},{"name":"remark","type":"string","internalType":"string"}],"outputs":[],"stateMutability":"nonpayable"},{"type":"function","name":"owner","inputs":[],"outputs":[{"name":"","type":"address","internalType":"address"}],"stateMutability":"view"},{"type":"function","name":"proxiableUUID","inputs":[],"outputs":[{"name":"","type":"bytes32","internalType":"bytes32"}],"stateMutability":"view"},{"type":"function","name":"recipient","inputs":[],"outputs":[{"name":"","type":"address","internalType":"address"}],"stateMutability":"view"},{"type":"function","name":"removeLiquidity","inputs":[{"name":"token0","type":"address","internalType":"address"},{"name":"token1","type":"address","internalType":"address"},{"name":"amount","type":"uint256","internalType":"uint256"},{"name":"to","type":"address","internalType":"address"},{"name":"remark","type":"string","internalType":"string"}],"outputs":[],"stateMutability":"nonpayable"},{"type":"function","name":"renounceOwnership","inputs":[],"outputs":[],"stateMutability":"nonpayable"},{"type":"function","name":"sender","inputs":[],"outputs":[{"name":"","type":"address","internalType":"address"}],"stateMutability":"view"},{"type":"function","name":"setAllocation","inputs":[{"name":"token","type":"address","internalType":"address"},{"name":"recipients","type":"address[]","internalType":"address[]"},{"name":"rates","type":"uint256[]","internalType":"uint256[]"}],"outputs":[],"stateMutability":"nonpayable"},{"type":"function","name":"swapExactIn","inputs":[{"name":"fromToken","type":"address","internalType":"address"},{"name":"targetToken","type":"address","internalType":"address"},{"name":"fromAmount","type":"uint256","internalType":"uint256"},{"name":"from","type":"address","internalType":"address"},{"name":"to","type":"address","internalType":"address"},{"name":"remark","type":"string","internalType":"string"}],"outputs":[],"stateMutability":"nonpayable"},{"type":"function","name":"transferOwnership","inputs":[{"name":"newOwner","type":"address","internalType":"address"}],"outputs":[],"stateMutability":"nonpayable"},{"type":"function","name":"uniswapV2Router","inputs":[],"outputs":[{"name":"","type":"address","internalType":"address"}],"stateMutability":"view"},{"type":"function","name":"uniswapV2factory","inputs":[],"outputs":[{"name":"","type":"address","internalType":"address"}],"stateMutability":"view"},{"type":"function","name":"upgradeToAndCall","inputs":[{"name":"newImplementation","type":"address","internalType":"address"},{"name":"data","type":"bytes","internalType":"bytes"}],"outputs":[],"stateMutability":"payable"},{"type":"function","name":"withdraw","inputs":[{"name":"remark","type":"string","internalType":"string"},{"name":"token","type":"address","internalType":"address"},{"name":"amount","type":"uint256","internalType":"uint256"},{"name":"to","type":"address","internalType":"address"}],"outputs":[],"stateMutability":"nonpayable"},{"type":"event","name":"Exchange","inputs":[{"name":"remark","type":"string","indexed":false,"internalType":"string"},{"name":"original","type":"address","indexed":false,"internalType":"address"},{"name":"amount","type":"uint256","indexed":false,"internalType":"uint256"},{"name":"target","type":"address","indexed":false,"internalType":"address"},{"name":"from","type":"address","indexed":false,"internalType":"address"},{"name":"to","type":"address","indexed":false,"internalType":"address"}],"anonymous":false},{"type":"event","name":"Initialized","inputs":[{"name":"version","type":"uint64","indexed":false,"internalType":"uint64"}],"anonymous":false},{"type":"event","name":"Liquidity","inputs":[{"name":"remark","type":"string","indexed":false,"internalType":"string"},{"name":"user","type":"address","indexed":false,"internalType":"address"},{"name":"token0","type":"address","indexed":false,"internalType":"address"},{"name":"amount0","type":"uint256","indexed":false,"internalType":"uint256"},{"name":"token1","type":"address","indexed":false,"internalType":"address"},{"name":"amount1","type":"uint256","indexed":false,"internalType":"uint256"},{"name":"pair","type":"address","indexed":false,"internalType":"address"},{"name":"liquidity","type":"uint256","indexed":false,"internalType":"uint256"},{"name":"mark","type":"uint8","indexed":false,"internalType":"enum Recharge.Mark"}],"anonymous":false},{"type":"event","name":"MultiRecharge","inputs":[{"name":"remark","type":"string","indexed":false,"internalType":"string"},{"name":"user","type":"address","indexed":false,"internalType":"address"},{"name":"token0","type":"address","indexed":false,"internalType":"address"},{"name":"amount0","type":"uint256","indexed":false,"internalType":"uint256"},{"name":"token1","type":"address","indexed":false,"internalType":"address"},{"name":"amount1","type":"uint256","indexed":false,"internalType":"uint256"}],"anonymous":false},{"type":"event","name":"OwnershipTransferred","inputs":[{"name":"previousOwner","type":"address","indexed":true,"internalType":"address"},{"name":"newOwner","type":"address","indexed":true,"internalType":"address"}],"anonymous":false},{"type":"event","name":"Upgraded","inputs":[{"name":"implementation","type":"address","indexed":true,"internalType":"address"}],"anonymous":false},{"type":"event","name":"Withdraw","inputs":[{"name":"remark","type":"string","indexed":false,"internalType":"string"},{"name":"token","type":"address","indexed":false,"internalType":"address"},{"name":"to","type":"address","indexed":false,"internalType":"address"},{"name":"amount","type":"uint256","indexed":false,"internalType":"uint256"}],"anonymous":false},{"type":"error","name":"AddressEmptyCode","inputs":[{"name":"target","type":"address","internalType":"address"}]},{"type":"error","name":"ERC1967InvalidImplementation","inputs":[{"name":"implementation","type":"address","internalType":"address"}]},{"type":"error","name":"ERC1967NonPayable","inputs":[]},{"type":"error","name":"FailedCall","inputs":[]},{"type":"error","name":"InvalidInitialization","inputs":[]},{"type":"error","name":"NotInitializing","inputs":[]},{"type":"error","name":"OwnableInvalidOwner","inputs":[{"name":"owner","type":"address","internalType":"address"}]},{"type":"error","name":"OwnableUnauthorizedAccount","inputs":[{"name":"account","type":"address","internalType":"address"}]},{"type":"error","name":"ReentrancyGuardReentrantCall","inputs":[]},{"type":"error","name":"UUPSUnauthorizedCallContext","inputs":[]},{"type":"error","name":"UUPSUnsupportedProxiableUUID","inputs":[{"name":"slot","type":"bytes32","internalType":"bytes32"}]}],"bytecode":{"object":"0x60a06040523073ffffffffffffffffffffffffffffffffffffffff1660809073ffffffffffffffffffffffffffffffffffffffff1681525034801561004357600080fd5b506001600081905550608051615cce6200007660003960008181612b8301528181612bd80152612d930152615cce6000f3fe6080604052600436106101855760003560e01c80638da5cb5b116100d1578063b68cdb311161008a578063d9105f6311610064578063d9105f6314610594578063f2fde38b146105bd578063f851a440146105e6578063f8c8765e14610611576101c5565b8063b68cdb3114610503578063c474603d14610540578063c54e44eb14610569576101c5565b80638da5cb5b146103f35780638dd950021461041e57806392c2bcb4146104495780639f166cf114610472578063ad3cb1cc146104af578063b280a7e7146104da576101c5565b806362a338111161013e57806370fe251b1161011857806370fe251b1461035f578063715018a61461038a57806371862276146103a1578063762cdf81146103ca576101c5565b806362a33811146102e057806366d003ac1461030957806367e404ce14610334576101c5565b806307e312a4146101ca5780630af4187d146101f35780631694505e1461023057806341976e091461025b5780634f1ef2861461029957806352d1902d146102b5576101c5565b366101c5576040517f08c379a00000000000000000000000000000000000000000000000000000000081526004016101bc90613e99565b60405180910390fd5b600080fd5b3480156101d657600080fd5b506101f160048036038101906101ec9190613fe6565b61063a565b005b3480156101ff57600080fd5b5061021a6004803603810190610215919061407b565b610a0e565b60405161022791906140d4565b60405180910390f35b34801561023c57600080fd5b50610245610a94565b60405161025291906140fe565b60405180910390f35b34801561026757600080fd5b50610282600480360381019061027d9190614119565b610aba565b604051610290929190614146565b60405180910390f35b6102b360048036038101906102ae91906142b0565b61109c565b005b3480156102c157600080fd5b506102ca6110bb565b6040516102d79190614325565b60405180910390f35b3480156102ec57600080fd5b506103076004803603810190610302919061440d565b6110ee565b005b34801561031557600080fd5b5061031e611276565b60405161032b91906140fe565b60405180910390f35b34801561034057600080fd5b5061034961129c565b60405161035691906140fe565b60405180910390f35b34801561036b57600080fd5b506103746112c2565b60405161038191906140fe565b60405180910390f35b34801561039657600080fd5b5061039f6112e8565b005b3480156103ad57600080fd5b506103c860048036038101906103c391906144e6565b6112fc565b005b3480156103d657600080fd5b506103f160048036038101906103ec9190614580565b61137f565b005b3480156103ff57600080fd5b506104086118ea565b60405161041591906140fe565b60405180910390f35b34801561042a57600080fd5b50610433611922565b60405161044091906140fe565b60405180910390f35b34801561045557600080fd5b50610470600480360381019061046b9190614119565b61193a565b005b34801561047e57600080fd5b506104996004803603810190610494919061462f565b611a7d565b6040516104a6919061478b565b60405180910390f35b3480156104bb57600080fd5b506104c4611d1b565b6040516104d1919061481b565b60405180910390f35b3480156104e657600080fd5b5061050160048036038101906104fc9190614119565b611d54565b005b34801561050f57600080fd5b5061052a6004803603810190610525919061483d565b611e97565b60405161053791906140d4565b60405180910390f35b34801561054c57600080fd5b5061056760048036038101906105629190614890565b6122a5565b005b34801561057557600080fd5b5061057e6123a1565b60405161058b91906140fe565b60405180910390f35b3480156105a057600080fd5b506105bb60048036038101906105b6919061492a565b6123b9565b005b3480156105c957600080fd5b506105e460048036038101906105df9190614119565b612767565b005b3480156105f257600080fd5b506105fb6127ed565b60405161060891906140fe565b60405180910390f35b34801561061d57600080fd5b50610638600480360381019061063391906149b2565b612813565b005b3373ffffffffffffffffffffffffffffffffffffffff16600460009054906101000a900473ffffffffffffffffffffffffffffffffffffffff1673ffffffffffffffffffffffffffffffffffffffff16146106ca576040517f08c379a00000000000000000000000000000000000000000000000000000000081526004016106c190614a65565b60405180910390fd5b818190508484905014610712576040517f08c379a000000000000000000000000000000000000000000000000000000000815260040161070990614ad1565b60405180910390fd5b600160008673ffffffffffffffffffffffffffffffffffffffff1673ffffffffffffffffffffffffffffffffffffffff168152602001908152602001600020600080820160006107629190613dad565b6001820160006107729190613dce565b50506000600160008773ffffffffffffffffffffffffffffffffffffffff1673ffffffffffffffffffffffffffffffffffffffff1681526020019081526020016000209050600080600090505b868690508110156109c057600073ffffffffffffffffffffffffffffffffffffffff168787838181106107f5576107f4614af1565b5b905060200201602081019061080a9190614119565b73ffffffffffffffffffffffffffffffffffffffff1603610860576040517f08c379a000000000000000000000000000000000000000000000000000000000815260040161085790614b6c565b60405180910390fd5b600085858381811061087557610874614af1565b5b90506020020135116108bc576040517f08c379a00000000000000000000000000000000000000000000000000000000081526004016108b390614bd8565b60405180910390fd5b826000018787838181106108d3576108d2614af1565b5b90506020020160208101906108e89190614119565b9080600181540180825580915050600190039060005260206000200160009091909190916101000a81548173ffffffffffffffffffffffffffffffffffffffff021916908373ffffffffffffffffffffffffffffffffffffffff1602179055508260010185858381811061095f5761095e614af1565b5b90506020020135908060018154018082558091505060019003906000526020600020016000909190919091505584848281811061099f5761099e614af1565b5b90506020020135826109b19190614c27565b915080806001019150506107bf565b506103e88114610a05576040517f08c379a00000000000000000000000000000000000000000000000000000000081526004016109fc90614ca7565b60405180910390fd5b50505050505050565b60008273ffffffffffffffffffffffffffffffffffffffff1663dd62ed3e83306040518363ffffffff1660e01b8152600401610a4b929190614cc7565b602060405180830381865afa158015610a68573d6000803e3d6000fd5b505050506040513d601f19601f82011682018060405250810190610a8c9190614d05565b905092915050565b600260009054906101000a900473ffffffffffffffffffffffffffffffffffffffff1681565b6000806000600360009054906101000a900473ffffffffffffffffffffffffffffffffffffffff1673ffffffffffffffffffffffffffffffffffffffff1663e6a439058573bb4cdb9cbd36b01bd1cbaebf2de08d9173bc095c6040518363ffffffff1660e01b8152600401610b30929190614cc7565b602060405180830381865afa158015610b4d573d6000803e3d6000fd5b505050506040513d601f19601f82011682018060405250810190610b719190614d47565b90506000600360009054906101000a900473ffffffffffffffffffffffffffffffffffffffff1673ffffffffffffffffffffffffffffffffffffffff1663e6a43905867355d398326f99059ff775485246999027b31979556040518363ffffffff1660e01b8152600401610be6929190614cc7565b602060405180830381865afa158015610c03573d6000803e3d6000fd5b505050506040513d601f19601f82011682018060405250810190610c279190614d47565b90506000670de0b6b3a7640000905060008073ffffffffffffffffffffffffffffffffffffffff168373ffffffffffffffffffffffffffffffffffffffff1614610e61576000600267ffffffffffffffff811115610c8857610c87614185565b5b604051908082528060200260200182016040528015610cb65781602001602082028036833780820191505090505b5090508781600081518110610cce57610ccd614af1565b5b602002602001019073ffffffffffffffffffffffffffffffffffffffff16908173ffffffffffffffffffffffffffffffffffffffff16815250507355d398326f99059ff775485246999027b319795581600181518110610d3157610d30614af1565b5b602002602001019073ffffffffffffffffffffffffffffffffffffffff16908173ffffffffffffffffffffffffffffffffffffffff16815250506000600260009054906101000a900473ffffffffffffffffffffffffffffffffffffffff1673ffffffffffffffffffffffffffffffffffffffff1663d06ca61f85846040518363ffffffff1660e01b8152600401610dca929190614e23565b600060405180830381865afa158015610de7573d6000803e3d6000fd5b505050506040513d6000823e3d601f19601f82011682018060405250810190610e109190614f16565b90508060018251610e219190614f5f565b81518110610e3257610e31614af1565b5b602002602001015192507355d398326f99059ff775485246999027b31979558397509750505050505050611097565b600073ffffffffffffffffffffffffffffffffffffffff168473ffffffffffffffffffffffffffffffffffffffff161461108b576000600267ffffffffffffffff811115610eb257610eb1614185565b5b604051908082528060200260200182016040528015610ee05781602001602082028036833780820191505090505b5090508781600081518110610ef857610ef7614af1565b5b602002602001019073ffffffffffffffffffffffffffffffffffffffff16908173ffffffffffffffffffffffffffffffffffffffff168152505073bb4cdb9cbd36b01bd1cbaebf2de08d9173bc095c81600181518110610f5b57610f5a614af1565b5b602002602001019073ffffffffffffffffffffffffffffffffffffffff16908173ffffffffffffffffffffffffffffffffffffffff16815250506000600260009054906101000a900473ffffffffffffffffffffffffffffffffffffffff1673ffffffffffffffffffffffffffffffffffffffff1663d06ca61f85846040518363ffffffff1660e01b8152600401610ff4929190614e23565b600060405180830381865afa158015611011573d6000803e3d6000fd5b505050506040513d6000823e3d601f19601f8201168201806040525081019061103a9190614f16565b9050806001825161104b9190614f5f565b8151811061105c5761105b614af1565b5b6020026020010151925073bb4cdb9cbd36b01bd1cbaebf2de08d9173bc095c8397509750505050505050611097565b60008095509550505050505b915091565b6110a4612b81565b6110ad82612c67565b6110b78282612c72565b5050565b60006110c5612d91565b7f360894a13ba1a3210667c828492db98dca3e2076cc3735a920a3ca505d382bbc60001b905090565b3373ffffffffffffffffffffffffffffffffffffffff16600460009054906101000a900473ffffffffffffffffffffffffffffffffffffffff1673ffffffffffffffffffffffffffffffffffffffff161461117e576040517f08c379a000000000000000000000000000000000000000000000000000000000815260040161117590614a65565b60405180910390fd5b600082116111c1576040517f08c379a00000000000000000000000000000000000000000000000000000000081526004016111b890614fdf565b60405180910390fd5b600073ffffffffffffffffffffffffffffffffffffffff168373ffffffffffffffffffffffffffffffffffffffff16146112285761122383600660009054906101000a900473ffffffffffffffffffffffffffffffffffffffff168385612e18565b611233565b6112328183612f51565b5b7f99310eed5bb161586b62449f89ccaa4580f85f953cd64218092edfc2b1f5fce7848483856040516112689493929190614fff565b60405180910390a150505050565b600560009054906101000a900473ffffffffffffffffffffffffffffffffffffffff1681565b600660009054906101000a900473ffffffffffffffffffffffffffffffffffffffff1681565b600360009054906101000a900473ffffffffffffffffffffffffffffffffffffffff1681565b6112f0613051565b6112fa60006130d8565b565b6113046131af565b60008411156113185761131786856131f5565b5b600083111561132c5761132b85846131f5565b5b7f876458ec83a99c29371392c3eda4a2efbec05609200abd173088243e3bb0b8e182823389888a896040516113679796959493929190615078565b60405180910390a1611377613375565b505050505050565b3373ffffffffffffffffffffffffffffffffffffffff16600460009054906101000a900473ffffffffffffffffffffffffffffffffffffffff1673ffffffffffffffffffffffffffffffffffffffff161461140f576040517f08c379a000000000000000000000000000000000000000000000000000000000815260040161140690614a65565b60405180910390fd5b6000600260009054906101000a900473ffffffffffffffffffffffffffffffffffffffff1673ffffffffffffffffffffffffffffffffffffffff1663c45a01556040518163ffffffff1660e01b8152600401602060405180830381865afa15801561147e573d6000803e3d6000fd5b505050506040513d601f19601f820116820180604052508101906114a29190614d47565b905060008173ffffffffffffffffffffffffffffffffffffffff1663e6a439058a8a6040518363ffffffff1660e01b81526004016114e1929190614cc7565b602060405180830381865afa1580156114fe573d6000803e3d6000fd5b505050506040513d601f19601f820116820180604052508101906115229190614d47565b9050600073ffffffffffffffffffffffffffffffffffffffff168173ffffffffffffffffffffffffffffffffffffffff1603611593576040517f08c379a000000000000000000000000000000000000000000000000000000000815260040161158a9061512e565b60405180910390fd5b60008173ffffffffffffffffffffffffffffffffffffffff166318160ddd6040518163ffffffff1660e01b8152600401602060405180830381865afa1580156115e0573d6000803e3d6000fd5b505050506040513d601f19601f820116820180604052508101906116049190614d05565b905060008111611649576040517f08c379a00000000000000000000000000000000000000000000000000000000081526004016116409061519a565b60405180910390fd5b6116558a88308b612e18565b6116828a600260009054906101000a900473ffffffffffffffffffffffffffffffffffffffff168a61337f565b6000600267ffffffffffffffff81111561169f5761169e614185565b5b6040519080825280602002602001820160405280156116cd5781602001602082028036833780820191505090505b5090508a816000815181106116e5576116e4614af1565b5b602002602001019073ffffffffffffffffffffffffffffffffffffffff16908173ffffffffffffffffffffffffffffffffffffffff1681525050898160018151811061173457611733614af1565b5b602002602001019073ffffffffffffffffffffffffffffffffffffffff16908173ffffffffffffffffffffffffffffffffffffffff1681525050600260009054906101000a900473ffffffffffffffffffffffffffffffffffffffff1673ffffffffffffffffffffffffffffffffffffffff16635c11d7958a60008430601e426117be9190614c27565b6040518663ffffffff1660e01b81526004016117de9594939291906151ff565b600060405180830381600087803b1580156117f857600080fd5b505af115801561180c573d6000803e3d6000fd5b5050505060008a73ffffffffffffffffffffffffffffffffffffffff166370a08231306040518263ffffffff1660e01b815260040161184b91906140fe565b602060405180830381865afa158015611868573d6000803e3d6000fd5b505050506040513d601f19601f8201168201806040525081019061188c9190614d05565b90506118998b89836134b5565b7fb8d32d215e4cb191d4eab15881b20b08541e7696fca52eb4efe27e77011f738c87878e8d8f8e8e6040516118d49796959493929190615259565b60405180910390a1505050505050505050505050565b6000806118f56135eb565b90508060000160009054906101000a900473ffffffffffffffffffffffffffffffffffffffff1691505090565b73bb4cdb9cbd36b01bd1cbaebf2de08d9173bc095c81565b3373ffffffffffffffffffffffffffffffffffffffff16600460009054906101000a900473ffffffffffffffffffffffffffffffffffffffff1673ffffffffffffffffffffffffffffffffffffffff16146119ca576040517f08c379a00000000000000000000000000000000000000000000000000000000081526004016119c190614a65565b60405180910390fd5b600073ffffffffffffffffffffffffffffffffffffffff168173ffffffffffffffffffffffffffffffffffffffff1603611a39576040517f08c379a0000000000000000000000000000000000000000000000000000000008152600401611a309061530f565b60405180910390fd5b80600560006101000a81548173ffffffffffffffffffffffffffffffffffffffff021916908373ffffffffffffffffffffffffffffffffffffffff16021790555050565b6060600083839050905060008167ffffffffffffffff811115611aa357611aa2614185565b5b604051908082528060200260200182016040528015611adc57816020015b611ac9613def565b815260200190600190039081611ac15790505b509050600073ffffffffffffffffffffffffffffffffffffffff168673ffffffffffffffffffffffffffffffffffffffff1603611bdf5760005b82811015611bd9576040518060400160405280878784818110611b3c57611b3b614af1565b5b9050602002016020810190611b519190614119565b73ffffffffffffffffffffffffffffffffffffffff168152602001878784818110611b7f57611b7e614af1565b5b9050602002016020810190611b949190614119565b73ffffffffffffffffffffffffffffffffffffffff1631815250828281518110611bc157611bc0614af1565b5b60200260200101819052508080600101915050611b16565b50611d0f565b600086905060005b83811015611d0c576040518060400160405280888884818110611c0d57611c0c614af1565b5b9050602002016020810190611c229190614119565b73ffffffffffffffffffffffffffffffffffffffff1681526020018373ffffffffffffffffffffffffffffffffffffffff166370a082318a8a86818110611c6c57611c6b614af1565b5b9050602002016020810190611c819190614119565b6040518263ffffffff1660e01b8152600401611c9d91906140fe565b602060405180830381865afa158015611cba573d6000803e3d6000fd5b505050506040513d601f19601f82011682018060405250810190611cde9190614d05565b815250838281518110611cf457611cf3614af1565b5b60200260200101819052508080600101915050611be7565b50505b80925050509392505050565b6040518060400160405280600581526020017f352e302e3000000000000000000000000000000000000000000000000000000081525081565b3373ffffffffffffffffffffffffffffffffffffffff16600460009054906101000a900473ffffffffffffffffffffffffffffffffffffffff1673ffffffffffffffffffffffffffffffffffffffff1614611de4576040517f08c379a0000000000000000000000000000000000000000000000000000000008152600401611ddb90614a65565b60405180910390fd5b600073ffffffffffffffffffffffffffffffffffffffff168173ffffffffffffffffffffffffffffffffffffffff1603611e53576040517f08c379a0000000000000000000000000000000000000000000000000000000008152600401611e4a9061530f565b60405180910390fd5b80600660006101000a81548173ffffffffffffffffffffffffffffffffffffffff021916908373ffffffffffffffffffffffffffffffffffffffff16021790555050565b600080600260009054906101000a900473ffffffffffffffffffffffffffffffffffffffff1673ffffffffffffffffffffffffffffffffffffffff1663c45a01556040518163ffffffff1660e01b8152600401602060405180830381865afa158015611f07573d6000803e3d6000fd5b505050506040513d601f19601f82011682018060405250810190611f2b9190614d47565b905060008173ffffffffffffffffffffffffffffffffffffffff1663e6a4390587876040518363ffffffff1660e01b8152600401611f6a929190614cc7565b602060405180830381865afa158015611f87573d6000803e3d6000fd5b505050506040513d601f19601f82011682018060405250810190611fab9190614d47565b9050600073ffffffffffffffffffffffffffffffffffffffff168173ffffffffffffffffffffffffffffffffffffffff1603611fec5760009250505061229e565b6000808273ffffffffffffffffffffffffffffffffffffffff16630902f1ac6040518163ffffffff1660e01b8152600401606060405180830381865afa15801561203a573d6000803e3d6000fd5b505050506040513d601f19601f8201168201806040525081019061205e91906153b1565b50915091506000826dffffffffffffffffffffffffffff16148061209257506000816dffffffffffffffffffffffffffff16145b156120a457600094505050505061229e565b60008373ffffffffffffffffffffffffffffffffffffffff16630dfe16816040518163ffffffff1660e01b8152600401602060405180830381865afa1580156120f1573d6000803e3d6000fd5b505050506040513d601f19601f820116820180604052508101906121159190614d47565b90508873ffffffffffffffffffffffffffffffffffffffff168173ffffffffffffffffffffffffffffffffffffffff16036121f657600260009054906101000a900473ffffffffffffffffffffffffffffffffffffffff1673ffffffffffffffffffffffffffffffffffffffff1663ad615dec8885856040518463ffffffff1660e01b81526004016121a993929190615435565b602060405180830381865afa1580156121c6573d6000803e3d6000fd5b505050506040513d601f19601f820116820180604052508101906121ea9190614d05565b9550505050505061229e565b600260009054906101000a900473ffffffffffffffffffffffffffffffffffffffff1673ffffffffffffffffffffffffffffffffffffffff1663ad615dec8884866040518463ffffffff1660e01b815260040161225593929190615435565b602060405180830381865afa158015612272573d6000803e3d6000fd5b505050506040513d601f19601f820116820180604052508101906122969190614d05565b955050505050505b9392505050565b3373ffffffffffffffffffffffffffffffffffffffff16600460009054906101000a900473ffffffffffffffffffffffffffffffffffffffff1673ffffffffffffffffffffffffffffffffffffffff1614612335576040517f08c379a000000000000000000000000000000000000000000000000000000000815260040161232c90614a65565b60405180910390fd5b600080600061234689898989613613565b9250925092507f1f9cf1390a45db7ee0f71906e675c9799449d56f55ea9eea00ac8da2916eadf08585888c868d878a8f600260405161238e9a999897969594939291906154e3565b60405180910390a1505050505050505050565b7355d398326f99059ff775485246999027b319795581565b6123c16131af565b60008311612404576040517f08c379a00000000000000000000000000000000000000000000000000000000081526004016123fb906155c5565b60405180910390fd5b60003073ffffffffffffffffffffffffffffffffffffffff1663b68cdb318787876040518463ffffffff1660e01b8152600401612443939291906155e5565b602060405180830381865afa158015612460573d6000803e3d6000fd5b505050506040513d601f19601f820116820180604052508101906124849190614d05565b9050600081116124c9576040517f08c379a00000000000000000000000000000000000000000000000000000000081526004016124c090615668565b60405180910390fd5b6124d586333087612e18565b6124e185333084612e18565b61250e86600260009054906101000a900473ffffffffffffffffffffffffffffffffffffffff168661337f565b61253b85600260009054906101000a900473ffffffffffffffffffffffffffffffffffffffff168361337f565b6000806000600260009054906101000a900473ffffffffffffffffffffffffffffffffffffffff1673ffffffffffffffffffffffffffffffffffffffff1663e8e337008a8a8a8860008030426040518963ffffffff1660e01b81526004016125aa989796959493929190615688565b6060604051808303816000875af11580156125c9573d6000803e3d6000fd5b505050506040513d601f19601f820116820180604052508101906125ed9190615706565b9250925092506000600260009054906101000a900473ffffffffffffffffffffffffffffffffffffffff1673ffffffffffffffffffffffffffffffffffffffff1663c45a01556040518163ffffffff1660e01b8152600401602060405180830381865afa158015612662573d6000803e3d6000fd5b505050506040513d601f19601f820116820180604052508101906126869190614d47565b905060008173ffffffffffffffffffffffffffffffffffffffff1663e6a439058c8c6040518363ffffffff1660e01b81526004016126c5929190614cc7565b602060405180830381865afa1580156126e2573d6000803e3d6000fd5b505050506040513d601f19601f820116820180604052508101906127069190614d47565b90507f1f9cf1390a45db7ee0f71906e675c9799449d56f55ea9eea00ac8da2916eadf08888338e898f8a888b600160405161274a9a999897969594939291906154e3565b60405180910390a1505050505050612760613375565b5050505050565b61276f613051565b600073ffffffffffffffffffffffffffffffffffffffff168173ffffffffffffffffffffffffffffffffffffffff16036127e15760006040517f1e4fbdf70000000000000000000000000000000000000000000000000000000081526004016127d891906140fe565b60405180910390fd5b6127ea816130d8565b50565b600460009054906101000a900473ffffffffffffffffffffffffffffffffffffffff1681565b600061281d613951565b905060008160000160089054906101000a900460ff1615905060008260000160009054906101000a900467ffffffffffffffff1690506000808267ffffffffffffffff1614801561286b5750825b9050600060018367ffffffffffffffff161480156128a0575060003073ffffffffffffffffffffffffffffffffffffffff163b145b9050811580156128ae575080155b156128e5576040517ff92ee8a900000000000000000000000000000000000000000000000000000000815260040160405180910390fd5b60018560000160006101000a81548167ffffffffffffffff021916908367ffffffffffffffff16021790555083156129355760018560000160086101000a81548160ff0219169083151502179055505b612945612940613965565b61396d565b88600260006101000a81548173ffffffffffffffffffffffffffffffffffffffff021916908373ffffffffffffffffffffffffffffffffffffffff16021790555087600460006101000a81548173ffffffffffffffffffffffffffffffffffffffff021916908373ffffffffffffffffffffffffffffffffffffffff16021790555086600560006101000a81548173ffffffffffffffffffffffffffffffffffffffff021916908373ffffffffffffffffffffffffffffffffffffffff16021790555085600660006101000a81548173ffffffffffffffffffffffffffffffffffffffff021916908373ffffffffffffffffffffffffffffffffffffffff160217905550600260009054906101000a900473ffffffffffffffffffffffffffffffffffffffff1673ffffffffffffffffffffffffffffffffffffffff1663c45a01556040518163ffffffff1660e01b8152600401602060405180830381865afa158015612ab6573d6000803e3d6000fd5b505050506040513d601f19601f82011682018060405250810190612ada9190614d47565b600360006101000a81548173ffffffffffffffffffffffffffffffffffffffff021916908373ffffffffffffffffffffffffffffffffffffffff1602179055508315612b765760008560000160086101000a81548160ff0219169083151502179055507fc7f505b2f371ae2175ee4913f4499e1f2633a7b5936321eed1cdaeb6115181d26001604051612b6d91906157a8565b60405180910390a15b505050505050505050565b7f000000000000000000000000000000000000000000000000000000000000000073ffffffffffffffffffffffffffffffffffffffff163073ffffffffffffffffffffffffffffffffffffffff161480612c2e57507f000000000000000000000000000000000000000000000000000000000000000073ffffffffffffffffffffffffffffffffffffffff16612c15613981565b73ffffffffffffffffffffffffffffffffffffffff1614155b15612c65576040517fe07c8dba00000000000000000000000000000000000000000000000000000000815260040160405180910390fd5b565b612c6f613051565b50565b8173ffffffffffffffffffffffffffffffffffffffff166352d1902d6040518163ffffffff1660e01b8152600401602060405180830381865afa925050508015612cda57506040513d601f19601f82011682018060405250810190612cd791906157ef565b60015b612d1b57816040517f4c9c8ce3000000000000000000000000000000000000000000000000000000008152600401612d1291906140fe565b60405180910390fd5b7f360894a13ba1a3210667c828492db98dca3e2076cc3735a920a3ca505d382bbc60001b8114612d8257806040517faa1d49a4000000000000000000000000000000000000000000000000000000008152600401612d799190614325565b60405180910390fd5b612d8c83836139d8565b505050565b7f000000000000000000000000000000000000000000000000000000000000000073ffffffffffffffffffffffffffffffffffffffff163073ffffffffffffffffffffffffffffffffffffffff1614612e16576040517fe07c8dba00000000000000000000000000000000000000000000000000000000815260040160405180910390fd5b565b6000808573ffffffffffffffffffffffffffffffffffffffff166323b872dd868686604051602401612e4c939291906155e5565b6040516020818303038152906040529060e01b6020820180517bffffffffffffffffffffffffffffffffffffffffffffffffffffffff8381831617835250505050604051612e9a9190615863565b6000604051808303816000865af19150503d8060008114612ed7576040519150601f19603f3d011682016040523d82523d6000602084013e612edc565b606091505b5091509150818015612f0a5750600081511480612f09575080806020019051810190612f0891906158b2565b5b5b612f49576040517f08c379a0000000000000000000000000000000000000000000000000000000008152600401612f4090615951565b60405180910390fd5b505050505050565b60008273ffffffffffffffffffffffffffffffffffffffff1682600067ffffffffffffffff811115612f8657612f85614185565b5b6040519080825280601f01601f191660200182016040528015612fb85781602001600182028036833780820191505090505b50604051612fc69190615863565b60006040518083038185875af1925050503d8060008114613003576040519150601f19603f3d011682016040523d82523d6000602084013e613008565b606091505b505090508061304c576040517f08c379a0000000000000000000000000000000000000000000000000000000008152600401613043906159e3565b60405180910390fd5b505050565b613059613965565b73ffffffffffffffffffffffffffffffffffffffff166130776118ea565b73ffffffffffffffffffffffffffffffffffffffff16146130d65761309a613965565b6040517f118cdaa70000000000000000000000000000000000000000000000000000000081526004016130cd91906140fe565b60405180910390fd5b565b60006130e26135eb565b905060008160000160009054906101000a900473ffffffffffffffffffffffffffffffffffffffff169050828260000160006101000a81548173ffffffffffffffffffffffffffffffffffffffff021916908373ffffffffffffffffffffffffffffffffffffffff1602179055508273ffffffffffffffffffffffffffffffffffffffff168173ffffffffffffffffffffffffffffffffffffffff167f8be0079c531659141344cd1fd0a4f28419497f9722a3daafe3b4186f6b6457e060405160405180910390a3505050565b6002600054036131eb576040517f3ee5aeb500000000000000000000000000000000000000000000000000000000815260040160405180910390fd5b6002600081905550565b61320182333084612e18565b6000600160008473ffffffffffffffffffffffffffffffffffffffff1673ffffffffffffffffffffffffffffffffffffffff168152602001908152602001600020905060008160000180549050036132865761328083600560009054906101000a900473ffffffffffffffffffffffffffffffffffffffff16846134b5565b50613371565b600081600001805490509050600083905060005b8281101561336c5760006001846132b19190614f5f565b82036132bf57829050613309565b6103e88560010183815481106132d8576132d7614af1565b5b9060005260206000200154876132ee9190615a03565b6132f89190615a74565b905080836133069190614f5f565b92505b600081111561335e5761335d8786600001848154811061332c5761332b614af1565b5b9060005260206000200160009054906101000a900473ffffffffffffffffffffffffffffffffffffffff16836134b5565b5b50808060010191505061329a565b505050505b5050565b6001600081905550565b6000808473ffffffffffffffffffffffffffffffffffffffff1663095ea7b385856040516024016133b1929190614146565b6040516020818303038152906040529060e01b6020820180517bffffffffffffffffffffffffffffffffffffffffffffffffffffffff83818316178352505050506040516133ff9190615863565b6000604051808303816000865af19150503d806000811461343c576040519150601f19603f3d011682016040523d82523d6000602084013e613441565b606091505b509150915081801561346f575060008151148061346e57508080602001905181019061346d91906158b2565b5b5b6134ae576040517f08c379a00000000000000000000000000000000000000000000000000000000081526004016134a590615af1565b60405180910390fd5b5050505050565b6000808473ffffffffffffffffffffffffffffffffffffffff1663a9059cbb85856040516024016134e7929190614146565b6040516020818303038152906040529060e01b6020820180517bffffffffffffffffffffffffffffffffffffffffffffffffffffffff83818316178352505050506040516135359190615863565b6000604051808303816000865af19150503d8060008114613572576040519150601f19603f3d011682016040523d82523d6000602084013e613577565b606091505b50915091508180156135a557506000815114806135a45750808060200190518101906135a391906158b2565b5b5b6135e4576040517f08c379a00000000000000000000000000000000000000000000000000000000081526004016135db90615b5d565b60405180910390fd5b5050505050565b60007f9016d09d72d40fdae2fd8ceac6b6234c7706214fd39c1cd1e609a0528c199300905090565b600080600080600260009054906101000a900473ffffffffffffffffffffffffffffffffffffffff1673ffffffffffffffffffffffffffffffffffffffff1663c45a01556040518163ffffffff1660e01b8152600401602060405180830381865afa158015613686573d6000803e3d6000fd5b505050506040513d601f19601f820116820180604052508101906136aa9190614d47565b90508073ffffffffffffffffffffffffffffffffffffffff1663e6a4390589896040518363ffffffff1660e01b81526004016136e7929190614cc7565b602060405180830381865afa158015613704573d6000803e3d6000fd5b505050506040513d601f19601f820116820180604052508101906137289190614d47565b9350600073ffffffffffffffffffffffffffffffffffffffff168473ffffffffffffffffffffffffffffffffffffffff1603613799576040517f08c379a00000000000000000000000000000000000000000000000000000000081526004016137909061512e565b60405180910390fd5b60008473ffffffffffffffffffffffffffffffffffffffff166370a08231306040518263ffffffff1660e01b81526004016137d491906140fe565b602060405180830381865afa1580156137f1573d6000803e3d6000fd5b505050506040513d601f19601f820116820180604052508101906138159190614d05565b90508681101561385a576040517f08c379a000000000000000000000000000000000000000000000000000000000815260040161385190615bc9565b60405180910390fd5b61388785600260009054906101000a900473ffffffffffffffffffffffffffffffffffffffff168961337f565b600260009054906101000a900473ffffffffffffffffffffffffffffffffffffffff1673ffffffffffffffffffffffffffffffffffffffff1663baa2abde8a8a8a6000808c601e426138d99190614c27565b6040518863ffffffff1660e01b81526004016138fb9796959493929190615be9565b60408051808303816000875af1158015613919573d6000803e3d6000fd5b505050506040513d601f19601f8201168201806040525081019061393d9190615c58565b809450819550505050509450945094915050565b60008061395c613a4b565b90508091505090565b600033905090565b613975613a76565b61397e81613ab6565b50565b60006139af7f360894a13ba1a3210667c828492db98dca3e2076cc3735a920a3ca505d382bbc60001b613b3c565b60000160009054906101000a900473ffffffffffffffffffffffffffffffffffffffff16905090565b6139e182613b46565b8173ffffffffffffffffffffffffffffffffffffffff167fbc7cd75a20ee27fd9adebab32041f755214dbc6bffa90cc0225b39da2e5c2d3b60405160405180910390a2600081511115613a3e57613a388282613c13565b50613a47565b613a46613d08565b5b5050565b60007ff0c57e16840df040f15088dc2f81fe391c3923bec73e23a9662efc9c229c6a0060001b905090565b613a7e613d45565b613ab4576040517fd7e6bcf800000000000000000000000000000000000000000000000000000000815260040160405180910390fd5b565b613abe613a76565b600073ffffffffffffffffffffffffffffffffffffffff168173ffffffffffffffffffffffffffffffffffffffff1603613b305760006040517f1e4fbdf7000000000000000000000000000000000000000000000000000000008152600401613b2791906140fe565b60405180910390fd5b613b39816130d8565b50565b6000819050919050565b60008173ffffffffffffffffffffffffffffffffffffffff163b03613ba257806040517f4c9c8ce3000000000000000000000000000000000000000000000000000000008152600401613b9991906140fe565b60405180910390fd5b80613bcf7f360894a13ba1a3210667c828492db98dca3e2076cc3735a920a3ca505d382bbc60001b613b3c565b60000160006101000a81548173ffffffffffffffffffffffffffffffffffffffff021916908373ffffffffffffffffffffffffffffffffffffffff16021790555050565b60606000613c218484613d65565b9050808015613c5957506000613c35613d7b565b1180613c58575060008473ffffffffffffffffffffffffffffffffffffffff163b115b5b15613c6e57613c66613d83565b915050613d02565b8015613cb157836040517f9996b315000000000000000000000000000000000000000000000000000000008152600401613ca891906140fe565b60405180910390fd5b6000613cbb613d7b565b1115613cce57613cc9613da1565b613d00565b6040517fd6bda27500000000000000000000000000000000000000000000000000000000815260040160405180910390fd5b505b92915050565b6000341115613d43576040517fb398979f00000000000000000000000000000000000000000000000000000000815260040160405180910390fd5b565b6000613d4f613951565b60000160089054906101000a900460ff16905090565b6000806000835160208501865af4905092915050565b60003d905090565b606060405190503d81523d6000602083013e3d602001810160405290565b6040513d6000823e3d81fd5b5080546000825590600052602060002090810190613dcb9190613e1f565b50565b5080546000825590600052602060002090810190613dec9190613e1f565b50565b6040518060400160405280600073ffffffffffffffffffffffffffffffffffffffff168152602001600081525090565b5b80821115613e38576000816000905550600101613e20565b5090565b600082825260208201905092915050565b7f4e4f5f4449524543545f53454e44000000000000000000000000000000000000600082015250565b6000613e83600e83613e3c565b9150613e8e82613e4d565b602082019050919050565b60006020820190508181036000830152613eb281613e76565b9050919050565b6000604051905090565b600080fd5b600080fd5b600073ffffffffffffffffffffffffffffffffffffffff82169050919050565b6000613ef882613ecd565b9050919050565b613f0881613eed565b8114613f1357600080fd5b50565b600081359050613f2581613eff565b92915050565b600080fd5b600080fd5b600080fd5b60008083601f840112613f5057613f4f613f2b565b5b8235905067ffffffffffffffff811115613f6d57613f6c613f30565b5b602083019150836020820283011115613f8957613f88613f35565b5b9250929050565b60008083601f840112613fa657613fa5613f2b565b5b8235905067ffffffffffffffff811115613fc357613fc2613f30565b5b602083019150836020820283011115613fdf57613fde613f35565b5b9250929050565b60008060008060006060868803121561400257614001613ec3565b5b600061401088828901613f16565b955050602086013567ffffffffffffffff81111561403157614030613ec8565b5b61403d88828901613f3a565b9450945050604086013567ffffffffffffffff8111156140605761405f613ec8565b5b61406c88828901613f90565b92509250509295509295909350565b6000806040838503121561409257614091613ec3565b5b60006140a085828601613f16565b92505060206140b185828601613f16565b9150509250929050565b6000819050919050565b6140ce816140bb565b82525050565b60006020820190506140e960008301846140c5565b92915050565b6140f881613eed565b82525050565b600060208201905061411360008301846140ef565b92915050565b60006020828403121561412f5761412e613ec3565b5b600061413d84828501613f16565b91505092915050565b600060408201905061415b60008301856140ef565b61416860208301846140c5565b9392505050565b600080fd5b6000601f19601f8301169050919050565b7f4e487b7100000000000000000000000000000000000000000000000000000000600052604160045260246000fd5b6141bd82614174565b810181811067ffffffffffffffff821117156141dc576141db614185565b5b80604052505050565b60006141ef613eb9565b90506141fb82826141b4565b919050565b600067ffffffffffffffff82111561421b5761421a614185565b5b61422482614174565b9050602081019050919050565b82818337600083830152505050565b600061425361424e84614200565b6141e5565b90508281526020810184848401111561426f5761426e61416f565b5b61427a848285614231565b509392505050565b600082601f83011261429757614296613f2b565b5b81356142a7848260208601614240565b91505092915050565b600080604083850312156142c7576142c6613ec3565b5b60006142d585828601613f16565b925050602083013567ffffffffffffffff8111156142f6576142f5613ec8565b5b61430285828601614282565b9150509250929050565b6000819050919050565b61431f8161430c565b82525050565b600060208201905061433a6000830184614316565b92915050565b600067ffffffffffffffff82111561435b5761435a614185565b5b61436482614174565b9050602081019050919050565b600061438461437f84614340565b6141e5565b9050828152602081018484840111156143a05761439f61416f565b5b6143ab848285614231565b509392505050565b600082601f8301126143c8576143c7613f2b565b5b81356143d8848260208601614371565b91505092915050565b6143ea816140bb565b81146143f557600080fd5b50565b600081359050614407816143e1565b92915050565b6000806000806080858703121561442757614426613ec3565b5b600085013567ffffffffffffffff81111561444557614444613ec8565b5b614451878288016143b3565b945050602061446287828801613f16565b9350506040614473878288016143f8565b925050606061448487828801613f16565b91505092959194509250565b60008083601f8401126144a6576144a5613f2b565b5b8235905067ffffffffffffffff8111156144c3576144c2613f30565b5b6020830191508360018202830111156144df576144de613f35565b5b9250929050565b60008060008060008060a0878903121561450357614502613ec3565b5b600061451189828a01613f16565b965050602061452289828a01613f16565b955050604061453389828a016143f8565b945050606061454489828a016143f8565b935050608087013567ffffffffffffffff81111561456557614564613ec8565b5b61457189828a01614490565b92509250509295509295509295565b600080600080600080600060c0888a03121561459f5761459e613ec3565b5b60006145ad8a828b01613f16565b97505060206145be8a828b01613f16565b96505060406145cf8a828b016143f8565b95505060606145e08a828b01613f16565b94505060806145f18a828b01613f16565b93505060a088013567ffffffffffffffff81111561461257614611613ec8565b5b61461e8a828b01614490565b925092505092959891949750929550565b60008060006040848603121561464857614647613ec3565b5b600061465686828701613f16565b935050602084013567ffffffffffffffff81111561467757614676613ec8565b5b61468386828701613f3a565b92509250509250925092565b600081519050919050565b600082825260208201905092915050565b6000819050602082019050919050565b6146c481613eed565b82525050565b6146d3816140bb565b82525050565b6040820160008201516146ef60008501826146bb565b50602082015161470260208501826146ca565b50505050565b600061471483836146d9565b60408301905092915050565b6000602082019050919050565b60006147388261468f565b614742818561469a565b935061474d836146ab565b8060005b8381101561477e5781516147658882614708565b975061477083614720565b925050600181019050614751565b5085935050505092915050565b600060208201905081810360008301526147a5818461472d565b905092915050565b600081519050919050565b60005b838110156147d65780820151818401526020810190506147bb565b60008484015250505050565b60006147ed826147ad565b6147f78185613e3c565b93506148078185602086016147b8565b61481081614174565b840191505092915050565b6000602082019050818103600083015261483581846147e2565b905092915050565b60008060006060848603121561485657614855613ec3565b5b600061486486828701613f16565b935050602061487586828701613f16565b9250506040614886868287016143f8565b9150509250925092565b60008060008060008060a087890312156148ad576148ac613ec3565b5b60006148bb89828a01613f16565b96505060206148cc89828a01613f16565b95505060406148dd89828a016143f8565b94505060606148ee89828a01613f16565b935050608087013567ffffffffffffffff81111561490f5761490e613ec8565b5b61491b89828a01614490565b92509250509295509295509295565b60008060008060006080868803121561494657614945613ec3565b5b600061495488828901613f16565b955050602061496588828901613f16565b9450506040614976888289016143f8565b935050606086013567ffffffffffffffff81111561499757614996613ec8565b5b6149a388828901614490565b92509250509295509295909350565b600080600080608085870312156149cc576149cb613ec3565b5b60006149da87828801613f16565b94505060206149eb87828801613f16565b93505060406149fc87828801613f16565b9250506060614a0d87828801613f16565b91505092959194509250565b7f4e6f74207065726d69742e000000000000000000000000000000000000000000600082015250565b6000614a4f600b83613e3c565b9150614a5a82614a19565b602082019050919050565b60006020820190508181036000830152614a7e81614a42565b9050919050565b7f4572726f7220617272617920646174612e000000000000000000000000000000600082015250565b6000614abb601183613e3c565b9150614ac682614a85565b602082019050919050565b60006020820190508181036000830152614aea81614aae565b9050919050565b7f4e487b7100000000000000000000000000000000000000000000000000000000600052603260045260246000fd5b7f5a45524f5f414444524553530000000000000000000000000000000000000000600082015250565b6000614b56600c83613e3c565b9150614b6182614b20565b602082019050919050565b60006020820190508181036000830152614b8581614b49565b9050919050565b7f5a45524f5f524154450000000000000000000000000000000000000000000000600082015250565b6000614bc2600983613e3c565b9150614bcd82614b8c565b602082019050919050565b60006020820190508181036000830152614bf181614bb5565b9050919050565b7f4e487b7100000000000000000000000000000000000000000000000000000000600052601160045260246000fd5b6000614c32826140bb565b9150614c3d836140bb565b9250828201905080821115614c5557614c54614bf8565b5b92915050565b7f494e56414c49445f524154450000000000000000000000000000000000000000600082015250565b6000614c91600c83613e3c565b9150614c9c82614c5b565b602082019050919050565b60006020820190508181036000830152614cc081614c84565b9050919050565b6000604082019050614cdc60008301856140ef565b614ce960208301846140ef565b9392505050565b600081519050614cff816143e1565b92915050565b600060208284031215614d1b57614d1a613ec3565b5b6000614d2984828501614cf0565b91505092915050565b600081519050614d4181613eff565b92915050565b600060208284031215614d5d57614d5c613ec3565b5b6000614d6b84828501614d32565b91505092915050565b600081519050919050565b600082825260208201905092915050565b6000819050602082019050919050565b6000614dac83836146bb565b60208301905092915050565b6000602082019050919050565b6000614dd082614d74565b614dda8185614d7f565b9350614de583614d90565b8060005b83811015614e16578151614dfd8882614da0565b9750614e0883614db8565b925050600181019050614de9565b5085935050505092915050565b6000604082019050614e3860008301856140c5565b8181036020830152614e4a8184614dc5565b90509392505050565b600067ffffffffffffffff821115614e6e57614e6d614185565b5b602082029050602081019050919050565b6000614e92614e8d84614e53565b6141e5565b90508083825260208201905060208402830185811115614eb557614eb4613f35565b5b835b81811015614ede5780614eca8882614cf0565b845260208401935050602081019050614eb7565b5050509392505050565b600082601f830112614efd57614efc613f2b565b5b8151614f0d848260208601614e7f565b91505092915050565b600060208284031215614f2c57614f2b613ec3565b5b600082015167ffffffffffffffff811115614f4a57614f49613ec8565b5b614f5684828501614ee8565b91505092915050565b6000614f6a826140bb565b9150614f75836140bb565b9250828203905081811115614f8d57614f8c614bf8565b5b92915050565b7f4552524f525f414d4f554e542e00000000000000000000000000000000000000600082015250565b6000614fc9600d83613e3c565b9150614fd482614f93565b602082019050919050565b60006020820190508181036000830152614ff881614fbc565b9050919050565b6000608082019050818103600083015261501981876147e2565b905061502860208301866140ef565b61503560408301856140ef565b61504260608301846140c5565b95945050505050565b60006150578385613e3c565b9350615064838584614231565b61506d83614174565b840190509392505050565b600060c082019050818103600083015261509381898b61504b565b90506150a260208301886140ef565b6150af60408301876140ef565b6150bc60608301866140c5565b6150c960808301856140ef565b6150d660a08301846140c5565b98975050505050505050565b7f496e76616c696420706169722e00000000000000000000000000000000000000600082015250565b6000615118600d83613e3c565b9150615123826150e2565b602082019050919050565b600060208201905081810360008301526151478161510b565b9050919050565b7f4c697175696469747920646f6573206e6f742065786973742e00000000000000600082015250565b6000615184601983613e3c565b915061518f8261514e565b602082019050919050565b600060208201905081810360008301526151b381615177565b9050919050565b6000819050919050565b6000819050919050565b60006151e96151e46151df846151ba565b6151c4565b6140bb565b9050919050565b6151f9816151ce565b82525050565b600060a08201905061521460008301886140c5565b61522160208301876151f0565b81810360408301526152338186614dc5565b905061524260608301856140ef565b61524f60808301846140c5565b9695505050505050565b600060c082019050818103600083015261527481898b61504b565b905061528360208301886140ef565b61529060408301876140c5565b61529d60608301866140ef565b6152aa60808301856140ef565b6152b760a08301846140ef565b98975050505050505050565b7f5a45524f5f414444524553532e00000000000000000000000000000000000000600082015250565b60006152f9600d83613e3c565b9150615304826152c3565b602082019050919050565b60006020820190508181036000830152615328816152ec565b9050919050565b60006dffffffffffffffffffffffffffff82169050919050565b6153528161532f565b811461535d57600080fd5b50565b60008151905061536f81615349565b92915050565b600063ffffffff82169050919050565b61538e81615375565b811461539957600080fd5b50565b6000815190506153ab81615385565b92915050565b6000806000606084860312156153ca576153c9613ec3565b5b60006153d886828701615360565b93505060206153e986828701615360565b92505060406153fa8682870161539c565b9150509250925092565b600061541f61541a6154158461532f565b6151c4565b6140bb565b9050919050565b61542f81615404565b82525050565b600060608201905061544a60008301866140c5565b6154576020830185615426565b6154646040830184615426565b949350505050565b7f4e487b7100000000000000000000000000000000000000000000000000000000600052602160045260246000fd5b600381106154ac576154ab61546c565b5b50565b60008190506154bd8261549b565b919050565b60006154cd826154af565b9050919050565b6154dd816154c2565b82525050565b60006101208201905081810360008301526154ff818c8e61504b565b905061550e602083018b6140ef565b61551b604083018a6140ef565b61552860608301896140c5565b61553560808301886140ef565b61554260a08301876140c5565b61554f60c08301866140ef565b61555c60e08301856140c5565b61556a6101008301846154d4565b9b9a5050505050505050505050565b7f5a45524f5f414d4f554e54000000000000000000000000000000000000000000600082015250565b60006155af600b83613e3c565b91506155ba82615579565b602082019050919050565b600060208201905081810360008301526155de816155a2565b9050919050565b60006060820190506155fa60008301866140ef565b61560760208301856140ef565b61561460408301846140c5565b949350505050565b7f504149525f4e4f545f5245414459000000000000000000000000000000000000600082015250565b6000615652600e83613e3c565b915061565d8261561c565b602082019050919050565b6000602082019050818103600083015261568181615645565b9050919050565b60006101008201905061569e600083018b6140ef565b6156ab602083018a6140ef565b6156b860408301896140c5565b6156c560608301886140c5565b6156d260808301876151f0565b6156df60a08301866151f0565b6156ec60c08301856140ef565b6156f960e08301846140c5565b9998505050505050505050565b60008060006060848603121561571f5761571e613ec3565b5b600061572d86828701614cf0565b935050602061573e86828701614cf0565b925050604061574f86828701614cf0565b9150509250925092565b6000819050919050565b600067ffffffffffffffff82169050919050565b600061579261578d61578884615759565b6151c4565b615763565b9050919050565b6157a281615777565b82525050565b60006020820190506157bd6000830184615799565b92915050565b6157cc8161430c565b81146157d757600080fd5b50565b6000815190506157e9816157c3565b92915050565b60006020828403121561580557615804613ec3565b5b6000615813848285016157da565b91505092915050565b600081519050919050565b600081905092915050565b600061583d8261581c565b6158478185615827565b93506158578185602086016147b8565b80840191505092915050565b600061586f8284615832565b915081905092915050565b60008115159050919050565b61588f8161587a565b811461589a57600080fd5b50565b6000815190506158ac81615886565b92915050565b6000602082840312156158c8576158c7613ec3565b5b60006158d68482850161589d565b91505092915050565b7f5472616e7366657248656c7065723a205452414e534645525f46524f4d5f464160008201527f494c454400000000000000000000000000000000000000000000000000000000602082015250565b600061593b602483613e3c565b9150615946826158df565b604082019050919050565b6000602082019050818103600083015261596a8161592e565b9050919050565b7f5472616e7366657248656c7065723a204554485f5452414e534645525f46414960008201527f4c45440000000000000000000000000000000000000000000000000000000000602082015250565b60006159cd602383613e3c565b91506159d882615971565b604082019050919050565b600060208201905081810360008301526159fc816159c0565b9050919050565b6000615a0e826140bb565b9150615a19836140bb565b9250828202615a27816140bb565b91508282048414831517615a3e57615a3d614bf8565b5b5092915050565b7f4e487b7100000000000000000000000000000000000000000000000000000000600052601260045260246000fd5b6000615a7f826140bb565b9150615a8a836140bb565b925082615a9a57615a99615a45565b5b828204905092915050565b7f5472616e7366657248656c7065723a20415050524f56455f4641494c45440000600082015250565b6000615adb601e83613e3c565b9150615ae682615aa5565b602082019050919050565b60006020820190508181036000830152615b0a81615ace565b9050919050565b7f5472616e7366657248656c7065723a205452414e534645525f4641494c454400600082015250565b6000615b47601f83613e3c565b9150615b5282615b11565b602082019050919050565b60006020820190508181036000830152615b7681615b3a565b9050919050565b7f496e73756666696369656e7420616d6f756e742e000000000000000000000000600082015250565b6000615bb3601483613e3c565b9150615bbe82615b7d565b602082019050919050565b60006020820190508181036000830152615be281615ba6565b9050919050565b600060e082019050615bfe600083018a6140ef565b615c0b60208301896140ef565b615c1860408301886140c5565b615c2560608301876151f0565b615c3260808301866151f0565b615c3f60a08301856140ef565b615c4c60c08301846140c5565b98975050505050505050565b60008060408385031215615c6f57615c6e613ec3565b5b6000615c7d85828601614cf0565b9250506020615c8e85828601614cf0565b915050925092905056fea2646970667358221220a9134ffba3a8773cd178c6a1fe6ada25c281407a350e2c98fcfb34fb6ec9f17664736f6c63430008160033","linkReferences":{}},"methodIdentifiers":{"UPGRADE_INTERFACE_VERSION()":"ad3cb1cc","USDT()":"c54e44eb","WBNB()":"8dd95002","addLiquidity(address,address,uint256,string)":"d9105f63","admin()":"f851a440","changeRecipient(address)":"92c2bcb4","changeSender(address)":"b280a7e7","getAllowance(address,address)":"0af4187d","getPrice(address)":"41976e09","getQuoteAmount(address,address,uint256)":"b68cdb31","initialize(address,address,address,address)":"f8c8765e","multiBalanceOf(address,address[])":"9f166cf1","multiRecharge(address,address,uint256,uint256,string)":"71862276","owner()":"8da5cb5b","proxiableUUID()":"52d1902d","recipient()":"66d003ac","removeLiquidity(address,address,uint256,address,string)":"c474603d","renounceOwnership()":"715018a6","sender()":"67e404ce","setAllocation(address,address[],uint256[])":"07e312a4","swapExactIn(address,address,uint256,address,address,string)":"762cdf81","transferOwnership(address)":"f2fde38b","uniswapV2Router()":"1694505e","uniswapV2factory()":"70fe251b","upgradeToAndCall(address,bytes)":"4f1ef286","withdraw(string,address,uint256,address)":"62a33811"},"id":33}