{"abi":[{"type":"receive","stateMutability":"payable"},{"type":"function","name":"UPGRADE_INTERFACE_VERSION","inputs":[],"outputs":[{"name":"","type":"string","internalType":"string"}],"stateMutability":"view"},{"type":"function","name":"addLiquidity","inputs":[{"name":"token0","type":"address","internalType":"address"},{"name":"token1","type":"address","internalType":"address"},{"name":"amount0","type":"uint256","internalType":"uint256"},{"name":"remark","type":"string","internalType":"string"}],"outputs":[],"stateMutability":"nonpayable"},{"type":"function","name":"admin","inputs":[],"outputs":[{"name":"","type":"address","internalType":"address"}],"stateMutability":"view"},{"type":"function","name":"getQuoteAmount","inputs":[{"name":"token0","type":"address","internalType":"address"},{"name":"token1","type":"address","internalType":"address"},{"name":"amount0","type":"uint256","internalType":"uint256"}],"outputs":[{"name":"","type":"uint256","internalType":"uint256"}],"stateMutability":"view"},{"type":"function","name":"initialize","inputs":[{"name":"_router","type":"address","internalType":"address"},{"name":"_admin","type":"address","internalType":"address"},{"name":"_recipient","type":"address","internalType":"address"},{"name":"_sender","type":"address","internalType":"address"}],"outputs":[],"stateMutability":"nonpayable"},{"type":"function","name":"multiBalanceOf","inputs":[{"name":"token","type":"address","internalType":"address"},{"name":"users","type":"address[]","internalType":"address[]"}],"outputs":[{"name":"","type":"tuple[]","internalType":"struct Recharge.Info[]","components":[{"name":"user","type":"address","internalType":"address"},{"name":"amount","type":"uint256","internalType":"uint256"}]}],"stateMutability":"view"},{"type":"function","name":"multiRecharge","inputs":[{"name":"token0","type":"address","internalType":"address"},{"name":"token1","type":"address","internalType":"address"},{"name":"amount0","type":"uint256","internalType":"uint256"},{"name":"amount1","type":"uint256","internalType":"uint256"},{"name":"remark","type":"string","internalType":"string"}],"outputs":[],"stateMutability":"nonpayable"},{"type":"function","name":"owner","inputs":[],"outputs":[{"name":"","type":"address","internalType":"address"}],"stateMutability":"view"},{"type":"function","name":"proxiableUUID","inputs":[],"outputs":[{"name":"","type":"bytes32","internalType":"bytes32"}],"stateMutability":"view"},{"type":"function","name":"recipient","inputs":[],"outputs":[{"name":"","type":"address","internalType":"address"}],"stateMutability":"view"},{"type":"function","name":"removeLiquidity","inputs":[{"name":"token0","type":"address","internalType":"address"},{"name":"token1","type":"address","internalType":"address"},{"name":"amount","type":"uint256","internalType":"uint256"},{"name":"to","type":"address","internalType":"address"},{"name":"remark","type":"string","internalType":"string"}],"outputs":[],"stateMutability":"nonpayable"},{"type":"function","name":"renounceOwnership","inputs":[],"outputs":[],"stateMutability":"nonpayable"},{"type":"function","name":"sender","inputs":[],"outputs":[{"name":"","type":"address","internalType":"address"}],"stateMutability":"view"},{"type":"function","name":"setAllocation","inputs":[{"name":"token","type":"address","internalType":"address"},{"name":"recipients","type":"address[]","internalType":"address[]"},{"name":"rates","type":"uint256[]","internalType":"uint256[]"}],"outputs":[],"stateMutability":"nonpayable"},{"type":"function","name":"swapExactIn","inputs":[{"name":"fromToken","type":"address","internalType":"address"},{"name":"targetToken","type":"address","internalType":"address"},{"name":"fromAmount","type":"uint256","internalType":"uint256"},{"name":"from","type":"address","internalType":"address"},{"name":"to","type":"address","internalType":"address"},{"name":"remark","type":"string","internalType":"string"}],"outputs":[],"stateMutability":"nonpayable"},{"type":"function","name":"transferOwnership","inputs":[{"name":"newOwner","type":"address","internalType":"address"}],"outputs":[],"stateMutability":"nonpayable"},{"type":"function","name":"uniswapV2Router","inputs":[],"outputs":[{"name":"","type":"address","internalType":"address"}],"stateMutability":"view"},{"type":"function","name":"upgradeToAndCall","inputs":[{"name":"newImplementation","type":"address","internalType":"address"},{"name":"data","type":"bytes","internalType":"bytes"}],"outputs":[],"stateMutability":"payable"},{"type":"function","name":"withdraw","inputs":[{"name":"remark","type":"string","internalType":"string"},{"name":"token","type":"address","internalType":"address"},{"name":"amount","type":"uint256","internalType":"uint256"},{"name":"to","type":"address","internalType":"address"}],"outputs":[],"stateMutability":"nonpayable"},{"type":"event","name":"Exchange","inputs":[{"name":"remark","type":"string","indexed":false,"internalType":"string"},{"name":"original","type":"address","indexed":false,"internalType":"address"},{"name":"amount","type":"uint256","indexed":false,"internalType":"uint256"},{"name":"target","type":"address","indexed":false,"internalType":"address"},{"name":"from","type":"address","indexed":false,"internalType":"address"},{"name":"to","type":"address","indexed":false,"internalType":"address"}],"anonymous":false},{"type":"event","name":"Initialized","inputs":[{"name":"version","type":"uint64","indexed":false,"internalType":"uint64"}],"anonymous":false},{"type":"event","name":"Liquidity","inputs":[{"name":"remark","type":"string","indexed":false,"internalType":"string"},{"name":"token0","type":"address","indexed":false,"internalType":"address"},{"name":"amount0","type":"uint256","indexed":false,"internalType":"uint256"},{"name":"token1","type":"address","indexed":false,"internalType":"address"},{"name":"amount1","type":"uint256","indexed":false,"internalType":"uint256"},{"name":"pair","type":"address","indexed":false,"internalType":"address"},{"name":"liquidity","type":"uint256","indexed":false,"internalType":"uint256"},{"name":"mark","type":"uint8","indexed":false,"internalType":"enum Recharge.Mark"}],"anonymous":false},{"type":"event","name":"MultiRecharge","inputs":[{"name":"remark","type":"string","indexed":false,"internalType":"string"},{"name":"token0","type":"address","indexed":false,"internalType":"address"},{"name":"amount0","type":"uint256","indexed":false,"internalType":"uint256"},{"name":"token1","type":"address","indexed":false,"internalType":"address"},{"name":"amount1","type":"uint256","indexed":false,"internalType":"uint256"}],"anonymous":false},{"type":"event","name":"OwnershipTransferred","inputs":[{"name":"previousOwner","type":"address","indexed":true,"internalType":"address"},{"name":"newOwner","type":"address","indexed":true,"internalType":"address"}],"anonymous":false},{"type":"event","name":"Upgraded","inputs":[{"name":"implementation","type":"address","indexed":true,"internalType":"address"}],"anonymous":false},{"type":"event","name":"Withdraw","inputs":[{"name":"remark","type":"string","indexed":false,"internalType":"string"},{"name":"token","type":"address","indexed":false,"internalType":"address"},{"name":"to","type":"address","indexed":false,"internalType":"address"},{"name":"amount","type":"uint256","indexed":false,"internalType":"uint256"}],"anonymous":false},{"type":"error","name":"AddressEmptyCode","inputs":[{"name":"target","type":"address","internalType":"address"}]},{"type":"error","name":"ERC1967InvalidImplementation","inputs":[{"name":"implementation","type":"address","internalType":"address"}]},{"type":"error","name":"ERC1967NonPayable","inputs":[]},{"type":"error","name":"FailedCall","inputs":[]},{"type":"error","name":"InvalidInitialization","inputs":[]},{"type":"error","name":"NotInitializing","inputs":[]},{"type":"error","name":"OwnableInvalidOwner","inputs":[{"name":"owner","type":"address","internalType":"address"}]},{"type":"error","name":"OwnableUnauthorizedAccount","inputs":[{"name":"account","type":"address","internalType":"address"}]},{"type":"error","name":"ReentrancyGuardReentrantCall","inputs":[]},{"type":"error","name":"UUPSUnauthorizedCallContext","inputs":[]},{"type":"error","name":"UUPSUnsupportedProxiableUUID","inputs":[{"name":"slot","type":"bytes32","internalType":"bytes32"}]}],"bytecode":{"object":"0x60a06040523073ffffffffffffffffffffffffffffffffffffffff1660809073ffffffffffffffffffffffffffffffffffffffff168152503480156041575f5ffd5b5060015f81905550608051614c6261006f5f395f8181611e8e01528181611ee3015261209d0152614c625ff3fe608060405260043610610117575f3560e01c8063762cdf811161009f578063c474603d11610063578063c474603d146103a1578063d9105f63146103c9578063f2fde38b146103f1578063f851a44014610419578063f8c8765e1461044357610157565b8063762cdf81146102ad5780638da5cb5b146102d55780639f166cf1146102ff578063ad3cb1cc1461033b578063b68cdb311461036557610157565b806362a33811116100e657806362a33811146101f357806366d003ac1461021b57806367e404ce14610245578063715018a61461026f578063718622761461028557610157565b806307e312a41461015b5780631694505e146101835780634f1ef286146101ad57806352d1902d146101c957610157565b36610157576040517f08c379a000000000000000000000000000000000000000000000000000000000815260040161014e90613139565b60405180910390fd5b5f5ffd5b348015610166575f5ffd5b50610181600480360381019061017c9190613278565b61046b565b005b34801561018e575f5ffd5b5061019761082b565b6040516101a49190613318565b60405180910390f35b6101c760048036038101906101c29190613469565b610850565b005b3480156101d4575f5ffd5b506101dd61086f565b6040516101ea91906134db565b60405180910390f35b3480156101fe575f5ffd5b50610219600480360381019061021491906135c5565b6108a0565b005b348015610226575f5ffd5b5061022f610a24565b60405161023c9190613318565b60405180910390f35b348015610250575f5ffd5b50610259610a49565b6040516102669190613318565b60405180910390f35b34801561027a575f5ffd5b50610283610a6e565b005b348015610290575f5ffd5b506102ab60048036038101906102a6919061369a565b610a81565b005b3480156102b8575f5ffd5b506102d360048036038101906102ce9190613730565b610b00565b005b3480156102e0575f5ffd5b506102e9610fca565b6040516102f69190613318565b60405180910390f35b34801561030a575f5ffd5b50610325600480360381019061032091906137da565b610fff565b604051610332919061392a565b60405180910390f35b348015610346575f5ffd5b5061034f61129b565b60405161035c919061399a565b60405180910390f35b348015610370575f5ffd5b5061038b600480360381019061038691906139ba565b6112d4565b6040516103989190613a19565b60405180910390f35b3480156103ac575f5ffd5b506103c760048036038101906103c29190613a32565b6116ca565b005b3480156103d4575f5ffd5b506103ef60048036038101906103ea9190613ac8565b6117c1565b005b3480156103fc575f5ffd5b5061041760048036038101906104129190613b4c565b611b58565b005b348015610424575f5ffd5b5061042d611bdc565b60405161043a9190613318565b60405180910390f35b34801561044e575f5ffd5b5061046960048036038101906104649190613b77565b611c01565b005b3373ffffffffffffffffffffffffffffffffffffffff1660035f9054906101000a900473ffffffffffffffffffffffffffffffffffffffff1673ffffffffffffffffffffffffffffffffffffffff16146104fa576040517f08c379a00000000000000000000000000000000000000000000000000000000081526004016104f190613c25565b60405180910390fd5b818190508484905014610542576040517f08c379a000000000000000000000000000000000000000000000000000000000815260040161053990613c8d565b60405180910390fd5b60015f8673ffffffffffffffffffffffffffffffffffffffff1673ffffffffffffffffffffffffffffffffffffffff1681526020019081526020015f205f5f82015f61058e919061305a565b600182015f61059d9190613078565b50505f60015f8773ffffffffffffffffffffffffffffffffffffffff1673ffffffffffffffffffffffffffffffffffffffff1681526020019081526020015f2090505f5f5f90505b868690508110156107dd575f73ffffffffffffffffffffffffffffffffffffffff1687878381811061061a57610619613cab565b5b905060200201602081019061062f9190613b4c565b73ffffffffffffffffffffffffffffffffffffffff1603610685576040517f08c379a000000000000000000000000000000000000000000000000000000000815260040161067c90613d22565b60405180910390fd5b5f85858381811061069957610698613cab565b5b90506020020135116106e0576040517f08c379a00000000000000000000000000000000000000000000000000000000081526004016106d790613d8a565b60405180910390fd5b825f018787838181106106f6576106f5613cab565b5b905060200201602081019061070b9190613b4c565b908060018154018082558091505060019003905f5260205f20015f9091909190916101000a81548173ffffffffffffffffffffffffffffffffffffffff021916908373ffffffffffffffffffffffffffffffffffffffff1602179055508260010185858381811061077f5761077e613cab565b5b90506020020135908060018154018082558091505060019003905f5260205f20015f90919091909150558484828181106107bc576107bb613cab565b5b90506020020135826107ce9190613dd5565b915080806001019150506105e5565b506103e88114610822576040517f08c379a000000000000000000000000000000000000000000000000000000000815260040161081990613e52565b60405180910390fd5b50505050505050565b60025f9054906101000a900473ffffffffffffffffffffffffffffffffffffffff1681565b610858611e8c565b61086182611f72565b61086b8282611f7d565b5050565b5f61087861209b565b7f360894a13ba1a3210667c828492db98dca3e2076cc3735a920a3ca505d382bbc5f1b905090565b3373ffffffffffffffffffffffffffffffffffffffff1660035f9054906101000a900473ffffffffffffffffffffffffffffffffffffffff1673ffffffffffffffffffffffffffffffffffffffff161461092f576040517f08c379a000000000000000000000000000000000000000000000000000000000815260040161092690613c25565b60405180910390fd5b5f8211610971576040517f08c379a000000000000000000000000000000000000000000000000000000000815260040161096890613eba565b60405180910390fd5b5f73ffffffffffffffffffffffffffffffffffffffff168373ffffffffffffffffffffffffffffffffffffffff16146109d6576109d18360055f9054906101000a900473ffffffffffffffffffffffffffffffffffffffff168385612122565b6109e1565b6109e08183612255565b5b7f99310eed5bb161586b62449f89ccaa4580f85f953cd64218092edfc2b1f5fce784848385604051610a169493929190613ed8565b60405180910390a150505050565b60045f9054906101000a900473ffffffffffffffffffffffffffffffffffffffff1681565b60055f9054906101000a900473ffffffffffffffffffffffffffffffffffffffff1681565b610a76612350565b610a7f5f6123d7565b565b610a896124a8565b5f841115610a9c57610a9b86856124ec565b5b5f831115610aaf57610aae85846124ec565b5b7f654e20593b10fd03b9dbe3938497fafa11a284960052526dc709eb43040d3c07828288878988604051610ae896959493929190613f4e565b60405180910390a1610af861265d565b505050505050565b3373ffffffffffffffffffffffffffffffffffffffff1660035f9054906101000a900473ffffffffffffffffffffffffffffffffffffffff1673ffffffffffffffffffffffffffffffffffffffff1614610b8f576040517f08c379a0000000000000000000000000000000000000000000000000000000008152600401610b8690613c25565b60405180910390fd5b5f60025f9054906101000a900473ffffffffffffffffffffffffffffffffffffffff1673ffffffffffffffffffffffffffffffffffffffff1663c45a01556040518163ffffffff1660e01b8152600401602060405180830381865afa158015610bfa573d5f5f3e3d5ffd5b505050506040513d601f19601f82011682018060405250810190610c1e9190613fbc565b90505f8173ffffffffffffffffffffffffffffffffffffffff1663e6a439058a8a6040518363ffffffff1660e01b8152600401610c5c929190613fe7565b602060405180830381865afa158015610c77573d5f5f3e3d5ffd5b505050506040513d601f19601f82011682018060405250810190610c9b9190613fbc565b90505f73ffffffffffffffffffffffffffffffffffffffff168173ffffffffffffffffffffffffffffffffffffffff1603610d0b576040517f08c379a0000000000000000000000000000000000000000000000000000000008152600401610d0290614058565b60405180910390fd5b5f8173ffffffffffffffffffffffffffffffffffffffff166318160ddd6040518163ffffffff1660e01b8152600401602060405180830381865afa158015610d55573d5f5f3e3d5ffd5b505050506040513d601f19601f82011682018060405250810190610d79919061408a565b90505f8111610dbd576040517f08c379a0000000000000000000000000000000000000000000000000000000008152600401610db4906140ff565b60405180910390fd5b610dc98a88308b612122565b610df58a60025f9054906101000a900473ffffffffffffffffffffffffffffffffffffffff168a612666565b5f600267ffffffffffffffff811115610e1157610e10613345565b5b604051908082528060200260200182016040528015610e3f5781602001602082028036833780820191505090505b5090508a815f81518110610e5657610e55613cab565b5b602002602001019073ffffffffffffffffffffffffffffffffffffffff16908173ffffffffffffffffffffffffffffffffffffffff16815250508981600181518110610ea557610ea4613cab565b5b602002602001019073ffffffffffffffffffffffffffffffffffffffff16908173ffffffffffffffffffffffffffffffffffffffff168152505060025f9054906101000a900473ffffffffffffffffffffffffffffffffffffffff1673ffffffffffffffffffffffffffffffffffffffff16635c11d7958a5f848b601e42610f2d9190613dd5565b6040518663ffffffff1660e01b8152600401610f4d959493929190614207565b5f604051808303815f87803b158015610f64575f5ffd5b505af1158015610f76573d5f5f3e3d5ffd5b505050507fb8d32d215e4cb191d4eab15881b20b08541e7696fca52eb4efe27e77011f738c86868d8c8e8d8d604051610fb5979695949392919061425f565b60405180910390a15050505050505050505050565b5f5f610fd4612796565b9050805f015f9054906101000a900473ffffffffffffffffffffffffffffffffffffffff1691505090565b60605f8383905090505f8167ffffffffffffffff81111561102357611022613345565b5b60405190808252806020026020018201604052801561105c57816020015b611049613096565b8152602001906001900390816110415790505b5090505f73ffffffffffffffffffffffffffffffffffffffff168673ffffffffffffffffffffffffffffffffffffffff1603611160575f5f90505b8281101561115a5760405180604001604052808787848181106110bd576110bc613cab565b5b90506020020160208101906110d29190613b4c565b73ffffffffffffffffffffffffffffffffffffffff168152602001878784818110611100576110ff613cab565b5b90506020020160208101906111159190613b4c565b73ffffffffffffffffffffffffffffffffffffffff163181525082828151811061114257611141613cab565b5b60200260200101819052508080600101915050611097565b5061128f565b5f8690505f5f90505b8381101561128c57604051806040016040528088888481811061118f5761118e613cab565b5b90506020020160208101906111a49190613b4c565b73ffffffffffffffffffffffffffffffffffffffff1681526020018373ffffffffffffffffffffffffffffffffffffffff166370a082318a8a868181106111ee576111ed613cab565b5b90506020020160208101906112039190613b4c565b6040518263ffffffff1660e01b815260040161121f9190613318565b602060405180830381865afa15801561123a573d5f5f3e3d5ffd5b505050506040513d601f19601f8201168201806040525081019061125e919061408a565b81525083828151811061127457611273613cab565b5b60200260200101819052508080600101915050611169565b50505b80925050509392505050565b6040518060400160405280600581526020017f352e302e3000000000000000000000000000000000000000000000000000000081525081565b5f5f60025f9054906101000a900473ffffffffffffffffffffffffffffffffffffffff1673ffffffffffffffffffffffffffffffffffffffff1663c45a01556040518163ffffffff1660e01b8152600401602060405180830381865afa158015611340573d5f5f3e3d5ffd5b505050506040513d601f19601f820116820180604052508101906113649190613fbc565b90505f8173ffffffffffffffffffffffffffffffffffffffff1663e6a4390587876040518363ffffffff1660e01b81526004016113a2929190613fe7565b602060405180830381865afa1580156113bd573d5f5f3e3d5ffd5b505050506040513d601f19601f820116820180604052508101906113e19190613fbc565b90505f73ffffffffffffffffffffffffffffffffffffffff168173ffffffffffffffffffffffffffffffffffffffff1603611420575f925050506116c3565b5f5f8273ffffffffffffffffffffffffffffffffffffffff16630902f1ac6040518163ffffffff1660e01b8152600401606060405180830381865afa15801561146b573d5f5f3e3d5ffd5b505050506040513d601f19601f8201168201806040525081019061148f9190614343565b50915091505f826dffffffffffffffffffffffffffff1614806114c157505f816dffffffffffffffffffffffffffff16145b156114d2575f9450505050506116c3565b5f8373ffffffffffffffffffffffffffffffffffffffff16630dfe16816040518163ffffffff1660e01b8152600401602060405180830381865afa15801561151c573d5f5f3e3d5ffd5b505050506040513d601f19601f820116820180604052508101906115409190613fbc565b90508873ffffffffffffffffffffffffffffffffffffffff168173ffffffffffffffffffffffffffffffffffffffff160361161e5760025f9054906101000a900473ffffffffffffffffffffffffffffffffffffffff1673ffffffffffffffffffffffffffffffffffffffff1663ad615dec8885856040518463ffffffff1660e01b81526004016115d3939291906143c3565b602060405180830381865afa1580156115ee573d5f5f3e3d5ffd5b505050506040513d601f19601f82011682018060405250810190611612919061408a565b955050505050506116c3565b60025f9054906101000a900473ffffffffffffffffffffffffffffffffffffffff1673ffffffffffffffffffffffffffffffffffffffff1663ad615dec8884866040518463ffffffff1660e01b815260040161167c939291906143c3565b602060405180830381865afa158015611697573d5f5f3e3d5ffd5b505050506040513d601f19601f820116820180604052508101906116bb919061408a565b955050505050505b9392505050565b3373ffffffffffffffffffffffffffffffffffffffff1660035f9054906101000a900473ffffffffffffffffffffffffffffffffffffffff1673ffffffffffffffffffffffffffffffffffffffff1614611759576040517f08c379a000000000000000000000000000000000000000000000000000000000815260040161175090613c25565b60405180910390fd5b5f5f5f611768898989896127bd565b9250925092507f40b3035bfbf613475271fc900f5b40507464fc0a3fe970e8be28e78a4cfe8dfc85858b858c86898e60026040516117ae9998979695949392919061446b565b60405180910390a1505050505050505050565b6117c96124a8565b5f831161180b576040517f08c379a00000000000000000000000000000000000000000000000000000000081526004016118029061453a565b60405180910390fd5b5f3073ffffffffffffffffffffffffffffffffffffffff1663b68cdb318787876040518463ffffffff1660e01b815260040161184993929190614558565b602060405180830381865afa158015611864573d5f5f3e3d5ffd5b505050506040513d601f19601f82011682018060405250810190611888919061408a565b90505f81116118cc576040517f08c379a00000000000000000000000000000000000000000000000000000000081526004016118c3906145d7565b60405180910390fd5b6118d886333087612122565b6118e485333084612122565b6119108660025f9054906101000a900473ffffffffffffffffffffffffffffffffffffffff1686612666565b61193c8560025f9054906101000a900473ffffffffffffffffffffffffffffffffffffffff1683612666565b5f5f5f60025f9054906101000a900473ffffffffffffffffffffffffffffffffffffffff1673ffffffffffffffffffffffffffffffffffffffff1663e8e337008a8a8a885f5f30426040518963ffffffff1660e01b81526004016119a79897969594939291906145f5565b6060604051808303815f875af11580156119c3573d5f5f3e3d5ffd5b505050506040513d601f19601f820116820180604052508101906119e79190614671565b9250925092505f60025f9054906101000a900473ffffffffffffffffffffffffffffffffffffffff1673ffffffffffffffffffffffffffffffffffffffff1663c45a01556040518163ffffffff1660e01b8152600401602060405180830381865afa158015611a58573d5f5f3e3d5ffd5b505050506040513d601f19601f82011682018060405250810190611a7c9190613fbc565b90505f8173ffffffffffffffffffffffffffffffffffffffff1663e6a439058c8c6040518363ffffffff1660e01b8152600401611aba929190613fe7565b602060405180830381865afa158015611ad5573d5f5f3e3d5ffd5b505050506040513d601f19601f82011682018060405250810190611af99190613fbc565b90507f40b3035bfbf613475271fc900f5b40507464fc0a3fe970e8be28e78a4cfe8dfc88888d888e89878a6001604051611b3b9998979695949392919061446b565b60405180910390a1505050505050611b5161265d565b5050505050565b611b60612350565b5f73ffffffffffffffffffffffffffffffffffffffff168173ffffffffffffffffffffffffffffffffffffffff1603611bd0575f6040517f1e4fbdf7000000000000000000000000000000000000000000000000000000008152600401611bc79190613318565b60405180910390fd5b611bd9816123d7565b50565b60035f9054906101000a900473ffffffffffffffffffffffffffffffffffffffff1681565b5f611c0a612aea565b90505f815f0160089054906101000a900460ff161590505f825f015f9054906101000a900467ffffffffffffffff1690505f5f8267ffffffffffffffff16148015611c525750825b90505f60018367ffffffffffffffff16148015611c8557505f3073ffffffffffffffffffffffffffffffffffffffff163b145b905081158015611c93575080155b15611cca576040517ff92ee8a900000000000000000000000000000000000000000000000000000000815260040160405180910390fd5b6001855f015f6101000a81548167ffffffffffffffff021916908367ffffffffffffffff1602179055508315611d17576001855f0160086101000a81548160ff0219169083151502179055505b611d27611d22612afd565b612b04565b8860025f6101000a81548173ffffffffffffffffffffffffffffffffffffffff021916908373ffffffffffffffffffffffffffffffffffffffff1602179055508760035f6101000a81548173ffffffffffffffffffffffffffffffffffffffff021916908373ffffffffffffffffffffffffffffffffffffffff1602179055508660045f6101000a81548173ffffffffffffffffffffffffffffffffffffffff021916908373ffffffffffffffffffffffffffffffffffffffff1602179055508560055f6101000a81548173ffffffffffffffffffffffffffffffffffffffff021916908373ffffffffffffffffffffffffffffffffffffffff1602179055508315611e81575f855f0160086101000a81548160ff0219169083151502179055507fc7f505b2f371ae2175ee4913f4499e1f2633a7b5936321eed1cdaeb6115181d26001604051611e78919061470d565b60405180910390a15b505050505050505050565b7f000000000000000000000000000000000000000000000000000000000000000073ffffffffffffffffffffffffffffffffffffffff163073ffffffffffffffffffffffffffffffffffffffff161480611f3957507f000000000000000000000000000000000000000000000000000000000000000073ffffffffffffffffffffffffffffffffffffffff16611f20612b18565b73ffffffffffffffffffffffffffffffffffffffff1614155b15611f70576040517fe07c8dba00000000000000000000000000000000000000000000000000000000815260040160405180910390fd5b565b611f7a612350565b50565b8173ffffffffffffffffffffffffffffffffffffffff166352d1902d6040518163ffffffff1660e01b8152600401602060405180830381865afa925050508015611fe557506040513d601f19601f82011682018060405250810190611fe29190614750565b60015b61202657816040517f4c9c8ce300000000000000000000000000000000000000000000000000000000815260040161201d9190613318565b60405180910390fd5b7f360894a13ba1a3210667c828492db98dca3e2076cc3735a920a3ca505d382bbc5f1b811461208c57806040517faa1d49a400000000000000000000000000000000000000000000000000000000815260040161208391906134db565b60405180910390fd5b6120968383612b6b565b505050565b7f000000000000000000000000000000000000000000000000000000000000000073ffffffffffffffffffffffffffffffffffffffff163073ffffffffffffffffffffffffffffffffffffffff1614612120576040517fe07c8dba00000000000000000000000000000000000000000000000000000000815260040160405180910390fd5b565b5f5f8573ffffffffffffffffffffffffffffffffffffffff166323b872dd86868660405160240161215593929190614558565b6040516020818303038152906040529060e01b6020820180517bffffffffffffffffffffffffffffffffffffffffffffffffffffffff83818316178352505050506040516121a391906147bf565b5f604051808303815f865af19150503d805f81146121dc576040519150601f19603f3d011682016040523d82523d5f602084013e6121e1565b606091505b509150915081801561220e57505f8151148061220d57508080602001905181019061220c919061480a565b5b5b61224d576040517f08c379a0000000000000000000000000000000000000000000000000000000008152600401612244906148a5565b60405180910390fd5b505050505050565b5f8273ffffffffffffffffffffffffffffffffffffffff16825f67ffffffffffffffff81111561228857612287613345565b5b6040519080825280601f01601f1916602001820160405280156122ba5781602001600182028036833780820191505090505b506040516122c891906147bf565b5f6040518083038185875af1925050503d805f8114612302576040519150601f19603f3d011682016040523d82523d5f602084013e612307565b606091505b505090508061234b576040517f08c379a000000000000000000000000000000000000000000000000000000000815260040161234290614933565b60405180910390fd5b505050565b612358612afd565b73ffffffffffffffffffffffffffffffffffffffff16612376610fca565b73ffffffffffffffffffffffffffffffffffffffff16146123d557612399612afd565b6040517f118cdaa70000000000000000000000000000000000000000000000000000000081526004016123cc9190613318565b60405180910390fd5b565b5f6123e0612796565b90505f815f015f9054906101000a900473ffffffffffffffffffffffffffffffffffffffff16905082825f015f6101000a81548173ffffffffffffffffffffffffffffffffffffffff021916908373ffffffffffffffffffffffffffffffffffffffff1602179055508273ffffffffffffffffffffffffffffffffffffffff168173ffffffffffffffffffffffffffffffffffffffff167f8be0079c531659141344cd1fd0a4f28419497f9722a3daafe3b4186f6b6457e060405160405180910390a3505050565b60025f54036124e3576040517f3ee5aeb500000000000000000000000000000000000000000000000000000000815260040160405180910390fd5b60025f81905550565b6124f882333084612122565b5f60015f8473ffffffffffffffffffffffffffffffffffffffff1673ffffffffffffffffffffffffffffffffffffffff1681526020019081526020015f2090505f815f018054905003612577576125718360045f9054906101000a900473ffffffffffffffffffffffffffffffffffffffff1684612bdd565b50612659565b5f815f018054905090505f8390505f5f90505b82811015612654575f6001846125a09190614951565b82036125ae578290506125f6565b6103e88560010183815481106125c7576125c6613cab565b5b905f5260205f200154876125db9190614984565b6125e591906149f2565b905080836125f39190614951565b92505b5f8111156126465761264587865f01848154811061261757612616613cab565b5b905f5260205f20015f9054906101000a900473ffffffffffffffffffffffffffffffffffffffff1683612bdd565b5b50808060010191505061258a565b505050505b5050565b60015f81905550565b5f5f8473ffffffffffffffffffffffffffffffffffffffff1663095ea7b38585604051602401612697929190614a22565b6040516020818303038152906040529060e01b6020820180517bffffffffffffffffffffffffffffffffffffffffffffffffffffffff83818316178352505050506040516126e591906147bf565b5f604051808303815f865af19150503d805f811461271e576040519150601f19603f3d011682016040523d82523d5f602084013e612723565b606091505b509150915081801561275057505f8151148061274f57508080602001905181019061274e919061480a565b5b5b61278f576040517f08c379a000000000000000000000000000000000000000000000000000000000815260040161278690614a93565b60405180910390fd5b5050505050565b5f7f9016d09d72d40fdae2fd8ceac6b6234c7706214fd39c1cd1e609a0528c199300905090565b5f5f5f5f60025f9054906101000a900473ffffffffffffffffffffffffffffffffffffffff1673ffffffffffffffffffffffffffffffffffffffff1663c45a01556040518163ffffffff1660e01b8152600401602060405180830381865afa15801561282b573d5f5f3e3d5ffd5b505050506040513d601f19601f8201168201806040525081019061284f9190613fbc565b90508073ffffffffffffffffffffffffffffffffffffffff1663e6a4390589896040518363ffffffff1660e01b815260040161288c929190613fe7565b602060405180830381865afa1580156128a7573d5f5f3e3d5ffd5b505050506040513d601f19601f820116820180604052508101906128cb9190613fbc565b93505f73ffffffffffffffffffffffffffffffffffffffff168473ffffffffffffffffffffffffffffffffffffffff160361293b576040517f08c379a000000000000000000000000000000000000000000000000000000000815260040161293290614058565b60405180910390fd5b5f8473ffffffffffffffffffffffffffffffffffffffff166370a08231306040518263ffffffff1660e01b81526004016129759190613318565b602060405180830381865afa158015612990573d5f5f3e3d5ffd5b505050506040513d601f19601f820116820180604052508101906129b4919061408a565b9050868110156129f9576040517f08c379a00000000000000000000000000000000000000000000000000000000081526004016129f090614afb565b60405180910390fd5b612a258560025f9054906101000a900473ffffffffffffffffffffffffffffffffffffffff1689612666565b60025f9054906101000a900473ffffffffffffffffffffffffffffffffffffffff1673ffffffffffffffffffffffffffffffffffffffff1663baa2abde8a8a8a5f5f8c601e42612a759190613dd5565b6040518863ffffffff1660e01b8152600401612a979796959493929190614b19565b60408051808303815f875af1158015612ab2573d5f5f3e3d5ffd5b505050506040513d601f19601f82011682018060405250810190612ad69190614b86565b809450819550505050509450945094915050565b5f5f612af4612d0d565b90508091505090565b5f33905090565b612b0c612d36565b612b1581612d76565b50565b5f612b447f360894a13ba1a3210667c828492db98dca3e2076cc3735a920a3ca505d382bbc5f1b612dfa565b5f015f9054906101000a900473ffffffffffffffffffffffffffffffffffffffff16905090565b612b7482612e03565b8173ffffffffffffffffffffffffffffffffffffffff167fbc7cd75a20ee27fd9adebab32041f755214dbc6bffa90cc0225b39da2e5c2d3b60405160405180910390a25f81511115612bd057612bca8282612ecc565b50612bd9565b612bd8612fbd565b5b5050565b5f5f8473ffffffffffffffffffffffffffffffffffffffff1663a9059cbb8585604051602401612c0e929190614a22565b6040516020818303038152906040529060e01b6020820180517bffffffffffffffffffffffffffffffffffffffffffffffffffffffff8381831617835250505050604051612c5c91906147bf565b5f604051808303815f865af19150503d805f8114612c95576040519150601f19603f3d011682016040523d82523d5f602084013e612c9a565b606091505b5091509150818015612cc757505f81511480612cc6575080806020019051810190612cc5919061480a565b5b5b612d06576040517f08c379a0000000000000000000000000000000000000000000000000000000008152600401612cfd90614c0e565b60405180910390fd5b5050505050565b5f7ff0c57e16840df040f15088dc2f81fe391c3923bec73e23a9662efc9c229c6a005f1b905090565b612d3e612ff9565b612d74576040517fd7e6bcf800000000000000000000000000000000000000000000000000000000815260040160405180910390fd5b565b612d7e612d36565b5f73ffffffffffffffffffffffffffffffffffffffff168173ffffffffffffffffffffffffffffffffffffffff1603612dee575f6040517f1e4fbdf7000000000000000000000000000000000000000000000000000000008152600401612de59190613318565b60405180910390fd5b612df7816123d7565b50565b5f819050919050565b5f8173ffffffffffffffffffffffffffffffffffffffff163b03612e5e57806040517f4c9c8ce3000000000000000000000000000000000000000000000000000000008152600401612e559190613318565b60405180910390fd5b80612e8a7f360894a13ba1a3210667c828492db98dca3e2076cc3735a920a3ca505d382bbc5f1b612dfa565b5f015f6101000a81548173ffffffffffffffffffffffffffffffffffffffff021916908373ffffffffffffffffffffffffffffffffffffffff16021790555050565b60605f612ed98484613017565b9050808015612f0f57505f612eec61302b565b1180612f0e57505f8473ffffffffffffffffffffffffffffffffffffffff163b115b5b15612f2457612f1c613032565b915050612fb7565b8015612f6757836040517f9996b315000000000000000000000000000000000000000000000000000000008152600401612f5e9190613318565b60405180910390fd5b5f612f7061302b565b1115612f8357612f7e61304f565b612fb5565b6040517fd6bda27500000000000000000000000000000000000000000000000000000000815260040160405180910390fd5b505b92915050565b5f341115612ff7576040517fb398979f00000000000000000000000000000000000000000000000000000000815260040160405180910390fd5b565b5f613002612aea565b5f0160089054906101000a900460ff16905090565b5f5f5f835160208501865af4905092915050565b5f3d905090565b606060405190503d81523d5f602083013e3d602001810160405290565b6040513d5f823e3d81fd5b5080545f8255905f5260205f209081019061307591906130c4565b50565b5080545f8255905f5260205f209081019061309391906130c4565b50565b60405180604001604052805f73ffffffffffffffffffffffffffffffffffffffff1681526020015f81525090565b5b808211156130db575f815f9055506001016130c5565b5090565b5f82825260208201905092915050565b7f4e4f5f4449524543545f53454e440000000000000000000000000000000000005f82015250565b5f613123600e836130df565b915061312e826130ef565b602082019050919050565b5f6020820190508181035f83015261315081613117565b9050919050565b5f604051905090565b5f5ffd5b5f5ffd5b5f73ffffffffffffffffffffffffffffffffffffffff82169050919050565b5f61319182613168565b9050919050565b6131a181613187565b81146131ab575f5ffd5b50565b5f813590506131bc81613198565b92915050565b5f5ffd5b5f5ffd5b5f5ffd5b5f5f83601f8401126131e3576131e26131c2565b5b8235905067ffffffffffffffff811115613200576131ff6131c6565b5b60208301915083602082028301111561321c5761321b6131ca565b5b9250929050565b5f5f83601f840112613238576132376131c2565b5b8235905067ffffffffffffffff811115613255576132546131c6565b5b602083019150836020820283011115613271576132706131ca565b5b9250929050565b5f5f5f5f5f6060868803121561329157613290613160565b5b5f61329e888289016131ae565b955050602086013567ffffffffffffffff8111156132bf576132be613164565b5b6132cb888289016131ce565b9450945050604086013567ffffffffffffffff8111156132ee576132ed613164565b5b6132fa88828901613223565b92509250509295509295909350565b61331281613187565b82525050565b5f60208201905061332b5f830184613309565b92915050565b5f5ffd5b5f601f19601f8301169050919050565b7f4e487b71000000000000000000000000000000000000000000000000000000005f52604160045260245ffd5b61337b82613335565b810181811067ffffffffffffffff8211171561339a57613399613345565b5b80604052505050565b5f6133ac613157565b90506133b88282613372565b919050565b5f67ffffffffffffffff8211156133d7576133d6613345565b5b6133e082613335565b9050602081019050919050565b828183375f83830152505050565b5f61340d613408846133bd565b6133a3565b90508281526020810184848401111561342957613428613331565b5b6134348482856133ed565b509392505050565b5f82601f8301126134505761344f6131c2565b5b81356134608482602086016133fb565b91505092915050565b5f5f6040838503121561347f5761347e613160565b5b5f61348c858286016131ae565b925050602083013567ffffffffffffffff8111156134ad576134ac613164565b5b6134b98582860161343c565b9150509250929050565b5f819050919050565b6134d5816134c3565b82525050565b5f6020820190506134ee5f8301846134cc565b92915050565b5f67ffffffffffffffff82111561350e5761350d613345565b5b61351782613335565b9050602081019050919050565b5f613536613531846134f4565b6133a3565b90508281526020810184848401111561355257613551613331565b5b61355d8482856133ed565b509392505050565b5f82601f830112613579576135786131c2565b5b8135613589848260208601613524565b91505092915050565b5f819050919050565b6135a481613592565b81146135ae575f5ffd5b50565b5f813590506135bf8161359b565b92915050565b5f5f5f5f608085870312156135dd576135dc613160565b5b5f85013567ffffffffffffffff8111156135fa576135f9613164565b5b61360687828801613565565b9450506020613617878288016131ae565b9350506040613628878288016135b1565b9250506060613639878288016131ae565b91505092959194509250565b5f5f83601f84011261365a576136596131c2565b5b8235905067ffffffffffffffff811115613677576136766131c6565b5b602083019150836001820283011115613693576136926131ca565b5b9250929050565b5f5f5f5f5f5f60a087890312156136b4576136b3613160565b5b5f6136c189828a016131ae565b96505060206136d289828a016131ae565b95505060406136e389828a016135b1565b94505060606136f489828a016135b1565b935050608087013567ffffffffffffffff81111561371557613714613164565b5b61372189828a01613645565b92509250509295509295509295565b5f5f5f5f5f5f5f60c0888a03121561374b5761374a613160565b5b5f6137588a828b016131ae565b97505060206137698a828b016131ae565b965050604061377a8a828b016135b1565b955050606061378b8a828b016131ae565b945050608061379c8a828b016131ae565b93505060a088013567ffffffffffffffff8111156137bd576137bc613164565b5b6137c98a828b01613645565b925092505092959891949750929550565b5f5f5f604084860312156137f1576137f0613160565b5b5f6137fe868287016131ae565b935050602084013567ffffffffffffffff81111561381f5761381e613164565b5b61382b868287016131ce565b92509250509250925092565b5f81519050919050565b5f82825260208201905092915050565b5f819050602082019050919050565b61386981613187565b82525050565b61387881613592565b82525050565b604082015f8201516138925f850182613860565b5060208201516138a5602085018261386f565b50505050565b5f6138b6838361387e565b60408301905092915050565b5f602082019050919050565b5f6138d882613837565b6138e28185613841565b93506138ed83613851565b805f5b8381101561391d57815161390488826138ab565b975061390f836138c2565b9250506001810190506138f0565b5085935050505092915050565b5f6020820190508181035f83015261394281846138ce565b905092915050565b5f81519050919050565b8281835e5f83830152505050565b5f61396c8261394a565b61397681856130df565b9350613986818560208601613954565b61398f81613335565b840191505092915050565b5f6020820190508181035f8301526139b28184613962565b905092915050565b5f5f5f606084860312156139d1576139d0613160565b5b5f6139de868287016131ae565b93505060206139ef868287016131ae565b9250506040613a00868287016135b1565b9150509250925092565b613a1381613592565b82525050565b5f602082019050613a2c5f830184613a0a565b92915050565b5f5f5f5f5f5f60a08789031215613a4c57613a4b613160565b5b5f613a5989828a016131ae565b9650506020613a6a89828a016131ae565b9550506040613a7b89828a016135b1565b9450506060613a8c89828a016131ae565b935050608087013567ffffffffffffffff811115613aad57613aac613164565b5b613ab989828a01613645565b92509250509295509295509295565b5f5f5f5f5f60808688031215613ae157613ae0613160565b5b5f613aee888289016131ae565b9550506020613aff888289016131ae565b9450506040613b10888289016135b1565b935050606086013567ffffffffffffffff811115613b3157613b30613164565b5b613b3d88828901613645565b92509250509295509295909350565b5f60208284031215613b6157613b60613160565b5b5f613b6e848285016131ae565b91505092915050565b5f5f5f5f60808587031215613b8f57613b8e613160565b5b5f613b9c878288016131ae565b9450506020613bad878288016131ae565b9350506040613bbe878288016131ae565b9250506060613bcf878288016131ae565b91505092959194509250565b7f4e6f74207065726d69742e0000000000000000000000000000000000000000005f82015250565b5f613c0f600b836130df565b9150613c1a82613bdb565b602082019050919050565b5f6020820190508181035f830152613c3c81613c03565b9050919050565b7f4572726f7220617272617920646174612e0000000000000000000000000000005f82015250565b5f613c776011836130df565b9150613c8282613c43565b602082019050919050565b5f6020820190508181035f830152613ca481613c6b565b9050919050565b7f4e487b71000000000000000000000000000000000000000000000000000000005f52603260045260245ffd5b7f5a45524f5f4144445245535300000000000000000000000000000000000000005f82015250565b5f613d0c600c836130df565b9150613d1782613cd8565b602082019050919050565b5f6020820190508181035f830152613d3981613d00565b9050919050565b7f5a45524f5f5241544500000000000000000000000000000000000000000000005f82015250565b5f613d746009836130df565b9150613d7f82613d40565b602082019050919050565b5f6020820190508181035f830152613da181613d68565b9050919050565b7f4e487b71000000000000000000000000000000000000000000000000000000005f52601160045260245ffd5b5f613ddf82613592565b9150613dea83613592565b9250828201905080821115613e0257613e01613da8565b5b92915050565b7f494e56414c49445f5241544500000000000000000000000000000000000000005f82015250565b5f613e3c600c836130df565b9150613e4782613e08565b602082019050919050565b5f6020820190508181035f830152613e6981613e30565b9050919050565b7f4552524f525f414d4f554e542e000000000000000000000000000000000000005f82015250565b5f613ea4600d836130df565b9150613eaf82613e70565b602082019050919050565b5f6020820190508181035f830152613ed181613e98565b9050919050565b5f6080820190508181035f830152613ef08187613962565b9050613eff6020830186613309565b613f0c6040830185613309565b613f196060830184613a0a565b95945050505050565b5f613f2d83856130df565b9350613f3a8385846133ed565b613f4383613335565b840190509392505050565b5f60a0820190508181035f830152613f6781888a613f22565b9050613f766020830187613309565b613f836040830186613a0a565b613f906060830185613309565b613f9d6080830184613a0a565b979650505050505050565b5f81519050613fb681613198565b92915050565b5f60208284031215613fd157613fd0613160565b5b5f613fde84828501613fa8565b91505092915050565b5f604082019050613ffa5f830185613309565b6140076020830184613309565b9392505050565b7f496e76616c696420706169722e000000000000000000000000000000000000005f82015250565b5f614042600d836130df565b915061404d8261400e565b602082019050919050565b5f6020820190508181035f83015261406f81614036565b9050919050565b5f815190506140848161359b565b92915050565b5f6020828403121561409f5761409e613160565b5b5f6140ac84828501614076565b91505092915050565b7f4c697175696469747920646f6573206e6f742065786973742e000000000000005f82015250565b5f6140e96019836130df565b91506140f4826140b5565b602082019050919050565b5f6020820190508181035f830152614116816140dd565b9050919050565b5f819050919050565b5f819050919050565b5f61414961414461413f8461411d565b614126565b613592565b9050919050565b6141598161412f565b82525050565b5f81519050919050565b5f82825260208201905092915050565b5f819050602082019050919050565b5f6141938383613860565b60208301905092915050565b5f602082019050919050565b5f6141b58261415f565b6141bf8185614169565b93506141ca83614179565b805f5b838110156141fa5781516141e18882614188565b97506141ec8361419f565b9250506001810190506141cd565b5085935050505092915050565b5f60a08201905061421a5f830188613a0a565b6142276020830187614150565b818103604083015261423981866141ab565b90506142486060830185613309565b6142556080830184613a0a565b9695505050505050565b5f60c0820190508181035f83015261427881898b613f22565b90506142876020830188613309565b6142946040830187613a0a565b6142a16060830186613309565b6142ae6080830185613309565b6142bb60a0830184613309565b98975050505050505050565b5f6dffffffffffffffffffffffffffff82169050919050565b6142e9816142c7565b81146142f3575f5ffd5b50565b5f81519050614304816142e0565b92915050565b5f63ffffffff82169050919050565b6143228161430a565b811461432c575f5ffd5b50565b5f8151905061433d81614319565b92915050565b5f5f5f6060848603121561435a57614359613160565b5b5f614367868287016142f6565b9350506020614378868287016142f6565b92505060406143898682870161432f565b9150509250925092565b5f6143ad6143a86143a3846142c7565b614126565b613592565b9050919050565b6143bd81614393565b82525050565b5f6060820190506143d65f830186613a0a565b6143e360208301856143b4565b6143f060408301846143b4565b949350505050565b7f4e487b71000000000000000000000000000000000000000000000000000000005f52602160045260245ffd5b60038110614436576144356143f8565b5b50565b5f81905061444682614425565b919050565b5f61445582614439565b9050919050565b6144658161444b565b82525050565b5f610100820190508181035f830152614485818b8d613f22565b9050614494602083018a613309565b6144a16040830189613a0a565b6144ae6060830188613309565b6144bb6080830187613a0a565b6144c860a0830186613309565b6144d560c0830185613a0a565b6144e260e083018461445c565b9a9950505050505050505050565b7f5a45524f5f414d4f554e540000000000000000000000000000000000000000005f82015250565b5f614524600b836130df565b915061452f826144f0565b602082019050919050565b5f6020820190508181035f83015261455181614518565b9050919050565b5f60608201905061456b5f830186613309565b6145786020830185613309565b6145856040830184613a0a565b949350505050565b7f504149525f4e4f545f52454144590000000000000000000000000000000000005f82015250565b5f6145c1600e836130df565b91506145cc8261458d565b602082019050919050565b5f6020820190508181035f8301526145ee816145b5565b9050919050565b5f610100820190506146095f83018b613309565b614616602083018a613309565b6146236040830189613a0a565b6146306060830188613a0a565b61463d6080830187614150565b61464a60a0830186614150565b61465760c0830185613309565b61466460e0830184613a0a565b9998505050505050505050565b5f5f5f6060848603121561468857614687613160565b5b5f61469586828701614076565b93505060206146a686828701614076565b92505060406146b786828701614076565b9150509250925092565b5f819050919050565b5f67ffffffffffffffff82169050919050565b5f6146f76146f26146ed846146c1565b614126565b6146ca565b9050919050565b614707816146dd565b82525050565b5f6020820190506147205f8301846146fe565b92915050565b61472f816134c3565b8114614739575f5ffd5b50565b5f8151905061474a81614726565b92915050565b5f6020828403121561476557614764613160565b5b5f6147728482850161473c565b91505092915050565b5f81519050919050565b5f81905092915050565b5f6147998261477b565b6147a38185614785565b93506147b3818560208601613954565b80840191505092915050565b5f6147ca828461478f565b915081905092915050565b5f8115159050919050565b6147e9816147d5565b81146147f3575f5ffd5b50565b5f81519050614804816147e0565b92915050565b5f6020828403121561481f5761481e613160565b5b5f61482c848285016147f6565b91505092915050565b7f5472616e7366657248656c7065723a205452414e534645525f46524f4d5f46415f8201527f494c454400000000000000000000000000000000000000000000000000000000602082015250565b5f61488f6024836130df565b915061489a82614835565b604082019050919050565b5f6020820190508181035f8301526148bc81614883565b9050919050565b7f5472616e7366657248656c7065723a204554485f5452414e534645525f4641495f8201527f4c45440000000000000000000000000000000000000000000000000000000000602082015250565b5f61491d6023836130df565b9150614928826148c3565b604082019050919050565b5f6020820190508181035f83015261494a81614911565b9050919050565b5f61495b82613592565b915061496683613592565b925082820390508181111561497e5761497d613da8565b5b92915050565b5f61498e82613592565b915061499983613592565b92508282026149a781613592565b915082820484148315176149be576149bd613da8565b5b5092915050565b7f4e487b71000000000000000000000000000000000000000000000000000000005f52601260045260245ffd5b5f6149fc82613592565b9150614a0783613592565b925082614a1757614a166149c5565b5b828204905092915050565b5f604082019050614a355f830185613309565b614a426020830184613a0a565b9392505050565b7f5472616e7366657248656c7065723a20415050524f56455f4641494c454400005f82015250565b5f614a7d601e836130df565b9150614a8882614a49565b602082019050919050565b5f6020820190508181035f830152614aaa81614a71565b9050919050565b7f496e73756666696369656e7420616d6f756e742e0000000000000000000000005f82015250565b5f614ae56014836130df565b9150614af082614ab1565b602082019050919050565b5f6020820190508181035f830152614b1281614ad9565b9050919050565b5f60e082019050614b2c5f83018a613309565b614b396020830189613309565b614b466040830188613a0a565b614b536060830187614150565b614b606080830186614150565b614b6d60a0830185613309565b614b7a60c0830184613a0a565b98975050505050505050565b5f5f60408385031215614b9c57614b9b613160565b5b5f614ba985828601614076565b9250506020614bba85828601614076565b9150509250929050565b7f5472616e7366657248656c7065723a205452414e534645525f4641494c4544005f82015250565b5f614bf8601f836130df565b9150614c0382614bc4565b602082019050919050565b5f6020820190508181035f830152614c2581614bec565b905091905056fea26469706673582212205988da285edae89034c560fd4781f9ffbbfd552e81b1b025c90403ab770a137a64736f6c634300081e0033","linkReferences":{}},"methodIdentifiers":{"UPGRADE_INTERFACE_VERSION()":"ad3cb1cc","addLiquidity(address,address,uint256,string)":"d9105f63","admin()":"f851a440","getQuoteAmount(address,address,uint256)":"b68cdb31","initialize(address,address,address,address)":"f8c8765e","multiBalanceOf(address,address[])":"9f166cf1","multiRecharge(address,address,uint256,uint256,string)":"71862276","owner()":"8da5cb5b","proxiableUUID()":"52d1902d","recipient()":"66d003ac","removeLiquidity(address,address,uint256,address,string)":"c474603d","renounceOwnership()":"715018a6","sender()":"67e404ce","setAllocation(address,address[],uint256[])":"07e312a4","swapExactIn(address,address,uint256,address,address,string)":"762cdf81","transferOwnership(address)":"f2fde38b","uniswapV2Router()":"1694505e","upgradeToAndCall(address,bytes)":"4f1ef286","withdraw(string,address,uint256,address)":"62a33811"},"id":41}