{"abi":[{"type":"constructor","inputs":[{"name":"_finance","type":"address","internalType":"contract Finance"}],"stateMutability":"nonpayable"},{"type":"function","name":"finance","inputs":[],"outputs":[{"name":"","type":"address","internalType":"contract Finance"}],"stateMutability":"view"},{"type":"function","name":"getUserInfoBasic","inputs":[{"name":"user","type":"address","internalType":"address"}],"outputs":[{"name":"stakingUsdt","type":"uint256","internalType":"uint256"},{"name":"extracted","type":"uint256","internalType":"uint256"},{"name":"remaining","type":"uint256","internalType":"uint256"},{"name":"stakingAward","type":"uint256","internalType":"uint256"},{"name":"extractable","type":"uint256","internalType":"uint256"},{"name":"referralAward","type":"uint256","internalType":"uint256"},{"name":"shareAward","type":"uint256","internalType":"uint256"}],"stateMutability":"view"},{"type":"function","name":"getUserInfoReferral","inputs":[{"name":"user","type":"address","internalType":"address"}],"outputs":[{"name":"level","type":"uint8","internalType":"enum Process.Level"},{"name":"recommender","type":"address","internalType":"address"},{"name":"referralNum","type":"uint256","internalType":"uint256"},{"name":"performance","type":"uint256","internalType":"uint256"},{"name":"subCoinQuota","type":"uint256","internalType":"uint256"}],"stateMutability":"view"}],"bytecode":{"object":"0x60a060405234801561000f575f5ffd5b50604051610b8b380380610b8b833981810160405281019061003191906100da565b8073ffffffffffffffffffffffffffffffffffffffff1660808173ffffffffffffffffffffffffffffffffffffffff168152505050610105565b5f5ffd5b5f73ffffffffffffffffffffffffffffffffffffffff82169050919050565b5f6100988261006f565b9050919050565b5f6100a98261008e565b9050919050565b6100b98161009f565b81146100c3575f5ffd5b50565b5f815190506100d4816100b0565b92915050565b5f602082840312156100ef576100ee61006b565b5b5f6100fc848285016100c6565b91505092915050565b608051610a466101455f395f818160cd0152818160f6015281816101bb0152818161026301528181610322015281816103da01526104740152610a465ff3fe608060405234801561000f575f5ffd5b506004361061003f575f3560e01c8063313b7b19146100435780639238b0f914610061578063b500682314610095575b5f5ffd5b61004b6100cb565b6040516100589190610592565b60405180910390f35b61007b600480360381019061007691906105ea565b6100ef565b60405161008c9594939291906106af565b60405180910390f35b6100af60048036038101906100aa91906105ea565b6101b2565b6040516100c29796959493929190610700565b60405180910390f35b7f000000000000000000000000000000000000000000000000000000000000000081565b5f5f5f5f5f7f000000000000000000000000000000000000000000000000000000000000000073ffffffffffffffffffffffffffffffffffffffff166339540b0a876040518263ffffffff1660e01b815260040161014d919061076d565b61010060405180830381865afa158015610169573d5f5f3e3d5ffd5b505050506040513d601f19601f8201168201806040525081019061018d919061081c565b9091925090915050809550819650829750839950849850505050505091939590929450565b5f5f5f5f5f5f5f7f000000000000000000000000000000000000000000000000000000000000000073ffffffffffffffffffffffffffffffffffffffff16631959a002896040518263ffffffff1660e01b8152600401610212919061076d565b60a060405180830381865afa15801561022d573d5f5f3e3d5ffd5b505050506040513d601f19601f8201168201806040525081019061025191906108cd565b909192509091505080975081985050507f000000000000000000000000000000000000000000000000000000000000000073ffffffffffffffffffffffffffffffffffffffff166339540b0a896040518263ffffffff1660e01b81526004016102ba919061076d565b61010060405180830381865afa1580156102d6573d5f5f3e3d5ffd5b505050506040513d601f19601f820116820180604052508101906102fa919061081c565b909192939495965090919293949550909192939450909192935090505080925081935050505f7f000000000000000000000000000000000000000000000000000000000000000073ffffffffffffffffffffffffffffffffffffffff16637516a79e6040518163ffffffff1660e01b8152600401602060405180830381865afa158015610389573d5f5f3e3d5ffd5b505050506040513d601f19601f820116820180604052508101906103ad9190610944565b886103b8919061099c565b90508681106103d45786816103cd91906109dd565b95506103d8565b5f95505b7f000000000000000000000000000000000000000000000000000000000000000073ffffffffffffffffffffffffffffffffffffffff16630acf716b8a6040518263ffffffff1660e01b8152600401610431919061076d565b602060405180830381865afa15801561044c573d5f5f3e3d5ffd5b505050506040513d601f19601f820116820180604052508101906104709190610944565b94507f000000000000000000000000000000000000000000000000000000000000000073ffffffffffffffffffffffffffffffffffffffff16633e4ff6f28a6040518263ffffffff1660e01b81526004016104cb919061076d565b602060405180830381865afa1580156104e6573d5f5f3e3d5ffd5b505050506040513d601f19601f8201168201806040525081019061050a9190610944565b935050919395979092949650565b5f73ffffffffffffffffffffffffffffffffffffffff82169050919050565b5f819050919050565b5f61055a61055561055084610518565b610537565b610518565b9050919050565b5f61056b82610540565b9050919050565b5f61057c82610561565b9050919050565b61058c81610572565b82525050565b5f6020820190506105a55f830184610583565b92915050565b5f5ffd5b5f6105b982610518565b9050919050565b6105c9816105af565b81146105d3575f5ffd5b50565b5f813590506105e4816105c0565b92915050565b5f602082840312156105ff576105fe6105ab565b5b5f61060c848285016105d6565b91505092915050565b7f4e487b71000000000000000000000000000000000000000000000000000000005f52602160045260245ffd5b6007811061065357610652610615565b5b50565b5f81905061066382610642565b919050565b5f61067282610656565b9050919050565b61068281610668565b82525050565b610691816105af565b82525050565b5f819050919050565b6106a981610697565b82525050565b5f60a0820190506106c25f830188610679565b6106cf6020830187610688565b6106dc60408301866106a0565b6106e960608301856106a0565b6106f660808301846106a0565b9695505050505050565b5f60e0820190506107135f83018a6106a0565b61072060208301896106a0565b61072d60408301886106a0565b61073a60608301876106a0565b61074760808301866106a0565b61075460a08301856106a0565b61076160c08301846106a0565b98975050505050505050565b5f6020820190506107805f830184610688565b92915050565b5f81519050610794816105c0565b92915050565b600781106107a6575f5ffd5b50565b5f815190506107b78161079a565b92915050565b6107c681610697565b81146107d0575f5ffd5b50565b5f815190506107e1816107bd565b92915050565b5f8115159050919050565b6107fb816107e7565b8114610805575f5ffd5b50565b5f81519050610816816107f2565b92915050565b5f5f5f5f5f5f5f5f610100898b031215610839576108386105ab565b5b5f6108468b828c01610786565b98505060206108578b828c016107a9565b97505060406108688b828c016107d3565b96505060606108798b828c016107d3565b955050608061088a8b828c016107d3565b94505060a061089b8b828c016107d3565b93505060c06108ac8b828c016107d3565b92505060e06108bd8b828c01610808565b9150509295985092959890939650565b5f5f5f5f5f60a086880312156108e6576108e56105ab565b5b5f6108f3888289016107d3565b9550506020610904888289016107d3565b9450506040610915888289016107d3565b9350506060610926888289016107d3565b925050608061093788828901610808565b9150509295509295909350565b5f60208284031215610959576109586105ab565b5b5f610966848285016107d3565b91505092915050565b7f4e487b71000000000000000000000000000000000000000000000000000000005f52601160045260245ffd5b5f6109a682610697565b91506109b183610697565b92508282026109bf81610697565b915082820484148315176109d6576109d561096f565b5b5092915050565b5f6109e782610697565b91506109f283610697565b9250828203905081811115610a0a57610a0961096f565b5b9291505056fea264697066735822122045d180d8a97e6feb0b51584065323107984d52f954128e486782d1c7bcef539964736f6c634300081e0033","linkReferences":{}},"methodIdentifiers":{"finance()":"313b7b19","getUserInfoBasic(address)":"b5006823","getUserInfoReferral(address)":"9238b0f9"},"id":50}